{
	"test/UniswapRouter-test.sol": {
		"MockUniswapRouter": {
			"abi": [
				{
					"inputs": [
						{
							"internalType": "uint256",
							"name": "amountIn",
							"type": "uint256"
						},
						{
							"internalType": "address[]",
							"name": "",
							"type": "address[]"
						}
					],
					"name": "getAmountsOut",
					"outputs": [
						{
							"internalType": "uint256[2]",
							"name": "amounts",
							"type": "uint256[2]"
						}
					],
					"stateMutability": "pure",
					"type": "function"
				},
				{
					"inputs": [
						{
							"internalType": "uint256",
							"name": "amountIn",
							"type": "uint256"
						},
						{
							"internalType": "uint256",
							"name": "amountOutMin",
							"type": "uint256"
						},
						{
							"internalType": "address[]",
							"name": "",
							"type": "address[]"
						},
						{
							"internalType": "address",
							"name": "",
							"type": "address"
						},
						{
							"internalType": "uint256",
							"name": "",
							"type": "uint256"
						}
					],
					"name": "swapExactTokensForTokens",
					"outputs": [
						{
							"internalType": "uint256[2]",
							"name": "amounts",
							"type": "uint256[2]"
						}
					],
					"stateMutability": "pure",
					"type": "function"
				}
			],
			"devdoc": {
				"kind": "dev",
				"methods": {},
				"version": 1
			},
			"evm": {
				"assembly": "    /* \"test/UniswapRouter-test.sol\":61:911  contract MockUniswapRouter {... */\n  mstore(0x40, 0x80)\n  callvalue\n  dup1\n  iszero\n  tag_1\n  jumpi\n  0x00\n  dup1\n  revert\ntag_1:\n  pop\n  dataSize(sub_0)\n  dup1\n  dataOffset(sub_0)\n  0x00\n  codecopy\n  0x00\n  return\nstop\n\nsub_0: assembly {\n        /* \"test/UniswapRouter-test.sol\":61:911  contract MockUniswapRouter {... */\n      mstore(0x40, 0x80)\n      callvalue\n      dup1\n      iszero\n      tag_1\n      jumpi\n      0x00\n      dup1\n      revert\n    tag_1:\n      pop\n      jumpi(tag_2, lt(calldatasize, 0x04))\n      shr(0xe0, calldataload(0x00))\n      dup1\n      0x38ed1739\n      eq\n      tag_3\n      jumpi\n      dup1\n      0xd06ca61f\n      eq\n      tag_4\n      jumpi\n    tag_2:\n      0x00\n      dup1\n      revert\n        /* \"test/UniswapRouter-test.sol\":159:560  function swapExactTokensForTokens(... */\n    tag_3:\n      tag_5\n      0x04\n      dup1\n      calldatasize\n      sub\n      dup2\n      add\n      swap1\n      tag_6\n      swap2\n      swap1\n      tag_7\n      jump\t// in\n    tag_6:\n      tag_8\n      jump\t// in\n    tag_5:\n      mload(0x40)\n      tag_9\n      swap2\n      swap1\n      tag_10\n      jump\t// in\n    tag_9:\n      mload(0x40)\n      dup1\n      swap2\n      sub\n      swap1\n      return\n        /* \"test/UniswapRouter-test.sol\":621:908  function getAmountsOut(uint256 amountIn, address[] calldata /* path */) external pure returns (uint256[2] memory amounts) {... */\n    tag_4:\n      tag_11\n      0x04\n      dup1\n      calldatasize\n      sub\n      dup2\n      add\n      swap1\n      tag_12\n      swap2\n      swap1\n      tag_13\n      jump\t// in\n    tag_12:\n      tag_14\n      jump\t// in\n    tag_11:\n      mload(0x40)\n      tag_15\n      swap2\n      swap1\n      tag_10\n      jump\t// in\n    tag_15:\n      mload(0x40)\n      dup1\n      swap2\n      sub\n      swap1\n      return\n        /* \"test/UniswapRouter-test.sol\":159:560  function swapExactTokensForTokens(... */\n    tag_8:\n        /* \"test/UniswapRouter-test.sol\":378:403  uint256[2] memory amounts */\n      tag_16\n      tag_17\n      jump\t// in\n    tag_16:\n        /* \"test/UniswapRouter-test.sol\":493:527  amounts = [amountOutMin, amountIn] */\n      mload(0x40)\n      dup1\n      0x40\n      add\n      0x40\n      mstore\n      dup1\n        /* \"test/UniswapRouter-test.sol\":504:516  amountOutMin */\n      dup8\n        /* \"test/UniswapRouter-test.sol\":493:527  amounts = [amountOutMin, amountIn] */\n      dup2\n      mstore\n      0x20\n      add\n        /* \"test/UniswapRouter-test.sol\":518:526  amountIn */\n      dup9\n        /* \"test/UniswapRouter-test.sol\":493:527  amounts = [amountOutMin, amountIn] */\n      dup2\n      mstore\n      pop\n      swap1\n      pop\n        /* \"test/UniswapRouter-test.sol\":159:560  function swapExactTokensForTokens(... */\n      swap7\n      swap6\n      pop\n      pop\n      pop\n      pop\n      pop\n      pop\n      jump\t// out\n        /* \"test/UniswapRouter-test.sol\":621:908  function getAmountsOut(uint256 amountIn, address[] calldata /* path */) external pure returns (uint256[2] memory amounts) {... */\n    tag_14:\n        /* \"test/UniswapRouter-test.sol\":716:741  uint256[2] memory amounts */\n      tag_19\n      tag_17\n      jump\t// in\n    tag_19:\n        /* \"test/UniswapRouter-test.sol\":845:875  amounts = [amountIn, amountIn] */\n      mload(0x40)\n      dup1\n      0x40\n      add\n      0x40\n      mstore\n      dup1\n        /* \"test/UniswapRouter-test.sol\":856:864  amountIn */\n      dup6\n        /* \"test/UniswapRouter-test.sol\":845:875  amounts = [amountIn, amountIn] */\n      dup2\n      mstore\n      0x20\n      add\n        /* \"test/UniswapRouter-test.sol\":866:874  amountIn */\n      dup6\n        /* \"test/UniswapRouter-test.sol\":845:875  amounts = [amountIn, amountIn] */\n      dup2\n      mstore\n      pop\n      swap1\n      pop\n        /* \"test/UniswapRouter-test.sol\":621:908  function getAmountsOut(uint256 amountIn, address[] calldata /* path */) external pure returns (uint256[2] memory amounts) {... */\n      swap4\n      swap3\n      pop\n      pop\n      pop\n      jump\t// out\n    tag_17:\n      mload(0x40)\n      dup1\n      0x40\n      add\n      0x40\n      mstore\n      dup1\n      0x02\n      swap1\n      0x20\n      dup3\n      mul\n      dup1\n      calldatasize\n      dup4\n      calldatacopy\n      dup1\n      dup3\n      add\n      swap2\n      pop\n      pop\n      swap1\n      pop\n      pop\n      swap1\n      jump\t// out\n        /* \"#utility.yul\":88:205   */\n    tag_22:\n        /* \"#utility.yul\":197:198   */\n      0x00\n        /* \"#utility.yul\":194:195   */\n      dup1\n        /* \"#utility.yul\":187:199   */\n      revert\n        /* \"#utility.yul\":211:328   */\n    tag_23:\n        /* \"#utility.yul\":320:321   */\n      0x00\n        /* \"#utility.yul\":317:318   */\n      dup1\n        /* \"#utility.yul\":310:322   */\n      revert\n        /* \"#utility.yul\":334:411   */\n    tag_24:\n        /* \"#utility.yul\":371:378   */\n      0x00\n        /* \"#utility.yul\":400:405   */\n      dup2\n        /* \"#utility.yul\":389:405   */\n      swap1\n      pop\n        /* \"#utility.yul\":334:411   */\n      swap2\n      swap1\n      pop\n      jump\t// out\n        /* \"#utility.yul\":417:539   */\n    tag_25:\n        /* \"#utility.yul\":490:514   */\n      tag_48\n        /* \"#utility.yul\":508:513   */\n      dup2\n        /* \"#utility.yul\":490:514   */\n      tag_24\n      jump\t// in\n    tag_48:\n        /* \"#utility.yul\":483:488   */\n      dup2\n        /* \"#utility.yul\":480:515   */\n      eq\n        /* \"#utility.yul\":470:533   */\n      tag_49\n      jumpi\n        /* \"#utility.yul\":529:530   */\n      0x00\n        /* \"#utility.yul\":526:527   */\n      dup1\n        /* \"#utility.yul\":519:531   */\n      revert\n        /* \"#utility.yul\":470:533   */\n    tag_49:\n        /* \"#utility.yul\":417:539   */\n      pop\n      jump\t// out\n        /* \"#utility.yul\":545:684   */\n    tag_26:\n        /* \"#utility.yul\":591:596   */\n      0x00\n        /* \"#utility.yul\":629:635   */\n      dup2\n        /* \"#utility.yul\":616:636   */\n      calldataload\n        /* \"#utility.yul\":607:636   */\n      swap1\n      pop\n        /* \"#utility.yul\":645:678   */\n      tag_51\n        /* \"#utility.yul\":672:677   */\n      dup2\n        /* \"#utility.yul\":645:678   */\n      tag_25\n      jump\t// in\n    tag_51:\n        /* \"#utility.yul\":545:684   */\n      swap3\n      swap2\n      pop\n      pop\n      jump\t// out\n        /* \"#utility.yul\":690:807   */\n    tag_27:\n        /* \"#utility.yul\":799:800   */\n      0x00\n        /* \"#utility.yul\":796:797   */\n      dup1\n        /* \"#utility.yul\":789:801   */\n      revert\n        /* \"#utility.yul\":813:930   */\n    tag_28:\n        /* \"#utility.yul\":922:923   */\n      0x00\n        /* \"#utility.yul\":919:920   */\n      dup1\n        /* \"#utility.yul\":912:924   */\n      revert\n        /* \"#utility.yul\":936:1053   */\n    tag_29:\n        /* \"#utility.yul\":1045:1046   */\n      0x00\n        /* \"#utility.yul\":1042:1043   */\n      dup1\n        /* \"#utility.yul\":1035:1047   */\n      revert\n        /* \"#utility.yul\":1076:1644   */\n    tag_30:\n        /* \"#utility.yul\":1149:1157   */\n      0x00\n        /* \"#utility.yul\":1159:1165   */\n      dup1\n        /* \"#utility.yul\":1209:1212   */\n      dup4\n        /* \"#utility.yul\":1202:1206   */\n      0x1f\n        /* \"#utility.yul\":1194:1200   */\n      dup5\n        /* \"#utility.yul\":1190:1207   */\n      add\n        /* \"#utility.yul\":1186:1213   */\n      slt\n        /* \"#utility.yul\":1176:1298   */\n      tag_56\n      jumpi\n        /* \"#utility.yul\":1217:1296   */\n      tag_57\n      tag_27\n      jump\t// in\n    tag_57:\n        /* \"#utility.yul\":1176:1298   */\n    tag_56:\n        /* \"#utility.yul\":1330:1336   */\n      dup3\n        /* \"#utility.yul\":1317:1337   */\n      calldataload\n        /* \"#utility.yul\":1307:1337   */\n      swap1\n      pop\n        /* \"#utility.yul\":1360:1378   */\n      0xffffffffffffffff\n        /* \"#utility.yul\":1352:1358   */\n      dup2\n        /* \"#utility.yul\":1349:1379   */\n      gt\n        /* \"#utility.yul\":1346:1463   */\n      iszero\n      tag_58\n      jumpi\n        /* \"#utility.yul\":1382:1461   */\n      tag_59\n      tag_28\n      jump\t// in\n    tag_59:\n        /* \"#utility.yul\":1346:1463   */\n    tag_58:\n        /* \"#utility.yul\":1496:1500   */\n      0x20\n        /* \"#utility.yul\":1488:1494   */\n      dup4\n        /* \"#utility.yul\":1484:1501   */\n      add\n        /* \"#utility.yul\":1472:1501   */\n      swap2\n      pop\n        /* \"#utility.yul\":1550:1553   */\n      dup4\n        /* \"#utility.yul\":1542:1546   */\n      0x20\n        /* \"#utility.yul\":1534:1540   */\n      dup3\n        /* \"#utility.yul\":1530:1547   */\n      mul\n        /* \"#utility.yul\":1520:1528   */\n      dup4\n        /* \"#utility.yul\":1516:1548   */\n      add\n        /* \"#utility.yul\":1513:1554   */\n      gt\n        /* \"#utility.yul\":1510:1638   */\n      iszero\n      tag_60\n      jumpi\n        /* \"#utility.yul\":1557:1636   */\n      tag_61\n      tag_29\n      jump\t// in\n    tag_61:\n        /* \"#utility.yul\":1510:1638   */\n    tag_60:\n        /* \"#utility.yul\":1076:1644   */\n      swap3\n      pop\n      swap3\n      swap1\n      pop\n      jump\t// out\n        /* \"#utility.yul\":1650:1776   */\n    tag_31:\n        /* \"#utility.yul\":1687:1694   */\n      0x00\n        /* \"#utility.yul\":1727:1769   */\n      0xffffffffffffffffffffffffffffffffffffffff\n        /* \"#utility.yul\":1720:1725   */\n      dup3\n        /* \"#utility.yul\":1716:1770   */\n      and\n        /* \"#utility.yul\":1705:1770   */\n      swap1\n      pop\n        /* \"#utility.yul\":1650:1776   */\n      swap2\n      swap1\n      pop\n      jump\t// out\n        /* \"#utility.yul\":1782:1878   */\n    tag_32:\n        /* \"#utility.yul\":1819:1826   */\n      0x00\n        /* \"#utility.yul\":1848:1872   */\n      tag_64\n        /* \"#utility.yul\":1866:1871   */\n      dup3\n        /* \"#utility.yul\":1848:1872   */\n      tag_31\n      jump\t// in\n    tag_64:\n        /* \"#utility.yul\":1837:1872   */\n      swap1\n      pop\n        /* \"#utility.yul\":1782:1878   */\n      swap2\n      swap1\n      pop\n      jump\t// out\n        /* \"#utility.yul\":1884:2006   */\n    tag_33:\n        /* \"#utility.yul\":1957:1981   */\n      tag_66\n        /* \"#utility.yul\":1975:1980   */\n      dup2\n        /* \"#utility.yul\":1957:1981   */\n      tag_32\n      jump\t// in\n    tag_66:\n        /* \"#utility.yul\":1950:1955   */\n      dup2\n        /* \"#utility.yul\":1947:1982   */\n      eq\n        /* \"#utility.yul\":1937:2000   */\n      tag_67\n      jumpi\n        /* \"#utility.yul\":1996:1997   */\n      0x00\n        /* \"#utility.yul\":1993:1994   */\n      dup1\n        /* \"#utility.yul\":1986:1998   */\n      revert\n        /* \"#utility.yul\":1937:2000   */\n    tag_67:\n        /* \"#utility.yul\":1884:2006   */\n      pop\n      jump\t// out\n        /* \"#utility.yul\":2012:2151   */\n    tag_34:\n        /* \"#utility.yul\":2058:2063   */\n      0x00\n        /* \"#utility.yul\":2096:2102   */\n      dup2\n        /* \"#utility.yul\":2083:2103   */\n      calldataload\n        /* \"#utility.yul\":2074:2103   */\n      swap1\n      pop\n        /* \"#utility.yul\":2112:2145   */\n      tag_69\n        /* \"#utility.yul\":2139:2144   */\n      dup2\n        /* \"#utility.yul\":2112:2145   */\n      tag_33\n      jump\t// in\n    tag_69:\n        /* \"#utility.yul\":2012:2151   */\n      swap3\n      swap2\n      pop\n      pop\n      jump\t// out\n        /* \"#utility.yul\":2157:3298   */\n    tag_7:\n        /* \"#utility.yul\":2279:2285   */\n      0x00\n        /* \"#utility.yul\":2287:2293   */\n      dup1\n        /* \"#utility.yul\":2295:2301   */\n      0x00\n        /* \"#utility.yul\":2303:2309   */\n      dup1\n        /* \"#utility.yul\":2311:2317   */\n      0x00\n        /* \"#utility.yul\":2319:2325   */\n      dup1\n        /* \"#utility.yul\":2368:2371   */\n      0xa0\n        /* \"#utility.yul\":2356:2365   */\n      dup8\n        /* \"#utility.yul\":2347:2354   */\n      dup10\n        /* \"#utility.yul\":2343:2366   */\n      sub\n        /* \"#utility.yul\":2339:2372   */\n      slt\n        /* \"#utility.yul\":2336:2456   */\n      iszero\n      tag_71\n      jumpi\n        /* \"#utility.yul\":2375:2454   */\n      tag_72\n      tag_22\n      jump\t// in\n    tag_72:\n        /* \"#utility.yul\":2336:2456   */\n    tag_71:\n        /* \"#utility.yul\":2495:2496   */\n      0x00\n        /* \"#utility.yul\":2520:2573   */\n      tag_73\n        /* \"#utility.yul\":2565:2572   */\n      dup10\n        /* \"#utility.yul\":2556:2562   */\n      dup3\n        /* \"#utility.yul\":2545:2554   */\n      dup11\n        /* \"#utility.yul\":2541:2563   */\n      add\n        /* \"#utility.yul\":2520:2573   */\n      tag_26\n      jump\t// in\n    tag_73:\n        /* \"#utility.yul\":2510:2573   */\n      swap7\n      pop\n        /* \"#utility.yul\":2466:2583   */\n      pop\n        /* \"#utility.yul\":2622:2624   */\n      0x20\n        /* \"#utility.yul\":2648:2701   */\n      tag_74\n        /* \"#utility.yul\":2693:2700   */\n      dup10\n        /* \"#utility.yul\":2684:2690   */\n      dup3\n        /* \"#utility.yul\":2673:2682   */\n      dup11\n        /* \"#utility.yul\":2669:2691   */\n      add\n        /* \"#utility.yul\":2648:2701   */\n      tag_26\n      jump\t// in\n    tag_74:\n        /* \"#utility.yul\":2638:2701   */\n      swap6\n      pop\n        /* \"#utility.yul\":2593:2711   */\n      pop\n        /* \"#utility.yul\":2778:2780   */\n      0x40\n        /* \"#utility.yul\":2767:2776   */\n      dup8\n        /* \"#utility.yul\":2763:2781   */\n      add\n        /* \"#utility.yul\":2750:2782   */\n      calldataload\n        /* \"#utility.yul\":2809:2827   */\n      0xffffffffffffffff\n        /* \"#utility.yul\":2801:2807   */\n      dup2\n        /* \"#utility.yul\":2798:2828   */\n      gt\n        /* \"#utility.yul\":2795:2912   */\n      iszero\n      tag_75\n      jumpi\n        /* \"#utility.yul\":2831:2910   */\n      tag_76\n      tag_23\n      jump\t// in\n    tag_76:\n        /* \"#utility.yul\":2795:2912   */\n    tag_75:\n        /* \"#utility.yul\":2944:3024   */\n      tag_77\n        /* \"#utility.yul\":3016:3023   */\n      dup10\n        /* \"#utility.yul\":3007:3013   */\n      dup3\n        /* \"#utility.yul\":2996:3005   */\n      dup11\n        /* \"#utility.yul\":2992:3014   */\n      add\n        /* \"#utility.yul\":2944:3024   */\n      tag_30\n      jump\t// in\n    tag_77:\n        /* \"#utility.yul\":2926:3024   */\n      swap5\n      pop\n      swap5\n      pop\n        /* \"#utility.yul\":2721:3034   */\n      pop\n        /* \"#utility.yul\":3073:3075   */\n      0x60\n        /* \"#utility.yul\":3099:3152   */\n      tag_78\n        /* \"#utility.yul\":3144:3151   */\n      dup10\n        /* \"#utility.yul\":3135:3141   */\n      dup3\n        /* \"#utility.yul\":3124:3133   */\n      dup11\n        /* \"#utility.yul\":3120:3142   */\n      add\n        /* \"#utility.yul\":3099:3152   */\n      tag_34\n      jump\t// in\n    tag_78:\n        /* \"#utility.yul\":3089:3152   */\n      swap3\n      pop\n        /* \"#utility.yul\":3044:3162   */\n      pop\n        /* \"#utility.yul\":3201:3204   */\n      0x80\n        /* \"#utility.yul\":3228:3281   */\n      tag_79\n        /* \"#utility.yul\":3273:3280   */\n      dup10\n        /* \"#utility.yul\":3264:3270   */\n      dup3\n        /* \"#utility.yul\":3253:3262   */\n      dup11\n        /* \"#utility.yul\":3249:3271   */\n      add\n        /* \"#utility.yul\":3228:3281   */\n      tag_26\n      jump\t// in\n    tag_79:\n        /* \"#utility.yul\":3218:3281   */\n      swap2\n      pop\n        /* \"#utility.yul\":3172:3291   */\n      pop\n        /* \"#utility.yul\":2157:3298   */\n      swap3\n      swap6\n      pop\n      swap3\n      swap6\n      pop\n      swap3\n      swap6\n      jump\t// out\n        /* \"#utility.yul\":3304:3408   */\n    tag_35:\n        /* \"#utility.yul\":3369:3375   */\n      0x00\n        /* \"#utility.yul\":3397:3401   */\n      0x02\n        /* \"#utility.yul\":3387:3401   */\n      swap1\n      pop\n        /* \"#utility.yul\":3304:3408   */\n      swap2\n      swap1\n      pop\n      jump\t// out\n        /* \"#utility.yul\":3414:3557   */\n    tag_36:\n        /* \"#utility.yul\":3511:3522   */\n      0x00\n        /* \"#utility.yul\":3548:3551   */\n      dup2\n        /* \"#utility.yul\":3533:3551   */\n      swap1\n      pop\n        /* \"#utility.yul\":3414:3557   */\n      swap3\n      swap2\n      pop\n      pop\n      jump\t// out\n        /* \"#utility.yul\":3563:3661   */\n    tag_37:\n        /* \"#utility.yul\":3628:3632   */\n      0x00\n        /* \"#utility.yul\":3651:3654   */\n      dup2\n        /* \"#utility.yul\":3643:3654   */\n      swap1\n      pop\n        /* \"#utility.yul\":3563:3661   */\n      swap2\n      swap1\n      pop\n      jump\t// out\n        /* \"#utility.yul\":3667:3775   */\n    tag_38:\n        /* \"#utility.yul\":3744:3768   */\n      tag_84\n        /* \"#utility.yul\":3762:3767   */\n      dup2\n        /* \"#utility.yul\":3744:3768   */\n      tag_24\n      jump\t// in\n    tag_84:\n        /* \"#utility.yul\":3739:3742   */\n      dup3\n        /* \"#utility.yul\":3732:3769   */\n      mstore\n        /* \"#utility.yul\":3667:3775   */\n      pop\n      pop\n      jump\t// out\n        /* \"#utility.yul\":3781:3960   */\n    tag_39:\n        /* \"#utility.yul\":3850:3860   */\n      0x00\n        /* \"#utility.yul\":3871:3917   */\n      tag_86\n        /* \"#utility.yul\":3913:3916   */\n      dup4\n        /* \"#utility.yul\":3905:3911   */\n      dup4\n        /* \"#utility.yul\":3871:3917   */\n      tag_38\n      jump\t// in\n    tag_86:\n        /* \"#utility.yul\":3949:3953   */\n      0x20\n        /* \"#utility.yul\":3944:3947   */\n      dup4\n        /* \"#utility.yul\":3940:3954   */\n      add\n        /* \"#utility.yul\":3926:3954   */\n      swap1\n      pop\n        /* \"#utility.yul\":3781:3960   */\n      swap3\n      swap2\n      pop\n      pop\n      jump\t// out\n        /* \"#utility.yul\":3966:4077   */\n    tag_40:\n        /* \"#utility.yul\":4034:4038   */\n      0x00\n        /* \"#utility.yul\":4066:4070   */\n      0x20\n        /* \"#utility.yul\":4061:4064   */\n      dup3\n        /* \"#utility.yul\":4057:4071   */\n      add\n        /* \"#utility.yul\":4049:4071   */\n      swap1\n      pop\n        /* \"#utility.yul\":3966:4077   */\n      swap2\n      swap1\n      pop\n      jump\t// out\n        /* \"#utility.yul\":4115:4809   */\n    tag_41:\n        /* \"#utility.yul\":4251:4303   */\n      tag_89\n        /* \"#utility.yul\":4297:4302   */\n      dup2\n        /* \"#utility.yul\":4251:4303   */\n      tag_35\n      jump\t// in\n    tag_89:\n        /* \"#utility.yul\":4319:4403   */\n      tag_90\n        /* \"#utility.yul\":4396:4402   */\n      dup2\n        /* \"#utility.yul\":4391:4394   */\n      dup5\n        /* \"#utility.yul\":4319:4403   */\n      tag_36\n      jump\t// in\n    tag_90:\n        /* \"#utility.yul\":4312:4403   */\n      swap3\n      pop\n        /* \"#utility.yul\":4427:4481   */\n      tag_91\n        /* \"#utility.yul\":4475:4480   */\n      dup3\n        /* \"#utility.yul\":4427:4481   */\n      tag_37\n      jump\t// in\n    tag_91:\n        /* \"#utility.yul\":4504:4511   */\n      dup1\n        /* \"#utility.yul\":4535:4536   */\n      0x00\n        /* \"#utility.yul\":4520:4802   */\n    tag_92:\n        /* \"#utility.yul\":4545:4551   */\n      dup4\n        /* \"#utility.yul\":4542:4543   */\n      dup2\n        /* \"#utility.yul\":4539:4552   */\n      lt\n        /* \"#utility.yul\":4520:4802   */\n      iszero\n      tag_94\n      jumpi\n        /* \"#utility.yul\":4621:4627   */\n      dup2\n        /* \"#utility.yul\":4615:4628   */\n      mload\n        /* \"#utility.yul\":4648:4711   */\n      tag_95\n        /* \"#utility.yul\":4707:4710   */\n      dup8\n        /* \"#utility.yul\":4692:4705   */\n      dup3\n        /* \"#utility.yul\":4648:4711   */\n      tag_39\n      jump\t// in\n    tag_95:\n        /* \"#utility.yul\":4641:4711   */\n      swap7\n      pop\n        /* \"#utility.yul\":4734:4792   */\n      tag_96\n        /* \"#utility.yul\":4785:4791   */\n      dup4\n        /* \"#utility.yul\":4734:4792   */\n      tag_40\n      jump\t// in\n    tag_96:\n        /* \"#utility.yul\":4724:4792   */\n      swap3\n      pop\n        /* \"#utility.yul\":4580:4802   */\n      pop\n        /* \"#utility.yul\":4567:4568   */\n      0x01\n        /* \"#utility.yul\":4564:4565   */\n      dup2\n        /* \"#utility.yul\":4560:4569   */\n      add\n        /* \"#utility.yul\":4555:4569   */\n      swap1\n      pop\n        /* \"#utility.yul\":4520:4802   */\n      jump(tag_92)\n    tag_94:\n        /* \"#utility.yul\":4524:4538   */\n      pop\n        /* \"#utility.yul\":4227:4809   */\n      pop\n      pop\n      pop\n        /* \"#utility.yul\":4115:4809   */\n      pop\n      pop\n      jump\t// out\n        /* \"#utility.yul\":4815:5129   */\n    tag_10:\n        /* \"#utility.yul\":4954:4958   */\n      0x00\n        /* \"#utility.yul\":4992:4994   */\n      0x40\n        /* \"#utility.yul\":4981:4990   */\n      dup3\n        /* \"#utility.yul\":4977:4995   */\n      add\n        /* \"#utility.yul\":4969:4995   */\n      swap1\n      pop\n        /* \"#utility.yul\":5005:5122   */\n      tag_98\n        /* \"#utility.yul\":5119:5120   */\n      0x00\n        /* \"#utility.yul\":5108:5117   */\n      dup4\n        /* \"#utility.yul\":5104:5121   */\n      add\n        /* \"#utility.yul\":5095:5101   */\n      dup5\n        /* \"#utility.yul\":5005:5122   */\n      tag_41\n      jump\t// in\n    tag_98:\n        /* \"#utility.yul\":4815:5129   */\n      swap3\n      swap2\n      pop\n      pop\n      jump\t// out\n        /* \"#utility.yul\":5135:5839   */\n    tag_13:\n        /* \"#utility.yul\":5230:5236   */\n      0x00\n        /* \"#utility.yul\":5238:5244   */\n      dup1\n        /* \"#utility.yul\":5246:5252   */\n      0x00\n        /* \"#utility.yul\":5295:5297   */\n      0x40\n        /* \"#utility.yul\":5283:5292   */\n      dup5\n        /* \"#utility.yul\":5274:5281   */\n      dup7\n        /* \"#utility.yul\":5270:5293   */\n      sub\n        /* \"#utility.yul\":5266:5298   */\n      slt\n        /* \"#utility.yul\":5263:5382   */\n      iszero\n      tag_100\n      jumpi\n        /* \"#utility.yul\":5301:5380   */\n      tag_101\n      tag_22\n      jump\t// in\n    tag_101:\n        /* \"#utility.yul\":5263:5382   */\n    tag_100:\n        /* \"#utility.yul\":5421:5422   */\n      0x00\n        /* \"#utility.yul\":5446:5499   */\n      tag_102\n        /* \"#utility.yul\":5491:5498   */\n      dup7\n        /* \"#utility.yul\":5482:5488   */\n      dup3\n        /* \"#utility.yul\":5471:5480   */\n      dup8\n        /* \"#utility.yul\":5467:5489   */\n      add\n        /* \"#utility.yul\":5446:5499   */\n      tag_26\n      jump\t// in\n    tag_102:\n        /* \"#utility.yul\":5436:5499   */\n      swap4\n      pop\n        /* \"#utility.yul\":5392:5509   */\n      pop\n        /* \"#utility.yul\":5576:5578   */\n      0x20\n        /* \"#utility.yul\":5565:5574   */\n      dup5\n        /* \"#utility.yul\":5561:5579   */\n      add\n        /* \"#utility.yul\":5548:5580   */\n      calldataload\n        /* \"#utility.yul\":5607:5625   */\n      0xffffffffffffffff\n        /* \"#utility.yul\":5599:5605   */\n      dup2\n        /* \"#utility.yul\":5596:5626   */\n      gt\n        /* \"#utility.yul\":5593:5710   */\n      iszero\n      tag_103\n      jumpi\n        /* \"#utility.yul\":5629:5708   */\n      tag_104\n      tag_23\n      jump\t// in\n    tag_104:\n        /* \"#utility.yul\":5593:5710   */\n    tag_103:\n        /* \"#utility.yul\":5742:5822   */\n      tag_105\n        /* \"#utility.yul\":5814:5821   */\n      dup7\n        /* \"#utility.yul\":5805:5811   */\n      dup3\n        /* \"#utility.yul\":5794:5803   */\n      dup8\n        /* \"#utility.yul\":5790:5812   */\n      add\n        /* \"#utility.yul\":5742:5822   */\n      tag_30\n      jump\t// in\n    tag_105:\n        /* \"#utility.yul\":5724:5822   */\n      swap3\n      pop\n      swap3\n      pop\n        /* \"#utility.yul\":5519:5832   */\n      pop\n        /* \"#utility.yul\":5135:5839   */\n      swap3\n      pop\n      swap3\n      pop\n      swap3\n      jump\t// out\n\n    auxdata: 0xa2646970667358221220ca60d8e2ff9d0195bc744ab79f9b65b91752a6caf0ec3a176f9aacdd1e4f44f664736f6c634300081a0033\n}\n",
				"bytecode": {
					"linkReferences": {},
					"object": "6080604052348015600e575f80fd5b506103e68061001c5f395ff3fe608060405234801561000f575f80fd5b5060043610610034575f3560e01c806338ed173914610038578063d06ca61f14610068575b5f80fd5b610052600480360381019061004d91906101ff565b610098565b60405161005f919061033a565b60405180910390f35b610082600480360381019061007d9190610353565b6100c1565b60405161008f919061033a565b60405180910390f35b6100a06100e7565b60405180604001604052808781526020018881525090509695505050505050565b6100c96100e7565b60405180604001604052808581526020018581525090509392505050565b6040518060400160405280600290602082028036833780820191505090505090565b5f80fd5b5f80fd5b5f819050919050565b61012381610111565b811461012d575f80fd5b50565b5f8135905061013e8161011a565b92915050565b5f80fd5b5f80fd5b5f80fd5b5f8083601f84011261016557610164610144565b5b8235905067ffffffffffffffff81111561018257610181610148565b5b60208301915083602082028301111561019e5761019d61014c565b5b9250929050565b5f73ffffffffffffffffffffffffffffffffffffffff82169050919050565b5f6101ce826101a5565b9050919050565b6101de816101c4565b81146101e8575f80fd5b50565b5f813590506101f9816101d5565b92915050565b5f805f805f8060a0878903121561021957610218610109565b5b5f61022689828a01610130565b965050602061023789828a01610130565b955050604087013567ffffffffffffffff8111156102585761025761010d565b5b61026489828a01610150565b9450945050606061027789828a016101eb565b925050608061028889828a01610130565b9150509295509295509295565b5f60029050919050565b5f81905092915050565b5f819050919050565b6102bb81610111565b82525050565b5f6102cc83836102b2565b60208301905092915050565b5f602082019050919050565b6102ed81610295565b6102f7818461029f565b9250610302826102a9565b805f5b8381101561033257815161031987826102c1565b9650610324836102d8565b925050600181019050610305565b505050505050565b5f60408201905061034d5f8301846102e4565b92915050565b5f805f6040848603121561036a57610369610109565b5b5f61037786828701610130565b935050602084013567ffffffffffffffff8111156103985761039761010d565b5b6103a486828701610150565b9250925050925092509256fea2646970667358221220ca60d8e2ff9d0195bc744ab79f9b65b91752a6caf0ec3a176f9aacdd1e4f44f664736f6c634300081a0033",
					"opcodes": "PUSH1 0x80 PUSH1 0x40 MSTORE CALLVALUE DUP1 ISZERO PUSH1 0xE JUMPI PUSH0 DUP1 REVERT JUMPDEST POP PUSH2 0x3E6 DUP1 PUSH2 0x1C PUSH0 CODECOPY PUSH0 RETURN INVALID PUSH1 0x80 PUSH1 0x40 MSTORE CALLVALUE DUP1 ISZERO PUSH2 0xF JUMPI PUSH0 DUP1 REVERT JUMPDEST POP PUSH1 0x4 CALLDATASIZE LT PUSH2 0x34 JUMPI PUSH0 CALLDATALOAD PUSH1 0xE0 SHR DUP1 PUSH4 0x38ED1739 EQ PUSH2 0x38 JUMPI DUP1 PUSH4 0xD06CA61F EQ PUSH2 0x68 JUMPI JUMPDEST PUSH0 DUP1 REVERT JUMPDEST PUSH2 0x52 PUSH1 0x4 DUP1 CALLDATASIZE SUB DUP2 ADD SWAP1 PUSH2 0x4D SWAP2 SWAP1 PUSH2 0x1FF JUMP JUMPDEST PUSH2 0x98 JUMP JUMPDEST PUSH1 0x40 MLOAD PUSH2 0x5F SWAP2 SWAP1 PUSH2 0x33A JUMP JUMPDEST PUSH1 0x40 MLOAD DUP1 SWAP2 SUB SWAP1 RETURN JUMPDEST PUSH2 0x82 PUSH1 0x4 DUP1 CALLDATASIZE SUB DUP2 ADD SWAP1 PUSH2 0x7D SWAP2 SWAP1 PUSH2 0x353 JUMP JUMPDEST PUSH2 0xC1 JUMP JUMPDEST PUSH1 0x40 MLOAD PUSH2 0x8F SWAP2 SWAP1 PUSH2 0x33A JUMP JUMPDEST PUSH1 0x40 MLOAD DUP1 SWAP2 SUB SWAP1 RETURN JUMPDEST PUSH2 0xA0 PUSH2 0xE7 JUMP JUMPDEST PUSH1 0x40 MLOAD DUP1 PUSH1 0x40 ADD PUSH1 0x40 MSTORE DUP1 DUP8 DUP2 MSTORE PUSH1 0x20 ADD DUP9 DUP2 MSTORE POP SWAP1 POP SWAP7 SWAP6 POP POP POP POP POP POP JUMP JUMPDEST PUSH2 0xC9 PUSH2 0xE7 JUMP JUMPDEST PUSH1 0x40 MLOAD DUP1 PUSH1 0x40 ADD PUSH1 0x40 MSTORE DUP1 DUP6 DUP2 MSTORE PUSH1 0x20 ADD DUP6 DUP2 MSTORE POP SWAP1 POP SWAP4 SWAP3 POP POP POP JUMP JUMPDEST PUSH1 0x40 MLOAD DUP1 PUSH1 0x40 ADD PUSH1 0x40 MSTORE DUP1 PUSH1 0x2 SWAP1 PUSH1 0x20 DUP3 MUL DUP1 CALLDATASIZE DUP4 CALLDATACOPY DUP1 DUP3 ADD SWAP2 POP POP SWAP1 POP POP SWAP1 JUMP JUMPDEST PUSH0 DUP1 REVERT JUMPDEST PUSH0 DUP1 REVERT JUMPDEST PUSH0 DUP2 SWAP1 POP SWAP2 SWAP1 POP JUMP JUMPDEST PUSH2 0x123 DUP2 PUSH2 0x111 JUMP JUMPDEST DUP2 EQ PUSH2 0x12D JUMPI PUSH0 DUP1 REVERT JUMPDEST POP JUMP JUMPDEST PUSH0 DUP2 CALLDATALOAD SWAP1 POP PUSH2 0x13E DUP2 PUSH2 0x11A JUMP JUMPDEST SWAP3 SWAP2 POP POP JUMP JUMPDEST PUSH0 DUP1 REVERT JUMPDEST PUSH0 DUP1 REVERT JUMPDEST PUSH0 DUP1 REVERT JUMPDEST PUSH0 DUP1 DUP4 PUSH1 0x1F DUP5 ADD SLT PUSH2 0x165 JUMPI PUSH2 0x164 PUSH2 0x144 JUMP JUMPDEST JUMPDEST DUP3 CALLDATALOAD SWAP1 POP PUSH8 0xFFFFFFFFFFFFFFFF DUP2 GT ISZERO PUSH2 0x182 JUMPI PUSH2 0x181 PUSH2 0x148 JUMP JUMPDEST JUMPDEST PUSH1 0x20 DUP4 ADD SWAP2 POP DUP4 PUSH1 0x20 DUP3 MUL DUP4 ADD GT ISZERO PUSH2 0x19E JUMPI PUSH2 0x19D PUSH2 0x14C JUMP JUMPDEST JUMPDEST SWAP3 POP SWAP3 SWAP1 POP JUMP JUMPDEST PUSH0 PUSH20 0xFFFFFFFFFFFFFFFFFFFFFFFFFFFFFFFFFFFFFFFF DUP3 AND SWAP1 POP SWAP2 SWAP1 POP JUMP JUMPDEST PUSH0 PUSH2 0x1CE DUP3 PUSH2 0x1A5 JUMP JUMPDEST SWAP1 POP SWAP2 SWAP1 POP JUMP JUMPDEST PUSH2 0x1DE DUP2 PUSH2 0x1C4 JUMP JUMPDEST DUP2 EQ PUSH2 0x1E8 JUMPI PUSH0 DUP1 REVERT JUMPDEST POP JUMP JUMPDEST PUSH0 DUP2 CALLDATALOAD SWAP1 POP PUSH2 0x1F9 DUP2 PUSH2 0x1D5 JUMP JUMPDEST SWAP3 SWAP2 POP POP JUMP JUMPDEST PUSH0 DUP1 PUSH0 DUP1 PUSH0 DUP1 PUSH1 0xA0 DUP8 DUP10 SUB SLT ISZERO PUSH2 0x219 JUMPI PUSH2 0x218 PUSH2 0x109 JUMP JUMPDEST JUMPDEST PUSH0 PUSH2 0x226 DUP10 DUP3 DUP11 ADD PUSH2 0x130 JUMP JUMPDEST SWAP7 POP POP PUSH1 0x20 PUSH2 0x237 DUP10 DUP3 DUP11 ADD PUSH2 0x130 JUMP JUMPDEST SWAP6 POP POP PUSH1 0x40 DUP8 ADD CALLDATALOAD PUSH8 0xFFFFFFFFFFFFFFFF DUP2 GT ISZERO PUSH2 0x258 JUMPI PUSH2 0x257 PUSH2 0x10D JUMP JUMPDEST JUMPDEST PUSH2 0x264 DUP10 DUP3 DUP11 ADD PUSH2 0x150 JUMP JUMPDEST SWAP5 POP SWAP5 POP POP PUSH1 0x60 PUSH2 0x277 DUP10 DUP3 DUP11 ADD PUSH2 0x1EB JUMP JUMPDEST SWAP3 POP POP PUSH1 0x80 PUSH2 0x288 DUP10 DUP3 DUP11 ADD PUSH2 0x130 JUMP JUMPDEST SWAP2 POP POP SWAP3 SWAP6 POP SWAP3 SWAP6 POP SWAP3 SWAP6 JUMP JUMPDEST PUSH0 PUSH1 0x2 SWAP1 POP SWAP2 SWAP1 POP JUMP JUMPDEST PUSH0 DUP2 SWAP1 POP SWAP3 SWAP2 POP POP JUMP JUMPDEST PUSH0 DUP2 SWAP1 POP SWAP2 SWAP1 POP JUMP JUMPDEST PUSH2 0x2BB DUP2 PUSH2 0x111 JUMP JUMPDEST DUP3 MSTORE POP POP JUMP JUMPDEST PUSH0 PUSH2 0x2CC DUP4 DUP4 PUSH2 0x2B2 JUMP JUMPDEST PUSH1 0x20 DUP4 ADD SWAP1 POP SWAP3 SWAP2 POP POP JUMP JUMPDEST PUSH0 PUSH1 0x20 DUP3 ADD SWAP1 POP SWAP2 SWAP1 POP JUMP JUMPDEST PUSH2 0x2ED DUP2 PUSH2 0x295 JUMP JUMPDEST PUSH2 0x2F7 DUP2 DUP5 PUSH2 0x29F JUMP JUMPDEST SWAP3 POP PUSH2 0x302 DUP3 PUSH2 0x2A9 JUMP JUMPDEST DUP1 PUSH0 JUMPDEST DUP4 DUP2 LT ISZERO PUSH2 0x332 JUMPI DUP2 MLOAD PUSH2 0x319 DUP8 DUP3 PUSH2 0x2C1 JUMP JUMPDEST SWAP7 POP PUSH2 0x324 DUP4 PUSH2 0x2D8 JUMP JUMPDEST SWAP3 POP POP PUSH1 0x1 DUP2 ADD SWAP1 POP PUSH2 0x305 JUMP JUMPDEST POP POP POP POP POP POP JUMP JUMPDEST PUSH0 PUSH1 0x40 DUP3 ADD SWAP1 POP PUSH2 0x34D PUSH0 DUP4 ADD DUP5 PUSH2 0x2E4 JUMP JUMPDEST SWAP3 SWAP2 POP POP JUMP JUMPDEST PUSH0 DUP1 PUSH0 PUSH1 0x40 DUP5 DUP7 SUB SLT ISZERO PUSH2 0x36A JUMPI PUSH2 0x369 PUSH2 0x109 JUMP JUMPDEST JUMPDEST PUSH0 PUSH2 0x377 DUP7 DUP3 DUP8 ADD PUSH2 0x130 JUMP JUMPDEST SWAP4 POP POP PUSH1 0x20 DUP5 ADD CALLDATALOAD PUSH8 0xFFFFFFFFFFFFFFFF DUP2 GT ISZERO PUSH2 0x398 JUMPI PUSH2 0x397 PUSH2 0x10D JUMP JUMPDEST JUMPDEST PUSH2 0x3A4 DUP7 DUP3 DUP8 ADD PUSH2 0x150 JUMP JUMPDEST SWAP3 POP SWAP3 POP POP SWAP3 POP SWAP3 POP SWAP3 JUMP INVALID LOG2 PUSH5 0x6970667358 0x22 SLT KECCAK256 0xCA PUSH1 0xD8 0xE2 SELFDESTRUCT SWAP14 ADD SWAP6 0xBC PUSH21 0x4AB79F9B65B91752A6CAF0EC3A176F9AACDD1E4F44 0xF6 PUSH5 0x736F6C6343 STOP ADDMOD BYTE STOP CALLER "
				},
				"gasEstimates": {
					"creation": {
						"codeDepositCost": "199600",
						"executionCost": "243",
						"totalCost": "199843"
					},
					"external": {
						"getAmountsOut(uint256,address[])": "infinite",
						"swapExactTokensForTokens(uint256,uint256,address[],address,uint256)": "infinite"
					}
				},
				"methodIdentifiers": {
					"getAmountsOut(uint256,address[])": "d06ca61f",
					"swapExactTokensForTokens(uint256,uint256,address[],address,uint256)": "38ed1739"
				}
			},
			"storageLayout": {
				"storage": [],
				"types": null
			},
			"userdoc": {
				"kind": "user",
				"methods": {},
				"version": 1
			}
		}
	}
}