{
	"Sandwich.sol": {
		"Sandwich": {
			"abi": [
				{
					"inputs": [
						{
							"internalType": "address",
							"name": "_router",
							"type": "address"
						}
					],
					"stateMutability": "nonpayable",
					"type": "constructor"
				},
				{
					"anonymous": false,
					"inputs": [
						{
							"indexed": true,
							"internalType": "uint256",
							"name": "value",
							"type": "uint256"
						},
						{
							"indexed": true,
							"internalType": "address",
							"name": "fromAddress",
							"type": "address"
						}
					],
					"name": "DebugInfo",
					"type": "event"
				},
				{
					"inputs": [],
					"name": "owner",
					"outputs": [
						{
							"internalType": "address",
							"name": "",
							"type": "address"
						}
					],
					"stateMutability": "view",
					"type": "function"
				},
				{
					"inputs": [
						{
							"internalType": "uint256",
							"name": "amountIn",
							"type": "uint256"
						},
						{
							"internalType": "uint256",
							"name": "amountOutMin",
							"type": "uint256"
						},
						{
							"internalType": "address[]",
							"name": "path",
							"type": "address[]"
						},
						{
							"internalType": "uint256",
							"name": "deadline",
							"type": "uint256"
						}
					],
					"name": "setupSandwichAttack",
					"outputs": [],
					"stateMutability": "nonpayable",
					"type": "function"
				},
				{
					"inputs": [],
					"name": "uniswapRouter",
					"outputs": [
						{
							"internalType": "contract IUniswapV2Router",
							"name": "",
							"type": "address"
						}
					],
					"stateMutability": "view",
					"type": "function"
				}
			],
			"devdoc": {
				"kind": "dev",
				"methods": {},
				"version": 1
			},
			"evm": {
				"assembly": "    /* \"Sandwich.sol\":411:1866  contract Sandwich is ReentrancyGuard {... */\n  mstore(0x40, 0xc0)\n    /* \"Sandwich.sol\":548:666  constructor(address _router) {... */\n  callvalue\n  dup1\n  iszero\n  tag_1\n  jumpi\n  0x00\n  dup1\n  revert\ntag_1:\n  pop\n  mload(0x40)\n  sub(codesize, bytecodeSize)\n  dup1\n  bytecodeSize\n  dup4\n  codecopy\n  dup2\n  dup2\n  add\n  0x40\n  mstore\n  dup2\n  add\n  swap1\n  tag_2\n  swap2\n  swap1\n  tag_3\n  jump\t// in\ntag_2:\n    /* \"@openzeppelin/contracts/security/ReentrancyGuard.sol\":1716:1717  1 */\n  0x01\n    /* \"@openzeppelin/contracts/security/ReentrancyGuard.sol\":1821:1828  _status */\n  0x00\n    /* \"@openzeppelin/contracts/security/ReentrancyGuard.sol\":1821:1843  _status = _NOT_ENTERED */\n  dup2\n  swap1\n  sstore\n  pop\n    /* \"Sandwich.sol\":621:628  _router */\n  dup1\n    /* \"Sandwich.sol\":588:629  uniswapRouter = IUniswapV2Router(_router) */\n  0xffffffffffffffffffffffffffffffffffffffff\n  and\n  0x80\n  dup2\n  0xffffffffffffffffffffffffffffffffffffffff\n  and\n  dup2\n  mstore\n  pop\n  pop\n    /* \"Sandwich.sol\":648:658  msg.sender */\n  caller\n    /* \"Sandwich.sol\":640:658  owner = msg.sender */\n  0xffffffffffffffffffffffffffffffffffffffff\n  and\n  0xa0\n  dup2\n  0xffffffffffffffffffffffffffffffffffffffff\n  and\n  dup2\n  mstore\n  pop\n  pop\n    /* \"Sandwich.sol\":548:666  constructor(address _router) {... */\n  pop\n    /* \"Sandwich.sol\":411:1866  contract Sandwich is ReentrancyGuard {... */\n  jump(tag_8)\n    /* \"#utility.yul\":88:205   */\ntag_10:\n    /* \"#utility.yul\":197:198   */\n  0x00\n    /* \"#utility.yul\":194:195   */\n  dup1\n    /* \"#utility.yul\":187:199   */\n  revert\n    /* \"#utility.yul\":334:460   */\ntag_12:\n    /* \"#utility.yul\":371:378   */\n  0x00\n    /* \"#utility.yul\":411:453   */\n  0xffffffffffffffffffffffffffffffffffffffff\n    /* \"#utility.yul\":404:409   */\n  dup3\n    /* \"#utility.yul\":400:454   */\n  and\n    /* \"#utility.yul\":389:454   */\n  swap1\n  pop\n    /* \"#utility.yul\":334:460   */\n  swap2\n  swap1\n  pop\n  jump\t// out\n    /* \"#utility.yul\":466:562   */\ntag_13:\n    /* \"#utility.yul\":503:510   */\n  0x00\n    /* \"#utility.yul\":532:556   */\n  tag_22\n    /* \"#utility.yul\":550:555   */\n  dup3\n    /* \"#utility.yul\":532:556   */\n  tag_12\n  jump\t// in\ntag_22:\n    /* \"#utility.yul\":521:556   */\n  swap1\n  pop\n    /* \"#utility.yul\":466:562   */\n  swap2\n  swap1\n  pop\n  jump\t// out\n    /* \"#utility.yul\":568:690   */\ntag_14:\n    /* \"#utility.yul\":641:665   */\n  tag_24\n    /* \"#utility.yul\":659:664   */\n  dup2\n    /* \"#utility.yul\":641:665   */\n  tag_13\n  jump\t// in\ntag_24:\n    /* \"#utility.yul\":634:639   */\n  dup2\n    /* \"#utility.yul\":631:666   */\n  eq\n    /* \"#utility.yul\":621:684   */\n  tag_25\n  jumpi\n    /* \"#utility.yul\":680:681   */\n  0x00\n    /* \"#utility.yul\":677:678   */\n  dup1\n    /* \"#utility.yul\":670:682   */\n  revert\n    /* \"#utility.yul\":621:684   */\ntag_25:\n    /* \"#utility.yul\":568:690   */\n  pop\n  jump\t// out\n    /* \"#utility.yul\":696:839   */\ntag_15:\n    /* \"#utility.yul\":753:758   */\n  0x00\n    /* \"#utility.yul\":784:790   */\n  dup2\n    /* \"#utility.yul\":778:791   */\n  mload\n    /* \"#utility.yul\":769:791   */\n  swap1\n  pop\n    /* \"#utility.yul\":800:833   */\n  tag_27\n    /* \"#utility.yul\":827:832   */\n  dup2\n    /* \"#utility.yul\":800:833   */\n  tag_14\n  jump\t// in\ntag_27:\n    /* \"#utility.yul\":696:839   */\n  swap3\n  swap2\n  pop\n  pop\n  jump\t// out\n    /* \"#utility.yul\":845:1196   */\ntag_3:\n    /* \"#utility.yul\":915:921   */\n  0x00\n    /* \"#utility.yul\":964:966   */\n  0x20\n    /* \"#utility.yul\":952:961   */\n  dup3\n    /* \"#utility.yul\":943:950   */\n  dup5\n    /* \"#utility.yul\":939:962   */\n  sub\n    /* \"#utility.yul\":935:967   */\n  slt\n    /* \"#utility.yul\":932:1051   */\n  iszero\n  tag_29\n  jumpi\n    /* \"#utility.yul\":970:1049   */\n  tag_30\n  tag_10\n  jump\t// in\ntag_30:\n    /* \"#utility.yul\":932:1051   */\ntag_29:\n    /* \"#utility.yul\":1090:1091   */\n  0x00\n    /* \"#utility.yul\":1115:1179   */\n  tag_31\n    /* \"#utility.yul\":1171:1178   */\n  dup5\n    /* \"#utility.yul\":1162:1168   */\n  dup3\n    /* \"#utility.yul\":1151:1160   */\n  dup6\n    /* \"#utility.yul\":1147:1169   */\n  add\n    /* \"#utility.yul\":1115:1179   */\n  tag_15\n  jump\t// in\ntag_31:\n    /* \"#utility.yul\":1105:1179   */\n  swap2\n  pop\n    /* \"#utility.yul\":1061:1189   */\n  pop\n    /* \"#utility.yul\":845:1196   */\n  swap3\n  swap2\n  pop\n  pop\n  jump\t// out\n    /* \"Sandwich.sol\":411:1866  contract Sandwich is ReentrancyGuard {... */\ntag_8:\n  mload(0x80)\n  mload(0xa0)\n  codecopy(0x00, dataOffset(sub_0), dataSize(sub_0))\n  0x00\n  assignImmutable(\"0x1b3fd0da9f6b7da2147eff870266af25b54877bf9c7064498588ee6f953ee460\")\n  0x00\n  assignImmutable(\"0x8ce305e774de8920af8ed6c63efadee25c8b5fa06bd6a20ee5b87e5f5c0f9612\")\n  return(0x00, dataSize(sub_0))\nstop\n\nsub_0: assembly {\n        /* \"Sandwich.sol\":411:1866  contract Sandwich is ReentrancyGuard {... */\n      mstore(0x40, 0x80)\n      callvalue\n      dup1\n      iszero\n      tag_1\n      jumpi\n      0x00\n      dup1\n      revert\n    tag_1:\n      pop\n      jumpi(tag_2, lt(calldatasize, 0x04))\n      shr(0xe0, calldataload(0x00))\n      dup1\n      0x735de9f7\n      eq\n      tag_3\n      jumpi\n      dup1\n      0x8da5cb5b\n      eq\n      tag_4\n      jumpi\n      dup1\n      0xcdc9cf9e\n      eq\n      tag_5\n      jumpi\n    tag_2:\n      0x00\n      dup1\n      revert\n        /* \"Sandwich.sol\":455:502  IUniswapV2Router public immutable uniswapRouter */\n    tag_3:\n      tag_6\n      tag_7\n      jump\t// in\n    tag_6:\n      mload(0x40)\n      tag_8\n      swap2\n      swap1\n      tag_9\n      jump\t// in\n    tag_8:\n      mload(0x40)\n      dup1\n      swap2\n      sub\n      swap1\n      return\n        /* \"Sandwich.sol\":509:539  address public immutable owner */\n    tag_4:\n      tag_10\n      tag_11\n      jump\t// in\n    tag_10:\n      mload(0x40)\n      tag_12\n      swap2\n      swap1\n      tag_13\n      jump\t// in\n    tag_12:\n      mload(0x40)\n      dup1\n      swap2\n      sub\n      swap1\n      return\n        /* \"Sandwich.sol\":898:1863  function setupSandwichAttack(uint amountIn, uint amountOutMin, address[] calldata path, uint deadline) external onlyOwner nonReentrant {... */\n    tag_5:\n      tag_14\n      0x04\n      dup1\n      calldatasize\n      sub\n      dup2\n      add\n      swap1\n      tag_15\n      swap2\n      swap1\n      tag_16\n      jump\t// in\n    tag_15:\n      tag_17\n      jump\t// in\n    tag_14:\n      stop\n        /* \"Sandwich.sol\":455:502  IUniswapV2Router public immutable uniswapRouter */\n    tag_7:\n      immutable(\"0x8ce305e774de8920af8ed6c63efadee25c8b5fa06bd6a20ee5b87e5f5c0f9612\")\n      dup2\n      jump\t// out\n        /* \"Sandwich.sol\":509:539  address public immutable owner */\n    tag_11:\n      immutable(\"0x1b3fd0da9f6b7da2147eff870266af25b54877bf9c7064498588ee6f953ee460\")\n      dup2\n      jump\t// out\n        /* \"Sandwich.sol\":898:1863  function setupSandwichAttack(uint amountIn, uint amountOutMin, address[] calldata path, uint deadline) external onlyOwner nonReentrant {... */\n    tag_17:\n        /* \"Sandwich.sol\":728:733  owner */\n      immutable(\"0x1b3fd0da9f6b7da2147eff870266af25b54877bf9c7064498588ee6f953ee460\")\n        /* \"Sandwich.sol\":714:733  msg.sender == owner */\n      0xffffffffffffffffffffffffffffffffffffffff\n      and\n        /* \"Sandwich.sol\":714:724  msg.sender */\n      caller\n        /* \"Sandwich.sol\":714:733  msg.sender == owner */\n      0xffffffffffffffffffffffffffffffffffffffff\n      and\n      eq\n        /* \"Sandwich.sol\":706:747  require(msg.sender == owner, \"Not owner\") */\n      tag_19\n      jumpi\n      mload(0x40)\n      0x08c379a000000000000000000000000000000000000000000000000000000000\n      dup2\n      mstore\n      0x04\n      add\n      tag_20\n      swap1\n      tag_21\n      jump\t// in\n    tag_20:\n      mload(0x40)\n      dup1\n      swap2\n      sub\n      swap1\n      revert\n    tag_19:\n        /* \"@openzeppelin/contracts/security/ReentrancyGuard.sol\":2261:2282  _nonReentrantBefore() */\n      tag_23\n        /* \"@openzeppelin/contracts/security/ReentrancyGuard.sol\":2261:2280  _nonReentrantBefore */\n      tag_24\n        /* \"@openzeppelin/contracts/security/ReentrancyGuard.sol\":2261:2282  _nonReentrantBefore() */\n      jump\t// in\n    tag_23:\n        /* \"Sandwich.sol\":1059:1063  path */\n      dup3\n      dup3\n        /* \"Sandwich.sol\":1064:1065  0 */\n      0x00\n        /* \"Sandwich.sol\":1059:1066  path[0] */\n      dup2\n      dup2\n      lt\n      tag_26\n      jumpi\n      tag_27\n      tag_28\n      jump\t// in\n    tag_27:\n    tag_26:\n      swap1\n      pop\n      0x20\n      mul\n      add\n      0x20\n      dup2\n      add\n      swap1\n      tag_29\n      swap2\n      swap1\n      tag_30\n      jump\t// in\n    tag_29:\n        /* \"Sandwich.sol\":1052:1075  IERC20(path[0]).approve */\n      0xffffffffffffffffffffffffffffffffffffffff\n      and\n      0x095ea7b3\n        /* \"Sandwich.sol\":1084:1097  uniswapRouter */\n      immutable(\"0x8ce305e774de8920af8ed6c63efadee25c8b5fa06bd6a20ee5b87e5f5c0f9612\")\n        /* \"Sandwich.sol\":1100:1108  amountIn */\n      dup8\n        /* \"Sandwich.sol\":1052:1109  IERC20(path[0]).approve(address(uniswapRouter), amountIn) */\n      mload(0x40)\n      dup4\n      0xffffffff\n      and\n      0xe0\n      shl\n      dup2\n      mstore\n      0x04\n      add\n      tag_31\n      swap3\n      swap2\n      swap1\n      tag_32\n      jump\t// in\n    tag_31:\n      0x20\n      mload(0x40)\n      dup1\n      dup4\n      sub\n      dup2\n      0x00\n      dup8\n      gas\n      call\n      iszero\n      dup1\n      iszero\n      tag_34\n      jumpi\n      returndatasize\n      0x00\n      dup1\n      returndatacopy\n      revert(0x00, returndatasize)\n    tag_34:\n      pop\n      pop\n      pop\n      pop\n      mload(0x40)\n      returndatasize\n      not(0x1f)\n      0x1f\n      dup3\n      add\n      and\n      dup3\n      add\n      dup1\n      0x40\n      mstore\n      pop\n      dup2\n      add\n      swap1\n      tag_35\n      swap2\n      swap1\n      tag_36\n      jump\t// in\n    tag_35:\n        /* \"Sandwich.sol\":1044:1129  require(IERC20(path[0]).approve(address(uniswapRouter), amountIn), \"Approval failed\") */\n      tag_37\n      jumpi\n      mload(0x40)\n      0x08c379a000000000000000000000000000000000000000000000000000000000\n      dup2\n      mstore\n      0x04\n      add\n      tag_38\n      swap1\n      tag_39\n      jump\t// in\n    tag_38:\n      mload(0x40)\n      dup1\n      swap2\n      sub\n      swap1\n      revert\n    tag_37:\n        /* \"Sandwich.sol\":1150:1171  uint[] memory amounts */\n      0x00\n        /* \"Sandwich.sol\":1174:1187  uniswapRouter */\n      immutable(\"0x8ce305e774de8920af8ed6c63efadee25c8b5fa06bd6a20ee5b87e5f5c0f9612\")\n        /* \"Sandwich.sol\":1174:1212  uniswapRouter.swapExactTokensForTokens */\n      0xffffffffffffffffffffffffffffffffffffffff\n      and\n      0x38ed1739\n        /* \"Sandwich.sol\":1213:1221  amountIn */\n      dup8\n        /* \"Sandwich.sol\":1223:1235  amountOutMin */\n      dup8\n        /* \"Sandwich.sol\":1237:1241  path */\n      dup8\n      dup8\n        /* \"Sandwich.sol\":1251:1255  this */\n      address\n        /* \"Sandwich.sol\":1258:1266  deadline */\n      dup9\n        /* \"Sandwich.sol\":1174:1267  uniswapRouter.swapExactTokensForTokens(amountIn, amountOutMin, path, address(this), deadline) */\n      mload(0x40)\n      dup8\n      0xffffffff\n      and\n      0xe0\n      shl\n      dup2\n      mstore\n      0x04\n      add\n      tag_40\n      swap7\n      swap6\n      swap5\n      swap4\n      swap3\n      swap2\n      swap1\n      tag_41\n      jump\t// in\n    tag_40:\n      0x00\n      mload(0x40)\n      dup1\n      dup4\n      sub\n      dup2\n      0x00\n      dup8\n      gas\n      call\n      iszero\n      dup1\n      iszero\n      tag_43\n      jumpi\n      returndatasize\n      0x00\n      dup1\n      returndatacopy\n      revert(0x00, returndatasize)\n    tag_43:\n      pop\n      pop\n      pop\n      pop\n      mload(0x40)\n      returndatasize\n      0x00\n      dup3\n      returndatacopy\n      returndatasize\n      not(0x1f)\n      0x1f\n      dup3\n      add\n      and\n      dup3\n      add\n      dup1\n      0x40\n      mstore\n      pop\n      dup2\n      add\n      swap1\n      tag_44\n      swap2\n      swap1\n      tag_45\n      jump\t// in\n    tag_44:\n        /* \"Sandwich.sol\":1150:1267  uint[] memory amounts = uniswapRouter.swapExactTokensForTokens(amountIn, amountOutMin, path, address(this), deadline) */\n      swap1\n      pop\n        /* \"Sandwich.sol\":1303:1304  0 */\n      0x00\n        /* \"Sandwich.sol\":1286:1293  amounts */\n      dup2\n        /* \"Sandwich.sol\":1286:1300  amounts.length */\n      mload\n        /* \"Sandwich.sol\":1286:1304  amounts.length > 0 */\n      gt\n        /* \"Sandwich.sol\":1286:1334  amounts.length > 0 && amounts[0] >= amountOutMin */\n      dup1\n      iszero\n      tag_46\n      jumpi\n      pop\n        /* \"Sandwich.sol\":1322:1334  amountOutMin */\n      dup5\n        /* \"Sandwich.sol\":1308:1315  amounts */\n      dup2\n        /* \"Sandwich.sol\":1316:1317  0 */\n      0x00\n        /* \"Sandwich.sol\":1308:1318  amounts[0] */\n      dup2\n      mload\n      dup2\n      lt\n      tag_47\n      jumpi\n      tag_48\n      tag_28\n      jump\t// in\n    tag_48:\n    tag_47:\n      0x20\n      mul\n      0x20\n      add\n      add\n      mload\n        /* \"Sandwich.sol\":1308:1334  amounts[0] >= amountOutMin */\n      lt\n      iszero\n        /* \"Sandwich.sol\":1286:1334  amounts.length > 0 && amounts[0] >= amountOutMin */\n    tag_46:\n        /* \"Sandwich.sol\":1278:1350  require(amounts.length > 0 && amounts[0] >= amountOutMin, \"Swap failed\") */\n      tag_49\n      jumpi\n      mload(0x40)\n      0x08c379a000000000000000000000000000000000000000000000000000000000\n      dup2\n      mstore\n      0x04\n      add\n      tag_50\n      swap1\n      tag_51\n      jump\t// in\n    tag_50:\n      mload(0x40)\n      dup1\n      swap2\n      sub\n      swap1\n      revert\n    tag_49:\n        /* \"Sandwich.sol\":1426:1444  uint256 totalFunds */\n      0x00\n        /* \"Sandwich.sol\":1454:1458  path */\n      dup5\n      dup5\n        /* \"Sandwich.sol\":1473:1474  1 */\n      0x01\n        /* \"Sandwich.sol\":1459:1463  path */\n      dup8\n      dup8\n        /* \"Sandwich.sol\":1459:1470  path.length */\n      swap1\n      pop\n        /* \"Sandwich.sol\":1459:1474  path.length - 1 */\n      tag_52\n      swap2\n      swap1\n      tag_53\n      jump\t// in\n    tag_52:\n        /* \"Sandwich.sol\":1454:1475  path[path.length - 1] */\n      dup2\n      dup2\n      lt\n      tag_54\n      jumpi\n      tag_55\n      tag_28\n      jump\t// in\n    tag_55:\n    tag_54:\n      swap1\n      pop\n      0x20\n      mul\n      add\n      0x20\n      dup2\n      add\n      swap1\n      tag_56\n      swap2\n      swap1\n      tag_30\n      jump\t// in\n    tag_56:\n        /* \"Sandwich.sol\":1447:1486  IERC20(path[path.length - 1]).balanceOf */\n      0xffffffffffffffffffffffffffffffffffffffff\n      and\n      0x70a08231\n        /* \"Sandwich.sol\":1495:1499  this */\n      address\n        /* \"Sandwich.sol\":1447:1501  IERC20(path[path.length - 1]).balanceOf(address(this)) */\n      mload(0x40)\n      dup3\n      0xffffffff\n      and\n      0xe0\n      shl\n      dup2\n      mstore\n      0x04\n      add\n      tag_57\n      swap2\n      swap1\n      tag_13\n      jump\t// in\n    tag_57:\n      0x20\n      mload(0x40)\n      dup1\n      dup4\n      sub\n      dup2\n      dup7\n      gas\n      staticcall\n      iszero\n      dup1\n      iszero\n      tag_59\n      jumpi\n      returndatasize\n      0x00\n      dup1\n      returndatacopy\n      revert(0x00, returndatasize)\n    tag_59:\n      pop\n      pop\n      pop\n      pop\n      mload(0x40)\n      returndatasize\n      not(0x1f)\n      0x1f\n      dup3\n      add\n      and\n      dup3\n      add\n      dup1\n      0x40\n      mstore\n      pop\n      dup2\n      add\n      swap1\n      tag_60\n      swap2\n      swap1\n      tag_61\n      jump\t// in\n    tag_60:\n        /* \"Sandwich.sol\":1426:1501  uint256 totalFunds = IERC20(path[path.length - 1]).balanceOf(address(this)) */\n      swap1\n      pop\n        /* \"Sandwich.sol\":1519:1523  path */\n      dup5\n      dup5\n        /* \"Sandwich.sol\":1538:1539  1 */\n      0x01\n        /* \"Sandwich.sol\":1524:1528  path */\n      dup8\n      dup8\n        /* \"Sandwich.sol\":1524:1535  path.length */\n      swap1\n      pop\n        /* \"Sandwich.sol\":1524:1539  path.length - 1 */\n      tag_62\n      swap2\n      swap1\n      tag_53\n      jump\t// in\n    tag_62:\n        /* \"Sandwich.sol\":1519:1540  path[path.length - 1] */\n      dup2\n      dup2\n      lt\n      tag_63\n      jumpi\n      tag_64\n      tag_28\n      jump\t// in\n    tag_64:\n    tag_63:\n      swap1\n      pop\n      0x20\n      mul\n      add\n      0x20\n      dup2\n      add\n      swap1\n      tag_65\n      swap2\n      swap1\n      tag_30\n      jump\t// in\n    tag_65:\n        /* \"Sandwich.sol\":1512:1550  IERC20(path[path.length - 1]).transfer */\n      0xffffffffffffffffffffffffffffffffffffffff\n      and\n      0xa9059cbb\n        /* \"Sandwich.sol\":1551:1561  msg.sender */\n      caller\n        /* \"Sandwich.sol\":1563:1573  totalFunds */\n      dup4\n        /* \"Sandwich.sol\":1512:1574  IERC20(path[path.length - 1]).transfer(msg.sender, totalFunds) */\n      mload(0x40)\n      dup4\n      0xffffffff\n      and\n      0xe0\n      shl\n      dup2\n      mstore\n      0x04\n      add\n      tag_66\n      swap3\n      swap2\n      swap1\n      tag_32\n      jump\t// in\n    tag_66:\n      0x20\n      mload(0x40)\n      dup1\n      dup4\n      sub\n      dup2\n      0x00\n      dup8\n      gas\n      call\n      iszero\n      dup1\n      iszero\n      tag_68\n      jumpi\n      returndatasize\n      0x00\n      dup1\n      returndatacopy\n      revert(0x00, returndatasize)\n    tag_68:\n      pop\n      pop\n      pop\n      pop\n      mload(0x40)\n      returndatasize\n      not(0x1f)\n      0x1f\n      dup3\n      add\n      and\n      dup3\n      add\n      dup1\n      0x40\n      mstore\n      pop\n      dup2\n      add\n      swap1\n      tag_69\n      swap2\n      swap1\n      tag_36\n      jump\t// in\n    tag_69:\n      pop\n        /* \"Sandwich.sol\":1636:1647  uint profit */\n      0x00\n        /* \"Sandwich.sol\":1680:1688  amountIn */\n      dup8\n        /* \"Sandwich.sol\":1650:1657  amounts */\n      dup4\n        /* \"Sandwich.sol\":1675:1676  1 */\n      0x01\n        /* \"Sandwich.sol\":1658:1665  amounts */\n      dup6\n        /* \"Sandwich.sol\":1658:1672  amounts.length */\n      mload\n        /* \"Sandwich.sol\":1658:1676  amounts.length - 1 */\n      tag_70\n      swap2\n      swap1\n      tag_53\n      jump\t// in\n    tag_70:\n        /* \"Sandwich.sol\":1650:1677  amounts[amounts.length - 1] */\n      dup2\n      mload\n      dup2\n      lt\n      tag_71\n      jumpi\n      tag_72\n      tag_28\n      jump\t// in\n    tag_72:\n    tag_71:\n      0x20\n      mul\n      0x20\n      add\n      add\n      mload\n        /* \"Sandwich.sol\":1650:1688  amounts[amounts.length - 1] - amountIn */\n      tag_73\n      swap2\n      swap1\n      tag_53\n      jump\t// in\n    tag_73:\n        /* \"Sandwich.sol\":1636:1688  uint profit = amounts[amounts.length - 1] - amountIn */\n      swap1\n      pop\n        /* \"Sandwich.sol\":1722:1732  msg.sender */\n      caller\n        /* \"Sandwich.sol\":1704:1733  DebugInfo(profit, msg.sender) */\n      0xffffffffffffffffffffffffffffffffffffffff\n      and\n        /* \"Sandwich.sol\":1714:1720  profit */\n      dup2\n        /* \"Sandwich.sol\":1704:1733  DebugInfo(profit, msg.sender) */\n      0xd6a5b88b2c1c30ace19709265079d332f1dc1955fb28f437ece05f709b847345\n      mload(0x40)\n      mload(0x40)\n      dup1\n      swap2\n      sub\n      swap1\n      log3\n        /* \"Sandwich.sol\":1792:1802  msg.sender */\n      caller\n        /* \"Sandwich.sol\":1772:1803  DebugInfo(amountIn, msg.sender) */\n      0xffffffffffffffffffffffffffffffffffffffff\n      and\n        /* \"Sandwich.sol\":1782:1790  amountIn */\n      dup9\n        /* \"Sandwich.sol\":1772:1803  DebugInfo(amountIn, msg.sender) */\n      0xd6a5b88b2c1c30ace19709265079d332f1dc1955fb28f437ece05f709b847345\n      mload(0x40)\n      mload(0x40)\n      dup1\n      swap2\n      sub\n      swap1\n      log3\n        /* \"Sandwich.sol\":1849:1853  this */\n      address\n        /* \"Sandwich.sol\":1819:1855  DebugInfo(amounts[0], address(this)) */\n      0xffffffffffffffffffffffffffffffffffffffff\n      and\n        /* \"Sandwich.sol\":1829:1836  amounts */\n      dup4\n        /* \"Sandwich.sol\":1837:1838  0 */\n      0x00\n        /* \"Sandwich.sol\":1829:1839  amounts[0] */\n      dup2\n      mload\n      dup2\n      lt\n      tag_74\n      jumpi\n      tag_75\n      tag_28\n      jump\t// in\n    tag_75:\n    tag_74:\n      0x20\n      mul\n      0x20\n      add\n      add\n      mload\n        /* \"Sandwich.sol\":1819:1855  DebugInfo(amounts[0], address(this)) */\n      0xd6a5b88b2c1c30ace19709265079d332f1dc1955fb28f437ece05f709b847345\n      mload(0x40)\n      mload(0x40)\n      dup1\n      swap2\n      sub\n      swap1\n      log3\n        /* \"Sandwich.sol\":1033:1863  {... */\n      pop\n      pop\n      pop\n        /* \"@openzeppelin/contracts/security/ReentrancyGuard.sol\":2303:2323  _nonReentrantAfter() */\n      tag_76\n        /* \"@openzeppelin/contracts/security/ReentrancyGuard.sol\":2303:2321  _nonReentrantAfter */\n      tag_77\n        /* \"@openzeppelin/contracts/security/ReentrancyGuard.sol\":2303:2323  _nonReentrantAfter() */\n      jump\t// in\n    tag_76:\n        /* \"Sandwich.sol\":898:1863  function setupSandwichAttack(uint amountIn, uint amountOutMin, address[] calldata path, uint deadline) external onlyOwner nonReentrant {... */\n      pop\n      pop\n      pop\n      pop\n      pop\n      jump\t// out\n        /* \"@openzeppelin/contracts/security/ReentrancyGuard.sol\":2336:2623  function _nonReentrantBefore() private {... */\n    tag_24:\n        /* \"@openzeppelin/contracts/security/ReentrancyGuard.sol\":1759:1760  2 */\n      0x02\n        /* \"@openzeppelin/contracts/security/ReentrancyGuard.sol\":2468:2475  _status */\n      sload(0x00)\n        /* \"@openzeppelin/contracts/security/ReentrancyGuard.sol\":2468:2487  _status != _ENTERED */\n      sub\n        /* \"@openzeppelin/contracts/security/ReentrancyGuard.sol\":2460:2523  require(_status != _ENTERED, \"ReentrancyGuard: reentrant call\") */\n      tag_79\n      jumpi\n      mload(0x40)\n      0x08c379a000000000000000000000000000000000000000000000000000000000\n      dup2\n      mstore\n      0x04\n      add\n      tag_80\n      swap1\n      tag_81\n      jump\t// in\n    tag_80:\n      mload(0x40)\n      dup1\n      swap2\n      sub\n      swap1\n      revert\n    tag_79:\n        /* \"@openzeppelin/contracts/security/ReentrancyGuard.sol\":1759:1760  2 */\n      0x02\n        /* \"@openzeppelin/contracts/security/ReentrancyGuard.sol\":2598:2605  _status */\n      0x00\n        /* \"@openzeppelin/contracts/security/ReentrancyGuard.sol\":2598:2616  _status = _ENTERED */\n      dup2\n      swap1\n      sstore\n      pop\n        /* \"@openzeppelin/contracts/security/ReentrancyGuard.sol\":2336:2623  function _nonReentrantBefore() private {... */\n      jump\t// out\n        /* \"@openzeppelin/contracts/security/ReentrancyGuard.sol\":2629:2838  function _nonReentrantAfter() private {... */\n    tag_77:\n        /* \"@openzeppelin/contracts/security/ReentrancyGuard.sol\":1716:1717  1 */\n      0x01\n        /* \"@openzeppelin/contracts/security/ReentrancyGuard.sol\":2809:2816  _status */\n      0x00\n        /* \"@openzeppelin/contracts/security/ReentrancyGuard.sol\":2809:2831  _status = _NOT_ENTERED */\n      dup2\n      swap1\n      sstore\n      pop\n        /* \"@openzeppelin/contracts/security/ReentrancyGuard.sol\":2629:2838  function _nonReentrantAfter() private {... */\n      jump\t// out\n        /* \"#utility.yul\":7:133   */\n    tag_83:\n        /* \"#utility.yul\":44:51   */\n      0x00\n        /* \"#utility.yul\":84:126   */\n      0xffffffffffffffffffffffffffffffffffffffff\n        /* \"#utility.yul\":77:82   */\n      dup3\n        /* \"#utility.yul\":73:127   */\n      and\n        /* \"#utility.yul\":62:127   */\n      swap1\n      pop\n        /* \"#utility.yul\":7:133   */\n      swap2\n      swap1\n      pop\n      jump\t// out\n        /* \"#utility.yul\":139:199   */\n    tag_84:\n        /* \"#utility.yul\":167:170   */\n      0x00\n        /* \"#utility.yul\":188:193   */\n      dup2\n        /* \"#utility.yul\":181:193   */\n      swap1\n      pop\n        /* \"#utility.yul\":139:199   */\n      swap2\n      swap1\n      pop\n      jump\t// out\n        /* \"#utility.yul\":205:347   */\n    tag_85:\n        /* \"#utility.yul\":255:264   */\n      0x00\n        /* \"#utility.yul\":288:341   */\n      tag_136\n        /* \"#utility.yul\":306:340   */\n      tag_137\n        /* \"#utility.yul\":315:339   */\n      tag_138\n        /* \"#utility.yul\":333:338   */\n      dup5\n        /* \"#utility.yul\":315:339   */\n      tag_83\n      jump\t// in\n    tag_138:\n        /* \"#utility.yul\":306:340   */\n      tag_84\n      jump\t// in\n    tag_137:\n        /* \"#utility.yul\":288:341   */\n      tag_83\n      jump\t// in\n    tag_136:\n        /* \"#utility.yul\":275:341   */\n      swap1\n      pop\n        /* \"#utility.yul\":205:347   */\n      swap2\n      swap1\n      pop\n      jump\t// out\n        /* \"#utility.yul\":353:479   */\n    tag_86:\n        /* \"#utility.yul\":403:412   */\n      0x00\n        /* \"#utility.yul\":436:473   */\n      tag_140\n        /* \"#utility.yul\":467:472   */\n      dup3\n        /* \"#utility.yul\":436:473   */\n      tag_85\n      jump\t// in\n    tag_140:\n        /* \"#utility.yul\":423:473   */\n      swap1\n      pop\n        /* \"#utility.yul\":353:479   */\n      swap2\n      swap1\n      pop\n      jump\t// out\n        /* \"#utility.yul\":485:635   */\n    tag_87:\n        /* \"#utility.yul\":559:568   */\n      0x00\n        /* \"#utility.yul\":592:629   */\n      tag_142\n        /* \"#utility.yul\":623:628   */\n      dup3\n        /* \"#utility.yul\":592:629   */\n      tag_86\n      jump\t// in\n    tag_142:\n        /* \"#utility.yul\":579:629   */\n      swap1\n      pop\n        /* \"#utility.yul\":485:635   */\n      swap2\n      swap1\n      pop\n      jump\t// out\n        /* \"#utility.yul\":641:820   */\n    tag_88:\n        /* \"#utility.yul\":752:813   */\n      tag_144\n        /* \"#utility.yul\":807:812   */\n      dup2\n        /* \"#utility.yul\":752:813   */\n      tag_87\n      jump\t// in\n    tag_144:\n        /* \"#utility.yul\":747:750   */\n      dup3\n        /* \"#utility.yul\":740:814   */\n      mstore\n        /* \"#utility.yul\":641:820   */\n      pop\n      pop\n      jump\t// out\n        /* \"#utility.yul\":826:1096   */\n    tag_9:\n        /* \"#utility.yul\":943:947   */\n      0x00\n        /* \"#utility.yul\":981:983   */\n      0x20\n        /* \"#utility.yul\":970:979   */\n      dup3\n        /* \"#utility.yul\":966:984   */\n      add\n        /* \"#utility.yul\":958:984   */\n      swap1\n      pop\n        /* \"#utility.yul\":994:1089   */\n      tag_146\n        /* \"#utility.yul\":1086:1087   */\n      0x00\n        /* \"#utility.yul\":1075:1084   */\n      dup4\n        /* \"#utility.yul\":1071:1088   */\n      add\n        /* \"#utility.yul\":1062:1068   */\n      dup5\n        /* \"#utility.yul\":994:1089   */\n      tag_88\n      jump\t// in\n    tag_146:\n        /* \"#utility.yul\":826:1096   */\n      swap3\n      swap2\n      pop\n      pop\n      jump\t// out\n        /* \"#utility.yul\":1102:1198   */\n    tag_89:\n        /* \"#utility.yul\":1139:1146   */\n      0x00\n        /* \"#utility.yul\":1168:1192   */\n      tag_148\n        /* \"#utility.yul\":1186:1191   */\n      dup3\n        /* \"#utility.yul\":1168:1192   */\n      tag_83\n      jump\t// in\n    tag_148:\n        /* \"#utility.yul\":1157:1192   */\n      swap1\n      pop\n        /* \"#utility.yul\":1102:1198   */\n      swap2\n      swap1\n      pop\n      jump\t// out\n        /* \"#utility.yul\":1204:1322   */\n    tag_90:\n        /* \"#utility.yul\":1291:1315   */\n      tag_150\n        /* \"#utility.yul\":1309:1314   */\n      dup2\n        /* \"#utility.yul\":1291:1315   */\n      tag_89\n      jump\t// in\n    tag_150:\n        /* \"#utility.yul\":1286:1289   */\n      dup3\n        /* \"#utility.yul\":1279:1316   */\n      mstore\n        /* \"#utility.yul\":1204:1322   */\n      pop\n      pop\n      jump\t// out\n        /* \"#utility.yul\":1328:1550   */\n    tag_13:\n        /* \"#utility.yul\":1421:1425   */\n      0x00\n        /* \"#utility.yul\":1459:1461   */\n      0x20\n        /* \"#utility.yul\":1448:1457   */\n      dup3\n        /* \"#utility.yul\":1444:1462   */\n      add\n        /* \"#utility.yul\":1436:1462   */\n      swap1\n      pop\n        /* \"#utility.yul\":1472:1543   */\n      tag_152\n        /* \"#utility.yul\":1540:1541   */\n      0x00\n        /* \"#utility.yul\":1529:1538   */\n      dup4\n        /* \"#utility.yul\":1525:1542   */\n      add\n        /* \"#utility.yul\":1516:1522   */\n      dup5\n        /* \"#utility.yul\":1472:1543   */\n      tag_90\n      jump\t// in\n    tag_152:\n        /* \"#utility.yul\":1328:1550   */\n      swap3\n      swap2\n      pop\n      pop\n      jump\t// out\n        /* \"#utility.yul\":1556:1631   */\n    tag_91:\n        /* \"#utility.yul\":1589:1595   */\n      0x00\n        /* \"#utility.yul\":1622:1624   */\n      0x40\n        /* \"#utility.yul\":1616:1625   */\n      mload\n        /* \"#utility.yul\":1606:1625   */\n      swap1\n      pop\n        /* \"#utility.yul\":1556:1631   */\n      swap1\n      jump\t// out\n        /* \"#utility.yul\":1637:1754   */\n    tag_92:\n        /* \"#utility.yul\":1746:1747   */\n      0x00\n        /* \"#utility.yul\":1743:1744   */\n      dup1\n        /* \"#utility.yul\":1736:1748   */\n      revert\n        /* \"#utility.yul\":1760:1877   */\n    tag_93:\n        /* \"#utility.yul\":1869:1870   */\n      0x00\n        /* \"#utility.yul\":1866:1867   */\n      dup1\n        /* \"#utility.yul\":1859:1871   */\n      revert\n        /* \"#utility.yul\":1883:1960   */\n    tag_94:\n        /* \"#utility.yul\":1920:1927   */\n      0x00\n        /* \"#utility.yul\":1949:1954   */\n      dup2\n        /* \"#utility.yul\":1938:1954   */\n      swap1\n      pop\n        /* \"#utility.yul\":1883:1960   */\n      swap2\n      swap1\n      pop\n      jump\t// out\n        /* \"#utility.yul\":1966:2088   */\n    tag_95:\n        /* \"#utility.yul\":2039:2063   */\n      tag_158\n        /* \"#utility.yul\":2057:2062   */\n      dup2\n        /* \"#utility.yul\":2039:2063   */\n      tag_94\n      jump\t// in\n    tag_158:\n        /* \"#utility.yul\":2032:2037   */\n      dup2\n        /* \"#utility.yul\":2029:2064   */\n      eq\n        /* \"#utility.yul\":2019:2082   */\n      tag_159\n      jumpi\n        /* \"#utility.yul\":2078:2079   */\n      0x00\n        /* \"#utility.yul\":2075:2076   */\n      dup1\n        /* \"#utility.yul\":2068:2080   */\n      revert\n        /* \"#utility.yul\":2019:2082   */\n    tag_159:\n        /* \"#utility.yul\":1966:2088   */\n      pop\n      jump\t// out\n        /* \"#utility.yul\":2094:2233   */\n    tag_96:\n        /* \"#utility.yul\":2140:2145   */\n      0x00\n        /* \"#utility.yul\":2178:2184   */\n      dup2\n        /* \"#utility.yul\":2165:2185   */\n      calldataload\n        /* \"#utility.yul\":2156:2185   */\n      swap1\n      pop\n        /* \"#utility.yul\":2194:2227   */\n      tag_161\n        /* \"#utility.yul\":2221:2226   */\n      dup2\n        /* \"#utility.yul\":2194:2227   */\n      tag_95\n      jump\t// in\n    tag_161:\n        /* \"#utility.yul\":2094:2233   */\n      swap3\n      swap2\n      pop\n      pop\n      jump\t// out\n        /* \"#utility.yul\":2239:2356   */\n    tag_97:\n        /* \"#utility.yul\":2348:2349   */\n      0x00\n        /* \"#utility.yul\":2345:2346   */\n      dup1\n        /* \"#utility.yul\":2338:2350   */\n      revert\n        /* \"#utility.yul\":2362:2479   */\n    tag_98:\n        /* \"#utility.yul\":2471:2472   */\n      0x00\n        /* \"#utility.yul\":2468:2469   */\n      dup1\n        /* \"#utility.yul\":2461:2473   */\n      revert\n        /* \"#utility.yul\":2485:2602   */\n    tag_99:\n        /* \"#utility.yul\":2594:2595   */\n      0x00\n        /* \"#utility.yul\":2591:2592   */\n      dup1\n        /* \"#utility.yul\":2584:2596   */\n      revert\n        /* \"#utility.yul\":2625:3193   */\n    tag_100:\n        /* \"#utility.yul\":2698:2706   */\n      0x00\n        /* \"#utility.yul\":2708:2714   */\n      dup1\n        /* \"#utility.yul\":2758:2761   */\n      dup4\n        /* \"#utility.yul\":2751:2755   */\n      0x1f\n        /* \"#utility.yul\":2743:2749   */\n      dup5\n        /* \"#utility.yul\":2739:2756   */\n      add\n        /* \"#utility.yul\":2735:2762   */\n      slt\n        /* \"#utility.yul\":2725:2847   */\n      tag_166\n      jumpi\n        /* \"#utility.yul\":2766:2845   */\n      tag_167\n      tag_97\n      jump\t// in\n    tag_167:\n        /* \"#utility.yul\":2725:2847   */\n    tag_166:\n        /* \"#utility.yul\":2879:2885   */\n      dup3\n        /* \"#utility.yul\":2866:2886   */\n      calldataload\n        /* \"#utility.yul\":2856:2886   */\n      swap1\n      pop\n        /* \"#utility.yul\":2909:2927   */\n      0xffffffffffffffff\n        /* \"#utility.yul\":2901:2907   */\n      dup2\n        /* \"#utility.yul\":2898:2928   */\n      gt\n        /* \"#utility.yul\":2895:3012   */\n      iszero\n      tag_168\n      jumpi\n        /* \"#utility.yul\":2931:3010   */\n      tag_169\n      tag_98\n      jump\t// in\n    tag_169:\n        /* \"#utility.yul\":2895:3012   */\n    tag_168:\n        /* \"#utility.yul\":3045:3049   */\n      0x20\n        /* \"#utility.yul\":3037:3043   */\n      dup4\n        /* \"#utility.yul\":3033:3050   */\n      add\n        /* \"#utility.yul\":3021:3050   */\n      swap2\n      pop\n        /* \"#utility.yul\":3099:3102   */\n      dup4\n        /* \"#utility.yul\":3091:3095   */\n      0x20\n        /* \"#utility.yul\":3083:3089   */\n      dup3\n        /* \"#utility.yul\":3079:3096   */\n      mul\n        /* \"#utility.yul\":3069:3077   */\n      dup4\n        /* \"#utility.yul\":3065:3097   */\n      add\n        /* \"#utility.yul\":3062:3103   */\n      gt\n        /* \"#utility.yul\":3059:3187   */\n      iszero\n      tag_170\n      jumpi\n        /* \"#utility.yul\":3106:3185   */\n      tag_171\n      tag_99\n      jump\t// in\n    tag_171:\n        /* \"#utility.yul\":3059:3187   */\n    tag_170:\n        /* \"#utility.yul\":2625:3193   */\n      swap3\n      pop\n      swap3\n      swap1\n      pop\n      jump\t// out\n        /* \"#utility.yul\":3199:4194   */\n    tag_16:\n        /* \"#utility.yul\":3312:3318   */\n      0x00\n        /* \"#utility.yul\":3320:3326   */\n      dup1\n        /* \"#utility.yul\":3328:3334   */\n      0x00\n        /* \"#utility.yul\":3336:3342   */\n      dup1\n        /* \"#utility.yul\":3344:3350   */\n      0x00\n        /* \"#utility.yul\":3393:3396   */\n      0x80\n        /* \"#utility.yul\":3381:3390   */\n      dup7\n        /* \"#utility.yul\":3372:3379   */\n      dup9\n        /* \"#utility.yul\":3368:3391   */\n      sub\n        /* \"#utility.yul\":3364:3397   */\n      slt\n        /* \"#utility.yul\":3361:3481   */\n      iszero\n      tag_173\n      jumpi\n        /* \"#utility.yul\":3400:3479   */\n      tag_174\n      tag_92\n      jump\t// in\n    tag_174:\n        /* \"#utility.yul\":3361:3481   */\n    tag_173:\n        /* \"#utility.yul\":3520:3521   */\n      0x00\n        /* \"#utility.yul\":3545:3598   */\n      tag_175\n        /* \"#utility.yul\":3590:3597   */\n      dup9\n        /* \"#utility.yul\":3581:3587   */\n      dup3\n        /* \"#utility.yul\":3570:3579   */\n      dup10\n        /* \"#utility.yul\":3566:3588   */\n      add\n        /* \"#utility.yul\":3545:3598   */\n      tag_96\n      jump\t// in\n    tag_175:\n        /* \"#utility.yul\":3535:3598   */\n      swap6\n      pop\n        /* \"#utility.yul\":3491:3608   */\n      pop\n        /* \"#utility.yul\":3647:3649   */\n      0x20\n        /* \"#utility.yul\":3673:3726   */\n      tag_176\n        /* \"#utility.yul\":3718:3725   */\n      dup9\n        /* \"#utility.yul\":3709:3715   */\n      dup3\n        /* \"#utility.yul\":3698:3707   */\n      dup10\n        /* \"#utility.yul\":3694:3716   */\n      add\n        /* \"#utility.yul\":3673:3726   */\n      tag_96\n      jump\t// in\n    tag_176:\n        /* \"#utility.yul\":3663:3726   */\n      swap5\n      pop\n        /* \"#utility.yul\":3618:3736   */\n      pop\n        /* \"#utility.yul\":3803:3805   */\n      0x40\n        /* \"#utility.yul\":3792:3801   */\n      dup7\n        /* \"#utility.yul\":3788:3806   */\n      add\n        /* \"#utility.yul\":3775:3807   */\n      calldataload\n        /* \"#utility.yul\":3834:3852   */\n      0xffffffffffffffff\n        /* \"#utility.yul\":3826:3832   */\n      dup2\n        /* \"#utility.yul\":3823:3853   */\n      gt\n        /* \"#utility.yul\":3820:3937   */\n      iszero\n      tag_177\n      jumpi\n        /* \"#utility.yul\":3856:3935   */\n      tag_178\n      tag_93\n      jump\t// in\n    tag_178:\n        /* \"#utility.yul\":3820:3937   */\n    tag_177:\n        /* \"#utility.yul\":3969:4049   */\n      tag_179\n        /* \"#utility.yul\":4041:4048   */\n      dup9\n        /* \"#utility.yul\":4032:4038   */\n      dup3\n        /* \"#utility.yul\":4021:4030   */\n      dup10\n        /* \"#utility.yul\":4017:4039   */\n      add\n        /* \"#utility.yul\":3969:4049   */\n      tag_100\n      jump\t// in\n    tag_179:\n        /* \"#utility.yul\":3951:4049   */\n      swap4\n      pop\n      swap4\n      pop\n        /* \"#utility.yul\":3746:4059   */\n      pop\n        /* \"#utility.yul\":4098:4100   */\n      0x60\n        /* \"#utility.yul\":4124:4177   */\n      tag_180\n        /* \"#utility.yul\":4169:4176   */\n      dup9\n        /* \"#utility.yul\":4160:4166   */\n      dup3\n        /* \"#utility.yul\":4149:4158   */\n      dup10\n        /* \"#utility.yul\":4145:4167   */\n      add\n        /* \"#utility.yul\":4124:4177   */\n      tag_96\n      jump\t// in\n    tag_180:\n        /* \"#utility.yul\":4114:4177   */\n      swap2\n      pop\n        /* \"#utility.yul\":4069:4187   */\n      pop\n        /* \"#utility.yul\":3199:4194   */\n      swap3\n      swap6\n      pop\n      swap3\n      swap6\n      swap1\n      swap4\n      pop\n      jump\t// out\n        /* \"#utility.yul\":4200:4369   */\n    tag_101:\n        /* \"#utility.yul\":4284:4295   */\n      0x00\n        /* \"#utility.yul\":4318:4324   */\n      dup3\n        /* \"#utility.yul\":4313:4316   */\n      dup3\n        /* \"#utility.yul\":4306:4325   */\n      mstore\n        /* \"#utility.yul\":4358:4362   */\n      0x20\n        /* \"#utility.yul\":4353:4356   */\n      dup3\n        /* \"#utility.yul\":4349:4363   */\n      add\n        /* \"#utility.yul\":4334:4363   */\n      swap1\n      pop\n        /* \"#utility.yul\":4200:4369   */\n      swap3\n      swap2\n      pop\n      pop\n      jump\t// out\n        /* \"#utility.yul\":4375:4534   */\n    tag_102:\n        /* \"#utility.yul\":4515:4526   */\n      0x4e6f74206f776e65720000000000000000000000000000000000000000000000\n        /* \"#utility.yul\":4511:4512   */\n      0x00\n        /* \"#utility.yul\":4503:4509   */\n      dup3\n        /* \"#utility.yul\":4499:4513   */\n      add\n        /* \"#utility.yul\":4492:4527   */\n      mstore\n        /* \"#utility.yul\":4375:4534   */\n      pop\n      jump\t// out\n        /* \"#utility.yul\":4540:4905   */\n    tag_103:\n        /* \"#utility.yul\":4682:4685   */\n      0x00\n        /* \"#utility.yul\":4703:4769   */\n      tag_184\n        /* \"#utility.yul\":4767:4768   */\n      0x09\n        /* \"#utility.yul\":4762:4765   */\n      dup4\n        /* \"#utility.yul\":4703:4769   */\n      tag_101\n      jump\t// in\n    tag_184:\n        /* \"#utility.yul\":4696:4769   */\n      swap2\n      pop\n        /* \"#utility.yul\":4778:4871   */\n      tag_185\n        /* \"#utility.yul\":4867:4870   */\n      dup3\n        /* \"#utility.yul\":4778:4871   */\n      tag_102\n      jump\t// in\n    tag_185:\n        /* \"#utility.yul\":4896:4898   */\n      0x20\n        /* \"#utility.yul\":4891:4894   */\n      dup3\n        /* \"#utility.yul\":4887:4899   */\n      add\n        /* \"#utility.yul\":4880:4899   */\n      swap1\n      pop\n        /* \"#utility.yul\":4540:4905   */\n      swap2\n      swap1\n      pop\n      jump\t// out\n        /* \"#utility.yul\":4911:5330   */\n    tag_21:\n        /* \"#utility.yul\":5077:5081   */\n      0x00\n        /* \"#utility.yul\":5115:5117   */\n      0x20\n        /* \"#utility.yul\":5104:5113   */\n      dup3\n        /* \"#utility.yul\":5100:5118   */\n      add\n        /* \"#utility.yul\":5092:5118   */\n      swap1\n      pop\n        /* \"#utility.yul\":5164:5173   */\n      dup2\n        /* \"#utility.yul\":5158:5162   */\n      dup2\n        /* \"#utility.yul\":5154:5174   */\n      sub\n        /* \"#utility.yul\":5150:5151   */\n      0x00\n        /* \"#utility.yul\":5139:5148   */\n      dup4\n        /* \"#utility.yul\":5135:5152   */\n      add\n        /* \"#utility.yul\":5128:5175   */\n      mstore\n        /* \"#utility.yul\":5192:5323   */\n      tag_187\n        /* \"#utility.yul\":5318:5322   */\n      dup2\n        /* \"#utility.yul\":5192:5323   */\n      tag_103\n      jump\t// in\n    tag_187:\n        /* \"#utility.yul\":5184:5323   */\n      swap1\n      pop\n        /* \"#utility.yul\":4911:5330   */\n      swap2\n      swap1\n      pop\n      jump\t// out\n        /* \"#utility.yul\":5336:5516   */\n    tag_28:\n        /* \"#utility.yul\":5384:5461   */\n      0x4e487b7100000000000000000000000000000000000000000000000000000000\n        /* \"#utility.yul\":5381:5382   */\n      0x00\n        /* \"#utility.yul\":5374:5462   */\n      mstore\n        /* \"#utility.yul\":5481:5485   */\n      0x32\n        /* \"#utility.yul\":5478:5479   */\n      0x04\n        /* \"#utility.yul\":5471:5486   */\n      mstore\n        /* \"#utility.yul\":5505:5509   */\n      0x24\n        /* \"#utility.yul\":5502:5503   */\n      0x00\n        /* \"#utility.yul\":5495:5510   */\n      revert\n        /* \"#utility.yul\":5522:5644   */\n    tag_104:\n        /* \"#utility.yul\":5595:5619   */\n      tag_190\n        /* \"#utility.yul\":5613:5618   */\n      dup2\n        /* \"#utility.yul\":5595:5619   */\n      tag_89\n      jump\t// in\n    tag_190:\n        /* \"#utility.yul\":5588:5593   */\n      dup2\n        /* \"#utility.yul\":5585:5620   */\n      eq\n        /* \"#utility.yul\":5575:5638   */\n      tag_191\n      jumpi\n        /* \"#utility.yul\":5634:5635   */\n      0x00\n        /* \"#utility.yul\":5631:5632   */\n      dup1\n        /* \"#utility.yul\":5624:5636   */\n      revert\n        /* \"#utility.yul\":5575:5638   */\n    tag_191:\n        /* \"#utility.yul\":5522:5644   */\n      pop\n      jump\t// out\n        /* \"#utility.yul\":5650:5789   */\n    tag_105:\n        /* \"#utility.yul\":5696:5701   */\n      0x00\n        /* \"#utility.yul\":5734:5740   */\n      dup2\n        /* \"#utility.yul\":5721:5741   */\n      calldataload\n        /* \"#utility.yul\":5712:5741   */\n      swap1\n      pop\n        /* \"#utility.yul\":5750:5783   */\n      tag_193\n        /* \"#utility.yul\":5777:5782   */\n      dup2\n        /* \"#utility.yul\":5750:5783   */\n      tag_104\n      jump\t// in\n    tag_193:\n        /* \"#utility.yul\":5650:5789   */\n      swap3\n      swap2\n      pop\n      pop\n      jump\t// out\n        /* \"#utility.yul\":5795:6124   */\n    tag_30:\n        /* \"#utility.yul\":5854:5860   */\n      0x00\n        /* \"#utility.yul\":5903:5905   */\n      0x20\n        /* \"#utility.yul\":5891:5900   */\n      dup3\n        /* \"#utility.yul\":5882:5889   */\n      dup5\n        /* \"#utility.yul\":5878:5901   */\n      sub\n        /* \"#utility.yul\":5874:5906   */\n      slt\n        /* \"#utility.yul\":5871:5990   */\n      iszero\n      tag_195\n      jumpi\n        /* \"#utility.yul\":5909:5988   */\n      tag_196\n      tag_92\n      jump\t// in\n    tag_196:\n        /* \"#utility.yul\":5871:5990   */\n    tag_195:\n        /* \"#utility.yul\":6029:6030   */\n      0x00\n        /* \"#utility.yul\":6054:6107   */\n      tag_197\n        /* \"#utility.yul\":6099:6106   */\n      dup5\n        /* \"#utility.yul\":6090:6096   */\n      dup3\n        /* \"#utility.yul\":6079:6088   */\n      dup6\n        /* \"#utility.yul\":6075:6097   */\n      add\n        /* \"#utility.yul\":6054:6107   */\n      tag_105\n      jump\t// in\n    tag_197:\n        /* \"#utility.yul\":6044:6107   */\n      swap2\n      pop\n        /* \"#utility.yul\":6000:6117   */\n      pop\n        /* \"#utility.yul\":5795:6124   */\n      swap3\n      swap2\n      pop\n      pop\n      jump\t// out\n        /* \"#utility.yul\":6130:6248   */\n    tag_106:\n        /* \"#utility.yul\":6217:6241   */\n      tag_199\n        /* \"#utility.yul\":6235:6240   */\n      dup2\n        /* \"#utility.yul\":6217:6241   */\n      tag_94\n      jump\t// in\n    tag_199:\n        /* \"#utility.yul\":6212:6215   */\n      dup3\n        /* \"#utility.yul\":6205:6242   */\n      mstore\n        /* \"#utility.yul\":6130:6248   */\n      pop\n      pop\n      jump\t// out\n        /* \"#utility.yul\":6254:6586   */\n    tag_32:\n        /* \"#utility.yul\":6375:6379   */\n      0x00\n        /* \"#utility.yul\":6413:6415   */\n      0x40\n        /* \"#utility.yul\":6402:6411   */\n      dup3\n        /* \"#utility.yul\":6398:6416   */\n      add\n        /* \"#utility.yul\":6390:6416   */\n      swap1\n      pop\n        /* \"#utility.yul\":6426:6497   */\n      tag_201\n        /* \"#utility.yul\":6494:6495   */\n      0x00\n        /* \"#utility.yul\":6483:6492   */\n      dup4\n        /* \"#utility.yul\":6479:6496   */\n      add\n        /* \"#utility.yul\":6470:6476   */\n      dup6\n        /* \"#utility.yul\":6426:6497   */\n      tag_90\n      jump\t// in\n    tag_201:\n        /* \"#utility.yul\":6507:6579   */\n      tag_202\n        /* \"#utility.yul\":6575:6577   */\n      0x20\n        /* \"#utility.yul\":6564:6573   */\n      dup4\n        /* \"#utility.yul\":6560:6578   */\n      add\n        /* \"#utility.yul\":6551:6557   */\n      dup5\n        /* \"#utility.yul\":6507:6579   */\n      tag_106\n      jump\t// in\n    tag_202:\n        /* \"#utility.yul\":6254:6586   */\n      swap4\n      swap3\n      pop\n      pop\n      pop\n      jump\t// out\n        /* \"#utility.yul\":6592:6682   */\n    tag_107:\n        /* \"#utility.yul\":6626:6633   */\n      0x00\n        /* \"#utility.yul\":6669:6674   */\n      dup2\n        /* \"#utility.yul\":6662:6675   */\n      iszero\n        /* \"#utility.yul\":6655:6676   */\n      iszero\n        /* \"#utility.yul\":6644:6676   */\n      swap1\n      pop\n        /* \"#utility.yul\":6592:6682   */\n      swap2\n      swap1\n      pop\n      jump\t// out\n        /* \"#utility.yul\":6688:6804   */\n    tag_108:\n        /* \"#utility.yul\":6758:6779   */\n      tag_205\n        /* \"#utility.yul\":6773:6778   */\n      dup2\n        /* \"#utility.yul\":6758:6779   */\n      tag_107\n      jump\t// in\n    tag_205:\n        /* \"#utility.yul\":6751:6756   */\n      dup2\n        /* \"#utility.yul\":6748:6780   */\n      eq\n        /* \"#utility.yul\":6738:6798   */\n      tag_206\n      jumpi\n        /* \"#utility.yul\":6794:6795   */\n      0x00\n        /* \"#utility.yul\":6791:6792   */\n      dup1\n        /* \"#utility.yul\":6784:6796   */\n      revert\n        /* \"#utility.yul\":6738:6798   */\n    tag_206:\n        /* \"#utility.yul\":6688:6804   */\n      pop\n      jump\t// out\n        /* \"#utility.yul\":6810:6947   */\n    tag_109:\n        /* \"#utility.yul\":6864:6869   */\n      0x00\n        /* \"#utility.yul\":6895:6901   */\n      dup2\n        /* \"#utility.yul\":6889:6902   */\n      mload\n        /* \"#utility.yul\":6880:6902   */\n      swap1\n      pop\n        /* \"#utility.yul\":6911:6941   */\n      tag_208\n        /* \"#utility.yul\":6935:6940   */\n      dup2\n        /* \"#utility.yul\":6911:6941   */\n      tag_108\n      jump\t// in\n    tag_208:\n        /* \"#utility.yul\":6810:6947   */\n      swap3\n      swap2\n      pop\n      pop\n      jump\t// out\n        /* \"#utility.yul\":6953:7298   */\n    tag_36:\n        /* \"#utility.yul\":7020:7026   */\n      0x00\n        /* \"#utility.yul\":7069:7071   */\n      0x20\n        /* \"#utility.yul\":7057:7066   */\n      dup3\n        /* \"#utility.yul\":7048:7055   */\n      dup5\n        /* \"#utility.yul\":7044:7067   */\n      sub\n        /* \"#utility.yul\":7040:7072   */\n      slt\n        /* \"#utility.yul\":7037:7156   */\n      iszero\n      tag_210\n      jumpi\n        /* \"#utility.yul\":7075:7154   */\n      tag_211\n      tag_92\n      jump\t// in\n    tag_211:\n        /* \"#utility.yul\":7037:7156   */\n    tag_210:\n        /* \"#utility.yul\":7195:7196   */\n      0x00\n        /* \"#utility.yul\":7220:7281   */\n      tag_212\n        /* \"#utility.yul\":7273:7280   */\n      dup5\n        /* \"#utility.yul\":7264:7270   */\n      dup3\n        /* \"#utility.yul\":7253:7262   */\n      dup6\n        /* \"#utility.yul\":7249:7271   */\n      add\n        /* \"#utility.yul\":7220:7281   */\n      tag_109\n      jump\t// in\n    tag_212:\n        /* \"#utility.yul\":7210:7281   */\n      swap2\n      pop\n        /* \"#utility.yul\":7166:7291   */\n      pop\n        /* \"#utility.yul\":6953:7298   */\n      swap3\n      swap2\n      pop\n      pop\n      jump\t// out\n        /* \"#utility.yul\":7304:7469   */\n    tag_110:\n        /* \"#utility.yul\":7444:7461   */\n      0x417070726f76616c206661696c65640000000000000000000000000000000000\n        /* \"#utility.yul\":7440:7441   */\n      0x00\n        /* \"#utility.yul\":7432:7438   */\n      dup3\n        /* \"#utility.yul\":7428:7442   */\n      add\n        /* \"#utility.yul\":7421:7462   */\n      mstore\n        /* \"#utility.yul\":7304:7469   */\n      pop\n      jump\t// out\n        /* \"#utility.yul\":7475:7841   */\n    tag_111:\n        /* \"#utility.yul\":7617:7620   */\n      0x00\n        /* \"#utility.yul\":7638:7705   */\n      tag_215\n        /* \"#utility.yul\":7702:7704   */\n      0x0f\n        /* \"#utility.yul\":7697:7700   */\n      dup4\n        /* \"#utility.yul\":7638:7705   */\n      tag_101\n      jump\t// in\n    tag_215:\n        /* \"#utility.yul\":7631:7705   */\n      swap2\n      pop\n        /* \"#utility.yul\":7714:7807   */\n      tag_216\n        /* \"#utility.yul\":7803:7806   */\n      dup3\n        /* \"#utility.yul\":7714:7807   */\n      tag_110\n      jump\t// in\n    tag_216:\n        /* \"#utility.yul\":7832:7834   */\n      0x20\n        /* \"#utility.yul\":7827:7830   */\n      dup3\n        /* \"#utility.yul\":7823:7835   */\n      add\n        /* \"#utility.yul\":7816:7835   */\n      swap1\n      pop\n        /* \"#utility.yul\":7475:7841   */\n      swap2\n      swap1\n      pop\n      jump\t// out\n        /* \"#utility.yul\":7847:8266   */\n    tag_39:\n        /* \"#utility.yul\":8013:8017   */\n      0x00\n        /* \"#utility.yul\":8051:8053   */\n      0x20\n        /* \"#utility.yul\":8040:8049   */\n      dup3\n        /* \"#utility.yul\":8036:8054   */\n      add\n        /* \"#utility.yul\":8028:8054   */\n      swap1\n      pop\n        /* \"#utility.yul\":8100:8109   */\n      dup2\n        /* \"#utility.yul\":8094:8098   */\n      dup2\n        /* \"#utility.yul\":8090:8110   */\n      sub\n        /* \"#utility.yul\":8086:8087   */\n      0x00\n        /* \"#utility.yul\":8075:8084   */\n      dup4\n        /* \"#utility.yul\":8071:8088   */\n      add\n        /* \"#utility.yul\":8064:8111   */\n      mstore\n        /* \"#utility.yul\":8128:8259   */\n      tag_218\n        /* \"#utility.yul\":8254:8258   */\n      dup2\n        /* \"#utility.yul\":8128:8259   */\n      tag_111\n      jump\t// in\n    tag_218:\n        /* \"#utility.yul\":8120:8259   */\n      swap1\n      pop\n        /* \"#utility.yul\":7847:8266   */\n      swap2\n      swap1\n      pop\n      jump\t// out\n        /* \"#utility.yul\":8272:8456   */\n    tag_112:\n        /* \"#utility.yul\":8371:8382   */\n      0x00\n        /* \"#utility.yul\":8405:8411   */\n      dup3\n        /* \"#utility.yul\":8400:8403   */\n      dup3\n        /* \"#utility.yul\":8393:8412   */\n      mstore\n        /* \"#utility.yul\":8445:8449   */\n      0x20\n        /* \"#utility.yul\":8440:8443   */\n      dup3\n        /* \"#utility.yul\":8436:8450   */\n      add\n        /* \"#utility.yul\":8421:8450   */\n      swap1\n      pop\n        /* \"#utility.yul\":8272:8456   */\n      swap3\n      swap2\n      pop\n      pop\n      jump\t// out\n        /* \"#utility.yul\":8462:8564   */\n    tag_113:\n        /* \"#utility.yul\":8531:8535   */\n      0x00\n        /* \"#utility.yul\":8554:8557   */\n      dup2\n        /* \"#utility.yul\":8546:8557   */\n      swap1\n      pop\n        /* \"#utility.yul\":8462:8564   */\n      swap2\n      swap1\n      pop\n      jump\t// out\n        /* \"#utility.yul\":8570:8678   */\n    tag_114:\n        /* \"#utility.yul\":8647:8671   */\n      tag_222\n        /* \"#utility.yul\":8665:8670   */\n      dup2\n        /* \"#utility.yul\":8647:8671   */\n      tag_89\n      jump\t// in\n    tag_222:\n        /* \"#utility.yul\":8642:8645   */\n      dup3\n        /* \"#utility.yul\":8635:8672   */\n      mstore\n        /* \"#utility.yul\":8570:8678   */\n      pop\n      pop\n      jump\t// out\n        /* \"#utility.yul\":8684:8863   */\n    tag_115:\n        /* \"#utility.yul\":8753:8763   */\n      0x00\n        /* \"#utility.yul\":8774:8820   */\n      tag_224\n        /* \"#utility.yul\":8816:8819   */\n      dup4\n        /* \"#utility.yul\":8808:8814   */\n      dup4\n        /* \"#utility.yul\":8774:8820   */\n      tag_114\n      jump\t// in\n    tag_224:\n        /* \"#utility.yul\":8852:8856   */\n      0x20\n        /* \"#utility.yul\":8847:8850   */\n      dup4\n        /* \"#utility.yul\":8843:8857   */\n      add\n        /* \"#utility.yul\":8829:8857   */\n      swap1\n      pop\n        /* \"#utility.yul\":8684:8863   */\n      swap3\n      swap2\n      pop\n      pop\n      jump\t// out\n        /* \"#utility.yul\":8869:8991   */\n    tag_116:\n        /* \"#utility.yul\":8921:8926   */\n      0x00\n        /* \"#utility.yul\":8946:8985   */\n      tag_226\n        /* \"#utility.yul\":8981:8983   */\n      0x20\n        /* \"#utility.yul\":8976:8979   */\n      dup5\n        /* \"#utility.yul\":8972:8984   */\n      add\n        /* \"#utility.yul\":8967:8970   */\n      dup5\n        /* \"#utility.yul\":8946:8985   */\n      tag_105\n      jump\t// in\n    tag_226:\n        /* \"#utility.yul\":8937:8985   */\n      swap1\n      pop\n        /* \"#utility.yul\":8869:8991   */\n      swap3\n      swap2\n      pop\n      pop\n      jump\t// out\n        /* \"#utility.yul\":8997:9112   */\n    tag_117:\n        /* \"#utility.yul\":9069:9073   */\n      0x00\n        /* \"#utility.yul\":9101:9105   */\n      0x20\n        /* \"#utility.yul\":9096:9099   */\n      dup3\n        /* \"#utility.yul\":9092:9106   */\n      add\n        /* \"#utility.yul\":9084:9106   */\n      swap1\n      pop\n        /* \"#utility.yul\":8997:9112   */\n      swap2\n      swap1\n      pop\n      jump\t// out\n        /* \"#utility.yul\":9148:9847   */\n    tag_118:\n        /* \"#utility.yul\":9277:9280   */\n      0x00\n        /* \"#utility.yul\":9300:9386   */\n      tag_229\n        /* \"#utility.yul\":9379:9385   */\n      dup4\n        /* \"#utility.yul\":9374:9377   */\n      dup6\n        /* \"#utility.yul\":9300:9386   */\n      tag_112\n      jump\t// in\n    tag_229:\n        /* \"#utility.yul\":9293:9386   */\n      swap4\n      pop\n        /* \"#utility.yul\":9410:9468   */\n      tag_230\n        /* \"#utility.yul\":9462:9467   */\n      dup3\n        /* \"#utility.yul\":9410:9468   */\n      tag_113\n      jump\t// in\n    tag_230:\n        /* \"#utility.yul\":9491:9498   */\n      dup1\n        /* \"#utility.yul\":9522:9523   */\n      0x00\n        /* \"#utility.yul\":9507:9822   */\n    tag_231:\n        /* \"#utility.yul\":9532:9538   */\n      dup6\n        /* \"#utility.yul\":9529:9530   */\n      dup2\n        /* \"#utility.yul\":9526:9539   */\n      lt\n        /* \"#utility.yul\":9507:9822   */\n      iszero\n      tag_233\n      jumpi\n        /* \"#utility.yul\":9602:9644   */\n      tag_234\n        /* \"#utility.yul\":9637:9643   */\n      dup3\n        /* \"#utility.yul\":9628:9635   */\n      dup5\n        /* \"#utility.yul\":9602:9644   */\n      tag_116\n      jump\t// in\n    tag_234:\n        /* \"#utility.yul\":9664:9727   */\n      tag_235\n        /* \"#utility.yul\":9723:9726   */\n      dup9\n        /* \"#utility.yul\":9708:9721   */\n      dup3\n        /* \"#utility.yul\":9664:9727   */\n      tag_115\n      jump\t// in\n    tag_235:\n        /* \"#utility.yul\":9657:9727   */\n      swap8\n      pop\n        /* \"#utility.yul\":9750:9812   */\n      tag_236\n        /* \"#utility.yul\":9805:9811   */\n      dup4\n        /* \"#utility.yul\":9750:9812   */\n      tag_117\n      jump\t// in\n    tag_236:\n        /* \"#utility.yul\":9740:9812   */\n      swap3\n      pop\n        /* \"#utility.yul\":9567:9822   */\n      pop\n        /* \"#utility.yul\":9554:9555   */\n      0x01\n        /* \"#utility.yul\":9551:9552   */\n      dup2\n        /* \"#utility.yul\":9547:9556   */\n      add\n        /* \"#utility.yul\":9542:9556   */\n      swap1\n      pop\n        /* \"#utility.yul\":9507:9822   */\n      jump(tag_231)\n    tag_233:\n        /* \"#utility.yul\":9511:9525   */\n      pop\n        /* \"#utility.yul\":9838:9841   */\n      dup6\n        /* \"#utility.yul\":9831:9841   */\n      swap3\n      pop\n        /* \"#utility.yul\":9282:9847   */\n      pop\n      pop\n        /* \"#utility.yul\":9148:9847   */\n      swap4\n      swap3\n      pop\n      pop\n      pop\n      jump\t// out\n        /* \"#utility.yul\":9853:10688   */\n    tag_41:\n        /* \"#utility.yul\":10118:10122   */\n      0x00\n        /* \"#utility.yul\":10156:10159   */\n      0xa0\n        /* \"#utility.yul\":10145:10154   */\n      dup3\n        /* \"#utility.yul\":10141:10160   */\n      add\n        /* \"#utility.yul\":10133:10160   */\n      swap1\n      pop\n        /* \"#utility.yul\":10170:10241   */\n      tag_238\n        /* \"#utility.yul\":10238:10239   */\n      0x00\n        /* \"#utility.yul\":10227:10236   */\n      dup4\n        /* \"#utility.yul\":10223:10240   */\n      add\n        /* \"#utility.yul\":10214:10220   */\n      dup10\n        /* \"#utility.yul\":10170:10241   */\n      tag_106\n      jump\t// in\n    tag_238:\n        /* \"#utility.yul\":10251:10323   */\n      tag_239\n        /* \"#utility.yul\":10319:10321   */\n      0x20\n        /* \"#utility.yul\":10308:10317   */\n      dup4\n        /* \"#utility.yul\":10304:10322   */\n      add\n        /* \"#utility.yul\":10295:10301   */\n      dup9\n        /* \"#utility.yul\":10251:10323   */\n      tag_106\n      jump\t// in\n    tag_239:\n        /* \"#utility.yul\":10370:10379   */\n      dup2\n        /* \"#utility.yul\":10364:10368   */\n      dup2\n        /* \"#utility.yul\":10360:10380   */\n      sub\n        /* \"#utility.yul\":10355:10357   */\n      0x40\n        /* \"#utility.yul\":10344:10353   */\n      dup4\n        /* \"#utility.yul\":10340:10358   */\n      add\n        /* \"#utility.yul\":10333:10381   */\n      mstore\n        /* \"#utility.yul\":10398:10516   */\n      tag_240\n        /* \"#utility.yul\":10511:10515   */\n      dup2\n        /* \"#utility.yul\":10502:10508   */\n      dup7\n        /* \"#utility.yul\":10494:10500   */\n      dup9\n        /* \"#utility.yul\":10398:10516   */\n      tag_118\n      jump\t// in\n    tag_240:\n        /* \"#utility.yul\":10390:10516   */\n      swap1\n      pop\n        /* \"#utility.yul\":10526:10598   */\n      tag_241\n        /* \"#utility.yul\":10594:10596   */\n      0x60\n        /* \"#utility.yul\":10583:10592   */\n      dup4\n        /* \"#utility.yul\":10579:10597   */\n      add\n        /* \"#utility.yul\":10570:10576   */\n      dup6\n        /* \"#utility.yul\":10526:10598   */\n      tag_90\n      jump\t// in\n    tag_241:\n        /* \"#utility.yul\":10608:10681   */\n      tag_242\n        /* \"#utility.yul\":10676:10679   */\n      0x80\n        /* \"#utility.yul\":10665:10674   */\n      dup4\n        /* \"#utility.yul\":10661:10680   */\n      add\n        /* \"#utility.yul\":10652:10658   */\n      dup5\n        /* \"#utility.yul\":10608:10681   */\n      tag_106\n      jump\t// in\n    tag_242:\n        /* \"#utility.yul\":9853:10688   */\n      swap8\n      swap7\n      pop\n      pop\n      pop\n      pop\n      pop\n      pop\n      pop\n      jump\t// out\n        /* \"#utility.yul\":10694:10796   */\n    tag_119:\n        /* \"#utility.yul\":10735:10741   */\n      0x00\n        /* \"#utility.yul\":10786:10788   */\n      0x1f\n        /* \"#utility.yul\":10782:10789   */\n      not\n        /* \"#utility.yul\":10777:10779   */\n      0x1f\n        /* \"#utility.yul\":10770:10775   */\n      dup4\n        /* \"#utility.yul\":10766:10780   */\n      add\n        /* \"#utility.yul\":10762:10790   */\n      and\n        /* \"#utility.yul\":10752:10790   */\n      swap1\n      pop\n        /* \"#utility.yul\":10694:10796   */\n      swap2\n      swap1\n      pop\n      jump\t// out\n        /* \"#utility.yul\":10802:10982   */\n    tag_120:\n        /* \"#utility.yul\":10850:10927   */\n      0x4e487b7100000000000000000000000000000000000000000000000000000000\n        /* \"#utility.yul\":10847:10848   */\n      0x00\n        /* \"#utility.yul\":10840:10928   */\n      mstore\n        /* \"#utility.yul\":10947:10951   */\n      0x41\n        /* \"#utility.yul\":10944:10945   */\n      0x04\n        /* \"#utility.yul\":10937:10952   */\n      mstore\n        /* \"#utility.yul\":10971:10975   */\n      0x24\n        /* \"#utility.yul\":10968:10969   */\n      0x00\n        /* \"#utility.yul\":10961:10976   */\n      revert\n        /* \"#utility.yul\":10988:11269   */\n    tag_121:\n        /* \"#utility.yul\":11071:11098   */\n      tag_246\n        /* \"#utility.yul\":11093:11097   */\n      dup3\n        /* \"#utility.yul\":11071:11098   */\n      tag_119\n      jump\t// in\n    tag_246:\n        /* \"#utility.yul\":11063:11069   */\n      dup2\n        /* \"#utility.yul\":11059:11099   */\n      add\n        /* \"#utility.yul\":11201:11207   */\n      dup2\n        /* \"#utility.yul\":11189:11199   */\n      dup2\n        /* \"#utility.yul\":11186:11208   */\n      lt\n        /* \"#utility.yul\":11165:11183   */\n      0xffffffffffffffff\n        /* \"#utility.yul\":11153:11163   */\n      dup3\n        /* \"#utility.yul\":11150:11184   */\n      gt\n        /* \"#utility.yul\":11147:11209   */\n      or\n        /* \"#utility.yul\":11144:11232   */\n      iszero\n      tag_247\n      jumpi\n        /* \"#utility.yul\":11212:11230   */\n      tag_248\n      tag_120\n      jump\t// in\n    tag_248:\n        /* \"#utility.yul\":11144:11232   */\n    tag_247:\n        /* \"#utility.yul\":11252:11262   */\n      dup1\n        /* \"#utility.yul\":11248:11250   */\n      0x40\n        /* \"#utility.yul\":11241:11263   */\n      mstore\n        /* \"#utility.yul\":11031:11269   */\n      pop\n        /* \"#utility.yul\":10988:11269   */\n      pop\n      pop\n      jump\t// out\n        /* \"#utility.yul\":11275:11404   */\n    tag_122:\n        /* \"#utility.yul\":11309:11315   */\n      0x00\n        /* \"#utility.yul\":11336:11356   */\n      tag_250\n      tag_91\n      jump\t// in\n    tag_250:\n        /* \"#utility.yul\":11326:11356   */\n      swap1\n      pop\n        /* \"#utility.yul\":11365:11398   */\n      tag_251\n        /* \"#utility.yul\":11393:11397   */\n      dup3\n        /* \"#utility.yul\":11385:11391   */\n      dup3\n        /* \"#utility.yul\":11365:11398   */\n      tag_121\n      jump\t// in\n    tag_251:\n        /* \"#utility.yul\":11275:11404   */\n      swap2\n      swap1\n      pop\n      jump\t// out\n        /* \"#utility.yul\":11410:11721   */\n    tag_123:\n        /* \"#utility.yul\":11487:11491   */\n      0x00\n        /* \"#utility.yul\":11577:11595   */\n      0xffffffffffffffff\n        /* \"#utility.yul\":11569:11575   */\n      dup3\n        /* \"#utility.yul\":11566:11596   */\n      gt\n        /* \"#utility.yul\":11563:11619   */\n      iszero\n      tag_253\n      jumpi\n        /* \"#utility.yul\":11599:11617   */\n      tag_254\n      tag_120\n      jump\t// in\n    tag_254:\n        /* \"#utility.yul\":11563:11619   */\n    tag_253:\n        /* \"#utility.yul\":11649:11653   */\n      0x20\n        /* \"#utility.yul\":11641:11647   */\n      dup3\n        /* \"#utility.yul\":11637:11654   */\n      mul\n        /* \"#utility.yul\":11629:11654   */\n      swap1\n      pop\n        /* \"#utility.yul\":11709:11713   */\n      0x20\n        /* \"#utility.yul\":11703:11707   */\n      dup2\n        /* \"#utility.yul\":11699:11714   */\n      add\n        /* \"#utility.yul\":11691:11714   */\n      swap1\n      pop\n        /* \"#utility.yul\":11410:11721   */\n      swap2\n      swap1\n      pop\n      jump\t// out\n        /* \"#utility.yul\":11727:11870   */\n    tag_124:\n        /* \"#utility.yul\":11784:11789   */\n      0x00\n        /* \"#utility.yul\":11815:11821   */\n      dup2\n        /* \"#utility.yul\":11809:11822   */\n      mload\n        /* \"#utility.yul\":11800:11822   */\n      swap1\n      pop\n        /* \"#utility.yul\":11831:11864   */\n      tag_256\n        /* \"#utility.yul\":11858:11863   */\n      dup2\n        /* \"#utility.yul\":11831:11864   */\n      tag_95\n      jump\t// in\n    tag_256:\n        /* \"#utility.yul\":11727:11870   */\n      swap3\n      swap2\n      pop\n      pop\n      jump\t// out\n        /* \"#utility.yul\":11893:12625   */\n    tag_125:\n        /* \"#utility.yul\":12000:12005   */\n      0x00\n        /* \"#utility.yul\":12025:12106   */\n      tag_258\n        /* \"#utility.yul\":12041:12105   */\n      tag_259\n        /* \"#utility.yul\":12098:12104   */\n      dup5\n        /* \"#utility.yul\":12041:12105   */\n      tag_123\n      jump\t// in\n    tag_259:\n        /* \"#utility.yul\":12025:12106   */\n      tag_122\n      jump\t// in\n    tag_258:\n        /* \"#utility.yul\":12016:12106   */\n      swap1\n      pop\n        /* \"#utility.yul\":12126:12131   */\n      dup1\n        /* \"#utility.yul\":12155:12161   */\n      dup4\n        /* \"#utility.yul\":12148:12153   */\n      dup3\n        /* \"#utility.yul\":12141:12162   */\n      mstore\n        /* \"#utility.yul\":12189:12193   */\n      0x20\n        /* \"#utility.yul\":12182:12187   */\n      dup3\n        /* \"#utility.yul\":12178:12194   */\n      add\n        /* \"#utility.yul\":12171:12194   */\n      swap1\n      pop\n        /* \"#utility.yul\":12242:12246   */\n      0x20\n        /* \"#utility.yul\":12234:12240   */\n      dup5\n        /* \"#utility.yul\":12230:12247   */\n      mul\n        /* \"#utility.yul\":12222:12228   */\n      dup4\n        /* \"#utility.yul\":12218:12248   */\n      add\n        /* \"#utility.yul\":12271:12274   */\n      dup6\n        /* \"#utility.yul\":12263:12269   */\n      dup2\n        /* \"#utility.yul\":12260:12275   */\n      gt\n        /* \"#utility.yul\":12257:12379   */\n      iszero\n      tag_260\n      jumpi\n        /* \"#utility.yul\":12290:12369   */\n      tag_261\n      tag_99\n      jump\t// in\n    tag_261:\n        /* \"#utility.yul\":12257:12379   */\n    tag_260:\n        /* \"#utility.yul\":12405:12411   */\n      dup4\n        /* \"#utility.yul\":12388:12619   */\n    tag_262:\n        /* \"#utility.yul\":12422:12428   */\n      dup2\n        /* \"#utility.yul\":12417:12420   */\n      dup2\n        /* \"#utility.yul\":12414:12429   */\n      lt\n        /* \"#utility.yul\":12388:12619   */\n      iszero\n      tag_264\n      jumpi\n        /* \"#utility.yul\":12497:12500   */\n      dup1\n        /* \"#utility.yul\":12526:12574   */\n      tag_265\n        /* \"#utility.yul\":12570:12573   */\n      dup9\n        /* \"#utility.yul\":12558:12568   */\n      dup3\n        /* \"#utility.yul\":12526:12574   */\n      tag_124\n      jump\t// in\n    tag_265:\n        /* \"#utility.yul\":12521:12524   */\n      dup5\n        /* \"#utility.yul\":12514:12575   */\n      mstore\n        /* \"#utility.yul\":12604:12608   */\n      0x20\n        /* \"#utility.yul\":12599:12602   */\n      dup5\n        /* \"#utility.yul\":12595:12609   */\n      add\n        /* \"#utility.yul\":12588:12609   */\n      swap4\n      pop\n        /* \"#utility.yul\":12464:12619   */\n      pop\n        /* \"#utility.yul\":12448:12452   */\n      0x20\n        /* \"#utility.yul\":12443:12446   */\n      dup2\n        /* \"#utility.yul\":12439:12453   */\n      add\n        /* \"#utility.yul\":12432:12453   */\n      swap1\n      pop\n        /* \"#utility.yul\":12388:12619   */\n      jump(tag_262)\n    tag_264:\n        /* \"#utility.yul\":12392:12413   */\n      pop\n        /* \"#utility.yul\":12006:12625   */\n      pop\n      pop\n        /* \"#utility.yul\":11893:12625   */\n      swap4\n      swap3\n      pop\n      pop\n      pop\n      jump\t// out\n        /* \"#utility.yul\":12648:13033   */\n    tag_126:\n        /* \"#utility.yul\":12730:12735   */\n      0x00\n        /* \"#utility.yul\":12779:12782   */\n      dup3\n        /* \"#utility.yul\":12772:12776   */\n      0x1f\n        /* \"#utility.yul\":12764:12770   */\n      dup4\n        /* \"#utility.yul\":12760:12777   */\n      add\n        /* \"#utility.yul\":12756:12783   */\n      slt\n        /* \"#utility.yul\":12746:12868   */\n      tag_267\n      jumpi\n        /* \"#utility.yul\":12787:12866   */\n      tag_268\n      tag_97\n      jump\t// in\n    tag_268:\n        /* \"#utility.yul\":12746:12868   */\n    tag_267:\n        /* \"#utility.yul\":12897:12903   */\n      dup2\n        /* \"#utility.yul\":12891:12904   */\n      mload\n        /* \"#utility.yul\":12922:13027   */\n      tag_269\n        /* \"#utility.yul\":13023:13026   */\n      dup5\n        /* \"#utility.yul\":13015:13021   */\n      dup3\n        /* \"#utility.yul\":13008:13012   */\n      0x20\n        /* \"#utility.yul\":13000:13006   */\n      dup7\n        /* \"#utility.yul\":12996:13013   */\n      add\n        /* \"#utility.yul\":12922:13027   */\n      tag_125\n      jump\t// in\n    tag_269:\n        /* \"#utility.yul\":12913:13027   */\n      swap2\n      pop\n        /* \"#utility.yul\":12736:13033   */\n      pop\n        /* \"#utility.yul\":12648:13033   */\n      swap3\n      swap2\n      pop\n      pop\n      jump\t// out\n        /* \"#utility.yul\":13039:13593   */\n    tag_45:\n        /* \"#utility.yul\":13134:13140   */\n      0x00\n        /* \"#utility.yul\":13183:13185   */\n      0x20\n        /* \"#utility.yul\":13171:13180   */\n      dup3\n        /* \"#utility.yul\":13162:13169   */\n      dup5\n        /* \"#utility.yul\":13158:13181   */\n      sub\n        /* \"#utility.yul\":13154:13186   */\n      slt\n        /* \"#utility.yul\":13151:13270   */\n      iszero\n      tag_271\n      jumpi\n        /* \"#utility.yul\":13189:13268   */\n      tag_272\n      tag_92\n      jump\t// in\n    tag_272:\n        /* \"#utility.yul\":13151:13270   */\n    tag_271:\n        /* \"#utility.yul\":13330:13331   */\n      0x00\n        /* \"#utility.yul\":13319:13328   */\n      dup3\n        /* \"#utility.yul\":13315:13332   */\n      add\n        /* \"#utility.yul\":13309:13333   */\n      mload\n        /* \"#utility.yul\":13360:13378   */\n      0xffffffffffffffff\n        /* \"#utility.yul\":13352:13358   */\n      dup2\n        /* \"#utility.yul\":13349:13379   */\n      gt\n        /* \"#utility.yul\":13346:13463   */\n      iszero\n      tag_273\n      jumpi\n        /* \"#utility.yul\":13382:13461   */\n      tag_274\n      tag_93\n      jump\t// in\n    tag_274:\n        /* \"#utility.yul\":13346:13463   */\n    tag_273:\n        /* \"#utility.yul\":13487:13576   */\n      tag_275\n        /* \"#utility.yul\":13568:13575   */\n      dup5\n        /* \"#utility.yul\":13559:13565   */\n      dup3\n        /* \"#utility.yul\":13548:13557   */\n      dup6\n        /* \"#utility.yul\":13544:13566   */\n      add\n        /* \"#utility.yul\":13487:13576   */\n      tag_126\n      jump\t// in\n    tag_275:\n        /* \"#utility.yul\":13477:13576   */\n      swap2\n      pop\n        /* \"#utility.yul\":13280:13586   */\n      pop\n        /* \"#utility.yul\":13039:13593   */\n      swap3\n      swap2\n      pop\n      pop\n      jump\t// out\n        /* \"#utility.yul\":13599:13760   */\n    tag_127:\n        /* \"#utility.yul\":13739:13752   */\n      0x53776170206661696c6564000000000000000000000000000000000000000000\n        /* \"#utility.yul\":13735:13736   */\n      0x00\n        /* \"#utility.yul\":13727:13733   */\n      dup3\n        /* \"#utility.yul\":13723:13737   */\n      add\n        /* \"#utility.yul\":13716:13753   */\n      mstore\n        /* \"#utility.yul\":13599:13760   */\n      pop\n      jump\t// out\n        /* \"#utility.yul\":13766:14132   */\n    tag_128:\n        /* \"#utility.yul\":13908:13911   */\n      0x00\n        /* \"#utility.yul\":13929:13996   */\n      tag_278\n        /* \"#utility.yul\":13993:13995   */\n      0x0b\n        /* \"#utility.yul\":13988:13991   */\n      dup4\n        /* \"#utility.yul\":13929:13996   */\n      tag_101\n      jump\t// in\n    tag_278:\n        /* \"#utility.yul\":13922:13996   */\n      swap2\n      pop\n        /* \"#utility.yul\":14005:14098   */\n      tag_279\n        /* \"#utility.yul\":14094:14097   */\n      dup3\n        /* \"#utility.yul\":14005:14098   */\n      tag_127\n      jump\t// in\n    tag_279:\n        /* \"#utility.yul\":14123:14125   */\n      0x20\n        /* \"#utility.yul\":14118:14121   */\n      dup3\n        /* \"#utility.yul\":14114:14126   */\n      add\n        /* \"#utility.yul\":14107:14126   */\n      swap1\n      pop\n        /* \"#utility.yul\":13766:14132   */\n      swap2\n      swap1\n      pop\n      jump\t// out\n        /* \"#utility.yul\":14138:14557   */\n    tag_51:\n        /* \"#utility.yul\":14304:14308   */\n      0x00\n        /* \"#utility.yul\":14342:14344   */\n      0x20\n        /* \"#utility.yul\":14331:14340   */\n      dup3\n        /* \"#utility.yul\":14327:14345   */\n      add\n        /* \"#utility.yul\":14319:14345   */\n      swap1\n      pop\n        /* \"#utility.yul\":14391:14400   */\n      dup2\n        /* \"#utility.yul\":14385:14389   */\n      dup2\n        /* \"#utility.yul\":14381:14401   */\n      sub\n        /* \"#utility.yul\":14377:14378   */\n      0x00\n        /* \"#utility.yul\":14366:14375   */\n      dup4\n        /* \"#utility.yul\":14362:14379   */\n      add\n        /* \"#utility.yul\":14355:14402   */\n      mstore\n        /* \"#utility.yul\":14419:14550   */\n      tag_281\n        /* \"#utility.yul\":14545:14549   */\n      dup2\n        /* \"#utility.yul\":14419:14550   */\n      tag_128\n      jump\t// in\n    tag_281:\n        /* \"#utility.yul\":14411:14550   */\n      swap1\n      pop\n        /* \"#utility.yul\":14138:14557   */\n      swap2\n      swap1\n      pop\n      jump\t// out\n        /* \"#utility.yul\":14563:14743   */\n    tag_129:\n        /* \"#utility.yul\":14611:14688   */\n      0x4e487b7100000000000000000000000000000000000000000000000000000000\n        /* \"#utility.yul\":14608:14609   */\n      0x00\n        /* \"#utility.yul\":14601:14689   */\n      mstore\n        /* \"#utility.yul\":14708:14712   */\n      0x11\n        /* \"#utility.yul\":14705:14706   */\n      0x04\n        /* \"#utility.yul\":14698:14713   */\n      mstore\n        /* \"#utility.yul\":14732:14736   */\n      0x24\n        /* \"#utility.yul\":14729:14730   */\n      0x00\n        /* \"#utility.yul\":14722:14737   */\n      revert\n        /* \"#utility.yul\":14749:14943   */\n    tag_53:\n        /* \"#utility.yul\":14789:14793   */\n      0x00\n        /* \"#utility.yul\":14809:14829   */\n      tag_284\n        /* \"#utility.yul\":14827:14828   */\n      dup3\n        /* \"#utility.yul\":14809:14829   */\n      tag_94\n      jump\t// in\n    tag_284:\n        /* \"#utility.yul\":14804:14829   */\n      swap2\n      pop\n        /* \"#utility.yul\":14843:14863   */\n      tag_285\n        /* \"#utility.yul\":14861:14862   */\n      dup4\n        /* \"#utility.yul\":14843:14863   */\n      tag_94\n      jump\t// in\n    tag_285:\n        /* \"#utility.yul\":14838:14863   */\n      swap3\n      pop\n        /* \"#utility.yul\":14887:14888   */\n      dup3\n        /* \"#utility.yul\":14884:14885   */\n      dup3\n        /* \"#utility.yul\":14880:14889   */\n      sub\n        /* \"#utility.yul\":14872:14889   */\n      swap1\n      pop\n        /* \"#utility.yul\":14911:14912   */\n      dup2\n        /* \"#utility.yul\":14905:14909   */\n      dup2\n        /* \"#utility.yul\":14902:14913   */\n      gt\n        /* \"#utility.yul\":14899:14936   */\n      iszero\n      tag_286\n      jumpi\n        /* \"#utility.yul\":14916:14934   */\n      tag_287\n      tag_129\n      jump\t// in\n    tag_287:\n        /* \"#utility.yul\":14899:14936   */\n    tag_286:\n        /* \"#utility.yul\":14749:14943   */\n      swap3\n      swap2\n      pop\n      pop\n      jump\t// out\n        /* \"#utility.yul\":14949:15300   */\n    tag_61:\n        /* \"#utility.yul\":15019:15025   */\n      0x00\n        /* \"#utility.yul\":15068:15070   */\n      0x20\n        /* \"#utility.yul\":15056:15065   */\n      dup3\n        /* \"#utility.yul\":15047:15054   */\n      dup5\n        /* \"#utility.yul\":15043:15066   */\n      sub\n        /* \"#utility.yul\":15039:15071   */\n      slt\n        /* \"#utility.yul\":15036:15155   */\n      iszero\n      tag_289\n      jumpi\n        /* \"#utility.yul\":15074:15153   */\n      tag_290\n      tag_92\n      jump\t// in\n    tag_290:\n        /* \"#utility.yul\":15036:15155   */\n    tag_289:\n        /* \"#utility.yul\":15194:15195   */\n      0x00\n        /* \"#utility.yul\":15219:15283   */\n      tag_291\n        /* \"#utility.yul\":15275:15282   */\n      dup5\n        /* \"#utility.yul\":15266:15272   */\n      dup3\n        /* \"#utility.yul\":15255:15264   */\n      dup6\n        /* \"#utility.yul\":15251:15273   */\n      add\n        /* \"#utility.yul\":15219:15283   */\n      tag_124\n      jump\t// in\n    tag_291:\n        /* \"#utility.yul\":15209:15283   */\n      swap2\n      pop\n        /* \"#utility.yul\":15165:15293   */\n      pop\n        /* \"#utility.yul\":14949:15300   */\n      swap3\n      swap2\n      pop\n      pop\n      jump\t// out\n        /* \"#utility.yul\":15306:15487   */\n    tag_130:\n        /* \"#utility.yul\":15446:15479   */\n      0x5265656e7472616e637947756172643a207265656e7472616e742063616c6c00\n        /* \"#utility.yul\":15442:15443   */\n      0x00\n        /* \"#utility.yul\":15434:15440   */\n      dup3\n        /* \"#utility.yul\":15430:15444   */\n      add\n        /* \"#utility.yul\":15423:15480   */\n      mstore\n        /* \"#utility.yul\":15306:15487   */\n      pop\n      jump\t// out\n        /* \"#utility.yul\":15493:15859   */\n    tag_131:\n        /* \"#utility.yul\":15635:15638   */\n      0x00\n        /* \"#utility.yul\":15656:15723   */\n      tag_294\n        /* \"#utility.yul\":15720:15722   */\n      0x1f\n        /* \"#utility.yul\":15715:15718   */\n      dup4\n        /* \"#utility.yul\":15656:15723   */\n      tag_101\n      jump\t// in\n    tag_294:\n        /* \"#utility.yul\":15649:15723   */\n      swap2\n      pop\n        /* \"#utility.yul\":15732:15825   */\n      tag_295\n        /* \"#utility.yul\":15821:15824   */\n      dup3\n        /* \"#utility.yul\":15732:15825   */\n      tag_130\n      jump\t// in\n    tag_295:\n        /* \"#utility.yul\":15850:15852   */\n      0x20\n        /* \"#utility.yul\":15845:15848   */\n      dup3\n        /* \"#utility.yul\":15841:15853   */\n      add\n        /* \"#utility.yul\":15834:15853   */\n      swap1\n      pop\n        /* \"#utility.yul\":15493:15859   */\n      swap2\n      swap1\n      pop\n      jump\t// out\n        /* \"#utility.yul\":15865:16284   */\n    tag_81:\n        /* \"#utility.yul\":16031:16035   */\n      0x00\n        /* \"#utility.yul\":16069:16071   */\n      0x20\n        /* \"#utility.yul\":16058:16067   */\n      dup3\n        /* \"#utility.yul\":16054:16072   */\n      add\n        /* \"#utility.yul\":16046:16072   */\n      swap1\n      pop\n        /* \"#utility.yul\":16118:16127   */\n      dup2\n        /* \"#utility.yul\":16112:16116   */\n      dup2\n        /* \"#utility.yul\":16108:16128   */\n      sub\n        /* \"#utility.yul\":16104:16105   */\n      0x00\n        /* \"#utility.yul\":16093:16102   */\n      dup4\n        /* \"#utility.yul\":16089:16106   */\n      add\n        /* \"#utility.yul\":16082:16129   */\n      mstore\n        /* \"#utility.yul\":16146:16277   */\n      tag_297\n        /* \"#utility.yul\":16272:16276   */\n      dup2\n        /* \"#utility.yul\":16146:16277   */\n      tag_131\n      jump\t// in\n    tag_297:\n        /* \"#utility.yul\":16138:16277   */\n      swap1\n      pop\n        /* \"#utility.yul\":15865:16284   */\n      swap2\n      swap1\n      pop\n      jump\t// out\n\n    auxdata: 0xa26469706673582212202c7b96ed3b5459287c669ba4afd788ff18779ab6d66e0c0c516634a02379823164736f6c634300081a0033\n}\n",
				"bytecode": {
					"linkReferences": {},
					"object": "60c060405234801561000f575f80fd5b5060405161100c38038061100c83398181016040528101906100319190610104565b60015f819055508073ffffffffffffffffffffffffffffffffffffffff1660808173ffffffffffffffffffffffffffffffffffffffff16815250503373ffffffffffffffffffffffffffffffffffffffff1660a08173ffffffffffffffffffffffffffffffffffffffff16815250505061012f565b5f80fd5b5f73ffffffffffffffffffffffffffffffffffffffff82169050919050565b5f6100d3826100aa565b9050919050565b6100e3816100c9565b81146100ed575f80fd5b50565b5f815190506100fe816100da565b92915050565b5f60208284031215610119576101186100a6565b5b5f610126848285016100f0565b91505092915050565b60805160a051610eaa6101625f395f818160c1015260e501525f8181609d015281816101be015261027d0152610eaa5ff3fe608060405234801561000f575f80fd5b506004361061003f575f3560e01c8063735de9f7146100435780638da5cb5b14610061578063cdc9cf9e1461007f575b5f80fd5b61004b61009b565b60405161005891906106ed565b60405180910390f35b6100696100bf565b6040516100769190610726565b60405180910390f35b610099600480360381019061009491906107e4565b6100e3565b005b7f000000000000000000000000000000000000000000000000000000000000000081565b7f000000000000000000000000000000000000000000000000000000000000000081565b7f000000000000000000000000000000000000000000000000000000000000000073ffffffffffffffffffffffffffffffffffffffff163373ffffffffffffffffffffffffffffffffffffffff1614610171576040517f08c379a0000000000000000000000000000000000000000000000000000000008152600401610168906108c2565b60405180910390fd5b61017961061d565b82825f81811061018c5761018b6108e0565b5b90506020020160208101906101a19190610937565b73ffffffffffffffffffffffffffffffffffffffff1663095ea7b37f0000000000000000000000000000000000000000000000000000000000000000876040518363ffffffff1660e01b81526004016101fb929190610971565b6020604051808303815f875af1158015610217573d5f803e3d5ffd5b505050506040513d601f19601f8201168201806040525081019061023b91906109cd565b61027a576040517f08c379a000000000000000000000000000000000000000000000000000000000815260040161027190610a42565b60405180910390fd5b5f7f000000000000000000000000000000000000000000000000000000000000000073ffffffffffffffffffffffffffffffffffffffff166338ed17398787878730886040518763ffffffff1660e01b81526004016102de96959493929190610b1c565b5f604051808303815f875af11580156102f9573d5f803e3d5ffd5b505050506040513d5f823e3d601f19601f820116820180604052508101906103219190610cd2565b90505f815111801561034d575084815f81518110610342576103416108e0565b5b602002602001015110155b61038c576040517f08c379a000000000000000000000000000000000000000000000000000000000815260040161038390610d63565b60405180910390fd5b5f848460018787905061039f9190610dae565b8181106103af576103ae6108e0565b5b90506020020160208101906103c49190610937565b73ffffffffffffffffffffffffffffffffffffffff166370a08231306040518263ffffffff1660e01b81526004016103fc9190610726565b602060405180830381865afa158015610417573d5f803e3d5ffd5b505050506040513d601f19601f8201168201806040525081019061043b9190610de1565b9050848460018787905061044f9190610dae565b81811061045f5761045e6108e0565b5b90506020020160208101906104749190610937565b73ffffffffffffffffffffffffffffffffffffffff1663a9059cbb33836040518363ffffffff1660e01b81526004016104ae929190610971565b6020604051808303815f875af11580156104ca573d5f803e3d5ffd5b505050506040513d601f19601f820116820180604052508101906104ee91906109cd565b505f8783600185516105009190610dae565b81518110610511576105106108e0565b5b60200260200101516105239190610dae565b90503373ffffffffffffffffffffffffffffffffffffffff16817fd6a5b88b2c1c30ace19709265079d332f1dc1955fb28f437ece05f709b84734560405160405180910390a33373ffffffffffffffffffffffffffffffffffffffff16887fd6a5b88b2c1c30ace19709265079d332f1dc1955fb28f437ece05f709b84734560405160405180910390a33073ffffffffffffffffffffffffffffffffffffffff16835f815181106105d7576105d66108e0565b5b60200260200101517fd6a5b88b2c1c30ace19709265079d332f1dc1955fb28f437ece05f709b84734560405160405180910390a350505061061661066a565b5050505050565b60025f5403610661576040517f08c379a000000000000000000000000000000000000000000000000000000000815260040161065890610e56565b60405180910390fd5b60025f81905550565b60015f81905550565b5f73ffffffffffffffffffffffffffffffffffffffff82169050919050565b5f819050919050565b5f6106b56106b06106ab84610673565b610692565b610673565b9050919050565b5f6106c68261069b565b9050919050565b5f6106d7826106bc565b9050919050565b6106e7816106cd565b82525050565b5f6020820190506107005f8301846106de565b92915050565b5f61071082610673565b9050919050565b61072081610706565b82525050565b5f6020820190506107395f830184610717565b92915050565b5f604051905090565b5f80fd5b5f80fd5b5f819050919050565b61076281610750565b811461076c575f80fd5b50565b5f8135905061077d81610759565b92915050565b5f80fd5b5f80fd5b5f80fd5b5f8083601f8401126107a4576107a3610783565b5b8235905067ffffffffffffffff8111156107c1576107c0610787565b5b6020830191508360208202830111156107dd576107dc61078b565b5b9250929050565b5f805f805f608086880312156107fd576107fc610748565b5b5f61080a8882890161076f565b955050602061081b8882890161076f565b945050604086013567ffffffffffffffff81111561083c5761083b61074c565b5b6108488882890161078f565b9350935050606061085b8882890161076f565b9150509295509295909350565b5f82825260208201905092915050565b7f4e6f74206f776e657200000000000000000000000000000000000000000000005f82015250565b5f6108ac600983610868565b91506108b782610878565b602082019050919050565b5f6020820190508181035f8301526108d9816108a0565b9050919050565b7f4e487b71000000000000000000000000000000000000000000000000000000005f52603260045260245ffd5b61091681610706565b8114610920575f80fd5b50565b5f813590506109318161090d565b92915050565b5f6020828403121561094c5761094b610748565b5b5f61095984828501610923565b91505092915050565b61096b81610750565b82525050565b5f6040820190506109845f830185610717565b6109916020830184610962565b9392505050565b5f8115159050919050565b6109ac81610998565b81146109b6575f80fd5b50565b5f815190506109c7816109a3565b92915050565b5f602082840312156109e2576109e1610748565b5b5f6109ef848285016109b9565b91505092915050565b7f417070726f76616c206661696c656400000000000000000000000000000000005f82015250565b5f610a2c600f83610868565b9150610a37826109f8565b602082019050919050565b5f6020820190508181035f830152610a5981610a20565b9050919050565b5f82825260208201905092915050565b5f819050919050565b610a8281610706565b82525050565b5f610a938383610a79565b60208301905092915050565b5f610aad6020840184610923565b905092915050565b5f602082019050919050565b5f610acc8385610a60565b9350610ad782610a70565b805f5b85811015610b0f57610aec8284610a9f565b610af68882610a88565b9750610b0183610ab5565b925050600181019050610ada565b5085925050509392505050565b5f60a082019050610b2f5f830189610962565b610b3c6020830188610962565b8181036040830152610b4f818688610ac1565b9050610b5e6060830185610717565b610b6b6080830184610962565b979650505050505050565b5f601f19601f8301169050919050565b7f4e487b71000000000000000000000000000000000000000000000000000000005f52604160045260245ffd5b610bbc82610b76565b810181811067ffffffffffffffff82111715610bdb57610bda610b86565b5b80604052505050565b5f610bed61073f565b9050610bf98282610bb3565b919050565b5f67ffffffffffffffff821115610c1857610c17610b86565b5b602082029050602081019050919050565b5f81519050610c3781610759565b92915050565b5f610c4f610c4a84610bfe565b610be4565b90508083825260208201905060208402830185811115610c7257610c7161078b565b5b835b81811015610c9b5780610c878882610c29565b845260208401935050602081019050610c74565b5050509392505050565b5f82601f830112610cb957610cb8610783565b5b8151610cc9848260208601610c3d565b91505092915050565b5f60208284031215610ce757610ce6610748565b5b5f82015167ffffffffffffffff811115610d0457610d0361074c565b5b610d1084828501610ca5565b91505092915050565b7f53776170206661696c65640000000000000000000000000000000000000000005f82015250565b5f610d4d600b83610868565b9150610d5882610d19565b602082019050919050565b5f6020820190508181035f830152610d7a81610d41565b9050919050565b7f4e487b71000000000000000000000000000000000000000000000000000000005f52601160045260245ffd5b5f610db882610750565b9150610dc383610750565b9250828203905081811115610ddb57610dda610d81565b5b92915050565b5f60208284031215610df657610df5610748565b5b5f610e0384828501610c29565b91505092915050565b7f5265656e7472616e637947756172643a207265656e7472616e742063616c6c005f82015250565b5f610e40601f83610868565b9150610e4b82610e0c565b602082019050919050565b5f6020820190508181035f830152610e6d81610e34565b905091905056fea26469706673582212202c7b96ed3b5459287c669ba4afd788ff18779ab6d66e0c0c516634a02379823164736f6c634300081a0033",
					"opcodes": "PUSH1 0xC0 PUSH1 0x40 MSTORE CALLVALUE DUP1 ISZERO PUSH2 0xF JUMPI PUSH0 DUP1 REVERT JUMPDEST POP PUSH1 0x40 MLOAD PUSH2 0x100C CODESIZE SUB DUP1 PUSH2 0x100C DUP4 CODECOPY DUP2 DUP2 ADD PUSH1 0x40 MSTORE DUP2 ADD SWAP1 PUSH2 0x31 SWAP2 SWAP1 PUSH2 0x104 JUMP JUMPDEST PUSH1 0x1 PUSH0 DUP2 SWAP1 SSTORE POP DUP1 PUSH20 0xFFFFFFFFFFFFFFFFFFFFFFFFFFFFFFFFFFFFFFFF AND PUSH1 0x80 DUP2 PUSH20 0xFFFFFFFFFFFFFFFFFFFFFFFFFFFFFFFFFFFFFFFF AND DUP2 MSTORE POP POP CALLER PUSH20 0xFFFFFFFFFFFFFFFFFFFFFFFFFFFFFFFFFFFFFFFF AND PUSH1 0xA0 DUP2 PUSH20 0xFFFFFFFFFFFFFFFFFFFFFFFFFFFFFFFFFFFFFFFF AND DUP2 MSTORE POP POP POP PUSH2 0x12F JUMP JUMPDEST PUSH0 DUP1 REVERT JUMPDEST PUSH0 PUSH20 0xFFFFFFFFFFFFFFFFFFFFFFFFFFFFFFFFFFFFFFFF DUP3 AND SWAP1 POP SWAP2 SWAP1 POP JUMP JUMPDEST PUSH0 PUSH2 0xD3 DUP3 PUSH2 0xAA JUMP JUMPDEST SWAP1 POP SWAP2 SWAP1 POP JUMP JUMPDEST PUSH2 0xE3 DUP2 PUSH2 0xC9 JUMP JUMPDEST DUP2 EQ PUSH2 0xED JUMPI PUSH0 DUP1 REVERT JUMPDEST POP JUMP JUMPDEST PUSH0 DUP2 MLOAD SWAP1 POP PUSH2 0xFE DUP2 PUSH2 0xDA JUMP JUMPDEST SWAP3 SWAP2 POP POP JUMP JUMPDEST PUSH0 PUSH1 0x20 DUP3 DUP5 SUB SLT ISZERO PUSH2 0x119 JUMPI PUSH2 0x118 PUSH2 0xA6 JUMP JUMPDEST JUMPDEST PUSH0 PUSH2 0x126 DUP5 DUP3 DUP6 ADD PUSH2 0xF0 JUMP JUMPDEST SWAP2 POP POP SWAP3 SWAP2 POP POP JUMP JUMPDEST PUSH1 0x80 MLOAD PUSH1 0xA0 MLOAD PUSH2 0xEAA PUSH2 0x162 PUSH0 CODECOPY PUSH0 DUP2 DUP2 PUSH1 0xC1 ADD MSTORE PUSH1 0xE5 ADD MSTORE PUSH0 DUP2 DUP2 PUSH1 0x9D ADD MSTORE DUP2 DUP2 PUSH2 0x1BE ADD MSTORE PUSH2 0x27D ADD MSTORE PUSH2 0xEAA PUSH0 RETURN INVALID PUSH1 0x80 PUSH1 0x40 MSTORE CALLVALUE DUP1 ISZERO PUSH2 0xF JUMPI PUSH0 DUP1 REVERT JUMPDEST POP PUSH1 0x4 CALLDATASIZE LT PUSH2 0x3F JUMPI PUSH0 CALLDATALOAD PUSH1 0xE0 SHR DUP1 PUSH4 0x735DE9F7 EQ PUSH2 0x43 JUMPI DUP1 PUSH4 0x8DA5CB5B EQ PUSH2 0x61 JUMPI DUP1 PUSH4 0xCDC9CF9E EQ PUSH2 0x7F JUMPI JUMPDEST PUSH0 DUP1 REVERT JUMPDEST PUSH2 0x4B PUSH2 0x9B JUMP JUMPDEST PUSH1 0x40 MLOAD PUSH2 0x58 SWAP2 SWAP1 PUSH2 0x6ED JUMP JUMPDEST PUSH1 0x40 MLOAD DUP1 SWAP2 SUB SWAP1 RETURN JUMPDEST PUSH2 0x69 PUSH2 0xBF JUMP JUMPDEST PUSH1 0x40 MLOAD PUSH2 0x76 SWAP2 SWAP1 PUSH2 0x726 JUMP JUMPDEST PUSH1 0x40 MLOAD DUP1 SWAP2 SUB SWAP1 RETURN JUMPDEST PUSH2 0x99 PUSH1 0x4 DUP1 CALLDATASIZE SUB DUP2 ADD SWAP1 PUSH2 0x94 SWAP2 SWAP1 PUSH2 0x7E4 JUMP JUMPDEST PUSH2 0xE3 JUMP JUMPDEST STOP JUMPDEST PUSH32 0x0 DUP2 JUMP JUMPDEST PUSH32 0x0 DUP2 JUMP JUMPDEST PUSH32 0x0 PUSH20 0xFFFFFFFFFFFFFFFFFFFFFFFFFFFFFFFFFFFFFFFF AND CALLER PUSH20 0xFFFFFFFFFFFFFFFFFFFFFFFFFFFFFFFFFFFFFFFF AND EQ PUSH2 0x171 JUMPI PUSH1 0x40 MLOAD PUSH32 0x8C379A000000000000000000000000000000000000000000000000000000000 DUP2 MSTORE PUSH1 0x4 ADD PUSH2 0x168 SWAP1 PUSH2 0x8C2 JUMP JUMPDEST PUSH1 0x40 MLOAD DUP1 SWAP2 SUB SWAP1 REVERT JUMPDEST PUSH2 0x179 PUSH2 0x61D JUMP JUMPDEST DUP3 DUP3 PUSH0 DUP2 DUP2 LT PUSH2 0x18C JUMPI PUSH2 0x18B PUSH2 0x8E0 JUMP JUMPDEST JUMPDEST SWAP1 POP PUSH1 0x20 MUL ADD PUSH1 0x20 DUP2 ADD SWAP1 PUSH2 0x1A1 SWAP2 SWAP1 PUSH2 0x937 JUMP JUMPDEST PUSH20 0xFFFFFFFFFFFFFFFFFFFFFFFFFFFFFFFFFFFFFFFF AND PUSH4 0x95EA7B3 PUSH32 0x0 DUP8 PUSH1 0x40 MLOAD DUP4 PUSH4 0xFFFFFFFF AND PUSH1 0xE0 SHL DUP2 MSTORE PUSH1 0x4 ADD PUSH2 0x1FB SWAP3 SWAP2 SWAP1 PUSH2 0x971 JUMP JUMPDEST PUSH1 0x20 PUSH1 0x40 MLOAD DUP1 DUP4 SUB DUP2 PUSH0 DUP8 GAS CALL ISZERO DUP1 ISZERO PUSH2 0x217 JUMPI RETURNDATASIZE PUSH0 DUP1 RETURNDATACOPY RETURNDATASIZE PUSH0 REVERT JUMPDEST POP POP POP POP PUSH1 0x40 MLOAD RETURNDATASIZE PUSH1 0x1F NOT PUSH1 0x1F DUP3 ADD AND DUP3 ADD DUP1 PUSH1 0x40 MSTORE POP DUP2 ADD SWAP1 PUSH2 0x23B SWAP2 SWAP1 PUSH2 0x9CD JUMP JUMPDEST PUSH2 0x27A JUMPI PUSH1 0x40 MLOAD PUSH32 0x8C379A000000000000000000000000000000000000000000000000000000000 DUP2 MSTORE PUSH1 0x4 ADD PUSH2 0x271 SWAP1 PUSH2 0xA42 JUMP JUMPDEST PUSH1 0x40 MLOAD DUP1 SWAP2 SUB SWAP1 REVERT JUMPDEST PUSH0 PUSH32 0x0 PUSH20 0xFFFFFFFFFFFFFFFFFFFFFFFFFFFFFFFFFFFFFFFF AND PUSH4 0x38ED1739 DUP8 DUP8 DUP8 DUP8 ADDRESS DUP9 PUSH1 0x40 MLOAD DUP8 PUSH4 0xFFFFFFFF AND PUSH1 0xE0 SHL DUP2 MSTORE PUSH1 0x4 ADD PUSH2 0x2DE SWAP7 SWAP6 SWAP5 SWAP4 SWAP3 SWAP2 SWAP1 PUSH2 0xB1C JUMP JUMPDEST PUSH0 PUSH1 0x40 MLOAD DUP1 DUP4 SUB DUP2 PUSH0 DUP8 GAS CALL ISZERO DUP1 ISZERO PUSH2 0x2F9 JUMPI RETURNDATASIZE PUSH0 DUP1 RETURNDATACOPY RETURNDATASIZE PUSH0 REVERT JUMPDEST POP POP POP POP PUSH1 0x40 MLOAD RETURNDATASIZE PUSH0 DUP3 RETURNDATACOPY RETURNDATASIZE PUSH1 0x1F NOT PUSH1 0x1F DUP3 ADD AND DUP3 ADD DUP1 PUSH1 0x40 MSTORE POP DUP2 ADD SWAP1 PUSH2 0x321 SWAP2 SWAP1 PUSH2 0xCD2 JUMP JUMPDEST SWAP1 POP PUSH0 DUP2 MLOAD GT DUP1 ISZERO PUSH2 0x34D JUMPI POP DUP5 DUP2 PUSH0 DUP2 MLOAD DUP2 LT PUSH2 0x342 JUMPI PUSH2 0x341 PUSH2 0x8E0 JUMP JUMPDEST JUMPDEST PUSH1 0x20 MUL PUSH1 0x20 ADD ADD MLOAD LT ISZERO JUMPDEST PUSH2 0x38C JUMPI PUSH1 0x40 MLOAD PUSH32 0x8C379A000000000000000000000000000000000000000000000000000000000 DUP2 MSTORE PUSH1 0x4 ADD PUSH2 0x383 SWAP1 PUSH2 0xD63 JUMP JUMPDEST PUSH1 0x40 MLOAD DUP1 SWAP2 SUB SWAP1 REVERT JUMPDEST PUSH0 DUP5 DUP5 PUSH1 0x1 DUP8 DUP8 SWAP1 POP PUSH2 0x39F SWAP2 SWAP1 PUSH2 0xDAE JUMP JUMPDEST DUP2 DUP2 LT PUSH2 0x3AF JUMPI PUSH2 0x3AE PUSH2 0x8E0 JUMP JUMPDEST JUMPDEST SWAP1 POP PUSH1 0x20 MUL ADD PUSH1 0x20 DUP2 ADD SWAP1 PUSH2 0x3C4 SWAP2 SWAP1 PUSH2 0x937 JUMP JUMPDEST PUSH20 0xFFFFFFFFFFFFFFFFFFFFFFFFFFFFFFFFFFFFFFFF AND PUSH4 0x70A08231 ADDRESS PUSH1 0x40 MLOAD DUP3 PUSH4 0xFFFFFFFF AND PUSH1 0xE0 SHL DUP2 MSTORE PUSH1 0x4 ADD PUSH2 0x3FC SWAP2 SWAP1 PUSH2 0x726 JUMP JUMPDEST PUSH1 0x20 PUSH1 0x40 MLOAD DUP1 DUP4 SUB DUP2 DUP7 GAS STATICCALL ISZERO DUP1 ISZERO PUSH2 0x417 JUMPI RETURNDATASIZE PUSH0 DUP1 RETURNDATACOPY RETURNDATASIZE PUSH0 REVERT JUMPDEST POP POP POP POP PUSH1 0x40 MLOAD RETURNDATASIZE PUSH1 0x1F NOT PUSH1 0x1F DUP3 ADD AND DUP3 ADD DUP1 PUSH1 0x40 MSTORE POP DUP2 ADD SWAP1 PUSH2 0x43B SWAP2 SWAP1 PUSH2 0xDE1 JUMP JUMPDEST SWAP1 POP DUP5 DUP5 PUSH1 0x1 DUP8 DUP8 SWAP1 POP PUSH2 0x44F SWAP2 SWAP1 PUSH2 0xDAE JUMP JUMPDEST DUP2 DUP2 LT PUSH2 0x45F JUMPI PUSH2 0x45E PUSH2 0x8E0 JUMP JUMPDEST JUMPDEST SWAP1 POP PUSH1 0x20 MUL ADD PUSH1 0x20 DUP2 ADD SWAP1 PUSH2 0x474 SWAP2 SWAP1 PUSH2 0x937 JUMP JUMPDEST PUSH20 0xFFFFFFFFFFFFFFFFFFFFFFFFFFFFFFFFFFFFFFFF AND PUSH4 0xA9059CBB CALLER DUP4 PUSH1 0x40 MLOAD DUP4 PUSH4 0xFFFFFFFF AND PUSH1 0xE0 SHL DUP2 MSTORE PUSH1 0x4 ADD PUSH2 0x4AE SWAP3 SWAP2 SWAP1 PUSH2 0x971 JUMP JUMPDEST PUSH1 0x20 PUSH1 0x40 MLOAD DUP1 DUP4 SUB DUP2 PUSH0 DUP8 GAS CALL ISZERO DUP1 ISZERO PUSH2 0x4CA JUMPI RETURNDATASIZE PUSH0 DUP1 RETURNDATACOPY RETURNDATASIZE PUSH0 REVERT JUMPDEST POP POP POP POP PUSH1 0x40 MLOAD RETURNDATASIZE PUSH1 0x1F NOT PUSH1 0x1F DUP3 ADD AND DUP3 ADD DUP1 PUSH1 0x40 MSTORE POP DUP2 ADD SWAP1 PUSH2 0x4EE SWAP2 SWAP1 PUSH2 0x9CD JUMP JUMPDEST POP PUSH0 DUP8 DUP4 PUSH1 0x1 DUP6 MLOAD PUSH2 0x500 SWAP2 SWAP1 PUSH2 0xDAE JUMP JUMPDEST DUP2 MLOAD DUP2 LT PUSH2 0x511 JUMPI PUSH2 0x510 PUSH2 0x8E0 JUMP JUMPDEST JUMPDEST PUSH1 0x20 MUL PUSH1 0x20 ADD ADD MLOAD PUSH2 0x523 SWAP2 SWAP1 PUSH2 0xDAE JUMP JUMPDEST SWAP1 POP CALLER PUSH20 0xFFFFFFFFFFFFFFFFFFFFFFFFFFFFFFFFFFFFFFFF AND DUP2 PUSH32 0xD6A5B88B2C1C30ACE19709265079D332F1DC1955FB28F437ECE05F709B847345 PUSH1 0x40 MLOAD PUSH1 0x40 MLOAD DUP1 SWAP2 SUB SWAP1 LOG3 CALLER PUSH20 0xFFFFFFFFFFFFFFFFFFFFFFFFFFFFFFFFFFFFFFFF AND DUP9 PUSH32 0xD6A5B88B2C1C30ACE19709265079D332F1DC1955FB28F437ECE05F709B847345 PUSH1 0x40 MLOAD PUSH1 0x40 MLOAD DUP1 SWAP2 SUB SWAP1 LOG3 ADDRESS PUSH20 0xFFFFFFFFFFFFFFFFFFFFFFFFFFFFFFFFFFFFFFFF AND DUP4 PUSH0 DUP2 MLOAD DUP2 LT PUSH2 0x5D7 JUMPI PUSH2 0x5D6 PUSH2 0x8E0 JUMP JUMPDEST JUMPDEST PUSH1 0x20 MUL PUSH1 0x20 ADD ADD MLOAD PUSH32 0xD6A5B88B2C1C30ACE19709265079D332F1DC1955FB28F437ECE05F709B847345 PUSH1 0x40 MLOAD PUSH1 0x40 MLOAD DUP1 SWAP2 SUB SWAP1 LOG3 POP POP POP PUSH2 0x616 PUSH2 0x66A JUMP JUMPDEST POP POP POP POP POP JUMP JUMPDEST PUSH1 0x2 PUSH0 SLOAD SUB PUSH2 0x661 JUMPI PUSH1 0x40 MLOAD PUSH32 0x8C379A000000000000000000000000000000000000000000000000000000000 DUP2 MSTORE PUSH1 0x4 ADD PUSH2 0x658 SWAP1 PUSH2 0xE56 JUMP JUMPDEST PUSH1 0x40 MLOAD DUP1 SWAP2 SUB SWAP1 REVERT JUMPDEST PUSH1 0x2 PUSH0 DUP2 SWAP1 SSTORE POP JUMP JUMPDEST PUSH1 0x1 PUSH0 DUP2 SWAP1 SSTORE POP JUMP JUMPDEST PUSH0 PUSH20 0xFFFFFFFFFFFFFFFFFFFFFFFFFFFFFFFFFFFFFFFF DUP3 AND SWAP1 POP SWAP2 SWAP1 POP JUMP JUMPDEST PUSH0 DUP2 SWAP1 POP SWAP2 SWAP1 POP JUMP JUMPDEST PUSH0 PUSH2 0x6B5 PUSH2 0x6B0 PUSH2 0x6AB DUP5 PUSH2 0x673 JUMP JUMPDEST PUSH2 0x692 JUMP JUMPDEST PUSH2 0x673 JUMP JUMPDEST SWAP1 POP SWAP2 SWAP1 POP JUMP JUMPDEST PUSH0 PUSH2 0x6C6 DUP3 PUSH2 0x69B JUMP JUMPDEST SWAP1 POP SWAP2 SWAP1 POP JUMP JUMPDEST PUSH0 PUSH2 0x6D7 DUP3 PUSH2 0x6BC JUMP JUMPDEST SWAP1 POP SWAP2 SWAP1 POP JUMP JUMPDEST PUSH2 0x6E7 DUP2 PUSH2 0x6CD JUMP JUMPDEST DUP3 MSTORE POP POP JUMP JUMPDEST PUSH0 PUSH1 0x20 DUP3 ADD SWAP1 POP PUSH2 0x700 PUSH0 DUP4 ADD DUP5 PUSH2 0x6DE JUMP JUMPDEST SWAP3 SWAP2 POP POP JUMP JUMPDEST PUSH0 PUSH2 0x710 DUP3 PUSH2 0x673 JUMP JUMPDEST SWAP1 POP SWAP2 SWAP1 POP JUMP JUMPDEST PUSH2 0x720 DUP2 PUSH2 0x706 JUMP JUMPDEST DUP3 MSTORE POP POP JUMP JUMPDEST PUSH0 PUSH1 0x20 DUP3 ADD SWAP1 POP PUSH2 0x739 PUSH0 DUP4 ADD DUP5 PUSH2 0x717 JUMP JUMPDEST SWAP3 SWAP2 POP POP JUMP JUMPDEST PUSH0 PUSH1 0x40 MLOAD SWAP1 POP SWAP1 JUMP JUMPDEST PUSH0 DUP1 REVERT JUMPDEST PUSH0 DUP1 REVERT JUMPDEST PUSH0 DUP2 SWAP1 POP SWAP2 SWAP1 POP JUMP JUMPDEST PUSH2 0x762 DUP2 PUSH2 0x750 JUMP JUMPDEST DUP2 EQ PUSH2 0x76C JUMPI PUSH0 DUP1 REVERT JUMPDEST POP JUMP JUMPDEST PUSH0 DUP2 CALLDATALOAD SWAP1 POP PUSH2 0x77D DUP2 PUSH2 0x759 JUMP JUMPDEST SWAP3 SWAP2 POP POP JUMP JUMPDEST PUSH0 DUP1 REVERT JUMPDEST PUSH0 DUP1 REVERT JUMPDEST PUSH0 DUP1 REVERT JUMPDEST PUSH0 DUP1 DUP4 PUSH1 0x1F DUP5 ADD SLT PUSH2 0x7A4 JUMPI PUSH2 0x7A3 PUSH2 0x783 JUMP JUMPDEST JUMPDEST DUP3 CALLDATALOAD SWAP1 POP PUSH8 0xFFFFFFFFFFFFFFFF DUP2 GT ISZERO PUSH2 0x7C1 JUMPI PUSH2 0x7C0 PUSH2 0x787 JUMP JUMPDEST JUMPDEST PUSH1 0x20 DUP4 ADD SWAP2 POP DUP4 PUSH1 0x20 DUP3 MUL DUP4 ADD GT ISZERO PUSH2 0x7DD JUMPI PUSH2 0x7DC PUSH2 0x78B JUMP JUMPDEST JUMPDEST SWAP3 POP SWAP3 SWAP1 POP JUMP JUMPDEST PUSH0 DUP1 PUSH0 DUP1 PUSH0 PUSH1 0x80 DUP7 DUP9 SUB SLT ISZERO PUSH2 0x7FD JUMPI PUSH2 0x7FC PUSH2 0x748 JUMP JUMPDEST JUMPDEST PUSH0 PUSH2 0x80A DUP9 DUP3 DUP10 ADD PUSH2 0x76F JUMP JUMPDEST SWAP6 POP POP PUSH1 0x20 PUSH2 0x81B DUP9 DUP3 DUP10 ADD PUSH2 0x76F JUMP JUMPDEST SWAP5 POP POP PUSH1 0x40 DUP7 ADD CALLDATALOAD PUSH8 0xFFFFFFFFFFFFFFFF DUP2 GT ISZERO PUSH2 0x83C JUMPI PUSH2 0x83B PUSH2 0x74C JUMP JUMPDEST JUMPDEST PUSH2 0x848 DUP9 DUP3 DUP10 ADD PUSH2 0x78F JUMP JUMPDEST SWAP4 POP SWAP4 POP POP PUSH1 0x60 PUSH2 0x85B DUP9 DUP3 DUP10 ADD PUSH2 0x76F JUMP JUMPDEST SWAP2 POP POP SWAP3 SWAP6 POP SWAP3 SWAP6 SWAP1 SWAP4 POP JUMP JUMPDEST PUSH0 DUP3 DUP3 MSTORE PUSH1 0x20 DUP3 ADD SWAP1 POP SWAP3 SWAP2 POP POP JUMP JUMPDEST PUSH32 0x4E6F74206F776E65720000000000000000000000000000000000000000000000 PUSH0 DUP3 ADD MSTORE POP JUMP JUMPDEST PUSH0 PUSH2 0x8AC PUSH1 0x9 DUP4 PUSH2 0x868 JUMP JUMPDEST SWAP2 POP PUSH2 0x8B7 DUP3 PUSH2 0x878 JUMP JUMPDEST PUSH1 0x20 DUP3 ADD SWAP1 POP SWAP2 SWAP1 POP JUMP JUMPDEST PUSH0 PUSH1 0x20 DUP3 ADD SWAP1 POP DUP2 DUP2 SUB PUSH0 DUP4 ADD MSTORE PUSH2 0x8D9 DUP2 PUSH2 0x8A0 JUMP JUMPDEST SWAP1 POP SWAP2 SWAP1 POP JUMP JUMPDEST PUSH32 0x4E487B7100000000000000000000000000000000000000000000000000000000 PUSH0 MSTORE PUSH1 0x32 PUSH1 0x4 MSTORE PUSH1 0x24 PUSH0 REVERT JUMPDEST PUSH2 0x916 DUP2 PUSH2 0x706 JUMP JUMPDEST DUP2 EQ PUSH2 0x920 JUMPI PUSH0 DUP1 REVERT JUMPDEST POP JUMP JUMPDEST PUSH0 DUP2 CALLDATALOAD SWAP1 POP PUSH2 0x931 DUP2 PUSH2 0x90D JUMP JUMPDEST SWAP3 SWAP2 POP POP JUMP JUMPDEST PUSH0 PUSH1 0x20 DUP3 DUP5 SUB SLT ISZERO PUSH2 0x94C JUMPI PUSH2 0x94B PUSH2 0x748 JUMP JUMPDEST JUMPDEST PUSH0 PUSH2 0x959 DUP5 DUP3 DUP6 ADD PUSH2 0x923 JUMP JUMPDEST SWAP2 POP POP SWAP3 SWAP2 POP POP JUMP JUMPDEST PUSH2 0x96B DUP2 PUSH2 0x750 JUMP JUMPDEST DUP3 MSTORE POP POP JUMP JUMPDEST PUSH0 PUSH1 0x40 DUP3 ADD SWAP1 POP PUSH2 0x984 PUSH0 DUP4 ADD DUP6 PUSH2 0x717 JUMP JUMPDEST PUSH2 0x991 PUSH1 0x20 DUP4 ADD DUP5 PUSH2 0x962 JUMP JUMPDEST SWAP4 SWAP3 POP POP POP JUMP JUMPDEST PUSH0 DUP2 ISZERO ISZERO SWAP1 POP SWAP2 SWAP1 POP JUMP JUMPDEST PUSH2 0x9AC DUP2 PUSH2 0x998 JUMP JUMPDEST DUP2 EQ PUSH2 0x9B6 JUMPI PUSH0 DUP1 REVERT JUMPDEST POP JUMP JUMPDEST PUSH0 DUP2 MLOAD SWAP1 POP PUSH2 0x9C7 DUP2 PUSH2 0x9A3 JUMP JUMPDEST SWAP3 SWAP2 POP POP JUMP JUMPDEST PUSH0 PUSH1 0x20 DUP3 DUP5 SUB SLT ISZERO PUSH2 0x9E2 JUMPI PUSH2 0x9E1 PUSH2 0x748 JUMP JUMPDEST JUMPDEST PUSH0 PUSH2 0x9EF DUP5 DUP3 DUP6 ADD PUSH2 0x9B9 JUMP JUMPDEST SWAP2 POP POP SWAP3 SWAP2 POP POP JUMP JUMPDEST PUSH32 0x417070726F76616C206661696C65640000000000000000000000000000000000 PUSH0 DUP3 ADD MSTORE POP JUMP JUMPDEST PUSH0 PUSH2 0xA2C PUSH1 0xF DUP4 PUSH2 0x868 JUMP JUMPDEST SWAP2 POP PUSH2 0xA37 DUP3 PUSH2 0x9F8 JUMP JUMPDEST PUSH1 0x20 DUP3 ADD SWAP1 POP SWAP2 SWAP1 POP JUMP JUMPDEST PUSH0 PUSH1 0x20 DUP3 ADD SWAP1 POP DUP2 DUP2 SUB PUSH0 DUP4 ADD MSTORE PUSH2 0xA59 DUP2 PUSH2 0xA20 JUMP JUMPDEST SWAP1 POP SWAP2 SWAP1 POP JUMP JUMPDEST PUSH0 DUP3 DUP3 MSTORE PUSH1 0x20 DUP3 ADD SWAP1 POP SWAP3 SWAP2 POP POP JUMP JUMPDEST PUSH0 DUP2 SWAP1 POP SWAP2 SWAP1 POP JUMP JUMPDEST PUSH2 0xA82 DUP2 PUSH2 0x706 JUMP JUMPDEST DUP3 MSTORE POP POP JUMP JUMPDEST PUSH0 PUSH2 0xA93 DUP4 DUP4 PUSH2 0xA79 JUMP JUMPDEST PUSH1 0x20 DUP4 ADD SWAP1 POP SWAP3 SWAP2 POP POP JUMP JUMPDEST PUSH0 PUSH2 0xAAD PUSH1 0x20 DUP5 ADD DUP5 PUSH2 0x923 JUMP JUMPDEST SWAP1 POP SWAP3 SWAP2 POP POP JUMP JUMPDEST PUSH0 PUSH1 0x20 DUP3 ADD SWAP1 POP SWAP2 SWAP1 POP JUMP JUMPDEST PUSH0 PUSH2 0xACC DUP4 DUP6 PUSH2 0xA60 JUMP JUMPDEST SWAP4 POP PUSH2 0xAD7 DUP3 PUSH2 0xA70 JUMP JUMPDEST DUP1 PUSH0 JUMPDEST DUP6 DUP2 LT ISZERO PUSH2 0xB0F JUMPI PUSH2 0xAEC DUP3 DUP5 PUSH2 0xA9F JUMP JUMPDEST PUSH2 0xAF6 DUP9 DUP3 PUSH2 0xA88 JUMP JUMPDEST SWAP8 POP PUSH2 0xB01 DUP4 PUSH2 0xAB5 JUMP JUMPDEST SWAP3 POP POP PUSH1 0x1 DUP2 ADD SWAP1 POP PUSH2 0xADA JUMP JUMPDEST POP DUP6 SWAP3 POP POP POP SWAP4 SWAP3 POP POP POP JUMP JUMPDEST PUSH0 PUSH1 0xA0 DUP3 ADD SWAP1 POP PUSH2 0xB2F PUSH0 DUP4 ADD DUP10 PUSH2 0x962 JUMP JUMPDEST PUSH2 0xB3C PUSH1 0x20 DUP4 ADD DUP9 PUSH2 0x962 JUMP JUMPDEST DUP2 DUP2 SUB PUSH1 0x40 DUP4 ADD MSTORE PUSH2 0xB4F DUP2 DUP7 DUP9 PUSH2 0xAC1 JUMP JUMPDEST SWAP1 POP PUSH2 0xB5E PUSH1 0x60 DUP4 ADD DUP6 PUSH2 0x717 JUMP JUMPDEST PUSH2 0xB6B PUSH1 0x80 DUP4 ADD DUP5 PUSH2 0x962 JUMP JUMPDEST SWAP8 SWAP7 POP POP POP POP POP POP POP JUMP JUMPDEST PUSH0 PUSH1 0x1F NOT PUSH1 0x1F DUP4 ADD AND SWAP1 POP SWAP2 SWAP1 POP JUMP JUMPDEST PUSH32 0x4E487B7100000000000000000000000000000000000000000000000000000000 PUSH0 MSTORE PUSH1 0x41 PUSH1 0x4 MSTORE PUSH1 0x24 PUSH0 REVERT JUMPDEST PUSH2 0xBBC DUP3 PUSH2 0xB76 JUMP JUMPDEST DUP2 ADD DUP2 DUP2 LT PUSH8 0xFFFFFFFFFFFFFFFF DUP3 GT OR ISZERO PUSH2 0xBDB JUMPI PUSH2 0xBDA PUSH2 0xB86 JUMP JUMPDEST JUMPDEST DUP1 PUSH1 0x40 MSTORE POP POP POP JUMP JUMPDEST PUSH0 PUSH2 0xBED PUSH2 0x73F JUMP JUMPDEST SWAP1 POP PUSH2 0xBF9 DUP3 DUP3 PUSH2 0xBB3 JUMP JUMPDEST SWAP2 SWAP1 POP JUMP JUMPDEST PUSH0 PUSH8 0xFFFFFFFFFFFFFFFF DUP3 GT ISZERO PUSH2 0xC18 JUMPI PUSH2 0xC17 PUSH2 0xB86 JUMP JUMPDEST JUMPDEST PUSH1 0x20 DUP3 MUL SWAP1 POP PUSH1 0x20 DUP2 ADD SWAP1 POP SWAP2 SWAP1 POP JUMP JUMPDEST PUSH0 DUP2 MLOAD SWAP1 POP PUSH2 0xC37 DUP2 PUSH2 0x759 JUMP JUMPDEST SWAP3 SWAP2 POP POP JUMP JUMPDEST PUSH0 PUSH2 0xC4F PUSH2 0xC4A DUP5 PUSH2 0xBFE JUMP JUMPDEST PUSH2 0xBE4 JUMP JUMPDEST SWAP1 POP DUP1 DUP4 DUP3 MSTORE PUSH1 0x20 DUP3 ADD SWAP1 POP PUSH1 0x20 DUP5 MUL DUP4 ADD DUP6 DUP2 GT ISZERO PUSH2 0xC72 JUMPI PUSH2 0xC71 PUSH2 0x78B JUMP JUMPDEST JUMPDEST DUP4 JUMPDEST DUP2 DUP2 LT ISZERO PUSH2 0xC9B JUMPI DUP1 PUSH2 0xC87 DUP9 DUP3 PUSH2 0xC29 JUMP JUMPDEST DUP5 MSTORE PUSH1 0x20 DUP5 ADD SWAP4 POP POP PUSH1 0x20 DUP2 ADD SWAP1 POP PUSH2 0xC74 JUMP JUMPDEST POP POP POP SWAP4 SWAP3 POP POP POP JUMP JUMPDEST PUSH0 DUP3 PUSH1 0x1F DUP4 ADD SLT PUSH2 0xCB9 JUMPI PUSH2 0xCB8 PUSH2 0x783 JUMP JUMPDEST JUMPDEST DUP2 MLOAD PUSH2 0xCC9 DUP5 DUP3 PUSH1 0x20 DUP7 ADD PUSH2 0xC3D JUMP JUMPDEST SWAP2 POP POP SWAP3 SWAP2 POP POP JUMP JUMPDEST PUSH0 PUSH1 0x20 DUP3 DUP5 SUB SLT ISZERO PUSH2 0xCE7 JUMPI PUSH2 0xCE6 PUSH2 0x748 JUMP JUMPDEST JUMPDEST PUSH0 DUP3 ADD MLOAD PUSH8 0xFFFFFFFFFFFFFFFF DUP2 GT ISZERO PUSH2 0xD04 JUMPI PUSH2 0xD03 PUSH2 0x74C JUMP JUMPDEST JUMPDEST PUSH2 0xD10 DUP5 DUP3 DUP6 ADD PUSH2 0xCA5 JUMP JUMPDEST SWAP2 POP POP SWAP3 SWAP2 POP POP JUMP JUMPDEST PUSH32 0x53776170206661696C6564000000000000000000000000000000000000000000 PUSH0 DUP3 ADD MSTORE POP JUMP JUMPDEST PUSH0 PUSH2 0xD4D PUSH1 0xB DUP4 PUSH2 0x868 JUMP JUMPDEST SWAP2 POP PUSH2 0xD58 DUP3 PUSH2 0xD19 JUMP JUMPDEST PUSH1 0x20 DUP3 ADD SWAP1 POP SWAP2 SWAP1 POP JUMP JUMPDEST PUSH0 PUSH1 0x20 DUP3 ADD SWAP1 POP DUP2 DUP2 SUB PUSH0 DUP4 ADD MSTORE PUSH2 0xD7A DUP2 PUSH2 0xD41 JUMP JUMPDEST SWAP1 POP SWAP2 SWAP1 POP JUMP JUMPDEST PUSH32 0x4E487B7100000000000000000000000000000000000000000000000000000000 PUSH0 MSTORE PUSH1 0x11 PUSH1 0x4 MSTORE PUSH1 0x24 PUSH0 REVERT JUMPDEST PUSH0 PUSH2 0xDB8 DUP3 PUSH2 0x750 JUMP JUMPDEST SWAP2 POP PUSH2 0xDC3 DUP4 PUSH2 0x750 JUMP JUMPDEST SWAP3 POP DUP3 DUP3 SUB SWAP1 POP DUP2 DUP2 GT ISZERO PUSH2 0xDDB JUMPI PUSH2 0xDDA PUSH2 0xD81 JUMP JUMPDEST JUMPDEST SWAP3 SWAP2 POP POP JUMP JUMPDEST PUSH0 PUSH1 0x20 DUP3 DUP5 SUB SLT ISZERO PUSH2 0xDF6 JUMPI PUSH2 0xDF5 PUSH2 0x748 JUMP JUMPDEST JUMPDEST PUSH0 PUSH2 0xE03 DUP5 DUP3 DUP6 ADD PUSH2 0xC29 JUMP JUMPDEST SWAP2 POP POP SWAP3 SWAP2 POP POP JUMP JUMPDEST PUSH32 0x5265656E7472616E637947756172643A207265656E7472616E742063616C6C00 PUSH0 DUP3 ADD MSTORE POP JUMP JUMPDEST PUSH0 PUSH2 0xE40 PUSH1 0x1F DUP4 PUSH2 0x868 JUMP JUMPDEST SWAP2 POP PUSH2 0xE4B DUP3 PUSH2 0xE0C JUMP JUMPDEST PUSH1 0x20 DUP3 ADD SWAP1 POP SWAP2 SWAP1 POP JUMP JUMPDEST PUSH0 PUSH1 0x20 DUP3 ADD SWAP1 POP DUP2 DUP2 SUB PUSH0 DUP4 ADD MSTORE PUSH2 0xE6D DUP2 PUSH2 0xE34 JUMP JUMPDEST SWAP1 POP SWAP2 SWAP1 POP JUMP INVALID LOG2 PUSH5 0x6970667358 0x22 SLT KECCAK256 0x2C PUSH28 0x96ED3B5459287C669BA4AFD788FF18779AB6D66E0C0C516634A02379 DUP3 BALANCE PUSH5 0x736F6C6343 STOP ADDMOD BYTE STOP CALLER "
				},
				"gasEstimates": {
					"creation": {
						"codeDepositCost": "750800",
						"executionCost": "infinite",
						"totalCost": "infinite"
					},
					"external": {
						"owner()": "infinite",
						"setupSandwichAttack(uint256,uint256,address[],uint256)": "infinite",
						"uniswapRouter()": "infinite"
					}
				},
				"methodIdentifiers": {
					"owner()": "8da5cb5b",
					"setupSandwichAttack(uint256,uint256,address[],uint256)": "cdc9cf9e",
					"uniswapRouter()": "735de9f7"
				}
			},
			"storageLayout": {
				"storage": [
					{
						"astId": 10,
						"contract": "Sandwich.sol:Sandwich",
						"label": "_status",
						"offset": 0,
						"slot": "0",
						"type": "t_uint256"
					}
				],
				"types": {
					"t_uint256": {
						"encoding": "inplace",
						"label": "uint256",
						"numberOfBytes": "32"
					}
				}
			},
			"userdoc": {
				"kind": "user",
				"methods": {},
				"version": 1
			}
		}
	}
}