{
	"Arbitrage.sol": {
		"Arbitrage": {
			"abi": [
				{
					"inputs": [],
					"stateMutability": "nonpayable",
					"type": "constructor"
				},
				{
					"inputs": [],
					"name": "owner",
					"outputs": [
						{
							"internalType": "address",
							"name": "",
							"type": "address"
						}
					],
					"stateMutability": "view",
					"type": "function"
				},
				{
					"inputs": [
						{
							"internalType": "address",
							"name": "",
							"type": "address"
						}
					],
					"name": "routers",
					"outputs": [
						{
							"internalType": "contract IDEXRouter",
							"name": "",
							"type": "address"
						}
					],
					"stateMutability": "view",
					"type": "function"
				},
				{
					"inputs": [
						{
							"internalType": "address",
							"name": "dexAddress",
							"type": "address"
						},
						{
							"internalType": "address",
							"name": "router",
							"type": "address"
						}
					],
					"name": "setRouter",
					"outputs": [],
					"stateMutability": "nonpayable",
					"type": "function"
				},
				{
					"inputs": [
						{
							"internalType": "uint256",
							"name": "amountIn",
							"type": "uint256"
						},
						{
							"internalType": "uint256",
							"name": "amountOutMin",
							"type": "uint256"
						},
						{
							"internalType": "address[]",
							"name": "path",
							"type": "address[]"
						},
						{
							"internalType": "address",
							"name": "dexAddress",
							"type": "address"
						},
						{
							"internalType": "uint256",
							"name": "deadline",
							"type": "uint256"
						}
					],
					"name": "setupArbitrage",
					"outputs": [],
					"stateMutability": "nonpayable",
					"type": "function"
				}
			],
			"devdoc": {
				"kind": "dev",
				"methods": {},
				"version": 1
			},
			"evm": {
				"assembly": "    /* \"Arbitrage.sol\":401:1800  contract Arbitrage is ReentrancyGuard {... */\n  mstore(0x40, 0xa0)\n    /* \"Arbitrage.sol\":537:588  constructor() {... */\n  callvalue\n  dup1\n  iszero\n  tag_1\n  jumpi\n  0x00\n  dup1\n  revert\ntag_1:\n  pop\n    /* \"@openzeppelin/contracts/security/ReentrancyGuard.sol\":1716:1717  1 */\n  0x01\n    /* \"@openzeppelin/contracts/security/ReentrancyGuard.sol\":1821:1828  _status */\n  0x00\n    /* \"@openzeppelin/contracts/security/ReentrancyGuard.sol\":1821:1843  _status = _NOT_ENTERED */\n  dup2\n  swap1\n  sstore\n  pop\n    /* \"Arbitrage.sol\":570:580  msg.sender */\n  caller\n    /* \"Arbitrage.sol\":562:580  owner = msg.sender */\n  0xffffffffffffffffffffffffffffffffffffffff\n  and\n  0x80\n  dup2\n  0xffffffffffffffffffffffffffffffffffffffff\n  and\n  dup2\n  mstore\n  pop\n  pop\n    /* \"Arbitrage.sol\":401:1800  contract Arbitrage is ReentrancyGuard {... */\n  mload(0x80)\n  codecopy(0x00, dataOffset(sub_0), dataSize(sub_0))\n  0x00\n  assignImmutable(\"0x04e57633024368235fc5219bfb9802814291d3a7b9a68d0aeb7bd3d297ac474e\")\n  return(0x00, dataSize(sub_0))\nstop\n\nsub_0: assembly {\n        /* \"Arbitrage.sol\":401:1800  contract Arbitrage is ReentrancyGuard {... */\n      mstore(0x40, 0x80)\n      callvalue\n      dup1\n      iszero\n      tag_1\n      jumpi\n      0x00\n      dup1\n      revert\n    tag_1:\n      pop\n      jumpi(tag_2, lt(calldatasize, 0x04))\n      shr(0xe0, calldataload(0x00))\n      dup1\n      0x0b30f3b9\n      eq\n      tag_3\n      jumpi\n      dup1\n      0x41d68b8f\n      eq\n      tag_4\n      jumpi\n      dup1\n      0x80dd9a1f\n      eq\n      tag_5\n      jumpi\n      dup1\n      0x8da5cb5b\n      eq\n      tag_6\n      jumpi\n    tag_2:\n      0x00\n      dup1\n      revert\n        /* \"Arbitrage.sol\":927:1797  function setupArbitrage(uint amountIn, uint amountOutMin, address[] calldata path, address dexAddress, uint deadline) external onlyOwner nonReentrant {... */\n    tag_3:\n      tag_7\n      0x04\n      dup1\n      calldatasize\n      sub\n      dup2\n      add\n      swap1\n      tag_8\n      swap2\n      swap1\n      tag_9\n      jump\t// in\n    tag_8:\n      tag_10\n      jump\t// in\n    tag_7:\n      stop\n        /* \"Arbitrage.sol\":697:828  function setRouter(address dexAddress, address router) public onlyOwner {... */\n    tag_4:\n      tag_11\n      0x04\n      dup1\n      calldatasize\n      sub\n      dup2\n      add\n      swap1\n      tag_12\n      swap2\n      swap1\n      tag_13\n      jump\t// in\n    tag_12:\n      tag_14\n      jump\t// in\n    tag_11:\n      stop\n        /* \"Arbitrage.sol\":483:528  mapping(address => IDEXRouter) public routers */\n    tag_5:\n      tag_15\n      0x04\n      dup1\n      calldatasize\n      sub\n      dup2\n      add\n      swap1\n      tag_16\n      swap2\n      swap1\n      tag_17\n      jump\t// in\n    tag_16:\n      tag_18\n      jump\t// in\n    tag_15:\n      mload(0x40)\n      tag_19\n      swap2\n      swap1\n      tag_20\n      jump\t// in\n    tag_19:\n      mload(0x40)\n      dup1\n      swap2\n      sub\n      swap1\n      return\n        /* \"Arbitrage.sol\":446:476  address public immutable owner */\n    tag_6:\n      tag_21\n      tag_22\n      jump\t// in\n    tag_21:\n      mload(0x40)\n      tag_23\n      swap2\n      swap1\n      tag_24\n      jump\t// in\n    tag_23:\n      mload(0x40)\n      dup1\n      swap2\n      sub\n      swap1\n      return\n        /* \"Arbitrage.sol\":927:1797  function setupArbitrage(uint amountIn, uint amountOutMin, address[] calldata path, address dexAddress, uint deadline) external onlyOwner nonReentrant {... */\n    tag_10:\n        /* \"Arbitrage.sol\":650:655  owner */\n      immutable(\"0x04e57633024368235fc5219bfb9802814291d3a7b9a68d0aeb7bd3d297ac474e\")\n        /* \"Arbitrage.sol\":636:655  msg.sender == owner */\n      0xffffffffffffffffffffffffffffffffffffffff\n      and\n        /* \"Arbitrage.sol\":636:646  msg.sender */\n      caller\n        /* \"Arbitrage.sol\":636:655  msg.sender == owner */\n      0xffffffffffffffffffffffffffffffffffffffff\n      and\n      eq\n        /* \"Arbitrage.sol\":628:669  require(msg.sender == owner, \"Not owner\") */\n      tag_26\n      jumpi\n      mload(0x40)\n      0x08c379a000000000000000000000000000000000000000000000000000000000\n      dup2\n      mstore\n      0x04\n      add\n      tag_27\n      swap1\n      tag_28\n      jump\t// in\n    tag_27:\n      mload(0x40)\n      dup1\n      swap2\n      sub\n      swap1\n      revert\n    tag_26:\n        /* \"@openzeppelin/contracts/security/ReentrancyGuard.sol\":2261:2282  _nonReentrantBefore() */\n      tag_30\n        /* \"@openzeppelin/contracts/security/ReentrancyGuard.sol\":2261:2280  _nonReentrantBefore */\n      tag_31\n        /* \"@openzeppelin/contracts/security/ReentrancyGuard.sol\":2261:2282  _nonReentrantBefore() */\n      jump\t// in\n    tag_30:\n        /* \"Arbitrage.sol\":1088:1105  IDEXRouter router */\n      0x00\n        /* \"Arbitrage.sol\":1108:1115  routers */\n      0x01\n        /* \"Arbitrage.sol\":1108:1127  routers[dexAddress] */\n      0x00\n        /* \"Arbitrage.sol\":1116:1126  dexAddress */\n      dup5\n        /* \"Arbitrage.sol\":1108:1127  routers[dexAddress] */\n      0xffffffffffffffffffffffffffffffffffffffff\n      and\n      0xffffffffffffffffffffffffffffffffffffffff\n      and\n      dup2\n      mstore\n      0x20\n      add\n      swap1\n      dup2\n      mstore\n      0x20\n      add\n      0x00\n      keccak256\n      0x00\n      swap1\n      sload\n      swap1\n      0x0100\n      exp\n      swap1\n      div\n      0xffffffffffffffffffffffffffffffffffffffff\n      and\n        /* \"Arbitrage.sol\":1088:1127  IDEXRouter router = routers[dexAddress] */\n      swap1\n      pop\n        /* \"Arbitrage.sol\":1173:1174  0 */\n      0x00\n        /* \"Arbitrage.sol\":1146:1175  address(router) != address(0) */\n      0xffffffffffffffffffffffffffffffffffffffff\n      and\n        /* \"Arbitrage.sol\":1154:1160  router */\n      dup2\n        /* \"Arbitrage.sol\":1146:1175  address(router) != address(0) */\n      0xffffffffffffffffffffffffffffffffffffffff\n      and\n      sub\n        /* \"Arbitrage.sol\":1138:1194  require(address(router) != address(0), \"Router not set\") */\n      tag_33\n      jumpi\n      mload(0x40)\n      0x08c379a000000000000000000000000000000000000000000000000000000000\n      dup2\n      mstore\n      0x04\n      add\n      tag_34\n      swap1\n      tag_35\n      jump\t// in\n    tag_34:\n      mload(0x40)\n      dup1\n      swap2\n      sub\n      swap1\n      revert\n    tag_33:\n        /* \"Arbitrage.sol\":1222:1226  path */\n      dup5\n      dup5\n        /* \"Arbitrage.sol\":1227:1228  0 */\n      0x00\n        /* \"Arbitrage.sol\":1222:1229  path[0] */\n      dup2\n      dup2\n      lt\n      tag_36\n      jumpi\n      tag_37\n      tag_38\n      jump\t// in\n    tag_37:\n    tag_36:\n      swap1\n      pop\n      0x20\n      mul\n      add\n      0x20\n      dup2\n      add\n      swap1\n      tag_39\n      swap2\n      swap1\n      tag_17\n      jump\t// in\n    tag_39:\n        /* \"Arbitrage.sol\":1215:1238  IERC20(path[0]).approve */\n      0xffffffffffffffffffffffffffffffffffffffff\n      and\n      0x095ea7b3\n        /* \"Arbitrage.sol\":1247:1253  router */\n      dup3\n        /* \"Arbitrage.sol\":1256:1264  amountIn */\n      dup10\n        /* \"Arbitrage.sol\":1215:1265  IERC20(path[0]).approve(address(router), amountIn) */\n      mload(0x40)\n      dup4\n      0xffffffff\n      and\n      0xe0\n      shl\n      dup2\n      mstore\n      0x04\n      add\n      tag_40\n      swap3\n      swap2\n      swap1\n      tag_41\n      jump\t// in\n    tag_40:\n      0x20\n      mload(0x40)\n      dup1\n      dup4\n      sub\n      dup2\n      0x00\n      dup8\n      gas\n      call\n      iszero\n      dup1\n      iszero\n      tag_43\n      jumpi\n      returndatasize\n      0x00\n      dup1\n      returndatacopy\n      revert(0x00, returndatasize)\n    tag_43:\n      pop\n      pop\n      pop\n      pop\n      mload(0x40)\n      returndatasize\n      not(0x1f)\n      0x1f\n      dup3\n      add\n      and\n      dup3\n      add\n      dup1\n      0x40\n      mstore\n      pop\n      dup2\n      add\n      swap1\n      tag_44\n      swap2\n      swap1\n      tag_45\n      jump\t// in\n    tag_44:\n        /* \"Arbitrage.sol\":1207:1285  require(IERC20(path[0]).approve(address(router), amountIn), \"Approval failed\") */\n      tag_46\n      jumpi\n      mload(0x40)\n      0x08c379a000000000000000000000000000000000000000000000000000000000\n      dup2\n      mstore\n      0x04\n      add\n      tag_47\n      swap1\n      tag_48\n      jump\t// in\n    tag_47:\n      mload(0x40)\n      dup1\n      swap2\n      sub\n      swap1\n      revert\n    tag_46:\n        /* \"Arbitrage.sol\":1298:1319  uint[] memory amounts */\n      0x00\n        /* \"Arbitrage.sol\":1322:1328  router */\n      dup2\n        /* \"Arbitrage.sol\":1322:1353  router.swapExactTokensForTokens */\n      0xffffffffffffffffffffffffffffffffffffffff\n      and\n      0x38ed1739\n        /* \"Arbitrage.sol\":1354:1362  amountIn */\n      dup10\n        /* \"Arbitrage.sol\":1364:1376  amountOutMin */\n      dup10\n        /* \"Arbitrage.sol\":1378:1382  path */\n      dup10\n      dup10\n        /* \"Arbitrage.sol\":1392:1396  this */\n      address\n        /* \"Arbitrage.sol\":1399:1407  deadline */\n      dup10\n        /* \"Arbitrage.sol\":1322:1408  router.swapExactTokensForTokens(amountIn, amountOutMin, path, address(this), deadline) */\n      mload(0x40)\n      dup8\n      0xffffffff\n      and\n      0xe0\n      shl\n      dup2\n      mstore\n      0x04\n      add\n      tag_49\n      swap7\n      swap6\n      swap5\n      swap4\n      swap3\n      swap2\n      swap1\n      tag_50\n      jump\t// in\n    tag_49:\n      0x00\n      mload(0x40)\n      dup1\n      dup4\n      sub\n      dup2\n      0x00\n      dup8\n      gas\n      call\n      iszero\n      dup1\n      iszero\n      tag_52\n      jumpi\n      returndatasize\n      0x00\n      dup1\n      returndatacopy\n      revert(0x00, returndatasize)\n    tag_52:\n      pop\n      pop\n      pop\n      pop\n      mload(0x40)\n      returndatasize\n      0x00\n      dup3\n      returndatacopy\n      returndatasize\n      not(0x1f)\n      0x1f\n      dup3\n      add\n      and\n      dup3\n      add\n      dup1\n      0x40\n      mstore\n      pop\n      dup2\n      add\n      swap1\n      tag_53\n      swap2\n      swap1\n      tag_54\n      jump\t// in\n    tag_53:\n        /* \"Arbitrage.sol\":1298:1408  uint[] memory amounts = router.swapExactTokensForTokens(amountIn, amountOutMin, path, address(this), deadline) */\n      swap1\n      pop\n        /* \"Arbitrage.sol\":1458:1470  amountOutMin */\n      dup7\n        /* \"Arbitrage.sol\":1427:1434  amounts */\n      dup2\n        /* \"Arbitrage.sol\":1452:1453  1 */\n      0x01\n        /* \"Arbitrage.sol\":1435:1442  amounts */\n      dup4\n        /* \"Arbitrage.sol\":1435:1449  amounts.length */\n      mload\n        /* \"Arbitrage.sol\":1435:1453  amounts.length - 1 */\n      tag_55\n      swap2\n      swap1\n      tag_56\n      jump\t// in\n    tag_55:\n        /* \"Arbitrage.sol\":1427:1454  amounts[amounts.length - 1] */\n      dup2\n      mload\n      dup2\n      lt\n      tag_57\n      jumpi\n      tag_58\n      tag_38\n      jump\t// in\n    tag_58:\n    tag_57:\n      0x20\n      mul\n      0x20\n      add\n      add\n      mload\n        /* \"Arbitrage.sol\":1427:1470  amounts[amounts.length - 1] >= amountOutMin */\n      lt\n      iszero\n        /* \"Arbitrage.sol\":1419:1516  require(amounts[amounts.length - 1] >= amountOutMin, \"Arbitrage failed to meet profit threshold\") */\n      tag_59\n      jumpi\n      mload(0x40)\n      0x08c379a000000000000000000000000000000000000000000000000000000000\n      dup2\n      mstore\n      0x04\n      add\n      tag_60\n      swap1\n      tag_61\n      jump\t// in\n    tag_60:\n      mload(0x40)\n      dup1\n      swap2\n      sub\n      swap1\n      revert\n    tag_59:\n        /* \"Arbitrage.sol\":1592:1610  uint256 totalFunds */\n      0x00\n        /* \"Arbitrage.sol\":1620:1624  path */\n      dup7\n      dup7\n        /* \"Arbitrage.sol\":1639:1640  1 */\n      0x01\n        /* \"Arbitrage.sol\":1625:1629  path */\n      dup10\n      dup10\n        /* \"Arbitrage.sol\":1625:1636  path.length */\n      swap1\n      pop\n        /* \"Arbitrage.sol\":1625:1640  path.length - 1 */\n      tag_62\n      swap2\n      swap1\n      tag_56\n      jump\t// in\n    tag_62:\n        /* \"Arbitrage.sol\":1620:1641  path[path.length - 1] */\n      dup2\n      dup2\n      lt\n      tag_63\n      jumpi\n      tag_64\n      tag_38\n      jump\t// in\n    tag_64:\n    tag_63:\n      swap1\n      pop\n      0x20\n      mul\n      add\n      0x20\n      dup2\n      add\n      swap1\n      tag_65\n      swap2\n      swap1\n      tag_17\n      jump\t// in\n    tag_65:\n        /* \"Arbitrage.sol\":1613:1652  IERC20(path[path.length - 1]).balanceOf */\n      0xffffffffffffffffffffffffffffffffffffffff\n      and\n      0x70a08231\n        /* \"Arbitrage.sol\":1661:1665  this */\n      address\n        /* \"Arbitrage.sol\":1613:1667  IERC20(path[path.length - 1]).balanceOf(address(this)) */\n      mload(0x40)\n      dup3\n      0xffffffff\n      and\n      0xe0\n      shl\n      dup2\n      mstore\n      0x04\n      add\n      tag_66\n      swap2\n      swap1\n      tag_24\n      jump\t// in\n    tag_66:\n      0x20\n      mload(0x40)\n      dup1\n      dup4\n      sub\n      dup2\n      dup7\n      gas\n      staticcall\n      iszero\n      dup1\n      iszero\n      tag_68\n      jumpi\n      returndatasize\n      0x00\n      dup1\n      returndatacopy\n      revert(0x00, returndatasize)\n    tag_68:\n      pop\n      pop\n      pop\n      pop\n      mload(0x40)\n      returndatasize\n      not(0x1f)\n      0x1f\n      dup3\n      add\n      and\n      dup3\n      add\n      dup1\n      0x40\n      mstore\n      pop\n      dup2\n      add\n      swap1\n      tag_69\n      swap2\n      swap1\n      tag_70\n      jump\t// in\n    tag_69:\n        /* \"Arbitrage.sol\":1592:1667  uint256 totalFunds = IERC20(path[path.length - 1]).balanceOf(address(this)) */\n      swap1\n      pop\n        /* \"Arbitrage.sol\":1685:1689  path */\n      dup7\n      dup7\n        /* \"Arbitrage.sol\":1704:1705  1 */\n      0x01\n        /* \"Arbitrage.sol\":1690:1694  path */\n      dup10\n      dup10\n        /* \"Arbitrage.sol\":1690:1701  path.length */\n      swap1\n      pop\n        /* \"Arbitrage.sol\":1690:1705  path.length - 1 */\n      tag_71\n      swap2\n      swap1\n      tag_56\n      jump\t// in\n    tag_71:\n        /* \"Arbitrage.sol\":1685:1706  path[path.length - 1] */\n      dup2\n      dup2\n      lt\n      tag_72\n      jumpi\n      tag_73\n      tag_38\n      jump\t// in\n    tag_73:\n    tag_72:\n      swap1\n      pop\n      0x20\n      mul\n      add\n      0x20\n      dup2\n      add\n      swap1\n      tag_74\n      swap2\n      swap1\n      tag_17\n      jump\t// in\n    tag_74:\n        /* \"Arbitrage.sol\":1678:1716  IERC20(path[path.length - 1]).transfer */\n      0xffffffffffffffffffffffffffffffffffffffff\n      and\n      0xa9059cbb\n        /* \"Arbitrage.sol\":1717:1727  msg.sender */\n      caller\n        /* \"Arbitrage.sol\":1729:1739  totalFunds */\n      dup4\n        /* \"Arbitrage.sol\":1678:1740  IERC20(path[path.length - 1]).transfer(msg.sender, totalFunds) */\n      mload(0x40)\n      dup4\n      0xffffffff\n      and\n      0xe0\n      shl\n      dup2\n      mstore\n      0x04\n      add\n      tag_75\n      swap3\n      swap2\n      swap1\n      tag_41\n      jump\t// in\n    tag_75:\n      0x20\n      mload(0x40)\n      dup1\n      dup4\n      sub\n      dup2\n      0x00\n      dup8\n      gas\n      call\n      iszero\n      dup1\n      iszero\n      tag_77\n      jumpi\n      returndatasize\n      0x00\n      dup1\n      returndatacopy\n      revert(0x00, returndatasize)\n    tag_77:\n      pop\n      pop\n      pop\n      pop\n      mload(0x40)\n      returndatasize\n      not(0x1f)\n      0x1f\n      dup3\n      add\n      and\n      dup3\n      add\n      dup1\n      0x40\n      mstore\n      pop\n      dup2\n      add\n      swap1\n      tag_78\n      swap2\n      swap1\n      tag_45\n      jump\t// in\n    tag_78:\n      pop\n        /* \"Arbitrage.sol\":1077:1797  {... */\n      pop\n      pop\n      pop\n        /* \"@openzeppelin/contracts/security/ReentrancyGuard.sol\":2303:2323  _nonReentrantAfter() */\n      tag_79\n        /* \"@openzeppelin/contracts/security/ReentrancyGuard.sol\":2303:2321  _nonReentrantAfter */\n      tag_80\n        /* \"@openzeppelin/contracts/security/ReentrancyGuard.sol\":2303:2323  _nonReentrantAfter() */\n      jump\t// in\n    tag_79:\n        /* \"Arbitrage.sol\":927:1797  function setupArbitrage(uint amountIn, uint amountOutMin, address[] calldata path, address dexAddress, uint deadline) external onlyOwner nonReentrant {... */\n      pop\n      pop\n      pop\n      pop\n      pop\n      pop\n      jump\t// out\n        /* \"Arbitrage.sol\":697:828  function setRouter(address dexAddress, address router) public onlyOwner {... */\n    tag_14:\n        /* \"Arbitrage.sol\":650:655  owner */\n      immutable(\"0x04e57633024368235fc5219bfb9802814291d3a7b9a68d0aeb7bd3d297ac474e\")\n        /* \"Arbitrage.sol\":636:655  msg.sender == owner */\n      0xffffffffffffffffffffffffffffffffffffffff\n      and\n        /* \"Arbitrage.sol\":636:646  msg.sender */\n      caller\n        /* \"Arbitrage.sol\":636:655  msg.sender == owner */\n      0xffffffffffffffffffffffffffffffffffffffff\n      and\n      eq\n        /* \"Arbitrage.sol\":628:669  require(msg.sender == owner, \"Not owner\") */\n      tag_82\n      jumpi\n      mload(0x40)\n      0x08c379a000000000000000000000000000000000000000000000000000000000\n      dup2\n      mstore\n      0x04\n      add\n      tag_83\n      swap1\n      tag_28\n      jump\t// in\n    tag_83:\n      mload(0x40)\n      dup1\n      swap2\n      sub\n      swap1\n      revert\n    tag_82:\n        /* \"Arbitrage.sol\":813:819  router */\n      dup1\n        /* \"Arbitrage.sol\":780:787  routers */\n      0x01\n        /* \"Arbitrage.sol\":780:799  routers[dexAddress] */\n      0x00\n        /* \"Arbitrage.sol\":788:798  dexAddress */\n      dup5\n        /* \"Arbitrage.sol\":780:799  routers[dexAddress] */\n      0xffffffffffffffffffffffffffffffffffffffff\n      and\n      0xffffffffffffffffffffffffffffffffffffffff\n      and\n      dup2\n      mstore\n      0x20\n      add\n      swap1\n      dup2\n      mstore\n      0x20\n      add\n      0x00\n      keccak256\n      0x00\n        /* \"Arbitrage.sol\":780:820  routers[dexAddress] = IDEXRouter(router) */\n      0x0100\n      exp\n      dup2\n      sload\n      dup2\n      0xffffffffffffffffffffffffffffffffffffffff\n      mul\n      not\n      and\n      swap1\n      dup4\n      0xffffffffffffffffffffffffffffffffffffffff\n      and\n      mul\n      or\n      swap1\n      sstore\n      pop\n        /* \"Arbitrage.sol\":697:828  function setRouter(address dexAddress, address router) public onlyOwner {... */\n      pop\n      pop\n      jump\t// out\n        /* \"Arbitrage.sol\":483:528  mapping(address => IDEXRouter) public routers */\n    tag_18:\n      mstore(0x20, 0x01)\n      dup1\n      0x00\n      mstore\n      keccak256(0x00, 0x40)\n      0x00\n      swap2\n      pop\n      sload\n      swap1\n      0x0100\n      exp\n      swap1\n      div\n      0xffffffffffffffffffffffffffffffffffffffff\n      and\n      dup2\n      jump\t// out\n        /* \"Arbitrage.sol\":446:476  address public immutable owner */\n    tag_22:\n      immutable(\"0x04e57633024368235fc5219bfb9802814291d3a7b9a68d0aeb7bd3d297ac474e\")\n      dup2\n      jump\t// out\n        /* \"@openzeppelin/contracts/security/ReentrancyGuard.sol\":2336:2623  function _nonReentrantBefore() private {... */\n    tag_31:\n        /* \"@openzeppelin/contracts/security/ReentrancyGuard.sol\":1759:1760  2 */\n      0x02\n        /* \"@openzeppelin/contracts/security/ReentrancyGuard.sol\":2468:2475  _status */\n      sload(0x00)\n        /* \"@openzeppelin/contracts/security/ReentrancyGuard.sol\":2468:2487  _status != _ENTERED */\n      sub\n        /* \"@openzeppelin/contracts/security/ReentrancyGuard.sol\":2460:2523  require(_status != _ENTERED, \"ReentrancyGuard: reentrant call\") */\n      tag_86\n      jumpi\n      mload(0x40)\n      0x08c379a000000000000000000000000000000000000000000000000000000000\n      dup2\n      mstore\n      0x04\n      add\n      tag_87\n      swap1\n      tag_88\n      jump\t// in\n    tag_87:\n      mload(0x40)\n      dup1\n      swap2\n      sub\n      swap1\n      revert\n    tag_86:\n        /* \"@openzeppelin/contracts/security/ReentrancyGuard.sol\":1759:1760  2 */\n      0x02\n        /* \"@openzeppelin/contracts/security/ReentrancyGuard.sol\":2598:2605  _status */\n      0x00\n        /* \"@openzeppelin/contracts/security/ReentrancyGuard.sol\":2598:2616  _status = _ENTERED */\n      dup2\n      swap1\n      sstore\n      pop\n        /* \"@openzeppelin/contracts/security/ReentrancyGuard.sol\":2336:2623  function _nonReentrantBefore() private {... */\n      jump\t// out\n        /* \"@openzeppelin/contracts/security/ReentrancyGuard.sol\":2629:2838  function _nonReentrantAfter() private {... */\n    tag_80:\n        /* \"@openzeppelin/contracts/security/ReentrancyGuard.sol\":1716:1717  1 */\n      0x01\n        /* \"@openzeppelin/contracts/security/ReentrancyGuard.sol\":2809:2816  _status */\n      0x00\n        /* \"@openzeppelin/contracts/security/ReentrancyGuard.sol\":2809:2831  _status = _NOT_ENTERED */\n      dup2\n      swap1\n      sstore\n      pop\n        /* \"@openzeppelin/contracts/security/ReentrancyGuard.sol\":2629:2838  function _nonReentrantAfter() private {... */\n      jump\t// out\n        /* \"#utility.yul\":7:82   */\n    tag_90:\n        /* \"#utility.yul\":40:46   */\n      0x00\n        /* \"#utility.yul\":73:75   */\n      0x40\n        /* \"#utility.yul\":67:76   */\n      mload\n        /* \"#utility.yul\":57:76   */\n      swap1\n      pop\n        /* \"#utility.yul\":7:82   */\n      swap1\n      jump\t// out\n        /* \"#utility.yul\":88:205   */\n    tag_91:\n        /* \"#utility.yul\":197:198   */\n      0x00\n        /* \"#utility.yul\":194:195   */\n      dup1\n        /* \"#utility.yul\":187:199   */\n      revert\n        /* \"#utility.yul\":211:328   */\n    tag_92:\n        /* \"#utility.yul\":320:321   */\n      0x00\n        /* \"#utility.yul\":317:318   */\n      dup1\n        /* \"#utility.yul\":310:322   */\n      revert\n        /* \"#utility.yul\":334:411   */\n    tag_93:\n        /* \"#utility.yul\":371:378   */\n      0x00\n        /* \"#utility.yul\":400:405   */\n      dup2\n        /* \"#utility.yul\":389:405   */\n      swap1\n      pop\n        /* \"#utility.yul\":334:411   */\n      swap2\n      swap1\n      pop\n      jump\t// out\n        /* \"#utility.yul\":417:539   */\n    tag_94:\n        /* \"#utility.yul\":490:514   */\n      tag_147\n        /* \"#utility.yul\":508:513   */\n      dup2\n        /* \"#utility.yul\":490:514   */\n      tag_93\n      jump\t// in\n    tag_147:\n        /* \"#utility.yul\":483:488   */\n      dup2\n        /* \"#utility.yul\":480:515   */\n      eq\n        /* \"#utility.yul\":470:533   */\n      tag_148\n      jumpi\n        /* \"#utility.yul\":529:530   */\n      0x00\n        /* \"#utility.yul\":526:527   */\n      dup1\n        /* \"#utility.yul\":519:531   */\n      revert\n        /* \"#utility.yul\":470:533   */\n    tag_148:\n        /* \"#utility.yul\":417:539   */\n      pop\n      jump\t// out\n        /* \"#utility.yul\":545:684   */\n    tag_95:\n        /* \"#utility.yul\":591:596   */\n      0x00\n        /* \"#utility.yul\":629:635   */\n      dup2\n        /* \"#utility.yul\":616:636   */\n      calldataload\n        /* \"#utility.yul\":607:636   */\n      swap1\n      pop\n        /* \"#utility.yul\":645:678   */\n      tag_150\n        /* \"#utility.yul\":672:677   */\n      dup2\n        /* \"#utility.yul\":645:678   */\n      tag_94\n      jump\t// in\n    tag_150:\n        /* \"#utility.yul\":545:684   */\n      swap3\n      swap2\n      pop\n      pop\n      jump\t// out\n        /* \"#utility.yul\":690:807   */\n    tag_96:\n        /* \"#utility.yul\":799:800   */\n      0x00\n        /* \"#utility.yul\":796:797   */\n      dup1\n        /* \"#utility.yul\":789:801   */\n      revert\n        /* \"#utility.yul\":813:930   */\n    tag_97:\n        /* \"#utility.yul\":922:923   */\n      0x00\n        /* \"#utility.yul\":919:920   */\n      dup1\n        /* \"#utility.yul\":912:924   */\n      revert\n        /* \"#utility.yul\":936:1053   */\n    tag_98:\n        /* \"#utility.yul\":1045:1046   */\n      0x00\n        /* \"#utility.yul\":1042:1043   */\n      dup1\n        /* \"#utility.yul\":1035:1047   */\n      revert\n        /* \"#utility.yul\":1076:1644   */\n    tag_99:\n        /* \"#utility.yul\":1149:1157   */\n      0x00\n        /* \"#utility.yul\":1159:1165   */\n      dup1\n        /* \"#utility.yul\":1209:1212   */\n      dup4\n        /* \"#utility.yul\":1202:1206   */\n      0x1f\n        /* \"#utility.yul\":1194:1200   */\n      dup5\n        /* \"#utility.yul\":1190:1207   */\n      add\n        /* \"#utility.yul\":1186:1213   */\n      slt\n        /* \"#utility.yul\":1176:1298   */\n      tag_155\n      jumpi\n        /* \"#utility.yul\":1217:1296   */\n      tag_156\n      tag_96\n      jump\t// in\n    tag_156:\n        /* \"#utility.yul\":1176:1298   */\n    tag_155:\n        /* \"#utility.yul\":1330:1336   */\n      dup3\n        /* \"#utility.yul\":1317:1337   */\n      calldataload\n        /* \"#utility.yul\":1307:1337   */\n      swap1\n      pop\n        /* \"#utility.yul\":1360:1378   */\n      0xffffffffffffffff\n        /* \"#utility.yul\":1352:1358   */\n      dup2\n        /* \"#utility.yul\":1349:1379   */\n      gt\n        /* \"#utility.yul\":1346:1463   */\n      iszero\n      tag_157\n      jumpi\n        /* \"#utility.yul\":1382:1461   */\n      tag_158\n      tag_97\n      jump\t// in\n    tag_158:\n        /* \"#utility.yul\":1346:1463   */\n    tag_157:\n        /* \"#utility.yul\":1496:1500   */\n      0x20\n        /* \"#utility.yul\":1488:1494   */\n      dup4\n        /* \"#utility.yul\":1484:1501   */\n      add\n        /* \"#utility.yul\":1472:1501   */\n      swap2\n      pop\n        /* \"#utility.yul\":1550:1553   */\n      dup4\n        /* \"#utility.yul\":1542:1546   */\n      0x20\n        /* \"#utility.yul\":1534:1540   */\n      dup3\n        /* \"#utility.yul\":1530:1547   */\n      mul\n        /* \"#utility.yul\":1520:1528   */\n      dup4\n        /* \"#utility.yul\":1516:1548   */\n      add\n        /* \"#utility.yul\":1513:1554   */\n      gt\n        /* \"#utility.yul\":1510:1638   */\n      iszero\n      tag_159\n      jumpi\n        /* \"#utility.yul\":1557:1636   */\n      tag_160\n      tag_98\n      jump\t// in\n    tag_160:\n        /* \"#utility.yul\":1510:1638   */\n    tag_159:\n        /* \"#utility.yul\":1076:1644   */\n      swap3\n      pop\n      swap3\n      swap1\n      pop\n      jump\t// out\n        /* \"#utility.yul\":1650:1776   */\n    tag_100:\n        /* \"#utility.yul\":1687:1694   */\n      0x00\n        /* \"#utility.yul\":1727:1769   */\n      0xffffffffffffffffffffffffffffffffffffffff\n        /* \"#utility.yul\":1720:1725   */\n      dup3\n        /* \"#utility.yul\":1716:1770   */\n      and\n        /* \"#utility.yul\":1705:1770   */\n      swap1\n      pop\n        /* \"#utility.yul\":1650:1776   */\n      swap2\n      swap1\n      pop\n      jump\t// out\n        /* \"#utility.yul\":1782:1878   */\n    tag_101:\n        /* \"#utility.yul\":1819:1826   */\n      0x00\n        /* \"#utility.yul\":1848:1872   */\n      tag_163\n        /* \"#utility.yul\":1866:1871   */\n      dup3\n        /* \"#utility.yul\":1848:1872   */\n      tag_100\n      jump\t// in\n    tag_163:\n        /* \"#utility.yul\":1837:1872   */\n      swap1\n      pop\n        /* \"#utility.yul\":1782:1878   */\n      swap2\n      swap1\n      pop\n      jump\t// out\n        /* \"#utility.yul\":1884:2006   */\n    tag_102:\n        /* \"#utility.yul\":1957:1981   */\n      tag_165\n        /* \"#utility.yul\":1975:1980   */\n      dup2\n        /* \"#utility.yul\":1957:1981   */\n      tag_101\n      jump\t// in\n    tag_165:\n        /* \"#utility.yul\":1950:1955   */\n      dup2\n        /* \"#utility.yul\":1947:1982   */\n      eq\n        /* \"#utility.yul\":1937:2000   */\n      tag_166\n      jumpi\n        /* \"#utility.yul\":1996:1997   */\n      0x00\n        /* \"#utility.yul\":1993:1994   */\n      dup1\n        /* \"#utility.yul\":1986:1998   */\n      revert\n        /* \"#utility.yul\":1937:2000   */\n    tag_166:\n        /* \"#utility.yul\":1884:2006   */\n      pop\n      jump\t// out\n        /* \"#utility.yul\":2012:2151   */\n    tag_103:\n        /* \"#utility.yul\":2058:2063   */\n      0x00\n        /* \"#utility.yul\":2096:2102   */\n      dup2\n        /* \"#utility.yul\":2083:2103   */\n      calldataload\n        /* \"#utility.yul\":2074:2103   */\n      swap1\n      pop\n        /* \"#utility.yul\":2112:2145   */\n      tag_168\n        /* \"#utility.yul\":2139:2144   */\n      dup2\n        /* \"#utility.yul\":2112:2145   */\n      tag_102\n      jump\t// in\n    tag_168:\n        /* \"#utility.yul\":2012:2151   */\n      swap3\n      swap2\n      pop\n      pop\n      jump\t// out\n        /* \"#utility.yul\":2157:3298   */\n    tag_9:\n        /* \"#utility.yul\":2279:2285   */\n      0x00\n        /* \"#utility.yul\":2287:2293   */\n      dup1\n        /* \"#utility.yul\":2295:2301   */\n      0x00\n        /* \"#utility.yul\":2303:2309   */\n      dup1\n        /* \"#utility.yul\":2311:2317   */\n      0x00\n        /* \"#utility.yul\":2319:2325   */\n      dup1\n        /* \"#utility.yul\":2368:2371   */\n      0xa0\n        /* \"#utility.yul\":2356:2365   */\n      dup8\n        /* \"#utility.yul\":2347:2354   */\n      dup10\n        /* \"#utility.yul\":2343:2366   */\n      sub\n        /* \"#utility.yul\":2339:2372   */\n      slt\n        /* \"#utility.yul\":2336:2456   */\n      iszero\n      tag_170\n      jumpi\n        /* \"#utility.yul\":2375:2454   */\n      tag_171\n      tag_91\n      jump\t// in\n    tag_171:\n        /* \"#utility.yul\":2336:2456   */\n    tag_170:\n        /* \"#utility.yul\":2495:2496   */\n      0x00\n        /* \"#utility.yul\":2520:2573   */\n      tag_172\n        /* \"#utility.yul\":2565:2572   */\n      dup10\n        /* \"#utility.yul\":2556:2562   */\n      dup3\n        /* \"#utility.yul\":2545:2554   */\n      dup11\n        /* \"#utility.yul\":2541:2563   */\n      add\n        /* \"#utility.yul\":2520:2573   */\n      tag_95\n      jump\t// in\n    tag_172:\n        /* \"#utility.yul\":2510:2573   */\n      swap7\n      pop\n        /* \"#utility.yul\":2466:2583   */\n      pop\n        /* \"#utility.yul\":2622:2624   */\n      0x20\n        /* \"#utility.yul\":2648:2701   */\n      tag_173\n        /* \"#utility.yul\":2693:2700   */\n      dup10\n        /* \"#utility.yul\":2684:2690   */\n      dup3\n        /* \"#utility.yul\":2673:2682   */\n      dup11\n        /* \"#utility.yul\":2669:2691   */\n      add\n        /* \"#utility.yul\":2648:2701   */\n      tag_95\n      jump\t// in\n    tag_173:\n        /* \"#utility.yul\":2638:2701   */\n      swap6\n      pop\n        /* \"#utility.yul\":2593:2711   */\n      pop\n        /* \"#utility.yul\":2778:2780   */\n      0x40\n        /* \"#utility.yul\":2767:2776   */\n      dup8\n        /* \"#utility.yul\":2763:2781   */\n      add\n        /* \"#utility.yul\":2750:2782   */\n      calldataload\n        /* \"#utility.yul\":2809:2827   */\n      0xffffffffffffffff\n        /* \"#utility.yul\":2801:2807   */\n      dup2\n        /* \"#utility.yul\":2798:2828   */\n      gt\n        /* \"#utility.yul\":2795:2912   */\n      iszero\n      tag_174\n      jumpi\n        /* \"#utility.yul\":2831:2910   */\n      tag_175\n      tag_92\n      jump\t// in\n    tag_175:\n        /* \"#utility.yul\":2795:2912   */\n    tag_174:\n        /* \"#utility.yul\":2944:3024   */\n      tag_176\n        /* \"#utility.yul\":3016:3023   */\n      dup10\n        /* \"#utility.yul\":3007:3013   */\n      dup3\n        /* \"#utility.yul\":2996:3005   */\n      dup11\n        /* \"#utility.yul\":2992:3014   */\n      add\n        /* \"#utility.yul\":2944:3024   */\n      tag_99\n      jump\t// in\n    tag_176:\n        /* \"#utility.yul\":2926:3024   */\n      swap5\n      pop\n      swap5\n      pop\n        /* \"#utility.yul\":2721:3034   */\n      pop\n        /* \"#utility.yul\":3073:3075   */\n      0x60\n        /* \"#utility.yul\":3099:3152   */\n      tag_177\n        /* \"#utility.yul\":3144:3151   */\n      dup10\n        /* \"#utility.yul\":3135:3141   */\n      dup3\n        /* \"#utility.yul\":3124:3133   */\n      dup11\n        /* \"#utility.yul\":3120:3142   */\n      add\n        /* \"#utility.yul\":3099:3152   */\n      tag_103\n      jump\t// in\n    tag_177:\n        /* \"#utility.yul\":3089:3152   */\n      swap3\n      pop\n        /* \"#utility.yul\":3044:3162   */\n      pop\n        /* \"#utility.yul\":3201:3204   */\n      0x80\n        /* \"#utility.yul\":3228:3281   */\n      tag_178\n        /* \"#utility.yul\":3273:3280   */\n      dup10\n        /* \"#utility.yul\":3264:3270   */\n      dup3\n        /* \"#utility.yul\":3253:3262   */\n      dup11\n        /* \"#utility.yul\":3249:3271   */\n      add\n        /* \"#utility.yul\":3228:3281   */\n      tag_95\n      jump\t// in\n    tag_178:\n        /* \"#utility.yul\":3218:3281   */\n      swap2\n      pop\n        /* \"#utility.yul\":3172:3291   */\n      pop\n        /* \"#utility.yul\":2157:3298   */\n      swap3\n      swap6\n      pop\n      swap3\n      swap6\n      pop\n      swap3\n      swap6\n      jump\t// out\n        /* \"#utility.yul\":3304:3778   */\n    tag_13:\n        /* \"#utility.yul\":3372:3378   */\n      0x00\n        /* \"#utility.yul\":3380:3386   */\n      dup1\n        /* \"#utility.yul\":3429:3431   */\n      0x40\n        /* \"#utility.yul\":3417:3426   */\n      dup4\n        /* \"#utility.yul\":3408:3415   */\n      dup6\n        /* \"#utility.yul\":3404:3427   */\n      sub\n        /* \"#utility.yul\":3400:3432   */\n      slt\n        /* \"#utility.yul\":3397:3516   */\n      iszero\n      tag_180\n      jumpi\n        /* \"#utility.yul\":3435:3514   */\n      tag_181\n      tag_91\n      jump\t// in\n    tag_181:\n        /* \"#utility.yul\":3397:3516   */\n    tag_180:\n        /* \"#utility.yul\":3555:3556   */\n      0x00\n        /* \"#utility.yul\":3580:3633   */\n      tag_182\n        /* \"#utility.yul\":3625:3632   */\n      dup6\n        /* \"#utility.yul\":3616:3622   */\n      dup3\n        /* \"#utility.yul\":3605:3614   */\n      dup7\n        /* \"#utility.yul\":3601:3623   */\n      add\n        /* \"#utility.yul\":3580:3633   */\n      tag_103\n      jump\t// in\n    tag_182:\n        /* \"#utility.yul\":3570:3633   */\n      swap3\n      pop\n        /* \"#utility.yul\":3526:3643   */\n      pop\n        /* \"#utility.yul\":3682:3684   */\n      0x20\n        /* \"#utility.yul\":3708:3761   */\n      tag_183\n        /* \"#utility.yul\":3753:3760   */\n      dup6\n        /* \"#utility.yul\":3744:3750   */\n      dup3\n        /* \"#utility.yul\":3733:3742   */\n      dup7\n        /* \"#utility.yul\":3729:3751   */\n      add\n        /* \"#utility.yul\":3708:3761   */\n      tag_103\n      jump\t// in\n    tag_183:\n        /* \"#utility.yul\":3698:3761   */\n      swap2\n      pop\n        /* \"#utility.yul\":3653:3771   */\n      pop\n        /* \"#utility.yul\":3304:3778   */\n      swap3\n      pop\n      swap3\n      swap1\n      pop\n      jump\t// out\n        /* \"#utility.yul\":3784:4113   */\n    tag_17:\n        /* \"#utility.yul\":3843:3849   */\n      0x00\n        /* \"#utility.yul\":3892:3894   */\n      0x20\n        /* \"#utility.yul\":3880:3889   */\n      dup3\n        /* \"#utility.yul\":3871:3878   */\n      dup5\n        /* \"#utility.yul\":3867:3890   */\n      sub\n        /* \"#utility.yul\":3863:3895   */\n      slt\n        /* \"#utility.yul\":3860:3979   */\n      iszero\n      tag_185\n      jumpi\n        /* \"#utility.yul\":3898:3977   */\n      tag_186\n      tag_91\n      jump\t// in\n    tag_186:\n        /* \"#utility.yul\":3860:3979   */\n    tag_185:\n        /* \"#utility.yul\":4018:4019   */\n      0x00\n        /* \"#utility.yul\":4043:4096   */\n      tag_187\n        /* \"#utility.yul\":4088:4095   */\n      dup5\n        /* \"#utility.yul\":4079:4085   */\n      dup3\n        /* \"#utility.yul\":4068:4077   */\n      dup6\n        /* \"#utility.yul\":4064:4086   */\n      add\n        /* \"#utility.yul\":4043:4096   */\n      tag_103\n      jump\t// in\n    tag_187:\n        /* \"#utility.yul\":4033:4096   */\n      swap2\n      pop\n        /* \"#utility.yul\":3989:4106   */\n      pop\n        /* \"#utility.yul\":3784:4113   */\n      swap3\n      swap2\n      pop\n      pop\n      jump\t// out\n        /* \"#utility.yul\":4119:4179   */\n    tag_104:\n        /* \"#utility.yul\":4147:4150   */\n      0x00\n        /* \"#utility.yul\":4168:4173   */\n      dup2\n        /* \"#utility.yul\":4161:4173   */\n      swap1\n      pop\n        /* \"#utility.yul\":4119:4179   */\n      swap2\n      swap1\n      pop\n      jump\t// out\n        /* \"#utility.yul\":4185:4327   */\n    tag_105:\n        /* \"#utility.yul\":4235:4244   */\n      0x00\n        /* \"#utility.yul\":4268:4321   */\n      tag_190\n        /* \"#utility.yul\":4286:4320   */\n      tag_191\n        /* \"#utility.yul\":4295:4319   */\n      tag_192\n        /* \"#utility.yul\":4313:4318   */\n      dup5\n        /* \"#utility.yul\":4295:4319   */\n      tag_100\n      jump\t// in\n    tag_192:\n        /* \"#utility.yul\":4286:4320   */\n      tag_104\n      jump\t// in\n    tag_191:\n        /* \"#utility.yul\":4268:4321   */\n      tag_100\n      jump\t// in\n    tag_190:\n        /* \"#utility.yul\":4255:4321   */\n      swap1\n      pop\n        /* \"#utility.yul\":4185:4327   */\n      swap2\n      swap1\n      pop\n      jump\t// out\n        /* \"#utility.yul\":4333:4459   */\n    tag_106:\n        /* \"#utility.yul\":4383:4392   */\n      0x00\n        /* \"#utility.yul\":4416:4453   */\n      tag_194\n        /* \"#utility.yul\":4447:4452   */\n      dup3\n        /* \"#utility.yul\":4416:4453   */\n      tag_105\n      jump\t// in\n    tag_194:\n        /* \"#utility.yul\":4403:4453   */\n      swap1\n      pop\n        /* \"#utility.yul\":4333:4459   */\n      swap2\n      swap1\n      pop\n      jump\t// out\n        /* \"#utility.yul\":4465:4608   */\n    tag_107:\n        /* \"#utility.yul\":4532:4541   */\n      0x00\n        /* \"#utility.yul\":4565:4602   */\n      tag_196\n        /* \"#utility.yul\":4596:4601   */\n      dup3\n        /* \"#utility.yul\":4565:4602   */\n      tag_106\n      jump\t// in\n    tag_196:\n        /* \"#utility.yul\":4552:4602   */\n      swap1\n      pop\n        /* \"#utility.yul\":4465:4608   */\n      swap2\n      swap1\n      pop\n      jump\t// out\n        /* \"#utility.yul\":4614:4779   */\n    tag_108:\n        /* \"#utility.yul\":4718:4772   */\n      tag_198\n        /* \"#utility.yul\":4766:4771   */\n      dup2\n        /* \"#utility.yul\":4718:4772   */\n      tag_107\n      jump\t// in\n    tag_198:\n        /* \"#utility.yul\":4713:4716   */\n      dup3\n        /* \"#utility.yul\":4706:4773   */\n      mstore\n        /* \"#utility.yul\":4614:4779   */\n      pop\n      pop\n      jump\t// out\n        /* \"#utility.yul\":4785:5041   */\n    tag_20:\n        /* \"#utility.yul\":4895:4899   */\n      0x00\n        /* \"#utility.yul\":4933:4935   */\n      0x20\n        /* \"#utility.yul\":4922:4931   */\n      dup3\n        /* \"#utility.yul\":4918:4936   */\n      add\n        /* \"#utility.yul\":4910:4936   */\n      swap1\n      pop\n        /* \"#utility.yul\":4946:5034   */\n      tag_200\n        /* \"#utility.yul\":5031:5032   */\n      0x00\n        /* \"#utility.yul\":5020:5029   */\n      dup4\n        /* \"#utility.yul\":5016:5033   */\n      add\n        /* \"#utility.yul\":5007:5013   */\n      dup5\n        /* \"#utility.yul\":4946:5034   */\n      tag_108\n      jump\t// in\n    tag_200:\n        /* \"#utility.yul\":4785:5041   */\n      swap3\n      swap2\n      pop\n      pop\n      jump\t// out\n        /* \"#utility.yul\":5047:5165   */\n    tag_109:\n        /* \"#utility.yul\":5134:5158   */\n      tag_202\n        /* \"#utility.yul\":5152:5157   */\n      dup2\n        /* \"#utility.yul\":5134:5158   */\n      tag_101\n      jump\t// in\n    tag_202:\n        /* \"#utility.yul\":5129:5132   */\n      dup3\n        /* \"#utility.yul\":5122:5159   */\n      mstore\n        /* \"#utility.yul\":5047:5165   */\n      pop\n      pop\n      jump\t// out\n        /* \"#utility.yul\":5171:5393   */\n    tag_24:\n        /* \"#utility.yul\":5264:5268   */\n      0x00\n        /* \"#utility.yul\":5302:5304   */\n      0x20\n        /* \"#utility.yul\":5291:5300   */\n      dup3\n        /* \"#utility.yul\":5287:5305   */\n      add\n        /* \"#utility.yul\":5279:5305   */\n      swap1\n      pop\n        /* \"#utility.yul\":5315:5386   */\n      tag_204\n        /* \"#utility.yul\":5383:5384   */\n      0x00\n        /* \"#utility.yul\":5372:5381   */\n      dup4\n        /* \"#utility.yul\":5368:5385   */\n      add\n        /* \"#utility.yul\":5359:5365   */\n      dup5\n        /* \"#utility.yul\":5315:5386   */\n      tag_109\n      jump\t// in\n    tag_204:\n        /* \"#utility.yul\":5171:5393   */\n      swap3\n      swap2\n      pop\n      pop\n      jump\t// out\n        /* \"#utility.yul\":5399:5568   */\n    tag_110:\n        /* \"#utility.yul\":5483:5494   */\n      0x00\n        /* \"#utility.yul\":5517:5523   */\n      dup3\n        /* \"#utility.yul\":5512:5515   */\n      dup3\n        /* \"#utility.yul\":5505:5524   */\n      mstore\n        /* \"#utility.yul\":5557:5561   */\n      0x20\n        /* \"#utility.yul\":5552:5555   */\n      dup3\n        /* \"#utility.yul\":5548:5562   */\n      add\n        /* \"#utility.yul\":5533:5562   */\n      swap1\n      pop\n        /* \"#utility.yul\":5399:5568   */\n      swap3\n      swap2\n      pop\n      pop\n      jump\t// out\n        /* \"#utility.yul\":5574:5733   */\n    tag_111:\n        /* \"#utility.yul\":5714:5725   */\n      0x4e6f74206f776e65720000000000000000000000000000000000000000000000\n        /* \"#utility.yul\":5710:5711   */\n      0x00\n        /* \"#utility.yul\":5702:5708   */\n      dup3\n        /* \"#utility.yul\":5698:5712   */\n      add\n        /* \"#utility.yul\":5691:5726   */\n      mstore\n        /* \"#utility.yul\":5574:5733   */\n      pop\n      jump\t// out\n        /* \"#utility.yul\":5739:6104   */\n    tag_112:\n        /* \"#utility.yul\":5881:5884   */\n      0x00\n        /* \"#utility.yul\":5902:5968   */\n      tag_208\n        /* \"#utility.yul\":5966:5967   */\n      0x09\n        /* \"#utility.yul\":5961:5964   */\n      dup4\n        /* \"#utility.yul\":5902:5968   */\n      tag_110\n      jump\t// in\n    tag_208:\n        /* \"#utility.yul\":5895:5968   */\n      swap2\n      pop\n        /* \"#utility.yul\":5977:6070   */\n      tag_209\n        /* \"#utility.yul\":6066:6069   */\n      dup3\n        /* \"#utility.yul\":5977:6070   */\n      tag_111\n      jump\t// in\n    tag_209:\n        /* \"#utility.yul\":6095:6097   */\n      0x20\n        /* \"#utility.yul\":6090:6093   */\n      dup3\n        /* \"#utility.yul\":6086:6098   */\n      add\n        /* \"#utility.yul\":6079:6098   */\n      swap1\n      pop\n        /* \"#utility.yul\":5739:6104   */\n      swap2\n      swap1\n      pop\n      jump\t// out\n        /* \"#utility.yul\":6110:6529   */\n    tag_28:\n        /* \"#utility.yul\":6276:6280   */\n      0x00\n        /* \"#utility.yul\":6314:6316   */\n      0x20\n        /* \"#utility.yul\":6303:6312   */\n      dup3\n        /* \"#utility.yul\":6299:6317   */\n      add\n        /* \"#utility.yul\":6291:6317   */\n      swap1\n      pop\n        /* \"#utility.yul\":6363:6372   */\n      dup2\n        /* \"#utility.yul\":6357:6361   */\n      dup2\n        /* \"#utility.yul\":6353:6373   */\n      sub\n        /* \"#utility.yul\":6349:6350   */\n      0x00\n        /* \"#utility.yul\":6338:6347   */\n      dup4\n        /* \"#utility.yul\":6334:6351   */\n      add\n        /* \"#utility.yul\":6327:6374   */\n      mstore\n        /* \"#utility.yul\":6391:6522   */\n      tag_211\n        /* \"#utility.yul\":6517:6521   */\n      dup2\n        /* \"#utility.yul\":6391:6522   */\n      tag_112\n      jump\t// in\n    tag_211:\n        /* \"#utility.yul\":6383:6522   */\n      swap1\n      pop\n        /* \"#utility.yul\":6110:6529   */\n      swap2\n      swap1\n      pop\n      jump\t// out\n        /* \"#utility.yul\":6535:6699   */\n    tag_113:\n        /* \"#utility.yul\":6675:6691   */\n      0x526f75746572206e6f7420736574000000000000000000000000000000000000\n        /* \"#utility.yul\":6671:6672   */\n      0x00\n        /* \"#utility.yul\":6663:6669   */\n      dup3\n        /* \"#utility.yul\":6659:6673   */\n      add\n        /* \"#utility.yul\":6652:6692   */\n      mstore\n        /* \"#utility.yul\":6535:6699   */\n      pop\n      jump\t// out\n        /* \"#utility.yul\":6705:7071   */\n    tag_114:\n        /* \"#utility.yul\":6847:6850   */\n      0x00\n        /* \"#utility.yul\":6868:6935   */\n      tag_214\n        /* \"#utility.yul\":6932:6934   */\n      0x0e\n        /* \"#utility.yul\":6927:6930   */\n      dup4\n        /* \"#utility.yul\":6868:6935   */\n      tag_110\n      jump\t// in\n    tag_214:\n        /* \"#utility.yul\":6861:6935   */\n      swap2\n      pop\n        /* \"#utility.yul\":6944:7037   */\n      tag_215\n        /* \"#utility.yul\":7033:7036   */\n      dup3\n        /* \"#utility.yul\":6944:7037   */\n      tag_113\n      jump\t// in\n    tag_215:\n        /* \"#utility.yul\":7062:7064   */\n      0x20\n        /* \"#utility.yul\":7057:7060   */\n      dup3\n        /* \"#utility.yul\":7053:7065   */\n      add\n        /* \"#utility.yul\":7046:7065   */\n      swap1\n      pop\n        /* \"#utility.yul\":6705:7071   */\n      swap2\n      swap1\n      pop\n      jump\t// out\n        /* \"#utility.yul\":7077:7496   */\n    tag_35:\n        /* \"#utility.yul\":7243:7247   */\n      0x00\n        /* \"#utility.yul\":7281:7283   */\n      0x20\n        /* \"#utility.yul\":7270:7279   */\n      dup3\n        /* \"#utility.yul\":7266:7284   */\n      add\n        /* \"#utility.yul\":7258:7284   */\n      swap1\n      pop\n        /* \"#utility.yul\":7330:7339   */\n      dup2\n        /* \"#utility.yul\":7324:7328   */\n      dup2\n        /* \"#utility.yul\":7320:7340   */\n      sub\n        /* \"#utility.yul\":7316:7317   */\n      0x00\n        /* \"#utility.yul\":7305:7314   */\n      dup4\n        /* \"#utility.yul\":7301:7318   */\n      add\n        /* \"#utility.yul\":7294:7341   */\n      mstore\n        /* \"#utility.yul\":7358:7489   */\n      tag_217\n        /* \"#utility.yul\":7484:7488   */\n      dup2\n        /* \"#utility.yul\":7358:7489   */\n      tag_114\n      jump\t// in\n    tag_217:\n        /* \"#utility.yul\":7350:7489   */\n      swap1\n      pop\n        /* \"#utility.yul\":7077:7496   */\n      swap2\n      swap1\n      pop\n      jump\t// out\n        /* \"#utility.yul\":7502:7682   */\n    tag_38:\n        /* \"#utility.yul\":7550:7627   */\n      0x4e487b7100000000000000000000000000000000000000000000000000000000\n        /* \"#utility.yul\":7547:7548   */\n      0x00\n        /* \"#utility.yul\":7540:7628   */\n      mstore\n        /* \"#utility.yul\":7647:7651   */\n      0x32\n        /* \"#utility.yul\":7644:7645   */\n      0x04\n        /* \"#utility.yul\":7637:7652   */\n      mstore\n        /* \"#utility.yul\":7671:7675   */\n      0x24\n        /* \"#utility.yul\":7668:7669   */\n      0x00\n        /* \"#utility.yul\":7661:7676   */\n      revert\n        /* \"#utility.yul\":7688:7806   */\n    tag_115:\n        /* \"#utility.yul\":7775:7799   */\n      tag_220\n        /* \"#utility.yul\":7793:7798   */\n      dup2\n        /* \"#utility.yul\":7775:7799   */\n      tag_93\n      jump\t// in\n    tag_220:\n        /* \"#utility.yul\":7770:7773   */\n      dup3\n        /* \"#utility.yul\":7763:7800   */\n      mstore\n        /* \"#utility.yul\":7688:7806   */\n      pop\n      pop\n      jump\t// out\n        /* \"#utility.yul\":7812:8144   */\n    tag_41:\n        /* \"#utility.yul\":7933:7937   */\n      0x00\n        /* \"#utility.yul\":7971:7973   */\n      0x40\n        /* \"#utility.yul\":7960:7969   */\n      dup3\n        /* \"#utility.yul\":7956:7974   */\n      add\n        /* \"#utility.yul\":7948:7974   */\n      swap1\n      pop\n        /* \"#utility.yul\":7984:8055   */\n      tag_222\n        /* \"#utility.yul\":8052:8053   */\n      0x00\n        /* \"#utility.yul\":8041:8050   */\n      dup4\n        /* \"#utility.yul\":8037:8054   */\n      add\n        /* \"#utility.yul\":8028:8034   */\n      dup6\n        /* \"#utility.yul\":7984:8055   */\n      tag_109\n      jump\t// in\n    tag_222:\n        /* \"#utility.yul\":8065:8137   */\n      tag_223\n        /* \"#utility.yul\":8133:8135   */\n      0x20\n        /* \"#utility.yul\":8122:8131   */\n      dup4\n        /* \"#utility.yul\":8118:8136   */\n      add\n        /* \"#utility.yul\":8109:8115   */\n      dup5\n        /* \"#utility.yul\":8065:8137   */\n      tag_115\n      jump\t// in\n    tag_223:\n        /* \"#utility.yul\":7812:8144   */\n      swap4\n      swap3\n      pop\n      pop\n      pop\n      jump\t// out\n        /* \"#utility.yul\":8150:8240   */\n    tag_116:\n        /* \"#utility.yul\":8184:8191   */\n      0x00\n        /* \"#utility.yul\":8227:8232   */\n      dup2\n        /* \"#utility.yul\":8220:8233   */\n      iszero\n        /* \"#utility.yul\":8213:8234   */\n      iszero\n        /* \"#utility.yul\":8202:8234   */\n      swap1\n      pop\n        /* \"#utility.yul\":8150:8240   */\n      swap2\n      swap1\n      pop\n      jump\t// out\n        /* \"#utility.yul\":8246:8362   */\n    tag_117:\n        /* \"#utility.yul\":8316:8337   */\n      tag_226\n        /* \"#utility.yul\":8331:8336   */\n      dup2\n        /* \"#utility.yul\":8316:8337   */\n      tag_116\n      jump\t// in\n    tag_226:\n        /* \"#utility.yul\":8309:8314   */\n      dup2\n        /* \"#utility.yul\":8306:8338   */\n      eq\n        /* \"#utility.yul\":8296:8356   */\n      tag_227\n      jumpi\n        /* \"#utility.yul\":8352:8353   */\n      0x00\n        /* \"#utility.yul\":8349:8350   */\n      dup1\n        /* \"#utility.yul\":8342:8354   */\n      revert\n        /* \"#utility.yul\":8296:8356   */\n    tag_227:\n        /* \"#utility.yul\":8246:8362   */\n      pop\n      jump\t// out\n        /* \"#utility.yul\":8368:8505   */\n    tag_118:\n        /* \"#utility.yul\":8422:8427   */\n      0x00\n        /* \"#utility.yul\":8453:8459   */\n      dup2\n        /* \"#utility.yul\":8447:8460   */\n      mload\n        /* \"#utility.yul\":8438:8460   */\n      swap1\n      pop\n        /* \"#utility.yul\":8469:8499   */\n      tag_229\n        /* \"#utility.yul\":8493:8498   */\n      dup2\n        /* \"#utility.yul\":8469:8499   */\n      tag_117\n      jump\t// in\n    tag_229:\n        /* \"#utility.yul\":8368:8505   */\n      swap3\n      swap2\n      pop\n      pop\n      jump\t// out\n        /* \"#utility.yul\":8511:8856   */\n    tag_45:\n        /* \"#utility.yul\":8578:8584   */\n      0x00\n        /* \"#utility.yul\":8627:8629   */\n      0x20\n        /* \"#utility.yul\":8615:8624   */\n      dup3\n        /* \"#utility.yul\":8606:8613   */\n      dup5\n        /* \"#utility.yul\":8602:8625   */\n      sub\n        /* \"#utility.yul\":8598:8630   */\n      slt\n        /* \"#utility.yul\":8595:8714   */\n      iszero\n      tag_231\n      jumpi\n        /* \"#utility.yul\":8633:8712   */\n      tag_232\n      tag_91\n      jump\t// in\n    tag_232:\n        /* \"#utility.yul\":8595:8714   */\n    tag_231:\n        /* \"#utility.yul\":8753:8754   */\n      0x00\n        /* \"#utility.yul\":8778:8839   */\n      tag_233\n        /* \"#utility.yul\":8831:8838   */\n      dup5\n        /* \"#utility.yul\":8822:8828   */\n      dup3\n        /* \"#utility.yul\":8811:8820   */\n      dup6\n        /* \"#utility.yul\":8807:8829   */\n      add\n        /* \"#utility.yul\":8778:8839   */\n      tag_118\n      jump\t// in\n    tag_233:\n        /* \"#utility.yul\":8768:8839   */\n      swap2\n      pop\n        /* \"#utility.yul\":8724:8849   */\n      pop\n        /* \"#utility.yul\":8511:8856   */\n      swap3\n      swap2\n      pop\n      pop\n      jump\t// out\n        /* \"#utility.yul\":8862:9027   */\n    tag_119:\n        /* \"#utility.yul\":9002:9019   */\n      0x417070726f76616c206661696c65640000000000000000000000000000000000\n        /* \"#utility.yul\":8998:8999   */\n      0x00\n        /* \"#utility.yul\":8990:8996   */\n      dup3\n        /* \"#utility.yul\":8986:9000   */\n      add\n        /* \"#utility.yul\":8979:9020   */\n      mstore\n        /* \"#utility.yul\":8862:9027   */\n      pop\n      jump\t// out\n        /* \"#utility.yul\":9033:9399   */\n    tag_120:\n        /* \"#utility.yul\":9175:9178   */\n      0x00\n        /* \"#utility.yul\":9196:9263   */\n      tag_236\n        /* \"#utility.yul\":9260:9262   */\n      0x0f\n        /* \"#utility.yul\":9255:9258   */\n      dup4\n        /* \"#utility.yul\":9196:9263   */\n      tag_110\n      jump\t// in\n    tag_236:\n        /* \"#utility.yul\":9189:9263   */\n      swap2\n      pop\n        /* \"#utility.yul\":9272:9365   */\n      tag_237\n        /* \"#utility.yul\":9361:9364   */\n      dup3\n        /* \"#utility.yul\":9272:9365   */\n      tag_119\n      jump\t// in\n    tag_237:\n        /* \"#utility.yul\":9390:9392   */\n      0x20\n        /* \"#utility.yul\":9385:9388   */\n      dup3\n        /* \"#utility.yul\":9381:9393   */\n      add\n        /* \"#utility.yul\":9374:9393   */\n      swap1\n      pop\n        /* \"#utility.yul\":9033:9399   */\n      swap2\n      swap1\n      pop\n      jump\t// out\n        /* \"#utility.yul\":9405:9824   */\n    tag_48:\n        /* \"#utility.yul\":9571:9575   */\n      0x00\n        /* \"#utility.yul\":9609:9611   */\n      0x20\n        /* \"#utility.yul\":9598:9607   */\n      dup3\n        /* \"#utility.yul\":9594:9612   */\n      add\n        /* \"#utility.yul\":9586:9612   */\n      swap1\n      pop\n        /* \"#utility.yul\":9658:9667   */\n      dup2\n        /* \"#utility.yul\":9652:9656   */\n      dup2\n        /* \"#utility.yul\":9648:9668   */\n      sub\n        /* \"#utility.yul\":9644:9645   */\n      0x00\n        /* \"#utility.yul\":9633:9642   */\n      dup4\n        /* \"#utility.yul\":9629:9646   */\n      add\n        /* \"#utility.yul\":9622:9669   */\n      mstore\n        /* \"#utility.yul\":9686:9817   */\n      tag_239\n        /* \"#utility.yul\":9812:9816   */\n      dup2\n        /* \"#utility.yul\":9686:9817   */\n      tag_120\n      jump\t// in\n    tag_239:\n        /* \"#utility.yul\":9678:9817   */\n      swap1\n      pop\n        /* \"#utility.yul\":9405:9824   */\n      swap2\n      swap1\n      pop\n      jump\t// out\n        /* \"#utility.yul\":9830:10014   */\n    tag_121:\n        /* \"#utility.yul\":9929:9940   */\n      0x00\n        /* \"#utility.yul\":9963:9969   */\n      dup3\n        /* \"#utility.yul\":9958:9961   */\n      dup3\n        /* \"#utility.yul\":9951:9970   */\n      mstore\n        /* \"#utility.yul\":10003:10007   */\n      0x20\n        /* \"#utility.yul\":9998:10001   */\n      dup3\n        /* \"#utility.yul\":9994:10008   */\n      add\n        /* \"#utility.yul\":9979:10008   */\n      swap1\n      pop\n        /* \"#utility.yul\":9830:10014   */\n      swap3\n      swap2\n      pop\n      pop\n      jump\t// out\n        /* \"#utility.yul\":10020:10122   */\n    tag_122:\n        /* \"#utility.yul\":10089:10093   */\n      0x00\n        /* \"#utility.yul\":10112:10115   */\n      dup2\n        /* \"#utility.yul\":10104:10115   */\n      swap1\n      pop\n        /* \"#utility.yul\":10020:10122   */\n      swap2\n      swap1\n      pop\n      jump\t// out\n        /* \"#utility.yul\":10128:10236   */\n    tag_123:\n        /* \"#utility.yul\":10205:10229   */\n      tag_243\n        /* \"#utility.yul\":10223:10228   */\n      dup2\n        /* \"#utility.yul\":10205:10229   */\n      tag_101\n      jump\t// in\n    tag_243:\n        /* \"#utility.yul\":10200:10203   */\n      dup3\n        /* \"#utility.yul\":10193:10230   */\n      mstore\n        /* \"#utility.yul\":10128:10236   */\n      pop\n      pop\n      jump\t// out\n        /* \"#utility.yul\":10242:10421   */\n    tag_124:\n        /* \"#utility.yul\":10311:10321   */\n      0x00\n        /* \"#utility.yul\":10332:10378   */\n      tag_245\n        /* \"#utility.yul\":10374:10377   */\n      dup4\n        /* \"#utility.yul\":10366:10372   */\n      dup4\n        /* \"#utility.yul\":10332:10378   */\n      tag_123\n      jump\t// in\n    tag_245:\n        /* \"#utility.yul\":10410:10414   */\n      0x20\n        /* \"#utility.yul\":10405:10408   */\n      dup4\n        /* \"#utility.yul\":10401:10415   */\n      add\n        /* \"#utility.yul\":10387:10415   */\n      swap1\n      pop\n        /* \"#utility.yul\":10242:10421   */\n      swap3\n      swap2\n      pop\n      pop\n      jump\t// out\n        /* \"#utility.yul\":10427:10549   */\n    tag_125:\n        /* \"#utility.yul\":10479:10484   */\n      0x00\n        /* \"#utility.yul\":10504:10543   */\n      tag_247\n        /* \"#utility.yul\":10539:10541   */\n      0x20\n        /* \"#utility.yul\":10534:10537   */\n      dup5\n        /* \"#utility.yul\":10530:10542   */\n      add\n        /* \"#utility.yul\":10525:10528   */\n      dup5\n        /* \"#utility.yul\":10504:10543   */\n      tag_103\n      jump\t// in\n    tag_247:\n        /* \"#utility.yul\":10495:10543   */\n      swap1\n      pop\n        /* \"#utility.yul\":10427:10549   */\n      swap3\n      swap2\n      pop\n      pop\n      jump\t// out\n        /* \"#utility.yul\":10555:10670   */\n    tag_126:\n        /* \"#utility.yul\":10627:10631   */\n      0x00\n        /* \"#utility.yul\":10659:10663   */\n      0x20\n        /* \"#utility.yul\":10654:10657   */\n      dup3\n        /* \"#utility.yul\":10650:10664   */\n      add\n        /* \"#utility.yul\":10642:10664   */\n      swap1\n      pop\n        /* \"#utility.yul\":10555:10670   */\n      swap2\n      swap1\n      pop\n      jump\t// out\n        /* \"#utility.yul\":10706:11405   */\n    tag_127:\n        /* \"#utility.yul\":10835:10838   */\n      0x00\n        /* \"#utility.yul\":10858:10944   */\n      tag_250\n        /* \"#utility.yul\":10937:10943   */\n      dup4\n        /* \"#utility.yul\":10932:10935   */\n      dup6\n        /* \"#utility.yul\":10858:10944   */\n      tag_121\n      jump\t// in\n    tag_250:\n        /* \"#utility.yul\":10851:10944   */\n      swap4\n      pop\n        /* \"#utility.yul\":10968:11026   */\n      tag_251\n        /* \"#utility.yul\":11020:11025   */\n      dup3\n        /* \"#utility.yul\":10968:11026   */\n      tag_122\n      jump\t// in\n    tag_251:\n        /* \"#utility.yul\":11049:11056   */\n      dup1\n        /* \"#utility.yul\":11080:11081   */\n      0x00\n        /* \"#utility.yul\":11065:11380   */\n    tag_252:\n        /* \"#utility.yul\":11090:11096   */\n      dup6\n        /* \"#utility.yul\":11087:11088   */\n      dup2\n        /* \"#utility.yul\":11084:11097   */\n      lt\n        /* \"#utility.yul\":11065:11380   */\n      iszero\n      tag_254\n      jumpi\n        /* \"#utility.yul\":11160:11202   */\n      tag_255\n        /* \"#utility.yul\":11195:11201   */\n      dup3\n        /* \"#utility.yul\":11186:11193   */\n      dup5\n        /* \"#utility.yul\":11160:11202   */\n      tag_125\n      jump\t// in\n    tag_255:\n        /* \"#utility.yul\":11222:11285   */\n      tag_256\n        /* \"#utility.yul\":11281:11284   */\n      dup9\n        /* \"#utility.yul\":11266:11279   */\n      dup3\n        /* \"#utility.yul\":11222:11285   */\n      tag_124\n      jump\t// in\n    tag_256:\n        /* \"#utility.yul\":11215:11285   */\n      swap8\n      pop\n        /* \"#utility.yul\":11308:11370   */\n      tag_257\n        /* \"#utility.yul\":11363:11369   */\n      dup4\n        /* \"#utility.yul\":11308:11370   */\n      tag_126\n      jump\t// in\n    tag_257:\n        /* \"#utility.yul\":11298:11370   */\n      swap3\n      pop\n        /* \"#utility.yul\":11125:11380   */\n      pop\n        /* \"#utility.yul\":11112:11113   */\n      0x01\n        /* \"#utility.yul\":11109:11110   */\n      dup2\n        /* \"#utility.yul\":11105:11114   */\n      add\n        /* \"#utility.yul\":11100:11114   */\n      swap1\n      pop\n        /* \"#utility.yul\":11065:11380   */\n      jump(tag_252)\n    tag_254:\n        /* \"#utility.yul\":11069:11083   */\n      pop\n        /* \"#utility.yul\":11396:11399   */\n      dup6\n        /* \"#utility.yul\":11389:11399   */\n      swap3\n      pop\n        /* \"#utility.yul\":10840:11405   */\n      pop\n      pop\n        /* \"#utility.yul\":10706:11405   */\n      swap4\n      swap3\n      pop\n      pop\n      pop\n      jump\t// out\n        /* \"#utility.yul\":11411:12246   */\n    tag_50:\n        /* \"#utility.yul\":11676:11680   */\n      0x00\n        /* \"#utility.yul\":11714:11717   */\n      0xa0\n        /* \"#utility.yul\":11703:11712   */\n      dup3\n        /* \"#utility.yul\":11699:11718   */\n      add\n        /* \"#utility.yul\":11691:11718   */\n      swap1\n      pop\n        /* \"#utility.yul\":11728:11799   */\n      tag_259\n        /* \"#utility.yul\":11796:11797   */\n      0x00\n        /* \"#utility.yul\":11785:11794   */\n      dup4\n        /* \"#utility.yul\":11781:11798   */\n      add\n        /* \"#utility.yul\":11772:11778   */\n      dup10\n        /* \"#utility.yul\":11728:11799   */\n      tag_115\n      jump\t// in\n    tag_259:\n        /* \"#utility.yul\":11809:11881   */\n      tag_260\n        /* \"#utility.yul\":11877:11879   */\n      0x20\n        /* \"#utility.yul\":11866:11875   */\n      dup4\n        /* \"#utility.yul\":11862:11880   */\n      add\n        /* \"#utility.yul\":11853:11859   */\n      dup9\n        /* \"#utility.yul\":11809:11881   */\n      tag_115\n      jump\t// in\n    tag_260:\n        /* \"#utility.yul\":11928:11937   */\n      dup2\n        /* \"#utility.yul\":11922:11926   */\n      dup2\n        /* \"#utility.yul\":11918:11938   */\n      sub\n        /* \"#utility.yul\":11913:11915   */\n      0x40\n        /* \"#utility.yul\":11902:11911   */\n      dup4\n        /* \"#utility.yul\":11898:11916   */\n      add\n        /* \"#utility.yul\":11891:11939   */\n      mstore\n        /* \"#utility.yul\":11956:12074   */\n      tag_261\n        /* \"#utility.yul\":12069:12073   */\n      dup2\n        /* \"#utility.yul\":12060:12066   */\n      dup7\n        /* \"#utility.yul\":12052:12058   */\n      dup9\n        /* \"#utility.yul\":11956:12074   */\n      tag_127\n      jump\t// in\n    tag_261:\n        /* \"#utility.yul\":11948:12074   */\n      swap1\n      pop\n        /* \"#utility.yul\":12084:12156   */\n      tag_262\n        /* \"#utility.yul\":12152:12154   */\n      0x60\n        /* \"#utility.yul\":12141:12150   */\n      dup4\n        /* \"#utility.yul\":12137:12155   */\n      add\n        /* \"#utility.yul\":12128:12134   */\n      dup6\n        /* \"#utility.yul\":12084:12156   */\n      tag_109\n      jump\t// in\n    tag_262:\n        /* \"#utility.yul\":12166:12239   */\n      tag_263\n        /* \"#utility.yul\":12234:12237   */\n      0x80\n        /* \"#utility.yul\":12223:12232   */\n      dup4\n        /* \"#utility.yul\":12219:12238   */\n      add\n        /* \"#utility.yul\":12210:12216   */\n      dup5\n        /* \"#utility.yul\":12166:12239   */\n      tag_115\n      jump\t// in\n    tag_263:\n        /* \"#utility.yul\":11411:12246   */\n      swap8\n      swap7\n      pop\n      pop\n      pop\n      pop\n      pop\n      pop\n      pop\n      jump\t// out\n        /* \"#utility.yul\":12252:12354   */\n    tag_128:\n        /* \"#utility.yul\":12293:12299   */\n      0x00\n        /* \"#utility.yul\":12344:12346   */\n      0x1f\n        /* \"#utility.yul\":12340:12347   */\n      not\n        /* \"#utility.yul\":12335:12337   */\n      0x1f\n        /* \"#utility.yul\":12328:12333   */\n      dup4\n        /* \"#utility.yul\":12324:12338   */\n      add\n        /* \"#utility.yul\":12320:12348   */\n      and\n        /* \"#utility.yul\":12310:12348   */\n      swap1\n      pop\n        /* \"#utility.yul\":12252:12354   */\n      swap2\n      swap1\n      pop\n      jump\t// out\n        /* \"#utility.yul\":12360:12540   */\n    tag_129:\n        /* \"#utility.yul\":12408:12485   */\n      0x4e487b7100000000000000000000000000000000000000000000000000000000\n        /* \"#utility.yul\":12405:12406   */\n      0x00\n        /* \"#utility.yul\":12398:12486   */\n      mstore\n        /* \"#utility.yul\":12505:12509   */\n      0x41\n        /* \"#utility.yul\":12502:12503   */\n      0x04\n        /* \"#utility.yul\":12495:12510   */\n      mstore\n        /* \"#utility.yul\":12529:12533   */\n      0x24\n        /* \"#utility.yul\":12526:12527   */\n      0x00\n        /* \"#utility.yul\":12519:12534   */\n      revert\n        /* \"#utility.yul\":12546:12827   */\n    tag_130:\n        /* \"#utility.yul\":12629:12656   */\n      tag_267\n        /* \"#utility.yul\":12651:12655   */\n      dup3\n        /* \"#utility.yul\":12629:12656   */\n      tag_128\n      jump\t// in\n    tag_267:\n        /* \"#utility.yul\":12621:12627   */\n      dup2\n        /* \"#utility.yul\":12617:12657   */\n      add\n        /* \"#utility.yul\":12759:12765   */\n      dup2\n        /* \"#utility.yul\":12747:12757   */\n      dup2\n        /* \"#utility.yul\":12744:12766   */\n      lt\n        /* \"#utility.yul\":12723:12741   */\n      0xffffffffffffffff\n        /* \"#utility.yul\":12711:12721   */\n      dup3\n        /* \"#utility.yul\":12708:12742   */\n      gt\n        /* \"#utility.yul\":12705:12767   */\n      or\n        /* \"#utility.yul\":12702:12790   */\n      iszero\n      tag_268\n      jumpi\n        /* \"#utility.yul\":12770:12788   */\n      tag_269\n      tag_129\n      jump\t// in\n    tag_269:\n        /* \"#utility.yul\":12702:12790   */\n    tag_268:\n        /* \"#utility.yul\":12810:12820   */\n      dup1\n        /* \"#utility.yul\":12806:12808   */\n      0x40\n        /* \"#utility.yul\":12799:12821   */\n      mstore\n        /* \"#utility.yul\":12589:12827   */\n      pop\n        /* \"#utility.yul\":12546:12827   */\n      pop\n      pop\n      jump\t// out\n        /* \"#utility.yul\":12833:12962   */\n    tag_131:\n        /* \"#utility.yul\":12867:12873   */\n      0x00\n        /* \"#utility.yul\":12894:12914   */\n      tag_271\n      tag_90\n      jump\t// in\n    tag_271:\n        /* \"#utility.yul\":12884:12914   */\n      swap1\n      pop\n        /* \"#utility.yul\":12923:12956   */\n      tag_272\n        /* \"#utility.yul\":12951:12955   */\n      dup3\n        /* \"#utility.yul\":12943:12949   */\n      dup3\n        /* \"#utility.yul\":12923:12956   */\n      tag_130\n      jump\t// in\n    tag_272:\n        /* \"#utility.yul\":12833:12962   */\n      swap2\n      swap1\n      pop\n      jump\t// out\n        /* \"#utility.yul\":12968:13279   */\n    tag_132:\n        /* \"#utility.yul\":13045:13049   */\n      0x00\n        /* \"#utility.yul\":13135:13153   */\n      0xffffffffffffffff\n        /* \"#utility.yul\":13127:13133   */\n      dup3\n        /* \"#utility.yul\":13124:13154   */\n      gt\n        /* \"#utility.yul\":13121:13177   */\n      iszero\n      tag_274\n      jumpi\n        /* \"#utility.yul\":13157:13175   */\n      tag_275\n      tag_129\n      jump\t// in\n    tag_275:\n        /* \"#utility.yul\":13121:13177   */\n    tag_274:\n        /* \"#utility.yul\":13207:13211   */\n      0x20\n        /* \"#utility.yul\":13199:13205   */\n      dup3\n        /* \"#utility.yul\":13195:13212   */\n      mul\n        /* \"#utility.yul\":13187:13212   */\n      swap1\n      pop\n        /* \"#utility.yul\":13267:13271   */\n      0x20\n        /* \"#utility.yul\":13261:13265   */\n      dup2\n        /* \"#utility.yul\":13257:13272   */\n      add\n        /* \"#utility.yul\":13249:13272   */\n      swap1\n      pop\n        /* \"#utility.yul\":12968:13279   */\n      swap2\n      swap1\n      pop\n      jump\t// out\n        /* \"#utility.yul\":13285:13428   */\n    tag_133:\n        /* \"#utility.yul\":13342:13347   */\n      0x00\n        /* \"#utility.yul\":13373:13379   */\n      dup2\n        /* \"#utility.yul\":13367:13380   */\n      mload\n        /* \"#utility.yul\":13358:13380   */\n      swap1\n      pop\n        /* \"#utility.yul\":13389:13422   */\n      tag_277\n        /* \"#utility.yul\":13416:13421   */\n      dup2\n        /* \"#utility.yul\":13389:13422   */\n      tag_94\n      jump\t// in\n    tag_277:\n        /* \"#utility.yul\":13285:13428   */\n      swap3\n      swap2\n      pop\n      pop\n      jump\t// out\n        /* \"#utility.yul\":13451:14183   */\n    tag_134:\n        /* \"#utility.yul\":13558:13563   */\n      0x00\n        /* \"#utility.yul\":13583:13664   */\n      tag_279\n        /* \"#utility.yul\":13599:13663   */\n      tag_280\n        /* \"#utility.yul\":13656:13662   */\n      dup5\n        /* \"#utility.yul\":13599:13663   */\n      tag_132\n      jump\t// in\n    tag_280:\n        /* \"#utility.yul\":13583:13664   */\n      tag_131\n      jump\t// in\n    tag_279:\n        /* \"#utility.yul\":13574:13664   */\n      swap1\n      pop\n        /* \"#utility.yul\":13684:13689   */\n      dup1\n        /* \"#utility.yul\":13713:13719   */\n      dup4\n        /* \"#utility.yul\":13706:13711   */\n      dup3\n        /* \"#utility.yul\":13699:13720   */\n      mstore\n        /* \"#utility.yul\":13747:13751   */\n      0x20\n        /* \"#utility.yul\":13740:13745   */\n      dup3\n        /* \"#utility.yul\":13736:13752   */\n      add\n        /* \"#utility.yul\":13729:13752   */\n      swap1\n      pop\n        /* \"#utility.yul\":13800:13804   */\n      0x20\n        /* \"#utility.yul\":13792:13798   */\n      dup5\n        /* \"#utility.yul\":13788:13805   */\n      mul\n        /* \"#utility.yul\":13780:13786   */\n      dup4\n        /* \"#utility.yul\":13776:13806   */\n      add\n        /* \"#utility.yul\":13829:13832   */\n      dup6\n        /* \"#utility.yul\":13821:13827   */\n      dup2\n        /* \"#utility.yul\":13818:13833   */\n      gt\n        /* \"#utility.yul\":13815:13937   */\n      iszero\n      tag_281\n      jumpi\n        /* \"#utility.yul\":13848:13927   */\n      tag_282\n      tag_98\n      jump\t// in\n    tag_282:\n        /* \"#utility.yul\":13815:13937   */\n    tag_281:\n        /* \"#utility.yul\":13963:13969   */\n      dup4\n        /* \"#utility.yul\":13946:14177   */\n    tag_283:\n        /* \"#utility.yul\":13980:13986   */\n      dup2\n        /* \"#utility.yul\":13975:13978   */\n      dup2\n        /* \"#utility.yul\":13972:13987   */\n      lt\n        /* \"#utility.yul\":13946:14177   */\n      iszero\n      tag_285\n      jumpi\n        /* \"#utility.yul\":14055:14058   */\n      dup1\n        /* \"#utility.yul\":14084:14132   */\n      tag_286\n        /* \"#utility.yul\":14128:14131   */\n      dup9\n        /* \"#utility.yul\":14116:14126   */\n      dup3\n        /* \"#utility.yul\":14084:14132   */\n      tag_133\n      jump\t// in\n    tag_286:\n        /* \"#utility.yul\":14079:14082   */\n      dup5\n        /* \"#utility.yul\":14072:14133   */\n      mstore\n        /* \"#utility.yul\":14162:14166   */\n      0x20\n        /* \"#utility.yul\":14157:14160   */\n      dup5\n        /* \"#utility.yul\":14153:14167   */\n      add\n        /* \"#utility.yul\":14146:14167   */\n      swap4\n      pop\n        /* \"#utility.yul\":14022:14177   */\n      pop\n        /* \"#utility.yul\":14006:14010   */\n      0x20\n        /* \"#utility.yul\":14001:14004   */\n      dup2\n        /* \"#utility.yul\":13997:14011   */\n      add\n        /* \"#utility.yul\":13990:14011   */\n      swap1\n      pop\n        /* \"#utility.yul\":13946:14177   */\n      jump(tag_283)\n    tag_285:\n        /* \"#utility.yul\":13950:13971   */\n      pop\n        /* \"#utility.yul\":13564:14183   */\n      pop\n      pop\n        /* \"#utility.yul\":13451:14183   */\n      swap4\n      swap3\n      pop\n      pop\n      pop\n      jump\t// out\n        /* \"#utility.yul\":14206:14591   */\n    tag_135:\n        /* \"#utility.yul\":14288:14293   */\n      0x00\n        /* \"#utility.yul\":14337:14340   */\n      dup3\n        /* \"#utility.yul\":14330:14334   */\n      0x1f\n        /* \"#utility.yul\":14322:14328   */\n      dup4\n        /* \"#utility.yul\":14318:14335   */\n      add\n        /* \"#utility.yul\":14314:14341   */\n      slt\n        /* \"#utility.yul\":14304:14426   */\n      tag_288\n      jumpi\n        /* \"#utility.yul\":14345:14424   */\n      tag_289\n      tag_96\n      jump\t// in\n    tag_289:\n        /* \"#utility.yul\":14304:14426   */\n    tag_288:\n        /* \"#utility.yul\":14455:14461   */\n      dup2\n        /* \"#utility.yul\":14449:14462   */\n      mload\n        /* \"#utility.yul\":14480:14585   */\n      tag_290\n        /* \"#utility.yul\":14581:14584   */\n      dup5\n        /* \"#utility.yul\":14573:14579   */\n      dup3\n        /* \"#utility.yul\":14566:14570   */\n      0x20\n        /* \"#utility.yul\":14558:14564   */\n      dup7\n        /* \"#utility.yul\":14554:14571   */\n      add\n        /* \"#utility.yul\":14480:14585   */\n      tag_134\n      jump\t// in\n    tag_290:\n        /* \"#utility.yul\":14471:14585   */\n      swap2\n      pop\n        /* \"#utility.yul\":14294:14591   */\n      pop\n        /* \"#utility.yul\":14206:14591   */\n      swap3\n      swap2\n      pop\n      pop\n      jump\t// out\n        /* \"#utility.yul\":14597:15151   */\n    tag_54:\n        /* \"#utility.yul\":14692:14698   */\n      0x00\n        /* \"#utility.yul\":14741:14743   */\n      0x20\n        /* \"#utility.yul\":14729:14738   */\n      dup3\n        /* \"#utility.yul\":14720:14727   */\n      dup5\n        /* \"#utility.yul\":14716:14739   */\n      sub\n        /* \"#utility.yul\":14712:14744   */\n      slt\n        /* \"#utility.yul\":14709:14828   */\n      iszero\n      tag_292\n      jumpi\n        /* \"#utility.yul\":14747:14826   */\n      tag_293\n      tag_91\n      jump\t// in\n    tag_293:\n        /* \"#utility.yul\":14709:14828   */\n    tag_292:\n        /* \"#utility.yul\":14888:14889   */\n      0x00\n        /* \"#utility.yul\":14877:14886   */\n      dup3\n        /* \"#utility.yul\":14873:14890   */\n      add\n        /* \"#utility.yul\":14867:14891   */\n      mload\n        /* \"#utility.yul\":14918:14936   */\n      0xffffffffffffffff\n        /* \"#utility.yul\":14910:14916   */\n      dup2\n        /* \"#utility.yul\":14907:14937   */\n      gt\n        /* \"#utility.yul\":14904:15021   */\n      iszero\n      tag_294\n      jumpi\n        /* \"#utility.yul\":14940:15019   */\n      tag_295\n      tag_92\n      jump\t// in\n    tag_295:\n        /* \"#utility.yul\":14904:15021   */\n    tag_294:\n        /* \"#utility.yul\":15045:15134   */\n      tag_296\n        /* \"#utility.yul\":15126:15133   */\n      dup5\n        /* \"#utility.yul\":15117:15123   */\n      dup3\n        /* \"#utility.yul\":15106:15115   */\n      dup6\n        /* \"#utility.yul\":15102:15124   */\n      add\n        /* \"#utility.yul\":15045:15134   */\n      tag_135\n      jump\t// in\n    tag_296:\n        /* \"#utility.yul\":15035:15134   */\n      swap2\n      pop\n        /* \"#utility.yul\":14838:15144   */\n      pop\n        /* \"#utility.yul\":14597:15151   */\n      swap3\n      swap2\n      pop\n      pop\n      jump\t// out\n        /* \"#utility.yul\":15157:15337   */\n    tag_136:\n        /* \"#utility.yul\":15205:15282   */\n      0x4e487b7100000000000000000000000000000000000000000000000000000000\n        /* \"#utility.yul\":15202:15203   */\n      0x00\n        /* \"#utility.yul\":15195:15283   */\n      mstore\n        /* \"#utility.yul\":15302:15306   */\n      0x11\n        /* \"#utility.yul\":15299:15300   */\n      0x04\n        /* \"#utility.yul\":15292:15307   */\n      mstore\n        /* \"#utility.yul\":15326:15330   */\n      0x24\n        /* \"#utility.yul\":15323:15324   */\n      0x00\n        /* \"#utility.yul\":15316:15331   */\n      revert\n        /* \"#utility.yul\":15343:15537   */\n    tag_56:\n        /* \"#utility.yul\":15383:15387   */\n      0x00\n        /* \"#utility.yul\":15403:15423   */\n      tag_299\n        /* \"#utility.yul\":15421:15422   */\n      dup3\n        /* \"#utility.yul\":15403:15423   */\n      tag_93\n      jump\t// in\n    tag_299:\n        /* \"#utility.yul\":15398:15423   */\n      swap2\n      pop\n        /* \"#utility.yul\":15437:15457   */\n      tag_300\n        /* \"#utility.yul\":15455:15456   */\n      dup4\n        /* \"#utility.yul\":15437:15457   */\n      tag_93\n      jump\t// in\n    tag_300:\n        /* \"#utility.yul\":15432:15457   */\n      swap3\n      pop\n        /* \"#utility.yul\":15481:15482   */\n      dup3\n        /* \"#utility.yul\":15478:15479   */\n      dup3\n        /* \"#utility.yul\":15474:15483   */\n      sub\n        /* \"#utility.yul\":15466:15483   */\n      swap1\n      pop\n        /* \"#utility.yul\":15505:15506   */\n      dup2\n        /* \"#utility.yul\":15499:15503   */\n      dup2\n        /* \"#utility.yul\":15496:15507   */\n      gt\n        /* \"#utility.yul\":15493:15530   */\n      iszero\n      tag_301\n      jumpi\n        /* \"#utility.yul\":15510:15528   */\n      tag_302\n      tag_136\n      jump\t// in\n    tag_302:\n        /* \"#utility.yul\":15493:15530   */\n    tag_301:\n        /* \"#utility.yul\":15343:15537   */\n      swap3\n      swap2\n      pop\n      pop\n      jump\t// out\n        /* \"#utility.yul\":15543:15771   */\n    tag_137:\n        /* \"#utility.yul\":15683:15717   */\n      0x417262697472616765206661696c656420746f206d6565742070726f66697420\n        /* \"#utility.yul\":15679:15680   */\n      0x00\n        /* \"#utility.yul\":15671:15677   */\n      dup3\n        /* \"#utility.yul\":15667:15681   */\n      add\n        /* \"#utility.yul\":15660:15718   */\n      mstore\n        /* \"#utility.yul\":15752:15763   */\n      0x7468726573686f6c640000000000000000000000000000000000000000000000\n        /* \"#utility.yul\":15747:15749   */\n      0x20\n        /* \"#utility.yul\":15739:15745   */\n      dup3\n        /* \"#utility.yul\":15735:15750   */\n      add\n        /* \"#utility.yul\":15728:15764   */\n      mstore\n        /* \"#utility.yul\":15543:15771   */\n      pop\n      jump\t// out\n        /* \"#utility.yul\":15777:16143   */\n    tag_138:\n        /* \"#utility.yul\":15919:15922   */\n      0x00\n        /* \"#utility.yul\":15940:16007   */\n      tag_305\n        /* \"#utility.yul\":16004:16006   */\n      0x29\n        /* \"#utility.yul\":15999:16002   */\n      dup4\n        /* \"#utility.yul\":15940:16007   */\n      tag_110\n      jump\t// in\n    tag_305:\n        /* \"#utility.yul\":15933:16007   */\n      swap2\n      pop\n        /* \"#utility.yul\":16016:16109   */\n      tag_306\n        /* \"#utility.yul\":16105:16108   */\n      dup3\n        /* \"#utility.yul\":16016:16109   */\n      tag_137\n      jump\t// in\n    tag_306:\n        /* \"#utility.yul\":16134:16136   */\n      0x40\n        /* \"#utility.yul\":16129:16132   */\n      dup3\n        /* \"#utility.yul\":16125:16137   */\n      add\n        /* \"#utility.yul\":16118:16137   */\n      swap1\n      pop\n        /* \"#utility.yul\":15777:16143   */\n      swap2\n      swap1\n      pop\n      jump\t// out\n        /* \"#utility.yul\":16149:16568   */\n    tag_61:\n        /* \"#utility.yul\":16315:16319   */\n      0x00\n        /* \"#utility.yul\":16353:16355   */\n      0x20\n        /* \"#utility.yul\":16342:16351   */\n      dup3\n        /* \"#utility.yul\":16338:16356   */\n      add\n        /* \"#utility.yul\":16330:16356   */\n      swap1\n      pop\n        /* \"#utility.yul\":16402:16411   */\n      dup2\n        /* \"#utility.yul\":16396:16400   */\n      dup2\n        /* \"#utility.yul\":16392:16412   */\n      sub\n        /* \"#utility.yul\":16388:16389   */\n      0x00\n        /* \"#utility.yul\":16377:16386   */\n      dup4\n        /* \"#utility.yul\":16373:16390   */\n      add\n        /* \"#utility.yul\":16366:16413   */\n      mstore\n        /* \"#utility.yul\":16430:16561   */\n      tag_308\n        /* \"#utility.yul\":16556:16560   */\n      dup2\n        /* \"#utility.yul\":16430:16561   */\n      tag_138\n      jump\t// in\n    tag_308:\n        /* \"#utility.yul\":16422:16561   */\n      swap1\n      pop\n        /* \"#utility.yul\":16149:16568   */\n      swap2\n      swap1\n      pop\n      jump\t// out\n        /* \"#utility.yul\":16574:16925   */\n    tag_70:\n        /* \"#utility.yul\":16644:16650   */\n      0x00\n        /* \"#utility.yul\":16693:16695   */\n      0x20\n        /* \"#utility.yul\":16681:16690   */\n      dup3\n        /* \"#utility.yul\":16672:16679   */\n      dup5\n        /* \"#utility.yul\":16668:16691   */\n      sub\n        /* \"#utility.yul\":16664:16696   */\n      slt\n        /* \"#utility.yul\":16661:16780   */\n      iszero\n      tag_310\n      jumpi\n        /* \"#utility.yul\":16699:16778   */\n      tag_311\n      tag_91\n      jump\t// in\n    tag_311:\n        /* \"#utility.yul\":16661:16780   */\n    tag_310:\n        /* \"#utility.yul\":16819:16820   */\n      0x00\n        /* \"#utility.yul\":16844:16908   */\n      tag_312\n        /* \"#utility.yul\":16900:16907   */\n      dup5\n        /* \"#utility.yul\":16891:16897   */\n      dup3\n        /* \"#utility.yul\":16880:16889   */\n      dup6\n        /* \"#utility.yul\":16876:16898   */\n      add\n        /* \"#utility.yul\":16844:16908   */\n      tag_133\n      jump\t// in\n    tag_312:\n        /* \"#utility.yul\":16834:16908   */\n      swap2\n      pop\n        /* \"#utility.yul\":16790:16918   */\n      pop\n        /* \"#utility.yul\":16574:16925   */\n      swap3\n      swap2\n      pop\n      pop\n      jump\t// out\n        /* \"#utility.yul\":16931:17112   */\n    tag_139:\n        /* \"#utility.yul\":17071:17104   */\n      0x5265656e7472616e637947756172643a207265656e7472616e742063616c6c00\n        /* \"#utility.yul\":17067:17068   */\n      0x00\n        /* \"#utility.yul\":17059:17065   */\n      dup3\n        /* \"#utility.yul\":17055:17069   */\n      add\n        /* \"#utility.yul\":17048:17105   */\n      mstore\n        /* \"#utility.yul\":16931:17112   */\n      pop\n      jump\t// out\n        /* \"#utility.yul\":17118:17484   */\n    tag_140:\n        /* \"#utility.yul\":17260:17263   */\n      0x00\n        /* \"#utility.yul\":17281:17348   */\n      tag_315\n        /* \"#utility.yul\":17345:17347   */\n      0x1f\n        /* \"#utility.yul\":17340:17343   */\n      dup4\n        /* \"#utility.yul\":17281:17348   */\n      tag_110\n      jump\t// in\n    tag_315:\n        /* \"#utility.yul\":17274:17348   */\n      swap2\n      pop\n        /* \"#utility.yul\":17357:17450   */\n      tag_316\n        /* \"#utility.yul\":17446:17449   */\n      dup3\n        /* \"#utility.yul\":17357:17450   */\n      tag_139\n      jump\t// in\n    tag_316:\n        /* \"#utility.yul\":17475:17477   */\n      0x20\n        /* \"#utility.yul\":17470:17473   */\n      dup3\n        /* \"#utility.yul\":17466:17478   */\n      add\n        /* \"#utility.yul\":17459:17478   */\n      swap1\n      pop\n        /* \"#utility.yul\":17118:17484   */\n      swap2\n      swap1\n      pop\n      jump\t// out\n        /* \"#utility.yul\":17490:17909   */\n    tag_88:\n        /* \"#utility.yul\":17656:17660   */\n      0x00\n        /* \"#utility.yul\":17694:17696   */\n      0x20\n        /* \"#utility.yul\":17683:17692   */\n      dup3\n        /* \"#utility.yul\":17679:17697   */\n      add\n        /* \"#utility.yul\":17671:17697   */\n      swap1\n      pop\n        /* \"#utility.yul\":17743:17752   */\n      dup2\n        /* \"#utility.yul\":17737:17741   */\n      dup2\n        /* \"#utility.yul\":17733:17753   */\n      sub\n        /* \"#utility.yul\":17729:17730   */\n      0x00\n        /* \"#utility.yul\":17718:17727   */\n      dup4\n        /* \"#utility.yul\":17714:17731   */\n      add\n        /* \"#utility.yul\":17707:17754   */\n      mstore\n        /* \"#utility.yul\":17771:17902   */\n      tag_318\n        /* \"#utility.yul\":17897:17901   */\n      dup2\n        /* \"#utility.yul\":17771:17902   */\n      tag_140\n      jump\t// in\n    tag_318:\n        /* \"#utility.yul\":17763:17902   */\n      swap1\n      pop\n        /* \"#utility.yul\":17490:17909   */\n      swap2\n      swap1\n      pop\n      jump\t// out\n\n    auxdata: 0xa264697066735822122026c637dd451acebcbe1fbe53ba77c98474527dc7752f53a422d08965cf9eb72264736f6c634300081a0033\n}\n",
				"bytecode": {
					"linkReferences": {},
					"object": "60a0604052348015600e575f80fd5b5060015f819055503373ffffffffffffffffffffffffffffffffffffffff1660808173ffffffffffffffffffffffffffffffffffffffff168152505060805161104e61006f5f395f818160d60152818161058401526106c1015261104e5ff3fe608060405234801561000f575f80fd5b506004361061004a575f3560e01c80630b30f3b91461004e57806341d68b8f1461006a57806380dd9a1f146100865780638da5cb5b146100b6575b5f80fd5b61006860048036038101906100639190610838565b6100d4565b005b610084600480360381019061007f91906108ce565b610582565b005b6100a0600480360381019061009b919061090c565b61068f565b6040516100ad9190610992565b60405180910390f35b6100be6106bf565b6040516100cb91906109ba565b60405180910390f35b7f000000000000000000000000000000000000000000000000000000000000000073ffffffffffffffffffffffffffffffffffffffff163373ffffffffffffffffffffffffffffffffffffffff1614610162576040517f08c379a000000000000000000000000000000000000000000000000000000000815260040161015990610a2d565b60405180910390fd5b61016a6106e3565b5f60015f8473ffffffffffffffffffffffffffffffffffffffff1673ffffffffffffffffffffffffffffffffffffffff1681526020019081526020015f205f9054906101000a900473ffffffffffffffffffffffffffffffffffffffff1690505f73ffffffffffffffffffffffffffffffffffffffff168173ffffffffffffffffffffffffffffffffffffffff1603610238576040517f08c379a000000000000000000000000000000000000000000000000000000000815260040161022f90610a95565b60405180910390fd5b84845f81811061024b5761024a610ab3565b5b9050602002016020810190610260919061090c565b73ffffffffffffffffffffffffffffffffffffffff1663095ea7b382896040518363ffffffff1660e01b815260040161029a929190610aef565b6020604051808303815f875af11580156102b6573d5f803e3d5ffd5b505050506040513d601f19601f820116820180604052508101906102da9190610b4b565b610319576040517f08c379a000000000000000000000000000000000000000000000000000000000815260040161031090610bc0565b60405180910390fd5b5f8173ffffffffffffffffffffffffffffffffffffffff166338ed17398989898930896040518763ffffffff1660e01b815260040161035d96959493929190610c9a565b5f604051808303815f875af1158015610378573d5f803e3d5ffd5b505050506040513d5f823e3d601f19601f820116820180604052508101906103a09190610e50565b90508681600183516103b29190610ec4565b815181106103c3576103c2610ab3565b5b6020026020010151101561040c576040517f08c379a000000000000000000000000000000000000000000000000000000000815260040161040390610f67565b60405180910390fd5b5f868660018989905061041f9190610ec4565b81811061042f5761042e610ab3565b5b9050602002016020810190610444919061090c565b73ffffffffffffffffffffffffffffffffffffffff166370a08231306040518263ffffffff1660e01b815260040161047c91906109ba565b602060405180830381865afa158015610497573d5f803e3d5ffd5b505050506040513d601f19601f820116820180604052508101906104bb9190610f85565b905086866001898990506104cf9190610ec4565b8181106104df576104de610ab3565b5b90506020020160208101906104f4919061090c565b73ffffffffffffffffffffffffffffffffffffffff1663a9059cbb33836040518363ffffffff1660e01b815260040161052e929190610aef565b6020604051808303815f875af115801561054a573d5f803e3d5ffd5b505050506040513d601f19601f8201168201806040525081019061056e9190610b4b565b5050505061057a610730565b505050505050565b7f000000000000000000000000000000000000000000000000000000000000000073ffffffffffffffffffffffffffffffffffffffff163373ffffffffffffffffffffffffffffffffffffffff1614610610576040517f08c379a000000000000000000000000000000000000000000000000000000000815260040161060790610a2d565b60405180910390fd5b8060015f8473ffffffffffffffffffffffffffffffffffffffff1673ffffffffffffffffffffffffffffffffffffffff1681526020019081526020015f205f6101000a81548173ffffffffffffffffffffffffffffffffffffffff021916908373ffffffffffffffffffffffffffffffffffffffff1602179055505050565b6001602052805f5260405f205f915054906101000a900473ffffffffffffffffffffffffffffffffffffffff1681565b7f000000000000000000000000000000000000000000000000000000000000000081565b60025f5403610727576040517f08c379a000000000000000000000000000000000000000000000000000000000815260040161071e90610ffa565b60405180910390fd5b60025f81905550565b60015f81905550565b5f604051905090565b5f80fd5b5f80fd5b5f819050919050565b61075c8161074a565b8114610766575f80fd5b50565b5f8135905061077781610753565b92915050565b5f80fd5b5f80fd5b5f80fd5b5f8083601f84011261079e5761079d61077d565b5b8235905067ffffffffffffffff8111156107bb576107ba610781565b5b6020830191508360208202830111156107d7576107d6610785565b5b9250929050565b5f73ffffffffffffffffffffffffffffffffffffffff82169050919050565b5f610807826107de565b9050919050565b610817816107fd565b8114610821575f80fd5b50565b5f813590506108328161080e565b92915050565b5f805f805f8060a0878903121561085257610851610742565b5b5f61085f89828a01610769565b965050602061087089828a01610769565b955050604087013567ffffffffffffffff81111561089157610890610746565b5b61089d89828a01610789565b945094505060606108b089828a01610824565b92505060806108c189828a01610769565b9150509295509295509295565b5f80604083850312156108e4576108e3610742565b5b5f6108f185828601610824565b925050602061090285828601610824565b9150509250929050565b5f6020828403121561092157610920610742565b5b5f61092e84828501610824565b91505092915050565b5f819050919050565b5f61095a610955610950846107de565b610937565b6107de565b9050919050565b5f61096b82610940565b9050919050565b5f61097c82610961565b9050919050565b61098c81610972565b82525050565b5f6020820190506109a55f830184610983565b92915050565b6109b4816107fd565b82525050565b5f6020820190506109cd5f8301846109ab565b92915050565b5f82825260208201905092915050565b7f4e6f74206f776e657200000000000000000000000000000000000000000000005f82015250565b5f610a176009836109d3565b9150610a22826109e3565b602082019050919050565b5f6020820190508181035f830152610a4481610a0b565b9050919050565b7f526f75746572206e6f74207365740000000000000000000000000000000000005f82015250565b5f610a7f600e836109d3565b9150610a8a82610a4b565b602082019050919050565b5f6020820190508181035f830152610aac81610a73565b9050919050565b7f4e487b71000000000000000000000000000000000000000000000000000000005f52603260045260245ffd5b610ae98161074a565b82525050565b5f604082019050610b025f8301856109ab565b610b0f6020830184610ae0565b9392505050565b5f8115159050919050565b610b2a81610b16565b8114610b34575f80fd5b50565b5f81519050610b4581610b21565b92915050565b5f60208284031215610b6057610b5f610742565b5b5f610b6d84828501610b37565b91505092915050565b7f417070726f76616c206661696c656400000000000000000000000000000000005f82015250565b5f610baa600f836109d3565b9150610bb582610b76565b602082019050919050565b5f6020820190508181035f830152610bd781610b9e565b9050919050565b5f82825260208201905092915050565b5f819050919050565b610c00816107fd565b82525050565b5f610c118383610bf7565b60208301905092915050565b5f610c2b6020840184610824565b905092915050565b5f602082019050919050565b5f610c4a8385610bde565b9350610c5582610bee565b805f5b85811015610c8d57610c6a8284610c1d565b610c748882610c06565b9750610c7f83610c33565b925050600181019050610c58565b5085925050509392505050565b5f60a082019050610cad5f830189610ae0565b610cba6020830188610ae0565b8181036040830152610ccd818688610c3f565b9050610cdc60608301856109ab565b610ce96080830184610ae0565b979650505050505050565b5f601f19601f8301169050919050565b7f4e487b71000000000000000000000000000000000000000000000000000000005f52604160045260245ffd5b610d3a82610cf4565b810181811067ffffffffffffffff82111715610d5957610d58610d04565b5b80604052505050565b5f610d6b610739565b9050610d778282610d31565b919050565b5f67ffffffffffffffff821115610d9657610d95610d04565b5b602082029050602081019050919050565b5f81519050610db581610753565b92915050565b5f610dcd610dc884610d7c565b610d62565b90508083825260208201905060208402830185811115610df057610def610785565b5b835b81811015610e195780610e058882610da7565b845260208401935050602081019050610df2565b5050509392505050565b5f82601f830112610e3757610e3661077d565b5b8151610e47848260208601610dbb565b91505092915050565b5f60208284031215610e6557610e64610742565b5b5f82015167ffffffffffffffff811115610e8257610e81610746565b5b610e8e84828501610e23565b91505092915050565b7f4e487b71000000000000000000000000000000000000000000000000000000005f52601160045260245ffd5b5f610ece8261074a565b9150610ed98361074a565b9250828203905081811115610ef157610ef0610e97565b5b92915050565b7f417262697472616765206661696c656420746f206d6565742070726f666974205f8201527f7468726573686f6c640000000000000000000000000000000000000000000000602082015250565b5f610f516029836109d3565b9150610f5c82610ef7565b604082019050919050565b5f6020820190508181035f830152610f7e81610f45565b9050919050565b5f60208284031215610f9a57610f99610742565b5b5f610fa784828501610da7565b91505092915050565b7f5265656e7472616e637947756172643a207265656e7472616e742063616c6c005f82015250565b5f610fe4601f836109d3565b9150610fef82610fb0565b602082019050919050565b5f6020820190508181035f83015261101181610fd8565b905091905056fea264697066735822122026c637dd451acebcbe1fbe53ba77c98474527dc7752f53a422d08965cf9eb72264736f6c634300081a0033",
					"opcodes": "PUSH1 0xA0 PUSH1 0x40 MSTORE CALLVALUE DUP1 ISZERO PUSH1 0xE JUMPI PUSH0 DUP1 REVERT JUMPDEST POP PUSH1 0x1 PUSH0 DUP2 SWAP1 SSTORE POP CALLER PUSH20 0xFFFFFFFFFFFFFFFFFFFFFFFFFFFFFFFFFFFFFFFF AND PUSH1 0x80 DUP2 PUSH20 0xFFFFFFFFFFFFFFFFFFFFFFFFFFFFFFFFFFFFFFFF AND DUP2 MSTORE POP POP PUSH1 0x80 MLOAD PUSH2 0x104E PUSH2 0x6F PUSH0 CODECOPY PUSH0 DUP2 DUP2 PUSH1 0xD6 ADD MSTORE DUP2 DUP2 PUSH2 0x584 ADD MSTORE PUSH2 0x6C1 ADD MSTORE PUSH2 0x104E PUSH0 RETURN INVALID PUSH1 0x80 PUSH1 0x40 MSTORE CALLVALUE DUP1 ISZERO PUSH2 0xF JUMPI PUSH0 DUP1 REVERT JUMPDEST POP PUSH1 0x4 CALLDATASIZE LT PUSH2 0x4A JUMPI PUSH0 CALLDATALOAD PUSH1 0xE0 SHR DUP1 PUSH4 0xB30F3B9 EQ PUSH2 0x4E JUMPI DUP1 PUSH4 0x41D68B8F EQ PUSH2 0x6A JUMPI DUP1 PUSH4 0x80DD9A1F EQ PUSH2 0x86 JUMPI DUP1 PUSH4 0x8DA5CB5B EQ PUSH2 0xB6 JUMPI JUMPDEST PUSH0 DUP1 REVERT JUMPDEST PUSH2 0x68 PUSH1 0x4 DUP1 CALLDATASIZE SUB DUP2 ADD SWAP1 PUSH2 0x63 SWAP2 SWAP1 PUSH2 0x838 JUMP JUMPDEST PUSH2 0xD4 JUMP JUMPDEST STOP JUMPDEST PUSH2 0x84 PUSH1 0x4 DUP1 CALLDATASIZE SUB DUP2 ADD SWAP1 PUSH2 0x7F SWAP2 SWAP1 PUSH2 0x8CE JUMP JUMPDEST PUSH2 0x582 JUMP JUMPDEST STOP JUMPDEST PUSH2 0xA0 PUSH1 0x4 DUP1 CALLDATASIZE SUB DUP2 ADD SWAP1 PUSH2 0x9B SWAP2 SWAP1 PUSH2 0x90C JUMP JUMPDEST PUSH2 0x68F JUMP JUMPDEST PUSH1 0x40 MLOAD PUSH2 0xAD SWAP2 SWAP1 PUSH2 0x992 JUMP JUMPDEST PUSH1 0x40 MLOAD DUP1 SWAP2 SUB SWAP1 RETURN JUMPDEST PUSH2 0xBE PUSH2 0x6BF JUMP JUMPDEST PUSH1 0x40 MLOAD PUSH2 0xCB SWAP2 SWAP1 PUSH2 0x9BA JUMP JUMPDEST PUSH1 0x40 MLOAD DUP1 SWAP2 SUB SWAP1 RETURN JUMPDEST PUSH32 0x0 PUSH20 0xFFFFFFFFFFFFFFFFFFFFFFFFFFFFFFFFFFFFFFFF AND CALLER PUSH20 0xFFFFFFFFFFFFFFFFFFFFFFFFFFFFFFFFFFFFFFFF AND EQ PUSH2 0x162 JUMPI PUSH1 0x40 MLOAD PUSH32 0x8C379A000000000000000000000000000000000000000000000000000000000 DUP2 MSTORE PUSH1 0x4 ADD PUSH2 0x159 SWAP1 PUSH2 0xA2D JUMP JUMPDEST PUSH1 0x40 MLOAD DUP1 SWAP2 SUB SWAP1 REVERT JUMPDEST PUSH2 0x16A PUSH2 0x6E3 JUMP JUMPDEST PUSH0 PUSH1 0x1 PUSH0 DUP5 PUSH20 0xFFFFFFFFFFFFFFFFFFFFFFFFFFFFFFFFFFFFFFFF AND PUSH20 0xFFFFFFFFFFFFFFFFFFFFFFFFFFFFFFFFFFFFFFFF AND DUP2 MSTORE PUSH1 0x20 ADD SWAP1 DUP2 MSTORE PUSH1 0x20 ADD PUSH0 KECCAK256 PUSH0 SWAP1 SLOAD SWAP1 PUSH2 0x100 EXP SWAP1 DIV PUSH20 0xFFFFFFFFFFFFFFFFFFFFFFFFFFFFFFFFFFFFFFFF AND SWAP1 POP PUSH0 PUSH20 0xFFFFFFFFFFFFFFFFFFFFFFFFFFFFFFFFFFFFFFFF AND DUP2 PUSH20 0xFFFFFFFFFFFFFFFFFFFFFFFFFFFFFFFFFFFFFFFF AND SUB PUSH2 0x238 JUMPI PUSH1 0x40 MLOAD PUSH32 0x8C379A000000000000000000000000000000000000000000000000000000000 DUP2 MSTORE PUSH1 0x4 ADD PUSH2 0x22F SWAP1 PUSH2 0xA95 JUMP JUMPDEST PUSH1 0x40 MLOAD DUP1 SWAP2 SUB SWAP1 REVERT JUMPDEST DUP5 DUP5 PUSH0 DUP2 DUP2 LT PUSH2 0x24B JUMPI PUSH2 0x24A PUSH2 0xAB3 JUMP JUMPDEST JUMPDEST SWAP1 POP PUSH1 0x20 MUL ADD PUSH1 0x20 DUP2 ADD SWAP1 PUSH2 0x260 SWAP2 SWAP1 PUSH2 0x90C JUMP JUMPDEST PUSH20 0xFFFFFFFFFFFFFFFFFFFFFFFFFFFFFFFFFFFFFFFF AND PUSH4 0x95EA7B3 DUP3 DUP10 PUSH1 0x40 MLOAD DUP4 PUSH4 0xFFFFFFFF AND PUSH1 0xE0 SHL DUP2 MSTORE PUSH1 0x4 ADD PUSH2 0x29A SWAP3 SWAP2 SWAP1 PUSH2 0xAEF JUMP JUMPDEST PUSH1 0x20 PUSH1 0x40 MLOAD DUP1 DUP4 SUB DUP2 PUSH0 DUP8 GAS CALL ISZERO DUP1 ISZERO PUSH2 0x2B6 JUMPI RETURNDATASIZE PUSH0 DUP1 RETURNDATACOPY RETURNDATASIZE PUSH0 REVERT JUMPDEST POP POP POP POP PUSH1 0x40 MLOAD RETURNDATASIZE PUSH1 0x1F NOT PUSH1 0x1F DUP3 ADD AND DUP3 ADD DUP1 PUSH1 0x40 MSTORE POP DUP2 ADD SWAP1 PUSH2 0x2DA SWAP2 SWAP1 PUSH2 0xB4B JUMP JUMPDEST PUSH2 0x319 JUMPI PUSH1 0x40 MLOAD PUSH32 0x8C379A000000000000000000000000000000000000000000000000000000000 DUP2 MSTORE PUSH1 0x4 ADD PUSH2 0x310 SWAP1 PUSH2 0xBC0 JUMP JUMPDEST PUSH1 0x40 MLOAD DUP1 SWAP2 SUB SWAP1 REVERT JUMPDEST PUSH0 DUP2 PUSH20 0xFFFFFFFFFFFFFFFFFFFFFFFFFFFFFFFFFFFFFFFF AND PUSH4 0x38ED1739 DUP10 DUP10 DUP10 DUP10 ADDRESS DUP10 PUSH1 0x40 MLOAD DUP8 PUSH4 0xFFFFFFFF AND PUSH1 0xE0 SHL DUP2 MSTORE PUSH1 0x4 ADD PUSH2 0x35D SWAP7 SWAP6 SWAP5 SWAP4 SWAP3 SWAP2 SWAP1 PUSH2 0xC9A JUMP JUMPDEST PUSH0 PUSH1 0x40 MLOAD DUP1 DUP4 SUB DUP2 PUSH0 DUP8 GAS CALL ISZERO DUP1 ISZERO PUSH2 0x378 JUMPI RETURNDATASIZE PUSH0 DUP1 RETURNDATACOPY RETURNDATASIZE PUSH0 REVERT JUMPDEST POP POP POP POP PUSH1 0x40 MLOAD RETURNDATASIZE PUSH0 DUP3 RETURNDATACOPY RETURNDATASIZE PUSH1 0x1F NOT PUSH1 0x1F DUP3 ADD AND DUP3 ADD DUP1 PUSH1 0x40 MSTORE POP DUP2 ADD SWAP1 PUSH2 0x3A0 SWAP2 SWAP1 PUSH2 0xE50 JUMP JUMPDEST SWAP1 POP DUP7 DUP2 PUSH1 0x1 DUP4 MLOAD PUSH2 0x3B2 SWAP2 SWAP1 PUSH2 0xEC4 JUMP JUMPDEST DUP2 MLOAD DUP2 LT PUSH2 0x3C3 JUMPI PUSH2 0x3C2 PUSH2 0xAB3 JUMP JUMPDEST JUMPDEST PUSH1 0x20 MUL PUSH1 0x20 ADD ADD MLOAD LT ISZERO PUSH2 0x40C JUMPI PUSH1 0x40 MLOAD PUSH32 0x8C379A000000000000000000000000000000000000000000000000000000000 DUP2 MSTORE PUSH1 0x4 ADD PUSH2 0x403 SWAP1 PUSH2 0xF67 JUMP JUMPDEST PUSH1 0x40 MLOAD DUP1 SWAP2 SUB SWAP1 REVERT JUMPDEST PUSH0 DUP7 DUP7 PUSH1 0x1 DUP10 DUP10 SWAP1 POP PUSH2 0x41F SWAP2 SWAP1 PUSH2 0xEC4 JUMP JUMPDEST DUP2 DUP2 LT PUSH2 0x42F JUMPI PUSH2 0x42E PUSH2 0xAB3 JUMP JUMPDEST JUMPDEST SWAP1 POP PUSH1 0x20 MUL ADD PUSH1 0x20 DUP2 ADD SWAP1 PUSH2 0x444 SWAP2 SWAP1 PUSH2 0x90C JUMP JUMPDEST PUSH20 0xFFFFFFFFFFFFFFFFFFFFFFFFFFFFFFFFFFFFFFFF AND PUSH4 0x70A08231 ADDRESS PUSH1 0x40 MLOAD DUP3 PUSH4 0xFFFFFFFF AND PUSH1 0xE0 SHL DUP2 MSTORE PUSH1 0x4 ADD PUSH2 0x47C SWAP2 SWAP1 PUSH2 0x9BA JUMP JUMPDEST PUSH1 0x20 PUSH1 0x40 MLOAD DUP1 DUP4 SUB DUP2 DUP7 GAS STATICCALL ISZERO DUP1 ISZERO PUSH2 0x497 JUMPI RETURNDATASIZE PUSH0 DUP1 RETURNDATACOPY RETURNDATASIZE PUSH0 REVERT JUMPDEST POP POP POP POP PUSH1 0x40 MLOAD RETURNDATASIZE PUSH1 0x1F NOT PUSH1 0x1F DUP3 ADD AND DUP3 ADD DUP1 PUSH1 0x40 MSTORE POP DUP2 ADD SWAP1 PUSH2 0x4BB SWAP2 SWAP1 PUSH2 0xF85 JUMP JUMPDEST SWAP1 POP DUP7 DUP7 PUSH1 0x1 DUP10 DUP10 SWAP1 POP PUSH2 0x4CF SWAP2 SWAP1 PUSH2 0xEC4 JUMP JUMPDEST DUP2 DUP2 LT PUSH2 0x4DF JUMPI PUSH2 0x4DE PUSH2 0xAB3 JUMP JUMPDEST JUMPDEST SWAP1 POP PUSH1 0x20 MUL ADD PUSH1 0x20 DUP2 ADD SWAP1 PUSH2 0x4F4 SWAP2 SWAP1 PUSH2 0x90C JUMP JUMPDEST PUSH20 0xFFFFFFFFFFFFFFFFFFFFFFFFFFFFFFFFFFFFFFFF AND PUSH4 0xA9059CBB CALLER DUP4 PUSH1 0x40 MLOAD DUP4 PUSH4 0xFFFFFFFF AND PUSH1 0xE0 SHL DUP2 MSTORE PUSH1 0x4 ADD PUSH2 0x52E SWAP3 SWAP2 SWAP1 PUSH2 0xAEF JUMP JUMPDEST PUSH1 0x20 PUSH1 0x40 MLOAD DUP1 DUP4 SUB DUP2 PUSH0 DUP8 GAS CALL ISZERO DUP1 ISZERO PUSH2 0x54A JUMPI RETURNDATASIZE PUSH0 DUP1 RETURNDATACOPY RETURNDATASIZE PUSH0 REVERT JUMPDEST POP POP POP POP PUSH1 0x40 MLOAD RETURNDATASIZE PUSH1 0x1F NOT PUSH1 0x1F DUP3 ADD AND DUP3 ADD DUP1 PUSH1 0x40 MSTORE POP DUP2 ADD SWAP1 PUSH2 0x56E SWAP2 SWAP1 PUSH2 0xB4B JUMP JUMPDEST POP POP POP POP PUSH2 0x57A PUSH2 0x730 JUMP JUMPDEST POP POP POP POP POP POP JUMP JUMPDEST PUSH32 0x0 PUSH20 0xFFFFFFFFFFFFFFFFFFFFFFFFFFFFFFFFFFFFFFFF AND CALLER PUSH20 0xFFFFFFFFFFFFFFFFFFFFFFFFFFFFFFFFFFFFFFFF AND EQ PUSH2 0x610 JUMPI PUSH1 0x40 MLOAD PUSH32 0x8C379A000000000000000000000000000000000000000000000000000000000 DUP2 MSTORE PUSH1 0x4 ADD PUSH2 0x607 SWAP1 PUSH2 0xA2D JUMP JUMPDEST PUSH1 0x40 MLOAD DUP1 SWAP2 SUB SWAP1 REVERT JUMPDEST DUP1 PUSH1 0x1 PUSH0 DUP5 PUSH20 0xFFFFFFFFFFFFFFFFFFFFFFFFFFFFFFFFFFFFFFFF AND PUSH20 0xFFFFFFFFFFFFFFFFFFFFFFFFFFFFFFFFFFFFFFFF AND DUP2 MSTORE PUSH1 0x20 ADD SWAP1 DUP2 MSTORE PUSH1 0x20 ADD PUSH0 KECCAK256 PUSH0 PUSH2 0x100 EXP DUP2 SLOAD DUP2 PUSH20 0xFFFFFFFFFFFFFFFFFFFFFFFFFFFFFFFFFFFFFFFF MUL NOT AND SWAP1 DUP4 PUSH20 0xFFFFFFFFFFFFFFFFFFFFFFFFFFFFFFFFFFFFFFFF AND MUL OR SWAP1 SSTORE POP POP POP JUMP JUMPDEST PUSH1 0x1 PUSH1 0x20 MSTORE DUP1 PUSH0 MSTORE PUSH1 0x40 PUSH0 KECCAK256 PUSH0 SWAP2 POP SLOAD SWAP1 PUSH2 0x100 EXP SWAP1 DIV PUSH20 0xFFFFFFFFFFFFFFFFFFFFFFFFFFFFFFFFFFFFFFFF AND DUP2 JUMP JUMPDEST PUSH32 0x0 DUP2 JUMP JUMPDEST PUSH1 0x2 PUSH0 SLOAD SUB PUSH2 0x727 JUMPI PUSH1 0x40 MLOAD PUSH32 0x8C379A000000000000000000000000000000000000000000000000000000000 DUP2 MSTORE PUSH1 0x4 ADD PUSH2 0x71E SWAP1 PUSH2 0xFFA JUMP JUMPDEST PUSH1 0x40 MLOAD DUP1 SWAP2 SUB SWAP1 REVERT JUMPDEST PUSH1 0x2 PUSH0 DUP2 SWAP1 SSTORE POP JUMP JUMPDEST PUSH1 0x1 PUSH0 DUP2 SWAP1 SSTORE POP JUMP JUMPDEST PUSH0 PUSH1 0x40 MLOAD SWAP1 POP SWAP1 JUMP JUMPDEST PUSH0 DUP1 REVERT JUMPDEST PUSH0 DUP1 REVERT JUMPDEST PUSH0 DUP2 SWAP1 POP SWAP2 SWAP1 POP JUMP JUMPDEST PUSH2 0x75C DUP2 PUSH2 0x74A JUMP JUMPDEST DUP2 EQ PUSH2 0x766 JUMPI PUSH0 DUP1 REVERT JUMPDEST POP JUMP JUMPDEST PUSH0 DUP2 CALLDATALOAD SWAP1 POP PUSH2 0x777 DUP2 PUSH2 0x753 JUMP JUMPDEST SWAP3 SWAP2 POP POP JUMP JUMPDEST PUSH0 DUP1 REVERT JUMPDEST PUSH0 DUP1 REVERT JUMPDEST PUSH0 DUP1 REVERT JUMPDEST PUSH0 DUP1 DUP4 PUSH1 0x1F DUP5 ADD SLT PUSH2 0x79E JUMPI PUSH2 0x79D PUSH2 0x77D JUMP JUMPDEST JUMPDEST DUP3 CALLDATALOAD SWAP1 POP PUSH8 0xFFFFFFFFFFFFFFFF DUP2 GT ISZERO PUSH2 0x7BB JUMPI PUSH2 0x7BA PUSH2 0x781 JUMP JUMPDEST JUMPDEST PUSH1 0x20 DUP4 ADD SWAP2 POP DUP4 PUSH1 0x20 DUP3 MUL DUP4 ADD GT ISZERO PUSH2 0x7D7 JUMPI PUSH2 0x7D6 PUSH2 0x785 JUMP JUMPDEST JUMPDEST SWAP3 POP SWAP3 SWAP1 POP JUMP JUMPDEST PUSH0 PUSH20 0xFFFFFFFFFFFFFFFFFFFFFFFFFFFFFFFFFFFFFFFF DUP3 AND SWAP1 POP SWAP2 SWAP1 POP JUMP JUMPDEST PUSH0 PUSH2 0x807 DUP3 PUSH2 0x7DE JUMP JUMPDEST SWAP1 POP SWAP2 SWAP1 POP JUMP JUMPDEST PUSH2 0x817 DUP2 PUSH2 0x7FD JUMP JUMPDEST DUP2 EQ PUSH2 0x821 JUMPI PUSH0 DUP1 REVERT JUMPDEST POP JUMP JUMPDEST PUSH0 DUP2 CALLDATALOAD SWAP1 POP PUSH2 0x832 DUP2 PUSH2 0x80E JUMP JUMPDEST SWAP3 SWAP2 POP POP JUMP JUMPDEST PUSH0 DUP1 PUSH0 DUP1 PUSH0 DUP1 PUSH1 0xA0 DUP8 DUP10 SUB SLT ISZERO PUSH2 0x852 JUMPI PUSH2 0x851 PUSH2 0x742 JUMP JUMPDEST JUMPDEST PUSH0 PUSH2 0x85F DUP10 DUP3 DUP11 ADD PUSH2 0x769 JUMP JUMPDEST SWAP7 POP POP PUSH1 0x20 PUSH2 0x870 DUP10 DUP3 DUP11 ADD PUSH2 0x769 JUMP JUMPDEST SWAP6 POP POP PUSH1 0x40 DUP8 ADD CALLDATALOAD PUSH8 0xFFFFFFFFFFFFFFFF DUP2 GT ISZERO PUSH2 0x891 JUMPI PUSH2 0x890 PUSH2 0x746 JUMP JUMPDEST JUMPDEST PUSH2 0x89D DUP10 DUP3 DUP11 ADD PUSH2 0x789 JUMP JUMPDEST SWAP5 POP SWAP5 POP POP PUSH1 0x60 PUSH2 0x8B0 DUP10 DUP3 DUP11 ADD PUSH2 0x824 JUMP JUMPDEST SWAP3 POP POP PUSH1 0x80 PUSH2 0x8C1 DUP10 DUP3 DUP11 ADD PUSH2 0x769 JUMP JUMPDEST SWAP2 POP POP SWAP3 SWAP6 POP SWAP3 SWAP6 POP SWAP3 SWAP6 JUMP JUMPDEST PUSH0 DUP1 PUSH1 0x40 DUP4 DUP6 SUB SLT ISZERO PUSH2 0x8E4 JUMPI PUSH2 0x8E3 PUSH2 0x742 JUMP JUMPDEST JUMPDEST PUSH0 PUSH2 0x8F1 DUP6 DUP3 DUP7 ADD PUSH2 0x824 JUMP JUMPDEST SWAP3 POP POP PUSH1 0x20 PUSH2 0x902 DUP6 DUP3 DUP7 ADD PUSH2 0x824 JUMP JUMPDEST SWAP2 POP POP SWAP3 POP SWAP3 SWAP1 POP JUMP JUMPDEST PUSH0 PUSH1 0x20 DUP3 DUP5 SUB SLT ISZERO PUSH2 0x921 JUMPI PUSH2 0x920 PUSH2 0x742 JUMP JUMPDEST JUMPDEST PUSH0 PUSH2 0x92E DUP5 DUP3 DUP6 ADD PUSH2 0x824 JUMP JUMPDEST SWAP2 POP POP SWAP3 SWAP2 POP POP JUMP JUMPDEST PUSH0 DUP2 SWAP1 POP SWAP2 SWAP1 POP JUMP JUMPDEST PUSH0 PUSH2 0x95A PUSH2 0x955 PUSH2 0x950 DUP5 PUSH2 0x7DE JUMP JUMPDEST PUSH2 0x937 JUMP JUMPDEST PUSH2 0x7DE JUMP JUMPDEST SWAP1 POP SWAP2 SWAP1 POP JUMP JUMPDEST PUSH0 PUSH2 0x96B DUP3 PUSH2 0x940 JUMP JUMPDEST SWAP1 POP SWAP2 SWAP1 POP JUMP JUMPDEST PUSH0 PUSH2 0x97C DUP3 PUSH2 0x961 JUMP JUMPDEST SWAP1 POP SWAP2 SWAP1 POP JUMP JUMPDEST PUSH2 0x98C DUP2 PUSH2 0x972 JUMP JUMPDEST DUP3 MSTORE POP POP JUMP JUMPDEST PUSH0 PUSH1 0x20 DUP3 ADD SWAP1 POP PUSH2 0x9A5 PUSH0 DUP4 ADD DUP5 PUSH2 0x983 JUMP JUMPDEST SWAP3 SWAP2 POP POP JUMP JUMPDEST PUSH2 0x9B4 DUP2 PUSH2 0x7FD JUMP JUMPDEST DUP3 MSTORE POP POP JUMP JUMPDEST PUSH0 PUSH1 0x20 DUP3 ADD SWAP1 POP PUSH2 0x9CD PUSH0 DUP4 ADD DUP5 PUSH2 0x9AB JUMP JUMPDEST SWAP3 SWAP2 POP POP JUMP JUMPDEST PUSH0 DUP3 DUP3 MSTORE PUSH1 0x20 DUP3 ADD SWAP1 POP SWAP3 SWAP2 POP POP JUMP JUMPDEST PUSH32 0x4E6F74206F776E65720000000000000000000000000000000000000000000000 PUSH0 DUP3 ADD MSTORE POP JUMP JUMPDEST PUSH0 PUSH2 0xA17 PUSH1 0x9 DUP4 PUSH2 0x9D3 JUMP JUMPDEST SWAP2 POP PUSH2 0xA22 DUP3 PUSH2 0x9E3 JUMP JUMPDEST PUSH1 0x20 DUP3 ADD SWAP1 POP SWAP2 SWAP1 POP JUMP JUMPDEST PUSH0 PUSH1 0x20 DUP3 ADD SWAP1 POP DUP2 DUP2 SUB PUSH0 DUP4 ADD MSTORE PUSH2 0xA44 DUP2 PUSH2 0xA0B JUMP JUMPDEST SWAP1 POP SWAP2 SWAP1 POP JUMP JUMPDEST PUSH32 0x526F75746572206E6F7420736574000000000000000000000000000000000000 PUSH0 DUP3 ADD MSTORE POP JUMP JUMPDEST PUSH0 PUSH2 0xA7F PUSH1 0xE DUP4 PUSH2 0x9D3 JUMP JUMPDEST SWAP2 POP PUSH2 0xA8A DUP3 PUSH2 0xA4B JUMP JUMPDEST PUSH1 0x20 DUP3 ADD SWAP1 POP SWAP2 SWAP1 POP JUMP JUMPDEST PUSH0 PUSH1 0x20 DUP3 ADD SWAP1 POP DUP2 DUP2 SUB PUSH0 DUP4 ADD MSTORE PUSH2 0xAAC DUP2 PUSH2 0xA73 JUMP JUMPDEST SWAP1 POP SWAP2 SWAP1 POP JUMP JUMPDEST PUSH32 0x4E487B7100000000000000000000000000000000000000000000000000000000 PUSH0 MSTORE PUSH1 0x32 PUSH1 0x4 MSTORE PUSH1 0x24 PUSH0 REVERT JUMPDEST PUSH2 0xAE9 DUP2 PUSH2 0x74A JUMP JUMPDEST DUP3 MSTORE POP POP JUMP JUMPDEST PUSH0 PUSH1 0x40 DUP3 ADD SWAP1 POP PUSH2 0xB02 PUSH0 DUP4 ADD DUP6 PUSH2 0x9AB JUMP JUMPDEST PUSH2 0xB0F PUSH1 0x20 DUP4 ADD DUP5 PUSH2 0xAE0 JUMP JUMPDEST SWAP4 SWAP3 POP POP POP JUMP JUMPDEST PUSH0 DUP2 ISZERO ISZERO SWAP1 POP SWAP2 SWAP1 POP JUMP JUMPDEST PUSH2 0xB2A DUP2 PUSH2 0xB16 JUMP JUMPDEST DUP2 EQ PUSH2 0xB34 JUMPI PUSH0 DUP1 REVERT JUMPDEST POP JUMP JUMPDEST PUSH0 DUP2 MLOAD SWAP1 POP PUSH2 0xB45 DUP2 PUSH2 0xB21 JUMP JUMPDEST SWAP3 SWAP2 POP POP JUMP JUMPDEST PUSH0 PUSH1 0x20 DUP3 DUP5 SUB SLT ISZERO PUSH2 0xB60 JUMPI PUSH2 0xB5F PUSH2 0x742 JUMP JUMPDEST JUMPDEST PUSH0 PUSH2 0xB6D DUP5 DUP3 DUP6 ADD PUSH2 0xB37 JUMP JUMPDEST SWAP2 POP POP SWAP3 SWAP2 POP POP JUMP JUMPDEST PUSH32 0x417070726F76616C206661696C65640000000000000000000000000000000000 PUSH0 DUP3 ADD MSTORE POP JUMP JUMPDEST PUSH0 PUSH2 0xBAA PUSH1 0xF DUP4 PUSH2 0x9D3 JUMP JUMPDEST SWAP2 POP PUSH2 0xBB5 DUP3 PUSH2 0xB76 JUMP JUMPDEST PUSH1 0x20 DUP3 ADD SWAP1 POP SWAP2 SWAP1 POP JUMP JUMPDEST PUSH0 PUSH1 0x20 DUP3 ADD SWAP1 POP DUP2 DUP2 SUB PUSH0 DUP4 ADD MSTORE PUSH2 0xBD7 DUP2 PUSH2 0xB9E JUMP JUMPDEST SWAP1 POP SWAP2 SWAP1 POP JUMP JUMPDEST PUSH0 DUP3 DUP3 MSTORE PUSH1 0x20 DUP3 ADD SWAP1 POP SWAP3 SWAP2 POP POP JUMP JUMPDEST PUSH0 DUP2 SWAP1 POP SWAP2 SWAP1 POP JUMP JUMPDEST PUSH2 0xC00 DUP2 PUSH2 0x7FD JUMP JUMPDEST DUP3 MSTORE POP POP JUMP JUMPDEST PUSH0 PUSH2 0xC11 DUP4 DUP4 PUSH2 0xBF7 JUMP JUMPDEST PUSH1 0x20 DUP4 ADD SWAP1 POP SWAP3 SWAP2 POP POP JUMP JUMPDEST PUSH0 PUSH2 0xC2B PUSH1 0x20 DUP5 ADD DUP5 PUSH2 0x824 JUMP JUMPDEST SWAP1 POP SWAP3 SWAP2 POP POP JUMP JUMPDEST PUSH0 PUSH1 0x20 DUP3 ADD SWAP1 POP SWAP2 SWAP1 POP JUMP JUMPDEST PUSH0 PUSH2 0xC4A DUP4 DUP6 PUSH2 0xBDE JUMP JUMPDEST SWAP4 POP PUSH2 0xC55 DUP3 PUSH2 0xBEE JUMP JUMPDEST DUP1 PUSH0 JUMPDEST DUP6 DUP2 LT ISZERO PUSH2 0xC8D JUMPI PUSH2 0xC6A DUP3 DUP5 PUSH2 0xC1D JUMP JUMPDEST PUSH2 0xC74 DUP9 DUP3 PUSH2 0xC06 JUMP JUMPDEST SWAP8 POP PUSH2 0xC7F DUP4 PUSH2 0xC33 JUMP JUMPDEST SWAP3 POP POP PUSH1 0x1 DUP2 ADD SWAP1 POP PUSH2 0xC58 JUMP JUMPDEST POP DUP6 SWAP3 POP POP POP SWAP4 SWAP3 POP POP POP JUMP JUMPDEST PUSH0 PUSH1 0xA0 DUP3 ADD SWAP1 POP PUSH2 0xCAD PUSH0 DUP4 ADD DUP10 PUSH2 0xAE0 JUMP JUMPDEST PUSH2 0xCBA PUSH1 0x20 DUP4 ADD DUP9 PUSH2 0xAE0 JUMP JUMPDEST DUP2 DUP2 SUB PUSH1 0x40 DUP4 ADD MSTORE PUSH2 0xCCD DUP2 DUP7 DUP9 PUSH2 0xC3F JUMP JUMPDEST SWAP1 POP PUSH2 0xCDC PUSH1 0x60 DUP4 ADD DUP6 PUSH2 0x9AB JUMP JUMPDEST PUSH2 0xCE9 PUSH1 0x80 DUP4 ADD DUP5 PUSH2 0xAE0 JUMP JUMPDEST SWAP8 SWAP7 POP POP POP POP POP POP POP JUMP JUMPDEST PUSH0 PUSH1 0x1F NOT PUSH1 0x1F DUP4 ADD AND SWAP1 POP SWAP2 SWAP1 POP JUMP JUMPDEST PUSH32 0x4E487B7100000000000000000000000000000000000000000000000000000000 PUSH0 MSTORE PUSH1 0x41 PUSH1 0x4 MSTORE PUSH1 0x24 PUSH0 REVERT JUMPDEST PUSH2 0xD3A DUP3 PUSH2 0xCF4 JUMP JUMPDEST DUP2 ADD DUP2 DUP2 LT PUSH8 0xFFFFFFFFFFFFFFFF DUP3 GT OR ISZERO PUSH2 0xD59 JUMPI PUSH2 0xD58 PUSH2 0xD04 JUMP JUMPDEST JUMPDEST DUP1 PUSH1 0x40 MSTORE POP POP POP JUMP JUMPDEST PUSH0 PUSH2 0xD6B PUSH2 0x739 JUMP JUMPDEST SWAP1 POP PUSH2 0xD77 DUP3 DUP3 PUSH2 0xD31 JUMP JUMPDEST SWAP2 SWAP1 POP JUMP JUMPDEST PUSH0 PUSH8 0xFFFFFFFFFFFFFFFF DUP3 GT ISZERO PUSH2 0xD96 JUMPI PUSH2 0xD95 PUSH2 0xD04 JUMP JUMPDEST JUMPDEST PUSH1 0x20 DUP3 MUL SWAP1 POP PUSH1 0x20 DUP2 ADD SWAP1 POP SWAP2 SWAP1 POP JUMP JUMPDEST PUSH0 DUP2 MLOAD SWAP1 POP PUSH2 0xDB5 DUP2 PUSH2 0x753 JUMP JUMPDEST SWAP3 SWAP2 POP POP JUMP JUMPDEST PUSH0 PUSH2 0xDCD PUSH2 0xDC8 DUP5 PUSH2 0xD7C JUMP JUMPDEST PUSH2 0xD62 JUMP JUMPDEST SWAP1 POP DUP1 DUP4 DUP3 MSTORE PUSH1 0x20 DUP3 ADD SWAP1 POP PUSH1 0x20 DUP5 MUL DUP4 ADD DUP6 DUP2 GT ISZERO PUSH2 0xDF0 JUMPI PUSH2 0xDEF PUSH2 0x785 JUMP JUMPDEST JUMPDEST DUP4 JUMPDEST DUP2 DUP2 LT ISZERO PUSH2 0xE19 JUMPI DUP1 PUSH2 0xE05 DUP9 DUP3 PUSH2 0xDA7 JUMP JUMPDEST DUP5 MSTORE PUSH1 0x20 DUP5 ADD SWAP4 POP POP PUSH1 0x20 DUP2 ADD SWAP1 POP PUSH2 0xDF2 JUMP JUMPDEST POP POP POP SWAP4 SWAP3 POP POP POP JUMP JUMPDEST PUSH0 DUP3 PUSH1 0x1F DUP4 ADD SLT PUSH2 0xE37 JUMPI PUSH2 0xE36 PUSH2 0x77D JUMP JUMPDEST JUMPDEST DUP2 MLOAD PUSH2 0xE47 DUP5 DUP3 PUSH1 0x20 DUP7 ADD PUSH2 0xDBB JUMP JUMPDEST SWAP2 POP POP SWAP3 SWAP2 POP POP JUMP JUMPDEST PUSH0 PUSH1 0x20 DUP3 DUP5 SUB SLT ISZERO PUSH2 0xE65 JUMPI PUSH2 0xE64 PUSH2 0x742 JUMP JUMPDEST JUMPDEST PUSH0 DUP3 ADD MLOAD PUSH8 0xFFFFFFFFFFFFFFFF DUP2 GT ISZERO PUSH2 0xE82 JUMPI PUSH2 0xE81 PUSH2 0x746 JUMP JUMPDEST JUMPDEST PUSH2 0xE8E DUP5 DUP3 DUP6 ADD PUSH2 0xE23 JUMP JUMPDEST SWAP2 POP POP SWAP3 SWAP2 POP POP JUMP JUMPDEST PUSH32 0x4E487B7100000000000000000000000000000000000000000000000000000000 PUSH0 MSTORE PUSH1 0x11 PUSH1 0x4 MSTORE PUSH1 0x24 PUSH0 REVERT JUMPDEST PUSH0 PUSH2 0xECE DUP3 PUSH2 0x74A JUMP JUMPDEST SWAP2 POP PUSH2 0xED9 DUP4 PUSH2 0x74A JUMP JUMPDEST SWAP3 POP DUP3 DUP3 SUB SWAP1 POP DUP2 DUP2 GT ISZERO PUSH2 0xEF1 JUMPI PUSH2 0xEF0 PUSH2 0xE97 JUMP JUMPDEST JUMPDEST SWAP3 SWAP2 POP POP JUMP JUMPDEST PUSH32 0x417262697472616765206661696C656420746F206D6565742070726F66697420 PUSH0 DUP3 ADD MSTORE PUSH32 0x7468726573686F6C640000000000000000000000000000000000000000000000 PUSH1 0x20 DUP3 ADD MSTORE POP JUMP JUMPDEST PUSH0 PUSH2 0xF51 PUSH1 0x29 DUP4 PUSH2 0x9D3 JUMP JUMPDEST SWAP2 POP PUSH2 0xF5C DUP3 PUSH2 0xEF7 JUMP JUMPDEST PUSH1 0x40 DUP3 ADD SWAP1 POP SWAP2 SWAP1 POP JUMP JUMPDEST PUSH0 PUSH1 0x20 DUP3 ADD SWAP1 POP DUP2 DUP2 SUB PUSH0 DUP4 ADD MSTORE PUSH2 0xF7E DUP2 PUSH2 0xF45 JUMP JUMPDEST SWAP1 POP SWAP2 SWAP1 POP JUMP JUMPDEST PUSH0 PUSH1 0x20 DUP3 DUP5 SUB SLT ISZERO PUSH2 0xF9A JUMPI PUSH2 0xF99 PUSH2 0x742 JUMP JUMPDEST JUMPDEST PUSH0 PUSH2 0xFA7 DUP5 DUP3 DUP6 ADD PUSH2 0xDA7 JUMP JUMPDEST SWAP2 POP POP SWAP3 SWAP2 POP POP JUMP JUMPDEST PUSH32 0x5265656E7472616E637947756172643A207265656E7472616E742063616C6C00 PUSH0 DUP3 ADD MSTORE POP JUMP JUMPDEST PUSH0 PUSH2 0xFE4 PUSH1 0x1F DUP4 PUSH2 0x9D3 JUMP JUMPDEST SWAP2 POP PUSH2 0xFEF DUP3 PUSH2 0xFB0 JUMP JUMPDEST PUSH1 0x20 DUP3 ADD SWAP1 POP SWAP2 SWAP1 POP JUMP JUMPDEST PUSH0 PUSH1 0x20 DUP3 ADD SWAP1 POP DUP2 DUP2 SUB PUSH0 DUP4 ADD MSTORE PUSH2 0x1011 DUP2 PUSH2 0xFD8 JUMP JUMPDEST SWAP1 POP SWAP2 SWAP1 POP JUMP INVALID LOG2 PUSH5 0x6970667358 0x22 SLT KECCAK256 0x26 0xC6 CALLDATACOPY 0xDD GASLIMIT BYTE 0xCE 0xBC 0xBE 0x1F 0xBE MSTORE8 0xBA PUSH24 0xC98474527DC7752F53A422D08965CF9EB72264736F6C6343 STOP ADDMOD BYTE STOP CALLER "
				},
				"gasEstimates": {
					"creation": {
						"codeDepositCost": "834800",
						"executionCost": "infinite",
						"totalCost": "infinite"
					},
					"external": {
						"owner()": "infinite",
						"routers(address)": "infinite",
						"setRouter(address,address)": "infinite",
						"setupArbitrage(uint256,uint256,address[],address,uint256)": "infinite"
					}
				},
				"methodIdentifiers": {
					"owner()": "8da5cb5b",
					"routers(address)": "80dd9a1f",
					"setRouter(address,address)": "41d68b8f",
					"setupArbitrage(uint256,uint256,address[],address,uint256)": "0b30f3b9"
				}
			},
			"storageLayout": {
				"storage": [
					{
						"astId": 10,
						"contract": "Arbitrage.sol:Arbitrage",
						"label": "_status",
						"offset": 0,
						"slot": "0",
						"type": "t_uint256"
					},
					{
						"astId": 95,
						"contract": "Arbitrage.sol:Arbitrage",
						"label": "routers",
						"offset": 0,
						"slot": "1",
						"type": "t_mapping(t_address,t_contract(IDEXRouter)86)"
					}
				],
				"types": {
					"t_address": {
						"encoding": "inplace",
						"label": "address",
						"numberOfBytes": "20"
					},
					"t_contract(IDEXRouter)86": {
						"encoding": "inplace",
						"label": "contract IDEXRouter",
						"numberOfBytes": "20"
					},
					"t_mapping(t_address,t_contract(IDEXRouter)86)": {
						"encoding": "mapping",
						"key": "t_address",
						"label": "mapping(address => contract IDEXRouter)",
						"numberOfBytes": "32",
						"value": "t_contract(IDEXRouter)86"
					},
					"t_uint256": {
						"encoding": "inplace",
						"label": "uint256",
						"numberOfBytes": "32"
					}
				}
			},
			"userdoc": {
				"kind": "user",
				"methods": {},
				"version": 1
			}
		}
	}
}