{
	"Liquidation.sol": {
		"Liquidation": {
			"abi": [
				{
					"inputs": [
						{
							"internalType": "address",
							"name": "_tokenAddress",
							"type": "address"
						}
					],
					"stateMutability": "nonpayable",
					"type": "constructor"
				},
				{
					"inputs": [],
					"name": "owner",
					"outputs": [
						{
							"internalType": "address",
							"name": "",
							"type": "address"
						}
					],
					"stateMutability": "view",
					"type": "function"
				},
				{
					"inputs": [
						{
							"internalType": "address",
							"name": "",
							"type": "address"
						}
					],
					"name": "platforms",
					"outputs": [
						{
							"internalType": "contract IDeFiPlatform",
							"name": "",
							"type": "address"
						}
					],
					"stateMutability": "view",
					"type": "function"
				},
				{
					"inputs": [
						{
							"internalType": "address",
							"name": "platformAddress",
							"type": "address"
						},
						{
							"internalType": "contract IDeFiPlatform",
							"name": "interfaceAddress",
							"type": "address"
						}
					],
					"name": "setPlatform",
					"outputs": [],
					"stateMutability": "nonpayable",
					"type": "function"
				},
				{
					"inputs": [
						{
							"internalType": "address",
							"name": "borrower",
							"type": "address"
						},
						{
							"internalType": "address",
							"name": "platformAddress",
							"type": "address"
						}
					],
					"name": "setupLiquidation",
					"outputs": [],
					"stateMutability": "nonpayable",
					"type": "function"
				},
				{
					"inputs": [],
					"name": "tokenAddress",
					"outputs": [
						{
							"internalType": "address",
							"name": "",
							"type": "address"
						}
					],
					"stateMutability": "view",
					"type": "function"
				}
			],
			"devdoc": {
				"kind": "dev",
				"methods": {},
				"version": 1
			},
			"evm": {
				"assembly": "    /* \"Liquidation.sol\":476:2077  contract Liquidation is ReentrancyGuard {... */\n  mstore(0x40, 0xa0)\n    /* \"Liquidation.sol\":754:865  constructor(address _tokenAddress) {... */\n  callvalue\n  dup1\n  iszero\n  tag_1\n  jumpi\n  0x00\n  dup1\n  revert\ntag_1:\n  pop\n  mload(0x40)\n  sub(codesize, bytecodeSize)\n  dup1\n  bytecodeSize\n  dup4\n  codecopy\n  dup2\n  dup2\n  add\n  0x40\n  mstore\n  dup2\n  add\n  swap1\n  tag_2\n  swap2\n  swap1\n  tag_3\n  jump\t// in\ntag_2:\n    /* \"@openzeppelin/contracts/security/ReentrancyGuard.sol\":1716:1717  1 */\n  0x01\n    /* \"@openzeppelin/contracts/security/ReentrancyGuard.sol\":1821:1828  _status */\n  0x00\n    /* \"@openzeppelin/contracts/security/ReentrancyGuard.sol\":1821:1843  _status = _NOT_ENTERED */\n  dup2\n  swap1\n  sstore\n  pop\n    /* \"Liquidation.sol\":808:818  msg.sender */\n  caller\n    /* \"Liquidation.sol\":800:818  owner = msg.sender */\n  0xffffffffffffffffffffffffffffffffffffffff\n  and\n  0x80\n  dup2\n  0xffffffffffffffffffffffffffffffffffffffff\n  and\n  dup2\n  mstore\n  pop\n  pop\n    /* \"Liquidation.sol\":844:857  _tokenAddress */\n  dup1\n    /* \"Liquidation.sol\":829:841  tokenAddress */\n  0x02\n  0x00\n    /* \"Liquidation.sol\":829:857  tokenAddress = _tokenAddress */\n  0x0100\n  exp\n  dup2\n  sload\n  dup2\n  0xffffffffffffffffffffffffffffffffffffffff\n  mul\n  not\n  and\n  swap1\n  dup4\n  0xffffffffffffffffffffffffffffffffffffffff\n  and\n  mul\n  or\n  swap1\n  sstore\n  pop\n    /* \"Liquidation.sol\":754:865  constructor(address _tokenAddress) {... */\n  pop\n    /* \"Liquidation.sol\":476:2077  contract Liquidation is ReentrancyGuard {... */\n  jump(tag_8)\n    /* \"#utility.yul\":88:205   */\ntag_10:\n    /* \"#utility.yul\":197:198   */\n  0x00\n    /* \"#utility.yul\":194:195   */\n  dup1\n    /* \"#utility.yul\":187:199   */\n  revert\n    /* \"#utility.yul\":334:460   */\ntag_12:\n    /* \"#utility.yul\":371:378   */\n  0x00\n    /* \"#utility.yul\":411:453   */\n  0xffffffffffffffffffffffffffffffffffffffff\n    /* \"#utility.yul\":404:409   */\n  dup3\n    /* \"#utility.yul\":400:454   */\n  and\n    /* \"#utility.yul\":389:454   */\n  swap1\n  pop\n    /* \"#utility.yul\":334:460   */\n  swap2\n  swap1\n  pop\n  jump\t// out\n    /* \"#utility.yul\":466:562   */\ntag_13:\n    /* \"#utility.yul\":503:510   */\n  0x00\n    /* \"#utility.yul\":532:556   */\n  tag_22\n    /* \"#utility.yul\":550:555   */\n  dup3\n    /* \"#utility.yul\":532:556   */\n  tag_12\n  jump\t// in\ntag_22:\n    /* \"#utility.yul\":521:556   */\n  swap1\n  pop\n    /* \"#utility.yul\":466:562   */\n  swap2\n  swap1\n  pop\n  jump\t// out\n    /* \"#utility.yul\":568:690   */\ntag_14:\n    /* \"#utility.yul\":641:665   */\n  tag_24\n    /* \"#utility.yul\":659:664   */\n  dup2\n    /* \"#utility.yul\":641:665   */\n  tag_13\n  jump\t// in\ntag_24:\n    /* \"#utility.yul\":634:639   */\n  dup2\n    /* \"#utility.yul\":631:666   */\n  eq\n    /* \"#utility.yul\":621:684   */\n  tag_25\n  jumpi\n    /* \"#utility.yul\":680:681   */\n  0x00\n    /* \"#utility.yul\":677:678   */\n  dup1\n    /* \"#utility.yul\":670:682   */\n  revert\n    /* \"#utility.yul\":621:684   */\ntag_25:\n    /* \"#utility.yul\":568:690   */\n  pop\n  jump\t// out\n    /* \"#utility.yul\":696:839   */\ntag_15:\n    /* \"#utility.yul\":753:758   */\n  0x00\n    /* \"#utility.yul\":784:790   */\n  dup2\n    /* \"#utility.yul\":778:791   */\n  mload\n    /* \"#utility.yul\":769:791   */\n  swap1\n  pop\n    /* \"#utility.yul\":800:833   */\n  tag_27\n    /* \"#utility.yul\":827:832   */\n  dup2\n    /* \"#utility.yul\":800:833   */\n  tag_14\n  jump\t// in\ntag_27:\n    /* \"#utility.yul\":696:839   */\n  swap3\n  swap2\n  pop\n  pop\n  jump\t// out\n    /* \"#utility.yul\":845:1196   */\ntag_3:\n    /* \"#utility.yul\":915:921   */\n  0x00\n    /* \"#utility.yul\":964:966   */\n  0x20\n    /* \"#utility.yul\":952:961   */\n  dup3\n    /* \"#utility.yul\":943:950   */\n  dup5\n    /* \"#utility.yul\":939:962   */\n  sub\n    /* \"#utility.yul\":935:967   */\n  slt\n    /* \"#utility.yul\":932:1051   */\n  iszero\n  tag_29\n  jumpi\n    /* \"#utility.yul\":970:1049   */\n  tag_30\n  tag_10\n  jump\t// in\ntag_30:\n    /* \"#utility.yul\":932:1051   */\ntag_29:\n    /* \"#utility.yul\":1090:1091   */\n  0x00\n    /* \"#utility.yul\":1115:1179   */\n  tag_31\n    /* \"#utility.yul\":1171:1178   */\n  dup5\n    /* \"#utility.yul\":1162:1168   */\n  dup3\n    /* \"#utility.yul\":1151:1160   */\n  dup6\n    /* \"#utility.yul\":1147:1169   */\n  add\n    /* \"#utility.yul\":1115:1179   */\n  tag_15\n  jump\t// in\ntag_31:\n    /* \"#utility.yul\":1105:1179   */\n  swap2\n  pop\n    /* \"#utility.yul\":1061:1189   */\n  pop\n    /* \"#utility.yul\":845:1196   */\n  swap3\n  swap2\n  pop\n  pop\n  jump\t// out\n    /* \"Liquidation.sol\":476:2077  contract Liquidation is ReentrancyGuard {... */\ntag_8:\n  mload(0x80)\n  codecopy(0x00, dataOffset(sub_0), dataSize(sub_0))\n  0x00\n  assignImmutable(\"0xd5c18d7e3bafb054df95ae4ec77df9e35ab79a2d4652960c682088d76955cda7\")\n  return(0x00, dataSize(sub_0))\nstop\n\nsub_0: assembly {\n        /* \"Liquidation.sol\":476:2077  contract Liquidation is ReentrancyGuard {... */\n      mstore(0x40, 0x80)\n      callvalue\n      dup1\n      iszero\n      tag_1\n      jumpi\n      0x00\n      dup1\n      revert\n    tag_1:\n      pop\n      jumpi(tag_2, lt(calldatasize, 0x04))\n      shr(0xe0, calldataload(0x00))\n      dup1\n      0x49f80742\n      eq\n      tag_3\n      jumpi\n      dup1\n      0x7722e81a\n      eq\n      tag_4\n      jumpi\n      dup1\n      0x8da5cb5b\n      eq\n      tag_5\n      jumpi\n      dup1\n      0x9d76ea58\n      eq\n      tag_6\n      jumpi\n      dup1\n      0xd1313384\n      eq\n      tag_7\n      jumpi\n    tag_2:\n      0x00\n      dup1\n      revert\n        /* \"Liquidation.sol\":1195:2074  function setupLiquidation(address borrower, address platformAddress) external onlyOwner nonReentrant {... */\n    tag_3:\n      tag_8\n      0x04\n      dup1\n      calldatasize\n      sub\n      dup2\n      add\n      swap1\n      tag_9\n      swap2\n      swap1\n      tag_10\n      jump\t// in\n    tag_9:\n      tag_11\n      jump\t// in\n    tag_8:\n      stop\n        /* \"Liquidation.sol\":988:1147  function setPlatform(address platformAddress, IDeFiPlatform interfaceAddress) public onlyOwner {... */\n    tag_4:\n      tag_12\n      0x04\n      dup1\n      calldatasize\n      sub\n      dup2\n      add\n      swap1\n      tag_13\n      swap2\n      swap1\n      tag_14\n      jump\t// in\n    tag_13:\n      tag_15\n      jump\t// in\n    tag_12:\n      stop\n        /* \"Liquidation.sol\":523:553  address public immutable owner */\n    tag_5:\n      tag_16\n      tag_17\n      jump\t// in\n    tag_16:\n      mload(0x40)\n      tag_18\n      swap2\n      swap1\n      tag_19\n      jump\t// in\n    tag_18:\n      mload(0x40)\n      dup1\n      swap2\n      sub\n      swap1\n      return\n        /* \"Liquidation.sol\":671:698  address public tokenAddress */\n    tag_6:\n      tag_20\n      tag_21\n      jump\t// in\n    tag_20:\n      mload(0x40)\n      tag_22\n      swap2\n      swap1\n      tag_19\n      jump\t// in\n    tag_22:\n      mload(0x40)\n      dup1\n      swap2\n      sub\n      swap1\n      return\n        /* \"Liquidation.sol\":560:610  mapping(address => IDeFiPlatform) public platforms */\n    tag_7:\n      tag_23\n      0x04\n      dup1\n      calldatasize\n      sub\n      dup2\n      add\n      swap1\n      tag_24\n      swap2\n      swap1\n      tag_25\n      jump\t// in\n    tag_24:\n      tag_26\n      jump\t// in\n    tag_23:\n      mload(0x40)\n      tag_27\n      swap2\n      swap1\n      tag_28\n      jump\t// in\n    tag_27:\n      mload(0x40)\n      dup1\n      swap2\n      sub\n      swap1\n      return\n        /* \"Liquidation.sol\":1195:2074  function setupLiquidation(address borrower, address platformAddress) external onlyOwner nonReentrant {... */\n    tag_11:\n        /* \"Liquidation.sol\":927:932  owner */\n      immutable(\"0xd5c18d7e3bafb054df95ae4ec77df9e35ab79a2d4652960c682088d76955cda7\")\n        /* \"Liquidation.sol\":913:932  msg.sender == owner */\n      0xffffffffffffffffffffffffffffffffffffffff\n      and\n        /* \"Liquidation.sol\":913:923  msg.sender */\n      caller\n        /* \"Liquidation.sol\":913:932  msg.sender == owner */\n      0xffffffffffffffffffffffffffffffffffffffff\n      and\n      eq\n        /* \"Liquidation.sol\":905:960  require(msg.sender == owner, \"Caller is not the owner\") */\n      tag_30\n      jumpi\n      mload(0x40)\n      0x08c379a000000000000000000000000000000000000000000000000000000000\n      dup2\n      mstore\n      0x04\n      add\n      tag_31\n      swap1\n      tag_32\n      jump\t// in\n    tag_31:\n      mload(0x40)\n      dup1\n      swap2\n      sub\n      swap1\n      revert\n    tag_30:\n        /* \"@openzeppelin/contracts/security/ReentrancyGuard.sol\":2261:2282  _nonReentrantBefore() */\n      tag_34\n        /* \"@openzeppelin/contracts/security/ReentrancyGuard.sol\":2261:2280  _nonReentrantBefore */\n      tag_35\n        /* \"@openzeppelin/contracts/security/ReentrancyGuard.sol\":2261:2282  _nonReentrantBefore() */\n      jump\t// in\n    tag_34:\n        /* \"Liquidation.sol\":1307:1329  IDeFiPlatform platform */\n      0x00\n        /* \"Liquidation.sol\":1332:1341  platforms */\n      0x01\n        /* \"Liquidation.sol\":1332:1358  platforms[platformAddress] */\n      0x00\n        /* \"Liquidation.sol\":1342:1357  platformAddress */\n      dup4\n        /* \"Liquidation.sol\":1332:1358  platforms[platformAddress] */\n      0xffffffffffffffffffffffffffffffffffffffff\n      and\n      0xffffffffffffffffffffffffffffffffffffffff\n      and\n      dup2\n      mstore\n      0x20\n      add\n      swap1\n      dup2\n      mstore\n      0x20\n      add\n      0x00\n      keccak256\n      0x00\n      swap1\n      sload\n      swap1\n      0x0100\n      exp\n      swap1\n      div\n      0xffffffffffffffffffffffffffffffffffffffff\n      and\n        /* \"Liquidation.sol\":1307:1358  IDeFiPlatform platform = platforms[platformAddress] */\n      swap1\n      pop\n        /* \"Liquidation.sol\":1406:1407  0 */\n      0x00\n        /* \"Liquidation.sol\":1377:1408  address(platform) != address(0) */\n      0xffffffffffffffffffffffffffffffffffffffff\n      and\n        /* \"Liquidation.sol\":1385:1393  platform */\n      dup2\n        /* \"Liquidation.sol\":1377:1408  address(platform) != address(0) */\n      0xffffffffffffffffffffffffffffffffffffffff\n      and\n      sub\n        /* \"Liquidation.sol\":1369:1429  require(address(platform) != address(0), \"Platform not set\") */\n      tag_37\n      jumpi\n      mload(0x40)\n      0x08c379a000000000000000000000000000000000000000000000000000000000\n      dup2\n      mstore\n      0x04\n      add\n      tag_38\n      swap1\n      tag_39\n      jump\t// in\n    tag_38:\n      mload(0x40)\n      dup1\n      swap2\n      sub\n      swap1\n      revert\n    tag_37:\n        /* \"Liquidation.sol\":1442:1454  uint256 debt */\n      0x00\n        /* \"Liquidation.sol\":1457:1465  platform */\n      dup2\n        /* \"Liquidation.sol\":1457:1473  platform.getDebt */\n      0xffffffffffffffffffffffffffffffffffffffff\n      and\n      0x9a78e72e\n        /* \"Liquidation.sol\":1474:1482  borrower */\n      dup6\n        /* \"Liquidation.sol\":1457:1483  platform.getDebt(borrower) */\n      mload(0x40)\n      dup3\n      0xffffffff\n      and\n      0xe0\n      shl\n      dup2\n      mstore\n      0x04\n      add\n      tag_40\n      swap2\n      swap1\n      tag_19\n      jump\t// in\n    tag_40:\n      0x20\n      mload(0x40)\n      dup1\n      dup4\n      sub\n      dup2\n      dup7\n      gas\n      staticcall\n      iszero\n      dup1\n      iszero\n      tag_42\n      jumpi\n      returndatasize\n      0x00\n      dup1\n      returndatacopy\n      revert(0x00, returndatasize)\n    tag_42:\n      pop\n      pop\n      pop\n      pop\n      mload(0x40)\n      returndatasize\n      not(0x1f)\n      0x1f\n      dup3\n      add\n      and\n      dup3\n      add\n      dup1\n      0x40\n      mstore\n      pop\n      dup2\n      add\n      swap1\n      tag_43\n      swap2\n      swap1\n      tag_44\n      jump\t// in\n    tag_43:\n        /* \"Liquidation.sol\":1442:1483  uint256 debt = platform.getDebt(borrower) */\n      swap1\n      pop\n        /* \"Liquidation.sol\":1494:1512  uint256 collateral */\n      0x00\n        /* \"Liquidation.sol\":1515:1523  platform */\n      dup3\n        /* \"Liquidation.sol\":1515:1542  platform.getCollateralValue */\n      0xffffffffffffffffffffffffffffffffffffffff\n      and\n      0x97904e42\n        /* \"Liquidation.sol\":1543:1551  borrower */\n      dup7\n        /* \"Liquidation.sol\":1515:1552  platform.getCollateralValue(borrower) */\n      mload(0x40)\n      dup3\n      0xffffffff\n      and\n      0xe0\n      shl\n      dup2\n      mstore\n      0x04\n      add\n      tag_45\n      swap2\n      swap1\n      tag_19\n      jump\t// in\n    tag_45:\n      0x20\n      mload(0x40)\n      dup1\n      dup4\n      sub\n      dup2\n      dup7\n      gas\n      staticcall\n      iszero\n      dup1\n      iszero\n      tag_47\n      jumpi\n      returndatasize\n      0x00\n      dup1\n      returndatacopy\n      revert(0x00, returndatasize)\n    tag_47:\n      pop\n      pop\n      pop\n      pop\n      mload(0x40)\n      returndatasize\n      not(0x1f)\n      0x1f\n      dup3\n      add\n      and\n      dup3\n      add\n      dup1\n      0x40\n      mstore\n      pop\n      dup2\n      add\n      swap1\n      tag_48\n      swap2\n      swap1\n      tag_44\n      jump\t// in\n    tag_48:\n        /* \"Liquidation.sol\":1494:1552  uint256 collateral = platform.getCollateralValue(borrower) */\n      swap1\n      pop\n        /* \"Liquidation.sol\":1563:1580  uint256 threshold */\n      0x00\n        /* \"Liquidation.sol\":1583:1591  platform */\n      dup4\n        /* \"Liquidation.sol\":1583:1614  platform.getCollateralThreshold */\n      0xffffffffffffffffffffffffffffffffffffffff\n      and\n      0x4fa2b53c\n        /* \"Liquidation.sol\":1583:1616  platform.getCollateralThreshold() */\n      mload(0x40)\n      dup2\n      0xffffffff\n      and\n      0xe0\n      shl\n      dup2\n      mstore\n      0x04\n      add\n      0x20\n      mload(0x40)\n      dup1\n      dup4\n      sub\n      dup2\n      dup7\n      gas\n      staticcall\n      iszero\n      dup1\n      iszero\n      tag_50\n      jumpi\n      returndatasize\n      0x00\n      dup1\n      returndatacopy\n      revert(0x00, returndatasize)\n    tag_50:\n      pop\n      pop\n      pop\n      pop\n      mload(0x40)\n      returndatasize\n      not(0x1f)\n      0x1f\n      dup3\n      add\n      and\n      dup3\n      add\n      dup1\n      0x40\n      mstore\n      pop\n      dup2\n      add\n      swap1\n      tag_51\n      swap2\n      swap1\n      tag_44\n      jump\t// in\n    tag_51:\n        /* \"Liquidation.sol\":1563:1616  uint256 threshold = platform.getCollateralThreshold() */\n      swap1\n      pop\n        /* \"Liquidation.sol\":1644:1645  0 */\n      0x00\n        /* \"Liquidation.sol\":1637:1641  debt */\n      dup4\n        /* \"Liquidation.sol\":1637:1645  debt > 0 */\n      gt\n        /* \"Liquidation.sol\":1629:1670  require(debt > 0, \"No debt to liquidate\") */\n      tag_52\n      jumpi\n      mload(0x40)\n      0x08c379a000000000000000000000000000000000000000000000000000000000\n      dup2\n      mstore\n      0x04\n      add\n      tag_53\n      swap1\n      tag_54\n      jump\t// in\n    tag_53:\n      mload(0x40)\n      dup1\n      swap2\n      sub\n      swap1\n      revert\n    tag_52:\n        /* \"Liquidation.sol\":1715:1724  threshold */\n      dup1\n        /* \"Liquidation.sol\":1708:1712  debt */\n      dup4\n        /* \"Liquidation.sol\":1708:1724  debt * threshold */\n      tag_55\n      swap2\n      swap1\n      tag_56\n      jump\t// in\n    tag_55:\n        /* \"Liquidation.sol\":1702:1705  100 */\n      0x64\n        /* \"Liquidation.sol\":1689:1699  collateral */\n      dup4\n        /* \"Liquidation.sol\":1689:1705  collateral * 100 */\n      tag_57\n      swap2\n      swap1\n      tag_56\n      jump\t// in\n    tag_57:\n        /* \"Liquidation.sol\":1689:1724  collateral * 100 < debt * threshold */\n      lt\n        /* \"Liquidation.sol\":1681:1760  require(collateral * 100 < debt * threshold, \"Collateralization is sufficient\") */\n      tag_58\n      jumpi\n      mload(0x40)\n      0x08c379a000000000000000000000000000000000000000000000000000000000\n      dup2\n      mstore\n      0x04\n      add\n      tag_59\n      swap1\n      tag_60\n      jump\t// in\n    tag_59:\n      mload(0x40)\n      dup1\n      swap2\n      sub\n      swap1\n      revert\n    tag_58:\n        /* \"Liquidation.sol\":1773:1781  platform */\n      dup4\n        /* \"Liquidation.sol\":1773:1799  platform.liquidateBorrower */\n      0xffffffffffffffffffffffffffffffffffffffff\n      and\n      0x07a3f2d3\n        /* \"Liquidation.sol\":1800:1808  borrower */\n      dup8\n        /* \"Liquidation.sol\":1773:1809  platform.liquidateBorrower(borrower) */\n      mload(0x40)\n      dup3\n      0xffffffff\n      and\n      0xe0\n      shl\n      dup2\n      mstore\n      0x04\n      add\n      tag_61\n      swap2\n      swap1\n      tag_19\n      jump\t// in\n    tag_61:\n      0x00\n      mload(0x40)\n      dup1\n      dup4\n      sub\n      dup2\n      0x00\n      dup8\n      dup1\n      extcodesize\n      iszero\n      dup1\n      iszero\n      tag_62\n      jumpi\n      0x00\n      dup1\n      revert\n    tag_62:\n      pop\n      gas\n      call\n      iszero\n      dup1\n      iszero\n      tag_64\n      jumpi\n      returndatasize\n      0x00\n      dup1\n      returndatacopy\n      revert(0x00, returndatasize)\n    tag_64:\n      pop\n      pop\n      pop\n      pop\n        /* \"Liquidation.sol\":1822:1842  uint256 finalBalance */\n      0x00\n        /* \"Liquidation.sol\":1852:1864  tokenAddress */\n      0x02\n      0x00\n      swap1\n      sload\n      swap1\n      0x0100\n      exp\n      swap1\n      div\n      0xffffffffffffffffffffffffffffffffffffffff\n      and\n        /* \"Liquidation.sol\":1845:1875  IERC20(tokenAddress).balanceOf */\n      0xffffffffffffffffffffffffffffffffffffffff\n      and\n      0x70a08231\n        /* \"Liquidation.sol\":1884:1888  this */\n      address\n        /* \"Liquidation.sol\":1845:1890  IERC20(tokenAddress).balanceOf(address(this)) */\n      mload(0x40)\n      dup3\n      0xffffffff\n      and\n      0xe0\n      shl\n      dup2\n      mstore\n      0x04\n      add\n      tag_65\n      swap2\n      swap1\n      tag_19\n      jump\t// in\n    tag_65:\n      0x20\n      mload(0x40)\n      dup1\n      dup4\n      sub\n      dup2\n      dup7\n      gas\n      staticcall\n      iszero\n      dup1\n      iszero\n      tag_67\n      jumpi\n      returndatasize\n      0x00\n      dup1\n      returndatacopy\n      revert(0x00, returndatasize)\n    tag_67:\n      pop\n      pop\n      pop\n      pop\n      mload(0x40)\n      returndatasize\n      not(0x1f)\n      0x1f\n      dup3\n      add\n      and\n      dup3\n      add\n      dup1\n      0x40\n      mstore\n      pop\n      dup2\n      add\n      swap1\n      tag_68\n      swap2\n      swap1\n      tag_44\n      jump\t// in\n    tag_68:\n        /* \"Liquidation.sol\":1822:1890  uint256 finalBalance = IERC20(tokenAddress).balanceOf(address(this)) */\n      swap1\n      pop\n        /* \"Liquidation.sol\":1975:1987  tokenAddress */\n      0x02\n      0x00\n      swap1\n      sload\n      swap1\n      0x0100\n      exp\n      swap1\n      div\n      0xffffffffffffffffffffffffffffffffffffffff\n      and\n        /* \"Liquidation.sol\":1968:1997  IERC20(tokenAddress).transfer */\n      0xffffffffffffffffffffffffffffffffffffffff\n      and\n      0xa9059cbb\n        /* \"Liquidation.sol\":1998:2003  owner */\n      immutable(\"0xd5c18d7e3bafb054df95ae4ec77df9e35ab79a2d4652960c682088d76955cda7\")\n        /* \"Liquidation.sol\":2005:2017  finalBalance */\n      dup4\n        /* \"Liquidation.sol\":1968:2018  IERC20(tokenAddress).transfer(owner, finalBalance) */\n      mload(0x40)\n      dup4\n      0xffffffff\n      and\n      0xe0\n      shl\n      dup2\n      mstore\n      0x04\n      add\n      tag_69\n      swap3\n      swap2\n      swap1\n      tag_70\n      jump\t// in\n    tag_69:\n      0x20\n      mload(0x40)\n      dup1\n      dup4\n      sub\n      dup2\n      0x00\n      dup8\n      gas\n      call\n      iszero\n      dup1\n      iszero\n      tag_72\n      jumpi\n      returndatasize\n      0x00\n      dup1\n      returndatacopy\n      revert(0x00, returndatasize)\n    tag_72:\n      pop\n      pop\n      pop\n      pop\n      mload(0x40)\n      returndatasize\n      not(0x1f)\n      0x1f\n      dup3\n      add\n      and\n      dup3\n      add\n      dup1\n      0x40\n      mstore\n      pop\n      dup2\n      add\n      swap1\n      tag_73\n      swap2\n      swap1\n      tag_74\n      jump\t// in\n    tag_73:\n      pop\n        /* \"Liquidation.sol\":1296:2074  {... */\n      pop\n      pop\n      pop\n      pop\n      pop\n        /* \"@openzeppelin/contracts/security/ReentrancyGuard.sol\":2303:2323  _nonReentrantAfter() */\n      tag_75\n        /* \"@openzeppelin/contracts/security/ReentrancyGuard.sol\":2303:2321  _nonReentrantAfter */\n      tag_76\n        /* \"@openzeppelin/contracts/security/ReentrancyGuard.sol\":2303:2323  _nonReentrantAfter() */\n      jump\t// in\n    tag_75:\n        /* \"Liquidation.sol\":1195:2074  function setupLiquidation(address borrower, address platformAddress) external onlyOwner nonReentrant {... */\n      pop\n      pop\n      jump\t// out\n        /* \"Liquidation.sol\":988:1147  function setPlatform(address platformAddress, IDeFiPlatform interfaceAddress) public onlyOwner {... */\n    tag_15:\n        /* \"Liquidation.sol\":927:932  owner */\n      immutable(\"0xd5c18d7e3bafb054df95ae4ec77df9e35ab79a2d4652960c682088d76955cda7\")\n        /* \"Liquidation.sol\":913:932  msg.sender == owner */\n      0xffffffffffffffffffffffffffffffffffffffff\n      and\n        /* \"Liquidation.sol\":913:923  msg.sender */\n      caller\n        /* \"Liquidation.sol\":913:932  msg.sender == owner */\n      0xffffffffffffffffffffffffffffffffffffffff\n      and\n      eq\n        /* \"Liquidation.sol\":905:960  require(msg.sender == owner, \"Caller is not the owner\") */\n      tag_78\n      jumpi\n      mload(0x40)\n      0x08c379a000000000000000000000000000000000000000000000000000000000\n      dup2\n      mstore\n      0x04\n      add\n      tag_79\n      swap1\n      tag_32\n      jump\t// in\n    tag_79:\n      mload(0x40)\n      dup1\n      swap2\n      sub\n      swap1\n      revert\n    tag_78:\n        /* \"Liquidation.sol\":1123:1139  interfaceAddress */\n      dup1\n        /* \"Liquidation.sol\":1094:1103  platforms */\n      0x01\n        /* \"Liquidation.sol\":1094:1120  platforms[platformAddress] */\n      0x00\n        /* \"Liquidation.sol\":1104:1119  platformAddress */\n      dup5\n        /* \"Liquidation.sol\":1094:1120  platforms[platformAddress] */\n      0xffffffffffffffffffffffffffffffffffffffff\n      and\n      0xffffffffffffffffffffffffffffffffffffffff\n      and\n      dup2\n      mstore\n      0x20\n      add\n      swap1\n      dup2\n      mstore\n      0x20\n      add\n      0x00\n      keccak256\n      0x00\n        /* \"Liquidation.sol\":1094:1139  platforms[platformAddress] = interfaceAddress */\n      0x0100\n      exp\n      dup2\n      sload\n      dup2\n      0xffffffffffffffffffffffffffffffffffffffff\n      mul\n      not\n      and\n      swap1\n      dup4\n      0xffffffffffffffffffffffffffffffffffffffff\n      and\n      mul\n      or\n      swap1\n      sstore\n      pop\n        /* \"Liquidation.sol\":988:1147  function setPlatform(address platformAddress, IDeFiPlatform interfaceAddress) public onlyOwner {... */\n      pop\n      pop\n      jump\t// out\n        /* \"Liquidation.sol\":523:553  address public immutable owner */\n    tag_17:\n      immutable(\"0xd5c18d7e3bafb054df95ae4ec77df9e35ab79a2d4652960c682088d76955cda7\")\n      dup2\n      jump\t// out\n        /* \"Liquidation.sol\":671:698  address public tokenAddress */\n    tag_21:\n      0x02\n      0x00\n      swap1\n      sload\n      swap1\n      0x0100\n      exp\n      swap1\n      div\n      0xffffffffffffffffffffffffffffffffffffffff\n      and\n      dup2\n      jump\t// out\n        /* \"Liquidation.sol\":560:610  mapping(address => IDeFiPlatform) public platforms */\n    tag_26:\n      mstore(0x20, 0x01)\n      dup1\n      0x00\n      mstore\n      keccak256(0x00, 0x40)\n      0x00\n      swap2\n      pop\n      sload\n      swap1\n      0x0100\n      exp\n      swap1\n      div\n      0xffffffffffffffffffffffffffffffffffffffff\n      and\n      dup2\n      jump\t// out\n        /* \"@openzeppelin/contracts/security/ReentrancyGuard.sol\":2336:2623  function _nonReentrantBefore() private {... */\n    tag_35:\n        /* \"@openzeppelin/contracts/security/ReentrancyGuard.sol\":1759:1760  2 */\n      0x02\n        /* \"@openzeppelin/contracts/security/ReentrancyGuard.sol\":2468:2475  _status */\n      sload(0x00)\n        /* \"@openzeppelin/contracts/security/ReentrancyGuard.sol\":2468:2487  _status != _ENTERED */\n      sub\n        /* \"@openzeppelin/contracts/security/ReentrancyGuard.sol\":2460:2523  require(_status != _ENTERED, \"ReentrancyGuard: reentrant call\") */\n      tag_82\n      jumpi\n      mload(0x40)\n      0x08c379a000000000000000000000000000000000000000000000000000000000\n      dup2\n      mstore\n      0x04\n      add\n      tag_83\n      swap1\n      tag_84\n      jump\t// in\n    tag_83:\n      mload(0x40)\n      dup1\n      swap2\n      sub\n      swap1\n      revert\n    tag_82:\n        /* \"@openzeppelin/contracts/security/ReentrancyGuard.sol\":1759:1760  2 */\n      0x02\n        /* \"@openzeppelin/contracts/security/ReentrancyGuard.sol\":2598:2605  _status */\n      0x00\n        /* \"@openzeppelin/contracts/security/ReentrancyGuard.sol\":2598:2616  _status = _ENTERED */\n      dup2\n      swap1\n      sstore\n      pop\n        /* \"@openzeppelin/contracts/security/ReentrancyGuard.sol\":2336:2623  function _nonReentrantBefore() private {... */\n      jump\t// out\n        /* \"@openzeppelin/contracts/security/ReentrancyGuard.sol\":2629:2838  function _nonReentrantAfter() private {... */\n    tag_76:\n        /* \"@openzeppelin/contracts/security/ReentrancyGuard.sol\":1716:1717  1 */\n      0x01\n        /* \"@openzeppelin/contracts/security/ReentrancyGuard.sol\":2809:2816  _status */\n      0x00\n        /* \"@openzeppelin/contracts/security/ReentrancyGuard.sol\":2809:2831  _status = _NOT_ENTERED */\n      dup2\n      swap1\n      sstore\n      pop\n        /* \"@openzeppelin/contracts/security/ReentrancyGuard.sol\":2629:2838  function _nonReentrantAfter() private {... */\n      jump\t// out\n        /* \"#utility.yul\":88:205   */\n    tag_87:\n        /* \"#utility.yul\":197:198   */\n      0x00\n        /* \"#utility.yul\":194:195   */\n      dup1\n        /* \"#utility.yul\":187:199   */\n      revert\n        /* \"#utility.yul\":334:460   */\n    tag_89:\n        /* \"#utility.yul\":371:378   */\n      0x00\n        /* \"#utility.yul\":411:453   */\n      0xffffffffffffffffffffffffffffffffffffffff\n        /* \"#utility.yul\":404:409   */\n      dup3\n        /* \"#utility.yul\":400:454   */\n      and\n        /* \"#utility.yul\":389:454   */\n      swap1\n      pop\n        /* \"#utility.yul\":334:460   */\n      swap2\n      swap1\n      pop\n      jump\t// out\n        /* \"#utility.yul\":466:562   */\n    tag_90:\n        /* \"#utility.yul\":503:510   */\n      0x00\n        /* \"#utility.yul\":532:556   */\n      tag_127\n        /* \"#utility.yul\":550:555   */\n      dup3\n        /* \"#utility.yul\":532:556   */\n      tag_89\n      jump\t// in\n    tag_127:\n        /* \"#utility.yul\":521:556   */\n      swap1\n      pop\n        /* \"#utility.yul\":466:562   */\n      swap2\n      swap1\n      pop\n      jump\t// out\n        /* \"#utility.yul\":568:690   */\n    tag_91:\n        /* \"#utility.yul\":641:665   */\n      tag_129\n        /* \"#utility.yul\":659:664   */\n      dup2\n        /* \"#utility.yul\":641:665   */\n      tag_90\n      jump\t// in\n    tag_129:\n        /* \"#utility.yul\":634:639   */\n      dup2\n        /* \"#utility.yul\":631:666   */\n      eq\n        /* \"#utility.yul\":621:684   */\n      tag_130\n      jumpi\n        /* \"#utility.yul\":680:681   */\n      0x00\n        /* \"#utility.yul\":677:678   */\n      dup1\n        /* \"#utility.yul\":670:682   */\n      revert\n        /* \"#utility.yul\":621:684   */\n    tag_130:\n        /* \"#utility.yul\":568:690   */\n      pop\n      jump\t// out\n        /* \"#utility.yul\":696:835   */\n    tag_92:\n        /* \"#utility.yul\":742:747   */\n      0x00\n        /* \"#utility.yul\":780:786   */\n      dup2\n        /* \"#utility.yul\":767:787   */\n      calldataload\n        /* \"#utility.yul\":758:787   */\n      swap1\n      pop\n        /* \"#utility.yul\":796:829   */\n      tag_132\n        /* \"#utility.yul\":823:828   */\n      dup2\n        /* \"#utility.yul\":796:829   */\n      tag_91\n      jump\t// in\n    tag_132:\n        /* \"#utility.yul\":696:835   */\n      swap3\n      swap2\n      pop\n      pop\n      jump\t// out\n        /* \"#utility.yul\":841:1315   */\n    tag_10:\n        /* \"#utility.yul\":909:915   */\n      0x00\n        /* \"#utility.yul\":917:923   */\n      dup1\n        /* \"#utility.yul\":966:968   */\n      0x40\n        /* \"#utility.yul\":954:963   */\n      dup4\n        /* \"#utility.yul\":945:952   */\n      dup6\n        /* \"#utility.yul\":941:964   */\n      sub\n        /* \"#utility.yul\":937:969   */\n      slt\n        /* \"#utility.yul\":934:1053   */\n      iszero\n      tag_134\n      jumpi\n        /* \"#utility.yul\":972:1051   */\n      tag_135\n      tag_87\n      jump\t// in\n    tag_135:\n        /* \"#utility.yul\":934:1053   */\n    tag_134:\n        /* \"#utility.yul\":1092:1093   */\n      0x00\n        /* \"#utility.yul\":1117:1170   */\n      tag_136\n        /* \"#utility.yul\":1162:1169   */\n      dup6\n        /* \"#utility.yul\":1153:1159   */\n      dup3\n        /* \"#utility.yul\":1142:1151   */\n      dup7\n        /* \"#utility.yul\":1138:1160   */\n      add\n        /* \"#utility.yul\":1117:1170   */\n      tag_92\n      jump\t// in\n    tag_136:\n        /* \"#utility.yul\":1107:1170   */\n      swap3\n      pop\n        /* \"#utility.yul\":1063:1180   */\n      pop\n        /* \"#utility.yul\":1219:1221   */\n      0x20\n        /* \"#utility.yul\":1245:1298   */\n      tag_137\n        /* \"#utility.yul\":1290:1297   */\n      dup6\n        /* \"#utility.yul\":1281:1287   */\n      dup3\n        /* \"#utility.yul\":1270:1279   */\n      dup7\n        /* \"#utility.yul\":1266:1288   */\n      add\n        /* \"#utility.yul\":1245:1298   */\n      tag_92\n      jump\t// in\n    tag_137:\n        /* \"#utility.yul\":1235:1298   */\n      swap2\n      pop\n        /* \"#utility.yul\":1190:1308   */\n      pop\n        /* \"#utility.yul\":841:1315   */\n      swap3\n      pop\n      swap3\n      swap1\n      pop\n      jump\t// out\n        /* \"#utility.yul\":1321:1438   */\n    tag_93:\n        /* \"#utility.yul\":1379:1386   */\n      0x00\n        /* \"#utility.yul\":1408:1432   */\n      tag_139\n        /* \"#utility.yul\":1426:1431   */\n      dup3\n        /* \"#utility.yul\":1408:1432   */\n      tag_90\n      jump\t// in\n    tag_139:\n        /* \"#utility.yul\":1397:1432   */\n      swap1\n      pop\n        /* \"#utility.yul\":1321:1438   */\n      swap2\n      swap1\n      pop\n      jump\t// out\n        /* \"#utility.yul\":1444:1608   */\n    tag_94:\n        /* \"#utility.yul\":1538:1583   */\n      tag_141\n        /* \"#utility.yul\":1577:1582   */\n      dup2\n        /* \"#utility.yul\":1538:1583   */\n      tag_93\n      jump\t// in\n    tag_141:\n        /* \"#utility.yul\":1531:1536   */\n      dup2\n        /* \"#utility.yul\":1528:1584   */\n      eq\n        /* \"#utility.yul\":1518:1602   */\n      tag_142\n      jumpi\n        /* \"#utility.yul\":1598:1599   */\n      0x00\n        /* \"#utility.yul\":1595:1596   */\n      dup1\n        /* \"#utility.yul\":1588:1600   */\n      revert\n        /* \"#utility.yul\":1518:1602   */\n    tag_142:\n        /* \"#utility.yul\":1444:1608   */\n      pop\n      jump\t// out\n        /* \"#utility.yul\":1614:1795   */\n    tag_95:\n        /* \"#utility.yul\":1681:1686   */\n      0x00\n        /* \"#utility.yul\":1719:1725   */\n      dup2\n        /* \"#utility.yul\":1706:1726   */\n      calldataload\n        /* \"#utility.yul\":1697:1726   */\n      swap1\n      pop\n        /* \"#utility.yul\":1735:1789   */\n      tag_144\n        /* \"#utility.yul\":1783:1788   */\n      dup2\n        /* \"#utility.yul\":1735:1789   */\n      tag_94\n      jump\t// in\n    tag_144:\n        /* \"#utility.yul\":1614:1795   */\n      swap3\n      swap2\n      pop\n      pop\n      jump\t// out\n        /* \"#utility.yul\":1801:2317   */\n    tag_14:\n        /* \"#utility.yul\":1890:1896   */\n      0x00\n        /* \"#utility.yul\":1898:1904   */\n      dup1\n        /* \"#utility.yul\":1947:1949   */\n      0x40\n        /* \"#utility.yul\":1935:1944   */\n      dup4\n        /* \"#utility.yul\":1926:1933   */\n      dup6\n        /* \"#utility.yul\":1922:1945   */\n      sub\n        /* \"#utility.yul\":1918:1950   */\n      slt\n        /* \"#utility.yul\":1915:2034   */\n      iszero\n      tag_146\n      jumpi\n        /* \"#utility.yul\":1953:2032   */\n      tag_147\n      tag_87\n      jump\t// in\n    tag_147:\n        /* \"#utility.yul\":1915:2034   */\n    tag_146:\n        /* \"#utility.yul\":2073:2074   */\n      0x00\n        /* \"#utility.yul\":2098:2151   */\n      tag_148\n        /* \"#utility.yul\":2143:2150   */\n      dup6\n        /* \"#utility.yul\":2134:2140   */\n      dup3\n        /* \"#utility.yul\":2123:2132   */\n      dup7\n        /* \"#utility.yul\":2119:2141   */\n      add\n        /* \"#utility.yul\":2098:2151   */\n      tag_92\n      jump\t// in\n    tag_148:\n        /* \"#utility.yul\":2088:2151   */\n      swap3\n      pop\n        /* \"#utility.yul\":2044:2161   */\n      pop\n        /* \"#utility.yul\":2200:2202   */\n      0x20\n        /* \"#utility.yul\":2226:2300   */\n      tag_149\n        /* \"#utility.yul\":2292:2299   */\n      dup6\n        /* \"#utility.yul\":2283:2289   */\n      dup3\n        /* \"#utility.yul\":2272:2281   */\n      dup7\n        /* \"#utility.yul\":2268:2290   */\n      add\n        /* \"#utility.yul\":2226:2300   */\n      tag_95\n      jump\t// in\n    tag_149:\n        /* \"#utility.yul\":2216:2300   */\n      swap2\n      pop\n        /* \"#utility.yul\":2171:2310   */\n      pop\n        /* \"#utility.yul\":1801:2317   */\n      swap3\n      pop\n      swap3\n      swap1\n      pop\n      jump\t// out\n        /* \"#utility.yul\":2323:2441   */\n    tag_96:\n        /* \"#utility.yul\":2410:2434   */\n      tag_151\n        /* \"#utility.yul\":2428:2433   */\n      dup2\n        /* \"#utility.yul\":2410:2434   */\n      tag_90\n      jump\t// in\n    tag_151:\n        /* \"#utility.yul\":2405:2408   */\n      dup3\n        /* \"#utility.yul\":2398:2435   */\n      mstore\n        /* \"#utility.yul\":2323:2441   */\n      pop\n      pop\n      jump\t// out\n        /* \"#utility.yul\":2447:2669   */\n    tag_19:\n        /* \"#utility.yul\":2540:2544   */\n      0x00\n        /* \"#utility.yul\":2578:2580   */\n      0x20\n        /* \"#utility.yul\":2567:2576   */\n      dup3\n        /* \"#utility.yul\":2563:2581   */\n      add\n        /* \"#utility.yul\":2555:2581   */\n      swap1\n      pop\n        /* \"#utility.yul\":2591:2662   */\n      tag_153\n        /* \"#utility.yul\":2659:2660   */\n      0x00\n        /* \"#utility.yul\":2648:2657   */\n      dup4\n        /* \"#utility.yul\":2644:2661   */\n      add\n        /* \"#utility.yul\":2635:2641   */\n      dup5\n        /* \"#utility.yul\":2591:2662   */\n      tag_96\n      jump\t// in\n    tag_153:\n        /* \"#utility.yul\":2447:2669   */\n      swap3\n      swap2\n      pop\n      pop\n      jump\t// out\n        /* \"#utility.yul\":2675:3004   */\n    tag_25:\n        /* \"#utility.yul\":2734:2740   */\n      0x00\n        /* \"#utility.yul\":2783:2785   */\n      0x20\n        /* \"#utility.yul\":2771:2780   */\n      dup3\n        /* \"#utility.yul\":2762:2769   */\n      dup5\n        /* \"#utility.yul\":2758:2781   */\n      sub\n        /* \"#utility.yul\":2754:2786   */\n      slt\n        /* \"#utility.yul\":2751:2870   */\n      iszero\n      tag_155\n      jumpi\n        /* \"#utility.yul\":2789:2868   */\n      tag_156\n      tag_87\n      jump\t// in\n    tag_156:\n        /* \"#utility.yul\":2751:2870   */\n    tag_155:\n        /* \"#utility.yul\":2909:2910   */\n      0x00\n        /* \"#utility.yul\":2934:2987   */\n      tag_157\n        /* \"#utility.yul\":2979:2986   */\n      dup5\n        /* \"#utility.yul\":2970:2976   */\n      dup3\n        /* \"#utility.yul\":2959:2968   */\n      dup6\n        /* \"#utility.yul\":2955:2977   */\n      add\n        /* \"#utility.yul\":2934:2987   */\n      tag_92\n      jump\t// in\n    tag_157:\n        /* \"#utility.yul\":2924:2987   */\n      swap2\n      pop\n        /* \"#utility.yul\":2880:2997   */\n      pop\n        /* \"#utility.yul\":2675:3004   */\n      swap3\n      swap2\n      pop\n      pop\n      jump\t// out\n        /* \"#utility.yul\":3010:3070   */\n    tag_97:\n        /* \"#utility.yul\":3038:3041   */\n      0x00\n        /* \"#utility.yul\":3059:3064   */\n      dup2\n        /* \"#utility.yul\":3052:3064   */\n      swap1\n      pop\n        /* \"#utility.yul\":3010:3070   */\n      swap2\n      swap1\n      pop\n      jump\t// out\n        /* \"#utility.yul\":3076:3218   */\n    tag_98:\n        /* \"#utility.yul\":3126:3135   */\n      0x00\n        /* \"#utility.yul\":3159:3212   */\n      tag_160\n        /* \"#utility.yul\":3177:3211   */\n      tag_161\n        /* \"#utility.yul\":3186:3210   */\n      tag_162\n        /* \"#utility.yul\":3204:3209   */\n      dup5\n        /* \"#utility.yul\":3186:3210   */\n      tag_89\n      jump\t// in\n    tag_162:\n        /* \"#utility.yul\":3177:3211   */\n      tag_97\n      jump\t// in\n    tag_161:\n        /* \"#utility.yul\":3159:3212   */\n      tag_89\n      jump\t// in\n    tag_160:\n        /* \"#utility.yul\":3146:3212   */\n      swap1\n      pop\n        /* \"#utility.yul\":3076:3218   */\n      swap2\n      swap1\n      pop\n      jump\t// out\n        /* \"#utility.yul\":3224:3350   */\n    tag_99:\n        /* \"#utility.yul\":3274:3283   */\n      0x00\n        /* \"#utility.yul\":3307:3344   */\n      tag_164\n        /* \"#utility.yul\":3338:3343   */\n      dup3\n        /* \"#utility.yul\":3307:3344   */\n      tag_98\n      jump\t// in\n    tag_164:\n        /* \"#utility.yul\":3294:3344   */\n      swap1\n      pop\n        /* \"#utility.yul\":3224:3350   */\n      swap2\n      swap1\n      pop\n      jump\t// out\n        /* \"#utility.yul\":3356:3503   */\n    tag_100:\n        /* \"#utility.yul\":3427:3436   */\n      0x00\n        /* \"#utility.yul\":3460:3497   */\n      tag_166\n        /* \"#utility.yul\":3491:3496   */\n      dup3\n        /* \"#utility.yul\":3460:3497   */\n      tag_99\n      jump\t// in\n    tag_166:\n        /* \"#utility.yul\":3447:3497   */\n      swap1\n      pop\n        /* \"#utility.yul\":3356:3503   */\n      swap2\n      swap1\n      pop\n      jump\t// out\n        /* \"#utility.yul\":3509:3682   */\n    tag_101:\n        /* \"#utility.yul\":3617:3675   */\n      tag_168\n        /* \"#utility.yul\":3669:3674   */\n      dup2\n        /* \"#utility.yul\":3617:3675   */\n      tag_100\n      jump\t// in\n    tag_168:\n        /* \"#utility.yul\":3612:3615   */\n      dup3\n        /* \"#utility.yul\":3605:3676   */\n      mstore\n        /* \"#utility.yul\":3509:3682   */\n      pop\n      pop\n      jump\t// out\n        /* \"#utility.yul\":3688:3952   */\n    tag_28:\n        /* \"#utility.yul\":3802:3806   */\n      0x00\n        /* \"#utility.yul\":3840:3842   */\n      0x20\n        /* \"#utility.yul\":3829:3838   */\n      dup3\n        /* \"#utility.yul\":3825:3843   */\n      add\n        /* \"#utility.yul\":3817:3843   */\n      swap1\n      pop\n        /* \"#utility.yul\":3853:3945   */\n      tag_170\n        /* \"#utility.yul\":3942:3943   */\n      0x00\n        /* \"#utility.yul\":3931:3940   */\n      dup4\n        /* \"#utility.yul\":3927:3944   */\n      add\n        /* \"#utility.yul\":3918:3924   */\n      dup5\n        /* \"#utility.yul\":3853:3945   */\n      tag_101\n      jump\t// in\n    tag_170:\n        /* \"#utility.yul\":3688:3952   */\n      swap3\n      swap2\n      pop\n      pop\n      jump\t// out\n        /* \"#utility.yul\":3958:4127   */\n    tag_102:\n        /* \"#utility.yul\":4042:4053   */\n      0x00\n        /* \"#utility.yul\":4076:4082   */\n      dup3\n        /* \"#utility.yul\":4071:4074   */\n      dup3\n        /* \"#utility.yul\":4064:4083   */\n      mstore\n        /* \"#utility.yul\":4116:4120   */\n      0x20\n        /* \"#utility.yul\":4111:4114   */\n      dup3\n        /* \"#utility.yul\":4107:4121   */\n      add\n        /* \"#utility.yul\":4092:4121   */\n      swap1\n      pop\n        /* \"#utility.yul\":3958:4127   */\n      swap3\n      swap2\n      pop\n      pop\n      jump\t// out\n        /* \"#utility.yul\":4133:4306   */\n    tag_103:\n        /* \"#utility.yul\":4273:4298   */\n      0x43616c6c6572206973206e6f7420746865206f776e6572000000000000000000\n        /* \"#utility.yul\":4269:4270   */\n      0x00\n        /* \"#utility.yul\":4261:4267   */\n      dup3\n        /* \"#utility.yul\":4257:4271   */\n      add\n        /* \"#utility.yul\":4250:4299   */\n      mstore\n        /* \"#utility.yul\":4133:4306   */\n      pop\n      jump\t// out\n        /* \"#utility.yul\":4312:4678   */\n    tag_104:\n        /* \"#utility.yul\":4454:4457   */\n      0x00\n        /* \"#utility.yul\":4475:4542   */\n      tag_174\n        /* \"#utility.yul\":4539:4541   */\n      0x17\n        /* \"#utility.yul\":4534:4537   */\n      dup4\n        /* \"#utility.yul\":4475:4542   */\n      tag_102\n      jump\t// in\n    tag_174:\n        /* \"#utility.yul\":4468:4542   */\n      swap2\n      pop\n        /* \"#utility.yul\":4551:4644   */\n      tag_175\n        /* \"#utility.yul\":4640:4643   */\n      dup3\n        /* \"#utility.yul\":4551:4644   */\n      tag_103\n      jump\t// in\n    tag_175:\n        /* \"#utility.yul\":4669:4671   */\n      0x20\n        /* \"#utility.yul\":4664:4667   */\n      dup3\n        /* \"#utility.yul\":4660:4672   */\n      add\n        /* \"#utility.yul\":4653:4672   */\n      swap1\n      pop\n        /* \"#utility.yul\":4312:4678   */\n      swap2\n      swap1\n      pop\n      jump\t// out\n        /* \"#utility.yul\":4684:5103   */\n    tag_32:\n        /* \"#utility.yul\":4850:4854   */\n      0x00\n        /* \"#utility.yul\":4888:4890   */\n      0x20\n        /* \"#utility.yul\":4877:4886   */\n      dup3\n        /* \"#utility.yul\":4873:4891   */\n      add\n        /* \"#utility.yul\":4865:4891   */\n      swap1\n      pop\n        /* \"#utility.yul\":4937:4946   */\n      dup2\n        /* \"#utility.yul\":4931:4935   */\n      dup2\n        /* \"#utility.yul\":4927:4947   */\n      sub\n        /* \"#utility.yul\":4923:4924   */\n      0x00\n        /* \"#utility.yul\":4912:4921   */\n      dup4\n        /* \"#utility.yul\":4908:4925   */\n      add\n        /* \"#utility.yul\":4901:4948   */\n      mstore\n        /* \"#utility.yul\":4965:5096   */\n      tag_177\n        /* \"#utility.yul\":5091:5095   */\n      dup2\n        /* \"#utility.yul\":4965:5096   */\n      tag_104\n      jump\t// in\n    tag_177:\n        /* \"#utility.yul\":4957:5096   */\n      swap1\n      pop\n        /* \"#utility.yul\":4684:5103   */\n      swap2\n      swap1\n      pop\n      jump\t// out\n        /* \"#utility.yul\":5109:5275   */\n    tag_105:\n        /* \"#utility.yul\":5249:5267   */\n      0x506c6174666f726d206e6f742073657400000000000000000000000000000000\n        /* \"#utility.yul\":5245:5246   */\n      0x00\n        /* \"#utility.yul\":5237:5243   */\n      dup3\n        /* \"#utility.yul\":5233:5247   */\n      add\n        /* \"#utility.yul\":5226:5268   */\n      mstore\n        /* \"#utility.yul\":5109:5275   */\n      pop\n      jump\t// out\n        /* \"#utility.yul\":5281:5647   */\n    tag_106:\n        /* \"#utility.yul\":5423:5426   */\n      0x00\n        /* \"#utility.yul\":5444:5511   */\n      tag_180\n        /* \"#utility.yul\":5508:5510   */\n      0x10\n        /* \"#utility.yul\":5503:5506   */\n      dup4\n        /* \"#utility.yul\":5444:5511   */\n      tag_102\n      jump\t// in\n    tag_180:\n        /* \"#utility.yul\":5437:5511   */\n      swap2\n      pop\n        /* \"#utility.yul\":5520:5613   */\n      tag_181\n        /* \"#utility.yul\":5609:5612   */\n      dup3\n        /* \"#utility.yul\":5520:5613   */\n      tag_105\n      jump\t// in\n    tag_181:\n        /* \"#utility.yul\":5638:5640   */\n      0x20\n        /* \"#utility.yul\":5633:5636   */\n      dup3\n        /* \"#utility.yul\":5629:5641   */\n      add\n        /* \"#utility.yul\":5622:5641   */\n      swap1\n      pop\n        /* \"#utility.yul\":5281:5647   */\n      swap2\n      swap1\n      pop\n      jump\t// out\n        /* \"#utility.yul\":5653:6072   */\n    tag_39:\n        /* \"#utility.yul\":5819:5823   */\n      0x00\n        /* \"#utility.yul\":5857:5859   */\n      0x20\n        /* \"#utility.yul\":5846:5855   */\n      dup3\n        /* \"#utility.yul\":5842:5860   */\n      add\n        /* \"#utility.yul\":5834:5860   */\n      swap1\n      pop\n        /* \"#utility.yul\":5906:5915   */\n      dup2\n        /* \"#utility.yul\":5900:5904   */\n      dup2\n        /* \"#utility.yul\":5896:5916   */\n      sub\n        /* \"#utility.yul\":5892:5893   */\n      0x00\n        /* \"#utility.yul\":5881:5890   */\n      dup4\n        /* \"#utility.yul\":5877:5894   */\n      add\n        /* \"#utility.yul\":5870:5917   */\n      mstore\n        /* \"#utility.yul\":5934:6065   */\n      tag_183\n        /* \"#utility.yul\":6060:6064   */\n      dup2\n        /* \"#utility.yul\":5934:6065   */\n      tag_106\n      jump\t// in\n    tag_183:\n        /* \"#utility.yul\":5926:6065   */\n      swap1\n      pop\n        /* \"#utility.yul\":5653:6072   */\n      swap2\n      swap1\n      pop\n      jump\t// out\n        /* \"#utility.yul\":6078:6155   */\n    tag_107:\n        /* \"#utility.yul\":6115:6122   */\n      0x00\n        /* \"#utility.yul\":6144:6149   */\n      dup2\n        /* \"#utility.yul\":6133:6149   */\n      swap1\n      pop\n        /* \"#utility.yul\":6078:6155   */\n      swap2\n      swap1\n      pop\n      jump\t// out\n        /* \"#utility.yul\":6161:6283   */\n    tag_108:\n        /* \"#utility.yul\":6234:6258   */\n      tag_186\n        /* \"#utility.yul\":6252:6257   */\n      dup2\n        /* \"#utility.yul\":6234:6258   */\n      tag_107\n      jump\t// in\n    tag_186:\n        /* \"#utility.yul\":6227:6232   */\n      dup2\n        /* \"#utility.yul\":6224:6259   */\n      eq\n        /* \"#utility.yul\":6214:6277   */\n      tag_187\n      jumpi\n        /* \"#utility.yul\":6273:6274   */\n      0x00\n        /* \"#utility.yul\":6270:6271   */\n      dup1\n        /* \"#utility.yul\":6263:6275   */\n      revert\n        /* \"#utility.yul\":6214:6277   */\n    tag_187:\n        /* \"#utility.yul\":6161:6283   */\n      pop\n      jump\t// out\n        /* \"#utility.yul\":6289:6432   */\n    tag_109:\n        /* \"#utility.yul\":6346:6351   */\n      0x00\n        /* \"#utility.yul\":6377:6383   */\n      dup2\n        /* \"#utility.yul\":6371:6384   */\n      mload\n        /* \"#utility.yul\":6362:6384   */\n      swap1\n      pop\n        /* \"#utility.yul\":6393:6426   */\n      tag_189\n        /* \"#utility.yul\":6420:6425   */\n      dup2\n        /* \"#utility.yul\":6393:6426   */\n      tag_108\n      jump\t// in\n    tag_189:\n        /* \"#utility.yul\":6289:6432   */\n      swap3\n      swap2\n      pop\n      pop\n      jump\t// out\n        /* \"#utility.yul\":6438:6789   */\n    tag_44:\n        /* \"#utility.yul\":6508:6514   */\n      0x00\n        /* \"#utility.yul\":6557:6559   */\n      0x20\n        /* \"#utility.yul\":6545:6554   */\n      dup3\n        /* \"#utility.yul\":6536:6543   */\n      dup5\n        /* \"#utility.yul\":6532:6555   */\n      sub\n        /* \"#utility.yul\":6528:6560   */\n      slt\n        /* \"#utility.yul\":6525:6644   */\n      iszero\n      tag_191\n      jumpi\n        /* \"#utility.yul\":6563:6642   */\n      tag_192\n      tag_87\n      jump\t// in\n    tag_192:\n        /* \"#utility.yul\":6525:6644   */\n    tag_191:\n        /* \"#utility.yul\":6683:6684   */\n      0x00\n        /* \"#utility.yul\":6708:6772   */\n      tag_193\n        /* \"#utility.yul\":6764:6771   */\n      dup5\n        /* \"#utility.yul\":6755:6761   */\n      dup3\n        /* \"#utility.yul\":6744:6753   */\n      dup6\n        /* \"#utility.yul\":6740:6762   */\n      add\n        /* \"#utility.yul\":6708:6772   */\n      tag_109\n      jump\t// in\n    tag_193:\n        /* \"#utility.yul\":6698:6772   */\n      swap2\n      pop\n        /* \"#utility.yul\":6654:6782   */\n      pop\n        /* \"#utility.yul\":6438:6789   */\n      swap3\n      swap2\n      pop\n      pop\n      jump\t// out\n        /* \"#utility.yul\":6795:6965   */\n    tag_110:\n        /* \"#utility.yul\":6935:6957   */\n      0x4e6f206465627420746f206c6971756964617465000000000000000000000000\n        /* \"#utility.yul\":6931:6932   */\n      0x00\n        /* \"#utility.yul\":6923:6929   */\n      dup3\n        /* \"#utility.yul\":6919:6933   */\n      add\n        /* \"#utility.yul\":6912:6958   */\n      mstore\n        /* \"#utility.yul\":6795:6965   */\n      pop\n      jump\t// out\n        /* \"#utility.yul\":6971:7337   */\n    tag_111:\n        /* \"#utility.yul\":7113:7116   */\n      0x00\n        /* \"#utility.yul\":7134:7201   */\n      tag_196\n        /* \"#utility.yul\":7198:7200   */\n      0x14\n        /* \"#utility.yul\":7193:7196   */\n      dup4\n        /* \"#utility.yul\":7134:7201   */\n      tag_102\n      jump\t// in\n    tag_196:\n        /* \"#utility.yul\":7127:7201   */\n      swap2\n      pop\n        /* \"#utility.yul\":7210:7303   */\n      tag_197\n        /* \"#utility.yul\":7299:7302   */\n      dup3\n        /* \"#utility.yul\":7210:7303   */\n      tag_110\n      jump\t// in\n    tag_197:\n        /* \"#utility.yul\":7328:7330   */\n      0x20\n        /* \"#utility.yul\":7323:7326   */\n      dup3\n        /* \"#utility.yul\":7319:7331   */\n      add\n        /* \"#utility.yul\":7312:7331   */\n      swap1\n      pop\n        /* \"#utility.yul\":6971:7337   */\n      swap2\n      swap1\n      pop\n      jump\t// out\n        /* \"#utility.yul\":7343:7762   */\n    tag_54:\n        /* \"#utility.yul\":7509:7513   */\n      0x00\n        /* \"#utility.yul\":7547:7549   */\n      0x20\n        /* \"#utility.yul\":7536:7545   */\n      dup3\n        /* \"#utility.yul\":7532:7550   */\n      add\n        /* \"#utility.yul\":7524:7550   */\n      swap1\n      pop\n        /* \"#utility.yul\":7596:7605   */\n      dup2\n        /* \"#utility.yul\":7590:7594   */\n      dup2\n        /* \"#utility.yul\":7586:7606   */\n      sub\n        /* \"#utility.yul\":7582:7583   */\n      0x00\n        /* \"#utility.yul\":7571:7580   */\n      dup4\n        /* \"#utility.yul\":7567:7584   */\n      add\n        /* \"#utility.yul\":7560:7607   */\n      mstore\n        /* \"#utility.yul\":7624:7755   */\n      tag_199\n        /* \"#utility.yul\":7750:7754   */\n      dup2\n        /* \"#utility.yul\":7624:7755   */\n      tag_111\n      jump\t// in\n    tag_199:\n        /* \"#utility.yul\":7616:7755   */\n      swap1\n      pop\n        /* \"#utility.yul\":7343:7762   */\n      swap2\n      swap1\n      pop\n      jump\t// out\n        /* \"#utility.yul\":7768:7948   */\n    tag_112:\n        /* \"#utility.yul\":7816:7893   */\n      0x4e487b7100000000000000000000000000000000000000000000000000000000\n        /* \"#utility.yul\":7813:7814   */\n      0x00\n        /* \"#utility.yul\":7806:7894   */\n      mstore\n        /* \"#utility.yul\":7913:7917   */\n      0x11\n        /* \"#utility.yul\":7910:7911   */\n      0x04\n        /* \"#utility.yul\":7903:7918   */\n      mstore\n        /* \"#utility.yul\":7937:7941   */\n      0x24\n        /* \"#utility.yul\":7934:7935   */\n      0x00\n        /* \"#utility.yul\":7927:7942   */\n      revert\n        /* \"#utility.yul\":7954:8364   */\n    tag_56:\n        /* \"#utility.yul\":7994:8001   */\n      0x00\n        /* \"#utility.yul\":8017:8037   */\n      tag_202\n        /* \"#utility.yul\":8035:8036   */\n      dup3\n        /* \"#utility.yul\":8017:8037   */\n      tag_107\n      jump\t// in\n    tag_202:\n        /* \"#utility.yul\":8012:8037   */\n      swap2\n      pop\n        /* \"#utility.yul\":8051:8071   */\n      tag_203\n        /* \"#utility.yul\":8069:8070   */\n      dup4\n        /* \"#utility.yul\":8051:8071   */\n      tag_107\n      jump\t// in\n    tag_203:\n        /* \"#utility.yul\":8046:8071   */\n      swap3\n      pop\n        /* \"#utility.yul\":8106:8107   */\n      dup3\n        /* \"#utility.yul\":8103:8104   */\n      dup3\n        /* \"#utility.yul\":8099:8108   */\n      mul\n        /* \"#utility.yul\":8128:8158   */\n      tag_204\n        /* \"#utility.yul\":8146:8157   */\n      dup2\n        /* \"#utility.yul\":8128:8158   */\n      tag_107\n      jump\t// in\n    tag_204:\n        /* \"#utility.yul\":8117:8158   */\n      swap2\n      pop\n        /* \"#utility.yul\":8307:8308   */\n      dup3\n        /* \"#utility.yul\":8298:8305   */\n      dup3\n        /* \"#utility.yul\":8294:8309   */\n      div\n        /* \"#utility.yul\":8291:8292   */\n      dup5\n        /* \"#utility.yul\":8288:8310   */\n      eq\n        /* \"#utility.yul\":8268:8269   */\n      dup4\n        /* \"#utility.yul\":8261:8270   */\n      iszero\n        /* \"#utility.yul\":8241:8324   */\n      or\n        /* \"#utility.yul\":8218:8357   */\n      tag_205\n      jumpi\n        /* \"#utility.yul\":8337:8355   */\n      tag_206\n      tag_112\n      jump\t// in\n    tag_206:\n        /* \"#utility.yul\":8218:8357   */\n    tag_205:\n        /* \"#utility.yul\":8002:8364   */\n      pop\n        /* \"#utility.yul\":7954:8364   */\n      swap3\n      swap2\n      pop\n      pop\n      jump\t// out\n        /* \"#utility.yul\":8370:8551   */\n    tag_113:\n        /* \"#utility.yul\":8510:8543   */\n      0x436f6c6c61746572616c697a6174696f6e2069732073756666696369656e7400\n        /* \"#utility.yul\":8506:8507   */\n      0x00\n        /* \"#utility.yul\":8498:8504   */\n      dup3\n        /* \"#utility.yul\":8494:8508   */\n      add\n        /* \"#utility.yul\":8487:8544   */\n      mstore\n        /* \"#utility.yul\":8370:8551   */\n      pop\n      jump\t// out\n        /* \"#utility.yul\":8557:8923   */\n    tag_114:\n        /* \"#utility.yul\":8699:8702   */\n      0x00\n        /* \"#utility.yul\":8720:8787   */\n      tag_209\n        /* \"#utility.yul\":8784:8786   */\n      0x1f\n        /* \"#utility.yul\":8779:8782   */\n      dup4\n        /* \"#utility.yul\":8720:8787   */\n      tag_102\n      jump\t// in\n    tag_209:\n        /* \"#utility.yul\":8713:8787   */\n      swap2\n      pop\n        /* \"#utility.yul\":8796:8889   */\n      tag_210\n        /* \"#utility.yul\":8885:8888   */\n      dup3\n        /* \"#utility.yul\":8796:8889   */\n      tag_113\n      jump\t// in\n    tag_210:\n        /* \"#utility.yul\":8914:8916   */\n      0x20\n        /* \"#utility.yul\":8909:8912   */\n      dup3\n        /* \"#utility.yul\":8905:8917   */\n      add\n        /* \"#utility.yul\":8898:8917   */\n      swap1\n      pop\n        /* \"#utility.yul\":8557:8923   */\n      swap2\n      swap1\n      pop\n      jump\t// out\n        /* \"#utility.yul\":8929:9348   */\n    tag_60:\n        /* \"#utility.yul\":9095:9099   */\n      0x00\n        /* \"#utility.yul\":9133:9135   */\n      0x20\n        /* \"#utility.yul\":9122:9131   */\n      dup3\n        /* \"#utility.yul\":9118:9136   */\n      add\n        /* \"#utility.yul\":9110:9136   */\n      swap1\n      pop\n        /* \"#utility.yul\":9182:9191   */\n      dup2\n        /* \"#utility.yul\":9176:9180   */\n      dup2\n        /* \"#utility.yul\":9172:9192   */\n      sub\n        /* \"#utility.yul\":9168:9169   */\n      0x00\n        /* \"#utility.yul\":9157:9166   */\n      dup4\n        /* \"#utility.yul\":9153:9170   */\n      add\n        /* \"#utility.yul\":9146:9193   */\n      mstore\n        /* \"#utility.yul\":9210:9341   */\n      tag_212\n        /* \"#utility.yul\":9336:9340   */\n      dup2\n        /* \"#utility.yul\":9210:9341   */\n      tag_114\n      jump\t// in\n    tag_212:\n        /* \"#utility.yul\":9202:9341   */\n      swap1\n      pop\n        /* \"#utility.yul\":8929:9348   */\n      swap2\n      swap1\n      pop\n      jump\t// out\n        /* \"#utility.yul\":9354:9472   */\n    tag_115:\n        /* \"#utility.yul\":9441:9465   */\n      tag_214\n        /* \"#utility.yul\":9459:9464   */\n      dup2\n        /* \"#utility.yul\":9441:9465   */\n      tag_107\n      jump\t// in\n    tag_214:\n        /* \"#utility.yul\":9436:9439   */\n      dup3\n        /* \"#utility.yul\":9429:9466   */\n      mstore\n        /* \"#utility.yul\":9354:9472   */\n      pop\n      pop\n      jump\t// out\n        /* \"#utility.yul\":9478:9810   */\n    tag_70:\n        /* \"#utility.yul\":9599:9603   */\n      0x00\n        /* \"#utility.yul\":9637:9639   */\n      0x40\n        /* \"#utility.yul\":9626:9635   */\n      dup3\n        /* \"#utility.yul\":9622:9640   */\n      add\n        /* \"#utility.yul\":9614:9640   */\n      swap1\n      pop\n        /* \"#utility.yul\":9650:9721   */\n      tag_216\n        /* \"#utility.yul\":9718:9719   */\n      0x00\n        /* \"#utility.yul\":9707:9716   */\n      dup4\n        /* \"#utility.yul\":9703:9720   */\n      add\n        /* \"#utility.yul\":9694:9700   */\n      dup6\n        /* \"#utility.yul\":9650:9721   */\n      tag_96\n      jump\t// in\n    tag_216:\n        /* \"#utility.yul\":9731:9803   */\n      tag_217\n        /* \"#utility.yul\":9799:9801   */\n      0x20\n        /* \"#utility.yul\":9788:9797   */\n      dup4\n        /* \"#utility.yul\":9784:9802   */\n      add\n        /* \"#utility.yul\":9775:9781   */\n      dup5\n        /* \"#utility.yul\":9731:9803   */\n      tag_115\n      jump\t// in\n    tag_217:\n        /* \"#utility.yul\":9478:9810   */\n      swap4\n      swap3\n      pop\n      pop\n      pop\n      jump\t// out\n        /* \"#utility.yul\":9816:9906   */\n    tag_116:\n        /* \"#utility.yul\":9850:9857   */\n      0x00\n        /* \"#utility.yul\":9893:9898   */\n      dup2\n        /* \"#utility.yul\":9886:9899   */\n      iszero\n        /* \"#utility.yul\":9879:9900   */\n      iszero\n        /* \"#utility.yul\":9868:9900   */\n      swap1\n      pop\n        /* \"#utility.yul\":9816:9906   */\n      swap2\n      swap1\n      pop\n      jump\t// out\n        /* \"#utility.yul\":9912:10028   */\n    tag_117:\n        /* \"#utility.yul\":9982:10003   */\n      tag_220\n        /* \"#utility.yul\":9997:10002   */\n      dup2\n        /* \"#utility.yul\":9982:10003   */\n      tag_116\n      jump\t// in\n    tag_220:\n        /* \"#utility.yul\":9975:9980   */\n      dup2\n        /* \"#utility.yul\":9972:10004   */\n      eq\n        /* \"#utility.yul\":9962:10022   */\n      tag_221\n      jumpi\n        /* \"#utility.yul\":10018:10019   */\n      0x00\n        /* \"#utility.yul\":10015:10016   */\n      dup1\n        /* \"#utility.yul\":10008:10020   */\n      revert\n        /* \"#utility.yul\":9962:10022   */\n    tag_221:\n        /* \"#utility.yul\":9912:10028   */\n      pop\n      jump\t// out\n        /* \"#utility.yul\":10034:10171   */\n    tag_118:\n        /* \"#utility.yul\":10088:10093   */\n      0x00\n        /* \"#utility.yul\":10119:10125   */\n      dup2\n        /* \"#utility.yul\":10113:10126   */\n      mload\n        /* \"#utility.yul\":10104:10126   */\n      swap1\n      pop\n        /* \"#utility.yul\":10135:10165   */\n      tag_223\n        /* \"#utility.yul\":10159:10164   */\n      dup2\n        /* \"#utility.yul\":10135:10165   */\n      tag_117\n      jump\t// in\n    tag_223:\n        /* \"#utility.yul\":10034:10171   */\n      swap3\n      swap2\n      pop\n      pop\n      jump\t// out\n        /* \"#utility.yul\":10177:10522   */\n    tag_74:\n        /* \"#utility.yul\":10244:10250   */\n      0x00\n        /* \"#utility.yul\":10293:10295   */\n      0x20\n        /* \"#utility.yul\":10281:10290   */\n      dup3\n        /* \"#utility.yul\":10272:10279   */\n      dup5\n        /* \"#utility.yul\":10268:10291   */\n      sub\n        /* \"#utility.yul\":10264:10296   */\n      slt\n        /* \"#utility.yul\":10261:10380   */\n      iszero\n      tag_225\n      jumpi\n        /* \"#utility.yul\":10299:10378   */\n      tag_226\n      tag_87\n      jump\t// in\n    tag_226:\n        /* \"#utility.yul\":10261:10380   */\n    tag_225:\n        /* \"#utility.yul\":10419:10420   */\n      0x00\n        /* \"#utility.yul\":10444:10505   */\n      tag_227\n        /* \"#utility.yul\":10497:10504   */\n      dup5\n        /* \"#utility.yul\":10488:10494   */\n      dup3\n        /* \"#utility.yul\":10477:10486   */\n      dup6\n        /* \"#utility.yul\":10473:10495   */\n      add\n        /* \"#utility.yul\":10444:10505   */\n      tag_118\n      jump\t// in\n    tag_227:\n        /* \"#utility.yul\":10434:10505   */\n      swap2\n      pop\n        /* \"#utility.yul\":10390:10515   */\n      pop\n        /* \"#utility.yul\":10177:10522   */\n      swap3\n      swap2\n      pop\n      pop\n      jump\t// out\n        /* \"#utility.yul\":10528:10709   */\n    tag_119:\n        /* \"#utility.yul\":10668:10701   */\n      0x5265656e7472616e637947756172643a207265656e7472616e742063616c6c00\n        /* \"#utility.yul\":10664:10665   */\n      0x00\n        /* \"#utility.yul\":10656:10662   */\n      dup3\n        /* \"#utility.yul\":10652:10666   */\n      add\n        /* \"#utility.yul\":10645:10702   */\n      mstore\n        /* \"#utility.yul\":10528:10709   */\n      pop\n      jump\t// out\n        /* \"#utility.yul\":10715:11081   */\n    tag_120:\n        /* \"#utility.yul\":10857:10860   */\n      0x00\n        /* \"#utility.yul\":10878:10945   */\n      tag_230\n        /* \"#utility.yul\":10942:10944   */\n      0x1f\n        /* \"#utility.yul\":10937:10940   */\n      dup4\n        /* \"#utility.yul\":10878:10945   */\n      tag_102\n      jump\t// in\n    tag_230:\n        /* \"#utility.yul\":10871:10945   */\n      swap2\n      pop\n        /* \"#utility.yul\":10954:11047   */\n      tag_231\n        /* \"#utility.yul\":11043:11046   */\n      dup3\n        /* \"#utility.yul\":10954:11047   */\n      tag_119\n      jump\t// in\n    tag_231:\n        /* \"#utility.yul\":11072:11074   */\n      0x20\n        /* \"#utility.yul\":11067:11070   */\n      dup3\n        /* \"#utility.yul\":11063:11075   */\n      add\n        /* \"#utility.yul\":11056:11075   */\n      swap1\n      pop\n        /* \"#utility.yul\":10715:11081   */\n      swap2\n      swap1\n      pop\n      jump\t// out\n        /* \"#utility.yul\":11087:11506   */\n    tag_84:\n        /* \"#utility.yul\":11253:11257   */\n      0x00\n        /* \"#utility.yul\":11291:11293   */\n      0x20\n        /* \"#utility.yul\":11280:11289   */\n      dup3\n        /* \"#utility.yul\":11276:11294   */\n      add\n        /* \"#utility.yul\":11268:11294   */\n      swap1\n      pop\n        /* \"#utility.yul\":11340:11349   */\n      dup2\n        /* \"#utility.yul\":11334:11338   */\n      dup2\n        /* \"#utility.yul\":11330:11350   */\n      sub\n        /* \"#utility.yul\":11326:11327   */\n      0x00\n        /* \"#utility.yul\":11315:11324   */\n      dup4\n        /* \"#utility.yul\":11311:11328   */\n      add\n        /* \"#utility.yul\":11304:11351   */\n      mstore\n        /* \"#utility.yul\":11368:11499   */\n      tag_233\n        /* \"#utility.yul\":11494:11498   */\n      dup2\n        /* \"#utility.yul\":11368:11499   */\n      tag_120\n      jump\t// in\n    tag_233:\n        /* \"#utility.yul\":11360:11499   */\n      swap1\n      pop\n        /* \"#utility.yul\":11087:11506   */\n      swap2\n      swap1\n      pop\n      jump\t// out\n\n    auxdata: 0xa264697066735822122002b44070afeece98535169298464656b44adbb956fa426035734551cb948c1d964736f6c634300081a0033\n}\n",
				"bytecode": {
					"linkReferences": {},
					"object": "60a060405234801561000f575f80fd5b50604051610f01380380610f0183398181016040528101906100319190610110565b60015f819055503373ffffffffffffffffffffffffffffffffffffffff1660808173ffffffffffffffffffffffffffffffffffffffff16815250508060025f6101000a81548173ffffffffffffffffffffffffffffffffffffffff021916908373ffffffffffffffffffffffffffffffffffffffff1602179055505061013b565b5f80fd5b5f73ffffffffffffffffffffffffffffffffffffffff82169050919050565b5f6100df826100b6565b9050919050565b6100ef816100d5565b81146100f9575f80fd5b50565b5f8151905061010a816100e6565b92915050565b5f60208284031215610125576101246100b2565b5b5f610132848285016100fc565b91505092915050565b608051610d9a6101675f395f818160ff015281816105a30152818161063401526107410152610d9a5ff3fe608060405234801561000f575f80fd5b5060043610610055575f3560e01c806349f80742146100595780637722e81a146100755780638da5cb5b146100915780639d76ea58146100af578063d1313384146100cd575b5f80fd5b610073600480360381019061006e919061086c565b6100fd565b005b61008f600480360381019061008a91906108e5565b610632565b005b61009961073f565b6040516100a69190610932565b60405180910390f35b6100b7610763565b6040516100c49190610932565b60405180910390f35b6100e760048036038101906100e2919061094b565b610788565b6040516100f491906109d1565b60405180910390f35b7f000000000000000000000000000000000000000000000000000000000000000073ffffffffffffffffffffffffffffffffffffffff163373ffffffffffffffffffffffffffffffffffffffff161461018b576040517f08c379a000000000000000000000000000000000000000000000000000000000815260040161018290610a44565b60405180910390fd5b6101936107b8565b5f60015f8373ffffffffffffffffffffffffffffffffffffffff1673ffffffffffffffffffffffffffffffffffffffff1681526020019081526020015f205f9054906101000a900473ffffffffffffffffffffffffffffffffffffffff1690505f73ffffffffffffffffffffffffffffffffffffffff168173ffffffffffffffffffffffffffffffffffffffff1603610261576040517f08c379a000000000000000000000000000000000000000000000000000000000815260040161025890610aac565b60405180910390fd5b5f8173ffffffffffffffffffffffffffffffffffffffff16639a78e72e856040518263ffffffff1660e01b815260040161029b9190610932565b602060405180830381865afa1580156102b6573d5f803e3d5ffd5b505050506040513d601f19601f820116820180604052508101906102da9190610afd565b90505f8273ffffffffffffffffffffffffffffffffffffffff166397904e42866040518263ffffffff1660e01b81526004016103169190610932565b602060405180830381865afa158015610331573d5f803e3d5ffd5b505050506040513d601f19601f820116820180604052508101906103559190610afd565b90505f8373ffffffffffffffffffffffffffffffffffffffff16634fa2b53c6040518163ffffffff1660e01b8152600401602060405180830381865afa1580156103a1573d5f803e3d5ffd5b505050506040513d601f19601f820116820180604052508101906103c59190610afd565b90505f8311610409576040517f08c379a000000000000000000000000000000000000000000000000000000000815260040161040090610b72565b60405180910390fd5b80836104159190610bbd565b6064836104229190610bbd565b10610462576040517f08c379a000000000000000000000000000000000000000000000000000000000815260040161045990610c48565b60405180910390fd5b8373ffffffffffffffffffffffffffffffffffffffff166307a3f2d3876040518263ffffffff1660e01b815260040161049b9190610932565b5f604051808303815f87803b1580156104b2575f80fd5b505af11580156104c4573d5f803e3d5ffd5b505050505f60025f9054906101000a900473ffffffffffffffffffffffffffffffffffffffff1673ffffffffffffffffffffffffffffffffffffffff166370a08231306040518263ffffffff1660e01b81526004016105239190610932565b602060405180830381865afa15801561053e573d5f803e3d5ffd5b505050506040513d601f19601f820116820180604052508101906105629190610afd565b905060025f9054906101000a900473ffffffffffffffffffffffffffffffffffffffff1673ffffffffffffffffffffffffffffffffffffffff1663a9059cbb7f0000000000000000000000000000000000000000000000000000000000000000836040518363ffffffff1660e01b81526004016105e0929190610c75565b6020604051808303815f875af11580156105fc573d5f803e3d5ffd5b505050506040513d601f19601f820116820180604052508101906106209190610cd1565b50505050505061062e610805565b5050565b7f000000000000000000000000000000000000000000000000000000000000000073ffffffffffffffffffffffffffffffffffffffff163373ffffffffffffffffffffffffffffffffffffffff16146106c0576040517f08c379a00000000000000000000000000000000000000000000000000000000081526004016106b790610a44565b60405180910390fd5b8060015f8473ffffffffffffffffffffffffffffffffffffffff1673ffffffffffffffffffffffffffffffffffffffff1681526020019081526020015f205f6101000a81548173ffffffffffffffffffffffffffffffffffffffff021916908373ffffffffffffffffffffffffffffffffffffffff1602179055505050565b7f000000000000000000000000000000000000000000000000000000000000000081565b60025f9054906101000a900473ffffffffffffffffffffffffffffffffffffffff1681565b6001602052805f5260405f205f915054906101000a900473ffffffffffffffffffffffffffffffffffffffff1681565b60025f54036107fc576040517f08c379a00000000000000000000000000000000000000000000000000000000081526004016107f390610d46565b60405180910390fd5b60025f81905550565b60015f81905550565b5f80fd5b5f73ffffffffffffffffffffffffffffffffffffffff82169050919050565b5f61083b82610812565b9050919050565b61084b81610831565b8114610855575f80fd5b50565b5f8135905061086681610842565b92915050565b5f80604083850312156108825761088161080e565b5b5f61088f85828601610858565b92505060206108a085828601610858565b9150509250929050565b5f6108b482610831565b9050919050565b6108c4816108aa565b81146108ce575f80fd5b50565b5f813590506108df816108bb565b92915050565b5f80604083850312156108fb576108fa61080e565b5b5f61090885828601610858565b9250506020610919858286016108d1565b9150509250929050565b61092c81610831565b82525050565b5f6020820190506109455f830184610923565b92915050565b5f602082840312156109605761095f61080e565b5b5f61096d84828501610858565b91505092915050565b5f819050919050565b5f61099961099461098f84610812565b610976565b610812565b9050919050565b5f6109aa8261097f565b9050919050565b5f6109bb826109a0565b9050919050565b6109cb816109b1565b82525050565b5f6020820190506109e45f8301846109c2565b92915050565b5f82825260208201905092915050565b7f43616c6c6572206973206e6f7420746865206f776e65720000000000000000005f82015250565b5f610a2e6017836109ea565b9150610a39826109fa565b602082019050919050565b5f6020820190508181035f830152610a5b81610a22565b9050919050565b7f506c6174666f726d206e6f7420736574000000000000000000000000000000005f82015250565b5f610a966010836109ea565b9150610aa182610a62565b602082019050919050565b5f6020820190508181035f830152610ac381610a8a565b9050919050565b5f819050919050565b610adc81610aca565b8114610ae6575f80fd5b50565b5f81519050610af781610ad3565b92915050565b5f60208284031215610b1257610b1161080e565b5b5f610b1f84828501610ae9565b91505092915050565b7f4e6f206465627420746f206c69717569646174650000000000000000000000005f82015250565b5f610b5c6014836109ea565b9150610b6782610b28565b602082019050919050565b5f6020820190508181035f830152610b8981610b50565b9050919050565b7f4e487b71000000000000000000000000000000000000000000000000000000005f52601160045260245ffd5b5f610bc782610aca565b9150610bd283610aca565b9250828202610be081610aca565b91508282048414831517610bf757610bf6610b90565b5b5092915050565b7f436f6c6c61746572616c697a6174696f6e2069732073756666696369656e74005f82015250565b5f610c32601f836109ea565b9150610c3d82610bfe565b602082019050919050565b5f6020820190508181035f830152610c5f81610c26565b9050919050565b610c6f81610aca565b82525050565b5f604082019050610c885f830185610923565b610c956020830184610c66565b9392505050565b5f8115159050919050565b610cb081610c9c565b8114610cba575f80fd5b50565b5f81519050610ccb81610ca7565b92915050565b5f60208284031215610ce657610ce561080e565b5b5f610cf384828501610cbd565b91505092915050565b7f5265656e7472616e637947756172643a207265656e7472616e742063616c6c005f82015250565b5f610d30601f836109ea565b9150610d3b82610cfc565b602082019050919050565b5f6020820190508181035f830152610d5d81610d24565b905091905056fea264697066735822122002b44070afeece98535169298464656b44adbb956fa426035734551cb948c1d964736f6c634300081a0033",
					"opcodes": "PUSH1 0xA0 PUSH1 0x40 MSTORE CALLVALUE DUP1 ISZERO PUSH2 0xF JUMPI PUSH0 DUP1 REVERT JUMPDEST POP PUSH1 0x40 MLOAD PUSH2 0xF01 CODESIZE SUB DUP1 PUSH2 0xF01 DUP4 CODECOPY DUP2 DUP2 ADD PUSH1 0x40 MSTORE DUP2 ADD SWAP1 PUSH2 0x31 SWAP2 SWAP1 PUSH2 0x110 JUMP JUMPDEST PUSH1 0x1 PUSH0 DUP2 SWAP1 SSTORE POP CALLER PUSH20 0xFFFFFFFFFFFFFFFFFFFFFFFFFFFFFFFFFFFFFFFF AND PUSH1 0x80 DUP2 PUSH20 0xFFFFFFFFFFFFFFFFFFFFFFFFFFFFFFFFFFFFFFFF AND DUP2 MSTORE POP POP DUP1 PUSH1 0x2 PUSH0 PUSH2 0x100 EXP DUP2 SLOAD DUP2 PUSH20 0xFFFFFFFFFFFFFFFFFFFFFFFFFFFFFFFFFFFFFFFF MUL NOT AND SWAP1 DUP4 PUSH20 0xFFFFFFFFFFFFFFFFFFFFFFFFFFFFFFFFFFFFFFFF AND MUL OR SWAP1 SSTORE POP POP PUSH2 0x13B JUMP JUMPDEST PUSH0 DUP1 REVERT JUMPDEST PUSH0 PUSH20 0xFFFFFFFFFFFFFFFFFFFFFFFFFFFFFFFFFFFFFFFF DUP3 AND SWAP1 POP SWAP2 SWAP1 POP JUMP JUMPDEST PUSH0 PUSH2 0xDF DUP3 PUSH2 0xB6 JUMP JUMPDEST SWAP1 POP SWAP2 SWAP1 POP JUMP JUMPDEST PUSH2 0xEF DUP2 PUSH2 0xD5 JUMP JUMPDEST DUP2 EQ PUSH2 0xF9 JUMPI PUSH0 DUP1 REVERT JUMPDEST POP JUMP JUMPDEST PUSH0 DUP2 MLOAD SWAP1 POP PUSH2 0x10A DUP2 PUSH2 0xE6 JUMP JUMPDEST SWAP3 SWAP2 POP POP JUMP JUMPDEST PUSH0 PUSH1 0x20 DUP3 DUP5 SUB SLT ISZERO PUSH2 0x125 JUMPI PUSH2 0x124 PUSH2 0xB2 JUMP JUMPDEST JUMPDEST PUSH0 PUSH2 0x132 DUP5 DUP3 DUP6 ADD PUSH2 0xFC JUMP JUMPDEST SWAP2 POP POP SWAP3 SWAP2 POP POP JUMP JUMPDEST PUSH1 0x80 MLOAD PUSH2 0xD9A PUSH2 0x167 PUSH0 CODECOPY PUSH0 DUP2 DUP2 PUSH1 0xFF ADD MSTORE DUP2 DUP2 PUSH2 0x5A3 ADD MSTORE DUP2 DUP2 PUSH2 0x634 ADD MSTORE PUSH2 0x741 ADD MSTORE PUSH2 0xD9A PUSH0 RETURN INVALID PUSH1 0x80 PUSH1 0x40 MSTORE CALLVALUE DUP1 ISZERO PUSH2 0xF JUMPI PUSH0 DUP1 REVERT JUMPDEST POP PUSH1 0x4 CALLDATASIZE LT PUSH2 0x55 JUMPI PUSH0 CALLDATALOAD PUSH1 0xE0 SHR DUP1 PUSH4 0x49F80742 EQ PUSH2 0x59 JUMPI DUP1 PUSH4 0x7722E81A EQ PUSH2 0x75 JUMPI DUP1 PUSH4 0x8DA5CB5B EQ PUSH2 0x91 JUMPI DUP1 PUSH4 0x9D76EA58 EQ PUSH2 0xAF JUMPI DUP1 PUSH4 0xD1313384 EQ PUSH2 0xCD JUMPI JUMPDEST PUSH0 DUP1 REVERT JUMPDEST PUSH2 0x73 PUSH1 0x4 DUP1 CALLDATASIZE SUB DUP2 ADD SWAP1 PUSH2 0x6E SWAP2 SWAP1 PUSH2 0x86C JUMP JUMPDEST PUSH2 0xFD JUMP JUMPDEST STOP JUMPDEST PUSH2 0x8F PUSH1 0x4 DUP1 CALLDATASIZE SUB DUP2 ADD SWAP1 PUSH2 0x8A SWAP2 SWAP1 PUSH2 0x8E5 JUMP JUMPDEST PUSH2 0x632 JUMP JUMPDEST STOP JUMPDEST PUSH2 0x99 PUSH2 0x73F JUMP JUMPDEST PUSH1 0x40 MLOAD PUSH2 0xA6 SWAP2 SWAP1 PUSH2 0x932 JUMP JUMPDEST PUSH1 0x40 MLOAD DUP1 SWAP2 SUB SWAP1 RETURN JUMPDEST PUSH2 0xB7 PUSH2 0x763 JUMP JUMPDEST PUSH1 0x40 MLOAD PUSH2 0xC4 SWAP2 SWAP1 PUSH2 0x932 JUMP JUMPDEST PUSH1 0x40 MLOAD DUP1 SWAP2 SUB SWAP1 RETURN JUMPDEST PUSH2 0xE7 PUSH1 0x4 DUP1 CALLDATASIZE SUB DUP2 ADD SWAP1 PUSH2 0xE2 SWAP2 SWAP1 PUSH2 0x94B JUMP JUMPDEST PUSH2 0x788 JUMP JUMPDEST PUSH1 0x40 MLOAD PUSH2 0xF4 SWAP2 SWAP1 PUSH2 0x9D1 JUMP JUMPDEST PUSH1 0x40 MLOAD DUP1 SWAP2 SUB SWAP1 RETURN JUMPDEST PUSH32 0x0 PUSH20 0xFFFFFFFFFFFFFFFFFFFFFFFFFFFFFFFFFFFFFFFF AND CALLER PUSH20 0xFFFFFFFFFFFFFFFFFFFFFFFFFFFFFFFFFFFFFFFF AND EQ PUSH2 0x18B JUMPI PUSH1 0x40 MLOAD PUSH32 0x8C379A000000000000000000000000000000000000000000000000000000000 DUP2 MSTORE PUSH1 0x4 ADD PUSH2 0x182 SWAP1 PUSH2 0xA44 JUMP JUMPDEST PUSH1 0x40 MLOAD DUP1 SWAP2 SUB SWAP1 REVERT JUMPDEST PUSH2 0x193 PUSH2 0x7B8 JUMP JUMPDEST PUSH0 PUSH1 0x1 PUSH0 DUP4 PUSH20 0xFFFFFFFFFFFFFFFFFFFFFFFFFFFFFFFFFFFFFFFF AND PUSH20 0xFFFFFFFFFFFFFFFFFFFFFFFFFFFFFFFFFFFFFFFF AND DUP2 MSTORE PUSH1 0x20 ADD SWAP1 DUP2 MSTORE PUSH1 0x20 ADD PUSH0 KECCAK256 PUSH0 SWAP1 SLOAD SWAP1 PUSH2 0x100 EXP SWAP1 DIV PUSH20 0xFFFFFFFFFFFFFFFFFFFFFFFFFFFFFFFFFFFFFFFF AND SWAP1 POP PUSH0 PUSH20 0xFFFFFFFFFFFFFFFFFFFFFFFFFFFFFFFFFFFFFFFF AND DUP2 PUSH20 0xFFFFFFFFFFFFFFFFFFFFFFFFFFFFFFFFFFFFFFFF AND SUB PUSH2 0x261 JUMPI PUSH1 0x40 MLOAD PUSH32 0x8C379A000000000000000000000000000000000000000000000000000000000 DUP2 MSTORE PUSH1 0x4 ADD PUSH2 0x258 SWAP1 PUSH2 0xAAC JUMP JUMPDEST PUSH1 0x40 MLOAD DUP1 SWAP2 SUB SWAP1 REVERT JUMPDEST PUSH0 DUP2 PUSH20 0xFFFFFFFFFFFFFFFFFFFFFFFFFFFFFFFFFFFFFFFF AND PUSH4 0x9A78E72E DUP6 PUSH1 0x40 MLOAD DUP3 PUSH4 0xFFFFFFFF AND PUSH1 0xE0 SHL DUP2 MSTORE PUSH1 0x4 ADD PUSH2 0x29B SWAP2 SWAP1 PUSH2 0x932 JUMP JUMPDEST PUSH1 0x20 PUSH1 0x40 MLOAD DUP1 DUP4 SUB DUP2 DUP7 GAS STATICCALL ISZERO DUP1 ISZERO PUSH2 0x2B6 JUMPI RETURNDATASIZE PUSH0 DUP1 RETURNDATACOPY RETURNDATASIZE PUSH0 REVERT JUMPDEST POP POP POP POP PUSH1 0x40 MLOAD RETURNDATASIZE PUSH1 0x1F NOT PUSH1 0x1F DUP3 ADD AND DUP3 ADD DUP1 PUSH1 0x40 MSTORE POP DUP2 ADD SWAP1 PUSH2 0x2DA SWAP2 SWAP1 PUSH2 0xAFD JUMP JUMPDEST SWAP1 POP PUSH0 DUP3 PUSH20 0xFFFFFFFFFFFFFFFFFFFFFFFFFFFFFFFFFFFFFFFF AND PUSH4 0x97904E42 DUP7 PUSH1 0x40 MLOAD DUP3 PUSH4 0xFFFFFFFF AND PUSH1 0xE0 SHL DUP2 MSTORE PUSH1 0x4 ADD PUSH2 0x316 SWAP2 SWAP1 PUSH2 0x932 JUMP JUMPDEST PUSH1 0x20 PUSH1 0x40 MLOAD DUP1 DUP4 SUB DUP2 DUP7 GAS STATICCALL ISZERO DUP1 ISZERO PUSH2 0x331 JUMPI RETURNDATASIZE PUSH0 DUP1 RETURNDATACOPY RETURNDATASIZE PUSH0 REVERT JUMPDEST POP POP POP POP PUSH1 0x40 MLOAD RETURNDATASIZE PUSH1 0x1F NOT PUSH1 0x1F DUP3 ADD AND DUP3 ADD DUP1 PUSH1 0x40 MSTORE POP DUP2 ADD SWAP1 PUSH2 0x355 SWAP2 SWAP1 PUSH2 0xAFD JUMP JUMPDEST SWAP1 POP PUSH0 DUP4 PUSH20 0xFFFFFFFFFFFFFFFFFFFFFFFFFFFFFFFFFFFFFFFF AND PUSH4 0x4FA2B53C PUSH1 0x40 MLOAD DUP2 PUSH4 0xFFFFFFFF AND PUSH1 0xE0 SHL DUP2 MSTORE PUSH1 0x4 ADD PUSH1 0x20 PUSH1 0x40 MLOAD DUP1 DUP4 SUB DUP2 DUP7 GAS STATICCALL ISZERO DUP1 ISZERO PUSH2 0x3A1 JUMPI RETURNDATASIZE PUSH0 DUP1 RETURNDATACOPY RETURNDATASIZE PUSH0 REVERT JUMPDEST POP POP POP POP PUSH1 0x40 MLOAD RETURNDATASIZE PUSH1 0x1F NOT PUSH1 0x1F DUP3 ADD AND DUP3 ADD DUP1 PUSH1 0x40 MSTORE POP DUP2 ADD SWAP1 PUSH2 0x3C5 SWAP2 SWAP1 PUSH2 0xAFD JUMP JUMPDEST SWAP1 POP PUSH0 DUP4 GT PUSH2 0x409 JUMPI PUSH1 0x40 MLOAD PUSH32 0x8C379A000000000000000000000000000000000000000000000000000000000 DUP2 MSTORE PUSH1 0x4 ADD PUSH2 0x400 SWAP1 PUSH2 0xB72 JUMP JUMPDEST PUSH1 0x40 MLOAD DUP1 SWAP2 SUB SWAP1 REVERT JUMPDEST DUP1 DUP4 PUSH2 0x415 SWAP2 SWAP1 PUSH2 0xBBD JUMP JUMPDEST PUSH1 0x64 DUP4 PUSH2 0x422 SWAP2 SWAP1 PUSH2 0xBBD JUMP JUMPDEST LT PUSH2 0x462 JUMPI PUSH1 0x40 MLOAD PUSH32 0x8C379A000000000000000000000000000000000000000000000000000000000 DUP2 MSTORE PUSH1 0x4 ADD PUSH2 0x459 SWAP1 PUSH2 0xC48 JUMP JUMPDEST PUSH1 0x40 MLOAD DUP1 SWAP2 SUB SWAP1 REVERT JUMPDEST DUP4 PUSH20 0xFFFFFFFFFFFFFFFFFFFFFFFFFFFFFFFFFFFFFFFF AND PUSH4 0x7A3F2D3 DUP8 PUSH1 0x40 MLOAD DUP3 PUSH4 0xFFFFFFFF AND PUSH1 0xE0 SHL DUP2 MSTORE PUSH1 0x4 ADD PUSH2 0x49B SWAP2 SWAP1 PUSH2 0x932 JUMP JUMPDEST PUSH0 PUSH1 0x40 MLOAD DUP1 DUP4 SUB DUP2 PUSH0 DUP8 DUP1 EXTCODESIZE ISZERO DUP1 ISZERO PUSH2 0x4B2 JUMPI PUSH0 DUP1 REVERT JUMPDEST POP GAS CALL ISZERO DUP1 ISZERO PUSH2 0x4C4 JUMPI RETURNDATASIZE PUSH0 DUP1 RETURNDATACOPY RETURNDATASIZE PUSH0 REVERT JUMPDEST POP POP POP POP PUSH0 PUSH1 0x2 PUSH0 SWAP1 SLOAD SWAP1 PUSH2 0x100 EXP SWAP1 DIV PUSH20 0xFFFFFFFFFFFFFFFFFFFFFFFFFFFFFFFFFFFFFFFF AND PUSH20 0xFFFFFFFFFFFFFFFFFFFFFFFFFFFFFFFFFFFFFFFF AND PUSH4 0x70A08231 ADDRESS PUSH1 0x40 MLOAD DUP3 PUSH4 0xFFFFFFFF AND PUSH1 0xE0 SHL DUP2 MSTORE PUSH1 0x4 ADD PUSH2 0x523 SWAP2 SWAP1 PUSH2 0x932 JUMP JUMPDEST PUSH1 0x20 PUSH1 0x40 MLOAD DUP1 DUP4 SUB DUP2 DUP7 GAS STATICCALL ISZERO DUP1 ISZERO PUSH2 0x53E JUMPI RETURNDATASIZE PUSH0 DUP1 RETURNDATACOPY RETURNDATASIZE PUSH0 REVERT JUMPDEST POP POP POP POP PUSH1 0x40 MLOAD RETURNDATASIZE PUSH1 0x1F NOT PUSH1 0x1F DUP3 ADD AND DUP3 ADD DUP1 PUSH1 0x40 MSTORE POP DUP2 ADD SWAP1 PUSH2 0x562 SWAP2 SWAP1 PUSH2 0xAFD JUMP JUMPDEST SWAP1 POP PUSH1 0x2 PUSH0 SWAP1 SLOAD SWAP1 PUSH2 0x100 EXP SWAP1 DIV PUSH20 0xFFFFFFFFFFFFFFFFFFFFFFFFFFFFFFFFFFFFFFFF AND PUSH20 0xFFFFFFFFFFFFFFFFFFFFFFFFFFFFFFFFFFFFFFFF AND PUSH4 0xA9059CBB PUSH32 0x0 DUP4 PUSH1 0x40 MLOAD DUP4 PUSH4 0xFFFFFFFF AND PUSH1 0xE0 SHL DUP2 MSTORE PUSH1 0x4 ADD PUSH2 0x5E0 SWAP3 SWAP2 SWAP1 PUSH2 0xC75 JUMP JUMPDEST PUSH1 0x20 PUSH1 0x40 MLOAD DUP1 DUP4 SUB DUP2 PUSH0 DUP8 GAS CALL ISZERO DUP1 ISZERO PUSH2 0x5FC JUMPI RETURNDATASIZE PUSH0 DUP1 RETURNDATACOPY RETURNDATASIZE PUSH0 REVERT JUMPDEST POP POP POP POP PUSH1 0x40 MLOAD RETURNDATASIZE PUSH1 0x1F NOT PUSH1 0x1F DUP3 ADD AND DUP3 ADD DUP1 PUSH1 0x40 MSTORE POP DUP2 ADD SWAP1 PUSH2 0x620 SWAP2 SWAP1 PUSH2 0xCD1 JUMP JUMPDEST POP POP POP POP POP POP PUSH2 0x62E PUSH2 0x805 JUMP JUMPDEST POP POP JUMP JUMPDEST PUSH32 0x0 PUSH20 0xFFFFFFFFFFFFFFFFFFFFFFFFFFFFFFFFFFFFFFFF AND CALLER PUSH20 0xFFFFFFFFFFFFFFFFFFFFFFFFFFFFFFFFFFFFFFFF AND EQ PUSH2 0x6C0 JUMPI PUSH1 0x40 MLOAD PUSH32 0x8C379A000000000000000000000000000000000000000000000000000000000 DUP2 MSTORE PUSH1 0x4 ADD PUSH2 0x6B7 SWAP1 PUSH2 0xA44 JUMP JUMPDEST PUSH1 0x40 MLOAD DUP1 SWAP2 SUB SWAP1 REVERT JUMPDEST DUP1 PUSH1 0x1 PUSH0 DUP5 PUSH20 0xFFFFFFFFFFFFFFFFFFFFFFFFFFFFFFFFFFFFFFFF AND PUSH20 0xFFFFFFFFFFFFFFFFFFFFFFFFFFFFFFFFFFFFFFFF AND DUP2 MSTORE PUSH1 0x20 ADD SWAP1 DUP2 MSTORE PUSH1 0x20 ADD PUSH0 KECCAK256 PUSH0 PUSH2 0x100 EXP DUP2 SLOAD DUP2 PUSH20 0xFFFFFFFFFFFFFFFFFFFFFFFFFFFFFFFFFFFFFFFF MUL NOT AND SWAP1 DUP4 PUSH20 0xFFFFFFFFFFFFFFFFFFFFFFFFFFFFFFFFFFFFFFFF AND MUL OR SWAP1 SSTORE POP POP POP JUMP JUMPDEST PUSH32 0x0 DUP2 JUMP JUMPDEST PUSH1 0x2 PUSH0 SWAP1 SLOAD SWAP1 PUSH2 0x100 EXP SWAP1 DIV PUSH20 0xFFFFFFFFFFFFFFFFFFFFFFFFFFFFFFFFFFFFFFFF AND DUP2 JUMP JUMPDEST PUSH1 0x1 PUSH1 0x20 MSTORE DUP1 PUSH0 MSTORE PUSH1 0x40 PUSH0 KECCAK256 PUSH0 SWAP2 POP SLOAD SWAP1 PUSH2 0x100 EXP SWAP1 DIV PUSH20 0xFFFFFFFFFFFFFFFFFFFFFFFFFFFFFFFFFFFFFFFF AND DUP2 JUMP JUMPDEST PUSH1 0x2 PUSH0 SLOAD SUB PUSH2 0x7FC JUMPI PUSH1 0x40 MLOAD PUSH32 0x8C379A000000000000000000000000000000000000000000000000000000000 DUP2 MSTORE PUSH1 0x4 ADD PUSH2 0x7F3 SWAP1 PUSH2 0xD46 JUMP JUMPDEST PUSH1 0x40 MLOAD DUP1 SWAP2 SUB SWAP1 REVERT JUMPDEST PUSH1 0x2 PUSH0 DUP2 SWAP1 SSTORE POP JUMP JUMPDEST PUSH1 0x1 PUSH0 DUP2 SWAP1 SSTORE POP JUMP JUMPDEST PUSH0 DUP1 REVERT JUMPDEST PUSH0 PUSH20 0xFFFFFFFFFFFFFFFFFFFFFFFFFFFFFFFFFFFFFFFF DUP3 AND SWAP1 POP SWAP2 SWAP1 POP JUMP JUMPDEST PUSH0 PUSH2 0x83B DUP3 PUSH2 0x812 JUMP JUMPDEST SWAP1 POP SWAP2 SWAP1 POP JUMP JUMPDEST PUSH2 0x84B DUP2 PUSH2 0x831 JUMP JUMPDEST DUP2 EQ PUSH2 0x855 JUMPI PUSH0 DUP1 REVERT JUMPDEST POP JUMP JUMPDEST PUSH0 DUP2 CALLDATALOAD SWAP1 POP PUSH2 0x866 DUP2 PUSH2 0x842 JUMP JUMPDEST SWAP3 SWAP2 POP POP JUMP JUMPDEST PUSH0 DUP1 PUSH1 0x40 DUP4 DUP6 SUB SLT ISZERO PUSH2 0x882 JUMPI PUSH2 0x881 PUSH2 0x80E JUMP JUMPDEST JUMPDEST PUSH0 PUSH2 0x88F DUP6 DUP3 DUP7 ADD PUSH2 0x858 JUMP JUMPDEST SWAP3 POP POP PUSH1 0x20 PUSH2 0x8A0 DUP6 DUP3 DUP7 ADD PUSH2 0x858 JUMP JUMPDEST SWAP2 POP POP SWAP3 POP SWAP3 SWAP1 POP JUMP JUMPDEST PUSH0 PUSH2 0x8B4 DUP3 PUSH2 0x831 JUMP JUMPDEST SWAP1 POP SWAP2 SWAP1 POP JUMP JUMPDEST PUSH2 0x8C4 DUP2 PUSH2 0x8AA JUMP JUMPDEST DUP2 EQ PUSH2 0x8CE JUMPI PUSH0 DUP1 REVERT JUMPDEST POP JUMP JUMPDEST PUSH0 DUP2 CALLDATALOAD SWAP1 POP PUSH2 0x8DF DUP2 PUSH2 0x8BB JUMP JUMPDEST SWAP3 SWAP2 POP POP JUMP JUMPDEST PUSH0 DUP1 PUSH1 0x40 DUP4 DUP6 SUB SLT ISZERO PUSH2 0x8FB JUMPI PUSH2 0x8FA PUSH2 0x80E JUMP JUMPDEST JUMPDEST PUSH0 PUSH2 0x908 DUP6 DUP3 DUP7 ADD PUSH2 0x858 JUMP JUMPDEST SWAP3 POP POP PUSH1 0x20 PUSH2 0x919 DUP6 DUP3 DUP7 ADD PUSH2 0x8D1 JUMP JUMPDEST SWAP2 POP POP SWAP3 POP SWAP3 SWAP1 POP JUMP JUMPDEST PUSH2 0x92C DUP2 PUSH2 0x831 JUMP JUMPDEST DUP3 MSTORE POP POP JUMP JUMPDEST PUSH0 PUSH1 0x20 DUP3 ADD SWAP1 POP PUSH2 0x945 PUSH0 DUP4 ADD DUP5 PUSH2 0x923 JUMP JUMPDEST SWAP3 SWAP2 POP POP JUMP JUMPDEST PUSH0 PUSH1 0x20 DUP3 DUP5 SUB SLT ISZERO PUSH2 0x960 JUMPI PUSH2 0x95F PUSH2 0x80E JUMP JUMPDEST JUMPDEST PUSH0 PUSH2 0x96D DUP5 DUP3 DUP6 ADD PUSH2 0x858 JUMP JUMPDEST SWAP2 POP POP SWAP3 SWAP2 POP POP JUMP JUMPDEST PUSH0 DUP2 SWAP1 POP SWAP2 SWAP1 POP JUMP JUMPDEST PUSH0 PUSH2 0x999 PUSH2 0x994 PUSH2 0x98F DUP5 PUSH2 0x812 JUMP JUMPDEST PUSH2 0x976 JUMP JUMPDEST PUSH2 0x812 JUMP JUMPDEST SWAP1 POP SWAP2 SWAP1 POP JUMP JUMPDEST PUSH0 PUSH2 0x9AA DUP3 PUSH2 0x97F JUMP JUMPDEST SWAP1 POP SWAP2 SWAP1 POP JUMP JUMPDEST PUSH0 PUSH2 0x9BB DUP3 PUSH2 0x9A0 JUMP JUMPDEST SWAP1 POP SWAP2 SWAP1 POP JUMP JUMPDEST PUSH2 0x9CB DUP2 PUSH2 0x9B1 JUMP JUMPDEST DUP3 MSTORE POP POP JUMP JUMPDEST PUSH0 PUSH1 0x20 DUP3 ADD SWAP1 POP PUSH2 0x9E4 PUSH0 DUP4 ADD DUP5 PUSH2 0x9C2 JUMP JUMPDEST SWAP3 SWAP2 POP POP JUMP JUMPDEST PUSH0 DUP3 DUP3 MSTORE PUSH1 0x20 DUP3 ADD SWAP1 POP SWAP3 SWAP2 POP POP JUMP JUMPDEST PUSH32 0x43616C6C6572206973206E6F7420746865206F776E6572000000000000000000 PUSH0 DUP3 ADD MSTORE POP JUMP JUMPDEST PUSH0 PUSH2 0xA2E PUSH1 0x17 DUP4 PUSH2 0x9EA JUMP JUMPDEST SWAP2 POP PUSH2 0xA39 DUP3 PUSH2 0x9FA JUMP JUMPDEST PUSH1 0x20 DUP3 ADD SWAP1 POP SWAP2 SWAP1 POP JUMP JUMPDEST PUSH0 PUSH1 0x20 DUP3 ADD SWAP1 POP DUP2 DUP2 SUB PUSH0 DUP4 ADD MSTORE PUSH2 0xA5B DUP2 PUSH2 0xA22 JUMP JUMPDEST SWAP1 POP SWAP2 SWAP1 POP JUMP JUMPDEST PUSH32 0x506C6174666F726D206E6F742073657400000000000000000000000000000000 PUSH0 DUP3 ADD MSTORE POP JUMP JUMPDEST PUSH0 PUSH2 0xA96 PUSH1 0x10 DUP4 PUSH2 0x9EA JUMP JUMPDEST SWAP2 POP PUSH2 0xAA1 DUP3 PUSH2 0xA62 JUMP JUMPDEST PUSH1 0x20 DUP3 ADD SWAP1 POP SWAP2 SWAP1 POP JUMP JUMPDEST PUSH0 PUSH1 0x20 DUP3 ADD SWAP1 POP DUP2 DUP2 SUB PUSH0 DUP4 ADD MSTORE PUSH2 0xAC3 DUP2 PUSH2 0xA8A JUMP JUMPDEST SWAP1 POP SWAP2 SWAP1 POP JUMP JUMPDEST PUSH0 DUP2 SWAP1 POP SWAP2 SWAP1 POP JUMP JUMPDEST PUSH2 0xADC DUP2 PUSH2 0xACA JUMP JUMPDEST DUP2 EQ PUSH2 0xAE6 JUMPI PUSH0 DUP1 REVERT JUMPDEST POP JUMP JUMPDEST PUSH0 DUP2 MLOAD SWAP1 POP PUSH2 0xAF7 DUP2 PUSH2 0xAD3 JUMP JUMPDEST SWAP3 SWAP2 POP POP JUMP JUMPDEST PUSH0 PUSH1 0x20 DUP3 DUP5 SUB SLT ISZERO PUSH2 0xB12 JUMPI PUSH2 0xB11 PUSH2 0x80E JUMP JUMPDEST JUMPDEST PUSH0 PUSH2 0xB1F DUP5 DUP3 DUP6 ADD PUSH2 0xAE9 JUMP JUMPDEST SWAP2 POP POP SWAP3 SWAP2 POP POP JUMP JUMPDEST PUSH32 0x4E6F206465627420746F206C6971756964617465000000000000000000000000 PUSH0 DUP3 ADD MSTORE POP JUMP JUMPDEST PUSH0 PUSH2 0xB5C PUSH1 0x14 DUP4 PUSH2 0x9EA JUMP JUMPDEST SWAP2 POP PUSH2 0xB67 DUP3 PUSH2 0xB28 JUMP JUMPDEST PUSH1 0x20 DUP3 ADD SWAP1 POP SWAP2 SWAP1 POP JUMP JUMPDEST PUSH0 PUSH1 0x20 DUP3 ADD SWAP1 POP DUP2 DUP2 SUB PUSH0 DUP4 ADD MSTORE PUSH2 0xB89 DUP2 PUSH2 0xB50 JUMP JUMPDEST SWAP1 POP SWAP2 SWAP1 POP JUMP JUMPDEST PUSH32 0x4E487B7100000000000000000000000000000000000000000000000000000000 PUSH0 MSTORE PUSH1 0x11 PUSH1 0x4 MSTORE PUSH1 0x24 PUSH0 REVERT JUMPDEST PUSH0 PUSH2 0xBC7 DUP3 PUSH2 0xACA JUMP JUMPDEST SWAP2 POP PUSH2 0xBD2 DUP4 PUSH2 0xACA JUMP JUMPDEST SWAP3 POP DUP3 DUP3 MUL PUSH2 0xBE0 DUP2 PUSH2 0xACA JUMP JUMPDEST SWAP2 POP DUP3 DUP3 DIV DUP5 EQ DUP4 ISZERO OR PUSH2 0xBF7 JUMPI PUSH2 0xBF6 PUSH2 0xB90 JUMP JUMPDEST JUMPDEST POP SWAP3 SWAP2 POP POP JUMP JUMPDEST PUSH32 0x436F6C6C61746572616C697A6174696F6E2069732073756666696369656E7400 PUSH0 DUP3 ADD MSTORE POP JUMP JUMPDEST PUSH0 PUSH2 0xC32 PUSH1 0x1F DUP4 PUSH2 0x9EA JUMP JUMPDEST SWAP2 POP PUSH2 0xC3D DUP3 PUSH2 0xBFE JUMP JUMPDEST PUSH1 0x20 DUP3 ADD SWAP1 POP SWAP2 SWAP1 POP JUMP JUMPDEST PUSH0 PUSH1 0x20 DUP3 ADD SWAP1 POP DUP2 DUP2 SUB PUSH0 DUP4 ADD MSTORE PUSH2 0xC5F DUP2 PUSH2 0xC26 JUMP JUMPDEST SWAP1 POP SWAP2 SWAP1 POP JUMP JUMPDEST PUSH2 0xC6F DUP2 PUSH2 0xACA JUMP JUMPDEST DUP3 MSTORE POP POP JUMP JUMPDEST PUSH0 PUSH1 0x40 DUP3 ADD SWAP1 POP PUSH2 0xC88 PUSH0 DUP4 ADD DUP6 PUSH2 0x923 JUMP JUMPDEST PUSH2 0xC95 PUSH1 0x20 DUP4 ADD DUP5 PUSH2 0xC66 JUMP JUMPDEST SWAP4 SWAP3 POP POP POP JUMP JUMPDEST PUSH0 DUP2 ISZERO ISZERO SWAP1 POP SWAP2 SWAP1 POP JUMP JUMPDEST PUSH2 0xCB0 DUP2 PUSH2 0xC9C JUMP JUMPDEST DUP2 EQ PUSH2 0xCBA JUMPI PUSH0 DUP1 REVERT JUMPDEST POP JUMP JUMPDEST PUSH0 DUP2 MLOAD SWAP1 POP PUSH2 0xCCB DUP2 PUSH2 0xCA7 JUMP JUMPDEST SWAP3 SWAP2 POP POP JUMP JUMPDEST PUSH0 PUSH1 0x20 DUP3 DUP5 SUB SLT ISZERO PUSH2 0xCE6 JUMPI PUSH2 0xCE5 PUSH2 0x80E JUMP JUMPDEST JUMPDEST PUSH0 PUSH2 0xCF3 DUP5 DUP3 DUP6 ADD PUSH2 0xCBD JUMP JUMPDEST SWAP2 POP POP SWAP3 SWAP2 POP POP JUMP JUMPDEST PUSH32 0x5265656E7472616E637947756172643A207265656E7472616E742063616C6C00 PUSH0 DUP3 ADD MSTORE POP JUMP JUMPDEST PUSH0 PUSH2 0xD30 PUSH1 0x1F DUP4 PUSH2 0x9EA JUMP JUMPDEST SWAP2 POP PUSH2 0xD3B DUP3 PUSH2 0xCFC JUMP JUMPDEST PUSH1 0x20 DUP3 ADD SWAP1 POP SWAP2 SWAP1 POP JUMP JUMPDEST PUSH0 PUSH1 0x20 DUP3 ADD SWAP1 POP DUP2 DUP2 SUB PUSH0 DUP4 ADD MSTORE PUSH2 0xD5D DUP2 PUSH2 0xD24 JUMP JUMPDEST SWAP1 POP SWAP2 SWAP1 POP JUMP INVALID LOG2 PUSH5 0x6970667358 0x22 SLT KECCAK256 MUL 0xB4 BLOCKHASH PUSH17 0xAFEECE98535169298464656B44ADBB956F LOG4 0x26 SUB JUMPI CALLVALUE SSTORE SHR 0xB9 BASEFEE 0xC1 0xD9 PUSH5 0x736F6C6343 STOP ADDMOD BYTE STOP CALLER "
				},
				"gasEstimates": {
					"creation": {
						"codeDepositCost": "696400",
						"executionCost": "infinite",
						"totalCost": "infinite"
					},
					"external": {
						"owner()": "infinite",
						"platforms(address)": "infinite",
						"setPlatform(address,address)": "infinite",
						"setupLiquidation(address,address)": "infinite",
						"tokenAddress()": "2552"
					}
				},
				"methodIdentifiers": {
					"owner()": "8da5cb5b",
					"platforms(address)": "d1313384",
					"setPlatform(address,address)": "7722e81a",
					"setupLiquidation(address,address)": "49f80742",
					"tokenAddress()": "9d76ea58"
				}
			},
			"storageLayout": {
				"storage": [
					{
						"astId": 10,
						"contract": "Liquidation.sol:Liquidation",
						"label": "_status",
						"offset": 0,
						"slot": "0",
						"type": "t_uint256"
					},
					{
						"astId": 327,
						"contract": "Liquidation.sol:Liquidation",
						"label": "platforms",
						"offset": 0,
						"slot": "1",
						"type": "t_mapping(t_address,t_contract(IDeFiPlatform)318)"
					},
					{
						"astId": 329,
						"contract": "Liquidation.sol:Liquidation",
						"label": "tokenAddress",
						"offset": 0,
						"slot": "2",
						"type": "t_address"
					}
				],
				"types": {
					"t_address": {
						"encoding": "inplace",
						"label": "address",
						"numberOfBytes": "20"
					},
					"t_contract(IDeFiPlatform)318": {
						"encoding": "inplace",
						"label": "contract IDeFiPlatform",
						"numberOfBytes": "20"
					},
					"t_mapping(t_address,t_contract(IDeFiPlatform)318)": {
						"encoding": "mapping",
						"key": "t_address",
						"label": "mapping(address => contract IDeFiPlatform)",
						"numberOfBytes": "32",
						"value": "t_contract(IDeFiPlatform)318"
					},
					"t_uint256": {
						"encoding": "inplace",
						"label": "uint256",
						"numberOfBytes": "32"
					}
				}
			},
			"userdoc": {
				"kind": "user",
				"methods": {},
				"version": 1
			}
		}
	}
}