{
	"MasterMEV.sol": {
		"MasterMEV": {
			"abi": [
				{
					"inputs": [],
					"stateMutability": "nonpayable",
					"type": "constructor"
				},
				{
					"inputs": [
						{
							"internalType": "address",
							"name": "module",
							"type": "address"
						},
						{
							"internalType": "uint256",
							"name": "amount",
							"type": "uint256"
						}
					],
					"name": "allocateFunds",
					"outputs": [],
					"stateMutability": "nonpayable",
					"type": "function"
				},
				{
					"inputs": [
						{
							"internalType": "address",
							"name": "",
							"type": "address"
						}
					],
					"name": "moduleFunds",
					"outputs": [
						{
							"internalType": "uint256",
							"name": "",
							"type": "uint256"
						}
					],
					"stateMutability": "view",
					"type": "function"
				},
				{
					"inputs": [],
					"name": "owner",
					"outputs": [
						{
							"internalType": "address",
							"name": "",
							"type": "address"
						}
					],
					"stateMutability": "view",
					"type": "function"
				},
				{
					"inputs": [
						{
							"internalType": "uint256",
							"name": "amountIn",
							"type": "uint256"
						},
						{
							"internalType": "uint256",
							"name": "amountOutMin",
							"type": "uint256"
						},
						{
							"internalType": "address[]",
							"name": "path",
							"type": "address[]"
						},
						{
							"internalType": "address",
							"name": "dexAddress",
							"type": "address"
						},
						{
							"internalType": "uint256",
							"name": "deadline",
							"type": "uint256"
						},
						{
							"internalType": "address",
							"name": "arbitrageModule",
							"type": "address"
						}
					],
					"name": "prepareArbitrage",
					"outputs": [],
					"stateMutability": "nonpayable",
					"type": "function"
				},
				{
					"inputs": [
						{
							"internalType": "address",
							"name": "borrower",
							"type": "address"
						},
						{
							"internalType": "address",
							"name": "platformAddress",
							"type": "address"
						},
						{
							"internalType": "address",
							"name": "liquidationModule",
							"type": "address"
						}
					],
					"name": "prepareLiquidation",
					"outputs": [],
					"stateMutability": "nonpayable",
					"type": "function"
				},
				{
					"inputs": [
						{
							"internalType": "uint256",
							"name": "amountIn",
							"type": "uint256"
						},
						{
							"internalType": "uint256",
							"name": "amountOutMin",
							"type": "uint256"
						},
						{
							"internalType": "address[]",
							"name": "path",
							"type": "address[]"
						},
						{
							"internalType": "uint256",
							"name": "deadline",
							"type": "uint256"
						},
						{
							"internalType": "address",
							"name": "sandwichModule",
							"type": "address"
						}
					],
					"name": "prepareSandwichAttack",
					"outputs": [],
					"stateMutability": "nonpayable",
					"type": "function"
				},
				{
					"inputs": [
						{
							"internalType": "address",
							"name": "module",
							"type": "address"
						},
						{
							"internalType": "uint256",
							"name": "profit",
							"type": "uint256"
						}
					],
					"name": "reportProfit",
					"outputs": [],
					"stateMutability": "nonpayable",
					"type": "function"
				},
				{
					"inputs": [
						{
							"internalType": "address payable",
							"name": "recipient",
							"type": "address"
						},
						{
							"internalType": "uint256",
							"name": "amount",
							"type": "uint256"
						}
					],
					"name": "withdrawFunds",
					"outputs": [],
					"stateMutability": "nonpayable",
					"type": "function"
				},
				{
					"stateMutability": "payable",
					"type": "receive"
				}
			],
			"devdoc": {
				"kind": "dev",
				"methods": {},
				"version": 1
			},
			"evm": {
				"assembly": "    /* \"MasterMEV.sol\":209:2372  contract MasterMEV is ReentrancyGuard {... */\n  mstore(0x40, 0xa0)\n    /* \"MasterMEV.sol\":381:432  constructor() {... */\n  callvalue\n  dup1\n  iszero\n  tag_1\n  jumpi\n  0x00\n  dup1\n  revert\ntag_1:\n  pop\n    /* \"@openzeppelin/contracts/security/ReentrancyGuard.sol\":1716:1717  1 */\n  0x01\n    /* \"@openzeppelin/contracts/security/ReentrancyGuard.sol\":1821:1828  _status */\n  0x00\n    /* \"@openzeppelin/contracts/security/ReentrancyGuard.sol\":1821:1843  _status = _NOT_ENTERED */\n  dup2\n  swap1\n  sstore\n  pop\n    /* \"MasterMEV.sol\":414:424  msg.sender */\n  caller\n    /* \"MasterMEV.sol\":406:424  owner = msg.sender */\n  0xffffffffffffffffffffffffffffffffffffffff\n  and\n  0x80\n  dup2\n  0xffffffffffffffffffffffffffffffffffffffff\n  and\n  dup2\n  mstore\n  pop\n  pop\n    /* \"MasterMEV.sol\":209:2372  contract MasterMEV is ReentrancyGuard {... */\n  mload(0x80)\n  codecopy(0x00, dataOffset(sub_0), dataSize(sub_0))\n  0x00\n  assignImmutable(\"0xb87264ef8bf99bc710f0d9de51012e0b2f3ac2595d912802c21dad6f786bfe81\")\n  return(0x00, dataSize(sub_0))\nstop\n\nsub_0: assembly {\n        /* \"MasterMEV.sol\":209:2372  contract MasterMEV is ReentrancyGuard {... */\n      mstore(0x40, 0x80)\n      jumpi(tag_1, lt(calldatasize, 0x04))\n      shr(0xe0, calldataload(0x00))\n      dup1\n      0xbb7fb0b9\n      gt\n      tag_11\n      jumpi\n      dup1\n      0xbb7fb0b9\n      eq\n      tag_7\n      jumpi\n      dup1\n      0xc1075329\n      eq\n      tag_8\n      jumpi\n      dup1\n      0xf3079aa5\n      eq\n      tag_9\n      jumpi\n      dup1\n      0xf7603705\n      eq\n      tag_10\n      jumpi\n      jump(tag_2)\n    tag_11:\n      dup1\n      0x0386e9aa\n      eq\n      tag_3\n      jumpi\n      dup1\n      0x189ed356\n      eq\n      tag_4\n      jumpi\n      dup1\n      0x1b3a2970\n      eq\n      tag_5\n      jumpi\n      dup1\n      0x8da5cb5b\n      eq\n      tag_6\n      jumpi\n      jump(tag_2)\n    tag_1:\n      jumpi(tag_2, calldatasize)\n      stop\n    tag_2:\n      0x00\n      dup1\n      revert\n        /* \"MasterMEV.sol\":291:337  mapping(address => uint256) public moduleFunds */\n    tag_3:\n      callvalue\n      dup1\n      iszero\n      tag_14\n      jumpi\n      0x00\n      dup1\n      revert\n    tag_14:\n      pop\n      tag_15\n      0x04\n      dup1\n      calldatasize\n      sub\n      dup2\n      add\n      swap1\n      tag_16\n      swap2\n      swap1\n      tag_17\n      jump\t// in\n    tag_16:\n      tag_18\n      jump\t// in\n    tag_15:\n      mload(0x40)\n      tag_19\n      swap2\n      swap1\n      tag_20\n      jump\t// in\n    tag_19:\n      mload(0x40)\n      dup1\n      swap2\n      sub\n      swap1\n      return\n        /* \"MasterMEV.sol\":604:810  function allocateFunds(address module, uint256 amount) public onlyOwner {... */\n    tag_4:\n      callvalue\n      dup1\n      iszero\n      tag_21\n      jumpi\n      0x00\n      dup1\n      revert\n    tag_21:\n      pop\n      tag_22\n      0x04\n      dup1\n      calldatasize\n      sub\n      dup2\n      add\n      swap1\n      tag_23\n      swap2\n      swap1\n      tag_24\n      jump\t// in\n    tag_23:\n      tag_25\n      jump\t// in\n    tag_22:\n      stop\n        /* \"MasterMEV.sol\":1717:2085  function prepareArbitrage(uint amountIn, uint amountOutMin, address[] calldata path, address dexAddress, uint deadline, address arbitrageModule) external onlyOwner {... */\n    tag_5:\n      callvalue\n      dup1\n      iszero\n      tag_26\n      jumpi\n      0x00\n      dup1\n      revert\n    tag_26:\n      pop\n      tag_27\n      0x04\n      dup1\n      calldatasize\n      sub\n      dup2\n      add\n      swap1\n      tag_28\n      swap2\n      swap1\n      tag_29\n      jump\t// in\n    tag_28:\n      tag_30\n      jump\t// in\n    tag_27:\n      stop\n        /* \"MasterMEV.sol\":254:284  address public immutable owner */\n    tag_6:\n      callvalue\n      dup1\n      iszero\n      tag_31\n      jumpi\n      0x00\n      dup1\n      revert\n    tag_31:\n      pop\n      tag_32\n      tag_33\n      jump\t// in\n    tag_32:\n      mload(0x40)\n      tag_34\n      swap2\n      swap1\n      tag_35\n      jump\t// in\n    tag_34:\n      mload(0x40)\n      dup1\n      swap2\n      sub\n      swap1\n      return\n        /* \"MasterMEV.sol\":2159:2369  function prepareLiquidation(address borrower, address platformAddress, address liquidationModule) external onlyOwner {... */\n    tag_7:\n      callvalue\n      dup1\n      iszero\n      tag_36\n      jumpi\n      0x00\n      dup1\n      revert\n    tag_36:\n      pop\n      tag_37\n      0x04\n      dup1\n      calldatasize\n      sub\n      dup2\n      add\n      swap1\n      tag_38\n      swap2\n      swap1\n      tag_39\n      jump\t// in\n    tag_38:\n      tag_40\n      jump\t// in\n    tag_37:\n      stop\n        /* \"MasterMEV.sol\":818:1019  function withdrawFunds(address payable recipient, uint256 amount) public onlyOwner {... */\n    tag_8:\n      callvalue\n      dup1\n      iszero\n      tag_41\n      jumpi\n      0x00\n      dup1\n      revert\n    tag_41:\n      pop\n      tag_42\n      0x04\n      dup1\n      calldatasize\n      sub\n      dup2\n      add\n      swap1\n      tag_43\n      swap2\n      swap1\n      tag_44\n      jump\t// in\n    tag_43:\n      tag_45\n      jump\t// in\n    tag_42:\n      stop\n        /* \"MasterMEV.sol\":1027:1224  function reportProfit(address module, uint256 profit) external {... */\n    tag_9:\n      callvalue\n      dup1\n      iszero\n      tag_46\n      jumpi\n      0x00\n      dup1\n      revert\n    tag_46:\n      pop\n      tag_47\n      0x04\n      dup1\n      calldatasize\n      sub\n      dup2\n      add\n      swap1\n      tag_48\n      swap2\n      swap1\n      tag_24\n      jump\t// in\n    tag_48:\n      tag_49\n      jump\t// in\n    tag_47:\n      stop\n        /* \"MasterMEV.sol\":1304:1646  function prepareSandwichAttack(uint amountIn, uint amountOutMin, address[] calldata path, uint deadline, address sandwichModule) external onlyOwner {... */\n    tag_10:\n      callvalue\n      dup1\n      iszero\n      tag_50\n      jumpi\n      0x00\n      dup1\n      revert\n    tag_50:\n      pop\n      tag_51\n      0x04\n      dup1\n      calldatasize\n      sub\n      dup2\n      add\n      swap1\n      tag_52\n      swap2\n      swap1\n      tag_53\n      jump\t// in\n    tag_52:\n      tag_54\n      jump\t// in\n    tag_51:\n      stop\n        /* \"MasterMEV.sol\":291:337  mapping(address => uint256) public moduleFunds */\n    tag_18:\n      mstore(0x20, 0x01)\n      dup1\n      0x00\n      mstore\n      keccak256(0x00, 0x40)\n      0x00\n      swap2\n      pop\n      swap1\n      pop\n      sload\n      dup2\n      jump\t// out\n        /* \"MasterMEV.sol\":604:810  function allocateFunds(address module, uint256 amount) public onlyOwner {... */\n    tag_25:\n        /* \"MasterMEV.sol\":494:499  owner */\n      immutable(\"0xb87264ef8bf99bc710f0d9de51012e0b2f3ac2595d912802c21dad6f786bfe81\")\n        /* \"MasterMEV.sol\":480:499  msg.sender == owner */\n      0xffffffffffffffffffffffffffffffffffffffff\n      and\n        /* \"MasterMEV.sol\":480:490  msg.sender */\n      caller\n        /* \"MasterMEV.sol\":480:499  msg.sender == owner */\n      0xffffffffffffffffffffffffffffffffffffffff\n      and\n      eq\n        /* \"MasterMEV.sol\":472:527  require(msg.sender == owner, \"Caller is not the owner\") */\n      tag_56\n      jumpi\n      mload(0x40)\n      0x08c379a000000000000000000000000000000000000000000000000000000000\n      dup2\n      mstore\n      0x04\n      add\n      tag_57\n      swap1\n      tag_58\n      jump\t// in\n    tag_57:\n      mload(0x40)\n      dup1\n      swap2\n      sub\n      swap1\n      revert\n    tag_56:\n        /* \"MasterMEV.sol\":720:726  amount */\n      dup1\n        /* \"MasterMEV.sol\":695:716  address(this).balance */\n      selfbalance\n        /* \"MasterMEV.sol\":695:726  address(this).balance >= amount */\n      lt\n      iszero\n        /* \"MasterMEV.sol\":687:762  require(address(this).balance >= amount, \"Insufficient funds in MasterMEV\") */\n      tag_60\n      jumpi\n      mload(0x40)\n      0x08c379a000000000000000000000000000000000000000000000000000000000\n      dup2\n      mstore\n      0x04\n      add\n      tag_61\n      swap1\n      tag_62\n      jump\t// in\n    tag_61:\n      mload(0x40)\n      dup1\n      swap2\n      sub\n      swap1\n      revert\n    tag_60:\n        /* \"MasterMEV.sol\":796:802  amount */\n      dup1\n        /* \"MasterMEV.sol\":773:784  moduleFunds */\n      0x01\n        /* \"MasterMEV.sol\":773:792  moduleFunds[module] */\n      0x00\n        /* \"MasterMEV.sol\":785:791  module */\n      dup5\n        /* \"MasterMEV.sol\":773:792  moduleFunds[module] */\n      0xffffffffffffffffffffffffffffffffffffffff\n      and\n      0xffffffffffffffffffffffffffffffffffffffff\n      and\n      dup2\n      mstore\n      0x20\n      add\n      swap1\n      dup2\n      mstore\n      0x20\n      add\n      0x00\n      keccak256\n      0x00\n        /* \"MasterMEV.sol\":773:802  moduleFunds[module] += amount */\n      dup3\n      dup3\n      sload\n      tag_63\n      swap2\n      swap1\n      tag_64\n      jump\t// in\n    tag_63:\n      swap3\n      pop\n      pop\n      dup2\n      swap1\n      sstore\n      pop\n        /* \"MasterMEV.sol\":604:810  function allocateFunds(address module, uint256 amount) public onlyOwner {... */\n      pop\n      pop\n      jump\t// out\n        /* \"MasterMEV.sol\":1717:2085  function prepareArbitrage(uint amountIn, uint amountOutMin, address[] calldata path, address dexAddress, uint deadline, address arbitrageModule) external onlyOwner {... */\n    tag_30:\n        /* \"MasterMEV.sol\":494:499  owner */\n      immutable(\"0xb87264ef8bf99bc710f0d9de51012e0b2f3ac2595d912802c21dad6f786bfe81\")\n        /* \"MasterMEV.sol\":480:499  msg.sender == owner */\n      0xffffffffffffffffffffffffffffffffffffffff\n      and\n        /* \"MasterMEV.sol\":480:490  msg.sender */\n      caller\n        /* \"MasterMEV.sol\":480:499  msg.sender == owner */\n      0xffffffffffffffffffffffffffffffffffffffff\n      and\n      eq\n        /* \"MasterMEV.sol\":472:527  require(msg.sender == owner, \"Caller is not the owner\") */\n      tag_66\n      jumpi\n      mload(0x40)\n      0x08c379a000000000000000000000000000000000000000000000000000000000\n      dup2\n      mstore\n      0x04\n      add\n      tag_67\n      swap1\n      tag_58\n      jump\t// in\n    tag_67:\n      mload(0x40)\n      dup1\n      swap2\n      sub\n      swap1\n      revert\n    tag_66:\n        /* \"MasterMEV.sol\":1932:1940  amountIn */\n      dup7\n        /* \"MasterMEV.sol\":1900:1911  moduleFunds */\n      0x01\n        /* \"MasterMEV.sol\":1900:1928  moduleFunds[arbitrageModule] */\n      0x00\n        /* \"MasterMEV.sol\":1912:1927  arbitrageModule */\n      dup4\n        /* \"MasterMEV.sol\":1900:1928  moduleFunds[arbitrageModule] */\n      0xffffffffffffffffffffffffffffffffffffffff\n      and\n      0xffffffffffffffffffffffffffffffffffffffff\n      and\n      dup2\n      mstore\n      0x20\n      add\n      swap1\n      dup2\n      mstore\n      0x20\n      add\n      0x00\n      keccak256\n      sload\n        /* \"MasterMEV.sol\":1900:1940  moduleFunds[arbitrageModule] >= amountIn */\n      lt\n      iszero\n        /* \"MasterMEV.sol\":1892:1973  require(moduleFunds[arbitrageModule] >= amountIn, \"Insufficient funds allocated\") */\n      tag_69\n      jumpi\n      mload(0x40)\n      0x08c379a000000000000000000000000000000000000000000000000000000000\n      dup2\n      mstore\n      0x04\n      add\n      tag_70\n      swap1\n      tag_71\n      jump\t// in\n    tag_70:\n      mload(0x40)\n      dup1\n      swap2\n      sub\n      swap1\n      revert\n    tag_69:\n        /* \"MasterMEV.sol\":1994:2009  arbitrageModule */\n      dup1\n        /* \"MasterMEV.sol\":1984:2025  Arbitrage(arbitrageModule).setupArbitrage */\n      0xffffffffffffffffffffffffffffffffffffffff\n      and\n      0x0b30f3b9\n        /* \"MasterMEV.sol\":2026:2034  amountIn */\n      dup9\n        /* \"MasterMEV.sol\":2036:2048  amountOutMin */\n      dup9\n        /* \"MasterMEV.sol\":2050:2054  path */\n      dup9\n      dup9\n        /* \"MasterMEV.sol\":2056:2066  dexAddress */\n      dup9\n        /* \"MasterMEV.sol\":2068:2076  deadline */\n      dup9\n        /* \"MasterMEV.sol\":1984:2077  Arbitrage(arbitrageModule).setupArbitrage(amountIn, amountOutMin, path, dexAddress, deadline) */\n      mload(0x40)\n      dup8\n      0xffffffff\n      and\n      0xe0\n      shl\n      dup2\n      mstore\n      0x04\n      add\n      tag_72\n      swap7\n      swap6\n      swap5\n      swap4\n      swap3\n      swap2\n      swap1\n      tag_73\n      jump\t// in\n    tag_72:\n      0x00\n      mload(0x40)\n      dup1\n      dup4\n      sub\n      dup2\n      0x00\n      dup8\n      dup1\n      extcodesize\n      iszero\n      dup1\n      iszero\n      tag_74\n      jumpi\n      0x00\n      dup1\n      revert\n    tag_74:\n      pop\n      gas\n      call\n      iszero\n      dup1\n      iszero\n      tag_76\n      jumpi\n      returndatasize\n      0x00\n      dup1\n      returndatacopy\n      revert(0x00, returndatasize)\n    tag_76:\n      pop\n      pop\n      pop\n      pop\n        /* \"MasterMEV.sol\":1717:2085  function prepareArbitrage(uint amountIn, uint amountOutMin, address[] calldata path, address dexAddress, uint deadline, address arbitrageModule) external onlyOwner {... */\n      pop\n      pop\n      pop\n      pop\n      pop\n      pop\n      pop\n      jump\t// out\n        /* \"MasterMEV.sol\":254:284  address public immutable owner */\n    tag_33:\n      immutable(\"0xb87264ef8bf99bc710f0d9de51012e0b2f3ac2595d912802c21dad6f786bfe81\")\n      dup2\n      jump\t// out\n        /* \"MasterMEV.sol\":2159:2369  function prepareLiquidation(address borrower, address platformAddress, address liquidationModule) external onlyOwner {... */\n    tag_40:\n        /* \"MasterMEV.sol\":494:499  owner */\n      immutable(\"0xb87264ef8bf99bc710f0d9de51012e0b2f3ac2595d912802c21dad6f786bfe81\")\n        /* \"MasterMEV.sol\":480:499  msg.sender == owner */\n      0xffffffffffffffffffffffffffffffffffffffff\n      and\n        /* \"MasterMEV.sol\":480:490  msg.sender */\n      caller\n        /* \"MasterMEV.sol\":480:499  msg.sender == owner */\n      0xffffffffffffffffffffffffffffffffffffffff\n      and\n      eq\n        /* \"MasterMEV.sol\":472:527  require(msg.sender == owner, \"Caller is not the owner\") */\n      tag_78\n      jumpi\n      mload(0x40)\n      0x08c379a000000000000000000000000000000000000000000000000000000000\n      dup2\n      mstore\n      0x04\n      add\n      tag_79\n      swap1\n      tag_58\n      jump\t// in\n    tag_79:\n      mload(0x40)\n      dup1\n      swap2\n      sub\n      swap1\n      revert\n    tag_78:\n        /* \"MasterMEV.sol\":2299:2316  liquidationModule */\n      dup1\n        /* \"MasterMEV.sol\":2287:2334  Liquidation(liquidationModule).setupLiquidation */\n      0xffffffffffffffffffffffffffffffffffffffff\n      and\n      0x49f80742\n        /* \"MasterMEV.sol\":2335:2343  borrower */\n      dup5\n        /* \"MasterMEV.sol\":2345:2360  platformAddress */\n      dup5\n        /* \"MasterMEV.sol\":2287:2361  Liquidation(liquidationModule).setupLiquidation(borrower, platformAddress) */\n      mload(0x40)\n      dup4\n      0xffffffff\n      and\n      0xe0\n      shl\n      dup2\n      mstore\n      0x04\n      add\n      tag_81\n      swap3\n      swap2\n      swap1\n      tag_82\n      jump\t// in\n    tag_81:\n      0x00\n      mload(0x40)\n      dup1\n      dup4\n      sub\n      dup2\n      0x00\n      dup8\n      dup1\n      extcodesize\n      iszero\n      dup1\n      iszero\n      tag_83\n      jumpi\n      0x00\n      dup1\n      revert\n    tag_83:\n      pop\n      gas\n      call\n      iszero\n      dup1\n      iszero\n      tag_85\n      jumpi\n      returndatasize\n      0x00\n      dup1\n      returndatacopy\n      revert(0x00, returndatasize)\n    tag_85:\n      pop\n      pop\n      pop\n      pop\n        /* \"MasterMEV.sol\":2159:2369  function prepareLiquidation(address borrower, address platformAddress, address liquidationModule) external onlyOwner {... */\n      pop\n      pop\n      pop\n      jump\t// out\n        /* \"MasterMEV.sol\":818:1019  function withdrawFunds(address payable recipient, uint256 amount) public onlyOwner {... */\n    tag_45:\n        /* \"MasterMEV.sol\":494:499  owner */\n      immutable(\"0xb87264ef8bf99bc710f0d9de51012e0b2f3ac2595d912802c21dad6f786bfe81\")\n        /* \"MasterMEV.sol\":480:499  msg.sender == owner */\n      0xffffffffffffffffffffffffffffffffffffffff\n      and\n        /* \"MasterMEV.sol\":480:490  msg.sender */\n      caller\n        /* \"MasterMEV.sol\":480:499  msg.sender == owner */\n      0xffffffffffffffffffffffffffffffffffffffff\n      and\n      eq\n        /* \"MasterMEV.sol\":472:527  require(msg.sender == owner, \"Caller is not the owner\") */\n      tag_87\n      jumpi\n      mload(0x40)\n      0x08c379a000000000000000000000000000000000000000000000000000000000\n      dup2\n      mstore\n      0x04\n      add\n      tag_88\n      swap1\n      tag_58\n      jump\t// in\n    tag_88:\n      mload(0x40)\n      dup1\n      swap2\n      sub\n      swap1\n      revert\n    tag_87:\n        /* \"MasterMEV.sol\":945:951  amount */\n      dup1\n        /* \"MasterMEV.sol\":920:941  address(this).balance */\n      selfbalance\n        /* \"MasterMEV.sol\":920:951  address(this).balance >= amount */\n      lt\n      iszero\n        /* \"MasterMEV.sol\":912:974  require(address(this).balance >= amount, \"Insufficient funds\") */\n      tag_90\n      jumpi\n      mload(0x40)\n      0x08c379a000000000000000000000000000000000000000000000000000000000\n      dup2\n      mstore\n      0x04\n      add\n      tag_91\n      swap1\n      tag_92\n      jump\t// in\n    tag_91:\n      mload(0x40)\n      dup1\n      swap2\n      sub\n      swap1\n      revert\n    tag_90:\n        /* \"MasterMEV.sol\":985:994  recipient */\n      dup2\n        /* \"MasterMEV.sol\":985:1003  recipient.transfer */\n      0xffffffffffffffffffffffffffffffffffffffff\n      and\n        /* \"MasterMEV.sol\":985:1011  recipient.transfer(amount) */\n      0x08fc\n        /* \"MasterMEV.sol\":1004:1010  amount */\n      dup3\n        /* \"MasterMEV.sol\":985:1011  recipient.transfer(amount) */\n      swap1\n      dup2\n      iszero\n      mul\n      swap1\n      mload(0x40)\n      0x00\n      mload(0x40)\n      dup1\n      dup4\n      sub\n      dup2\n      dup6\n      dup9\n      dup9\n      call\n      swap4\n      pop\n      pop\n      pop\n      pop\n      iszero\n      dup1\n      iszero\n      tag_94\n      jumpi\n      returndatasize\n      0x00\n      dup1\n      returndatacopy\n      revert(0x00, returndatasize)\n    tag_94:\n      pop\n        /* \"MasterMEV.sol\":818:1019  function withdrawFunds(address payable recipient, uint256 amount) public onlyOwner {... */\n      pop\n      pop\n      jump\t// out\n        /* \"MasterMEV.sol\":1027:1224  function reportProfit(address module, uint256 profit) external {... */\n    tag_49:\n        /* \"MasterMEV.sol\":1123:1129  module */\n      dup2\n        /* \"MasterMEV.sol\":1109:1129  msg.sender == module */\n      0xffffffffffffffffffffffffffffffffffffffff\n      and\n        /* \"MasterMEV.sol\":1109:1119  msg.sender */\n      caller\n        /* \"MasterMEV.sol\":1109:1129  msg.sender == module */\n      0xffffffffffffffffffffffffffffffffffffffff\n      and\n      eq\n        /* \"MasterMEV.sol\":1101:1176  require(msg.sender == module, \"Only designated modules can report profits\") */\n      tag_96\n      jumpi\n      mload(0x40)\n      0x08c379a000000000000000000000000000000000000000000000000000000000\n      dup2\n      mstore\n      0x04\n      add\n      tag_97\n      swap1\n      tag_98\n      jump\t// in\n    tag_97:\n      mload(0x40)\n      dup1\n      swap2\n      sub\n      swap1\n      revert\n    tag_96:\n        /* \"MasterMEV.sol\":1210:1216  profit */\n      dup1\n        /* \"MasterMEV.sol\":1187:1198  moduleFunds */\n      0x01\n        /* \"MasterMEV.sol\":1187:1206  moduleFunds[module] */\n      0x00\n        /* \"MasterMEV.sol\":1199:1205  module */\n      dup5\n        /* \"MasterMEV.sol\":1187:1206  moduleFunds[module] */\n      0xffffffffffffffffffffffffffffffffffffffff\n      and\n      0xffffffffffffffffffffffffffffffffffffffff\n      and\n      dup2\n      mstore\n      0x20\n      add\n      swap1\n      dup2\n      mstore\n      0x20\n      add\n      0x00\n      keccak256\n      0x00\n        /* \"MasterMEV.sol\":1187:1216  moduleFunds[module] += profit */\n      dup3\n      dup3\n      sload\n      tag_99\n      swap2\n      swap1\n      tag_64\n      jump\t// in\n    tag_99:\n      swap3\n      pop\n      pop\n      dup2\n      swap1\n      sstore\n      pop\n        /* \"MasterMEV.sol\":1027:1224  function reportProfit(address module, uint256 profit) external {... */\n      pop\n      pop\n      jump\t// out\n        /* \"MasterMEV.sol\":1304:1646  function prepareSandwichAttack(uint amountIn, uint amountOutMin, address[] calldata path, uint deadline, address sandwichModule) external onlyOwner {... */\n    tag_54:\n        /* \"MasterMEV.sol\":494:499  owner */\n      immutable(\"0xb87264ef8bf99bc710f0d9de51012e0b2f3ac2595d912802c21dad6f786bfe81\")\n        /* \"MasterMEV.sol\":480:499  msg.sender == owner */\n      0xffffffffffffffffffffffffffffffffffffffff\n      and\n        /* \"MasterMEV.sol\":480:490  msg.sender */\n      caller\n        /* \"MasterMEV.sol\":480:499  msg.sender == owner */\n      0xffffffffffffffffffffffffffffffffffffffff\n      and\n      eq\n        /* \"MasterMEV.sol\":472:527  require(msg.sender == owner, \"Caller is not the owner\") */\n      tag_101\n      jumpi\n      mload(0x40)\n      0x08c379a000000000000000000000000000000000000000000000000000000000\n      dup2\n      mstore\n      0x04\n      add\n      tag_102\n      swap1\n      tag_58\n      jump\t// in\n    tag_102:\n      mload(0x40)\n      dup1\n      swap2\n      sub\n      swap1\n      revert\n    tag_101:\n        /* \"MasterMEV.sol\":1502:1510  amountIn */\n      dup6\n        /* \"MasterMEV.sol\":1471:1482  moduleFunds */\n      0x01\n        /* \"MasterMEV.sol\":1471:1498  moduleFunds[sandwichModule] */\n      0x00\n        /* \"MasterMEV.sol\":1483:1497  sandwichModule */\n      dup4\n        /* \"MasterMEV.sol\":1471:1498  moduleFunds[sandwichModule] */\n      0xffffffffffffffffffffffffffffffffffffffff\n      and\n      0xffffffffffffffffffffffffffffffffffffffff\n      and\n      dup2\n      mstore\n      0x20\n      add\n      swap1\n      dup2\n      mstore\n      0x20\n      add\n      0x00\n      keccak256\n      sload\n        /* \"MasterMEV.sol\":1471:1510  moduleFunds[sandwichModule] >= amountIn */\n      lt\n      iszero\n        /* \"MasterMEV.sol\":1463:1543  require(moduleFunds[sandwichModule] >= amountIn, \"Insufficient funds allocated\") */\n      tag_104\n      jumpi\n      mload(0x40)\n      0x08c379a000000000000000000000000000000000000000000000000000000000\n      dup2\n      mstore\n      0x04\n      add\n      tag_105\n      swap1\n      tag_71\n      jump\t// in\n    tag_105:\n      mload(0x40)\n      dup1\n      swap2\n      sub\n      swap1\n      revert\n    tag_104:\n        /* \"MasterMEV.sol\":1563:1577  sandwichModule */\n      dup1\n        /* \"MasterMEV.sol\":1554:1598  Sandwich(sandwichModule).setupSandwichAttack */\n      0xffffffffffffffffffffffffffffffffffffffff\n      and\n      0xcdc9cf9e\n        /* \"MasterMEV.sol\":1599:1607  amountIn */\n      dup8\n        /* \"MasterMEV.sol\":1609:1621  amountOutMin */\n      dup8\n        /* \"MasterMEV.sol\":1623:1627  path */\n      dup8\n      dup8\n        /* \"MasterMEV.sol\":1629:1637  deadline */\n      dup8\n        /* \"MasterMEV.sol\":1554:1638  Sandwich(sandwichModule).setupSandwichAttack(amountIn, amountOutMin, path, deadline) */\n      mload(0x40)\n      dup7\n      0xffffffff\n      and\n      0xe0\n      shl\n      dup2\n      mstore\n      0x04\n      add\n      tag_106\n      swap6\n      swap5\n      swap4\n      swap3\n      swap2\n      swap1\n      tag_107\n      jump\t// in\n    tag_106:\n      0x00\n      mload(0x40)\n      dup1\n      dup4\n      sub\n      dup2\n      0x00\n      dup8\n      dup1\n      extcodesize\n      iszero\n      dup1\n      iszero\n      tag_108\n      jumpi\n      0x00\n      dup1\n      revert\n    tag_108:\n      pop\n      gas\n      call\n      iszero\n      dup1\n      iszero\n      tag_110\n      jumpi\n      returndatasize\n      0x00\n      dup1\n      returndatacopy\n      revert(0x00, returndatasize)\n    tag_110:\n      pop\n      pop\n      pop\n      pop\n        /* \"MasterMEV.sol\":1304:1646  function prepareSandwichAttack(uint amountIn, uint amountOutMin, address[] calldata path, uint deadline, address sandwichModule) external onlyOwner {... */\n      pop\n      pop\n      pop\n      pop\n      pop\n      pop\n      jump\t// out\n        /* \"#utility.yul\":88:205   */\n    tag_112:\n        /* \"#utility.yul\":197:198   */\n      0x00\n        /* \"#utility.yul\":194:195   */\n      dup1\n        /* \"#utility.yul\":187:199   */\n      revert\n        /* \"#utility.yul\":211:328   */\n    tag_113:\n        /* \"#utility.yul\":320:321   */\n      0x00\n        /* \"#utility.yul\":317:318   */\n      dup1\n        /* \"#utility.yul\":310:322   */\n      revert\n        /* \"#utility.yul\":334:460   */\n    tag_114:\n        /* \"#utility.yul\":371:378   */\n      0x00\n        /* \"#utility.yul\":411:453   */\n      0xffffffffffffffffffffffffffffffffffffffff\n        /* \"#utility.yul\":404:409   */\n      dup3\n        /* \"#utility.yul\":400:454   */\n      and\n        /* \"#utility.yul\":389:454   */\n      swap1\n      pop\n        /* \"#utility.yul\":334:460   */\n      swap2\n      swap1\n      pop\n      jump\t// out\n        /* \"#utility.yul\":466:562   */\n    tag_115:\n        /* \"#utility.yul\":503:510   */\n      0x00\n        /* \"#utility.yul\":532:556   */\n      tag_155\n        /* \"#utility.yul\":550:555   */\n      dup3\n        /* \"#utility.yul\":532:556   */\n      tag_114\n      jump\t// in\n    tag_155:\n        /* \"#utility.yul\":521:556   */\n      swap1\n      pop\n        /* \"#utility.yul\":466:562   */\n      swap2\n      swap1\n      pop\n      jump\t// out\n        /* \"#utility.yul\":568:690   */\n    tag_116:\n        /* \"#utility.yul\":641:665   */\n      tag_157\n        /* \"#utility.yul\":659:664   */\n      dup2\n        /* \"#utility.yul\":641:665   */\n      tag_115\n      jump\t// in\n    tag_157:\n        /* \"#utility.yul\":634:639   */\n      dup2\n        /* \"#utility.yul\":631:666   */\n      eq\n        /* \"#utility.yul\":621:684   */\n      tag_158\n      jumpi\n        /* \"#utility.yul\":680:681   */\n      0x00\n        /* \"#utility.yul\":677:678   */\n      dup1\n        /* \"#utility.yul\":670:682   */\n      revert\n        /* \"#utility.yul\":621:684   */\n    tag_158:\n        /* \"#utility.yul\":568:690   */\n      pop\n      jump\t// out\n        /* \"#utility.yul\":696:835   */\n    tag_117:\n        /* \"#utility.yul\":742:747   */\n      0x00\n        /* \"#utility.yul\":780:786   */\n      dup2\n        /* \"#utility.yul\":767:787   */\n      calldataload\n        /* \"#utility.yul\":758:787   */\n      swap1\n      pop\n        /* \"#utility.yul\":796:829   */\n      tag_160\n        /* \"#utility.yul\":823:828   */\n      dup2\n        /* \"#utility.yul\":796:829   */\n      tag_116\n      jump\t// in\n    tag_160:\n        /* \"#utility.yul\":696:835   */\n      swap3\n      swap2\n      pop\n      pop\n      jump\t// out\n        /* \"#utility.yul\":841:1170   */\n    tag_17:\n        /* \"#utility.yul\":900:906   */\n      0x00\n        /* \"#utility.yul\":949:951   */\n      0x20\n        /* \"#utility.yul\":937:946   */\n      dup3\n        /* \"#utility.yul\":928:935   */\n      dup5\n        /* \"#utility.yul\":924:947   */\n      sub\n        /* \"#utility.yul\":920:952   */\n      slt\n        /* \"#utility.yul\":917:1036   */\n      iszero\n      tag_162\n      jumpi\n        /* \"#utility.yul\":955:1034   */\n      tag_163\n      tag_112\n      jump\t// in\n    tag_163:\n        /* \"#utility.yul\":917:1036   */\n    tag_162:\n        /* \"#utility.yul\":1075:1076   */\n      0x00\n        /* \"#utility.yul\":1100:1153   */\n      tag_164\n        /* \"#utility.yul\":1145:1152   */\n      dup5\n        /* \"#utility.yul\":1136:1142   */\n      dup3\n        /* \"#utility.yul\":1125:1134   */\n      dup6\n        /* \"#utility.yul\":1121:1143   */\n      add\n        /* \"#utility.yul\":1100:1153   */\n      tag_117\n      jump\t// in\n    tag_164:\n        /* \"#utility.yul\":1090:1153   */\n      swap2\n      pop\n        /* \"#utility.yul\":1046:1163   */\n      pop\n        /* \"#utility.yul\":841:1170   */\n      swap3\n      swap2\n      pop\n      pop\n      jump\t// out\n        /* \"#utility.yul\":1176:1253   */\n    tag_118:\n        /* \"#utility.yul\":1213:1220   */\n      0x00\n        /* \"#utility.yul\":1242:1247   */\n      dup2\n        /* \"#utility.yul\":1231:1247   */\n      swap1\n      pop\n        /* \"#utility.yul\":1176:1253   */\n      swap2\n      swap1\n      pop\n      jump\t// out\n        /* \"#utility.yul\":1259:1377   */\n    tag_119:\n        /* \"#utility.yul\":1346:1370   */\n      tag_167\n        /* \"#utility.yul\":1364:1369   */\n      dup2\n        /* \"#utility.yul\":1346:1370   */\n      tag_118\n      jump\t// in\n    tag_167:\n        /* \"#utility.yul\":1341:1344   */\n      dup3\n        /* \"#utility.yul\":1334:1371   */\n      mstore\n        /* \"#utility.yul\":1259:1377   */\n      pop\n      pop\n      jump\t// out\n        /* \"#utility.yul\":1383:1605   */\n    tag_20:\n        /* \"#utility.yul\":1476:1480   */\n      0x00\n        /* \"#utility.yul\":1514:1516   */\n      0x20\n        /* \"#utility.yul\":1503:1512   */\n      dup3\n        /* \"#utility.yul\":1499:1517   */\n      add\n        /* \"#utility.yul\":1491:1517   */\n      swap1\n      pop\n        /* \"#utility.yul\":1527:1598   */\n      tag_169\n        /* \"#utility.yul\":1595:1596   */\n      0x00\n        /* \"#utility.yul\":1584:1593   */\n      dup4\n        /* \"#utility.yul\":1580:1597   */\n      add\n        /* \"#utility.yul\":1571:1577   */\n      dup5\n        /* \"#utility.yul\":1527:1598   */\n      tag_119\n      jump\t// in\n    tag_169:\n        /* \"#utility.yul\":1383:1605   */\n      swap3\n      swap2\n      pop\n      pop\n      jump\t// out\n        /* \"#utility.yul\":1611:1733   */\n    tag_120:\n        /* \"#utility.yul\":1684:1708   */\n      tag_171\n        /* \"#utility.yul\":1702:1707   */\n      dup2\n        /* \"#utility.yul\":1684:1708   */\n      tag_118\n      jump\t// in\n    tag_171:\n        /* \"#utility.yul\":1677:1682   */\n      dup2\n        /* \"#utility.yul\":1674:1709   */\n      eq\n        /* \"#utility.yul\":1664:1727   */\n      tag_172\n      jumpi\n        /* \"#utility.yul\":1723:1724   */\n      0x00\n        /* \"#utility.yul\":1720:1721   */\n      dup1\n        /* \"#utility.yul\":1713:1725   */\n      revert\n        /* \"#utility.yul\":1664:1727   */\n    tag_172:\n        /* \"#utility.yul\":1611:1733   */\n      pop\n      jump\t// out\n        /* \"#utility.yul\":1739:1878   */\n    tag_121:\n        /* \"#utility.yul\":1785:1790   */\n      0x00\n        /* \"#utility.yul\":1823:1829   */\n      dup2\n        /* \"#utility.yul\":1810:1830   */\n      calldataload\n        /* \"#utility.yul\":1801:1830   */\n      swap1\n      pop\n        /* \"#utility.yul\":1839:1872   */\n      tag_174\n        /* \"#utility.yul\":1866:1871   */\n      dup2\n        /* \"#utility.yul\":1839:1872   */\n      tag_120\n      jump\t// in\n    tag_174:\n        /* \"#utility.yul\":1739:1878   */\n      swap3\n      swap2\n      pop\n      pop\n      jump\t// out\n        /* \"#utility.yul\":1884:2358   */\n    tag_24:\n        /* \"#utility.yul\":1952:1958   */\n      0x00\n        /* \"#utility.yul\":1960:1966   */\n      dup1\n        /* \"#utility.yul\":2009:2011   */\n      0x40\n        /* \"#utility.yul\":1997:2006   */\n      dup4\n        /* \"#utility.yul\":1988:1995   */\n      dup6\n        /* \"#utility.yul\":1984:2007   */\n      sub\n        /* \"#utility.yul\":1980:2012   */\n      slt\n        /* \"#utility.yul\":1977:2096   */\n      iszero\n      tag_176\n      jumpi\n        /* \"#utility.yul\":2015:2094   */\n      tag_177\n      tag_112\n      jump\t// in\n    tag_177:\n        /* \"#utility.yul\":1977:2096   */\n    tag_176:\n        /* \"#utility.yul\":2135:2136   */\n      0x00\n        /* \"#utility.yul\":2160:2213   */\n      tag_178\n        /* \"#utility.yul\":2205:2212   */\n      dup6\n        /* \"#utility.yul\":2196:2202   */\n      dup3\n        /* \"#utility.yul\":2185:2194   */\n      dup7\n        /* \"#utility.yul\":2181:2203   */\n      add\n        /* \"#utility.yul\":2160:2213   */\n      tag_117\n      jump\t// in\n    tag_178:\n        /* \"#utility.yul\":2150:2213   */\n      swap3\n      pop\n        /* \"#utility.yul\":2106:2223   */\n      pop\n        /* \"#utility.yul\":2262:2264   */\n      0x20\n        /* \"#utility.yul\":2288:2341   */\n      tag_179\n        /* \"#utility.yul\":2333:2340   */\n      dup6\n        /* \"#utility.yul\":2324:2330   */\n      dup3\n        /* \"#utility.yul\":2313:2322   */\n      dup7\n        /* \"#utility.yul\":2309:2331   */\n      add\n        /* \"#utility.yul\":2288:2341   */\n      tag_121\n      jump\t// in\n    tag_179:\n        /* \"#utility.yul\":2278:2341   */\n      swap2\n      pop\n        /* \"#utility.yul\":2233:2351   */\n      pop\n        /* \"#utility.yul\":1884:2358   */\n      swap3\n      pop\n      swap3\n      swap1\n      pop\n      jump\t// out\n        /* \"#utility.yul\":2364:2481   */\n    tag_122:\n        /* \"#utility.yul\":2473:2474   */\n      0x00\n        /* \"#utility.yul\":2470:2471   */\n      dup1\n        /* \"#utility.yul\":2463:2475   */\n      revert\n        /* \"#utility.yul\":2487:2604   */\n    tag_123:\n        /* \"#utility.yul\":2596:2597   */\n      0x00\n        /* \"#utility.yul\":2593:2594   */\n      dup1\n        /* \"#utility.yul\":2586:2598   */\n      revert\n        /* \"#utility.yul\":2610:2727   */\n    tag_124:\n        /* \"#utility.yul\":2719:2720   */\n      0x00\n        /* \"#utility.yul\":2716:2717   */\n      dup1\n        /* \"#utility.yul\":2709:2721   */\n      revert\n        /* \"#utility.yul\":2750:3318   */\n    tag_125:\n        /* \"#utility.yul\":2823:2831   */\n      0x00\n        /* \"#utility.yul\":2833:2839   */\n      dup1\n        /* \"#utility.yul\":2883:2886   */\n      dup4\n        /* \"#utility.yul\":2876:2880   */\n      0x1f\n        /* \"#utility.yul\":2868:2874   */\n      dup5\n        /* \"#utility.yul\":2864:2881   */\n      add\n        /* \"#utility.yul\":2860:2887   */\n      slt\n        /* \"#utility.yul\":2850:2972   */\n      tag_184\n      jumpi\n        /* \"#utility.yul\":2891:2970   */\n      tag_185\n      tag_122\n      jump\t// in\n    tag_185:\n        /* \"#utility.yul\":2850:2972   */\n    tag_184:\n        /* \"#utility.yul\":3004:3010   */\n      dup3\n        /* \"#utility.yul\":2991:3011   */\n      calldataload\n        /* \"#utility.yul\":2981:3011   */\n      swap1\n      pop\n        /* \"#utility.yul\":3034:3052   */\n      0xffffffffffffffff\n        /* \"#utility.yul\":3026:3032   */\n      dup2\n        /* \"#utility.yul\":3023:3053   */\n      gt\n        /* \"#utility.yul\":3020:3137   */\n      iszero\n      tag_186\n      jumpi\n        /* \"#utility.yul\":3056:3135   */\n      tag_187\n      tag_123\n      jump\t// in\n    tag_187:\n        /* \"#utility.yul\":3020:3137   */\n    tag_186:\n        /* \"#utility.yul\":3170:3174   */\n      0x20\n        /* \"#utility.yul\":3162:3168   */\n      dup4\n        /* \"#utility.yul\":3158:3175   */\n      add\n        /* \"#utility.yul\":3146:3175   */\n      swap2\n      pop\n        /* \"#utility.yul\":3224:3227   */\n      dup4\n        /* \"#utility.yul\":3216:3220   */\n      0x20\n        /* \"#utility.yul\":3208:3214   */\n      dup3\n        /* \"#utility.yul\":3204:3221   */\n      mul\n        /* \"#utility.yul\":3194:3202   */\n      dup4\n        /* \"#utility.yul\":3190:3222   */\n      add\n        /* \"#utility.yul\":3187:3228   */\n      gt\n        /* \"#utility.yul\":3184:3312   */\n      iszero\n      tag_188\n      jumpi\n        /* \"#utility.yul\":3231:3310   */\n      tag_189\n      tag_124\n      jump\t// in\n    tag_189:\n        /* \"#utility.yul\":3184:3312   */\n    tag_188:\n        /* \"#utility.yul\":2750:3318   */\n      swap3\n      pop\n      swap3\n      swap1\n      pop\n      jump\t// out\n        /* \"#utility.yul\":3324:4611   */\n    tag_29:\n        /* \"#utility.yul\":3455:3461   */\n      0x00\n        /* \"#utility.yul\":3463:3469   */\n      dup1\n        /* \"#utility.yul\":3471:3477   */\n      0x00\n        /* \"#utility.yul\":3479:3485   */\n      dup1\n        /* \"#utility.yul\":3487:3493   */\n      0x00\n        /* \"#utility.yul\":3495:3501   */\n      dup1\n        /* \"#utility.yul\":3503:3509   */\n      0x00\n        /* \"#utility.yul\":3552:3555   */\n      0xc0\n        /* \"#utility.yul\":3540:3549   */\n      dup9\n        /* \"#utility.yul\":3531:3538   */\n      dup11\n        /* \"#utility.yul\":3527:3550   */\n      sub\n        /* \"#utility.yul\":3523:3556   */\n      slt\n        /* \"#utility.yul\":3520:3640   */\n      iszero\n      tag_191\n      jumpi\n        /* \"#utility.yul\":3559:3638   */\n      tag_192\n      tag_112\n      jump\t// in\n    tag_192:\n        /* \"#utility.yul\":3520:3640   */\n    tag_191:\n        /* \"#utility.yul\":3679:3680   */\n      0x00\n        /* \"#utility.yul\":3704:3757   */\n      tag_193\n        /* \"#utility.yul\":3749:3756   */\n      dup11\n        /* \"#utility.yul\":3740:3746   */\n      dup3\n        /* \"#utility.yul\":3729:3738   */\n      dup12\n        /* \"#utility.yul\":3725:3747   */\n      add\n        /* \"#utility.yul\":3704:3757   */\n      tag_121\n      jump\t// in\n    tag_193:\n        /* \"#utility.yul\":3694:3757   */\n      swap8\n      pop\n        /* \"#utility.yul\":3650:3767   */\n      pop\n        /* \"#utility.yul\":3806:3808   */\n      0x20\n        /* \"#utility.yul\":3832:3885   */\n      tag_194\n        /* \"#utility.yul\":3877:3884   */\n      dup11\n        /* \"#utility.yul\":3868:3874   */\n      dup3\n        /* \"#utility.yul\":3857:3866   */\n      dup12\n        /* \"#utility.yul\":3853:3875   */\n      add\n        /* \"#utility.yul\":3832:3885   */\n      tag_121\n      jump\t// in\n    tag_194:\n        /* \"#utility.yul\":3822:3885   */\n      swap7\n      pop\n        /* \"#utility.yul\":3777:3895   */\n      pop\n        /* \"#utility.yul\":3962:3964   */\n      0x40\n        /* \"#utility.yul\":3951:3960   */\n      dup9\n        /* \"#utility.yul\":3947:3965   */\n      add\n        /* \"#utility.yul\":3934:3966   */\n      calldataload\n        /* \"#utility.yul\":3993:4011   */\n      0xffffffffffffffff\n        /* \"#utility.yul\":3985:3991   */\n      dup2\n        /* \"#utility.yul\":3982:4012   */\n      gt\n        /* \"#utility.yul\":3979:4096   */\n      iszero\n      tag_195\n      jumpi\n        /* \"#utility.yul\":4015:4094   */\n      tag_196\n      tag_113\n      jump\t// in\n    tag_196:\n        /* \"#utility.yul\":3979:4096   */\n    tag_195:\n        /* \"#utility.yul\":4128:4208   */\n      tag_197\n        /* \"#utility.yul\":4200:4207   */\n      dup11\n        /* \"#utility.yul\":4191:4197   */\n      dup3\n        /* \"#utility.yul\":4180:4189   */\n      dup12\n        /* \"#utility.yul\":4176:4198   */\n      add\n        /* \"#utility.yul\":4128:4208   */\n      tag_125\n      jump\t// in\n    tag_197:\n        /* \"#utility.yul\":4110:4208   */\n      swap6\n      pop\n      swap6\n      pop\n        /* \"#utility.yul\":3905:4218   */\n      pop\n        /* \"#utility.yul\":4257:4259   */\n      0x60\n        /* \"#utility.yul\":4283:4336   */\n      tag_198\n        /* \"#utility.yul\":4328:4335   */\n      dup11\n        /* \"#utility.yul\":4319:4325   */\n      dup3\n        /* \"#utility.yul\":4308:4317   */\n      dup12\n        /* \"#utility.yul\":4304:4326   */\n      add\n        /* \"#utility.yul\":4283:4336   */\n      tag_117\n      jump\t// in\n    tag_198:\n        /* \"#utility.yul\":4273:4336   */\n      swap4\n      pop\n        /* \"#utility.yul\":4228:4346   */\n      pop\n        /* \"#utility.yul\":4385:4388   */\n      0x80\n        /* \"#utility.yul\":4412:4465   */\n      tag_199\n        /* \"#utility.yul\":4457:4464   */\n      dup11\n        /* \"#utility.yul\":4448:4454   */\n      dup3\n        /* \"#utility.yul\":4437:4446   */\n      dup12\n        /* \"#utility.yul\":4433:4455   */\n      add\n        /* \"#utility.yul\":4412:4465   */\n      tag_121\n      jump\t// in\n    tag_199:\n        /* \"#utility.yul\":4402:4465   */\n      swap3\n      pop\n        /* \"#utility.yul\":4356:4475   */\n      pop\n        /* \"#utility.yul\":4514:4517   */\n      0xa0\n        /* \"#utility.yul\":4541:4594   */\n      tag_200\n        /* \"#utility.yul\":4586:4593   */\n      dup11\n        /* \"#utility.yul\":4577:4583   */\n      dup3\n        /* \"#utility.yul\":4566:4575   */\n      dup12\n        /* \"#utility.yul\":4562:4584   */\n      add\n        /* \"#utility.yul\":4541:4594   */\n      tag_117\n      jump\t// in\n    tag_200:\n        /* \"#utility.yul\":4531:4594   */\n      swap2\n      pop\n        /* \"#utility.yul\":4485:4604   */\n      pop\n        /* \"#utility.yul\":3324:4611   */\n      swap3\n      swap6\n      swap9\n      swap2\n      swap5\n      swap8\n      pop\n      swap3\n      swap6\n      pop\n      jump\t// out\n        /* \"#utility.yul\":4617:4735   */\n    tag_126:\n        /* \"#utility.yul\":4704:4728   */\n      tag_202\n        /* \"#utility.yul\":4722:4727   */\n      dup2\n        /* \"#utility.yul\":4704:4728   */\n      tag_115\n      jump\t// in\n    tag_202:\n        /* \"#utility.yul\":4699:4702   */\n      dup3\n        /* \"#utility.yul\":4692:4729   */\n      mstore\n        /* \"#utility.yul\":4617:4735   */\n      pop\n      pop\n      jump\t// out\n        /* \"#utility.yul\":4741:4963   */\n    tag_35:\n        /* \"#utility.yul\":4834:4838   */\n      0x00\n        /* \"#utility.yul\":4872:4874   */\n      0x20\n        /* \"#utility.yul\":4861:4870   */\n      dup3\n        /* \"#utility.yul\":4857:4875   */\n      add\n        /* \"#utility.yul\":4849:4875   */\n      swap1\n      pop\n        /* \"#utility.yul\":4885:4956   */\n      tag_204\n        /* \"#utility.yul\":4953:4954   */\n      0x00\n        /* \"#utility.yul\":4942:4951   */\n      dup4\n        /* \"#utility.yul\":4938:4955   */\n      add\n        /* \"#utility.yul\":4929:4935   */\n      dup5\n        /* \"#utility.yul\":4885:4956   */\n      tag_126\n      jump\t// in\n    tag_204:\n        /* \"#utility.yul\":4741:4963   */\n      swap3\n      swap2\n      pop\n      pop\n      jump\t// out\n        /* \"#utility.yul\":4969:5588   */\n    tag_39:\n        /* \"#utility.yul\":5046:5052   */\n      0x00\n        /* \"#utility.yul\":5054:5060   */\n      dup1\n        /* \"#utility.yul\":5062:5068   */\n      0x00\n        /* \"#utility.yul\":5111:5113   */\n      0x60\n        /* \"#utility.yul\":5099:5108   */\n      dup5\n        /* \"#utility.yul\":5090:5097   */\n      dup7\n        /* \"#utility.yul\":5086:5109   */\n      sub\n        /* \"#utility.yul\":5082:5114   */\n      slt\n        /* \"#utility.yul\":5079:5198   */\n      iszero\n      tag_206\n      jumpi\n        /* \"#utility.yul\":5117:5196   */\n      tag_207\n      tag_112\n      jump\t// in\n    tag_207:\n        /* \"#utility.yul\":5079:5198   */\n    tag_206:\n        /* \"#utility.yul\":5237:5238   */\n      0x00\n        /* \"#utility.yul\":5262:5315   */\n      tag_208\n        /* \"#utility.yul\":5307:5314   */\n      dup7\n        /* \"#utility.yul\":5298:5304   */\n      dup3\n        /* \"#utility.yul\":5287:5296   */\n      dup8\n        /* \"#utility.yul\":5283:5305   */\n      add\n        /* \"#utility.yul\":5262:5315   */\n      tag_117\n      jump\t// in\n    tag_208:\n        /* \"#utility.yul\":5252:5315   */\n      swap4\n      pop\n        /* \"#utility.yul\":5208:5325   */\n      pop\n        /* \"#utility.yul\":5364:5366   */\n      0x20\n        /* \"#utility.yul\":5390:5443   */\n      tag_209\n        /* \"#utility.yul\":5435:5442   */\n      dup7\n        /* \"#utility.yul\":5426:5432   */\n      dup3\n        /* \"#utility.yul\":5415:5424   */\n      dup8\n        /* \"#utility.yul\":5411:5433   */\n      add\n        /* \"#utility.yul\":5390:5443   */\n      tag_117\n      jump\t// in\n    tag_209:\n        /* \"#utility.yul\":5380:5443   */\n      swap3\n      pop\n        /* \"#utility.yul\":5335:5453   */\n      pop\n        /* \"#utility.yul\":5492:5494   */\n      0x40\n        /* \"#utility.yul\":5518:5571   */\n      tag_210\n        /* \"#utility.yul\":5563:5570   */\n      dup7\n        /* \"#utility.yul\":5554:5560   */\n      dup3\n        /* \"#utility.yul\":5543:5552   */\n      dup8\n        /* \"#utility.yul\":5539:5561   */\n      add\n        /* \"#utility.yul\":5518:5571   */\n      tag_117\n      jump\t// in\n    tag_210:\n        /* \"#utility.yul\":5508:5571   */\n      swap2\n      pop\n        /* \"#utility.yul\":5463:5581   */\n      pop\n        /* \"#utility.yul\":4969:5588   */\n      swap3\n      pop\n      swap3\n      pop\n      swap3\n      jump\t// out\n        /* \"#utility.yul\":5594:5698   */\n    tag_127:\n        /* \"#utility.yul\":5639:5646   */\n      0x00\n        /* \"#utility.yul\":5668:5692   */\n      tag_212\n        /* \"#utility.yul\":5686:5691   */\n      dup3\n        /* \"#utility.yul\":5668:5692   */\n      tag_114\n      jump\t// in\n    tag_212:\n        /* \"#utility.yul\":5657:5692   */\n      swap1\n      pop\n        /* \"#utility.yul\":5594:5698   */\n      swap2\n      swap1\n      pop\n      jump\t// out\n        /* \"#utility.yul\":5704:5842   */\n    tag_128:\n        /* \"#utility.yul\":5785:5817   */\n      tag_214\n        /* \"#utility.yul\":5811:5816   */\n      dup2\n        /* \"#utility.yul\":5785:5817   */\n      tag_127\n      jump\t// in\n    tag_214:\n        /* \"#utility.yul\":5778:5783   */\n      dup2\n        /* \"#utility.yul\":5775:5818   */\n      eq\n        /* \"#utility.yul\":5765:5836   */\n      tag_215\n      jumpi\n        /* \"#utility.yul\":5832:5833   */\n      0x00\n        /* \"#utility.yul\":5829:5830   */\n      dup1\n        /* \"#utility.yul\":5822:5834   */\n      revert\n        /* \"#utility.yul\":5765:5836   */\n    tag_215:\n        /* \"#utility.yul\":5704:5842   */\n      pop\n      jump\t// out\n        /* \"#utility.yul\":5848:6003   */\n    tag_129:\n        /* \"#utility.yul\":5902:5907   */\n      0x00\n        /* \"#utility.yul\":5940:5946   */\n      dup2\n        /* \"#utility.yul\":5927:5947   */\n      calldataload\n        /* \"#utility.yul\":5918:5947   */\n      swap1\n      pop\n        /* \"#utility.yul\":5956:5997   */\n      tag_217\n        /* \"#utility.yul\":5991:5996   */\n      dup2\n        /* \"#utility.yul\":5956:5997   */\n      tag_128\n      jump\t// in\n    tag_217:\n        /* \"#utility.yul\":5848:6003   */\n      swap3\n      swap2\n      pop\n      pop\n      jump\t// out\n        /* \"#utility.yul\":6009:6499   */\n    tag_44:\n        /* \"#utility.yul\":6085:6091   */\n      0x00\n        /* \"#utility.yul\":6093:6099   */\n      dup1\n        /* \"#utility.yul\":6142:6144   */\n      0x40\n        /* \"#utility.yul\":6130:6139   */\n      dup4\n        /* \"#utility.yul\":6121:6128   */\n      dup6\n        /* \"#utility.yul\":6117:6140   */\n      sub\n        /* \"#utility.yul\":6113:6145   */\n      slt\n        /* \"#utility.yul\":6110:6229   */\n      iszero\n      tag_219\n      jumpi\n        /* \"#utility.yul\":6148:6227   */\n      tag_220\n      tag_112\n      jump\t// in\n    tag_220:\n        /* \"#utility.yul\":6110:6229   */\n    tag_219:\n        /* \"#utility.yul\":6268:6269   */\n      0x00\n        /* \"#utility.yul\":6293:6354   */\n      tag_221\n        /* \"#utility.yul\":6346:6353   */\n      dup6\n        /* \"#utility.yul\":6337:6343   */\n      dup3\n        /* \"#utility.yul\":6326:6335   */\n      dup7\n        /* \"#utility.yul\":6322:6344   */\n      add\n        /* \"#utility.yul\":6293:6354   */\n      tag_129\n      jump\t// in\n    tag_221:\n        /* \"#utility.yul\":6283:6354   */\n      swap3\n      pop\n        /* \"#utility.yul\":6239:6364   */\n      pop\n        /* \"#utility.yul\":6403:6405   */\n      0x20\n        /* \"#utility.yul\":6429:6482   */\n      tag_222\n        /* \"#utility.yul\":6474:6481   */\n      dup6\n        /* \"#utility.yul\":6465:6471   */\n      dup3\n        /* \"#utility.yul\":6454:6463   */\n      dup7\n        /* \"#utility.yul\":6450:6472   */\n      add\n        /* \"#utility.yul\":6429:6482   */\n      tag_121\n      jump\t// in\n    tag_222:\n        /* \"#utility.yul\":6419:6482   */\n      swap2\n      pop\n        /* \"#utility.yul\":6374:6492   */\n      pop\n        /* \"#utility.yul\":6009:6499   */\n      swap3\n      pop\n      swap3\n      swap1\n      pop\n      jump\t// out\n        /* \"#utility.yul\":6505:7646   */\n    tag_53:\n        /* \"#utility.yul\":6627:6633   */\n      0x00\n        /* \"#utility.yul\":6635:6641   */\n      dup1\n        /* \"#utility.yul\":6643:6649   */\n      0x00\n        /* \"#utility.yul\":6651:6657   */\n      dup1\n        /* \"#utility.yul\":6659:6665   */\n      0x00\n        /* \"#utility.yul\":6667:6673   */\n      dup1\n        /* \"#utility.yul\":6716:6719   */\n      0xa0\n        /* \"#utility.yul\":6704:6713   */\n      dup8\n        /* \"#utility.yul\":6695:6702   */\n      dup10\n        /* \"#utility.yul\":6691:6714   */\n      sub\n        /* \"#utility.yul\":6687:6720   */\n      slt\n        /* \"#utility.yul\":6684:6804   */\n      iszero\n      tag_224\n      jumpi\n        /* \"#utility.yul\":6723:6802   */\n      tag_225\n      tag_112\n      jump\t// in\n    tag_225:\n        /* \"#utility.yul\":6684:6804   */\n    tag_224:\n        /* \"#utility.yul\":6843:6844   */\n      0x00\n        /* \"#utility.yul\":6868:6921   */\n      tag_226\n        /* \"#utility.yul\":6913:6920   */\n      dup10\n        /* \"#utility.yul\":6904:6910   */\n      dup3\n        /* \"#utility.yul\":6893:6902   */\n      dup11\n        /* \"#utility.yul\":6889:6911   */\n      add\n        /* \"#utility.yul\":6868:6921   */\n      tag_121\n      jump\t// in\n    tag_226:\n        /* \"#utility.yul\":6858:6921   */\n      swap7\n      pop\n        /* \"#utility.yul\":6814:6931   */\n      pop\n        /* \"#utility.yul\":6970:6972   */\n      0x20\n        /* \"#utility.yul\":6996:7049   */\n      tag_227\n        /* \"#utility.yul\":7041:7048   */\n      dup10\n        /* \"#utility.yul\":7032:7038   */\n      dup3\n        /* \"#utility.yul\":7021:7030   */\n      dup11\n        /* \"#utility.yul\":7017:7039   */\n      add\n        /* \"#utility.yul\":6996:7049   */\n      tag_121\n      jump\t// in\n    tag_227:\n        /* \"#utility.yul\":6986:7049   */\n      swap6\n      pop\n        /* \"#utility.yul\":6941:7059   */\n      pop\n        /* \"#utility.yul\":7126:7128   */\n      0x40\n        /* \"#utility.yul\":7115:7124   */\n      dup8\n        /* \"#utility.yul\":7111:7129   */\n      add\n        /* \"#utility.yul\":7098:7130   */\n      calldataload\n        /* \"#utility.yul\":7157:7175   */\n      0xffffffffffffffff\n        /* \"#utility.yul\":7149:7155   */\n      dup2\n        /* \"#utility.yul\":7146:7176   */\n      gt\n        /* \"#utility.yul\":7143:7260   */\n      iszero\n      tag_228\n      jumpi\n        /* \"#utility.yul\":7179:7258   */\n      tag_229\n      tag_113\n      jump\t// in\n    tag_229:\n        /* \"#utility.yul\":7143:7260   */\n    tag_228:\n        /* \"#utility.yul\":7292:7372   */\n      tag_230\n        /* \"#utility.yul\":7364:7371   */\n      dup10\n        /* \"#utility.yul\":7355:7361   */\n      dup3\n        /* \"#utility.yul\":7344:7353   */\n      dup11\n        /* \"#utility.yul\":7340:7362   */\n      add\n        /* \"#utility.yul\":7292:7372   */\n      tag_125\n      jump\t// in\n    tag_230:\n        /* \"#utility.yul\":7274:7372   */\n      swap5\n      pop\n      swap5\n      pop\n        /* \"#utility.yul\":7069:7382   */\n      pop\n        /* \"#utility.yul\":7421:7423   */\n      0x60\n        /* \"#utility.yul\":7447:7500   */\n      tag_231\n        /* \"#utility.yul\":7492:7499   */\n      dup10\n        /* \"#utility.yul\":7483:7489   */\n      dup3\n        /* \"#utility.yul\":7472:7481   */\n      dup11\n        /* \"#utility.yul\":7468:7490   */\n      add\n        /* \"#utility.yul\":7447:7500   */\n      tag_121\n      jump\t// in\n    tag_231:\n        /* \"#utility.yul\":7437:7500   */\n      swap3\n      pop\n        /* \"#utility.yul\":7392:7510   */\n      pop\n        /* \"#utility.yul\":7549:7552   */\n      0x80\n        /* \"#utility.yul\":7576:7629   */\n      tag_232\n        /* \"#utility.yul\":7621:7628   */\n      dup10\n        /* \"#utility.yul\":7612:7618   */\n      dup3\n        /* \"#utility.yul\":7601:7610   */\n      dup11\n        /* \"#utility.yul\":7597:7619   */\n      add\n        /* \"#utility.yul\":7576:7629   */\n      tag_117\n      jump\t// in\n    tag_232:\n        /* \"#utility.yul\":7566:7629   */\n      swap2\n      pop\n        /* \"#utility.yul\":7520:7639   */\n      pop\n        /* \"#utility.yul\":6505:7646   */\n      swap3\n      swap6\n      pop\n      swap3\n      swap6\n      pop\n      swap3\n      swap6\n      jump\t// out\n        /* \"#utility.yul\":7652:7821   */\n    tag_130:\n        /* \"#utility.yul\":7736:7747   */\n      0x00\n        /* \"#utility.yul\":7770:7776   */\n      dup3\n        /* \"#utility.yul\":7765:7768   */\n      dup3\n        /* \"#utility.yul\":7758:7777   */\n      mstore\n        /* \"#utility.yul\":7810:7814   */\n      0x20\n        /* \"#utility.yul\":7805:7808   */\n      dup3\n        /* \"#utility.yul\":7801:7815   */\n      add\n        /* \"#utility.yul\":7786:7815   */\n      swap1\n      pop\n        /* \"#utility.yul\":7652:7821   */\n      swap3\n      swap2\n      pop\n      pop\n      jump\t// out\n        /* \"#utility.yul\":7827:8000   */\n    tag_131:\n        /* \"#utility.yul\":7967:7992   */\n      0x43616c6c6572206973206e6f7420746865206f776e6572000000000000000000\n        /* \"#utility.yul\":7963:7964   */\n      0x00\n        /* \"#utility.yul\":7955:7961   */\n      dup3\n        /* \"#utility.yul\":7951:7965   */\n      add\n        /* \"#utility.yul\":7944:7993   */\n      mstore\n        /* \"#utility.yul\":7827:8000   */\n      pop\n      jump\t// out\n        /* \"#utility.yul\":8006:8372   */\n    tag_132:\n        /* \"#utility.yul\":8148:8151   */\n      0x00\n        /* \"#utility.yul\":8169:8236   */\n      tag_236\n        /* \"#utility.yul\":8233:8235   */\n      0x17\n        /* \"#utility.yul\":8228:8231   */\n      dup4\n        /* \"#utility.yul\":8169:8236   */\n      tag_130\n      jump\t// in\n    tag_236:\n        /* \"#utility.yul\":8162:8236   */\n      swap2\n      pop\n        /* \"#utility.yul\":8245:8338   */\n      tag_237\n        /* \"#utility.yul\":8334:8337   */\n      dup3\n        /* \"#utility.yul\":8245:8338   */\n      tag_131\n      jump\t// in\n    tag_237:\n        /* \"#utility.yul\":8363:8365   */\n      0x20\n        /* \"#utility.yul\":8358:8361   */\n      dup3\n        /* \"#utility.yul\":8354:8366   */\n      add\n        /* \"#utility.yul\":8347:8366   */\n      swap1\n      pop\n        /* \"#utility.yul\":8006:8372   */\n      swap2\n      swap1\n      pop\n      jump\t// out\n        /* \"#utility.yul\":8378:8797   */\n    tag_58:\n        /* \"#utility.yul\":8544:8548   */\n      0x00\n        /* \"#utility.yul\":8582:8584   */\n      0x20\n        /* \"#utility.yul\":8571:8580   */\n      dup3\n        /* \"#utility.yul\":8567:8585   */\n      add\n        /* \"#utility.yul\":8559:8585   */\n      swap1\n      pop\n        /* \"#utility.yul\":8631:8640   */\n      dup2\n        /* \"#utility.yul\":8625:8629   */\n      dup2\n        /* \"#utility.yul\":8621:8641   */\n      sub\n        /* \"#utility.yul\":8617:8618   */\n      0x00\n        /* \"#utility.yul\":8606:8615   */\n      dup4\n        /* \"#utility.yul\":8602:8619   */\n      add\n        /* \"#utility.yul\":8595:8642   */\n      mstore\n        /* \"#utility.yul\":8659:8790   */\n      tag_239\n        /* \"#utility.yul\":8785:8789   */\n      dup2\n        /* \"#utility.yul\":8659:8790   */\n      tag_132\n      jump\t// in\n    tag_239:\n        /* \"#utility.yul\":8651:8790   */\n      swap1\n      pop\n        /* \"#utility.yul\":8378:8797   */\n      swap2\n      swap1\n      pop\n      jump\t// out\n        /* \"#utility.yul\":8803:8984   */\n    tag_133:\n        /* \"#utility.yul\":8943:8976   */\n      0x496e73756666696369656e742066756e647320696e204d61737465724d455600\n        /* \"#utility.yul\":8939:8940   */\n      0x00\n        /* \"#utility.yul\":8931:8937   */\n      dup3\n        /* \"#utility.yul\":8927:8941   */\n      add\n        /* \"#utility.yul\":8920:8977   */\n      mstore\n        /* \"#utility.yul\":8803:8984   */\n      pop\n      jump\t// out\n        /* \"#utility.yul\":8990:9356   */\n    tag_134:\n        /* \"#utility.yul\":9132:9135   */\n      0x00\n        /* \"#utility.yul\":9153:9220   */\n      tag_242\n        /* \"#utility.yul\":9217:9219   */\n      0x1f\n        /* \"#utility.yul\":9212:9215   */\n      dup4\n        /* \"#utility.yul\":9153:9220   */\n      tag_130\n      jump\t// in\n    tag_242:\n        /* \"#utility.yul\":9146:9220   */\n      swap2\n      pop\n        /* \"#utility.yul\":9229:9322   */\n      tag_243\n        /* \"#utility.yul\":9318:9321   */\n      dup3\n        /* \"#utility.yul\":9229:9322   */\n      tag_133\n      jump\t// in\n    tag_243:\n        /* \"#utility.yul\":9347:9349   */\n      0x20\n        /* \"#utility.yul\":9342:9345   */\n      dup3\n        /* \"#utility.yul\":9338:9350   */\n      add\n        /* \"#utility.yul\":9331:9350   */\n      swap1\n      pop\n        /* \"#utility.yul\":8990:9356   */\n      swap2\n      swap1\n      pop\n      jump\t// out\n        /* \"#utility.yul\":9362:9781   */\n    tag_62:\n        /* \"#utility.yul\":9528:9532   */\n      0x00\n        /* \"#utility.yul\":9566:9568   */\n      0x20\n        /* \"#utility.yul\":9555:9564   */\n      dup3\n        /* \"#utility.yul\":9551:9569   */\n      add\n        /* \"#utility.yul\":9543:9569   */\n      swap1\n      pop\n        /* \"#utility.yul\":9615:9624   */\n      dup2\n        /* \"#utility.yul\":9609:9613   */\n      dup2\n        /* \"#utility.yul\":9605:9625   */\n      sub\n        /* \"#utility.yul\":9601:9602   */\n      0x00\n        /* \"#utility.yul\":9590:9599   */\n      dup4\n        /* \"#utility.yul\":9586:9603   */\n      add\n        /* \"#utility.yul\":9579:9626   */\n      mstore\n        /* \"#utility.yul\":9643:9774   */\n      tag_245\n        /* \"#utility.yul\":9769:9773   */\n      dup2\n        /* \"#utility.yul\":9643:9774   */\n      tag_134\n      jump\t// in\n    tag_245:\n        /* \"#utility.yul\":9635:9774   */\n      swap1\n      pop\n        /* \"#utility.yul\":9362:9781   */\n      swap2\n      swap1\n      pop\n      jump\t// out\n        /* \"#utility.yul\":9787:9967   */\n    tag_135:\n        /* \"#utility.yul\":9835:9912   */\n      0x4e487b7100000000000000000000000000000000000000000000000000000000\n        /* \"#utility.yul\":9832:9833   */\n      0x00\n        /* \"#utility.yul\":9825:9913   */\n      mstore\n        /* \"#utility.yul\":9932:9936   */\n      0x11\n        /* \"#utility.yul\":9929:9930   */\n      0x04\n        /* \"#utility.yul\":9922:9937   */\n      mstore\n        /* \"#utility.yul\":9956:9960   */\n      0x24\n        /* \"#utility.yul\":9953:9954   */\n      0x00\n        /* \"#utility.yul\":9946:9961   */\n      revert\n        /* \"#utility.yul\":9973:10164   */\n    tag_64:\n        /* \"#utility.yul\":10013:10016   */\n      0x00\n        /* \"#utility.yul\":10032:10052   */\n      tag_248\n        /* \"#utility.yul\":10050:10051   */\n      dup3\n        /* \"#utility.yul\":10032:10052   */\n      tag_118\n      jump\t// in\n    tag_248:\n        /* \"#utility.yul\":10027:10052   */\n      swap2\n      pop\n        /* \"#utility.yul\":10066:10086   */\n      tag_249\n        /* \"#utility.yul\":10084:10085   */\n      dup4\n        /* \"#utility.yul\":10066:10086   */\n      tag_118\n      jump\t// in\n    tag_249:\n        /* \"#utility.yul\":10061:10086   */\n      swap3\n      pop\n        /* \"#utility.yul\":10109:10110   */\n      dup3\n        /* \"#utility.yul\":10106:10107   */\n      dup3\n        /* \"#utility.yul\":10102:10111   */\n      add\n        /* \"#utility.yul\":10095:10111   */\n      swap1\n      pop\n        /* \"#utility.yul\":10130:10133   */\n      dup1\n        /* \"#utility.yul\":10127:10128   */\n      dup3\n        /* \"#utility.yul\":10124:10134   */\n      gt\n        /* \"#utility.yul\":10121:10157   */\n      iszero\n      tag_250\n      jumpi\n        /* \"#utility.yul\":10137:10155   */\n      tag_251\n      tag_135\n      jump\t// in\n    tag_251:\n        /* \"#utility.yul\":10121:10157   */\n    tag_250:\n        /* \"#utility.yul\":9973:10164   */\n      swap3\n      swap2\n      pop\n      pop\n      jump\t// out\n        /* \"#utility.yul\":10170:10348   */\n    tag_136:\n        /* \"#utility.yul\":10310:10340   */\n      0x496e73756666696369656e742066756e647320616c6c6f636174656400000000\n        /* \"#utility.yul\":10306:10307   */\n      0x00\n        /* \"#utility.yul\":10298:10304   */\n      dup3\n        /* \"#utility.yul\":10294:10308   */\n      add\n        /* \"#utility.yul\":10287:10341   */\n      mstore\n        /* \"#utility.yul\":10170:10348   */\n      pop\n      jump\t// out\n        /* \"#utility.yul\":10354:10720   */\n    tag_137:\n        /* \"#utility.yul\":10496:10499   */\n      0x00\n        /* \"#utility.yul\":10517:10584   */\n      tag_254\n        /* \"#utility.yul\":10581:10583   */\n      0x1c\n        /* \"#utility.yul\":10576:10579   */\n      dup4\n        /* \"#utility.yul\":10517:10584   */\n      tag_130\n      jump\t// in\n    tag_254:\n        /* \"#utility.yul\":10510:10584   */\n      swap2\n      pop\n        /* \"#utility.yul\":10593:10686   */\n      tag_255\n        /* \"#utility.yul\":10682:10685   */\n      dup3\n        /* \"#utility.yul\":10593:10686   */\n      tag_136\n      jump\t// in\n    tag_255:\n        /* \"#utility.yul\":10711:10713   */\n      0x20\n        /* \"#utility.yul\":10706:10709   */\n      dup3\n        /* \"#utility.yul\":10702:10714   */\n      add\n        /* \"#utility.yul\":10695:10714   */\n      swap1\n      pop\n        /* \"#utility.yul\":10354:10720   */\n      swap2\n      swap1\n      pop\n      jump\t// out\n        /* \"#utility.yul\":10726:11145   */\n    tag_71:\n        /* \"#utility.yul\":10892:10896   */\n      0x00\n        /* \"#utility.yul\":10930:10932   */\n      0x20\n        /* \"#utility.yul\":10919:10928   */\n      dup3\n        /* \"#utility.yul\":10915:10933   */\n      add\n        /* \"#utility.yul\":10907:10933   */\n      swap1\n      pop\n        /* \"#utility.yul\":10979:10988   */\n      dup2\n        /* \"#utility.yul\":10973:10977   */\n      dup2\n        /* \"#utility.yul\":10969:10989   */\n      sub\n        /* \"#utility.yul\":10965:10966   */\n      0x00\n        /* \"#utility.yul\":10954:10963   */\n      dup4\n        /* \"#utility.yul\":10950:10967   */\n      add\n        /* \"#utility.yul\":10943:10990   */\n      mstore\n        /* \"#utility.yul\":11007:11138   */\n      tag_257\n        /* \"#utility.yul\":11133:11137   */\n      dup2\n        /* \"#utility.yul\":11007:11138   */\n      tag_137\n      jump\t// in\n    tag_257:\n        /* \"#utility.yul\":10999:11138   */\n      swap1\n      pop\n        /* \"#utility.yul\":10726:11145   */\n      swap2\n      swap1\n      pop\n      jump\t// out\n        /* \"#utility.yul\":11151:11335   */\n    tag_138:\n        /* \"#utility.yul\":11250:11261   */\n      0x00\n        /* \"#utility.yul\":11284:11290   */\n      dup3\n        /* \"#utility.yul\":11279:11282   */\n      dup3\n        /* \"#utility.yul\":11272:11291   */\n      mstore\n        /* \"#utility.yul\":11324:11328   */\n      0x20\n        /* \"#utility.yul\":11319:11322   */\n      dup3\n        /* \"#utility.yul\":11315:11329   */\n      add\n        /* \"#utility.yul\":11300:11329   */\n      swap1\n      pop\n        /* \"#utility.yul\":11151:11335   */\n      swap3\n      swap2\n      pop\n      pop\n      jump\t// out\n        /* \"#utility.yul\":11341:11443   */\n    tag_139:\n        /* \"#utility.yul\":11410:11414   */\n      0x00\n        /* \"#utility.yul\":11433:11436   */\n      dup2\n        /* \"#utility.yul\":11425:11436   */\n      swap1\n      pop\n        /* \"#utility.yul\":11341:11443   */\n      swap2\n      swap1\n      pop\n      jump\t// out\n        /* \"#utility.yul\":11449:11557   */\n    tag_140:\n        /* \"#utility.yul\":11526:11550   */\n      tag_261\n        /* \"#utility.yul\":11544:11549   */\n      dup2\n        /* \"#utility.yul\":11526:11550   */\n      tag_115\n      jump\t// in\n    tag_261:\n        /* \"#utility.yul\":11521:11524   */\n      dup3\n        /* \"#utility.yul\":11514:11551   */\n      mstore\n        /* \"#utility.yul\":11449:11557   */\n      pop\n      pop\n      jump\t// out\n        /* \"#utility.yul\":11563:11742   */\n    tag_141:\n        /* \"#utility.yul\":11632:11642   */\n      0x00\n        /* \"#utility.yul\":11653:11699   */\n      tag_263\n        /* \"#utility.yul\":11695:11698   */\n      dup4\n        /* \"#utility.yul\":11687:11693   */\n      dup4\n        /* \"#utility.yul\":11653:11699   */\n      tag_140\n      jump\t// in\n    tag_263:\n        /* \"#utility.yul\":11731:11735   */\n      0x20\n        /* \"#utility.yul\":11726:11729   */\n      dup4\n        /* \"#utility.yul\":11722:11736   */\n      add\n        /* \"#utility.yul\":11708:11736   */\n      swap1\n      pop\n        /* \"#utility.yul\":11563:11742   */\n      swap3\n      swap2\n      pop\n      pop\n      jump\t// out\n        /* \"#utility.yul\":11748:11870   */\n    tag_142:\n        /* \"#utility.yul\":11800:11805   */\n      0x00\n        /* \"#utility.yul\":11825:11864   */\n      tag_265\n        /* \"#utility.yul\":11860:11862   */\n      0x20\n        /* \"#utility.yul\":11855:11858   */\n      dup5\n        /* \"#utility.yul\":11851:11863   */\n      add\n        /* \"#utility.yul\":11846:11849   */\n      dup5\n        /* \"#utility.yul\":11825:11864   */\n      tag_117\n      jump\t// in\n    tag_265:\n        /* \"#utility.yul\":11816:11864   */\n      swap1\n      pop\n        /* \"#utility.yul\":11748:11870   */\n      swap3\n      swap2\n      pop\n      pop\n      jump\t// out\n        /* \"#utility.yul\":11876:11991   */\n    tag_143:\n        /* \"#utility.yul\":11948:11952   */\n      0x00\n        /* \"#utility.yul\":11980:11984   */\n      0x20\n        /* \"#utility.yul\":11975:11978   */\n      dup3\n        /* \"#utility.yul\":11971:11985   */\n      add\n        /* \"#utility.yul\":11963:11985   */\n      swap1\n      pop\n        /* \"#utility.yul\":11876:11991   */\n      swap2\n      swap1\n      pop\n      jump\t// out\n        /* \"#utility.yul\":12027:12726   */\n    tag_144:\n        /* \"#utility.yul\":12156:12159   */\n      0x00\n        /* \"#utility.yul\":12179:12265   */\n      tag_268\n        /* \"#utility.yul\":12258:12264   */\n      dup4\n        /* \"#utility.yul\":12253:12256   */\n      dup6\n        /* \"#utility.yul\":12179:12265   */\n      tag_138\n      jump\t// in\n    tag_268:\n        /* \"#utility.yul\":12172:12265   */\n      swap4\n      pop\n        /* \"#utility.yul\":12289:12347   */\n      tag_269\n        /* \"#utility.yul\":12341:12346   */\n      dup3\n        /* \"#utility.yul\":12289:12347   */\n      tag_139\n      jump\t// in\n    tag_269:\n        /* \"#utility.yul\":12370:12377   */\n      dup1\n        /* \"#utility.yul\":12401:12402   */\n      0x00\n        /* \"#utility.yul\":12386:12701   */\n    tag_270:\n        /* \"#utility.yul\":12411:12417   */\n      dup6\n        /* \"#utility.yul\":12408:12409   */\n      dup2\n        /* \"#utility.yul\":12405:12418   */\n      lt\n        /* \"#utility.yul\":12386:12701   */\n      iszero\n      tag_272\n      jumpi\n        /* \"#utility.yul\":12481:12523   */\n      tag_273\n        /* \"#utility.yul\":12516:12522   */\n      dup3\n        /* \"#utility.yul\":12507:12514   */\n      dup5\n        /* \"#utility.yul\":12481:12523   */\n      tag_142\n      jump\t// in\n    tag_273:\n        /* \"#utility.yul\":12543:12606   */\n      tag_274\n        /* \"#utility.yul\":12602:12605   */\n      dup9\n        /* \"#utility.yul\":12587:12600   */\n      dup3\n        /* \"#utility.yul\":12543:12606   */\n      tag_141\n      jump\t// in\n    tag_274:\n        /* \"#utility.yul\":12536:12606   */\n      swap8\n      pop\n        /* \"#utility.yul\":12629:12691   */\n      tag_275\n        /* \"#utility.yul\":12684:12690   */\n      dup4\n        /* \"#utility.yul\":12629:12691   */\n      tag_143\n      jump\t// in\n    tag_275:\n        /* \"#utility.yul\":12619:12691   */\n      swap3\n      pop\n        /* \"#utility.yul\":12446:12701   */\n      pop\n        /* \"#utility.yul\":12433:12434   */\n      0x01\n        /* \"#utility.yul\":12430:12431   */\n      dup2\n        /* \"#utility.yul\":12426:12435   */\n      add\n        /* \"#utility.yul\":12421:12435   */\n      swap1\n      pop\n        /* \"#utility.yul\":12386:12701   */\n      jump(tag_270)\n    tag_272:\n        /* \"#utility.yul\":12390:12404   */\n      pop\n        /* \"#utility.yul\":12717:12720   */\n      dup6\n        /* \"#utility.yul\":12710:12720   */\n      swap3\n      pop\n        /* \"#utility.yul\":12161:12726   */\n      pop\n      pop\n        /* \"#utility.yul\":12027:12726   */\n      swap4\n      swap3\n      pop\n      pop\n      pop\n      jump\t// out\n        /* \"#utility.yul\":12732:13567   */\n    tag_73:\n        /* \"#utility.yul\":12997:13001   */\n      0x00\n        /* \"#utility.yul\":13035:13038   */\n      0xa0\n        /* \"#utility.yul\":13024:13033   */\n      dup3\n        /* \"#utility.yul\":13020:13039   */\n      add\n        /* \"#utility.yul\":13012:13039   */\n      swap1\n      pop\n        /* \"#utility.yul\":13049:13120   */\n      tag_277\n        /* \"#utility.yul\":13117:13118   */\n      0x00\n        /* \"#utility.yul\":13106:13115   */\n      dup4\n        /* \"#utility.yul\":13102:13119   */\n      add\n        /* \"#utility.yul\":13093:13099   */\n      dup10\n        /* \"#utility.yul\":13049:13120   */\n      tag_119\n      jump\t// in\n    tag_277:\n        /* \"#utility.yul\":13130:13202   */\n      tag_278\n        /* \"#utility.yul\":13198:13200   */\n      0x20\n        /* \"#utility.yul\":13187:13196   */\n      dup4\n        /* \"#utility.yul\":13183:13201   */\n      add\n        /* \"#utility.yul\":13174:13180   */\n      dup9\n        /* \"#utility.yul\":13130:13202   */\n      tag_119\n      jump\t// in\n    tag_278:\n        /* \"#utility.yul\":13249:13258   */\n      dup2\n        /* \"#utility.yul\":13243:13247   */\n      dup2\n        /* \"#utility.yul\":13239:13259   */\n      sub\n        /* \"#utility.yul\":13234:13236   */\n      0x40\n        /* \"#utility.yul\":13223:13232   */\n      dup4\n        /* \"#utility.yul\":13219:13237   */\n      add\n        /* \"#utility.yul\":13212:13260   */\n      mstore\n        /* \"#utility.yul\":13277:13395   */\n      tag_279\n        /* \"#utility.yul\":13390:13394   */\n      dup2\n        /* \"#utility.yul\":13381:13387   */\n      dup7\n        /* \"#utility.yul\":13373:13379   */\n      dup9\n        /* \"#utility.yul\":13277:13395   */\n      tag_144\n      jump\t// in\n    tag_279:\n        /* \"#utility.yul\":13269:13395   */\n      swap1\n      pop\n        /* \"#utility.yul\":13405:13477   */\n      tag_280\n        /* \"#utility.yul\":13473:13475   */\n      0x60\n        /* \"#utility.yul\":13462:13471   */\n      dup4\n        /* \"#utility.yul\":13458:13476   */\n      add\n        /* \"#utility.yul\":13449:13455   */\n      dup6\n        /* \"#utility.yul\":13405:13477   */\n      tag_126\n      jump\t// in\n    tag_280:\n        /* \"#utility.yul\":13487:13560   */\n      tag_281\n        /* \"#utility.yul\":13555:13558   */\n      0x80\n        /* \"#utility.yul\":13544:13553   */\n      dup4\n        /* \"#utility.yul\":13540:13559   */\n      add\n        /* \"#utility.yul\":13531:13537   */\n      dup5\n        /* \"#utility.yul\":13487:13560   */\n      tag_119\n      jump\t// in\n    tag_281:\n        /* \"#utility.yul\":12732:13567   */\n      swap8\n      swap7\n      pop\n      pop\n      pop\n      pop\n      pop\n      pop\n      pop\n      jump\t// out\n        /* \"#utility.yul\":13573:13905   */\n    tag_82:\n        /* \"#utility.yul\":13694:13698   */\n      0x00\n        /* \"#utility.yul\":13732:13734   */\n      0x40\n        /* \"#utility.yul\":13721:13730   */\n      dup3\n        /* \"#utility.yul\":13717:13735   */\n      add\n        /* \"#utility.yul\":13709:13735   */\n      swap1\n      pop\n        /* \"#utility.yul\":13745:13816   */\n      tag_283\n        /* \"#utility.yul\":13813:13814   */\n      0x00\n        /* \"#utility.yul\":13802:13811   */\n      dup4\n        /* \"#utility.yul\":13798:13815   */\n      add\n        /* \"#utility.yul\":13789:13795   */\n      dup6\n        /* \"#utility.yul\":13745:13816   */\n      tag_126\n      jump\t// in\n    tag_283:\n        /* \"#utility.yul\":13826:13898   */\n      tag_284\n        /* \"#utility.yul\":13894:13896   */\n      0x20\n        /* \"#utility.yul\":13883:13892   */\n      dup4\n        /* \"#utility.yul\":13879:13897   */\n      add\n        /* \"#utility.yul\":13870:13876   */\n      dup5\n        /* \"#utility.yul\":13826:13898   */\n      tag_126\n      jump\t// in\n    tag_284:\n        /* \"#utility.yul\":13573:13905   */\n      swap4\n      swap3\n      pop\n      pop\n      pop\n      jump\t// out\n        /* \"#utility.yul\":13911:14079   */\n    tag_145:\n        /* \"#utility.yul\":14051:14071   */\n      0x496e73756666696369656e742066756e64730000000000000000000000000000\n        /* \"#utility.yul\":14047:14048   */\n      0x00\n        /* \"#utility.yul\":14039:14045   */\n      dup3\n        /* \"#utility.yul\":14035:14049   */\n      add\n        /* \"#utility.yul\":14028:14072   */\n      mstore\n        /* \"#utility.yul\":13911:14079   */\n      pop\n      jump\t// out\n        /* \"#utility.yul\":14085:14451   */\n    tag_146:\n        /* \"#utility.yul\":14227:14230   */\n      0x00\n        /* \"#utility.yul\":14248:14315   */\n      tag_287\n        /* \"#utility.yul\":14312:14314   */\n      0x12\n        /* \"#utility.yul\":14307:14310   */\n      dup4\n        /* \"#utility.yul\":14248:14315   */\n      tag_130\n      jump\t// in\n    tag_287:\n        /* \"#utility.yul\":14241:14315   */\n      swap2\n      pop\n        /* \"#utility.yul\":14324:14417   */\n      tag_288\n        /* \"#utility.yul\":14413:14416   */\n      dup3\n        /* \"#utility.yul\":14324:14417   */\n      tag_145\n      jump\t// in\n    tag_288:\n        /* \"#utility.yul\":14442:14444   */\n      0x20\n        /* \"#utility.yul\":14437:14440   */\n      dup3\n        /* \"#utility.yul\":14433:14445   */\n      add\n        /* \"#utility.yul\":14426:14445   */\n      swap1\n      pop\n        /* \"#utility.yul\":14085:14451   */\n      swap2\n      swap1\n      pop\n      jump\t// out\n        /* \"#utility.yul\":14457:14876   */\n    tag_92:\n        /* \"#utility.yul\":14623:14627   */\n      0x00\n        /* \"#utility.yul\":14661:14663   */\n      0x20\n        /* \"#utility.yul\":14650:14659   */\n      dup3\n        /* \"#utility.yul\":14646:14664   */\n      add\n        /* \"#utility.yul\":14638:14664   */\n      swap1\n      pop\n        /* \"#utility.yul\":14710:14719   */\n      dup2\n        /* \"#utility.yul\":14704:14708   */\n      dup2\n        /* \"#utility.yul\":14700:14720   */\n      sub\n        /* \"#utility.yul\":14696:14697   */\n      0x00\n        /* \"#utility.yul\":14685:14694   */\n      dup4\n        /* \"#utility.yul\":14681:14698   */\n      add\n        /* \"#utility.yul\":14674:14721   */\n      mstore\n        /* \"#utility.yul\":14738:14869   */\n      tag_290\n        /* \"#utility.yul\":14864:14868   */\n      dup2\n        /* \"#utility.yul\":14738:14869   */\n      tag_146\n      jump\t// in\n    tag_290:\n        /* \"#utility.yul\":14730:14869   */\n      swap1\n      pop\n        /* \"#utility.yul\":14457:14876   */\n      swap2\n      swap1\n      pop\n      jump\t// out\n        /* \"#utility.yul\":14882:15111   */\n    tag_147:\n        /* \"#utility.yul\":15022:15056   */\n      0x4f6e6c792064657369676e61746564206d6f64756c65732063616e207265706f\n        /* \"#utility.yul\":15018:15019   */\n      0x00\n        /* \"#utility.yul\":15010:15016   */\n      dup3\n        /* \"#utility.yul\":15006:15020   */\n      add\n        /* \"#utility.yul\":14999:15057   */\n      mstore\n        /* \"#utility.yul\":15091:15103   */\n      0x72742070726f6669747300000000000000000000000000000000000000000000\n        /* \"#utility.yul\":15086:15088   */\n      0x20\n        /* \"#utility.yul\":15078:15084   */\n      dup3\n        /* \"#utility.yul\":15074:15089   */\n      add\n        /* \"#utility.yul\":15067:15104   */\n      mstore\n        /* \"#utility.yul\":14882:15111   */\n      pop\n      jump\t// out\n        /* \"#utility.yul\":15117:15483   */\n    tag_148:\n        /* \"#utility.yul\":15259:15262   */\n      0x00\n        /* \"#utility.yul\":15280:15347   */\n      tag_293\n        /* \"#utility.yul\":15344:15346   */\n      0x2a\n        /* \"#utility.yul\":15339:15342   */\n      dup4\n        /* \"#utility.yul\":15280:15347   */\n      tag_130\n      jump\t// in\n    tag_293:\n        /* \"#utility.yul\":15273:15347   */\n      swap2\n      pop\n        /* \"#utility.yul\":15356:15449   */\n      tag_294\n        /* \"#utility.yul\":15445:15448   */\n      dup3\n        /* \"#utility.yul\":15356:15449   */\n      tag_147\n      jump\t// in\n    tag_294:\n        /* \"#utility.yul\":15474:15476   */\n      0x40\n        /* \"#utility.yul\":15469:15472   */\n      dup3\n        /* \"#utility.yul\":15465:15477   */\n      add\n        /* \"#utility.yul\":15458:15477   */\n      swap1\n      pop\n        /* \"#utility.yul\":15117:15483   */\n      swap2\n      swap1\n      pop\n      jump\t// out\n        /* \"#utility.yul\":15489:15908   */\n    tag_98:\n        /* \"#utility.yul\":15655:15659   */\n      0x00\n        /* \"#utility.yul\":15693:15695   */\n      0x20\n        /* \"#utility.yul\":15682:15691   */\n      dup3\n        /* \"#utility.yul\":15678:15696   */\n      add\n        /* \"#utility.yul\":15670:15696   */\n      swap1\n      pop\n        /* \"#utility.yul\":15742:15751   */\n      dup2\n        /* \"#utility.yul\":15736:15740   */\n      dup2\n        /* \"#utility.yul\":15732:15752   */\n      sub\n        /* \"#utility.yul\":15728:15729   */\n      0x00\n        /* \"#utility.yul\":15717:15726   */\n      dup4\n        /* \"#utility.yul\":15713:15730   */\n      add\n        /* \"#utility.yul\":15706:15753   */\n      mstore\n        /* \"#utility.yul\":15770:15901   */\n      tag_296\n        /* \"#utility.yul\":15896:15900   */\n      dup2\n        /* \"#utility.yul\":15770:15901   */\n      tag_148\n      jump\t// in\n    tag_296:\n        /* \"#utility.yul\":15762:15901   */\n      swap1\n      pop\n        /* \"#utility.yul\":15489:15908   */\n      swap2\n      swap1\n      pop\n      jump\t// out\n        /* \"#utility.yul\":15914:16638   */\n    tag_107:\n        /* \"#utility.yul\":16151:16155   */\n      0x00\n        /* \"#utility.yul\":16189:16192   */\n      0x80\n        /* \"#utility.yul\":16178:16187   */\n      dup3\n        /* \"#utility.yul\":16174:16193   */\n      add\n        /* \"#utility.yul\":16166:16193   */\n      swap1\n      pop\n        /* \"#utility.yul\":16203:16274   */\n      tag_298\n        /* \"#utility.yul\":16271:16272   */\n      0x00\n        /* \"#utility.yul\":16260:16269   */\n      dup4\n        /* \"#utility.yul\":16256:16273   */\n      add\n        /* \"#utility.yul\":16247:16253   */\n      dup9\n        /* \"#utility.yul\":16203:16274   */\n      tag_119\n      jump\t// in\n    tag_298:\n        /* \"#utility.yul\":16284:16356   */\n      tag_299\n        /* \"#utility.yul\":16352:16354   */\n      0x20\n        /* \"#utility.yul\":16341:16350   */\n      dup4\n        /* \"#utility.yul\":16337:16355   */\n      add\n        /* \"#utility.yul\":16328:16334   */\n      dup8\n        /* \"#utility.yul\":16284:16356   */\n      tag_119\n      jump\t// in\n    tag_299:\n        /* \"#utility.yul\":16403:16412   */\n      dup2\n        /* \"#utility.yul\":16397:16401   */\n      dup2\n        /* \"#utility.yul\":16393:16413   */\n      sub\n        /* \"#utility.yul\":16388:16390   */\n      0x40\n        /* \"#utility.yul\":16377:16386   */\n      dup4\n        /* \"#utility.yul\":16373:16391   */\n      add\n        /* \"#utility.yul\":16366:16414   */\n      mstore\n        /* \"#utility.yul\":16431:16549   */\n      tag_300\n        /* \"#utility.yul\":16544:16548   */\n      dup2\n        /* \"#utility.yul\":16535:16541   */\n      dup6\n        /* \"#utility.yul\":16527:16533   */\n      dup8\n        /* \"#utility.yul\":16431:16549   */\n      tag_144\n      jump\t// in\n    tag_300:\n        /* \"#utility.yul\":16423:16549   */\n      swap1\n      pop\n        /* \"#utility.yul\":16559:16631   */\n      tag_301\n        /* \"#utility.yul\":16627:16629   */\n      0x60\n        /* \"#utility.yul\":16616:16625   */\n      dup4\n        /* \"#utility.yul\":16612:16630   */\n      add\n        /* \"#utility.yul\":16603:16609   */\n      dup5\n        /* \"#utility.yul\":16559:16631   */\n      tag_119\n      jump\t// in\n    tag_301:\n        /* \"#utility.yul\":15914:16638   */\n      swap7\n      swap6\n      pop\n      pop\n      pop\n      pop\n      pop\n      pop\n      jump\t// out\n\n    auxdata: 0xa26469706673582212207bb180cabbc21c37c4870357abf2771d9b04444b1599a190bb948126734483f764736f6c634300081a0033\n}\n",
				"bytecode": {
					"linkReferences": {},
					"object": "60a0604052348015600e575f80fd5b5060015f819055503373ffffffffffffffffffffffffffffffffffffffff1660808173ffffffffffffffffffffffffffffffffffffffff16815250506080516111396100855f395f81816101f60152818161031e015281816104a5015281816104c9015281816105c401526107a201526111395ff3fe60806040526004361061007e575f3560e01c8063bb7fb0b91161004d578063bb7fb0b91461013f578063c107532914610167578063f3079aa51461018f578063f7603705146101b757610085565b80630386e9aa14610089578063189ed356146100c55780631b3a2970146100ed5780638da5cb5b1461011557610085565b3661008557005b5f80fd5b348015610094575f80fd5b506100af60048036038101906100aa9190610986565b6101df565b6040516100bc91906109c9565b60405180910390f35b3480156100d0575f80fd5b506100eb60048036038101906100e69190610a0c565b6101f4565b005b3480156100f8575f80fd5b50610113600480360381019061010e9190610aab565b61031c565b005b348015610120575f80fd5b506101296104a3565b6040516101369190610b64565b60405180910390f35b34801561014a575f80fd5b5061016560048036038101906101609190610b7d565b6104c7565b005b348015610172575f80fd5b5061018d60048036038101906101889190610c08565b6105c2565b005b34801561019a575f80fd5b506101b560048036038101906101b09190610a0c565b6106db565b005b3480156101c2575f80fd5b506101dd60048036038101906101d89190610c46565b6107a0565b005b6001602052805f5260405f205f915090505481565b7f000000000000000000000000000000000000000000000000000000000000000073ffffffffffffffffffffffffffffffffffffffff163373ffffffffffffffffffffffffffffffffffffffff1614610282576040517f08c379a000000000000000000000000000000000000000000000000000000000815260040161027990610d36565b60405180910390fd5b804710156102c5576040517f08c379a00000000000000000000000000000000000000000000000000000000081526004016102bc90610d9e565b60405180910390fd5b8060015f8473ffffffffffffffffffffffffffffffffffffffff1673ffffffffffffffffffffffffffffffffffffffff1681526020019081526020015f205f8282546103119190610de9565b925050819055505050565b7f000000000000000000000000000000000000000000000000000000000000000073ffffffffffffffffffffffffffffffffffffffff163373ffffffffffffffffffffffffffffffffffffffff16146103aa576040517f08c379a00000000000000000000000000000000000000000000000000000000081526004016103a190610d36565b60405180910390fd5b8660015f8373ffffffffffffffffffffffffffffffffffffffff1673ffffffffffffffffffffffffffffffffffffffff1681526020019081526020015f2054101561042a576040517f08c379a000000000000000000000000000000000000000000000000000000000815260040161042190610e66565b60405180910390fd5b8073ffffffffffffffffffffffffffffffffffffffff16630b30f3b98888888888886040518763ffffffff1660e01b815260040161046d96959493929190610f40565b5f604051808303815f87803b158015610484575f80fd5b505af1158015610496573d5f803e3d5ffd5b5050505050505050505050565b7f000000000000000000000000000000000000000000000000000000000000000081565b7f000000000000000000000000000000000000000000000000000000000000000073ffffffffffffffffffffffffffffffffffffffff163373ffffffffffffffffffffffffffffffffffffffff1614610555576040517f08c379a000000000000000000000000000000000000000000000000000000000815260040161054c90610d36565b60405180910390fd5b8073ffffffffffffffffffffffffffffffffffffffff166349f8074284846040518363ffffffff1660e01b8152600401610590929190610f9a565b5f604051808303815f87803b1580156105a7575f80fd5b505af11580156105b9573d5f803e3d5ffd5b50505050505050565b7f000000000000000000000000000000000000000000000000000000000000000073ffffffffffffffffffffffffffffffffffffffff163373ffffffffffffffffffffffffffffffffffffffff1614610650576040517f08c379a000000000000000000000000000000000000000000000000000000000815260040161064790610d36565b60405180910390fd5b80471015610693576040517f08c379a000000000000000000000000000000000000000000000000000000000815260040161068a9061100b565b60405180910390fd5b8173ffffffffffffffffffffffffffffffffffffffff166108fc8290811502906040515f60405180830381858888f193505050501580156106d6573d5f803e3d5ffd5b505050565b8173ffffffffffffffffffffffffffffffffffffffff163373ffffffffffffffffffffffffffffffffffffffff1614610749576040517f08c379a000000000000000000000000000000000000000000000000000000000815260040161074090611099565b60405180910390fd5b8060015f8473ffffffffffffffffffffffffffffffffffffffff1673ffffffffffffffffffffffffffffffffffffffff1681526020019081526020015f205f8282546107959190610de9565b925050819055505050565b7f000000000000000000000000000000000000000000000000000000000000000073ffffffffffffffffffffffffffffffffffffffff163373ffffffffffffffffffffffffffffffffffffffff161461082e576040517f08c379a000000000000000000000000000000000000000000000000000000000815260040161082590610d36565b60405180910390fd5b8560015f8373ffffffffffffffffffffffffffffffffffffffff1673ffffffffffffffffffffffffffffffffffffffff1681526020019081526020015f205410156108ae576040517f08c379a00000000000000000000000000000000000000000000000000000000081526004016108a590610e66565b60405180910390fd5b8073ffffffffffffffffffffffffffffffffffffffff1663cdc9cf9e87878787876040518663ffffffff1660e01b81526004016108ef9594939291906110b7565b5f604051808303815f87803b158015610906575f80fd5b505af1158015610918573d5f803e3d5ffd5b50505050505050505050565b5f80fd5b5f80fd5b5f73ffffffffffffffffffffffffffffffffffffffff82169050919050565b5f6109558261092c565b9050919050565b6109658161094b565b811461096f575f80fd5b50565b5f813590506109808161095c565b92915050565b5f6020828403121561099b5761099a610924565b5b5f6109a884828501610972565b91505092915050565b5f819050919050565b6109c3816109b1565b82525050565b5f6020820190506109dc5f8301846109ba565b92915050565b6109eb816109b1565b81146109f5575f80fd5b50565b5f81359050610a06816109e2565b92915050565b5f8060408385031215610a2257610a21610924565b5b5f610a2f85828601610972565b9250506020610a40858286016109f8565b9150509250929050565b5f80fd5b5f80fd5b5f80fd5b5f8083601f840112610a6b57610a6a610a4a565b5b8235905067ffffffffffffffff811115610a8857610a87610a4e565b5b602083019150836020820283011115610aa457610aa3610a52565b5b9250929050565b5f805f805f805f60c0888a031215610ac657610ac5610924565b5b5f610ad38a828b016109f8565b9750506020610ae48a828b016109f8565b965050604088013567ffffffffffffffff811115610b0557610b04610928565b5b610b118a828b01610a56565b95509550506060610b248a828b01610972565b9350506080610b358a828b016109f8565b92505060a0610b468a828b01610972565b91505092959891949750929550565b610b5e8161094b565b82525050565b5f602082019050610b775f830184610b55565b92915050565b5f805f60608486031215610b9457610b93610924565b5b5f610ba186828701610972565b9350506020610bb286828701610972565b9250506040610bc386828701610972565b9150509250925092565b5f610bd78261092c565b9050919050565b610be781610bcd565b8114610bf1575f80fd5b50565b5f81359050610c0281610bde565b92915050565b5f8060408385031215610c1e57610c1d610924565b5b5f610c2b85828601610bf4565b9250506020610c3c858286016109f8565b9150509250929050565b5f805f805f8060a08789031215610c6057610c5f610924565b5b5f610c6d89828a016109f8565b9650506020610c7e89828a016109f8565b955050604087013567ffffffffffffffff811115610c9f57610c9e610928565b5b610cab89828a01610a56565b94509450506060610cbe89828a016109f8565b9250506080610ccf89828a01610972565b9150509295509295509295565b5f82825260208201905092915050565b7f43616c6c6572206973206e6f7420746865206f776e65720000000000000000005f82015250565b5f610d20601783610cdc565b9150610d2b82610cec565b602082019050919050565b5f6020820190508181035f830152610d4d81610d14565b9050919050565b7f496e73756666696369656e742066756e647320696e204d61737465724d4556005f82015250565b5f610d88601f83610cdc565b9150610d9382610d54565b602082019050919050565b5f6020820190508181035f830152610db581610d7c565b9050919050565b7f4e487b71000000000000000000000000000000000000000000000000000000005f52601160045260245ffd5b5f610df3826109b1565b9150610dfe836109b1565b9250828201905080821115610e1657610e15610dbc565b5b92915050565b7f496e73756666696369656e742066756e647320616c6c6f6361746564000000005f82015250565b5f610e50601c83610cdc565b9150610e5b82610e1c565b602082019050919050565b5f6020820190508181035f830152610e7d81610e44565b9050919050565b5f82825260208201905092915050565b5f819050919050565b610ea68161094b565b82525050565b5f610eb78383610e9d565b60208301905092915050565b5f610ed16020840184610972565b905092915050565b5f602082019050919050565b5f610ef08385610e84565b9350610efb82610e94565b805f5b85811015610f3357610f108284610ec3565b610f1a8882610eac565b9750610f2583610ed9565b925050600181019050610efe565b5085925050509392505050565b5f60a082019050610f535f8301896109ba565b610f6060208301886109ba565b8181036040830152610f73818688610ee5565b9050610f826060830185610b55565b610f8f60808301846109ba565b979650505050505050565b5f604082019050610fad5f830185610b55565b610fba6020830184610b55565b9392505050565b7f496e73756666696369656e742066756e647300000000000000000000000000005f82015250565b5f610ff5601283610cdc565b915061100082610fc1565b602082019050919050565b5f6020820190508181035f83015261102281610fe9565b9050919050565b7f4f6e6c792064657369676e61746564206d6f64756c65732063616e207265706f5f8201527f72742070726f6669747300000000000000000000000000000000000000000000602082015250565b5f611083602a83610cdc565b915061108e82611029565b604082019050919050565b5f6020820190508181035f8301526110b081611077565b9050919050565b5f6080820190506110ca5f8301886109ba565b6110d760208301876109ba565b81810360408301526110ea818587610ee5565b90506110f960608301846109ba565b969550505050505056fea26469706673582212207bb180cabbc21c37c4870357abf2771d9b04444b1599a190bb948126734483f764736f6c634300081a0033",
					"opcodes": "PUSH1 0xA0 PUSH1 0x40 MSTORE CALLVALUE DUP1 ISZERO PUSH1 0xE JUMPI PUSH0 DUP1 REVERT JUMPDEST POP PUSH1 0x1 PUSH0 DUP2 SWAP1 SSTORE POP CALLER PUSH20 0xFFFFFFFFFFFFFFFFFFFFFFFFFFFFFFFFFFFFFFFF AND PUSH1 0x80 DUP2 PUSH20 0xFFFFFFFFFFFFFFFFFFFFFFFFFFFFFFFFFFFFFFFF AND DUP2 MSTORE POP POP PUSH1 0x80 MLOAD PUSH2 0x1139 PUSH2 0x85 PUSH0 CODECOPY PUSH0 DUP2 DUP2 PUSH2 0x1F6 ADD MSTORE DUP2 DUP2 PUSH2 0x31E ADD MSTORE DUP2 DUP2 PUSH2 0x4A5 ADD MSTORE DUP2 DUP2 PUSH2 0x4C9 ADD MSTORE DUP2 DUP2 PUSH2 0x5C4 ADD MSTORE PUSH2 0x7A2 ADD MSTORE PUSH2 0x1139 PUSH0 RETURN INVALID PUSH1 0x80 PUSH1 0x40 MSTORE PUSH1 0x4 CALLDATASIZE LT PUSH2 0x7E JUMPI PUSH0 CALLDATALOAD PUSH1 0xE0 SHR DUP1 PUSH4 0xBB7FB0B9 GT PUSH2 0x4D JUMPI DUP1 PUSH4 0xBB7FB0B9 EQ PUSH2 0x13F JUMPI DUP1 PUSH4 0xC1075329 EQ PUSH2 0x167 JUMPI DUP1 PUSH4 0xF3079AA5 EQ PUSH2 0x18F JUMPI DUP1 PUSH4 0xF7603705 EQ PUSH2 0x1B7 JUMPI PUSH2 0x85 JUMP JUMPDEST DUP1 PUSH4 0x386E9AA EQ PUSH2 0x89 JUMPI DUP1 PUSH4 0x189ED356 EQ PUSH2 0xC5 JUMPI DUP1 PUSH4 0x1B3A2970 EQ PUSH2 0xED JUMPI DUP1 PUSH4 0x8DA5CB5B EQ PUSH2 0x115 JUMPI PUSH2 0x85 JUMP JUMPDEST CALLDATASIZE PUSH2 0x85 JUMPI STOP JUMPDEST PUSH0 DUP1 REVERT JUMPDEST CALLVALUE DUP1 ISZERO PUSH2 0x94 JUMPI PUSH0 DUP1 REVERT JUMPDEST POP PUSH2 0xAF PUSH1 0x4 DUP1 CALLDATASIZE SUB DUP2 ADD SWAP1 PUSH2 0xAA SWAP2 SWAP1 PUSH2 0x986 JUMP JUMPDEST PUSH2 0x1DF JUMP JUMPDEST PUSH1 0x40 MLOAD PUSH2 0xBC SWAP2 SWAP1 PUSH2 0x9C9 JUMP JUMPDEST PUSH1 0x40 MLOAD DUP1 SWAP2 SUB SWAP1 RETURN JUMPDEST CALLVALUE DUP1 ISZERO PUSH2 0xD0 JUMPI PUSH0 DUP1 REVERT JUMPDEST POP PUSH2 0xEB PUSH1 0x4 DUP1 CALLDATASIZE SUB DUP2 ADD SWAP1 PUSH2 0xE6 SWAP2 SWAP1 PUSH2 0xA0C JUMP JUMPDEST PUSH2 0x1F4 JUMP JUMPDEST STOP JUMPDEST CALLVALUE DUP1 ISZERO PUSH2 0xF8 JUMPI PUSH0 DUP1 REVERT JUMPDEST POP PUSH2 0x113 PUSH1 0x4 DUP1 CALLDATASIZE SUB DUP2 ADD SWAP1 PUSH2 0x10E SWAP2 SWAP1 PUSH2 0xAAB JUMP JUMPDEST PUSH2 0x31C JUMP JUMPDEST STOP JUMPDEST CALLVALUE DUP1 ISZERO PUSH2 0x120 JUMPI PUSH0 DUP1 REVERT JUMPDEST POP PUSH2 0x129 PUSH2 0x4A3 JUMP JUMPDEST PUSH1 0x40 MLOAD PUSH2 0x136 SWAP2 SWAP1 PUSH2 0xB64 JUMP JUMPDEST PUSH1 0x40 MLOAD DUP1 SWAP2 SUB SWAP1 RETURN JUMPDEST CALLVALUE DUP1 ISZERO PUSH2 0x14A JUMPI PUSH0 DUP1 REVERT JUMPDEST POP PUSH2 0x165 PUSH1 0x4 DUP1 CALLDATASIZE SUB DUP2 ADD SWAP1 PUSH2 0x160 SWAP2 SWAP1 PUSH2 0xB7D JUMP JUMPDEST PUSH2 0x4C7 JUMP JUMPDEST STOP JUMPDEST CALLVALUE DUP1 ISZERO PUSH2 0x172 JUMPI PUSH0 DUP1 REVERT JUMPDEST POP PUSH2 0x18D PUSH1 0x4 DUP1 CALLDATASIZE SUB DUP2 ADD SWAP1 PUSH2 0x188 SWAP2 SWAP1 PUSH2 0xC08 JUMP JUMPDEST PUSH2 0x5C2 JUMP JUMPDEST STOP JUMPDEST CALLVALUE DUP1 ISZERO PUSH2 0x19A JUMPI PUSH0 DUP1 REVERT JUMPDEST POP PUSH2 0x1B5 PUSH1 0x4 DUP1 CALLDATASIZE SUB DUP2 ADD SWAP1 PUSH2 0x1B0 SWAP2 SWAP1 PUSH2 0xA0C JUMP JUMPDEST PUSH2 0x6DB JUMP JUMPDEST STOP JUMPDEST CALLVALUE DUP1 ISZERO PUSH2 0x1C2 JUMPI PUSH0 DUP1 REVERT JUMPDEST POP PUSH2 0x1DD PUSH1 0x4 DUP1 CALLDATASIZE SUB DUP2 ADD SWAP1 PUSH2 0x1D8 SWAP2 SWAP1 PUSH2 0xC46 JUMP JUMPDEST PUSH2 0x7A0 JUMP JUMPDEST STOP JUMPDEST PUSH1 0x1 PUSH1 0x20 MSTORE DUP1 PUSH0 MSTORE PUSH1 0x40 PUSH0 KECCAK256 PUSH0 SWAP2 POP SWAP1 POP SLOAD DUP2 JUMP JUMPDEST PUSH32 0x0 PUSH20 0xFFFFFFFFFFFFFFFFFFFFFFFFFFFFFFFFFFFFFFFF AND CALLER PUSH20 0xFFFFFFFFFFFFFFFFFFFFFFFFFFFFFFFFFFFFFFFF AND EQ PUSH2 0x282 JUMPI PUSH1 0x40 MLOAD PUSH32 0x8C379A000000000000000000000000000000000000000000000000000000000 DUP2 MSTORE PUSH1 0x4 ADD PUSH2 0x279 SWAP1 PUSH2 0xD36 JUMP JUMPDEST PUSH1 0x40 MLOAD DUP1 SWAP2 SUB SWAP1 REVERT JUMPDEST DUP1 SELFBALANCE LT ISZERO PUSH2 0x2C5 JUMPI PUSH1 0x40 MLOAD PUSH32 0x8C379A000000000000000000000000000000000000000000000000000000000 DUP2 MSTORE PUSH1 0x4 ADD PUSH2 0x2BC SWAP1 PUSH2 0xD9E JUMP JUMPDEST PUSH1 0x40 MLOAD DUP1 SWAP2 SUB SWAP1 REVERT JUMPDEST DUP1 PUSH1 0x1 PUSH0 DUP5 PUSH20 0xFFFFFFFFFFFFFFFFFFFFFFFFFFFFFFFFFFFFFFFF AND PUSH20 0xFFFFFFFFFFFFFFFFFFFFFFFFFFFFFFFFFFFFFFFF AND DUP2 MSTORE PUSH1 0x20 ADD SWAP1 DUP2 MSTORE PUSH1 0x20 ADD PUSH0 KECCAK256 PUSH0 DUP3 DUP3 SLOAD PUSH2 0x311 SWAP2 SWAP1 PUSH2 0xDE9 JUMP JUMPDEST SWAP3 POP POP DUP2 SWAP1 SSTORE POP POP POP JUMP JUMPDEST PUSH32 0x0 PUSH20 0xFFFFFFFFFFFFFFFFFFFFFFFFFFFFFFFFFFFFFFFF AND CALLER PUSH20 0xFFFFFFFFFFFFFFFFFFFFFFFFFFFFFFFFFFFFFFFF AND EQ PUSH2 0x3AA JUMPI PUSH1 0x40 MLOAD PUSH32 0x8C379A000000000000000000000000000000000000000000000000000000000 DUP2 MSTORE PUSH1 0x4 ADD PUSH2 0x3A1 SWAP1 PUSH2 0xD36 JUMP JUMPDEST PUSH1 0x40 MLOAD DUP1 SWAP2 SUB SWAP1 REVERT JUMPDEST DUP7 PUSH1 0x1 PUSH0 DUP4 PUSH20 0xFFFFFFFFFFFFFFFFFFFFFFFFFFFFFFFFFFFFFFFF AND PUSH20 0xFFFFFFFFFFFFFFFFFFFFFFFFFFFFFFFFFFFFFFFF AND DUP2 MSTORE PUSH1 0x20 ADD SWAP1 DUP2 MSTORE PUSH1 0x20 ADD PUSH0 KECCAK256 SLOAD LT ISZERO PUSH2 0x42A JUMPI PUSH1 0x40 MLOAD PUSH32 0x8C379A000000000000000000000000000000000000000000000000000000000 DUP2 MSTORE PUSH1 0x4 ADD PUSH2 0x421 SWAP1 PUSH2 0xE66 JUMP JUMPDEST PUSH1 0x40 MLOAD DUP1 SWAP2 SUB SWAP1 REVERT JUMPDEST DUP1 PUSH20 0xFFFFFFFFFFFFFFFFFFFFFFFFFFFFFFFFFFFFFFFF AND PUSH4 0xB30F3B9 DUP9 DUP9 DUP9 DUP9 DUP9 DUP9 PUSH1 0x40 MLOAD DUP8 PUSH4 0xFFFFFFFF AND PUSH1 0xE0 SHL DUP2 MSTORE PUSH1 0x4 ADD PUSH2 0x46D SWAP7 SWAP6 SWAP5 SWAP4 SWAP3 SWAP2 SWAP1 PUSH2 0xF40 JUMP JUMPDEST PUSH0 PUSH1 0x40 MLOAD DUP1 DUP4 SUB DUP2 PUSH0 DUP8 DUP1 EXTCODESIZE ISZERO DUP1 ISZERO PUSH2 0x484 JUMPI PUSH0 DUP1 REVERT JUMPDEST POP GAS CALL ISZERO DUP1 ISZERO PUSH2 0x496 JUMPI RETURNDATASIZE PUSH0 DUP1 RETURNDATACOPY RETURNDATASIZE PUSH0 REVERT JUMPDEST POP POP POP POP POP POP POP POP POP POP POP JUMP JUMPDEST PUSH32 0x0 DUP2 JUMP JUMPDEST PUSH32 0x0 PUSH20 0xFFFFFFFFFFFFFFFFFFFFFFFFFFFFFFFFFFFFFFFF AND CALLER PUSH20 0xFFFFFFFFFFFFFFFFFFFFFFFFFFFFFFFFFFFFFFFF AND EQ PUSH2 0x555 JUMPI PUSH1 0x40 MLOAD PUSH32 0x8C379A000000000000000000000000000000000000000000000000000000000 DUP2 MSTORE PUSH1 0x4 ADD PUSH2 0x54C SWAP1 PUSH2 0xD36 JUMP JUMPDEST PUSH1 0x40 MLOAD DUP1 SWAP2 SUB SWAP1 REVERT JUMPDEST DUP1 PUSH20 0xFFFFFFFFFFFFFFFFFFFFFFFFFFFFFFFFFFFFFFFF AND PUSH4 0x49F80742 DUP5 DUP5 PUSH1 0x40 MLOAD DUP4 PUSH4 0xFFFFFFFF AND PUSH1 0xE0 SHL DUP2 MSTORE PUSH1 0x4 ADD PUSH2 0x590 SWAP3 SWAP2 SWAP1 PUSH2 0xF9A JUMP JUMPDEST PUSH0 PUSH1 0x40 MLOAD DUP1 DUP4 SUB DUP2 PUSH0 DUP8 DUP1 EXTCODESIZE ISZERO DUP1 ISZERO PUSH2 0x5A7 JUMPI PUSH0 DUP1 REVERT JUMPDEST POP GAS CALL ISZERO DUP1 ISZERO PUSH2 0x5B9 JUMPI RETURNDATASIZE PUSH0 DUP1 RETURNDATACOPY RETURNDATASIZE PUSH0 REVERT JUMPDEST POP POP POP POP POP POP POP JUMP JUMPDEST PUSH32 0x0 PUSH20 0xFFFFFFFFFFFFFFFFFFFFFFFFFFFFFFFFFFFFFFFF AND CALLER PUSH20 0xFFFFFFFFFFFFFFFFFFFFFFFFFFFFFFFFFFFFFFFF AND EQ PUSH2 0x650 JUMPI PUSH1 0x40 MLOAD PUSH32 0x8C379A000000000000000000000000000000000000000000000000000000000 DUP2 MSTORE PUSH1 0x4 ADD PUSH2 0x647 SWAP1 PUSH2 0xD36 JUMP JUMPDEST PUSH1 0x40 MLOAD DUP1 SWAP2 SUB SWAP1 REVERT JUMPDEST DUP1 SELFBALANCE LT ISZERO PUSH2 0x693 JUMPI PUSH1 0x40 MLOAD PUSH32 0x8C379A000000000000000000000000000000000000000000000000000000000 DUP2 MSTORE PUSH1 0x4 ADD PUSH2 0x68A SWAP1 PUSH2 0x100B JUMP JUMPDEST PUSH1 0x40 MLOAD DUP1 SWAP2 SUB SWAP1 REVERT JUMPDEST DUP2 PUSH20 0xFFFFFFFFFFFFFFFFFFFFFFFFFFFFFFFFFFFFFFFF AND PUSH2 0x8FC DUP3 SWAP1 DUP2 ISZERO MUL SWAP1 PUSH1 0x40 MLOAD PUSH0 PUSH1 0x40 MLOAD DUP1 DUP4 SUB DUP2 DUP6 DUP9 DUP9 CALL SWAP4 POP POP POP POP ISZERO DUP1 ISZERO PUSH2 0x6D6 JUMPI RETURNDATASIZE PUSH0 DUP1 RETURNDATACOPY RETURNDATASIZE PUSH0 REVERT JUMPDEST POP POP POP JUMP JUMPDEST DUP2 PUSH20 0xFFFFFFFFFFFFFFFFFFFFFFFFFFFFFFFFFFFFFFFF AND CALLER PUSH20 0xFFFFFFFFFFFFFFFFFFFFFFFFFFFFFFFFFFFFFFFF AND EQ PUSH2 0x749 JUMPI PUSH1 0x40 MLOAD PUSH32 0x8C379A000000000000000000000000000000000000000000000000000000000 DUP2 MSTORE PUSH1 0x4 ADD PUSH2 0x740 SWAP1 PUSH2 0x1099 JUMP JUMPDEST PUSH1 0x40 MLOAD DUP1 SWAP2 SUB SWAP1 REVERT JUMPDEST DUP1 PUSH1 0x1 PUSH0 DUP5 PUSH20 0xFFFFFFFFFFFFFFFFFFFFFFFFFFFFFFFFFFFFFFFF AND PUSH20 0xFFFFFFFFFFFFFFFFFFFFFFFFFFFFFFFFFFFFFFFF AND DUP2 MSTORE PUSH1 0x20 ADD SWAP1 DUP2 MSTORE PUSH1 0x20 ADD PUSH0 KECCAK256 PUSH0 DUP3 DUP3 SLOAD PUSH2 0x795 SWAP2 SWAP1 PUSH2 0xDE9 JUMP JUMPDEST SWAP3 POP POP DUP2 SWAP1 SSTORE POP POP POP JUMP JUMPDEST PUSH32 0x0 PUSH20 0xFFFFFFFFFFFFFFFFFFFFFFFFFFFFFFFFFFFFFFFF AND CALLER PUSH20 0xFFFFFFFFFFFFFFFFFFFFFFFFFFFFFFFFFFFFFFFF AND EQ PUSH2 0x82E JUMPI PUSH1 0x40 MLOAD PUSH32 0x8C379A000000000000000000000000000000000000000000000000000000000 DUP2 MSTORE PUSH1 0x4 ADD PUSH2 0x825 SWAP1 PUSH2 0xD36 JUMP JUMPDEST PUSH1 0x40 MLOAD DUP1 SWAP2 SUB SWAP1 REVERT JUMPDEST DUP6 PUSH1 0x1 PUSH0 DUP4 PUSH20 0xFFFFFFFFFFFFFFFFFFFFFFFFFFFFFFFFFFFFFFFF AND PUSH20 0xFFFFFFFFFFFFFFFFFFFFFFFFFFFFFFFFFFFFFFFF AND DUP2 MSTORE PUSH1 0x20 ADD SWAP1 DUP2 MSTORE PUSH1 0x20 ADD PUSH0 KECCAK256 SLOAD LT ISZERO PUSH2 0x8AE JUMPI PUSH1 0x40 MLOAD PUSH32 0x8C379A000000000000000000000000000000000000000000000000000000000 DUP2 MSTORE PUSH1 0x4 ADD PUSH2 0x8A5 SWAP1 PUSH2 0xE66 JUMP JUMPDEST PUSH1 0x40 MLOAD DUP1 SWAP2 SUB SWAP1 REVERT JUMPDEST DUP1 PUSH20 0xFFFFFFFFFFFFFFFFFFFFFFFFFFFFFFFFFFFFFFFF AND PUSH4 0xCDC9CF9E DUP8 DUP8 DUP8 DUP8 DUP8 PUSH1 0x40 MLOAD DUP7 PUSH4 0xFFFFFFFF AND PUSH1 0xE0 SHL DUP2 MSTORE PUSH1 0x4 ADD PUSH2 0x8EF SWAP6 SWAP5 SWAP4 SWAP3 SWAP2 SWAP1 PUSH2 0x10B7 JUMP JUMPDEST PUSH0 PUSH1 0x40 MLOAD DUP1 DUP4 SUB DUP2 PUSH0 DUP8 DUP1 EXTCODESIZE ISZERO DUP1 ISZERO PUSH2 0x906 JUMPI PUSH0 DUP1 REVERT JUMPDEST POP GAS CALL ISZERO DUP1 ISZERO PUSH2 0x918 JUMPI RETURNDATASIZE PUSH0 DUP1 RETURNDATACOPY RETURNDATASIZE PUSH0 REVERT JUMPDEST POP POP POP POP POP POP POP POP POP POP JUMP JUMPDEST PUSH0 DUP1 REVERT JUMPDEST PUSH0 DUP1 REVERT JUMPDEST PUSH0 PUSH20 0xFFFFFFFFFFFFFFFFFFFFFFFFFFFFFFFFFFFFFFFF DUP3 AND SWAP1 POP SWAP2 SWAP1 POP JUMP JUMPDEST PUSH0 PUSH2 0x955 DUP3 PUSH2 0x92C JUMP JUMPDEST SWAP1 POP SWAP2 SWAP1 POP JUMP JUMPDEST PUSH2 0x965 DUP2 PUSH2 0x94B JUMP JUMPDEST DUP2 EQ PUSH2 0x96F JUMPI PUSH0 DUP1 REVERT JUMPDEST POP JUMP JUMPDEST PUSH0 DUP2 CALLDATALOAD SWAP1 POP PUSH2 0x980 DUP2 PUSH2 0x95C JUMP JUMPDEST SWAP3 SWAP2 POP POP JUMP JUMPDEST PUSH0 PUSH1 0x20 DUP3 DUP5 SUB SLT ISZERO PUSH2 0x99B JUMPI PUSH2 0x99A PUSH2 0x924 JUMP JUMPDEST JUMPDEST PUSH0 PUSH2 0x9A8 DUP5 DUP3 DUP6 ADD PUSH2 0x972 JUMP JUMPDEST SWAP2 POP POP SWAP3 SWAP2 POP POP JUMP JUMPDEST PUSH0 DUP2 SWAP1 POP SWAP2 SWAP1 POP JUMP JUMPDEST PUSH2 0x9C3 DUP2 PUSH2 0x9B1 JUMP JUMPDEST DUP3 MSTORE POP POP JUMP JUMPDEST PUSH0 PUSH1 0x20 DUP3 ADD SWAP1 POP PUSH2 0x9DC PUSH0 DUP4 ADD DUP5 PUSH2 0x9BA JUMP JUMPDEST SWAP3 SWAP2 POP POP JUMP JUMPDEST PUSH2 0x9EB DUP2 PUSH2 0x9B1 JUMP JUMPDEST DUP2 EQ PUSH2 0x9F5 JUMPI PUSH0 DUP1 REVERT JUMPDEST POP JUMP JUMPDEST PUSH0 DUP2 CALLDATALOAD SWAP1 POP PUSH2 0xA06 DUP2 PUSH2 0x9E2 JUMP JUMPDEST SWAP3 SWAP2 POP POP JUMP JUMPDEST PUSH0 DUP1 PUSH1 0x40 DUP4 DUP6 SUB SLT ISZERO PUSH2 0xA22 JUMPI PUSH2 0xA21 PUSH2 0x924 JUMP JUMPDEST JUMPDEST PUSH0 PUSH2 0xA2F DUP6 DUP3 DUP7 ADD PUSH2 0x972 JUMP JUMPDEST SWAP3 POP POP PUSH1 0x20 PUSH2 0xA40 DUP6 DUP3 DUP7 ADD PUSH2 0x9F8 JUMP JUMPDEST SWAP2 POP POP SWAP3 POP SWAP3 SWAP1 POP JUMP JUMPDEST PUSH0 DUP1 REVERT JUMPDEST PUSH0 DUP1 REVERT JUMPDEST PUSH0 DUP1 REVERT JUMPDEST PUSH0 DUP1 DUP4 PUSH1 0x1F DUP5 ADD SLT PUSH2 0xA6B JUMPI PUSH2 0xA6A PUSH2 0xA4A JUMP JUMPDEST JUMPDEST DUP3 CALLDATALOAD SWAP1 POP PUSH8 0xFFFFFFFFFFFFFFFF DUP2 GT ISZERO PUSH2 0xA88 JUMPI PUSH2 0xA87 PUSH2 0xA4E JUMP JUMPDEST JUMPDEST PUSH1 0x20 DUP4 ADD SWAP2 POP DUP4 PUSH1 0x20 DUP3 MUL DUP4 ADD GT ISZERO PUSH2 0xAA4 JUMPI PUSH2 0xAA3 PUSH2 0xA52 JUMP JUMPDEST JUMPDEST SWAP3 POP SWAP3 SWAP1 POP JUMP JUMPDEST PUSH0 DUP1 PUSH0 DUP1 PUSH0 DUP1 PUSH0 PUSH1 0xC0 DUP9 DUP11 SUB SLT ISZERO PUSH2 0xAC6 JUMPI PUSH2 0xAC5 PUSH2 0x924 JUMP JUMPDEST JUMPDEST PUSH0 PUSH2 0xAD3 DUP11 DUP3 DUP12 ADD PUSH2 0x9F8 JUMP JUMPDEST SWAP8 POP POP PUSH1 0x20 PUSH2 0xAE4 DUP11 DUP3 DUP12 ADD PUSH2 0x9F8 JUMP JUMPDEST SWAP7 POP POP PUSH1 0x40 DUP9 ADD CALLDATALOAD PUSH8 0xFFFFFFFFFFFFFFFF DUP2 GT ISZERO PUSH2 0xB05 JUMPI PUSH2 0xB04 PUSH2 0x928 JUMP JUMPDEST JUMPDEST PUSH2 0xB11 DUP11 DUP3 DUP12 ADD PUSH2 0xA56 JUMP JUMPDEST SWAP6 POP SWAP6 POP POP PUSH1 0x60 PUSH2 0xB24 DUP11 DUP3 DUP12 ADD PUSH2 0x972 JUMP JUMPDEST SWAP4 POP POP PUSH1 0x80 PUSH2 0xB35 DUP11 DUP3 DUP12 ADD PUSH2 0x9F8 JUMP JUMPDEST SWAP3 POP POP PUSH1 0xA0 PUSH2 0xB46 DUP11 DUP3 DUP12 ADD PUSH2 0x972 JUMP JUMPDEST SWAP2 POP POP SWAP3 SWAP6 SWAP9 SWAP2 SWAP5 SWAP8 POP SWAP3 SWAP6 POP JUMP JUMPDEST PUSH2 0xB5E DUP2 PUSH2 0x94B JUMP JUMPDEST DUP3 MSTORE POP POP JUMP JUMPDEST PUSH0 PUSH1 0x20 DUP3 ADD SWAP1 POP PUSH2 0xB77 PUSH0 DUP4 ADD DUP5 PUSH2 0xB55 JUMP JUMPDEST SWAP3 SWAP2 POP POP JUMP JUMPDEST PUSH0 DUP1 PUSH0 PUSH1 0x60 DUP5 DUP7 SUB SLT ISZERO PUSH2 0xB94 JUMPI PUSH2 0xB93 PUSH2 0x924 JUMP JUMPDEST JUMPDEST PUSH0 PUSH2 0xBA1 DUP7 DUP3 DUP8 ADD PUSH2 0x972 JUMP JUMPDEST SWAP4 POP POP PUSH1 0x20 PUSH2 0xBB2 DUP7 DUP3 DUP8 ADD PUSH2 0x972 JUMP JUMPDEST SWAP3 POP POP PUSH1 0x40 PUSH2 0xBC3 DUP7 DUP3 DUP8 ADD PUSH2 0x972 JUMP JUMPDEST SWAP2 POP POP SWAP3 POP SWAP3 POP SWAP3 JUMP JUMPDEST PUSH0 PUSH2 0xBD7 DUP3 PUSH2 0x92C JUMP JUMPDEST SWAP1 POP SWAP2 SWAP1 POP JUMP JUMPDEST PUSH2 0xBE7 DUP2 PUSH2 0xBCD JUMP JUMPDEST DUP2 EQ PUSH2 0xBF1 JUMPI PUSH0 DUP1 REVERT JUMPDEST POP JUMP JUMPDEST PUSH0 DUP2 CALLDATALOAD SWAP1 POP PUSH2 0xC02 DUP2 PUSH2 0xBDE JUMP JUMPDEST SWAP3 SWAP2 POP POP JUMP JUMPDEST PUSH0 DUP1 PUSH1 0x40 DUP4 DUP6 SUB SLT ISZERO PUSH2 0xC1E JUMPI PUSH2 0xC1D PUSH2 0x924 JUMP JUMPDEST JUMPDEST PUSH0 PUSH2 0xC2B DUP6 DUP3 DUP7 ADD PUSH2 0xBF4 JUMP JUMPDEST SWAP3 POP POP PUSH1 0x20 PUSH2 0xC3C DUP6 DUP3 DUP7 ADD PUSH2 0x9F8 JUMP JUMPDEST SWAP2 POP POP SWAP3 POP SWAP3 SWAP1 POP JUMP JUMPDEST PUSH0 DUP1 PUSH0 DUP1 PUSH0 DUP1 PUSH1 0xA0 DUP8 DUP10 SUB SLT ISZERO PUSH2 0xC60 JUMPI PUSH2 0xC5F PUSH2 0x924 JUMP JUMPDEST JUMPDEST PUSH0 PUSH2 0xC6D DUP10 DUP3 DUP11 ADD PUSH2 0x9F8 JUMP JUMPDEST SWAP7 POP POP PUSH1 0x20 PUSH2 0xC7E DUP10 DUP3 DUP11 ADD PUSH2 0x9F8 JUMP JUMPDEST SWAP6 POP POP PUSH1 0x40 DUP8 ADD CALLDATALOAD PUSH8 0xFFFFFFFFFFFFFFFF DUP2 GT ISZERO PUSH2 0xC9F JUMPI PUSH2 0xC9E PUSH2 0x928 JUMP JUMPDEST JUMPDEST PUSH2 0xCAB DUP10 DUP3 DUP11 ADD PUSH2 0xA56 JUMP JUMPDEST SWAP5 POP SWAP5 POP POP PUSH1 0x60 PUSH2 0xCBE DUP10 DUP3 DUP11 ADD PUSH2 0x9F8 JUMP JUMPDEST SWAP3 POP POP PUSH1 0x80 PUSH2 0xCCF DUP10 DUP3 DUP11 ADD PUSH2 0x972 JUMP JUMPDEST SWAP2 POP POP SWAP3 SWAP6 POP SWAP3 SWAP6 POP SWAP3 SWAP6 JUMP JUMPDEST PUSH0 DUP3 DUP3 MSTORE PUSH1 0x20 DUP3 ADD SWAP1 POP SWAP3 SWAP2 POP POP JUMP JUMPDEST PUSH32 0x43616C6C6572206973206E6F7420746865206F776E6572000000000000000000 PUSH0 DUP3 ADD MSTORE POP JUMP JUMPDEST PUSH0 PUSH2 0xD20 PUSH1 0x17 DUP4 PUSH2 0xCDC JUMP JUMPDEST SWAP2 POP PUSH2 0xD2B DUP3 PUSH2 0xCEC JUMP JUMPDEST PUSH1 0x20 DUP3 ADD SWAP1 POP SWAP2 SWAP1 POP JUMP JUMPDEST PUSH0 PUSH1 0x20 DUP3 ADD SWAP1 POP DUP2 DUP2 SUB PUSH0 DUP4 ADD MSTORE PUSH2 0xD4D DUP2 PUSH2 0xD14 JUMP JUMPDEST SWAP1 POP SWAP2 SWAP1 POP JUMP JUMPDEST PUSH32 0x496E73756666696369656E742066756E647320696E204D61737465724D455600 PUSH0 DUP3 ADD MSTORE POP JUMP JUMPDEST PUSH0 PUSH2 0xD88 PUSH1 0x1F DUP4 PUSH2 0xCDC JUMP JUMPDEST SWAP2 POP PUSH2 0xD93 DUP3 PUSH2 0xD54 JUMP JUMPDEST PUSH1 0x20 DUP3 ADD SWAP1 POP SWAP2 SWAP1 POP JUMP JUMPDEST PUSH0 PUSH1 0x20 DUP3 ADD SWAP1 POP DUP2 DUP2 SUB PUSH0 DUP4 ADD MSTORE PUSH2 0xDB5 DUP2 PUSH2 0xD7C JUMP JUMPDEST SWAP1 POP SWAP2 SWAP1 POP JUMP JUMPDEST PUSH32 0x4E487B7100000000000000000000000000000000000000000000000000000000 PUSH0 MSTORE PUSH1 0x11 PUSH1 0x4 MSTORE PUSH1 0x24 PUSH0 REVERT JUMPDEST PUSH0 PUSH2 0xDF3 DUP3 PUSH2 0x9B1 JUMP JUMPDEST SWAP2 POP PUSH2 0xDFE DUP4 PUSH2 0x9B1 JUMP JUMPDEST SWAP3 POP DUP3 DUP3 ADD SWAP1 POP DUP1 DUP3 GT ISZERO PUSH2 0xE16 JUMPI PUSH2 0xE15 PUSH2 0xDBC JUMP JUMPDEST JUMPDEST SWAP3 SWAP2 POP POP JUMP JUMPDEST PUSH32 0x496E73756666696369656E742066756E647320616C6C6F636174656400000000 PUSH0 DUP3 ADD MSTORE POP JUMP JUMPDEST PUSH0 PUSH2 0xE50 PUSH1 0x1C DUP4 PUSH2 0xCDC JUMP JUMPDEST SWAP2 POP PUSH2 0xE5B DUP3 PUSH2 0xE1C JUMP JUMPDEST PUSH1 0x20 DUP3 ADD SWAP1 POP SWAP2 SWAP1 POP JUMP JUMPDEST PUSH0 PUSH1 0x20 DUP3 ADD SWAP1 POP DUP2 DUP2 SUB PUSH0 DUP4 ADD MSTORE PUSH2 0xE7D DUP2 PUSH2 0xE44 JUMP JUMPDEST SWAP1 POP SWAP2 SWAP1 POP JUMP JUMPDEST PUSH0 DUP3 DUP3 MSTORE PUSH1 0x20 DUP3 ADD SWAP1 POP SWAP3 SWAP2 POP POP JUMP JUMPDEST PUSH0 DUP2 SWAP1 POP SWAP2 SWAP1 POP JUMP JUMPDEST PUSH2 0xEA6 DUP2 PUSH2 0x94B JUMP JUMPDEST DUP3 MSTORE POP POP JUMP JUMPDEST PUSH0 PUSH2 0xEB7 DUP4 DUP4 PUSH2 0xE9D JUMP JUMPDEST PUSH1 0x20 DUP4 ADD SWAP1 POP SWAP3 SWAP2 POP POP JUMP JUMPDEST PUSH0 PUSH2 0xED1 PUSH1 0x20 DUP5 ADD DUP5 PUSH2 0x972 JUMP JUMPDEST SWAP1 POP SWAP3 SWAP2 POP POP JUMP JUMPDEST PUSH0 PUSH1 0x20 DUP3 ADD SWAP1 POP SWAP2 SWAP1 POP JUMP JUMPDEST PUSH0 PUSH2 0xEF0 DUP4 DUP6 PUSH2 0xE84 JUMP JUMPDEST SWAP4 POP PUSH2 0xEFB DUP3 PUSH2 0xE94 JUMP JUMPDEST DUP1 PUSH0 JUMPDEST DUP6 DUP2 LT ISZERO PUSH2 0xF33 JUMPI PUSH2 0xF10 DUP3 DUP5 PUSH2 0xEC3 JUMP JUMPDEST PUSH2 0xF1A DUP9 DUP3 PUSH2 0xEAC JUMP JUMPDEST SWAP8 POP PUSH2 0xF25 DUP4 PUSH2 0xED9 JUMP JUMPDEST SWAP3 POP POP PUSH1 0x1 DUP2 ADD SWAP1 POP PUSH2 0xEFE JUMP JUMPDEST POP DUP6 SWAP3 POP POP POP SWAP4 SWAP3 POP POP POP JUMP JUMPDEST PUSH0 PUSH1 0xA0 DUP3 ADD SWAP1 POP PUSH2 0xF53 PUSH0 DUP4 ADD DUP10 PUSH2 0x9BA JUMP JUMPDEST PUSH2 0xF60 PUSH1 0x20 DUP4 ADD DUP9 PUSH2 0x9BA JUMP JUMPDEST DUP2 DUP2 SUB PUSH1 0x40 DUP4 ADD MSTORE PUSH2 0xF73 DUP2 DUP7 DUP9 PUSH2 0xEE5 JUMP JUMPDEST SWAP1 POP PUSH2 0xF82 PUSH1 0x60 DUP4 ADD DUP6 PUSH2 0xB55 JUMP JUMPDEST PUSH2 0xF8F PUSH1 0x80 DUP4 ADD DUP5 PUSH2 0x9BA JUMP JUMPDEST SWAP8 SWAP7 POP POP POP POP POP POP POP JUMP JUMPDEST PUSH0 PUSH1 0x40 DUP3 ADD SWAP1 POP PUSH2 0xFAD PUSH0 DUP4 ADD DUP6 PUSH2 0xB55 JUMP JUMPDEST PUSH2 0xFBA PUSH1 0x20 DUP4 ADD DUP5 PUSH2 0xB55 JUMP JUMPDEST SWAP4 SWAP3 POP POP POP JUMP JUMPDEST PUSH32 0x496E73756666696369656E742066756E64730000000000000000000000000000 PUSH0 DUP3 ADD MSTORE POP JUMP JUMPDEST PUSH0 PUSH2 0xFF5 PUSH1 0x12 DUP4 PUSH2 0xCDC JUMP JUMPDEST SWAP2 POP PUSH2 0x1000 DUP3 PUSH2 0xFC1 JUMP JUMPDEST PUSH1 0x20 DUP3 ADD SWAP1 POP SWAP2 SWAP1 POP JUMP JUMPDEST PUSH0 PUSH1 0x20 DUP3 ADD SWAP1 POP DUP2 DUP2 SUB PUSH0 DUP4 ADD MSTORE PUSH2 0x1022 DUP2 PUSH2 0xFE9 JUMP JUMPDEST SWAP1 POP SWAP2 SWAP1 POP JUMP JUMPDEST PUSH32 0x4F6E6C792064657369676E61746564206D6F64756C65732063616E207265706F PUSH0 DUP3 ADD MSTORE PUSH32 0x72742070726F6669747300000000000000000000000000000000000000000000 PUSH1 0x20 DUP3 ADD MSTORE POP JUMP JUMPDEST PUSH0 PUSH2 0x1083 PUSH1 0x2A DUP4 PUSH2 0xCDC JUMP JUMPDEST SWAP2 POP PUSH2 0x108E DUP3 PUSH2 0x1029 JUMP JUMPDEST PUSH1 0x40 DUP3 ADD SWAP1 POP SWAP2 SWAP1 POP JUMP JUMPDEST PUSH0 PUSH1 0x20 DUP3 ADD SWAP1 POP DUP2 DUP2 SUB PUSH0 DUP4 ADD MSTORE PUSH2 0x10B0 DUP2 PUSH2 0x1077 JUMP JUMPDEST SWAP1 POP SWAP2 SWAP1 POP JUMP JUMPDEST PUSH0 PUSH1 0x80 DUP3 ADD SWAP1 POP PUSH2 0x10CA PUSH0 DUP4 ADD DUP9 PUSH2 0x9BA JUMP JUMPDEST PUSH2 0x10D7 PUSH1 0x20 DUP4 ADD DUP8 PUSH2 0x9BA JUMP JUMPDEST DUP2 DUP2 SUB PUSH1 0x40 DUP4 ADD MSTORE PUSH2 0x10EA DUP2 DUP6 DUP8 PUSH2 0xEE5 JUMP JUMPDEST SWAP1 POP PUSH2 0x10F9 PUSH1 0x60 DUP4 ADD DUP5 PUSH2 0x9BA JUMP JUMPDEST SWAP7 SWAP6 POP POP POP POP POP POP JUMP INVALID LOG2 PUSH5 0x6970667358 0x22 SLT KECCAK256 PUSH28 0xB180CABBC21C37C4870357ABF2771D9B04444B1599A190BB94812673 PREVRANDAO DUP4 0xF7 PUSH5 0x736F6C6343 STOP ADDMOD BYTE STOP CALLER "
				},
				"gasEstimates": {
					"creation": {
						"codeDepositCost": "881800",
						"executionCost": "infinite",
						"totalCost": "infinite"
					},
					"external": {
						"allocateFunds(address,uint256)": "infinite",
						"moduleFunds(address)": "2803",
						"owner()": "infinite",
						"prepareArbitrage(uint256,uint256,address[],address,uint256,address)": "infinite",
						"prepareLiquidation(address,address,address)": "infinite",
						"prepareSandwichAttack(uint256,uint256,address[],uint256,address)": "infinite",
						"reportProfit(address,uint256)": "infinite",
						"withdrawFunds(address,uint256)": "infinite"
					}
				},
				"methodIdentifiers": {
					"allocateFunds(address,uint256)": "189ed356",
					"moduleFunds(address)": "0386e9aa",
					"owner()": "8da5cb5b",
					"prepareArbitrage(uint256,uint256,address[],address,uint256,address)": "1b3a2970",
					"prepareLiquidation(address,address,address)": "bb7fb0b9",
					"prepareSandwichAttack(uint256,uint256,address[],uint256,address)": "f7603705",
					"reportProfit(address,uint256)": "f3079aa5",
					"withdrawFunds(address,uint256)": "c1075329"
				}
			},
			"storageLayout": {
				"storage": [
					{
						"astId": 10,
						"contract": "MasterMEV.sol:MasterMEV",
						"label": "_status",
						"offset": 0,
						"slot": "0",
						"type": "t_uint256"
					},
					{
						"astId": 484,
						"contract": "MasterMEV.sol:MasterMEV",
						"label": "moduleFunds",
						"offset": 0,
						"slot": "1",
						"type": "t_mapping(t_address,t_uint256)"
					}
				],
				"types": {
					"t_address": {
						"encoding": "inplace",
						"label": "address",
						"numberOfBytes": "20"
					},
					"t_mapping(t_address,t_uint256)": {
						"encoding": "mapping",
						"key": "t_address",
						"label": "mapping(address => uint256)",
						"numberOfBytes": "32",
						"value": "t_uint256"
					},
					"t_uint256": {
						"encoding": "inplace",
						"label": "uint256",
						"numberOfBytes": "32"
					}
				}
			},
			"userdoc": {
				"kind": "user",
				"methods": {},
				"version": 1
			}
		}
	}
}