{
	"Sandwich.sol": {
		"Sandwich": {
			"abi": [
				{
					"inputs": [
						{
							"internalType": "address",
							"name": "_router",
							"type": "address"
						}
					],
					"stateMutability": "nonpayable",
					"type": "constructor"
				},
				{
					"inputs": [
						{
							"internalType": "uint256",
							"name": "amountIn",
							"type": "uint256"
						},
						{
							"internalType": "uint256",
							"name": "amountOutMin",
							"type": "uint256"
						},
						{
							"internalType": "address[]",
							"name": "path",
							"type": "address[]"
						},
						{
							"internalType": "uint256",
							"name": "deadline",
							"type": "uint256"
						}
					],
					"name": "executeSandwichAttack",
					"outputs": [],
					"stateMutability": "nonpayable",
					"type": "function"
				},
				{
					"inputs": [],
					"name": "owner",
					"outputs": [
						{
							"internalType": "address",
							"name": "",
							"type": "address"
						}
					],
					"stateMutability": "view",
					"type": "function"
				},
				{
					"inputs": [],
					"name": "uniswapRouter",
					"outputs": [
						{
							"internalType": "contract IUniswapV2Router",
							"name": "",
							"type": "address"
						}
					],
					"stateMutability": "view",
					"type": "function"
				},
				{
					"inputs": [
						{
							"internalType": "uint256",
							"name": "amount",
							"type": "uint256"
						}
					],
					"name": "withdrawETH",
					"outputs": [],
					"stateMutability": "nonpayable",
					"type": "function"
				},
				{
					"inputs": [
						{
							"internalType": "address",
							"name": "token",
							"type": "address"
						},
						{
							"internalType": "uint256",
							"name": "amount",
							"type": "uint256"
						}
					],
					"name": "withdrawToken",
					"outputs": [],
					"stateMutability": "nonpayable",
					"type": "function"
				},
				{
					"stateMutability": "payable",
					"type": "receive"
				}
			],
			"devdoc": {
				"kind": "dev",
				"methods": {},
				"version": 1
			},
			"evm": {
				"assembly": "    /* \"Sandwich.sol\":799:2184  contract Sandwich {... */\n  mstore(0x40, 0x80)\n    /* \"Sandwich.sol\":897:1015  constructor(address _router) {... */\n  callvalue\n  dup1\n  iszero\n  tag_1\n  jumpi\n  0x00\n  dup1\n  revert\ntag_1:\n  pop\n  mload(0x40)\n  sub(codesize, bytecodeSize)\n  dup1\n  bytecodeSize\n  dup4\n  codecopy\n  dup2\n  dup2\n  add\n  0x40\n  mstore\n  dup2\n  add\n  swap1\n  tag_2\n  swap2\n  swap1\n  tag_3\n  jump\t// in\ntag_2:\n    /* \"Sandwich.sol\":970:977  _router */\n  dup1\n    /* \"Sandwich.sol\":937:950  uniswapRouter */\n  0x00\n  dup1\n    /* \"Sandwich.sol\":937:978  uniswapRouter = IUniswapV2Router(_router) */\n  0x0100\n  exp\n  dup2\n  sload\n  dup2\n  0xffffffffffffffffffffffffffffffffffffffff\n  mul\n  not\n  and\n  swap1\n  dup4\n  0xffffffffffffffffffffffffffffffffffffffff\n  and\n  mul\n  or\n  swap1\n  sstore\n  pop\n    /* \"Sandwich.sol\":997:1007  msg.sender */\n  caller\n    /* \"Sandwich.sol\":989:994  owner */\n  0x01\n  0x00\n    /* \"Sandwich.sol\":989:1007  owner = msg.sender */\n  0x0100\n  exp\n  dup2\n  sload\n  dup2\n  0xffffffffffffffffffffffffffffffffffffffff\n  mul\n  not\n  and\n  swap1\n  dup4\n  0xffffffffffffffffffffffffffffffffffffffff\n  and\n  mul\n  or\n  swap1\n  sstore\n  pop\n    /* \"Sandwich.sol\":897:1015  constructor(address _router) {... */\n  pop\n    /* \"Sandwich.sol\":799:2184  contract Sandwich {... */\n  jump(tag_6)\n    /* \"#utility.yul\":88:205   */\ntag_8:\n    /* \"#utility.yul\":197:198   */\n  0x00\n    /* \"#utility.yul\":194:195   */\n  dup1\n    /* \"#utility.yul\":187:199   */\n  revert\n    /* \"#utility.yul\":334:460   */\ntag_10:\n    /* \"#utility.yul\":371:378   */\n  0x00\n    /* \"#utility.yul\":411:453   */\n  0xffffffffffffffffffffffffffffffffffffffff\n    /* \"#utility.yul\":404:409   */\n  dup3\n    /* \"#utility.yul\":400:454   */\n  and\n    /* \"#utility.yul\":389:454   */\n  swap1\n  pop\n    /* \"#utility.yul\":334:460   */\n  swap2\n  swap1\n  pop\n  jump\t// out\n    /* \"#utility.yul\":466:562   */\ntag_11:\n    /* \"#utility.yul\":503:510   */\n  0x00\n    /* \"#utility.yul\":532:556   */\n  tag_20\n    /* \"#utility.yul\":550:555   */\n  dup3\n    /* \"#utility.yul\":532:556   */\n  tag_10\n  jump\t// in\ntag_20:\n    /* \"#utility.yul\":521:556   */\n  swap1\n  pop\n    /* \"#utility.yul\":466:562   */\n  swap2\n  swap1\n  pop\n  jump\t// out\n    /* \"#utility.yul\":568:690   */\ntag_12:\n    /* \"#utility.yul\":641:665   */\n  tag_22\n    /* \"#utility.yul\":659:664   */\n  dup2\n    /* \"#utility.yul\":641:665   */\n  tag_11\n  jump\t// in\ntag_22:\n    /* \"#utility.yul\":634:639   */\n  dup2\n    /* \"#utility.yul\":631:666   */\n  eq\n    /* \"#utility.yul\":621:684   */\n  tag_23\n  jumpi\n    /* \"#utility.yul\":680:681   */\n  0x00\n    /* \"#utility.yul\":677:678   */\n  dup1\n    /* \"#utility.yul\":670:682   */\n  revert\n    /* \"#utility.yul\":621:684   */\ntag_23:\n    /* \"#utility.yul\":568:690   */\n  pop\n  jump\t// out\n    /* \"#utility.yul\":696:839   */\ntag_13:\n    /* \"#utility.yul\":753:758   */\n  0x00\n    /* \"#utility.yul\":784:790   */\n  dup2\n    /* \"#utility.yul\":778:791   */\n  mload\n    /* \"#utility.yul\":769:791   */\n  swap1\n  pop\n    /* \"#utility.yul\":800:833   */\n  tag_25\n    /* \"#utility.yul\":827:832   */\n  dup2\n    /* \"#utility.yul\":800:833   */\n  tag_12\n  jump\t// in\ntag_25:\n    /* \"#utility.yul\":696:839   */\n  swap3\n  swap2\n  pop\n  pop\n  jump\t// out\n    /* \"#utility.yul\":845:1196   */\ntag_3:\n    /* \"#utility.yul\":915:921   */\n  0x00\n    /* \"#utility.yul\":964:966   */\n  0x20\n    /* \"#utility.yul\":952:961   */\n  dup3\n    /* \"#utility.yul\":943:950   */\n  dup5\n    /* \"#utility.yul\":939:962   */\n  sub\n    /* \"#utility.yul\":935:967   */\n  slt\n    /* \"#utility.yul\":932:1051   */\n  iszero\n  tag_27\n  jumpi\n    /* \"#utility.yul\":970:1049   */\n  tag_28\n  tag_8\n  jump\t// in\ntag_28:\n    /* \"#utility.yul\":932:1051   */\ntag_27:\n    /* \"#utility.yul\":1090:1091   */\n  0x00\n    /* \"#utility.yul\":1115:1179   */\n  tag_29\n    /* \"#utility.yul\":1171:1178   */\n  dup5\n    /* \"#utility.yul\":1162:1168   */\n  dup3\n    /* \"#utility.yul\":1151:1160   */\n  dup6\n    /* \"#utility.yul\":1147:1169   */\n  add\n    /* \"#utility.yul\":1115:1179   */\n  tag_13\n  jump\t// in\ntag_29:\n    /* \"#utility.yul\":1105:1179   */\n  swap2\n  pop\n    /* \"#utility.yul\":1061:1189   */\n  pop\n    /* \"#utility.yul\":845:1196   */\n  swap3\n  swap2\n  pop\n  pop\n  jump\t// out\n    /* \"Sandwich.sol\":799:2184  contract Sandwich {... */\ntag_6:\n  dataSize(sub_0)\n  dup1\n  dataOffset(sub_0)\n  0x00\n  codecopy\n  0x00\n  return\nstop\n\nsub_0: assembly {\n        /* \"Sandwich.sol\":799:2184  contract Sandwich {... */\n      mstore(0x40, 0x80)\n      jumpi(tag_1, lt(calldatasize, 0x04))\n      shr(0xe0, calldataload(0x00))\n      dup1\n      0x735de9f7\n      eq\n      tag_3\n      jumpi\n      dup1\n      0x8da5cb5b\n      eq\n      tag_4\n      jumpi\n      dup1\n      0x95cf1692\n      eq\n      tag_5\n      jumpi\n      dup1\n      0x9e281a98\n      eq\n      tag_6\n      jumpi\n      dup1\n      0xf14210a6\n      eq\n      tag_7\n      jumpi\n      jump(tag_2)\n    tag_1:\n      jumpi(tag_2, calldatasize)\n      stop\n    tag_2:\n      0x00\n      dup1\n      revert\n        /* \"Sandwich.sol\":824:861  IUniswapV2Router public uniswapRouter */\n    tag_3:\n      callvalue\n      dup1\n      iszero\n      tag_10\n      jumpi\n      0x00\n      dup1\n      revert\n    tag_10:\n      pop\n      tag_11\n      tag_12\n      jump\t// in\n    tag_11:\n      mload(0x40)\n      tag_13\n      swap2\n      swap1\n      tag_14\n      jump\t// in\n    tag_13:\n      mload(0x40)\n      dup1\n      swap2\n      sub\n      swap1\n      return\n        /* \"Sandwich.sol\":868:888  address public owner */\n    tag_4:\n      callvalue\n      dup1\n      iszero\n      tag_15\n      jumpi\n      0x00\n      dup1\n      revert\n    tag_15:\n      pop\n      tag_16\n      tag_17\n      jump\t// in\n    tag_16:\n      mload(0x40)\n      tag_18\n      swap2\n      swap1\n      tag_19\n      jump\t// in\n    tag_18:\n      mload(0x40)\n      dup1\n      swap2\n      sub\n      swap1\n      return\n        /* \"Sandwich.sol\":1262:1805  function executeSandwichAttack(... */\n    tag_5:\n      callvalue\n      dup1\n      iszero\n      tag_20\n      jumpi\n      0x00\n      dup1\n      revert\n    tag_20:\n      pop\n      tag_21\n      0x04\n      dup1\n      calldatasize\n      sub\n      dup2\n      add\n      swap1\n      tag_22\n      swap2\n      swap1\n      tag_23\n      jump\t// in\n    tag_22:\n      tag_24\n      jump\t// in\n    tag_21:\n      stop\n        /* \"Sandwich.sol\":1867:2019  function withdrawToken(address token, uint amount) public onlyOwner {... */\n    tag_6:\n      callvalue\n      dup1\n      iszero\n      tag_25\n      jumpi\n      0x00\n      dup1\n      revert\n    tag_25:\n      pop\n      tag_26\n      0x04\n      dup1\n      calldatasize\n      sub\n      dup2\n      add\n      swap1\n      tag_27\n      swap2\n      swap1\n      tag_28\n      jump\t// in\n    tag_27:\n      tag_29\n      jump\t// in\n    tag_26:\n      stop\n        /* \"Sandwich.sol\":2080:2181  function withdrawETH(uint amount) public onlyOwner {... */\n    tag_7:\n      callvalue\n      dup1\n      iszero\n      tag_30\n      jumpi\n      0x00\n      dup1\n      revert\n    tag_30:\n      pop\n      tag_31\n      0x04\n      dup1\n      calldatasize\n      sub\n      dup2\n      add\n      swap1\n      tag_32\n      swap2\n      swap1\n      tag_33\n      jump\t// in\n    tag_32:\n      tag_34\n      jump\t// in\n    tag_31:\n      stop\n        /* \"Sandwich.sol\":824:861  IUniswapV2Router public uniswapRouter */\n    tag_12:\n      0x00\n      dup1\n      sload\n      swap1\n      0x0100\n      exp\n      swap1\n      div\n      0xffffffffffffffffffffffffffffffffffffffff\n      and\n      dup2\n      jump\t// out\n        /* \"Sandwich.sol\":868:888  address public owner */\n    tag_17:\n      0x01\n      0x00\n      swap1\n      sload\n      swap1\n      0x0100\n      exp\n      swap1\n      div\n      0xffffffffffffffffffffffffffffffffffffffff\n      and\n      dup2\n      jump\t// out\n        /* \"Sandwich.sol\":1262:1805  function executeSandwichAttack(... */\n    tag_24:\n        /* \"Sandwich.sol\":1077:1082  owner */\n      0x01\n      0x00\n      swap1\n      sload\n      swap1\n      0x0100\n      exp\n      swap1\n      div\n      0xffffffffffffffffffffffffffffffffffffffff\n      and\n        /* \"Sandwich.sol\":1063:1082  msg.sender == owner */\n      0xffffffffffffffffffffffffffffffffffffffff\n      and\n        /* \"Sandwich.sol\":1063:1073  msg.sender */\n      caller\n        /* \"Sandwich.sol\":1063:1082  msg.sender == owner */\n      0xffffffffffffffffffffffffffffffffffffffff\n      and\n      eq\n        /* \"Sandwich.sol\":1055:1096  require(msg.sender == owner, \"Not owner\") */\n      tag_36\n      jumpi\n      mload(0x40)\n      0x08c379a000000000000000000000000000000000000000000000000000000000\n      dup2\n      mstore\n      0x04\n      add\n      tag_37\n      swap1\n      tag_38\n      jump\t// in\n    tag_37:\n      mload(0x40)\n      dup1\n      swap2\n      sub\n      swap1\n      revert\n    tag_36:\n        /* \"Sandwich.sol\":1455:1459  path */\n      dup3\n      dup3\n        /* \"Sandwich.sol\":1460:1461  0 */\n      0x00\n        /* \"Sandwich.sol\":1455:1462  path[0] */\n      dup2\n      dup2\n      lt\n      tag_40\n      jumpi\n      tag_41\n      tag_42\n      jump\t// in\n    tag_41:\n    tag_40:\n      swap1\n      pop\n      0x20\n      mul\n      add\n      0x20\n      dup2\n      add\n      swap1\n      tag_43\n      swap2\n      swap1\n      tag_44\n      jump\t// in\n    tag_43:\n        /* \"Sandwich.sol\":1448:1476  IERC20(path[0]).transferFrom */\n      0xffffffffffffffffffffffffffffffffffffffff\n      and\n      0x23b872dd\n        /* \"Sandwich.sol\":1477:1487  msg.sender */\n      caller\n        /* \"Sandwich.sol\":1497:1501  this */\n      address\n        /* \"Sandwich.sol\":1504:1512  amountIn */\n      dup9\n        /* \"Sandwich.sol\":1448:1513  IERC20(path[0]).transferFrom(msg.sender, address(this), amountIn) */\n      mload(0x40)\n      dup5\n      0xffffffff\n      and\n      0xe0\n      shl\n      dup2\n      mstore\n      0x04\n      add\n      tag_45\n      swap4\n      swap3\n      swap2\n      swap1\n      tag_46\n      jump\t// in\n    tag_45:\n      0x20\n      mload(0x40)\n      dup1\n      dup4\n      sub\n      dup2\n      0x00\n      dup8\n      gas\n      call\n      iszero\n      dup1\n      iszero\n      tag_48\n      jumpi\n      returndatasize\n      0x00\n      dup1\n      returndatacopy\n      revert(0x00, returndatasize)\n    tag_48:\n      pop\n      pop\n      pop\n      pop\n      mload(0x40)\n      returndatasize\n      not(0x1f)\n      0x1f\n      dup3\n      add\n      and\n      dup3\n      add\n      dup1\n      0x40\n      mstore\n      pop\n      dup2\n      add\n      swap1\n      tag_49\n      swap2\n      swap1\n      tag_50\n      jump\t// in\n    tag_49:\n        /* \"Sandwich.sol\":1440:1533  require(IERC20(path[0]).transferFrom(msg.sender, address(this), amountIn), \"Transfer failed\") */\n      tag_51\n      jumpi\n      mload(0x40)\n      0x08c379a000000000000000000000000000000000000000000000000000000000\n      dup2\n      mstore\n      0x04\n      add\n      tag_52\n      swap1\n      tag_53\n      jump\t// in\n    tag_52:\n      mload(0x40)\n      dup1\n      swap2\n      sub\n      swap1\n      revert\n    tag_51:\n        /* \"Sandwich.sol\":1561:1565  path */\n      dup3\n      dup3\n        /* \"Sandwich.sol\":1566:1567  0 */\n      0x00\n        /* \"Sandwich.sol\":1561:1568  path[0] */\n      dup2\n      dup2\n      lt\n      tag_54\n      jumpi\n      tag_55\n      tag_42\n      jump\t// in\n    tag_55:\n    tag_54:\n      swap1\n      pop\n      0x20\n      mul\n      add\n      0x20\n      dup2\n      add\n      swap1\n      tag_56\n      swap2\n      swap1\n      tag_44\n      jump\t// in\n    tag_56:\n        /* \"Sandwich.sol\":1554:1577  IERC20(path[0]).approve */\n      0xffffffffffffffffffffffffffffffffffffffff\n      and\n      0x095ea7b3\n        /* \"Sandwich.sol\":1586:1599  uniswapRouter */\n      0x00\n      dup1\n      sload\n      swap1\n      0x0100\n      exp\n      swap1\n      div\n      0xffffffffffffffffffffffffffffffffffffffff\n      and\n        /* \"Sandwich.sol\":1602:1610  amountIn */\n      dup8\n        /* \"Sandwich.sol\":1554:1611  IERC20(path[0]).approve(address(uniswapRouter), amountIn) */\n      mload(0x40)\n      dup4\n      0xffffffff\n      and\n      0xe0\n      shl\n      dup2\n      mstore\n      0x04\n      add\n      tag_57\n      swap3\n      swap2\n      swap1\n      tag_58\n      jump\t// in\n    tag_57:\n      0x20\n      mload(0x40)\n      dup1\n      dup4\n      sub\n      dup2\n      0x00\n      dup8\n      gas\n      call\n      iszero\n      dup1\n      iszero\n      tag_60\n      jumpi\n      returndatasize\n      0x00\n      dup1\n      returndatacopy\n      revert(0x00, returndatasize)\n    tag_60:\n      pop\n      pop\n      pop\n      pop\n      mload(0x40)\n      returndatasize\n      not(0x1f)\n      0x1f\n      dup3\n      add\n      and\n      dup3\n      add\n      dup1\n      0x40\n      mstore\n      pop\n      dup2\n      add\n      swap1\n      tag_61\n      swap2\n      swap1\n      tag_50\n      jump\t// in\n    tag_61:\n        /* \"Sandwich.sol\":1546:1630  require(IERC20(path[0]).approve(address(uniswapRouter), amountIn), \"Approve failed\") */\n      tag_62\n      jumpi\n      mload(0x40)\n      0x08c379a000000000000000000000000000000000000000000000000000000000\n      dup2\n      mstore\n      0x04\n      add\n      tag_63\n      swap1\n      tag_64\n      jump\t// in\n    tag_63:\n      mload(0x40)\n      dup1\n      swap2\n      sub\n      swap1\n      revert\n    tag_62:\n        /* \"Sandwich.sol\":1704:1717  uniswapRouter */\n      0x00\n      dup1\n      sload\n      swap1\n      0x0100\n      exp\n      swap1\n      div\n      0xffffffffffffffffffffffffffffffffffffffff\n      and\n        /* \"Sandwich.sol\":1704:1742  uniswapRouter.swapExactTokensForTokens */\n      0xffffffffffffffffffffffffffffffffffffffff\n      and\n      0x38ed1739\n        /* \"Sandwich.sol\":1743:1751  amountIn */\n      dup7\n        /* \"Sandwich.sol\":1753:1765  amountOutMin */\n      dup7\n        /* \"Sandwich.sol\":1767:1771  path */\n      dup7\n      dup7\n        /* \"Sandwich.sol\":1781:1785  this */\n      address\n        /* \"Sandwich.sol\":1788:1796  deadline */\n      dup8\n        /* \"Sandwich.sol\":1704:1797  uniswapRouter.swapExactTokensForTokens(amountIn, amountOutMin, path, address(this), deadline) */\n      mload(0x40)\n      dup8\n      0xffffffff\n      and\n      0xe0\n      shl\n      dup2\n      mstore\n      0x04\n      add\n      tag_65\n      swap7\n      swap6\n      swap5\n      swap4\n      swap3\n      swap2\n      swap1\n      tag_66\n      jump\t// in\n    tag_65:\n      0x00\n      mload(0x40)\n      dup1\n      dup4\n      sub\n      dup2\n      0x00\n      dup8\n      gas\n      call\n      iszero\n      dup1\n      iszero\n      tag_68\n      jumpi\n      returndatasize\n      0x00\n      dup1\n      returndatacopy\n      revert(0x00, returndatasize)\n    tag_68:\n      pop\n      pop\n      pop\n      pop\n      mload(0x40)\n      returndatasize\n      0x00\n      dup3\n      returndatacopy\n      returndatasize\n      not(0x1f)\n      0x1f\n      dup3\n      add\n      and\n      dup3\n      add\n      dup1\n      0x40\n      mstore\n      pop\n      dup2\n      add\n      swap1\n      tag_69\n      swap2\n      swap1\n      tag_70\n      jump\t// in\n    tag_69:\n      pop\n        /* \"Sandwich.sol\":1262:1805  function executeSandwichAttack(... */\n      pop\n      pop\n      pop\n      pop\n      pop\n      jump\t// out\n        /* \"Sandwich.sol\":1867:2019  function withdrawToken(address token, uint amount) public onlyOwner {... */\n    tag_29:\n        /* \"Sandwich.sol\":1077:1082  owner */\n      0x01\n      0x00\n      swap1\n      sload\n      swap1\n      0x0100\n      exp\n      swap1\n      div\n      0xffffffffffffffffffffffffffffffffffffffff\n      and\n        /* \"Sandwich.sol\":1063:1082  msg.sender == owner */\n      0xffffffffffffffffffffffffffffffffffffffff\n      and\n        /* \"Sandwich.sol\":1063:1073  msg.sender */\n      caller\n        /* \"Sandwich.sol\":1063:1082  msg.sender == owner */\n      0xffffffffffffffffffffffffffffffffffffffff\n      and\n      eq\n        /* \"Sandwich.sol\":1055:1096  require(msg.sender == owner, \"Not owner\") */\n      tag_72\n      jumpi\n      mload(0x40)\n      0x08c379a000000000000000000000000000000000000000000000000000000000\n      dup2\n      mstore\n      0x04\n      add\n      tag_73\n      swap1\n      tag_38\n      jump\t// in\n    tag_73:\n      mload(0x40)\n      dup1\n      swap2\n      sub\n      swap1\n      revert\n    tag_72:\n        /* \"Sandwich.sol\":1961:1966  token */\n      dup2\n        /* \"Sandwich.sol\":1954:1976  IERC20(token).transfer */\n      0xffffffffffffffffffffffffffffffffffffffff\n      and\n      0xa9059cbb\n        /* \"Sandwich.sol\":1977:1982  owner */\n      0x01\n      0x00\n      swap1\n      sload\n      swap1\n      0x0100\n      exp\n      swap1\n      div\n      0xffffffffffffffffffffffffffffffffffffffff\n      and\n        /* \"Sandwich.sol\":1984:1990  amount */\n      dup4\n        /* \"Sandwich.sol\":1954:1991  IERC20(token).transfer(owner, amount) */\n      mload(0x40)\n      dup4\n      0xffffffff\n      and\n      0xe0\n      shl\n      dup2\n      mstore\n      0x04\n      add\n      tag_75\n      swap3\n      swap2\n      swap1\n      tag_58\n      jump\t// in\n    tag_75:\n      0x20\n      mload(0x40)\n      dup1\n      dup4\n      sub\n      dup2\n      0x00\n      dup8\n      gas\n      call\n      iszero\n      dup1\n      iszero\n      tag_77\n      jumpi\n      returndatasize\n      0x00\n      dup1\n      returndatacopy\n      revert(0x00, returndatasize)\n    tag_77:\n      pop\n      pop\n      pop\n      pop\n      mload(0x40)\n      returndatasize\n      not(0x1f)\n      0x1f\n      dup3\n      add\n      and\n      dup3\n      add\n      dup1\n      0x40\n      mstore\n      pop\n      dup2\n      add\n      swap1\n      tag_78\n      swap2\n      swap1\n      tag_50\n      jump\t// in\n    tag_78:\n        /* \"Sandwich.sol\":1946:2011  require(IERC20(token).transfer(owner, amount), \"Transfer failed\") */\n      tag_79\n      jumpi\n      mload(0x40)\n      0x08c379a000000000000000000000000000000000000000000000000000000000\n      dup2\n      mstore\n      0x04\n      add\n      tag_80\n      swap1\n      tag_53\n      jump\t// in\n    tag_80:\n      mload(0x40)\n      dup1\n      swap2\n      sub\n      swap1\n      revert\n    tag_79:\n        /* \"Sandwich.sol\":1867:2019  function withdrawToken(address token, uint amount) public onlyOwner {... */\n      pop\n      pop\n      jump\t// out\n        /* \"Sandwich.sol\":2080:2181  function withdrawETH(uint amount) public onlyOwner {... */\n    tag_34:\n        /* \"Sandwich.sol\":1077:1082  owner */\n      0x01\n      0x00\n      swap1\n      sload\n      swap1\n      0x0100\n      exp\n      swap1\n      div\n      0xffffffffffffffffffffffffffffffffffffffff\n      and\n        /* \"Sandwich.sol\":1063:1082  msg.sender == owner */\n      0xffffffffffffffffffffffffffffffffffffffff\n      and\n        /* \"Sandwich.sol\":1063:1073  msg.sender */\n      caller\n        /* \"Sandwich.sol\":1063:1082  msg.sender == owner */\n      0xffffffffffffffffffffffffffffffffffffffff\n      and\n      eq\n        /* \"Sandwich.sol\":1055:1096  require(msg.sender == owner, \"Not owner\") */\n      tag_82\n      jumpi\n      mload(0x40)\n      0x08c379a000000000000000000000000000000000000000000000000000000000\n      dup2\n      mstore\n      0x04\n      add\n      tag_83\n      swap1\n      tag_38\n      jump\t// in\n    tag_83:\n      mload(0x40)\n      dup1\n      swap2\n      sub\n      swap1\n      revert\n    tag_82:\n        /* \"Sandwich.sol\":2150:2155  owner */\n      0x01\n      0x00\n      swap1\n      sload\n      swap1\n      0x0100\n      exp\n      swap1\n      div\n      0xffffffffffffffffffffffffffffffffffffffff\n      and\n        /* \"Sandwich.sol\":2142:2165  payable(owner).transfer */\n      0xffffffffffffffffffffffffffffffffffffffff\n      and\n        /* \"Sandwich.sol\":2142:2173  payable(owner).transfer(amount) */\n      0x08fc\n        /* \"Sandwich.sol\":2166:2172  amount */\n      dup3\n        /* \"Sandwich.sol\":2142:2173  payable(owner).transfer(amount) */\n      swap1\n      dup2\n      iszero\n      mul\n      swap1\n      mload(0x40)\n      0x00\n      mload(0x40)\n      dup1\n      dup4\n      sub\n      dup2\n      dup6\n      dup9\n      dup9\n      call\n      swap4\n      pop\n      pop\n      pop\n      pop\n      iszero\n      dup1\n      iszero\n      tag_86\n      jumpi\n      returndatasize\n      0x00\n      dup1\n      returndatacopy\n      revert(0x00, returndatasize)\n    tag_86:\n      pop\n        /* \"Sandwich.sol\":2080:2181  function withdrawETH(uint amount) public onlyOwner {... */\n      pop\n      jump\t// out\n        /* \"#utility.yul\":7:133   */\n    tag_87:\n        /* \"#utility.yul\":44:51   */\n      0x00\n        /* \"#utility.yul\":84:126   */\n      0xffffffffffffffffffffffffffffffffffffffff\n        /* \"#utility.yul\":77:82   */\n      dup3\n        /* \"#utility.yul\":73:127   */\n      and\n        /* \"#utility.yul\":62:127   */\n      swap1\n      pop\n        /* \"#utility.yul\":7:133   */\n      swap2\n      swap1\n      pop\n      jump\t// out\n        /* \"#utility.yul\":139:199   */\n    tag_88:\n        /* \"#utility.yul\":167:170   */\n      0x00\n        /* \"#utility.yul\":188:193   */\n      dup2\n        /* \"#utility.yul\":181:193   */\n      swap1\n      pop\n        /* \"#utility.yul\":139:199   */\n      swap2\n      swap1\n      pop\n      jump\t// out\n        /* \"#utility.yul\":205:347   */\n    tag_89:\n        /* \"#utility.yul\":255:264   */\n      0x00\n        /* \"#utility.yul\":288:341   */\n      tag_137\n        /* \"#utility.yul\":306:340   */\n      tag_138\n        /* \"#utility.yul\":315:339   */\n      tag_139\n        /* \"#utility.yul\":333:338   */\n      dup5\n        /* \"#utility.yul\":315:339   */\n      tag_87\n      jump\t// in\n    tag_139:\n        /* \"#utility.yul\":306:340   */\n      tag_88\n      jump\t// in\n    tag_138:\n        /* \"#utility.yul\":288:341   */\n      tag_87\n      jump\t// in\n    tag_137:\n        /* \"#utility.yul\":275:341   */\n      swap1\n      pop\n        /* \"#utility.yul\":205:347   */\n      swap2\n      swap1\n      pop\n      jump\t// out\n        /* \"#utility.yul\":353:479   */\n    tag_90:\n        /* \"#utility.yul\":403:412   */\n      0x00\n        /* \"#utility.yul\":436:473   */\n      tag_141\n        /* \"#utility.yul\":467:472   */\n      dup3\n        /* \"#utility.yul\":436:473   */\n      tag_89\n      jump\t// in\n    tag_141:\n        /* \"#utility.yul\":423:473   */\n      swap1\n      pop\n        /* \"#utility.yul\":353:479   */\n      swap2\n      swap1\n      pop\n      jump\t// out\n        /* \"#utility.yul\":485:634   */\n    tag_91:\n        /* \"#utility.yul\":558:567   */\n      0x00\n        /* \"#utility.yul\":591:628   */\n      tag_143\n        /* \"#utility.yul\":622:627   */\n      dup3\n        /* \"#utility.yul\":591:628   */\n      tag_90\n      jump\t// in\n    tag_143:\n        /* \"#utility.yul\":578:628   */\n      swap1\n      pop\n        /* \"#utility.yul\":485:634   */\n      swap2\n      swap1\n      pop\n      jump\t// out\n        /* \"#utility.yul\":640:817   */\n    tag_92:\n        /* \"#utility.yul\":750:810   */\n      tag_145\n        /* \"#utility.yul\":804:809   */\n      dup2\n        /* \"#utility.yul\":750:810   */\n      tag_91\n      jump\t// in\n    tag_145:\n        /* \"#utility.yul\":745:748   */\n      dup3\n        /* \"#utility.yul\":738:811   */\n      mstore\n        /* \"#utility.yul\":640:817   */\n      pop\n      pop\n      jump\t// out\n        /* \"#utility.yul\":823:1091   */\n    tag_14:\n        /* \"#utility.yul\":939:943   */\n      0x00\n        /* \"#utility.yul\":977:979   */\n      0x20\n        /* \"#utility.yul\":966:975   */\n      dup3\n        /* \"#utility.yul\":962:980   */\n      add\n        /* \"#utility.yul\":954:980   */\n      swap1\n      pop\n        /* \"#utility.yul\":990:1084   */\n      tag_147\n        /* \"#utility.yul\":1081:1082   */\n      0x00\n        /* \"#utility.yul\":1070:1079   */\n      dup4\n        /* \"#utility.yul\":1066:1083   */\n      add\n        /* \"#utility.yul\":1057:1063   */\n      dup5\n        /* \"#utility.yul\":990:1084   */\n      tag_92\n      jump\t// in\n    tag_147:\n        /* \"#utility.yul\":823:1091   */\n      swap3\n      swap2\n      pop\n      pop\n      jump\t// out\n        /* \"#utility.yul\":1097:1193   */\n    tag_93:\n        /* \"#utility.yul\":1134:1141   */\n      0x00\n        /* \"#utility.yul\":1163:1187   */\n      tag_149\n        /* \"#utility.yul\":1181:1186   */\n      dup3\n        /* \"#utility.yul\":1163:1187   */\n      tag_87\n      jump\t// in\n    tag_149:\n        /* \"#utility.yul\":1152:1187   */\n      swap1\n      pop\n        /* \"#utility.yul\":1097:1193   */\n      swap2\n      swap1\n      pop\n      jump\t// out\n        /* \"#utility.yul\":1199:1317   */\n    tag_94:\n        /* \"#utility.yul\":1286:1310   */\n      tag_151\n        /* \"#utility.yul\":1304:1309   */\n      dup2\n        /* \"#utility.yul\":1286:1310   */\n      tag_93\n      jump\t// in\n    tag_151:\n        /* \"#utility.yul\":1281:1284   */\n      dup3\n        /* \"#utility.yul\":1274:1311   */\n      mstore\n        /* \"#utility.yul\":1199:1317   */\n      pop\n      pop\n      jump\t// out\n        /* \"#utility.yul\":1323:1545   */\n    tag_19:\n        /* \"#utility.yul\":1416:1420   */\n      0x00\n        /* \"#utility.yul\":1454:1456   */\n      0x20\n        /* \"#utility.yul\":1443:1452   */\n      dup3\n        /* \"#utility.yul\":1439:1457   */\n      add\n        /* \"#utility.yul\":1431:1457   */\n      swap1\n      pop\n        /* \"#utility.yul\":1467:1538   */\n      tag_153\n        /* \"#utility.yul\":1535:1536   */\n      0x00\n        /* \"#utility.yul\":1524:1533   */\n      dup4\n        /* \"#utility.yul\":1520:1537   */\n      add\n        /* \"#utility.yul\":1511:1517   */\n      dup5\n        /* \"#utility.yul\":1467:1538   */\n      tag_94\n      jump\t// in\n    tag_153:\n        /* \"#utility.yul\":1323:1545   */\n      swap3\n      swap2\n      pop\n      pop\n      jump\t// out\n        /* \"#utility.yul\":1551:1626   */\n    tag_95:\n        /* \"#utility.yul\":1584:1590   */\n      0x00\n        /* \"#utility.yul\":1617:1619   */\n      0x40\n        /* \"#utility.yul\":1611:1620   */\n      mload\n        /* \"#utility.yul\":1601:1620   */\n      swap1\n      pop\n        /* \"#utility.yul\":1551:1626   */\n      swap1\n      jump\t// out\n        /* \"#utility.yul\":1632:1749   */\n    tag_96:\n        /* \"#utility.yul\":1741:1742   */\n      0x00\n        /* \"#utility.yul\":1738:1739   */\n      dup1\n        /* \"#utility.yul\":1731:1743   */\n      revert\n        /* \"#utility.yul\":1755:1872   */\n    tag_97:\n        /* \"#utility.yul\":1864:1865   */\n      0x00\n        /* \"#utility.yul\":1861:1862   */\n      dup1\n        /* \"#utility.yul\":1854:1866   */\n      revert\n        /* \"#utility.yul\":1878:1955   */\n    tag_98:\n        /* \"#utility.yul\":1915:1922   */\n      0x00\n        /* \"#utility.yul\":1944:1949   */\n      dup2\n        /* \"#utility.yul\":1933:1949   */\n      swap1\n      pop\n        /* \"#utility.yul\":1878:1955   */\n      swap2\n      swap1\n      pop\n      jump\t// out\n        /* \"#utility.yul\":1961:2083   */\n    tag_99:\n        /* \"#utility.yul\":2034:2058   */\n      tag_159\n        /* \"#utility.yul\":2052:2057   */\n      dup2\n        /* \"#utility.yul\":2034:2058   */\n      tag_98\n      jump\t// in\n    tag_159:\n        /* \"#utility.yul\":2027:2032   */\n      dup2\n        /* \"#utility.yul\":2024:2059   */\n      eq\n        /* \"#utility.yul\":2014:2077   */\n      tag_160\n      jumpi\n        /* \"#utility.yul\":2073:2074   */\n      0x00\n        /* \"#utility.yul\":2070:2071   */\n      dup1\n        /* \"#utility.yul\":2063:2075   */\n      revert\n        /* \"#utility.yul\":2014:2077   */\n    tag_160:\n        /* \"#utility.yul\":1961:2083   */\n      pop\n      jump\t// out\n        /* \"#utility.yul\":2089:2228   */\n    tag_100:\n        /* \"#utility.yul\":2135:2140   */\n      0x00\n        /* \"#utility.yul\":2173:2179   */\n      dup2\n        /* \"#utility.yul\":2160:2180   */\n      calldataload\n        /* \"#utility.yul\":2151:2180   */\n      swap1\n      pop\n        /* \"#utility.yul\":2189:2222   */\n      tag_162\n        /* \"#utility.yul\":2216:2221   */\n      dup2\n        /* \"#utility.yul\":2189:2222   */\n      tag_99\n      jump\t// in\n    tag_162:\n        /* \"#utility.yul\":2089:2228   */\n      swap3\n      swap2\n      pop\n      pop\n      jump\t// out\n        /* \"#utility.yul\":2234:2351   */\n    tag_101:\n        /* \"#utility.yul\":2343:2344   */\n      0x00\n        /* \"#utility.yul\":2340:2341   */\n      dup1\n        /* \"#utility.yul\":2333:2345   */\n      revert\n        /* \"#utility.yul\":2357:2474   */\n    tag_102:\n        /* \"#utility.yul\":2466:2467   */\n      0x00\n        /* \"#utility.yul\":2463:2464   */\n      dup1\n        /* \"#utility.yul\":2456:2468   */\n      revert\n        /* \"#utility.yul\":2480:2597   */\n    tag_103:\n        /* \"#utility.yul\":2589:2590   */\n      0x00\n        /* \"#utility.yul\":2586:2587   */\n      dup1\n        /* \"#utility.yul\":2579:2591   */\n      revert\n        /* \"#utility.yul\":2620:3188   */\n    tag_104:\n        /* \"#utility.yul\":2693:2701   */\n      0x00\n        /* \"#utility.yul\":2703:2709   */\n      dup1\n        /* \"#utility.yul\":2753:2756   */\n      dup4\n        /* \"#utility.yul\":2746:2750   */\n      0x1f\n        /* \"#utility.yul\":2738:2744   */\n      dup5\n        /* \"#utility.yul\":2734:2751   */\n      add\n        /* \"#utility.yul\":2730:2757   */\n      slt\n        /* \"#utility.yul\":2720:2842   */\n      tag_167\n      jumpi\n        /* \"#utility.yul\":2761:2840   */\n      tag_168\n      tag_101\n      jump\t// in\n    tag_168:\n        /* \"#utility.yul\":2720:2842   */\n    tag_167:\n        /* \"#utility.yul\":2874:2880   */\n      dup3\n        /* \"#utility.yul\":2861:2881   */\n      calldataload\n        /* \"#utility.yul\":2851:2881   */\n      swap1\n      pop\n        /* \"#utility.yul\":2904:2922   */\n      0xffffffffffffffff\n        /* \"#utility.yul\":2896:2902   */\n      dup2\n        /* \"#utility.yul\":2893:2923   */\n      gt\n        /* \"#utility.yul\":2890:3007   */\n      iszero\n      tag_169\n      jumpi\n        /* \"#utility.yul\":2926:3005   */\n      tag_170\n      tag_102\n      jump\t// in\n    tag_170:\n        /* \"#utility.yul\":2890:3007   */\n    tag_169:\n        /* \"#utility.yul\":3040:3044   */\n      0x20\n        /* \"#utility.yul\":3032:3038   */\n      dup4\n        /* \"#utility.yul\":3028:3045   */\n      add\n        /* \"#utility.yul\":3016:3045   */\n      swap2\n      pop\n        /* \"#utility.yul\":3094:3097   */\n      dup4\n        /* \"#utility.yul\":3086:3090   */\n      0x20\n        /* \"#utility.yul\":3078:3084   */\n      dup3\n        /* \"#utility.yul\":3074:3091   */\n      mul\n        /* \"#utility.yul\":3064:3072   */\n      dup4\n        /* \"#utility.yul\":3060:3092   */\n      add\n        /* \"#utility.yul\":3057:3098   */\n      gt\n        /* \"#utility.yul\":3054:3182   */\n      iszero\n      tag_171\n      jumpi\n        /* \"#utility.yul\":3101:3180   */\n      tag_172\n      tag_103\n      jump\t// in\n    tag_172:\n        /* \"#utility.yul\":3054:3182   */\n    tag_171:\n        /* \"#utility.yul\":2620:3188   */\n      swap3\n      pop\n      swap3\n      swap1\n      pop\n      jump\t// out\n        /* \"#utility.yul\":3194:4189   */\n    tag_23:\n        /* \"#utility.yul\":3307:3313   */\n      0x00\n        /* \"#utility.yul\":3315:3321   */\n      dup1\n        /* \"#utility.yul\":3323:3329   */\n      0x00\n        /* \"#utility.yul\":3331:3337   */\n      dup1\n        /* \"#utility.yul\":3339:3345   */\n      0x00\n        /* \"#utility.yul\":3388:3391   */\n      0x80\n        /* \"#utility.yul\":3376:3385   */\n      dup7\n        /* \"#utility.yul\":3367:3374   */\n      dup9\n        /* \"#utility.yul\":3363:3386   */\n      sub\n        /* \"#utility.yul\":3359:3392   */\n      slt\n        /* \"#utility.yul\":3356:3476   */\n      iszero\n      tag_174\n      jumpi\n        /* \"#utility.yul\":3395:3474   */\n      tag_175\n      tag_96\n      jump\t// in\n    tag_175:\n        /* \"#utility.yul\":3356:3476   */\n    tag_174:\n        /* \"#utility.yul\":3515:3516   */\n      0x00\n        /* \"#utility.yul\":3540:3593   */\n      tag_176\n        /* \"#utility.yul\":3585:3592   */\n      dup9\n        /* \"#utility.yul\":3576:3582   */\n      dup3\n        /* \"#utility.yul\":3565:3574   */\n      dup10\n        /* \"#utility.yul\":3561:3583   */\n      add\n        /* \"#utility.yul\":3540:3593   */\n      tag_100\n      jump\t// in\n    tag_176:\n        /* \"#utility.yul\":3530:3593   */\n      swap6\n      pop\n        /* \"#utility.yul\":3486:3603   */\n      pop\n        /* \"#utility.yul\":3642:3644   */\n      0x20\n        /* \"#utility.yul\":3668:3721   */\n      tag_177\n        /* \"#utility.yul\":3713:3720   */\n      dup9\n        /* \"#utility.yul\":3704:3710   */\n      dup3\n        /* \"#utility.yul\":3693:3702   */\n      dup10\n        /* \"#utility.yul\":3689:3711   */\n      add\n        /* \"#utility.yul\":3668:3721   */\n      tag_100\n      jump\t// in\n    tag_177:\n        /* \"#utility.yul\":3658:3721   */\n      swap5\n      pop\n        /* \"#utility.yul\":3613:3731   */\n      pop\n        /* \"#utility.yul\":3798:3800   */\n      0x40\n        /* \"#utility.yul\":3787:3796   */\n      dup7\n        /* \"#utility.yul\":3783:3801   */\n      add\n        /* \"#utility.yul\":3770:3802   */\n      calldataload\n        /* \"#utility.yul\":3829:3847   */\n      0xffffffffffffffff\n        /* \"#utility.yul\":3821:3827   */\n      dup2\n        /* \"#utility.yul\":3818:3848   */\n      gt\n        /* \"#utility.yul\":3815:3932   */\n      iszero\n      tag_178\n      jumpi\n        /* \"#utility.yul\":3851:3930   */\n      tag_179\n      tag_97\n      jump\t// in\n    tag_179:\n        /* \"#utility.yul\":3815:3932   */\n    tag_178:\n        /* \"#utility.yul\":3964:4044   */\n      tag_180\n        /* \"#utility.yul\":4036:4043   */\n      dup9\n        /* \"#utility.yul\":4027:4033   */\n      dup3\n        /* \"#utility.yul\":4016:4025   */\n      dup10\n        /* \"#utility.yul\":4012:4034   */\n      add\n        /* \"#utility.yul\":3964:4044   */\n      tag_104\n      jump\t// in\n    tag_180:\n        /* \"#utility.yul\":3946:4044   */\n      swap4\n      pop\n      swap4\n      pop\n        /* \"#utility.yul\":3741:4054   */\n      pop\n        /* \"#utility.yul\":4093:4095   */\n      0x60\n        /* \"#utility.yul\":4119:4172   */\n      tag_181\n        /* \"#utility.yul\":4164:4171   */\n      dup9\n        /* \"#utility.yul\":4155:4161   */\n      dup3\n        /* \"#utility.yul\":4144:4153   */\n      dup10\n        /* \"#utility.yul\":4140:4162   */\n      add\n        /* \"#utility.yul\":4119:4172   */\n      tag_100\n      jump\t// in\n    tag_181:\n        /* \"#utility.yul\":4109:4172   */\n      swap2\n      pop\n        /* \"#utility.yul\":4064:4182   */\n      pop\n        /* \"#utility.yul\":3194:4189   */\n      swap3\n      swap6\n      pop\n      swap3\n      swap6\n      swap1\n      swap4\n      pop\n      jump\t// out\n        /* \"#utility.yul\":4195:4317   */\n    tag_105:\n        /* \"#utility.yul\":4268:4292   */\n      tag_183\n        /* \"#utility.yul\":4286:4291   */\n      dup2\n        /* \"#utility.yul\":4268:4292   */\n      tag_93\n      jump\t// in\n    tag_183:\n        /* \"#utility.yul\":4261:4266   */\n      dup2\n        /* \"#utility.yul\":4258:4293   */\n      eq\n        /* \"#utility.yul\":4248:4311   */\n      tag_184\n      jumpi\n        /* \"#utility.yul\":4307:4308   */\n      0x00\n        /* \"#utility.yul\":4304:4305   */\n      dup1\n        /* \"#utility.yul\":4297:4309   */\n      revert\n        /* \"#utility.yul\":4248:4311   */\n    tag_184:\n        /* \"#utility.yul\":4195:4317   */\n      pop\n      jump\t// out\n        /* \"#utility.yul\":4323:4462   */\n    tag_106:\n        /* \"#utility.yul\":4369:4374   */\n      0x00\n        /* \"#utility.yul\":4407:4413   */\n      dup2\n        /* \"#utility.yul\":4394:4414   */\n      calldataload\n        /* \"#utility.yul\":4385:4414   */\n      swap1\n      pop\n        /* \"#utility.yul\":4423:4456   */\n      tag_186\n        /* \"#utility.yul\":4450:4455   */\n      dup2\n        /* \"#utility.yul\":4423:4456   */\n      tag_105\n      jump\t// in\n    tag_186:\n        /* \"#utility.yul\":4323:4462   */\n      swap3\n      swap2\n      pop\n      pop\n      jump\t// out\n        /* \"#utility.yul\":4468:4942   */\n    tag_28:\n        /* \"#utility.yul\":4536:4542   */\n      0x00\n        /* \"#utility.yul\":4544:4550   */\n      dup1\n        /* \"#utility.yul\":4593:4595   */\n      0x40\n        /* \"#utility.yul\":4581:4590   */\n      dup4\n        /* \"#utility.yul\":4572:4579   */\n      dup6\n        /* \"#utility.yul\":4568:4591   */\n      sub\n        /* \"#utility.yul\":4564:4596   */\n      slt\n        /* \"#utility.yul\":4561:4680   */\n      iszero\n      tag_188\n      jumpi\n        /* \"#utility.yul\":4599:4678   */\n      tag_189\n      tag_96\n      jump\t// in\n    tag_189:\n        /* \"#utility.yul\":4561:4680   */\n    tag_188:\n        /* \"#utility.yul\":4719:4720   */\n      0x00\n        /* \"#utility.yul\":4744:4797   */\n      tag_190\n        /* \"#utility.yul\":4789:4796   */\n      dup6\n        /* \"#utility.yul\":4780:4786   */\n      dup3\n        /* \"#utility.yul\":4769:4778   */\n      dup7\n        /* \"#utility.yul\":4765:4787   */\n      add\n        /* \"#utility.yul\":4744:4797   */\n      tag_106\n      jump\t// in\n    tag_190:\n        /* \"#utility.yul\":4734:4797   */\n      swap3\n      pop\n        /* \"#utility.yul\":4690:4807   */\n      pop\n        /* \"#utility.yul\":4846:4848   */\n      0x20\n        /* \"#utility.yul\":4872:4925   */\n      tag_191\n        /* \"#utility.yul\":4917:4924   */\n      dup6\n        /* \"#utility.yul\":4908:4914   */\n      dup3\n        /* \"#utility.yul\":4897:4906   */\n      dup7\n        /* \"#utility.yul\":4893:4915   */\n      add\n        /* \"#utility.yul\":4872:4925   */\n      tag_100\n      jump\t// in\n    tag_191:\n        /* \"#utility.yul\":4862:4925   */\n      swap2\n      pop\n        /* \"#utility.yul\":4817:4935   */\n      pop\n        /* \"#utility.yul\":4468:4942   */\n      swap3\n      pop\n      swap3\n      swap1\n      pop\n      jump\t// out\n        /* \"#utility.yul\":4948:5277   */\n    tag_33:\n        /* \"#utility.yul\":5007:5013   */\n      0x00\n        /* \"#utility.yul\":5056:5058   */\n      0x20\n        /* \"#utility.yul\":5044:5053   */\n      dup3\n        /* \"#utility.yul\":5035:5042   */\n      dup5\n        /* \"#utility.yul\":5031:5054   */\n      sub\n        /* \"#utility.yul\":5027:5059   */\n      slt\n        /* \"#utility.yul\":5024:5143   */\n      iszero\n      tag_193\n      jumpi\n        /* \"#utility.yul\":5062:5141   */\n      tag_194\n      tag_96\n      jump\t// in\n    tag_194:\n        /* \"#utility.yul\":5024:5143   */\n    tag_193:\n        /* \"#utility.yul\":5182:5183   */\n      0x00\n        /* \"#utility.yul\":5207:5260   */\n      tag_195\n        /* \"#utility.yul\":5252:5259   */\n      dup5\n        /* \"#utility.yul\":5243:5249   */\n      dup3\n        /* \"#utility.yul\":5232:5241   */\n      dup6\n        /* \"#utility.yul\":5228:5250   */\n      add\n        /* \"#utility.yul\":5207:5260   */\n      tag_100\n      jump\t// in\n    tag_195:\n        /* \"#utility.yul\":5197:5260   */\n      swap2\n      pop\n        /* \"#utility.yul\":5153:5270   */\n      pop\n        /* \"#utility.yul\":4948:5277   */\n      swap3\n      swap2\n      pop\n      pop\n      jump\t// out\n        /* \"#utility.yul\":5283:5452   */\n    tag_107:\n        /* \"#utility.yul\":5367:5378   */\n      0x00\n        /* \"#utility.yul\":5401:5407   */\n      dup3\n        /* \"#utility.yul\":5396:5399   */\n      dup3\n        /* \"#utility.yul\":5389:5408   */\n      mstore\n        /* \"#utility.yul\":5441:5445   */\n      0x20\n        /* \"#utility.yul\":5436:5439   */\n      dup3\n        /* \"#utility.yul\":5432:5446   */\n      add\n        /* \"#utility.yul\":5417:5446   */\n      swap1\n      pop\n        /* \"#utility.yul\":5283:5452   */\n      swap3\n      swap2\n      pop\n      pop\n      jump\t// out\n        /* \"#utility.yul\":5458:5617   */\n    tag_108:\n        /* \"#utility.yul\":5598:5609   */\n      0x4e6f74206f776e65720000000000000000000000000000000000000000000000\n        /* \"#utility.yul\":5594:5595   */\n      0x00\n        /* \"#utility.yul\":5586:5592   */\n      dup3\n        /* \"#utility.yul\":5582:5596   */\n      add\n        /* \"#utility.yul\":5575:5610   */\n      mstore\n        /* \"#utility.yul\":5458:5617   */\n      pop\n      jump\t// out\n        /* \"#utility.yul\":5623:5988   */\n    tag_109:\n        /* \"#utility.yul\":5765:5768   */\n      0x00\n        /* \"#utility.yul\":5786:5852   */\n      tag_199\n        /* \"#utility.yul\":5850:5851   */\n      0x09\n        /* \"#utility.yul\":5845:5848   */\n      dup4\n        /* \"#utility.yul\":5786:5852   */\n      tag_107\n      jump\t// in\n    tag_199:\n        /* \"#utility.yul\":5779:5852   */\n      swap2\n      pop\n        /* \"#utility.yul\":5861:5954   */\n      tag_200\n        /* \"#utility.yul\":5950:5953   */\n      dup3\n        /* \"#utility.yul\":5861:5954   */\n      tag_108\n      jump\t// in\n    tag_200:\n        /* \"#utility.yul\":5979:5981   */\n      0x20\n        /* \"#utility.yul\":5974:5977   */\n      dup3\n        /* \"#utility.yul\":5970:5982   */\n      add\n        /* \"#utility.yul\":5963:5982   */\n      swap1\n      pop\n        /* \"#utility.yul\":5623:5988   */\n      swap2\n      swap1\n      pop\n      jump\t// out\n        /* \"#utility.yul\":5994:6413   */\n    tag_38:\n        /* \"#utility.yul\":6160:6164   */\n      0x00\n        /* \"#utility.yul\":6198:6200   */\n      0x20\n        /* \"#utility.yul\":6187:6196   */\n      dup3\n        /* \"#utility.yul\":6183:6201   */\n      add\n        /* \"#utility.yul\":6175:6201   */\n      swap1\n      pop\n        /* \"#utility.yul\":6247:6256   */\n      dup2\n        /* \"#utility.yul\":6241:6245   */\n      dup2\n        /* \"#utility.yul\":6237:6257   */\n      sub\n        /* \"#utility.yul\":6233:6234   */\n      0x00\n        /* \"#utility.yul\":6222:6231   */\n      dup4\n        /* \"#utility.yul\":6218:6235   */\n      add\n        /* \"#utility.yul\":6211:6258   */\n      mstore\n        /* \"#utility.yul\":6275:6406   */\n      tag_202\n        /* \"#utility.yul\":6401:6405   */\n      dup2\n        /* \"#utility.yul\":6275:6406   */\n      tag_109\n      jump\t// in\n    tag_202:\n        /* \"#utility.yul\":6267:6406   */\n      swap1\n      pop\n        /* \"#utility.yul\":5994:6413   */\n      swap2\n      swap1\n      pop\n      jump\t// out\n        /* \"#utility.yul\":6419:6599   */\n    tag_42:\n        /* \"#utility.yul\":6467:6544   */\n      0x4e487b7100000000000000000000000000000000000000000000000000000000\n        /* \"#utility.yul\":6464:6465   */\n      0x00\n        /* \"#utility.yul\":6457:6545   */\n      mstore\n        /* \"#utility.yul\":6564:6568   */\n      0x32\n        /* \"#utility.yul\":6561:6562   */\n      0x04\n        /* \"#utility.yul\":6554:6569   */\n      mstore\n        /* \"#utility.yul\":6588:6592   */\n      0x24\n        /* \"#utility.yul\":6585:6586   */\n      0x00\n        /* \"#utility.yul\":6578:6593   */\n      revert\n        /* \"#utility.yul\":6605:6934   */\n    tag_44:\n        /* \"#utility.yul\":6664:6670   */\n      0x00\n        /* \"#utility.yul\":6713:6715   */\n      0x20\n        /* \"#utility.yul\":6701:6710   */\n      dup3\n        /* \"#utility.yul\":6692:6699   */\n      dup5\n        /* \"#utility.yul\":6688:6711   */\n      sub\n        /* \"#utility.yul\":6684:6716   */\n      slt\n        /* \"#utility.yul\":6681:6800   */\n      iszero\n      tag_205\n      jumpi\n        /* \"#utility.yul\":6719:6798   */\n      tag_206\n      tag_96\n      jump\t// in\n    tag_206:\n        /* \"#utility.yul\":6681:6800   */\n    tag_205:\n        /* \"#utility.yul\":6839:6840   */\n      0x00\n        /* \"#utility.yul\":6864:6917   */\n      tag_207\n        /* \"#utility.yul\":6909:6916   */\n      dup5\n        /* \"#utility.yul\":6900:6906   */\n      dup3\n        /* \"#utility.yul\":6889:6898   */\n      dup6\n        /* \"#utility.yul\":6885:6907   */\n      add\n        /* \"#utility.yul\":6864:6917   */\n      tag_106\n      jump\t// in\n    tag_207:\n        /* \"#utility.yul\":6854:6917   */\n      swap2\n      pop\n        /* \"#utility.yul\":6810:6927   */\n      pop\n        /* \"#utility.yul\":6605:6934   */\n      swap3\n      swap2\n      pop\n      pop\n      jump\t// out\n        /* \"#utility.yul\":6940:7058   */\n    tag_110:\n        /* \"#utility.yul\":7027:7051   */\n      tag_209\n        /* \"#utility.yul\":7045:7050   */\n      dup2\n        /* \"#utility.yul\":7027:7051   */\n      tag_98\n      jump\t// in\n    tag_209:\n        /* \"#utility.yul\":7022:7025   */\n      dup3\n        /* \"#utility.yul\":7015:7052   */\n      mstore\n        /* \"#utility.yul\":6940:7058   */\n      pop\n      pop\n      jump\t// out\n        /* \"#utility.yul\":7064:7506   */\n    tag_46:\n        /* \"#utility.yul\":7213:7217   */\n      0x00\n        /* \"#utility.yul\":7251:7253   */\n      0x60\n        /* \"#utility.yul\":7240:7249   */\n      dup3\n        /* \"#utility.yul\":7236:7254   */\n      add\n        /* \"#utility.yul\":7228:7254   */\n      swap1\n      pop\n        /* \"#utility.yul\":7264:7335   */\n      tag_211\n        /* \"#utility.yul\":7332:7333   */\n      0x00\n        /* \"#utility.yul\":7321:7330   */\n      dup4\n        /* \"#utility.yul\":7317:7334   */\n      add\n        /* \"#utility.yul\":7308:7314   */\n      dup7\n        /* \"#utility.yul\":7264:7335   */\n      tag_94\n      jump\t// in\n    tag_211:\n        /* \"#utility.yul\":7345:7417   */\n      tag_212\n        /* \"#utility.yul\":7413:7415   */\n      0x20\n        /* \"#utility.yul\":7402:7411   */\n      dup4\n        /* \"#utility.yul\":7398:7416   */\n      add\n        /* \"#utility.yul\":7389:7395   */\n      dup6\n        /* \"#utility.yul\":7345:7417   */\n      tag_94\n      jump\t// in\n    tag_212:\n        /* \"#utility.yul\":7427:7499   */\n      tag_213\n        /* \"#utility.yul\":7495:7497   */\n      0x40\n        /* \"#utility.yul\":7484:7493   */\n      dup4\n        /* \"#utility.yul\":7480:7498   */\n      add\n        /* \"#utility.yul\":7471:7477   */\n      dup5\n        /* \"#utility.yul\":7427:7499   */\n      tag_110\n      jump\t// in\n    tag_213:\n        /* \"#utility.yul\":7064:7506   */\n      swap5\n      swap4\n      pop\n      pop\n      pop\n      pop\n      jump\t// out\n        /* \"#utility.yul\":7512:7602   */\n    tag_111:\n        /* \"#utility.yul\":7546:7553   */\n      0x00\n        /* \"#utility.yul\":7589:7594   */\n      dup2\n        /* \"#utility.yul\":7582:7595   */\n      iszero\n        /* \"#utility.yul\":7575:7596   */\n      iszero\n        /* \"#utility.yul\":7564:7596   */\n      swap1\n      pop\n        /* \"#utility.yul\":7512:7602   */\n      swap2\n      swap1\n      pop\n      jump\t// out\n        /* \"#utility.yul\":7608:7724   */\n    tag_112:\n        /* \"#utility.yul\":7678:7699   */\n      tag_216\n        /* \"#utility.yul\":7693:7698   */\n      dup2\n        /* \"#utility.yul\":7678:7699   */\n      tag_111\n      jump\t// in\n    tag_216:\n        /* \"#utility.yul\":7671:7676   */\n      dup2\n        /* \"#utility.yul\":7668:7700   */\n      eq\n        /* \"#utility.yul\":7658:7718   */\n      tag_217\n      jumpi\n        /* \"#utility.yul\":7714:7715   */\n      0x00\n        /* \"#utility.yul\":7711:7712   */\n      dup1\n        /* \"#utility.yul\":7704:7716   */\n      revert\n        /* \"#utility.yul\":7658:7718   */\n    tag_217:\n        /* \"#utility.yul\":7608:7724   */\n      pop\n      jump\t// out\n        /* \"#utility.yul\":7730:7867   */\n    tag_113:\n        /* \"#utility.yul\":7784:7789   */\n      0x00\n        /* \"#utility.yul\":7815:7821   */\n      dup2\n        /* \"#utility.yul\":7809:7822   */\n      mload\n        /* \"#utility.yul\":7800:7822   */\n      swap1\n      pop\n        /* \"#utility.yul\":7831:7861   */\n      tag_219\n        /* \"#utility.yul\":7855:7860   */\n      dup2\n        /* \"#utility.yul\":7831:7861   */\n      tag_112\n      jump\t// in\n    tag_219:\n        /* \"#utility.yul\":7730:7867   */\n      swap3\n      swap2\n      pop\n      pop\n      jump\t// out\n        /* \"#utility.yul\":7873:8218   */\n    tag_50:\n        /* \"#utility.yul\":7940:7946   */\n      0x00\n        /* \"#utility.yul\":7989:7991   */\n      0x20\n        /* \"#utility.yul\":7977:7986   */\n      dup3\n        /* \"#utility.yul\":7968:7975   */\n      dup5\n        /* \"#utility.yul\":7964:7987   */\n      sub\n        /* \"#utility.yul\":7960:7992   */\n      slt\n        /* \"#utility.yul\":7957:8076   */\n      iszero\n      tag_221\n      jumpi\n        /* \"#utility.yul\":7995:8074   */\n      tag_222\n      tag_96\n      jump\t// in\n    tag_222:\n        /* \"#utility.yul\":7957:8076   */\n    tag_221:\n        /* \"#utility.yul\":8115:8116   */\n      0x00\n        /* \"#utility.yul\":8140:8201   */\n      tag_223\n        /* \"#utility.yul\":8193:8200   */\n      dup5\n        /* \"#utility.yul\":8184:8190   */\n      dup3\n        /* \"#utility.yul\":8173:8182   */\n      dup6\n        /* \"#utility.yul\":8169:8191   */\n      add\n        /* \"#utility.yul\":8140:8201   */\n      tag_113\n      jump\t// in\n    tag_223:\n        /* \"#utility.yul\":8130:8201   */\n      swap2\n      pop\n        /* \"#utility.yul\":8086:8211   */\n      pop\n        /* \"#utility.yul\":7873:8218   */\n      swap3\n      swap2\n      pop\n      pop\n      jump\t// out\n        /* \"#utility.yul\":8224:8389   */\n    tag_114:\n        /* \"#utility.yul\":8364:8381   */\n      0x5472616e73666572206661696c65640000000000000000000000000000000000\n        /* \"#utility.yul\":8360:8361   */\n      0x00\n        /* \"#utility.yul\":8352:8358   */\n      dup3\n        /* \"#utility.yul\":8348:8362   */\n      add\n        /* \"#utility.yul\":8341:8382   */\n      mstore\n        /* \"#utility.yul\":8224:8389   */\n      pop\n      jump\t// out\n        /* \"#utility.yul\":8395:8761   */\n    tag_115:\n        /* \"#utility.yul\":8537:8540   */\n      0x00\n        /* \"#utility.yul\":8558:8625   */\n      tag_226\n        /* \"#utility.yul\":8622:8624   */\n      0x0f\n        /* \"#utility.yul\":8617:8620   */\n      dup4\n        /* \"#utility.yul\":8558:8625   */\n      tag_107\n      jump\t// in\n    tag_226:\n        /* \"#utility.yul\":8551:8625   */\n      swap2\n      pop\n        /* \"#utility.yul\":8634:8727   */\n      tag_227\n        /* \"#utility.yul\":8723:8726   */\n      dup3\n        /* \"#utility.yul\":8634:8727   */\n      tag_114\n      jump\t// in\n    tag_227:\n        /* \"#utility.yul\":8752:8754   */\n      0x20\n        /* \"#utility.yul\":8747:8750   */\n      dup3\n        /* \"#utility.yul\":8743:8755   */\n      add\n        /* \"#utility.yul\":8736:8755   */\n      swap1\n      pop\n        /* \"#utility.yul\":8395:8761   */\n      swap2\n      swap1\n      pop\n      jump\t// out\n        /* \"#utility.yul\":8767:9186   */\n    tag_53:\n        /* \"#utility.yul\":8933:8937   */\n      0x00\n        /* \"#utility.yul\":8971:8973   */\n      0x20\n        /* \"#utility.yul\":8960:8969   */\n      dup3\n        /* \"#utility.yul\":8956:8974   */\n      add\n        /* \"#utility.yul\":8948:8974   */\n      swap1\n      pop\n        /* \"#utility.yul\":9020:9029   */\n      dup2\n        /* \"#utility.yul\":9014:9018   */\n      dup2\n        /* \"#utility.yul\":9010:9030   */\n      sub\n        /* \"#utility.yul\":9006:9007   */\n      0x00\n        /* \"#utility.yul\":8995:9004   */\n      dup4\n        /* \"#utility.yul\":8991:9008   */\n      add\n        /* \"#utility.yul\":8984:9031   */\n      mstore\n        /* \"#utility.yul\":9048:9179   */\n      tag_229\n        /* \"#utility.yul\":9174:9178   */\n      dup2\n        /* \"#utility.yul\":9048:9179   */\n      tag_115\n      jump\t// in\n    tag_229:\n        /* \"#utility.yul\":9040:9179   */\n      swap1\n      pop\n        /* \"#utility.yul\":8767:9186   */\n      swap2\n      swap1\n      pop\n      jump\t// out\n        /* \"#utility.yul\":9192:9524   */\n    tag_58:\n        /* \"#utility.yul\":9313:9317   */\n      0x00\n        /* \"#utility.yul\":9351:9353   */\n      0x40\n        /* \"#utility.yul\":9340:9349   */\n      dup3\n        /* \"#utility.yul\":9336:9354   */\n      add\n        /* \"#utility.yul\":9328:9354   */\n      swap1\n      pop\n        /* \"#utility.yul\":9364:9435   */\n      tag_231\n        /* \"#utility.yul\":9432:9433   */\n      0x00\n        /* \"#utility.yul\":9421:9430   */\n      dup4\n        /* \"#utility.yul\":9417:9434   */\n      add\n        /* \"#utility.yul\":9408:9414   */\n      dup6\n        /* \"#utility.yul\":9364:9435   */\n      tag_94\n      jump\t// in\n    tag_231:\n        /* \"#utility.yul\":9445:9517   */\n      tag_232\n        /* \"#utility.yul\":9513:9515   */\n      0x20\n        /* \"#utility.yul\":9502:9511   */\n      dup4\n        /* \"#utility.yul\":9498:9516   */\n      add\n        /* \"#utility.yul\":9489:9495   */\n      dup5\n        /* \"#utility.yul\":9445:9517   */\n      tag_110\n      jump\t// in\n    tag_232:\n        /* \"#utility.yul\":9192:9524   */\n      swap4\n      swap3\n      pop\n      pop\n      pop\n      jump\t// out\n        /* \"#utility.yul\":9530:9694   */\n    tag_116:\n        /* \"#utility.yul\":9670:9686   */\n      0x417070726f7665206661696c6564000000000000000000000000000000000000\n        /* \"#utility.yul\":9666:9667   */\n      0x00\n        /* \"#utility.yul\":9658:9664   */\n      dup3\n        /* \"#utility.yul\":9654:9668   */\n      add\n        /* \"#utility.yul\":9647:9687   */\n      mstore\n        /* \"#utility.yul\":9530:9694   */\n      pop\n      jump\t// out\n        /* \"#utility.yul\":9700:10066   */\n    tag_117:\n        /* \"#utility.yul\":9842:9845   */\n      0x00\n        /* \"#utility.yul\":9863:9930   */\n      tag_235\n        /* \"#utility.yul\":9927:9929   */\n      0x0e\n        /* \"#utility.yul\":9922:9925   */\n      dup4\n        /* \"#utility.yul\":9863:9930   */\n      tag_107\n      jump\t// in\n    tag_235:\n        /* \"#utility.yul\":9856:9930   */\n      swap2\n      pop\n        /* \"#utility.yul\":9939:10032   */\n      tag_236\n        /* \"#utility.yul\":10028:10031   */\n      dup3\n        /* \"#utility.yul\":9939:10032   */\n      tag_116\n      jump\t// in\n    tag_236:\n        /* \"#utility.yul\":10057:10059   */\n      0x20\n        /* \"#utility.yul\":10052:10055   */\n      dup3\n        /* \"#utility.yul\":10048:10060   */\n      add\n        /* \"#utility.yul\":10041:10060   */\n      swap1\n      pop\n        /* \"#utility.yul\":9700:10066   */\n      swap2\n      swap1\n      pop\n      jump\t// out\n        /* \"#utility.yul\":10072:10491   */\n    tag_64:\n        /* \"#utility.yul\":10238:10242   */\n      0x00\n        /* \"#utility.yul\":10276:10278   */\n      0x20\n        /* \"#utility.yul\":10265:10274   */\n      dup3\n        /* \"#utility.yul\":10261:10279   */\n      add\n        /* \"#utility.yul\":10253:10279   */\n      swap1\n      pop\n        /* \"#utility.yul\":10325:10334   */\n      dup2\n        /* \"#utility.yul\":10319:10323   */\n      dup2\n        /* \"#utility.yul\":10315:10335   */\n      sub\n        /* \"#utility.yul\":10311:10312   */\n      0x00\n        /* \"#utility.yul\":10300:10309   */\n      dup4\n        /* \"#utility.yul\":10296:10313   */\n      add\n        /* \"#utility.yul\":10289:10336   */\n      mstore\n        /* \"#utility.yul\":10353:10484   */\n      tag_238\n        /* \"#utility.yul\":10479:10483   */\n      dup2\n        /* \"#utility.yul\":10353:10484   */\n      tag_117\n      jump\t// in\n    tag_238:\n        /* \"#utility.yul\":10345:10484   */\n      swap1\n      pop\n        /* \"#utility.yul\":10072:10491   */\n      swap2\n      swap1\n      pop\n      jump\t// out\n        /* \"#utility.yul\":10497:10681   */\n    tag_118:\n        /* \"#utility.yul\":10596:10607   */\n      0x00\n        /* \"#utility.yul\":10630:10636   */\n      dup3\n        /* \"#utility.yul\":10625:10628   */\n      dup3\n        /* \"#utility.yul\":10618:10637   */\n      mstore\n        /* \"#utility.yul\":10670:10674   */\n      0x20\n        /* \"#utility.yul\":10665:10668   */\n      dup3\n        /* \"#utility.yul\":10661:10675   */\n      add\n        /* \"#utility.yul\":10646:10675   */\n      swap1\n      pop\n        /* \"#utility.yul\":10497:10681   */\n      swap3\n      swap2\n      pop\n      pop\n      jump\t// out\n        /* \"#utility.yul\":10687:10789   */\n    tag_119:\n        /* \"#utility.yul\":10756:10760   */\n      0x00\n        /* \"#utility.yul\":10779:10782   */\n      dup2\n        /* \"#utility.yul\":10771:10782   */\n      swap1\n      pop\n        /* \"#utility.yul\":10687:10789   */\n      swap2\n      swap1\n      pop\n      jump\t// out\n        /* \"#utility.yul\":10795:10903   */\n    tag_120:\n        /* \"#utility.yul\":10872:10896   */\n      tag_242\n        /* \"#utility.yul\":10890:10895   */\n      dup2\n        /* \"#utility.yul\":10872:10896   */\n      tag_93\n      jump\t// in\n    tag_242:\n        /* \"#utility.yul\":10867:10870   */\n      dup3\n        /* \"#utility.yul\":10860:10897   */\n      mstore\n        /* \"#utility.yul\":10795:10903   */\n      pop\n      pop\n      jump\t// out\n        /* \"#utility.yul\":10909:11088   */\n    tag_121:\n        /* \"#utility.yul\":10978:10988   */\n      0x00\n        /* \"#utility.yul\":10999:11045   */\n      tag_244\n        /* \"#utility.yul\":11041:11044   */\n      dup4\n        /* \"#utility.yul\":11033:11039   */\n      dup4\n        /* \"#utility.yul\":10999:11045   */\n      tag_120\n      jump\t// in\n    tag_244:\n        /* \"#utility.yul\":11077:11081   */\n      0x20\n        /* \"#utility.yul\":11072:11075   */\n      dup4\n        /* \"#utility.yul\":11068:11082   */\n      add\n        /* \"#utility.yul\":11054:11082   */\n      swap1\n      pop\n        /* \"#utility.yul\":10909:11088   */\n      swap3\n      swap2\n      pop\n      pop\n      jump\t// out\n        /* \"#utility.yul\":11094:11216   */\n    tag_122:\n        /* \"#utility.yul\":11146:11151   */\n      0x00\n        /* \"#utility.yul\":11171:11210   */\n      tag_246\n        /* \"#utility.yul\":11206:11208   */\n      0x20\n        /* \"#utility.yul\":11201:11204   */\n      dup5\n        /* \"#utility.yul\":11197:11209   */\n      add\n        /* \"#utility.yul\":11192:11195   */\n      dup5\n        /* \"#utility.yul\":11171:11210   */\n      tag_106\n      jump\t// in\n    tag_246:\n        /* \"#utility.yul\":11162:11210   */\n      swap1\n      pop\n        /* \"#utility.yul\":11094:11216   */\n      swap3\n      swap2\n      pop\n      pop\n      jump\t// out\n        /* \"#utility.yul\":11222:11337   */\n    tag_123:\n        /* \"#utility.yul\":11294:11298   */\n      0x00\n        /* \"#utility.yul\":11326:11330   */\n      0x20\n        /* \"#utility.yul\":11321:11324   */\n      dup3\n        /* \"#utility.yul\":11317:11331   */\n      add\n        /* \"#utility.yul\":11309:11331   */\n      swap1\n      pop\n        /* \"#utility.yul\":11222:11337   */\n      swap2\n      swap1\n      pop\n      jump\t// out\n        /* \"#utility.yul\":11373:12072   */\n    tag_124:\n        /* \"#utility.yul\":11502:11505   */\n      0x00\n        /* \"#utility.yul\":11525:11611   */\n      tag_249\n        /* \"#utility.yul\":11604:11610   */\n      dup4\n        /* \"#utility.yul\":11599:11602   */\n      dup6\n        /* \"#utility.yul\":11525:11611   */\n      tag_118\n      jump\t// in\n    tag_249:\n        /* \"#utility.yul\":11518:11611   */\n      swap4\n      pop\n        /* \"#utility.yul\":11635:11693   */\n      tag_250\n        /* \"#utility.yul\":11687:11692   */\n      dup3\n        /* \"#utility.yul\":11635:11693   */\n      tag_119\n      jump\t// in\n    tag_250:\n        /* \"#utility.yul\":11716:11723   */\n      dup1\n        /* \"#utility.yul\":11747:11748   */\n      0x00\n        /* \"#utility.yul\":11732:12047   */\n    tag_251:\n        /* \"#utility.yul\":11757:11763   */\n      dup6\n        /* \"#utility.yul\":11754:11755   */\n      dup2\n        /* \"#utility.yul\":11751:11764   */\n      lt\n        /* \"#utility.yul\":11732:12047   */\n      iszero\n      tag_253\n      jumpi\n        /* \"#utility.yul\":11827:11869   */\n      tag_254\n        /* \"#utility.yul\":11862:11868   */\n      dup3\n        /* \"#utility.yul\":11853:11860   */\n      dup5\n        /* \"#utility.yul\":11827:11869   */\n      tag_122\n      jump\t// in\n    tag_254:\n        /* \"#utility.yul\":11889:11952   */\n      tag_255\n        /* \"#utility.yul\":11948:11951   */\n      dup9\n        /* \"#utility.yul\":11933:11946   */\n      dup3\n        /* \"#utility.yul\":11889:11952   */\n      tag_121\n      jump\t// in\n    tag_255:\n        /* \"#utility.yul\":11882:11952   */\n      swap8\n      pop\n        /* \"#utility.yul\":11975:12037   */\n      tag_256\n        /* \"#utility.yul\":12030:12036   */\n      dup4\n        /* \"#utility.yul\":11975:12037   */\n      tag_123\n      jump\t// in\n    tag_256:\n        /* \"#utility.yul\":11965:12037   */\n      swap3\n      pop\n        /* \"#utility.yul\":11792:12047   */\n      pop\n        /* \"#utility.yul\":11779:11780   */\n      0x01\n        /* \"#utility.yul\":11776:11777   */\n      dup2\n        /* \"#utility.yul\":11772:11781   */\n      add\n        /* \"#utility.yul\":11767:11781   */\n      swap1\n      pop\n        /* \"#utility.yul\":11732:12047   */\n      jump(tag_251)\n    tag_253:\n        /* \"#utility.yul\":11736:11750   */\n      pop\n        /* \"#utility.yul\":12063:12066   */\n      dup6\n        /* \"#utility.yul\":12056:12066   */\n      swap3\n      pop\n        /* \"#utility.yul\":11507:12072   */\n      pop\n      pop\n        /* \"#utility.yul\":11373:12072   */\n      swap4\n      swap3\n      pop\n      pop\n      pop\n      jump\t// out\n        /* \"#utility.yul\":12078:12913   */\n    tag_66:\n        /* \"#utility.yul\":12343:12347   */\n      0x00\n        /* \"#utility.yul\":12381:12384   */\n      0xa0\n        /* \"#utility.yul\":12370:12379   */\n      dup3\n        /* \"#utility.yul\":12366:12385   */\n      add\n        /* \"#utility.yul\":12358:12385   */\n      swap1\n      pop\n        /* \"#utility.yul\":12395:12466   */\n      tag_258\n        /* \"#utility.yul\":12463:12464   */\n      0x00\n        /* \"#utility.yul\":12452:12461   */\n      dup4\n        /* \"#utility.yul\":12448:12465   */\n      add\n        /* \"#utility.yul\":12439:12445   */\n      dup10\n        /* \"#utility.yul\":12395:12466   */\n      tag_110\n      jump\t// in\n    tag_258:\n        /* \"#utility.yul\":12476:12548   */\n      tag_259\n        /* \"#utility.yul\":12544:12546   */\n      0x20\n        /* \"#utility.yul\":12533:12542   */\n      dup4\n        /* \"#utility.yul\":12529:12547   */\n      add\n        /* \"#utility.yul\":12520:12526   */\n      dup9\n        /* \"#utility.yul\":12476:12548   */\n      tag_110\n      jump\t// in\n    tag_259:\n        /* \"#utility.yul\":12595:12604   */\n      dup2\n        /* \"#utility.yul\":12589:12593   */\n      dup2\n        /* \"#utility.yul\":12585:12605   */\n      sub\n        /* \"#utility.yul\":12580:12582   */\n      0x40\n        /* \"#utility.yul\":12569:12578   */\n      dup4\n        /* \"#utility.yul\":12565:12583   */\n      add\n        /* \"#utility.yul\":12558:12606   */\n      mstore\n        /* \"#utility.yul\":12623:12741   */\n      tag_260\n        /* \"#utility.yul\":12736:12740   */\n      dup2\n        /* \"#utility.yul\":12727:12733   */\n      dup7\n        /* \"#utility.yul\":12719:12725   */\n      dup9\n        /* \"#utility.yul\":12623:12741   */\n      tag_124\n      jump\t// in\n    tag_260:\n        /* \"#utility.yul\":12615:12741   */\n      swap1\n      pop\n        /* \"#utility.yul\":12751:12823   */\n      tag_261\n        /* \"#utility.yul\":12819:12821   */\n      0x60\n        /* \"#utility.yul\":12808:12817   */\n      dup4\n        /* \"#utility.yul\":12804:12822   */\n      add\n        /* \"#utility.yul\":12795:12801   */\n      dup6\n        /* \"#utility.yul\":12751:12823   */\n      tag_94\n      jump\t// in\n    tag_261:\n        /* \"#utility.yul\":12833:12906   */\n      tag_262\n        /* \"#utility.yul\":12901:12904   */\n      0x80\n        /* \"#utility.yul\":12890:12899   */\n      dup4\n        /* \"#utility.yul\":12886:12905   */\n      add\n        /* \"#utility.yul\":12877:12883   */\n      dup5\n        /* \"#utility.yul\":12833:12906   */\n      tag_110\n      jump\t// in\n    tag_262:\n        /* \"#utility.yul\":12078:12913   */\n      swap8\n      swap7\n      pop\n      pop\n      pop\n      pop\n      pop\n      pop\n      pop\n      jump\t// out\n        /* \"#utility.yul\":12919:13021   */\n    tag_125:\n        /* \"#utility.yul\":12960:12966   */\n      0x00\n        /* \"#utility.yul\":13011:13013   */\n      0x1f\n        /* \"#utility.yul\":13007:13014   */\n      not\n        /* \"#utility.yul\":13002:13004   */\n      0x1f\n        /* \"#utility.yul\":12995:13000   */\n      dup4\n        /* \"#utility.yul\":12991:13005   */\n      add\n        /* \"#utility.yul\":12987:13015   */\n      and\n        /* \"#utility.yul\":12977:13015   */\n      swap1\n      pop\n        /* \"#utility.yul\":12919:13021   */\n      swap2\n      swap1\n      pop\n      jump\t// out\n        /* \"#utility.yul\":13027:13207   */\n    tag_126:\n        /* \"#utility.yul\":13075:13152   */\n      0x4e487b7100000000000000000000000000000000000000000000000000000000\n        /* \"#utility.yul\":13072:13073   */\n      0x00\n        /* \"#utility.yul\":13065:13153   */\n      mstore\n        /* \"#utility.yul\":13172:13176   */\n      0x41\n        /* \"#utility.yul\":13169:13170   */\n      0x04\n        /* \"#utility.yul\":13162:13177   */\n      mstore\n        /* \"#utility.yul\":13196:13200   */\n      0x24\n        /* \"#utility.yul\":13193:13194   */\n      0x00\n        /* \"#utility.yul\":13186:13201   */\n      revert\n        /* \"#utility.yul\":13213:13494   */\n    tag_127:\n        /* \"#utility.yul\":13296:13323   */\n      tag_266\n        /* \"#utility.yul\":13318:13322   */\n      dup3\n        /* \"#utility.yul\":13296:13323   */\n      tag_125\n      jump\t// in\n    tag_266:\n        /* \"#utility.yul\":13288:13294   */\n      dup2\n        /* \"#utility.yul\":13284:13324   */\n      add\n        /* \"#utility.yul\":13426:13432   */\n      dup2\n        /* \"#utility.yul\":13414:13424   */\n      dup2\n        /* \"#utility.yul\":13411:13433   */\n      lt\n        /* \"#utility.yul\":13390:13408   */\n      0xffffffffffffffff\n        /* \"#utility.yul\":13378:13388   */\n      dup3\n        /* \"#utility.yul\":13375:13409   */\n      gt\n        /* \"#utility.yul\":13372:13434   */\n      or\n        /* \"#utility.yul\":13369:13457   */\n      iszero\n      tag_267\n      jumpi\n        /* \"#utility.yul\":13437:13455   */\n      tag_268\n      tag_126\n      jump\t// in\n    tag_268:\n        /* \"#utility.yul\":13369:13457   */\n    tag_267:\n        /* \"#utility.yul\":13477:13487   */\n      dup1\n        /* \"#utility.yul\":13473:13475   */\n      0x40\n        /* \"#utility.yul\":13466:13488   */\n      mstore\n        /* \"#utility.yul\":13256:13494   */\n      pop\n        /* \"#utility.yul\":13213:13494   */\n      pop\n      pop\n      jump\t// out\n        /* \"#utility.yul\":13500:13629   */\n    tag_128:\n        /* \"#utility.yul\":13534:13540   */\n      0x00\n        /* \"#utility.yul\":13561:13581   */\n      tag_270\n      tag_95\n      jump\t// in\n    tag_270:\n        /* \"#utility.yul\":13551:13581   */\n      swap1\n      pop\n        /* \"#utility.yul\":13590:13623   */\n      tag_271\n        /* \"#utility.yul\":13618:13622   */\n      dup3\n        /* \"#utility.yul\":13610:13616   */\n      dup3\n        /* \"#utility.yul\":13590:13623   */\n      tag_127\n      jump\t// in\n    tag_271:\n        /* \"#utility.yul\":13500:13629   */\n      swap2\n      swap1\n      pop\n      jump\t// out\n        /* \"#utility.yul\":13635:13946   */\n    tag_129:\n        /* \"#utility.yul\":13712:13716   */\n      0x00\n        /* \"#utility.yul\":13802:13820   */\n      0xffffffffffffffff\n        /* \"#utility.yul\":13794:13800   */\n      dup3\n        /* \"#utility.yul\":13791:13821   */\n      gt\n        /* \"#utility.yul\":13788:13844   */\n      iszero\n      tag_273\n      jumpi\n        /* \"#utility.yul\":13824:13842   */\n      tag_274\n      tag_126\n      jump\t// in\n    tag_274:\n        /* \"#utility.yul\":13788:13844   */\n    tag_273:\n        /* \"#utility.yul\":13874:13878   */\n      0x20\n        /* \"#utility.yul\":13866:13872   */\n      dup3\n        /* \"#utility.yul\":13862:13879   */\n      mul\n        /* \"#utility.yul\":13854:13879   */\n      swap1\n      pop\n        /* \"#utility.yul\":13934:13938   */\n      0x20\n        /* \"#utility.yul\":13928:13932   */\n      dup2\n        /* \"#utility.yul\":13924:13939   */\n      add\n        /* \"#utility.yul\":13916:13939   */\n      swap1\n      pop\n        /* \"#utility.yul\":13635:13946   */\n      swap2\n      swap1\n      pop\n      jump\t// out\n        /* \"#utility.yul\":13952:14095   */\n    tag_130:\n        /* \"#utility.yul\":14009:14014   */\n      0x00\n        /* \"#utility.yul\":14040:14046   */\n      dup2\n        /* \"#utility.yul\":14034:14047   */\n      mload\n        /* \"#utility.yul\":14025:14047   */\n      swap1\n      pop\n        /* \"#utility.yul\":14056:14089   */\n      tag_276\n        /* \"#utility.yul\":14083:14088   */\n      dup2\n        /* \"#utility.yul\":14056:14089   */\n      tag_99\n      jump\t// in\n    tag_276:\n        /* \"#utility.yul\":13952:14095   */\n      swap3\n      swap2\n      pop\n      pop\n      jump\t// out\n        /* \"#utility.yul\":14118:14850   */\n    tag_131:\n        /* \"#utility.yul\":14225:14230   */\n      0x00\n        /* \"#utility.yul\":14250:14331   */\n      tag_278\n        /* \"#utility.yul\":14266:14330   */\n      tag_279\n        /* \"#utility.yul\":14323:14329   */\n      dup5\n        /* \"#utility.yul\":14266:14330   */\n      tag_129\n      jump\t// in\n    tag_279:\n        /* \"#utility.yul\":14250:14331   */\n      tag_128\n      jump\t// in\n    tag_278:\n        /* \"#utility.yul\":14241:14331   */\n      swap1\n      pop\n        /* \"#utility.yul\":14351:14356   */\n      dup1\n        /* \"#utility.yul\":14380:14386   */\n      dup4\n        /* \"#utility.yul\":14373:14378   */\n      dup3\n        /* \"#utility.yul\":14366:14387   */\n      mstore\n        /* \"#utility.yul\":14414:14418   */\n      0x20\n        /* \"#utility.yul\":14407:14412   */\n      dup3\n        /* \"#utility.yul\":14403:14419   */\n      add\n        /* \"#utility.yul\":14396:14419   */\n      swap1\n      pop\n        /* \"#utility.yul\":14467:14471   */\n      0x20\n        /* \"#utility.yul\":14459:14465   */\n      dup5\n        /* \"#utility.yul\":14455:14472   */\n      mul\n        /* \"#utility.yul\":14447:14453   */\n      dup4\n        /* \"#utility.yul\":14443:14473   */\n      add\n        /* \"#utility.yul\":14496:14499   */\n      dup6\n        /* \"#utility.yul\":14488:14494   */\n      dup2\n        /* \"#utility.yul\":14485:14500   */\n      gt\n        /* \"#utility.yul\":14482:14604   */\n      iszero\n      tag_280\n      jumpi\n        /* \"#utility.yul\":14515:14594   */\n      tag_281\n      tag_103\n      jump\t// in\n    tag_281:\n        /* \"#utility.yul\":14482:14604   */\n    tag_280:\n        /* \"#utility.yul\":14630:14636   */\n      dup4\n        /* \"#utility.yul\":14613:14844   */\n    tag_282:\n        /* \"#utility.yul\":14647:14653   */\n      dup2\n        /* \"#utility.yul\":14642:14645   */\n      dup2\n        /* \"#utility.yul\":14639:14654   */\n      lt\n        /* \"#utility.yul\":14613:14844   */\n      iszero\n      tag_284\n      jumpi\n        /* \"#utility.yul\":14722:14725   */\n      dup1\n        /* \"#utility.yul\":14751:14799   */\n      tag_285\n        /* \"#utility.yul\":14795:14798   */\n      dup9\n        /* \"#utility.yul\":14783:14793   */\n      dup3\n        /* \"#utility.yul\":14751:14799   */\n      tag_130\n      jump\t// in\n    tag_285:\n        /* \"#utility.yul\":14746:14749   */\n      dup5\n        /* \"#utility.yul\":14739:14800   */\n      mstore\n        /* \"#utility.yul\":14829:14833   */\n      0x20\n        /* \"#utility.yul\":14824:14827   */\n      dup5\n        /* \"#utility.yul\":14820:14834   */\n      add\n        /* \"#utility.yul\":14813:14834   */\n      swap4\n      pop\n        /* \"#utility.yul\":14689:14844   */\n      pop\n        /* \"#utility.yul\":14673:14677   */\n      0x20\n        /* \"#utility.yul\":14668:14671   */\n      dup2\n        /* \"#utility.yul\":14664:14678   */\n      add\n        /* \"#utility.yul\":14657:14678   */\n      swap1\n      pop\n        /* \"#utility.yul\":14613:14844   */\n      jump(tag_282)\n    tag_284:\n        /* \"#utility.yul\":14617:14638   */\n      pop\n        /* \"#utility.yul\":14231:14850   */\n      pop\n      pop\n        /* \"#utility.yul\":14118:14850   */\n      swap4\n      swap3\n      pop\n      pop\n      pop\n      jump\t// out\n        /* \"#utility.yul\":14873:15258   */\n    tag_132:\n        /* \"#utility.yul\":14955:14960   */\n      0x00\n        /* \"#utility.yul\":15004:15007   */\n      dup3\n        /* \"#utility.yul\":14997:15001   */\n      0x1f\n        /* \"#utility.yul\":14989:14995   */\n      dup4\n        /* \"#utility.yul\":14985:15002   */\n      add\n        /* \"#utility.yul\":14981:15008   */\n      slt\n        /* \"#utility.yul\":14971:15093   */\n      tag_287\n      jumpi\n        /* \"#utility.yul\":15012:15091   */\n      tag_288\n      tag_101\n      jump\t// in\n    tag_288:\n        /* \"#utility.yul\":14971:15093   */\n    tag_287:\n        /* \"#utility.yul\":15122:15128   */\n      dup2\n        /* \"#utility.yul\":15116:15129   */\n      mload\n        /* \"#utility.yul\":15147:15252   */\n      tag_289\n        /* \"#utility.yul\":15248:15251   */\n      dup5\n        /* \"#utility.yul\":15240:15246   */\n      dup3\n        /* \"#utility.yul\":15233:15237   */\n      0x20\n        /* \"#utility.yul\":15225:15231   */\n      dup7\n        /* \"#utility.yul\":15221:15238   */\n      add\n        /* \"#utility.yul\":15147:15252   */\n      tag_131\n      jump\t// in\n    tag_289:\n        /* \"#utility.yul\":15138:15252   */\n      swap2\n      pop\n        /* \"#utility.yul\":14961:15258   */\n      pop\n        /* \"#utility.yul\":14873:15258   */\n      swap3\n      swap2\n      pop\n      pop\n      jump\t// out\n        /* \"#utility.yul\":15264:15818   */\n    tag_70:\n        /* \"#utility.yul\":15359:15365   */\n      0x00\n        /* \"#utility.yul\":15408:15410   */\n      0x20\n        /* \"#utility.yul\":15396:15405   */\n      dup3\n        /* \"#utility.yul\":15387:15394   */\n      dup5\n        /* \"#utility.yul\":15383:15406   */\n      sub\n        /* \"#utility.yul\":15379:15411   */\n      slt\n        /* \"#utility.yul\":15376:15495   */\n      iszero\n      tag_291\n      jumpi\n        /* \"#utility.yul\":15414:15493   */\n      tag_292\n      tag_96\n      jump\t// in\n    tag_292:\n        /* \"#utility.yul\":15376:15495   */\n    tag_291:\n        /* \"#utility.yul\":15555:15556   */\n      0x00\n        /* \"#utility.yul\":15544:15553   */\n      dup3\n        /* \"#utility.yul\":15540:15557   */\n      add\n        /* \"#utility.yul\":15534:15558   */\n      mload\n        /* \"#utility.yul\":15585:15603   */\n      0xffffffffffffffff\n        /* \"#utility.yul\":15577:15583   */\n      dup2\n        /* \"#utility.yul\":15574:15604   */\n      gt\n        /* \"#utility.yul\":15571:15688   */\n      iszero\n      tag_293\n      jumpi\n        /* \"#utility.yul\":15607:15686   */\n      tag_294\n      tag_97\n      jump\t// in\n    tag_294:\n        /* \"#utility.yul\":15571:15688   */\n    tag_293:\n        /* \"#utility.yul\":15712:15801   */\n      tag_295\n        /* \"#utility.yul\":15793:15800   */\n      dup5\n        /* \"#utility.yul\":15784:15790   */\n      dup3\n        /* \"#utility.yul\":15773:15782   */\n      dup6\n        /* \"#utility.yul\":15769:15791   */\n      add\n        /* \"#utility.yul\":15712:15801   */\n      tag_132\n      jump\t// in\n    tag_295:\n        /* \"#utility.yul\":15702:15801   */\n      swap2\n      pop\n        /* \"#utility.yul\":15505:15811   */\n      pop\n        /* \"#utility.yul\":15264:15818   */\n      swap3\n      swap2\n      pop\n      pop\n      jump\t// out\n\n    auxdata: 0xa26469706673582212208985671810fa6539e7eb0ea15c63b2bf594423f7637913693f5cb331b86e902564736f6c634300081a0033\n}\n",
				"bytecode": {
					"linkReferences": {},
					"object": "608060405234801561000f575f80fd5b5060405161101e38038061101e83398181016040528101906100319190610114565b805f806101000a81548173ffffffffffffffffffffffffffffffffffffffff021916908373ffffffffffffffffffffffffffffffffffffffff1602179055503360015f6101000a81548173ffffffffffffffffffffffffffffffffffffffff021916908373ffffffffffffffffffffffffffffffffffffffff1602179055505061013f565b5f80fd5b5f73ffffffffffffffffffffffffffffffffffffffff82169050919050565b5f6100e3826100ba565b9050919050565b6100f3816100d9565b81146100fd575f80fd5b50565b5f8151905061010e816100ea565b92915050565b5f60208284031215610129576101286100b6565b5b5f61013684828501610100565b91505092915050565b610ed28061014c5f395ff3fe60806040526004361061004d575f3560e01c8063735de9f7146100585780638da5cb5b1461008257806395cf1692146100ac5780639e281a98146100d4578063f14210a6146100fc57610054565b3661005457005b5f80fd5b348015610063575f80fd5b5061006c610124565b604051610079919061076a565b60405180910390f35b34801561008d575f80fd5b50610096610147565b6040516100a391906107a3565b60405180910390f35b3480156100b7575f80fd5b506100d260048036038101906100cd9190610861565b61016c565b005b3480156100df575f80fd5b506100fa60048036038101906100f5919061090f565b61048b565b005b348015610107575f80fd5b50610122600480360381019061011d919061094d565b6105f9565b005b5f8054906101000a900473ffffffffffffffffffffffffffffffffffffffff1681565b60015f9054906101000a900473ffffffffffffffffffffffffffffffffffffffff1681565b60015f9054906101000a900473ffffffffffffffffffffffffffffffffffffffff1673ffffffffffffffffffffffffffffffffffffffff163373ffffffffffffffffffffffffffffffffffffffff16146101fb576040517f08c379a00000000000000000000000000000000000000000000000000000000081526004016101f2906109d2565b60405180910390fd5b82825f81811061020e5761020d6109f0565b5b90506020020160208101906102239190610a1d565b73ffffffffffffffffffffffffffffffffffffffff166323b872dd3330886040518463ffffffff1660e01b815260040161025f93929190610a57565b6020604051808303815f875af115801561027b573d5f803e3d5ffd5b505050506040513d601f19601f8201168201806040525081019061029f9190610ac1565b6102de576040517f08c379a00000000000000000000000000000000000000000000000000000000081526004016102d590610b36565b60405180910390fd5b82825f8181106102f1576102f06109f0565b5b90506020020160208101906103069190610a1d565b73ffffffffffffffffffffffffffffffffffffffff1663095ea7b35f8054906101000a900473ffffffffffffffffffffffffffffffffffffffff16876040518363ffffffff1660e01b815260040161035f929190610b54565b6020604051808303815f875af115801561037b573d5f803e3d5ffd5b505050506040513d601f19601f8201168201806040525081019061039f9190610ac1565b6103de576040517f08c379a00000000000000000000000000000000000000000000000000000000081526004016103d590610bc5565b60405180910390fd5b5f8054906101000a900473ffffffffffffffffffffffffffffffffffffffff1673ffffffffffffffffffffffffffffffffffffffff166338ed17398686868630876040518763ffffffff1660e01b815260040161044096959493929190610c9f565b5f604051808303815f875af115801561045b573d5f803e3d5ffd5b505050506040513d5f823e3d601f19601f820116820180604052508101906104839190610e55565b505050505050565b60015f9054906101000a900473ffffffffffffffffffffffffffffffffffffffff1673ffffffffffffffffffffffffffffffffffffffff163373ffffffffffffffffffffffffffffffffffffffff161461051a576040517f08c379a0000000000000000000000000000000000000000000000000000000008152600401610511906109d2565b60405180910390fd5b8173ffffffffffffffffffffffffffffffffffffffff1663a9059cbb60015f9054906101000a900473ffffffffffffffffffffffffffffffffffffffff16836040518363ffffffff1660e01b8152600401610576929190610b54565b6020604051808303815f875af1158015610592573d5f803e3d5ffd5b505050506040513d601f19601f820116820180604052508101906105b69190610ac1565b6105f5576040517f08c379a00000000000000000000000000000000000000000000000000000000081526004016105ec90610b36565b60405180910390fd5b5050565b60015f9054906101000a900473ffffffffffffffffffffffffffffffffffffffff1673ffffffffffffffffffffffffffffffffffffffff163373ffffffffffffffffffffffffffffffffffffffff1614610688576040517f08c379a000000000000000000000000000000000000000000000000000000000815260040161067f906109d2565b60405180910390fd5b60015f9054906101000a900473ffffffffffffffffffffffffffffffffffffffff1673ffffffffffffffffffffffffffffffffffffffff166108fc8290811502906040515f60405180830381858888f193505050501580156106ec573d5f803e3d5ffd5b5050565b5f73ffffffffffffffffffffffffffffffffffffffff82169050919050565b5f819050919050565b5f61073261072d610728846106f0565b61070f565b6106f0565b9050919050565b5f61074382610718565b9050919050565b5f61075482610739565b9050919050565b6107648161074a565b82525050565b5f60208201905061077d5f83018461075b565b92915050565b5f61078d826106f0565b9050919050565b61079d81610783565b82525050565b5f6020820190506107b65f830184610794565b92915050565b5f604051905090565b5f80fd5b5f80fd5b5f819050919050565b6107df816107cd565b81146107e9575f80fd5b50565b5f813590506107fa816107d6565b92915050565b5f80fd5b5f80fd5b5f80fd5b5f8083601f84011261082157610820610800565b5b8235905067ffffffffffffffff81111561083e5761083d610804565b5b60208301915083602082028301111561085a57610859610808565b5b9250929050565b5f805f805f6080868803121561087a576108796107c5565b5b5f610887888289016107ec565b9550506020610898888289016107ec565b945050604086013567ffffffffffffffff8111156108b9576108b86107c9565b5b6108c58882890161080c565b935093505060606108d8888289016107ec565b9150509295509295909350565b6108ee81610783565b81146108f8575f80fd5b50565b5f81359050610909816108e5565b92915050565b5f8060408385031215610925576109246107c5565b5b5f610932858286016108fb565b9250506020610943858286016107ec565b9150509250929050565b5f60208284031215610962576109616107c5565b5b5f61096f848285016107ec565b91505092915050565b5f82825260208201905092915050565b7f4e6f74206f776e657200000000000000000000000000000000000000000000005f82015250565b5f6109bc600983610978565b91506109c782610988565b602082019050919050565b5f6020820190508181035f8301526109e9816109b0565b9050919050565b7f4e487b71000000000000000000000000000000000000000000000000000000005f52603260045260245ffd5b5f60208284031215610a3257610a316107c5565b5b5f610a3f848285016108fb565b91505092915050565b610a51816107cd565b82525050565b5f606082019050610a6a5f830186610794565b610a776020830185610794565b610a846040830184610a48565b949350505050565b5f8115159050919050565b610aa081610a8c565b8114610aaa575f80fd5b50565b5f81519050610abb81610a97565b92915050565b5f60208284031215610ad657610ad56107c5565b5b5f610ae384828501610aad565b91505092915050565b7f5472616e73666572206661696c656400000000000000000000000000000000005f82015250565b5f610b20600f83610978565b9150610b2b82610aec565b602082019050919050565b5f6020820190508181035f830152610b4d81610b14565b9050919050565b5f604082019050610b675f830185610794565b610b746020830184610a48565b9392505050565b7f417070726f7665206661696c65640000000000000000000000000000000000005f82015250565b5f610baf600e83610978565b9150610bba82610b7b565b602082019050919050565b5f6020820190508181035f830152610bdc81610ba3565b9050919050565b5f82825260208201905092915050565b5f819050919050565b610c0581610783565b82525050565b5f610c168383610bfc565b60208301905092915050565b5f610c3060208401846108fb565b905092915050565b5f602082019050919050565b5f610c4f8385610be3565b9350610c5a82610bf3565b805f5b85811015610c9257610c6f8284610c22565b610c798882610c0b565b9750610c8483610c38565b925050600181019050610c5d565b5085925050509392505050565b5f60a082019050610cb25f830189610a48565b610cbf6020830188610a48565b8181036040830152610cd2818688610c44565b9050610ce16060830185610794565b610cee6080830184610a48565b979650505050505050565b5f601f19601f8301169050919050565b7f4e487b71000000000000000000000000000000000000000000000000000000005f52604160045260245ffd5b610d3f82610cf9565b810181811067ffffffffffffffff82111715610d5e57610d5d610d09565b5b80604052505050565b5f610d706107bc565b9050610d7c8282610d36565b919050565b5f67ffffffffffffffff821115610d9b57610d9a610d09565b5b602082029050602081019050919050565b5f81519050610dba816107d6565b92915050565b5f610dd2610dcd84610d81565b610d67565b90508083825260208201905060208402830185811115610df557610df4610808565b5b835b81811015610e1e5780610e0a8882610dac565b845260208401935050602081019050610df7565b5050509392505050565b5f82601f830112610e3c57610e3b610800565b5b8151610e4c848260208601610dc0565b91505092915050565b5f60208284031215610e6a57610e696107c5565b5b5f82015167ffffffffffffffff811115610e8757610e866107c9565b5b610e9384828501610e28565b9150509291505056fea26469706673582212208985671810fa6539e7eb0ea15c63b2bf594423f7637913693f5cb331b86e902564736f6c634300081a0033",
					"opcodes": "PUSH1 0x80 PUSH1 0x40 MSTORE CALLVALUE DUP1 ISZERO PUSH2 0xF JUMPI PUSH0 DUP1 REVERT JUMPDEST POP PUSH1 0x40 MLOAD PUSH2 0x101E CODESIZE SUB DUP1 PUSH2 0x101E DUP4 CODECOPY DUP2 DUP2 ADD PUSH1 0x40 MSTORE DUP2 ADD SWAP1 PUSH2 0x31 SWAP2 SWAP1 PUSH2 0x114 JUMP JUMPDEST DUP1 PUSH0 DUP1 PUSH2 0x100 EXP DUP2 SLOAD DUP2 PUSH20 0xFFFFFFFFFFFFFFFFFFFFFFFFFFFFFFFFFFFFFFFF MUL NOT AND SWAP1 DUP4 PUSH20 0xFFFFFFFFFFFFFFFFFFFFFFFFFFFFFFFFFFFFFFFF AND MUL OR SWAP1 SSTORE POP CALLER PUSH1 0x1 PUSH0 PUSH2 0x100 EXP DUP2 SLOAD DUP2 PUSH20 0xFFFFFFFFFFFFFFFFFFFFFFFFFFFFFFFFFFFFFFFF MUL NOT AND SWAP1 DUP4 PUSH20 0xFFFFFFFFFFFFFFFFFFFFFFFFFFFFFFFFFFFFFFFF AND MUL OR SWAP1 SSTORE POP POP PUSH2 0x13F JUMP JUMPDEST PUSH0 DUP1 REVERT JUMPDEST PUSH0 PUSH20 0xFFFFFFFFFFFFFFFFFFFFFFFFFFFFFFFFFFFFFFFF DUP3 AND SWAP1 POP SWAP2 SWAP1 POP JUMP JUMPDEST PUSH0 PUSH2 0xE3 DUP3 PUSH2 0xBA JUMP JUMPDEST SWAP1 POP SWAP2 SWAP1 POP JUMP JUMPDEST PUSH2 0xF3 DUP2 PUSH2 0xD9 JUMP JUMPDEST DUP2 EQ PUSH2 0xFD JUMPI PUSH0 DUP1 REVERT JUMPDEST POP JUMP JUMPDEST PUSH0 DUP2 MLOAD SWAP1 POP PUSH2 0x10E DUP2 PUSH2 0xEA JUMP JUMPDEST SWAP3 SWAP2 POP POP JUMP JUMPDEST PUSH0 PUSH1 0x20 DUP3 DUP5 SUB SLT ISZERO PUSH2 0x129 JUMPI PUSH2 0x128 PUSH2 0xB6 JUMP JUMPDEST JUMPDEST PUSH0 PUSH2 0x136 DUP5 DUP3 DUP6 ADD PUSH2 0x100 JUMP JUMPDEST SWAP2 POP POP SWAP3 SWAP2 POP POP JUMP JUMPDEST PUSH2 0xED2 DUP1 PUSH2 0x14C PUSH0 CODECOPY PUSH0 RETURN INVALID PUSH1 0x80 PUSH1 0x40 MSTORE PUSH1 0x4 CALLDATASIZE LT PUSH2 0x4D JUMPI PUSH0 CALLDATALOAD PUSH1 0xE0 SHR DUP1 PUSH4 0x735DE9F7 EQ PUSH2 0x58 JUMPI DUP1 PUSH4 0x8DA5CB5B EQ PUSH2 0x82 JUMPI DUP1 PUSH4 0x95CF1692 EQ PUSH2 0xAC JUMPI DUP1 PUSH4 0x9E281A98 EQ PUSH2 0xD4 JUMPI DUP1 PUSH4 0xF14210A6 EQ PUSH2 0xFC JUMPI PUSH2 0x54 JUMP JUMPDEST CALLDATASIZE PUSH2 0x54 JUMPI STOP JUMPDEST PUSH0 DUP1 REVERT JUMPDEST CALLVALUE DUP1 ISZERO PUSH2 0x63 JUMPI PUSH0 DUP1 REVERT JUMPDEST POP PUSH2 0x6C PUSH2 0x124 JUMP JUMPDEST PUSH1 0x40 MLOAD PUSH2 0x79 SWAP2 SWAP1 PUSH2 0x76A JUMP JUMPDEST PUSH1 0x40 MLOAD DUP1 SWAP2 SUB SWAP1 RETURN JUMPDEST CALLVALUE DUP1 ISZERO PUSH2 0x8D JUMPI PUSH0 DUP1 REVERT JUMPDEST POP PUSH2 0x96 PUSH2 0x147 JUMP JUMPDEST PUSH1 0x40 MLOAD PUSH2 0xA3 SWAP2 SWAP1 PUSH2 0x7A3 JUMP JUMPDEST PUSH1 0x40 MLOAD DUP1 SWAP2 SUB SWAP1 RETURN JUMPDEST CALLVALUE DUP1 ISZERO PUSH2 0xB7 JUMPI PUSH0 DUP1 REVERT JUMPDEST POP PUSH2 0xD2 PUSH1 0x4 DUP1 CALLDATASIZE SUB DUP2 ADD SWAP1 PUSH2 0xCD SWAP2 SWAP1 PUSH2 0x861 JUMP JUMPDEST PUSH2 0x16C JUMP JUMPDEST STOP JUMPDEST CALLVALUE DUP1 ISZERO PUSH2 0xDF JUMPI PUSH0 DUP1 REVERT JUMPDEST POP PUSH2 0xFA PUSH1 0x4 DUP1 CALLDATASIZE SUB DUP2 ADD SWAP1 PUSH2 0xF5 SWAP2 SWAP1 PUSH2 0x90F JUMP JUMPDEST PUSH2 0x48B JUMP JUMPDEST STOP JUMPDEST CALLVALUE DUP1 ISZERO PUSH2 0x107 JUMPI PUSH0 DUP1 REVERT JUMPDEST POP PUSH2 0x122 PUSH1 0x4 DUP1 CALLDATASIZE SUB DUP2 ADD SWAP1 PUSH2 0x11D SWAP2 SWAP1 PUSH2 0x94D JUMP JUMPDEST PUSH2 0x5F9 JUMP JUMPDEST STOP JUMPDEST PUSH0 DUP1 SLOAD SWAP1 PUSH2 0x100 EXP SWAP1 DIV PUSH20 0xFFFFFFFFFFFFFFFFFFFFFFFFFFFFFFFFFFFFFFFF AND DUP2 JUMP JUMPDEST PUSH1 0x1 PUSH0 SWAP1 SLOAD SWAP1 PUSH2 0x100 EXP SWAP1 DIV PUSH20 0xFFFFFFFFFFFFFFFFFFFFFFFFFFFFFFFFFFFFFFFF AND DUP2 JUMP JUMPDEST PUSH1 0x1 PUSH0 SWAP1 SLOAD SWAP1 PUSH2 0x100 EXP SWAP1 DIV PUSH20 0xFFFFFFFFFFFFFFFFFFFFFFFFFFFFFFFFFFFFFFFF AND PUSH20 0xFFFFFFFFFFFFFFFFFFFFFFFFFFFFFFFFFFFFFFFF AND CALLER PUSH20 0xFFFFFFFFFFFFFFFFFFFFFFFFFFFFFFFFFFFFFFFF AND EQ PUSH2 0x1FB JUMPI PUSH1 0x40 MLOAD PUSH32 0x8C379A000000000000000000000000000000000000000000000000000000000 DUP2 MSTORE PUSH1 0x4 ADD PUSH2 0x1F2 SWAP1 PUSH2 0x9D2 JUMP JUMPDEST PUSH1 0x40 MLOAD DUP1 SWAP2 SUB SWAP1 REVERT JUMPDEST DUP3 DUP3 PUSH0 DUP2 DUP2 LT PUSH2 0x20E JUMPI PUSH2 0x20D PUSH2 0x9F0 JUMP JUMPDEST JUMPDEST SWAP1 POP PUSH1 0x20 MUL ADD PUSH1 0x20 DUP2 ADD SWAP1 PUSH2 0x223 SWAP2 SWAP1 PUSH2 0xA1D JUMP JUMPDEST PUSH20 0xFFFFFFFFFFFFFFFFFFFFFFFFFFFFFFFFFFFFFFFF AND PUSH4 0x23B872DD CALLER ADDRESS DUP9 PUSH1 0x40 MLOAD DUP5 PUSH4 0xFFFFFFFF AND PUSH1 0xE0 SHL DUP2 MSTORE PUSH1 0x4 ADD PUSH2 0x25F SWAP4 SWAP3 SWAP2 SWAP1 PUSH2 0xA57 JUMP JUMPDEST PUSH1 0x20 PUSH1 0x40 MLOAD DUP1 DUP4 SUB DUP2 PUSH0 DUP8 GAS CALL ISZERO DUP1 ISZERO PUSH2 0x27B JUMPI RETURNDATASIZE PUSH0 DUP1 RETURNDATACOPY RETURNDATASIZE PUSH0 REVERT JUMPDEST POP POP POP POP PUSH1 0x40 MLOAD RETURNDATASIZE PUSH1 0x1F NOT PUSH1 0x1F DUP3 ADD AND DUP3 ADD DUP1 PUSH1 0x40 MSTORE POP DUP2 ADD SWAP1 PUSH2 0x29F SWAP2 SWAP1 PUSH2 0xAC1 JUMP JUMPDEST PUSH2 0x2DE JUMPI PUSH1 0x40 MLOAD PUSH32 0x8C379A000000000000000000000000000000000000000000000000000000000 DUP2 MSTORE PUSH1 0x4 ADD PUSH2 0x2D5 SWAP1 PUSH2 0xB36 JUMP JUMPDEST PUSH1 0x40 MLOAD DUP1 SWAP2 SUB SWAP1 REVERT JUMPDEST DUP3 DUP3 PUSH0 DUP2 DUP2 LT PUSH2 0x2F1 JUMPI PUSH2 0x2F0 PUSH2 0x9F0 JUMP JUMPDEST JUMPDEST SWAP1 POP PUSH1 0x20 MUL ADD PUSH1 0x20 DUP2 ADD SWAP1 PUSH2 0x306 SWAP2 SWAP1 PUSH2 0xA1D JUMP JUMPDEST PUSH20 0xFFFFFFFFFFFFFFFFFFFFFFFFFFFFFFFFFFFFFFFF AND PUSH4 0x95EA7B3 PUSH0 DUP1 SLOAD SWAP1 PUSH2 0x100 EXP SWAP1 DIV PUSH20 0xFFFFFFFFFFFFFFFFFFFFFFFFFFFFFFFFFFFFFFFF AND DUP8 PUSH1 0x40 MLOAD DUP4 PUSH4 0xFFFFFFFF AND PUSH1 0xE0 SHL DUP2 MSTORE PUSH1 0x4 ADD PUSH2 0x35F SWAP3 SWAP2 SWAP1 PUSH2 0xB54 JUMP JUMPDEST PUSH1 0x20 PUSH1 0x40 MLOAD DUP1 DUP4 SUB DUP2 PUSH0 DUP8 GAS CALL ISZERO DUP1 ISZERO PUSH2 0x37B JUMPI RETURNDATASIZE PUSH0 DUP1 RETURNDATACOPY RETURNDATASIZE PUSH0 REVERT JUMPDEST POP POP POP POP PUSH1 0x40 MLOAD RETURNDATASIZE PUSH1 0x1F NOT PUSH1 0x1F DUP3 ADD AND DUP3 ADD DUP1 PUSH1 0x40 MSTORE POP DUP2 ADD SWAP1 PUSH2 0x39F SWAP2 SWAP1 PUSH2 0xAC1 JUMP JUMPDEST PUSH2 0x3DE JUMPI PUSH1 0x40 MLOAD PUSH32 0x8C379A000000000000000000000000000000000000000000000000000000000 DUP2 MSTORE PUSH1 0x4 ADD PUSH2 0x3D5 SWAP1 PUSH2 0xBC5 JUMP JUMPDEST PUSH1 0x40 MLOAD DUP1 SWAP2 SUB SWAP1 REVERT JUMPDEST PUSH0 DUP1 SLOAD SWAP1 PUSH2 0x100 EXP SWAP1 DIV PUSH20 0xFFFFFFFFFFFFFFFFFFFFFFFFFFFFFFFFFFFFFFFF AND PUSH20 0xFFFFFFFFFFFFFFFFFFFFFFFFFFFFFFFFFFFFFFFF AND PUSH4 0x38ED1739 DUP7 DUP7 DUP7 DUP7 ADDRESS DUP8 PUSH1 0x40 MLOAD DUP8 PUSH4 0xFFFFFFFF AND PUSH1 0xE0 SHL DUP2 MSTORE PUSH1 0x4 ADD PUSH2 0x440 SWAP7 SWAP6 SWAP5 SWAP4 SWAP3 SWAP2 SWAP1 PUSH2 0xC9F JUMP JUMPDEST PUSH0 PUSH1 0x40 MLOAD DUP1 DUP4 SUB DUP2 PUSH0 DUP8 GAS CALL ISZERO DUP1 ISZERO PUSH2 0x45B JUMPI RETURNDATASIZE PUSH0 DUP1 RETURNDATACOPY RETURNDATASIZE PUSH0 REVERT JUMPDEST POP POP POP POP PUSH1 0x40 MLOAD RETURNDATASIZE PUSH0 DUP3 RETURNDATACOPY RETURNDATASIZE PUSH1 0x1F NOT PUSH1 0x1F DUP3 ADD AND DUP3 ADD DUP1 PUSH1 0x40 MSTORE POP DUP2 ADD SWAP1 PUSH2 0x483 SWAP2 SWAP1 PUSH2 0xE55 JUMP JUMPDEST POP POP POP POP POP POP JUMP JUMPDEST PUSH1 0x1 PUSH0 SWAP1 SLOAD SWAP1 PUSH2 0x100 EXP SWAP1 DIV PUSH20 0xFFFFFFFFFFFFFFFFFFFFFFFFFFFFFFFFFFFFFFFF AND PUSH20 0xFFFFFFFFFFFFFFFFFFFFFFFFFFFFFFFFFFFFFFFF AND CALLER PUSH20 0xFFFFFFFFFFFFFFFFFFFFFFFFFFFFFFFFFFFFFFFF AND EQ PUSH2 0x51A JUMPI PUSH1 0x40 MLOAD PUSH32 0x8C379A000000000000000000000000000000000000000000000000000000000 DUP2 MSTORE PUSH1 0x4 ADD PUSH2 0x511 SWAP1 PUSH2 0x9D2 JUMP JUMPDEST PUSH1 0x40 MLOAD DUP1 SWAP2 SUB SWAP1 REVERT JUMPDEST DUP2 PUSH20 0xFFFFFFFFFFFFFFFFFFFFFFFFFFFFFFFFFFFFFFFF AND PUSH4 0xA9059CBB PUSH1 0x1 PUSH0 SWAP1 SLOAD SWAP1 PUSH2 0x100 EXP SWAP1 DIV PUSH20 0xFFFFFFFFFFFFFFFFFFFFFFFFFFFFFFFFFFFFFFFF AND DUP4 PUSH1 0x40 MLOAD DUP4 PUSH4 0xFFFFFFFF AND PUSH1 0xE0 SHL DUP2 MSTORE PUSH1 0x4 ADD PUSH2 0x576 SWAP3 SWAP2 SWAP1 PUSH2 0xB54 JUMP JUMPDEST PUSH1 0x20 PUSH1 0x40 MLOAD DUP1 DUP4 SUB DUP2 PUSH0 DUP8 GAS CALL ISZERO DUP1 ISZERO PUSH2 0x592 JUMPI RETURNDATASIZE PUSH0 DUP1 RETURNDATACOPY RETURNDATASIZE PUSH0 REVERT JUMPDEST POP POP POP POP PUSH1 0x40 MLOAD RETURNDATASIZE PUSH1 0x1F NOT PUSH1 0x1F DUP3 ADD AND DUP3 ADD DUP1 PUSH1 0x40 MSTORE POP DUP2 ADD SWAP1 PUSH2 0x5B6 SWAP2 SWAP1 PUSH2 0xAC1 JUMP JUMPDEST PUSH2 0x5F5 JUMPI PUSH1 0x40 MLOAD PUSH32 0x8C379A000000000000000000000000000000000000000000000000000000000 DUP2 MSTORE PUSH1 0x4 ADD PUSH2 0x5EC SWAP1 PUSH2 0xB36 JUMP JUMPDEST PUSH1 0x40 MLOAD DUP1 SWAP2 SUB SWAP1 REVERT JUMPDEST POP POP JUMP JUMPDEST PUSH1 0x1 PUSH0 SWAP1 SLOAD SWAP1 PUSH2 0x100 EXP SWAP1 DIV PUSH20 0xFFFFFFFFFFFFFFFFFFFFFFFFFFFFFFFFFFFFFFFF AND PUSH20 0xFFFFFFFFFFFFFFFFFFFFFFFFFFFFFFFFFFFFFFFF AND CALLER PUSH20 0xFFFFFFFFFFFFFFFFFFFFFFFFFFFFFFFFFFFFFFFF AND EQ PUSH2 0x688 JUMPI PUSH1 0x40 MLOAD PUSH32 0x8C379A000000000000000000000000000000000000000000000000000000000 DUP2 MSTORE PUSH1 0x4 ADD PUSH2 0x67F SWAP1 PUSH2 0x9D2 JUMP JUMPDEST PUSH1 0x40 MLOAD DUP1 SWAP2 SUB SWAP1 REVERT JUMPDEST PUSH1 0x1 PUSH0 SWAP1 SLOAD SWAP1 PUSH2 0x100 EXP SWAP1 DIV PUSH20 0xFFFFFFFFFFFFFFFFFFFFFFFFFFFFFFFFFFFFFFFF AND PUSH20 0xFFFFFFFFFFFFFFFFFFFFFFFFFFFFFFFFFFFFFFFF AND PUSH2 0x8FC DUP3 SWAP1 DUP2 ISZERO MUL SWAP1 PUSH1 0x40 MLOAD PUSH0 PUSH1 0x40 MLOAD DUP1 DUP4 SUB DUP2 DUP6 DUP9 DUP9 CALL SWAP4 POP POP POP POP ISZERO DUP1 ISZERO PUSH2 0x6EC JUMPI RETURNDATASIZE PUSH0 DUP1 RETURNDATACOPY RETURNDATASIZE PUSH0 REVERT JUMPDEST POP POP JUMP JUMPDEST PUSH0 PUSH20 0xFFFFFFFFFFFFFFFFFFFFFFFFFFFFFFFFFFFFFFFF DUP3 AND SWAP1 POP SWAP2 SWAP1 POP JUMP JUMPDEST PUSH0 DUP2 SWAP1 POP SWAP2 SWAP1 POP JUMP JUMPDEST PUSH0 PUSH2 0x732 PUSH2 0x72D PUSH2 0x728 DUP5 PUSH2 0x6F0 JUMP JUMPDEST PUSH2 0x70F JUMP JUMPDEST PUSH2 0x6F0 JUMP JUMPDEST SWAP1 POP SWAP2 SWAP1 POP JUMP JUMPDEST PUSH0 PUSH2 0x743 DUP3 PUSH2 0x718 JUMP JUMPDEST SWAP1 POP SWAP2 SWAP1 POP JUMP JUMPDEST PUSH0 PUSH2 0x754 DUP3 PUSH2 0x739 JUMP JUMPDEST SWAP1 POP SWAP2 SWAP1 POP JUMP JUMPDEST PUSH2 0x764 DUP2 PUSH2 0x74A JUMP JUMPDEST DUP3 MSTORE POP POP JUMP JUMPDEST PUSH0 PUSH1 0x20 DUP3 ADD SWAP1 POP PUSH2 0x77D PUSH0 DUP4 ADD DUP5 PUSH2 0x75B JUMP JUMPDEST SWAP3 SWAP2 POP POP JUMP JUMPDEST PUSH0 PUSH2 0x78D DUP3 PUSH2 0x6F0 JUMP JUMPDEST SWAP1 POP SWAP2 SWAP1 POP JUMP JUMPDEST PUSH2 0x79D DUP2 PUSH2 0x783 JUMP JUMPDEST DUP3 MSTORE POP POP JUMP JUMPDEST PUSH0 PUSH1 0x20 DUP3 ADD SWAP1 POP PUSH2 0x7B6 PUSH0 DUP4 ADD DUP5 PUSH2 0x794 JUMP JUMPDEST SWAP3 SWAP2 POP POP JUMP JUMPDEST PUSH0 PUSH1 0x40 MLOAD SWAP1 POP SWAP1 JUMP JUMPDEST PUSH0 DUP1 REVERT JUMPDEST PUSH0 DUP1 REVERT JUMPDEST PUSH0 DUP2 SWAP1 POP SWAP2 SWAP1 POP JUMP JUMPDEST PUSH2 0x7DF DUP2 PUSH2 0x7CD JUMP JUMPDEST DUP2 EQ PUSH2 0x7E9 JUMPI PUSH0 DUP1 REVERT JUMPDEST POP JUMP JUMPDEST PUSH0 DUP2 CALLDATALOAD SWAP1 POP PUSH2 0x7FA DUP2 PUSH2 0x7D6 JUMP JUMPDEST SWAP3 SWAP2 POP POP JUMP JUMPDEST PUSH0 DUP1 REVERT JUMPDEST PUSH0 DUP1 REVERT JUMPDEST PUSH0 DUP1 REVERT JUMPDEST PUSH0 DUP1 DUP4 PUSH1 0x1F DUP5 ADD SLT PUSH2 0x821 JUMPI PUSH2 0x820 PUSH2 0x800 JUMP JUMPDEST JUMPDEST DUP3 CALLDATALOAD SWAP1 POP PUSH8 0xFFFFFFFFFFFFFFFF DUP2 GT ISZERO PUSH2 0x83E JUMPI PUSH2 0x83D PUSH2 0x804 JUMP JUMPDEST JUMPDEST PUSH1 0x20 DUP4 ADD SWAP2 POP DUP4 PUSH1 0x20 DUP3 MUL DUP4 ADD GT ISZERO PUSH2 0x85A JUMPI PUSH2 0x859 PUSH2 0x808 JUMP JUMPDEST JUMPDEST SWAP3 POP SWAP3 SWAP1 POP JUMP JUMPDEST PUSH0 DUP1 PUSH0 DUP1 PUSH0 PUSH1 0x80 DUP7 DUP9 SUB SLT ISZERO PUSH2 0x87A JUMPI PUSH2 0x879 PUSH2 0x7C5 JUMP JUMPDEST JUMPDEST PUSH0 PUSH2 0x887 DUP9 DUP3 DUP10 ADD PUSH2 0x7EC JUMP JUMPDEST SWAP6 POP POP PUSH1 0x20 PUSH2 0x898 DUP9 DUP3 DUP10 ADD PUSH2 0x7EC JUMP JUMPDEST SWAP5 POP POP PUSH1 0x40 DUP7 ADD CALLDATALOAD PUSH8 0xFFFFFFFFFFFFFFFF DUP2 GT ISZERO PUSH2 0x8B9 JUMPI PUSH2 0x8B8 PUSH2 0x7C9 JUMP JUMPDEST JUMPDEST PUSH2 0x8C5 DUP9 DUP3 DUP10 ADD PUSH2 0x80C JUMP JUMPDEST SWAP4 POP SWAP4 POP POP PUSH1 0x60 PUSH2 0x8D8 DUP9 DUP3 DUP10 ADD PUSH2 0x7EC JUMP JUMPDEST SWAP2 POP POP SWAP3 SWAP6 POP SWAP3 SWAP6 SWAP1 SWAP4 POP JUMP JUMPDEST PUSH2 0x8EE DUP2 PUSH2 0x783 JUMP JUMPDEST DUP2 EQ PUSH2 0x8F8 JUMPI PUSH0 DUP1 REVERT JUMPDEST POP JUMP JUMPDEST PUSH0 DUP2 CALLDATALOAD SWAP1 POP PUSH2 0x909 DUP2 PUSH2 0x8E5 JUMP JUMPDEST SWAP3 SWAP2 POP POP JUMP JUMPDEST PUSH0 DUP1 PUSH1 0x40 DUP4 DUP6 SUB SLT ISZERO PUSH2 0x925 JUMPI PUSH2 0x924 PUSH2 0x7C5 JUMP JUMPDEST JUMPDEST PUSH0 PUSH2 0x932 DUP6 DUP3 DUP7 ADD PUSH2 0x8FB JUMP JUMPDEST SWAP3 POP POP PUSH1 0x20 PUSH2 0x943 DUP6 DUP3 DUP7 ADD PUSH2 0x7EC JUMP JUMPDEST SWAP2 POP POP SWAP3 POP SWAP3 SWAP1 POP JUMP JUMPDEST PUSH0 PUSH1 0x20 DUP3 DUP5 SUB SLT ISZERO PUSH2 0x962 JUMPI PUSH2 0x961 PUSH2 0x7C5 JUMP JUMPDEST JUMPDEST PUSH0 PUSH2 0x96F DUP5 DUP3 DUP6 ADD PUSH2 0x7EC JUMP JUMPDEST SWAP2 POP POP SWAP3 SWAP2 POP POP JUMP JUMPDEST PUSH0 DUP3 DUP3 MSTORE PUSH1 0x20 DUP3 ADD SWAP1 POP SWAP3 SWAP2 POP POP JUMP JUMPDEST PUSH32 0x4E6F74206F776E65720000000000000000000000000000000000000000000000 PUSH0 DUP3 ADD MSTORE POP JUMP JUMPDEST PUSH0 PUSH2 0x9BC PUSH1 0x9 DUP4 PUSH2 0x978 JUMP JUMPDEST SWAP2 POP PUSH2 0x9C7 DUP3 PUSH2 0x988 JUMP JUMPDEST PUSH1 0x20 DUP3 ADD SWAP1 POP SWAP2 SWAP1 POP JUMP JUMPDEST PUSH0 PUSH1 0x20 DUP3 ADD SWAP1 POP DUP2 DUP2 SUB PUSH0 DUP4 ADD MSTORE PUSH2 0x9E9 DUP2 PUSH2 0x9B0 JUMP JUMPDEST SWAP1 POP SWAP2 SWAP1 POP JUMP JUMPDEST PUSH32 0x4E487B7100000000000000000000000000000000000000000000000000000000 PUSH0 MSTORE PUSH1 0x32 PUSH1 0x4 MSTORE PUSH1 0x24 PUSH0 REVERT JUMPDEST PUSH0 PUSH1 0x20 DUP3 DUP5 SUB SLT ISZERO PUSH2 0xA32 JUMPI PUSH2 0xA31 PUSH2 0x7C5 JUMP JUMPDEST JUMPDEST PUSH0 PUSH2 0xA3F DUP5 DUP3 DUP6 ADD PUSH2 0x8FB JUMP JUMPDEST SWAP2 POP POP SWAP3 SWAP2 POP POP JUMP JUMPDEST PUSH2 0xA51 DUP2 PUSH2 0x7CD JUMP JUMPDEST DUP3 MSTORE POP POP JUMP JUMPDEST PUSH0 PUSH1 0x60 DUP3 ADD SWAP1 POP PUSH2 0xA6A PUSH0 DUP4 ADD DUP7 PUSH2 0x794 JUMP JUMPDEST PUSH2 0xA77 PUSH1 0x20 DUP4 ADD DUP6 PUSH2 0x794 JUMP JUMPDEST PUSH2 0xA84 PUSH1 0x40 DUP4 ADD DUP5 PUSH2 0xA48 JUMP JUMPDEST SWAP5 SWAP4 POP POP POP POP JUMP JUMPDEST PUSH0 DUP2 ISZERO ISZERO SWAP1 POP SWAP2 SWAP1 POP JUMP JUMPDEST PUSH2 0xAA0 DUP2 PUSH2 0xA8C JUMP JUMPDEST DUP2 EQ PUSH2 0xAAA JUMPI PUSH0 DUP1 REVERT JUMPDEST POP JUMP JUMPDEST PUSH0 DUP2 MLOAD SWAP1 POP PUSH2 0xABB DUP2 PUSH2 0xA97 JUMP JUMPDEST SWAP3 SWAP2 POP POP JUMP JUMPDEST PUSH0 PUSH1 0x20 DUP3 DUP5 SUB SLT ISZERO PUSH2 0xAD6 JUMPI PUSH2 0xAD5 PUSH2 0x7C5 JUMP JUMPDEST JUMPDEST PUSH0 PUSH2 0xAE3 DUP5 DUP3 DUP6 ADD PUSH2 0xAAD JUMP JUMPDEST SWAP2 POP POP SWAP3 SWAP2 POP POP JUMP JUMPDEST PUSH32 0x5472616E73666572206661696C65640000000000000000000000000000000000 PUSH0 DUP3 ADD MSTORE POP JUMP JUMPDEST PUSH0 PUSH2 0xB20 PUSH1 0xF DUP4 PUSH2 0x978 JUMP JUMPDEST SWAP2 POP PUSH2 0xB2B DUP3 PUSH2 0xAEC JUMP JUMPDEST PUSH1 0x20 DUP3 ADD SWAP1 POP SWAP2 SWAP1 POP JUMP JUMPDEST PUSH0 PUSH1 0x20 DUP3 ADD SWAP1 POP DUP2 DUP2 SUB PUSH0 DUP4 ADD MSTORE PUSH2 0xB4D DUP2 PUSH2 0xB14 JUMP JUMPDEST SWAP1 POP SWAP2 SWAP1 POP JUMP JUMPDEST PUSH0 PUSH1 0x40 DUP3 ADD SWAP1 POP PUSH2 0xB67 PUSH0 DUP4 ADD DUP6 PUSH2 0x794 JUMP JUMPDEST PUSH2 0xB74 PUSH1 0x20 DUP4 ADD DUP5 PUSH2 0xA48 JUMP JUMPDEST SWAP4 SWAP3 POP POP POP JUMP JUMPDEST PUSH32 0x417070726F7665206661696C6564000000000000000000000000000000000000 PUSH0 DUP3 ADD MSTORE POP JUMP JUMPDEST PUSH0 PUSH2 0xBAF PUSH1 0xE DUP4 PUSH2 0x978 JUMP JUMPDEST SWAP2 POP PUSH2 0xBBA DUP3 PUSH2 0xB7B JUMP JUMPDEST PUSH1 0x20 DUP3 ADD SWAP1 POP SWAP2 SWAP1 POP JUMP JUMPDEST PUSH0 PUSH1 0x20 DUP3 ADD SWAP1 POP DUP2 DUP2 SUB PUSH0 DUP4 ADD MSTORE PUSH2 0xBDC DUP2 PUSH2 0xBA3 JUMP JUMPDEST SWAP1 POP SWAP2 SWAP1 POP JUMP JUMPDEST PUSH0 DUP3 DUP3 MSTORE PUSH1 0x20 DUP3 ADD SWAP1 POP SWAP3 SWAP2 POP POP JUMP JUMPDEST PUSH0 DUP2 SWAP1 POP SWAP2 SWAP1 POP JUMP JUMPDEST PUSH2 0xC05 DUP2 PUSH2 0x783 JUMP JUMPDEST DUP3 MSTORE POP POP JUMP JUMPDEST PUSH0 PUSH2 0xC16 DUP4 DUP4 PUSH2 0xBFC JUMP JUMPDEST PUSH1 0x20 DUP4 ADD SWAP1 POP SWAP3 SWAP2 POP POP JUMP JUMPDEST PUSH0 PUSH2 0xC30 PUSH1 0x20 DUP5 ADD DUP5 PUSH2 0x8FB JUMP JUMPDEST SWAP1 POP SWAP3 SWAP2 POP POP JUMP JUMPDEST PUSH0 PUSH1 0x20 DUP3 ADD SWAP1 POP SWAP2 SWAP1 POP JUMP JUMPDEST PUSH0 PUSH2 0xC4F DUP4 DUP6 PUSH2 0xBE3 JUMP JUMPDEST SWAP4 POP PUSH2 0xC5A DUP3 PUSH2 0xBF3 JUMP JUMPDEST DUP1 PUSH0 JUMPDEST DUP6 DUP2 LT ISZERO PUSH2 0xC92 JUMPI PUSH2 0xC6F DUP3 DUP5 PUSH2 0xC22 JUMP JUMPDEST PUSH2 0xC79 DUP9 DUP3 PUSH2 0xC0B JUMP JUMPDEST SWAP8 POP PUSH2 0xC84 DUP4 PUSH2 0xC38 JUMP JUMPDEST SWAP3 POP POP PUSH1 0x1 DUP2 ADD SWAP1 POP PUSH2 0xC5D JUMP JUMPDEST POP DUP6 SWAP3 POP POP POP SWAP4 SWAP3 POP POP POP JUMP JUMPDEST PUSH0 PUSH1 0xA0 DUP3 ADD SWAP1 POP PUSH2 0xCB2 PUSH0 DUP4 ADD DUP10 PUSH2 0xA48 JUMP JUMPDEST PUSH2 0xCBF PUSH1 0x20 DUP4 ADD DUP9 PUSH2 0xA48 JUMP JUMPDEST DUP2 DUP2 SUB PUSH1 0x40 DUP4 ADD MSTORE PUSH2 0xCD2 DUP2 DUP7 DUP9 PUSH2 0xC44 JUMP JUMPDEST SWAP1 POP PUSH2 0xCE1 PUSH1 0x60 DUP4 ADD DUP6 PUSH2 0x794 JUMP JUMPDEST PUSH2 0xCEE PUSH1 0x80 DUP4 ADD DUP5 PUSH2 0xA48 JUMP JUMPDEST SWAP8 SWAP7 POP POP POP POP POP POP POP JUMP JUMPDEST PUSH0 PUSH1 0x1F NOT PUSH1 0x1F DUP4 ADD AND SWAP1 POP SWAP2 SWAP1 POP JUMP JUMPDEST PUSH32 0x4E487B7100000000000000000000000000000000000000000000000000000000 PUSH0 MSTORE PUSH1 0x41 PUSH1 0x4 MSTORE PUSH1 0x24 PUSH0 REVERT JUMPDEST PUSH2 0xD3F DUP3 PUSH2 0xCF9 JUMP JUMPDEST DUP2 ADD DUP2 DUP2 LT PUSH8 0xFFFFFFFFFFFFFFFF DUP3 GT OR ISZERO PUSH2 0xD5E JUMPI PUSH2 0xD5D PUSH2 0xD09 JUMP JUMPDEST JUMPDEST DUP1 PUSH1 0x40 MSTORE POP POP POP JUMP JUMPDEST PUSH0 PUSH2 0xD70 PUSH2 0x7BC JUMP JUMPDEST SWAP1 POP PUSH2 0xD7C DUP3 DUP3 PUSH2 0xD36 JUMP JUMPDEST SWAP2 SWAP1 POP JUMP JUMPDEST PUSH0 PUSH8 0xFFFFFFFFFFFFFFFF DUP3 GT ISZERO PUSH2 0xD9B JUMPI PUSH2 0xD9A PUSH2 0xD09 JUMP JUMPDEST JUMPDEST PUSH1 0x20 DUP3 MUL SWAP1 POP PUSH1 0x20 DUP2 ADD SWAP1 POP SWAP2 SWAP1 POP JUMP JUMPDEST PUSH0 DUP2 MLOAD SWAP1 POP PUSH2 0xDBA DUP2 PUSH2 0x7D6 JUMP JUMPDEST SWAP3 SWAP2 POP POP JUMP JUMPDEST PUSH0 PUSH2 0xDD2 PUSH2 0xDCD DUP5 PUSH2 0xD81 JUMP JUMPDEST PUSH2 0xD67 JUMP JUMPDEST SWAP1 POP DUP1 DUP4 DUP3 MSTORE PUSH1 0x20 DUP3 ADD SWAP1 POP PUSH1 0x20 DUP5 MUL DUP4 ADD DUP6 DUP2 GT ISZERO PUSH2 0xDF5 JUMPI PUSH2 0xDF4 PUSH2 0x808 JUMP JUMPDEST JUMPDEST DUP4 JUMPDEST DUP2 DUP2 LT ISZERO PUSH2 0xE1E JUMPI DUP1 PUSH2 0xE0A DUP9 DUP3 PUSH2 0xDAC JUMP JUMPDEST DUP5 MSTORE PUSH1 0x20 DUP5 ADD SWAP4 POP POP PUSH1 0x20 DUP2 ADD SWAP1 POP PUSH2 0xDF7 JUMP JUMPDEST POP POP POP SWAP4 SWAP3 POP POP POP JUMP JUMPDEST PUSH0 DUP3 PUSH1 0x1F DUP4 ADD SLT PUSH2 0xE3C JUMPI PUSH2 0xE3B PUSH2 0x800 JUMP JUMPDEST JUMPDEST DUP2 MLOAD PUSH2 0xE4C DUP5 DUP3 PUSH1 0x20 DUP7 ADD PUSH2 0xDC0 JUMP JUMPDEST SWAP2 POP POP SWAP3 SWAP2 POP POP JUMP JUMPDEST PUSH0 PUSH1 0x20 DUP3 DUP5 SUB SLT ISZERO PUSH2 0xE6A JUMPI PUSH2 0xE69 PUSH2 0x7C5 JUMP JUMPDEST JUMPDEST PUSH0 DUP3 ADD MLOAD PUSH8 0xFFFFFFFFFFFFFFFF DUP2 GT ISZERO PUSH2 0xE87 JUMPI PUSH2 0xE86 PUSH2 0x7C9 JUMP JUMPDEST JUMPDEST PUSH2 0xE93 DUP5 DUP3 DUP6 ADD PUSH2 0xE28 JUMP JUMPDEST SWAP2 POP POP SWAP3 SWAP2 POP POP JUMP INVALID LOG2 PUSH5 0x6970667358 0x22 SLT KECCAK256 DUP10 DUP6 PUSH8 0x1810FA6539E7EB0E LOG1 TLOAD PUSH4 0xB2BF5944 0x23 0xF7 PUSH4 0x7913693F TLOAD 0xB3 BALANCE 0xB8 PUSH15 0x902564736F6C634300081A00330000 "
				},
				"gasEstimates": {
					"creation": {
						"codeDepositCost": "758800",
						"executionCost": "infinite",
						"totalCost": "infinite"
					},
					"external": {
						"executeSandwichAttack(uint256,uint256,address[],uint256)": "infinite",
						"owner()": "2508",
						"uniswapRouter()": "infinite",
						"withdrawETH(uint256)": "infinite",
						"withdrawToken(address,uint256)": "infinite"
					}
				},
				"methodIdentifiers": {
					"executeSandwichAttack(uint256,uint256,address[],uint256)": "95cf1692",
					"owner()": "8da5cb5b",
					"uniswapRouter()": "735de9f7",
					"withdrawETH(uint256)": "f14210a6",
					"withdrawToken(address,uint256)": "9e281a98"
				}
			},
			"storageLayout": {
				"storage": [
					{
						"astId": 70,
						"contract": "Sandwich.sol:Sandwich",
						"label": "uniswapRouter",
						"offset": 0,
						"slot": "0",
						"type": "t_contract(IUniswapV2Router)30"
					},
					{
						"astId": 72,
						"contract": "Sandwich.sol:Sandwich",
						"label": "owner",
						"offset": 0,
						"slot": "1",
						"type": "t_address"
					}
				],
				"types": {
					"t_address": {
						"encoding": "inplace",
						"label": "address",
						"numberOfBytes": "20"
					},
					"t_contract(IUniswapV2Router)30": {
						"encoding": "inplace",
						"label": "contract IUniswapV2Router",
						"numberOfBytes": "20"
					}
				}
			},
			"userdoc": {
				"kind": "user",
				"methods": {},
				"version": 1
			}
		}
	}
}